{
	"abi": [
		{
			"inputs": [
				{
					"internalType": "address",
					"name": "_priceFeed",
					"type": "address"
				},
				{
					"internalType": "address",
					"name": "_clearingHouse",
					"type": "address"
				}
			],
			"stateMutability": "nonpayable",
			"type": "constructor"
		},
		{
			"inputs": [],
			"name": "BASE_RESERVE_IS_ZERO",
			"type": "error"
		},
		{
			"inputs": [],
			"name": "FUNDING_INTERVAL_NOT_PASSED",
			"type": "error"
		},
		{
			"inputs": [],
			"name": "INACTIVE",
			"type": "error"
		},
		{
			"inputs": [],
			"name": "INSUFFICIENT_LIQUIDITY",
			"type": "error"
		},
		{
			"inputs": [],
			"name": "INSUFFICIENT_MARGIN",
			"type": "error"
		},
		{
			"inputs": [],
			"name": "INVALID_RATIO",
			"type": "error"
		},
		{
			"inputs": [],
			"name": "LEVERAGE_TOO_HIGH",
			"type": "error"
		},
		{
			"inputs": [],
			"name": "NOT_CLEARING_HOUSE",
			"type": "error"
		},
		{
			"inputs": [],
			"name": "NOT_POSITION_MANAGER",
			"type": "error"
		},
		{
			"inputs": [],
			"name": "NewOwnerIsZeroAddress",
			"type": "error"
		},
		{
			"inputs": [],
			"name": "NoHandoverRequest",
			"type": "error"
		},
		{
			"inputs": [],
			"name": "OVER_MAX_BASE",
			"type": "error"
		},
		{
			"inputs": [],
			"name": "OVER_MAX_QUOTE",
			"type": "error"
		},
		{
			"inputs": [],
			"name": "OVER_TRADING_LIMIT",
			"type": "error"
		},
		{
			"inputs": [],
			"name": "PRICE_OVER_FLUCTUATION_LIMIT",
			"type": "error"
		},
		{
			"inputs": [],
			"name": "QUOTE_RESERVE_IS_ZERO",
			"type": "error"
		},
		{
			"inputs": [],
			"name": "UNDER_MIN_BASE",
			"type": "error"
		},
		{
			"inputs": [],
			"name": "UNDER_MIN_LIQUIDITY",
			"type": "error"
		},
		{
			"inputs": [],
			"name": "UNDER_MIN_QUOTE",
			"type": "error"
		},
		{
			"inputs": [],
			"name": "Unauthorized",
			"type": "error"
		},
		{
			"anonymous": false,
			"inputs": [
				{
					"indexed": false,
					"internalType": "uint256",
					"name": "newAMMFeeRatio",
					"type": "uint256"
				}
			],
			"name": "AMMFeeRatioChanged",
			"type": "event"
		},
		{
			"anonymous": false,
			"inputs": [
				{
					"indexed": false,
					"internalType": "uint256",
					"name": "newFeeRatio",
					"type": "uint256"
				}
			],
			"name": "BaseFeeRatioChanged",
			"type": "event"
		},
		{
			"anonymous": false,
			"inputs": [
				{
					"indexed": false,
					"internalType": "uint256",
					"name": "maxHoldingBaseAsset",
					"type": "uint256"
				},
				{
					"indexed": false,
					"internalType": "uint256",
					"name": "openInterestNotionalCap",
					"type": "uint256"
				}
			],
			"name": "CapChanged",
			"type": "event"
		},
		{
			"anonymous": false,
			"inputs": [
				{
					"indexed": false,
					"internalType": "uint256",
					"name": "ratio",
					"type": "uint256"
				}
			],
			"name": "FluctuationLimitRatioChanged",
			"type": "event"
		},
		{
			"anonymous": false,
			"inputs": [
				{
					"indexed": false,
					"internalType": "uint256",
					"name": "fundingPeriod",
					"type": "uint256"
				}
			],
			"name": "FundingPeriodChanged",
			"type": "event"
		},
		{
			"anonymous": false,
			"inputs": [
				{
					"indexed": false,
					"internalType": "int256",
					"name": "fundingRate",
					"type": "int256"
				},
				{
					"indexed": false,
					"internalType": "uint256",
					"name": "price",
					"type": "uint256"
				}
			],
			"name": "FundingRateUpdated",
			"type": "event"
		},
		{
			"anonymous": false,
			"inputs": [
				{
					"indexed": false,
					"internalType": "uint256",
					"name": "ratio",
					"type": "uint256"
				}
			],
			"name": "InitMarginRatioChanged",
			"type": "event"
		},
		{
			"anonymous": false,
			"inputs": [
				{
					"indexed": false,
					"internalType": "uint8",
					"name": "version",
					"type": "uint8"
				}
			],
			"name": "Initialized",
			"type": "event"
		},
		{
			"anonymous": false,
			"inputs": [
				{
					"indexed": false,
					"internalType": "uint256",
					"name": "newKeeperFeeRatio",
					"type": "uint256"
				}
			],
			"name": "KeeperFeeRatioChanged",
			"type": "event"
		},
		{
			"anonymous": false,
			"inputs": [
				{
					"indexed": false,
					"internalType": "uint256",
					"name": "newLiquidatorFeeRatio",
					"type": "uint256"
				}
			],
			"name": "LimitMakerFeeRatioChanged",
			"type": "event"
		},
		{
			"anonymous": false,
			"inputs": [
				{
					"indexed": false,
					"internalType": "uint256",
					"name": "ratio",
					"type": "uint256"
				}
			],
			"name": "LiquidationFeeRatioChanged",
			"type": "event"
		},
		{
			"anonymous": false,
			"inputs": [
				{
					"indexed": false,
					"internalType": "uint256",
					"name": "quoteAmount",
					"type": "uint256"
				},
				{
					"indexed": false,
					"internalType": "uint256",
					"name": "baseAmount",
					"type": "uint256"
				},
				{
					"indexed": false,
					"internalType": "uint256",
					"name": "liquidityAdded",
					"type": "uint256"
				},
				{
					"indexed": false,
					"internalType": "uint256",
					"name": "quoteReserve",
					"type": "uint256"
				},
				{
					"indexed": false,
					"internalType": "uint256",
					"name": "baseReserve",
					"type": "uint256"
				},
				{
					"indexed": false,
					"internalType": "uint256",
					"name": "liquidityTotal",
					"type": "uint256"
				}
			],
			"name": "LiquidityAdded",
			"type": "event"
		},
		{
			"anonymous": false,
			"inputs": [
				{
					"indexed": false,
					"internalType": "uint256",
					"name": "quoteAmount",
					"type": "uint256"
				},
				{
					"indexed": false,
					"internalType": "uint256",
					"name": "baseAmount",
					"type": "uint256"
				},
				{
					"indexed": false,
					"internalType": "uint256",
					"name": "liquidityRemoved",
					"type": "uint256"
				},
				{
					"indexed": false,
					"internalType": "uint256",
					"name": "quoteReserve",
					"type": "uint256"
				},
				{
					"indexed": false,
					"internalType": "uint256",
					"name": "baseReserve",
					"type": "uint256"
				},
				{
					"indexed": false,
					"internalType": "uint256",
					"name": "liquidityTotal",
					"type": "uint256"
				}
			],
			"name": "LiquidityRemoved",
			"type": "event"
		},
		{
			"anonymous": false,
			"inputs": [
				{
					"indexed": false,
					"internalType": "uint256",
					"name": "ratio",
					"type": "uint256"
				}
			],
			"name": "MaintenanceMarginRatioChanged",
			"type": "event"
		},
		{
			"anonymous": false,
			"inputs": [
				{
					"indexed": false,
					"internalType": "uint256",
					"name": "quoteAssetReserve",
					"type": "uint256"
				},
				{
					"indexed": false,
					"internalType": "uint256",
					"name": "baseAssetReserve",
					"type": "uint256"
				},
				{
					"indexed": false,
					"internalType": "uint256",
					"name": "timestamp",
					"type": "uint256"
				}
			],
			"name": "NewReserveSnapshot",
			"type": "event"
		},
		{
			"anonymous": false,
			"inputs": [
				{
					"indexed": true,
					"internalType": "address",
					"name": "pendingOwner",
					"type": "address"
				}
			],
			"name": "OwnershipHandoverCanceled",
			"type": "event"
		},
		{
			"anonymous": false,
			"inputs": [
				{
					"indexed": true,
					"internalType": "address",
					"name": "pendingOwner",
					"type": "address"
				}
			],
			"name": "OwnershipHandoverRequested",
			"type": "event"
		},
		{
			"anonymous": false,
			"inputs": [
				{
					"indexed": true,
					"internalType": "address",
					"name": "oldOwner",
					"type": "address"
				},
				{
					"indexed": true,
					"internalType": "address",
					"name": "newOwner",
					"type": "address"
				}
			],
			"name": "OwnershipTransferred",
			"type": "event"
		},
		{
			"anonymous": false,
			"inputs": [
				{
					"indexed": false,
					"internalType": "uint256",
					"name": "ratio",
					"type": "uint256"
				}
			],
			"name": "PartialLiquidationRatioChanged",
			"type": "event"
		},
		{
			"anonymous": false,
			"inputs": [
				{
					"indexed": false,
					"internalType": "enum Dir",
					"name": "dirOfBase",
					"type": "uint8"
				},
				{
					"indexed": false,
					"internalType": "uint256",
					"name": "quoteAmount",
					"type": "uint256"
				},
				{
					"indexed": false,
					"internalType": "uint256",
					"name": "baseAmount",
					"type": "uint256"
				}
			],
			"name": "SwapClose",
			"type": "event"
		},
		{
			"anonymous": false,
			"inputs": [
				{
					"indexed": false,
					"internalType": "enum Dir",
					"name": "dirOfQuote",
					"type": "uint8"
				},
				{
					"indexed": false,
					"internalType": "uint256",
					"name": "quoteAmount",
					"type": "uint256"
				},
				{
					"indexed": false,
					"internalType": "uint256",
					"name": "baseAmount",
					"type": "uint256"
				}
			],
			"name": "SwapOpen",
			"type": "event"
		},
		{
			"anonymous": false,
			"inputs": [
				{
					"indexed": false,
					"internalType": "uint256",
					"name": "ratio",
					"type": "uint256"
				}
			],
			"name": "TradeLimitRatioChanged",
			"type": "event"
		},
		{
			"inputs": [
				{
					"internalType": "address",
					"name": "maker",
					"type": "address"
				},
				{
					"internalType": "uint256",
					"name": "margin",
					"type": "uint256"
				},
				{
					"internalType": "uint256",
					"name": "leverage",
					"type": "uint256"
				},
				{
					"internalType": "uint256",
					"name": "minLiquidity",
					"type": "uint256"
				},
				{
					"components": [
						{
							"internalType": "int256",
							"name": "premiumFraction",
							"type": "int256"
						},
						{
							"internalType": "int256",
							"name": "premiumFractionPerShare",
							"type": "int256"
						},
						{
							"internalType": "int256",
							"name": "netPositionOffsetPerShare",
							"type": "int256"
						},
						{
							"internalType": "uint256",
							"name": "feeGrowth",
							"type": "uint256"
						}
					],
					"internalType": "struct AMMData",
					"name": "data",
					"type": "tuple"
				}
			],
			"name": "addLiquidity",
			"outputs": [
				{
					"internalType": "uint256",
					"name": "liquidity",
					"type": "uint256"
				},
				{
					"internalType": "int256",
					"name": "fundingPayment",
					"type": "int256"
				}
			],
			"stateMutability": "nonpayable",
			"type": "function"
		},
		{
			"inputs": [
				{
					"internalType": "uint256",
					"name": "quoteAmount",
					"type": "uint256"
				}
			],
			"name": "calcLimitFee",
			"outputs": [
				{
					"internalType": "uint256",
					"name": "limitFee",
					"type": "uint256"
				}
			],
			"stateMutability": "view",
			"type": "function"
		},
		{
			"inputs": [],
			"name": "cancelOwnershipHandover",
			"outputs": [],
			"stateMutability": "payable",
			"type": "function"
		},
		{
			"inputs": [],
			"name": "clearingHouse",
			"outputs": [
				{
					"internalType": "address",
					"name": "",
					"type": "address"
				}
			],
			"stateMutability": "view",
			"type": "function"
		},
		{
			"inputs": [
				{
					"internalType": "address",
					"name": "pendingOwner",
					"type": "address"
				}
			],
			"name": "completeOwnershipHandover",
			"outputs": [],
			"stateMutability": "payable",
			"type": "function"
		},
		{
			"inputs": [],
			"name": "getBaseFeeRatio",
			"outputs": [
				{
					"internalType": "uint256",
					"name": "",
					"type": "uint256"
				}
			],
			"stateMutability": "view",
			"type": "function"
		},
		{
			"inputs": [
				{
					"internalType": "uint256",
					"name": "targetPrice",
					"type": "uint256"
				}
			],
			"name": "getBaseToFill",
			"outputs": [
				{
					"internalType": "uint256",
					"name": "",
					"type": "uint256"
				}
			],
			"stateMutability": "view",
			"type": "function"
		},
		{
			"inputs": [],
			"name": "getFeeRatiosTotalSupply",
			"outputs": [
				{
					"components": [
						{
							"internalType": "uint256",
							"name": "baseFeeRatio",
							"type": "uint256"
						},
						{
							"internalType": "uint256",
							"name": "ammFeeRatio",
							"type": "uint256"
						},
						{
							"internalType": "uint256",
							"name": "limitMakerFeeRatio",
							"type": "uint256"
						},
						{
							"internalType": "uint256",
							"name": "keeperFeeRatio",
							"type": "uint256"
						},
						{
							"internalType": "uint256",
							"name": "liquidationFeeRatio",
							"type": "uint256"
						}
					],
					"internalType": "struct FeeRatios",
					"name": "",
					"type": "tuple"
				},
				{
					"internalType": "uint256",
					"name": "",
					"type": "uint256"
				}
			],
			"stateMutability": "view",
			"type": "function"
		},
		{
			"inputs": [],
			"name": "getFluctuationLimitRatio",
			"outputs": [
				{
					"internalType": "uint256",
					"name": "",
					"type": "uint256"
				}
			],
			"stateMutability": "view",
			"type": "function"
		},
		{
			"inputs": [],
			"name": "getFundingPeriod",
			"outputs": [
				{
					"internalType": "uint256",
					"name": "",
					"type": "uint256"
				}
			],
			"stateMutability": "view",
			"type": "function"
		},
		{
			"inputs": [],
			"name": "getIndexPrice",
			"outputs": [
				{
					"internalType": "uint256",
					"name": "",
					"type": "uint256"
				}
			],
			"stateMutability": "view",
			"type": "function"
		},
		{
			"inputs": [],
			"name": "getInitializationPrice",
			"outputs": [
				{
					"internalType": "uint256",
					"name": "",
					"type": "uint256"
				}
			],
			"stateMutability": "view",
			"type": "function"
		},
		{
			"inputs": [
				{
					"internalType": "enum Dir",
					"name": "dirOfQuote",
					"type": "uint8"
				},
				{
					"internalType": "uint256",
					"name": "quoteAmount",
					"type": "uint256"
				}
			],
			"name": "getInputPrice",
			"outputs": [
				{
					"internalType": "uint256",
					"name": "baseAmount",
					"type": "uint256"
				}
			],
			"stateMutability": "view",
			"type": "function"
		},
		{
			"inputs": [],
			"name": "getLiqidationFeeRatio",
			"outputs": [
				{
					"internalType": "uint256",
					"name": "",
					"type": "uint256"
				}
			],
			"stateMutability": "view",
			"type": "function"
		},
		{
			"inputs": [],
			"name": "getLiquidationPrice",
			"outputs": [
				{
					"internalType": "uint256",
					"name": "",
					"type": "uint256"
				}
			],
			"stateMutability": "view",
			"type": "function"
		},
		{
			"inputs": [
				{
					"internalType": "address",
					"name": "maker",
					"type": "address"
				}
			],
			"name": "getMakerPosition",
			"outputs": [
				{
					"components": [
						{
							"internalType": "uint256",
							"name": "margin",
							"type": "uint256"
						},
						{
							"internalType": "uint256",
							"name": "quote",
							"type": "uint256"
						},
						{
							"internalType": "uint256",
							"name": "base",
							"type": "uint256"
						},
						{
							"internalType": "uint256",
							"name": "liquidity",
							"type": "uint256"
						},
						{
							"internalType": "int256",
							"name": "position",
							"type": "int256"
						},
						{
							"internalType": "uint256",
							"name": "lastFeeGrowth",
							"type": "uint256"
						},
						{
							"internalType": "uint256",
							"name": "fees",
							"type": "uint256"
						},
						{
							"internalType": "int256",
							"name": "lastPremiumFraction",
							"type": "int256"
						},
						{
							"internalType": "int256",
							"name": "lastPremiumFractionPerShare",
							"type": "int256"
						},
						{
							"internalType": "int256",
							"name": "lastPositionOffsetPerShare",
							"type": "int256"
						},
						{
							"internalType": "uint256",
							"name": "blockNumber",
							"type": "uint256"
						}
					],
					"internalType": "struct MakerPosition",
					"name": "",
					"type": "tuple"
				}
			],
			"stateMutability": "view",
			"type": "function"
		},
		{
			"inputs": [
				{
					"internalType": "uint256",
					"name": "liquidity",
					"type": "uint256"
				}
			],
			"name": "getMakerValueTotalLiquidityTPS",
			"outputs": [
				{
					"internalType": "uint256",
					"name": "quoteAmount",
					"type": "uint256"
				},
				{
					"internalType": "uint256",
					"name": "baseAmount",
					"type": "uint256"
				},
				{
					"internalType": "uint256",
					"name": "totalSupply",
					"type": "uint256"
				},
				{
					"internalType": "int256",
					"name": "tps",
					"type": "int256"
				}
			],
			"stateMutability": "view",
			"type": "function"
		},
		{
			"inputs": [],
			"name": "getMarginRatio",
			"outputs": [
				{
					"internalType": "uint256",
					"name": "",
					"type": "uint256"
				}
			],
			"stateMutability": "view",
			"type": "function"
		},
		{
			"inputs": [],
			"name": "getMarkPrice",
			"outputs": [
				{
					"internalType": "uint256",
					"name": "",
					"type": "uint256"
				}
			],
			"stateMutability": "view",
			"type": "function"
		},
		{
			"inputs": [
				{
					"internalType": "enum Dir",
					"name": "dirOfBase",
					"type": "uint8"
				},
				{
					"internalType": "uint256",
					"name": "baseAmount",
					"type": "uint256"
				}
			],
			"name": "getMarkPriceAfterClose",
			"outputs": [
				{
					"internalType": "uint256",
					"name": "",
					"type": "uint256"
				}
			],
			"stateMutability": "view",
			"type": "function"
		},
		{
			"inputs": [
				{
					"internalType": "enum Dir",
					"name": "dirOfQuote",
					"type": "uint8"
				},
				{
					"internalType": "uint256",
					"name": "quoteAmount",
					"type": "uint256"
				}
			],
			"name": "getMarkPriceAfterOpen",
			"outputs": [
				{
					"internalType": "uint256",
					"name": "",
					"type": "uint256"
				}
			],
			"stateMutability": "view",
			"type": "function"
		},
		{
			"inputs": [],
			"name": "getMaxSize",
			"outputs": [
				{
					"internalType": "uint256",
					"name": "",
					"type": "uint256"
				}
			],
			"stateMutability": "view",
			"type": "function"
		},
		{
			"inputs": [],
			"name": "getNextFundingTime",
			"outputs": [
				{
					"internalType": "uint256",
					"name": "",
					"type": "uint256"
				}
			],
			"stateMutability": "view",
			"type": "function"
		},
		{
			"inputs": [],
			"name": "getOpenInterestCap",
			"outputs": [
				{
					"internalType": "uint256",
					"name": "",
					"type": "uint256"
				}
			],
			"stateMutability": "view",
			"type": "function"
		},
		{
			"inputs": [],
			"name": "getOpenMarginRatio",
			"outputs": [
				{
					"internalType": "uint256",
					"name": "",
					"type": "uint256"
				}
			],
			"stateMutability": "view",
			"type": "function"
		},
		{
			"inputs": [
				{
					"internalType": "enum Dir",
					"name": "dirOfBase",
					"type": "uint8"
				},
				{
					"internalType": "uint256",
					"name": "baseAmount",
					"type": "uint256"
				}
			],
			"name": "getOutputPrice",
			"outputs": [
				{
					"internalType": "uint256",
					"name": "",
					"type": "uint256"
				}
			],
			"stateMutability": "view",
			"type": "function"
		},
		{
			"inputs": [],
			"name": "getPartialLiquidationRatio",
			"outputs": [
				{
					"internalType": "uint256",
					"name": "",
					"type": "uint256"
				}
			],
			"stateMutability": "view",
			"type": "function"
		},
		{
			"inputs": [
				{
					"internalType": "uint256",
					"name": "targetPrice",
					"type": "uint256"
				}
			],
			"name": "getQuoteToFill",
			"outputs": [
				{
					"internalType": "uint256",
					"name": "",
					"type": "uint256"
				}
			],
			"stateMutability": "view",
			"type": "function"
		},
		{
			"inputs": [],
			"name": "getRatios",
			"outputs": [
				{
					"components": [
						{
							"internalType": "uint256",
							"name": "baseFeeRatio",
							"type": "uint256"
						},
						{
							"internalType": "uint256",
							"name": "initMarginRatio",
							"type": "uint256"
						},
						{
							"internalType": "uint256",
							"name": "maintenanceMarginRatio",
							"type": "uint256"
						},
						{
							"internalType": "uint256",
							"name": "partialLiquidationRatio",
							"type": "uint256"
						},
						{
							"internalType": "uint256",
							"name": "liquidationFeeRatio",
							"type": "uint256"
						}
					],
					"internalType": "struct Ratios",
					"name": "",
					"type": "tuple"
				}
			],
			"stateMutability": "view",
			"type": "function"
		},
		{
			"inputs": [],
			"name": "getReserves",
			"outputs": [
				{
					"internalType": "uint256",
					"name": "",
					"type": "uint256"
				},
				{
					"internalType": "uint256",
					"name": "",
					"type": "uint256"
				}
			],
			"stateMutability": "view",
			"type": "function"
		},
		{
			"inputs": [],
			"name": "getReservesAndK",
			"outputs": [
				{
					"internalType": "uint256",
					"name": "",
					"type": "uint256"
				},
				{
					"internalType": "uint256",
					"name": "",
					"type": "uint256"
				},
				{
					"internalType": "uint256",
					"name": "",
					"type": "uint256"
				}
			],
			"stateMutability": "view",
			"type": "function"
		},
		{
			"inputs": [],
			"name": "getReservesAndTotalLiquidity",
			"outputs": [
				{
					"internalType": "uint256",
					"name": "",
					"type": "uint256"
				},
				{
					"internalType": "uint256",
					"name": "",
					"type": "uint256"
				},
				{
					"internalType": "uint256",
					"name": "",
					"type": "uint256"
				}
			],
			"stateMutability": "view",
			"type": "function"
		},
		{
			"inputs": [],
			"name": "getTotalPositionSize",
			"outputs": [
				{
					"internalType": "int256",
					"name": "",
					"type": "int256"
				}
			],
			"stateMutability": "view",
			"type": "function"
		},
		{
			"inputs": [],
			"name": "getTotalSupply",
			"outputs": [
				{
					"internalType": "uint256",
					"name": "",
					"type": "uint256"
				}
			],
			"stateMutability": "view",
			"type": "function"
		},
		{
			"inputs": [],
			"name": "getTradeLimitRatio",
			"outputs": [
				{
					"internalType": "uint256",
					"name": "",
					"type": "uint256"
				}
			],
			"stateMutability": "view",
			"type": "function"
		},
		{
			"inputs": [],
			"name": "getTwapInterval",
			"outputs": [
				{
					"internalType": "uint256",
					"name": "",
					"type": "uint256"
				}
			],
			"stateMutability": "view",
			"type": "function"
		},
		{
			"inputs": [
				{
					"internalType": "address",
					"name": "_owner",
					"type": "address"
				},
				{
					"internalType": "uint256",
					"name": "_initializationPrice",
					"type": "uint256"
				},
				{
					"internalType": "uint256",
					"name": "_tradeLimitRatio",
					"type": "uint256"
				},
				{
					"internalType": "uint256",
					"name": "_fundingPeriod",
					"type": "uint256"
				},
				{
					"internalType": "uint256",
					"name": "_fluctuationLimitRatio",
					"type": "uint256"
				},
				{
					"internalType": "uint256",
					"name": "_baseFeeRatio",
					"type": "uint256"
				},
				{
					"internalType": "uint256",
					"name": "_ammFeeRatio",
					"type": "uint256"
				},
				{
					"internalType": "uint256",
					"name": "_limitMakerFeeRatio",
					"type": "uint256"
				},
				{
					"internalType": "uint256",
					"name": "_keeperFeeRatio",
					"type": "uint256"
				},
				{
					"internalType": "uint256",
					"name": "_liquidationFeeRatio",
					"type": "uint256"
				}
			],
			"name": "initialize",
			"outputs": [],
			"stateMutability": "nonpayable",
			"type": "function"
		},
		{
			"inputs": [],
			"name": "owner",
			"outputs": [
				{
					"internalType": "address",
					"name": "result",
					"type": "address"
				}
			],
			"stateMutability": "view",
			"type": "function"
		},
		{
			"inputs": [
				{
					"internalType": "address",
					"name": "pendingOwner",
					"type": "address"
				}
			],
			"name": "ownershipHandoverExpiresAt",
			"outputs": [
				{
					"internalType": "uint256",
					"name": "result",
					"type": "uint256"
				}
			],
			"stateMutability": "view",
			"type": "function"
		},
		{
			"inputs": [],
			"name": "ownershipHandoverValidFor",
			"outputs": [
				{
					"internalType": "uint64",
					"name": "",
					"type": "uint64"
				}
			],
			"stateMutability": "view",
			"type": "function"
		},
		{
			"inputs": [],
			"name": "priceFeed",
			"outputs": [
				{
					"internalType": "contract IPriceFeed",
					"name": "",
					"type": "address"
				}
			],
			"stateMutability": "view",
			"type": "function"
		},
		{
			"inputs": [
				{
					"internalType": "address",
					"name": "maker",
					"type": "address"
				},
				{
					"internalType": "uint256",
					"name": "amount",
					"type": "uint256"
				},
				{
					"components": [
						{
							"internalType": "int256",
							"name": "premiumFraction",
							"type": "int256"
						},
						{
							"internalType": "int256",
							"name": "premiumFractionPerShare",
							"type": "int256"
						},
						{
							"internalType": "int256",
							"name": "netPositionOffsetPerShare",
							"type": "int256"
						},
						{
							"internalType": "uint256",
							"name": "feeGrowth",
							"type": "uint256"
						}
					],
					"internalType": "struct AMMData",
					"name": "data",
					"type": "tuple"
				}
			],
			"name": "removeLiquidity",
			"outputs": [
				{
					"internalType": "int256",
					"name": "size",
					"type": "int256"
				},
				{
					"internalType": "uint256",
					"name": "marginToRemove",
					"type": "uint256"
				},
				{
					"internalType": "uint256",
					"name": "realizedFee",
					"type": "uint256"
				}
			],
			"stateMutability": "nonpayable",
			"type": "function"
		},
		{
			"inputs": [],
			"name": "renounceOwnership",
			"outputs": [],
			"stateMutability": "payable",
			"type": "function"
		},
		{
			"inputs": [],
			"name": "requestOwnershipHandover",
			"outputs": [],
			"stateMutability": "payable",
			"type": "function"
		},
		{
			"inputs": [
				{
					"internalType": "uint256",
					"name": "_ammFeeRatio",
					"type": "uint256"
				}
			],
			"name": "setAMMFeeRatio",
			"outputs": [],
			"stateMutability": "nonpayable",
			"type": "function"
		},
		{
			"inputs": [
				{
					"internalType": "uint256",
					"name": "_baseFeeRatio",
					"type": "uint256"
				}
			],
			"name": "setBaseFeeRatio",
			"outputs": [],
			"stateMutability": "nonpayable",
			"type": "function"
		},
		{
			"inputs": [
				{
					"internalType": "uint256",
					"name": "_maxHoldingBaseAsset",
					"type": "uint256"
				},
				{
					"internalType": "uint256",
					"name": "_openInterestNotionalCap",
					"type": "uint256"
				}
			],
			"name": "setCap",
			"outputs": [],
			"stateMutability": "nonpayable",
			"type": "function"
		},
		{
			"inputs": [
				{
					"internalType": "uint256",
					"name": "_fluctuationLimitRatio",
					"type": "uint256"
				}
			],
			"name": "setFluctationLimitRatio",
			"outputs": [],
			"stateMutability": "nonpayable",
			"type": "function"
		},
		{
			"inputs": [
				{
					"internalType": "uint256",
					"name": "_fundingPeriod",
					"type": "uint256"
				}
			],
			"name": "setFundingPeriod",
			"outputs": [],
			"stateMutability": "nonpayable",
			"type": "function"
		},
		{
			"inputs": [
				{
					"internalType": "uint256",
					"name": "_initMarginRatio",
					"type": "uint256"
				}
			],
			"name": "setInitMarginRatio",
			"outputs": [],
			"stateMutability": "nonpayable",
			"type": "function"
		},
		{
			"inputs": [
				{
					"internalType": "uint256",
					"name": "_keeperFeeRatio",
					"type": "uint256"
				}
			],
			"name": "setKeeperFeeRatio",
			"outputs": [],
			"stateMutability": "nonpayable",
			"type": "function"
		},
		{
			"inputs": [
				{
					"internalType": "uint256",
					"name": "_limitMakerFeeRatio",
					"type": "uint256"
				}
			],
			"name": "setLimitMakerFeeRatio",
			"outputs": [],
			"stateMutability": "nonpayable",
			"type": "function"
		},
		{
			"inputs": [
				{
					"internalType": "uint256",
					"name": "_liquidationFeeRatio",
					"type": "uint256"
				}
			],
			"name": "setLiquidationFeeRatio",
			"outputs": [],
			"stateMutability": "nonpayable",
			"type": "function"
		},
		{
			"inputs": [
				{
					"internalType": "uint256",
					"name": "_maintenanceMarginRatio",
					"type": "uint256"
				}
			],
			"name": "setMaintenanceMarginRatio",
			"outputs": [],
			"stateMutability": "nonpayable",
			"type": "function"
		},
		{
			"inputs": [
				{
					"internalType": "uint256",
					"name": "_partialLiquidationRatio",
					"type": "uint256"
				}
			],
			"name": "setPartialLiquidationRatio",
			"outputs": [],
			"stateMutability": "nonpayable",
			"type": "function"
		},
		{
			"inputs": [
				{
					"internalType": "uint256",
					"name": "_tradeLimitRatio",
					"type": "uint256"
				}
			],
			"name": "setTradeLimitRatio",
			"outputs": [],
			"stateMutability": "nonpayable",
			"type": "function"
		},
		{
			"inputs": [
				{
					"internalType": "uint256",
					"name": "twapInterval",
					"type": "uint256"
				}
			],
			"name": "setTwapInterval",
			"outputs": [],
			"stateMutability": "nonpayable",
			"type": "function"
		},
		{
			"inputs": [
				{
					"internalType": "uint256",
					"name": "_markPriceWeight",
					"type": "uint256"
				},
				{
					"internalType": "uint256",
					"name": "_indexPriceWeight",
					"type": "uint256"
				}
			],
			"name": "setWeights",
			"outputs": [],
			"stateMutability": "nonpayable",
			"type": "function"
		},
		{
			"inputs": [],
			"name": "settleFunding",
			"outputs": [
				{
					"internalType": "int256",
					"name": "premiumFraction",
					"type": "int256"
				},
				{
					"internalType": "uint256",
					"name": "markPrice",
					"type": "uint256"
				},
				{
					"internalType": "uint256",
					"name": "indexPrice",
					"type": "uint256"
				}
			],
			"stateMutability": "nonpayable",
			"type": "function"
		},
		{
			"inputs": [
				{
					"internalType": "enum Dir",
					"name": "dirOfBase",
					"type": "uint8"
				},
				{
					"internalType": "uint256",
					"name": "baseAmount",
					"type": "uint256"
				}
			],
			"name": "swapClose",
			"outputs": [
				{
					"internalType": "uint256",
					"name": "quoteAmount",
					"type": "uint256"
				}
			],
			"stateMutability": "nonpayable",
			"type": "function"
		},
		{
			"inputs": [
				{
					"internalType": "enum Dir",
					"name": "dirOfQuote",
					"type": "uint8"
				},
				{
					"internalType": "uint256",
					"name": "quoteAmount",
					"type": "uint256"
				},
				{
					"internalType": "bool",
					"name": "fluctuationOverride",
					"type": "bool"
				}
			],
			"name": "swapOpen",
			"outputs": [
				{
					"internalType": "uint256",
					"name": "baseAmount",
					"type": "uint256"
				}
			],
			"stateMutability": "nonpayable",
			"type": "function"
		},
		{
			"inputs": [
				{
					"internalType": "address",
					"name": "newOwner",
					"type": "address"
				}
			],
			"name": "transferOwnership",
			"outputs": [],
			"stateMutability": "payable",
			"type": "function"
		}
	],
	"bytecode": {
		"object": "0x60c06040523480156200001157600080fd5b506040516200355238038062003552833981016040819052620000349162000137565b6001600160a01b03808216608052821660a0526200005162000059565b50506200016f565b600054610100900460ff1615620000c65760405162461bcd60e51b815260206004820152602760248201527f496e697469616c697a61626c653a20636f6e747261637420697320696e697469604482015266616c697a696e6760c81b606482015260840160405180910390fd5b60005460ff9081161462000118576000805460ff191660ff9081179091556040519081527f7f26b83ff96e1f2b6a682f133852f6798a09c465da95921460cefb38474024989060200160405180910390a15b565b80516001600160a01b03811681146200013257600080fd5b919050565b600080604083850312156200014b57600080fd5b62000156836200011a565b915062000166602084016200011a565b90509250929050565b60805160a0516133af620001a3600039600081816107460152611eb00152600081816104140152611c3a01526133af6000f3fe6080604052600436106103ad5760003560e01c806380295a74116101e7578063cc35489c1161010d578063ed83d79c116100a0578063f36bdbc91161006f578063f36bdbc914610ad2578063fbede22414610af2578063fee81cf414610b12578063ffbf688e14610b4557600080fd5b8063ed83d79c14610a77578063ef6ffef214610a8c578063f04e283e14610aac578063f2fde38b14610abf57600080fd5b8063d3c7f026116100dc578063d3c7f02614610974578063d3e4160614610994578063d7533f0214610a39578063e2559a8314610a5757600080fd5b8063cc35489c146108fc578063cc85f5f21461091f578063d152a85914610934578063d2b0b0f21461095457600080fd5b8063b5e2b04711610185578063c0e0980c11610154578063c0e0980c14610897578063c24e3859146108ac578063c4e41b22146108c7578063c5745e86146108dc57600080fd5b8063b5e2b04714610838578063b626382d1461084d578063b885a35614610862578063bce2020d1461088257600080fd5b8063989292da116101c1578063989292da146107b6578063a9ec1416146107d6578063ab7ab903146107f6578063b13c86a31461081657600080fd5b806380295a741461076857806389058b7d146107885780638da5cb5b1461079d57600080fd5b80634c153b04116102d757806363e1d57c1161026a578063682580fc11610239578063682580fc146106f75780636d206d6d14610717578063715018a61461072c578063741bef1a1461073457600080fd5b806363e1d57c1461066257806364b3cd8e1461067757806365f66425146106b757806367acf241146106d757600080fd5b806358c0994a116102a657806358c0994a146105f85780635c220aa11461060d5780635ea679ef1461062d578063604096321461064d57600080fd5b80634c153b04146105a65780634d85468b146105bb5780634f3c1542146105db57806354d1f13d146105f057600080fd5b806320fa4f8e1161034f57806336dac7061161031e57806336dac7061461053c5780633e742e3b1461055c5780634170cd5e1461057157806346558d1b1461059157600080fd5b806320fa4f8e146104d457806325692962146104f45780632a5aa292146104fc57806332a9569a1461051c57600080fd5b80630b87d6e31161038b5780630b87d6e31461044e57806313d0143d1461046e578063162ca7101461048d57806320e8e2d2146104a257600080fd5b806308e9ef43146103b25780630902f1ac146103d45780630af9680014610402575b600080fd5b3480156103be57600080fd5b506103d26103cd366004612ede565b610b5a565b005b3480156103e057600080fd5b506010546011545b604080519283526020830191909152015b60405180910390f35b34801561040e57600080fd5b506104367f000000000000000000000000000000000000000000000000000000000000000081565b6040516001600160a01b0390911681526020016103f9565b34801561045a57600080fd5b506103d2610469366004612f13565b610ba7565b34801561047a57600080fd5b506001545b6040519081526020016103f9565b34801561049957600080fd5b5060155461047f565b3480156104ae57600080fd5b506010546011546013545b604080519384526020840192909252908201526060016103f9565b3480156104e057600080fd5b506103d26104ef366004612ede565b610cf4565b6103d2610d3a565b34801561050857600080fd5b506103d2610517366004612ede565b610d8a565b34801561052857600080fd5b506103d2610537366004612ede565b610dc7565b34801561054857600080fd5b5061047f610557366004612f91565b610e0d565b34801561056857600080fd5b5060185461047f565b34801561057d57600080fd5b5061047f61058c366004612fd6565b610ed0565b34801561059d57600080fd5b5061047f610eeb565b3480156105b257600080fd5b5060055461047f565b3480156105c757600080fd5b5061047f6105d6366004612fd6565b610f1e565b3480156105e757600080fd5b50600a5461047f565b6103d2610f84565b34801561060457600080fd5b5061047f610fc0565b34801561061957600080fd5b5061047f610628366004612ede565b610fca565b34801561063957600080fd5b506103d2610648366004612ede565b611010565b34801561065957600080fd5b5061047f61101d565b34801561066e57600080fd5b5060145461047f565b34801561068357600080fd5b50610697610692366004612ede565b611027565b6040805194855260208501939093529183015260608201526080016103f9565b3480156106c357600080fd5b5061047f6106d2366004612fd6565b61106a565b3480156106e357600080fd5b506103d26106f2366004612ede565b61115b565b34801561070357600080fd5b506103e8610712366004613074565b6111a1565b34801561072357600080fd5b50600b5461047f565b6103d261139c565b34801561074057600080fd5b506104367f000000000000000000000000000000000000000000000000000000000000000081565b34801561077457600080fd5b506103d2610783366004612ede565b6113b0565b34801561079457600080fd5b5060065461047f565b3480156107a957600080fd5b50638b78c6d81954610436565b3480156107c257600080fd5b506103d26107d13660046130c6565b6113f6565b3480156107e257600080fd5b506103d26107f1366004612ede565b611446565b34801561080257600080fd5b506104b96108113660046130e8565b61148c565b34801561082257600080fd5b5061082b61174f565b6040516103f99190613125565b34801561084457600080fd5b5060175461047f565b34801561085957600080fd5b5060195461047f565b34801561086e57600080fd5b506103d261087d366004612ede565b6117b7565b34801561088e57600080fd5b5060095461047f565b3480156108a357600080fd5b50600f5461047f565b3480156108b857600080fd5b506010546011546012546104b9565b3480156108d357600080fd5b5060135461047f565b3480156108e857600080fd5b5061047f6108f7366004612ede565b6117fd565b34801561090857600080fd5b5061091161182a565b6040516103f992919061315e565b34801561092b57600080fd5b5060075461047f565b34801561094057600080fd5b506103d261094f366004612ede565b611895565b34801561096057600080fd5b5061047f61096f366004612fd6565b6118db565b34801561098057600080fd5b5061047f61098f366004612ede565b6118ed565b3480156109a057600080fd5b506109b46109af3660046131a4565b611918565b6040516103f99190600061016082019050825182526020830151602083015260408301516040830152606083015160608301526080830151608083015260a083015160a083015260c083015160c083015260e083015160e083015261010080840151818401525061012080840151818401525061014080840151818401525092915050565b348015610a4557600080fd5b506040516202a30081526020016103f9565b348015610a6357600080fd5b506103d2610a72366004612ede565b611929565b348015610a8357600080fd5b506104b961196f565b348015610a9857600080fd5b506103d2610aa73660046130c6565b611a92565b6103d2610aba3660046131a4565b611aa5565b6103d2610acd3660046131a4565b611ae5565b348015610ade57600080fd5b5061047f610aed366004612fd6565b611b0c565b348015610afe57600080fd5b506103d2610b0d366004612ede565b611b69565b348015610b1e57600080fd5b5061047f610b2d3660046131a4565b63389a75e1600c908152600091909152602090205490565b348015610b5157600080fd5b5060165461047f565b610b62611baf565b610b6b81611bca565b600a8190556040518181527fe75e3e311afafb466335ae8af3bf1d55443d8937fb5ada14583f4fca729c0fa8906020015b60405180910390a150565b600054610100900460ff1615808015610bc75750600054600160ff909116105b80610be15750303b158015610be1575060005460ff166001145b610c485760405162461bcd60e51b815260206004820152602e60248201527f496e697469616c697a61626c653a20636f6e747261637420697320616c72656160448201526d191e481a5b9a5d1a585b1a5e995960921b606482015260840160405180910390fd5b6000805460ff191660011790558015610c6b576000805461ff0019166101001790555b610c748b611bf3565b60068990556007879055600186905560028590556003849055600483905560058290556017889055600f8a90558015610ce7576000805461ff0019169055604051600181527f7f26b83ff96e1f2b6a682f133852f6798a09c465da95921460cefb38474024989060200160405180910390a15b5050505050505050505050565b610cfc611baf565b610d0581611bca565b60068190556040518181527f413bcf24bd99a421ccaf50a4a1dba0cfd78558ceb34625206d2e6dfa1a53ff2790602001610b9c565b60006202a30067ffffffffffffffff164201905063389a75e1600c5233600052806020600c2055337fdbf36a107da19e49527a7176a1babf963b4b0ff8cde35ee35d6cd8f1f9ac7e1d600080a250565b610d92611baf565b60178190556040518181527f6ce6315004c92b2957244860cf57179c165f8c77755f841dcd1a7e315dc76afb90602001610b9c565b610dcf611baf565b610dd881611bca565b60048190556040518181527f8bfda404cbf4ce6e72ab164d5c72aaf4500bda00a57ab1f13d8b81c14edf8ccc90602001610b9c565b6000610e17611c2f565b82600003610e2757506000610ec9565b6001846001811115610e3b57610e3b6131bf565b03610e6f57600654601054610e4f91611c78565b831115610e6f57604051630f51792960e01b815260040160405180910390fd5b610e7f8484601054601154611c8d565b9050610e8d84848385611d2c565b7fc840d6ec356bae99b60f3eca12969ceda50b96f8fb6c9418c3d0e073c0b52553848483604051610ec0939291906131d5565b60405180910390a15b9392505050565b6000610ee28383601054601154611e06565b90505b92915050565b6000610f01600d54610efb611e98565b90611c78565b610f0f600c54610efb611f23565b610f199190613221565b905090565b60008080846001811115610f3457610f346131bf565b03610f4e5782601054610f479190613221565b9050610f5f565b82601054610f5c9190613234565b90505b601254600090610f6f9083611f4b565b9050610f7b8282611f4b565b95945050505050565b63389a75e1600c523360005260006020600c2055337ffa7b8eab7da67f412cc9575ed43464468f9bfbae89d1675917346ca6d8fe3c92600080a2565b6000610f19611e98565b6000610ee5610fda601154611f60565b610fff610ffa610ff586601254611f4b90919063ffffffff16565b611f79565b611f60565b818113818303929091038218021890565b611018611baf565b601855565b6000610f19611f23565b600080600080611035611c2f565b50506010546011546013546016549092909161105287838661201c565b955061105f87828661201c565b945050509193509193565b6000611074611c2f565b8160000361108457506000610ee5565b6001836001811115611098576110986131bf565b036110d457816110b5600654601154611c7890919063ffffffff16565b10156110d457604051630f51792960e01b815260040160405180910390fd5b6110e48383601054601154611e06565b90506000808460018111156110fb576110fb6131bf565b1461110757600061110a565b60015b90506111198183856001611d2c565b7fbdc2af1c8c8c5e9838d5c3bf7ede849f60e061477dce4ec73a1e10053ec240c084848460405161114c939291906131d5565b60405180910390a15092915050565b611163611baf565b61116c81611bca565b600b8190556040518181527f879382899c61e679db091d48ae2646f0021988fe20a18f21e1b856acbc57bb5c90602001610b9c565b6000806111ac611c2f565b60006111b88787611c78565b90506111cc6111c78883611c78565b6120cb565b6000806111d983886120ee565b9196509250905060006111eb8b61225e565b9050806060015160001461129a5761120c81886000015189602001516122fe565b945060006112328260a0015189606001516112279190613234565b606084015190611c78565b905080826000018181516112469190613221565b90525060c08201805182919061125d908390613221565b905250606082015161012083015160408a0151611284929161127e91613247565b9061239f565b826080018181516112959190613267565b905250505b6000856112b08c8460000151610ffa9190613221565b6112ba9190613247565b905060008112156112de5760405163845dfc3960e01b815260040160405180910390fd5b6040518061016001604052806112fd8360ff81901c6000039081011890565b81526020018584602001516113129190613221565b81526020018484604001516113279190613221565b815260200188846060015161133c9190613221565b815260200183608001518152602001896060015181526020018360c00151815260200189600001518152602001896020015181526020018960400151815260200143815250915061138d8c836123ec565b50505050509550959350505050565b6113a4611baf565b6113ae6000612476565b565b6113b8611baf565b6113c181611bca565b60018190556040518181527fd34babb0abb9a72918553cfe7b3612443c81b3ea59ba0f751d2bb7224d18d40790602001610b9c565b6113fe611baf565b6014829055601581905560408051838152602081018390527f7338f3784ceb8f9456bac0c4a69f1c6354dc325fa6455e3e3f6a8a9bf9249a7c91015b60405180910390a15050565b61144e611baf565b61145781611bca565b60058190556040518181527f6f825f18b787836f7cf974799b160538ab237aa0d14af3611fa69683a40c6d2290602001610b9c565b6000806000611499611c2f565b60006114a48761225e565b905080606001518611156114cb5760405163827e7b7f60e01b815260040160405180910390fd5b6114e3868260600151836020015184604001516124b4565b90508094505060006114fe82876000015188602001516122fe565b90506115178260a0015187606001516112279190613234565b9250828260c00181815161152b9190613221565b90525081518390839061153f908390613221565b9052506060820151600090611555908990613234565b90506000811561169557606084015184516000965061157591849061201c565b95508261158b878660000151610ffa9190613234565b6115959190613247565b905060008112156115b95760405163845dfc3960e01b815260040160405180910390fd5b6115d2828561012001518a6040015161127e9190613247565b846080018181516115e39190613267565b9052506040805161016081019091528060ff83901c600003808401188152602001611621848760600151886020015161201c9092919063ffffffff16565b8152602001611643848760600151886040015161201c9092919063ffffffff16565b815260200183815260200185608001518152602001896060015181526020018560c001518152602001896000015181526020018960200151815260200189604001518152602001438152509350611738565b826116a38560000151611f60565b6116ad9190613247565b905060008112156116d15760405163845dfc3960e01b815260040160405180910390fd5b60ff81901c600003808201189550604051806101600160405280600081526020016000815260200160008152602001600081526020016000815260200160008152602001600081526020016000815260200160008152602001600081526020014381525093505b6117428a856123ec565b5050505093509350939050565b6117816040518060a0016040528060008152602001600081526020016000815260200160008152602001600081525090565b6040518060a0016040528060015481526020016009548152602001600a548152602001600b548152602001600554815250905090565b6117bf611baf565b6117c881611bca565b60078190556040518181527f878cd65339a771e627bc9856c713f02fec044bd7607db61e3858f8d56e4ea4f590602001610b9c565b60008160000361180f57506000919050565b610ee5600354610efb60015485611c7890919063ffffffff16565b61185c6040518060a0016040528060008152602001600081526020016000815260200160008152602001600081525090565b506040805160a0810182526001548152600254602082015260035491810191909152600454606082015260055460808201526013549091565b61189d611baf565b6118a681611bca565b60028190556040518181527f2534b354f571d8b893b9b19bf8e789ecd1e4234bd2f4dd8bf69a1076215e082590602001610b9c565b6000610ee28383601054601154611c8d565b6000610ee56118fd601054611f60565b610fff610ffa610ff586601254611c7890919063ffffffff16565b611920612e47565b610ee58261225e565b611931611baf565b61193a81611bca565b60038190556040518181527f84768b1f13e0bce8851491951ac15cf6a8449926307a23459606a32bc9b3658090602001610b9c565b600080600061197c611c2f565b601954601754428211156119a3576040516313a2f3df60e31b815260040160405180910390fd5b6119ae6018546125b1565b93506119b8611e98565b925060006119c584611f60565b6119ce86611f60565b6119d89190613247565b9050620151806119e783611f60565b6119f1908361328f565b6119fb91906132d5565b95506000601a5442611a0d9190613221565b90506000610e10611a1e8587613221565b611a289190613303565b611a3490610e10613317565b9050808210828218028218601955611a4c88876125e7565b600e5560408051898152602081018890527fd2805fe76d30598332a67c1061cee82e2e102b0f59f5457b1729bce028a054a0910160405180910390a15050505050909192565b611a9a611baf565b600c91909155600d55565b611aad611baf565b63389a75e1600c52806000526020600c208054421115611ad557636f5e88186000526004601cfd5b60009055611ae281612476565b50565b611aed611baf565b8060601b611b0357637448fbae6000526004601cfd5b611ae281612476565b60008080846001811115611b2257611b226131bf565b03611b3c5782601154611b359190613221565b9050611b4d565b82601154611b4a9190613234565b90505b601254600090611b5d9083611f4b565b9050610f7b8183611f4b565b611b71611baf565b611b7a81611bca565b60098190556040518181527fd67453718fc57aad470d91be51568530ed02cc941c846cd9e281dc56b300e95e90602001610b9c565b638b78c6d8195433146113ae576382b429006000526004601cfd5b670de0b6b3a7640000811115611ae2576040516306a4309560e01b815260040160405180910390fd5b6001600160a01b0316638b78c6d8198190558060007f8be0079c531659141344cd1fd0a4f28419497f9722a3daafe3b4186f6b6457e08180a350565b336001600160a01b037f000000000000000000000000000000000000000000000000000000000000000016146113ae576040516308abb64b60e21b815260040160405180910390fd5b6000610ee28383670de0b6b3a764000061201c565b600083600003611c9f57506000611d24565b600080866001811115611cb457611cb46131bf565b03611cca57611cc38585613221565b9050611cd7565b611cd48585613234565b90505b80600003611cf857604051632dce15e160e01b815260040160405180910390fd5b601254600090611d089083611f4b565b9050611d1f611d1682611f60565b610fff86611f60565b925050505b949350505050565b611d3884848484612614565b6000846001811115611d4c57611d4c6131bf565b03611da7578260106000828254611d639190613221565b925050819055508160116000828254611d7c9190613234565b90915550611d8b905082611f60565b60166000828254611d9c9190613267565b90915550611df89050565b8260106000828254611db99190613234565b925050819055508160116000828254611dd29190613221565b90915550611de1905082611f60565b60166000828254611df29190613247565b90915550505b611e00612708565b50505050565b600083600003611e1857506000611d24565b600080866001811115611e2d57611e2d6131bf565b03611e4357611e3c8584613221565b9050611e50565b611e4d8584613234565b90505b80600003611e715760405163e7a61c5760e01b815260040160405180910390fd5b601254600090611e819083611f4b565b9050611d1f611e8f86611f60565b610fff83611f60565b6040516341976e0960e01b81523060048201526000907f00000000000000000000000000000000000000000000000000000000000000006001600160a01b0316906341976e0990602401602060405180830381865afa158015611eff573d6000803e3d6000fd5b505050506040513d601f19601f82011682018060405250810190610f19919061332e565b601154600090808203611f3857600091505090565b601054611f459082611f4b565b91505090565b6000610ee283670de0b6b3a76400008461201c565b6000600160ff1b8210611f7557611f7561295f565b5090565b6000610ee5611f9083670de0b6b3a7640000613317565b70ffffffffffffffffffffffffffffffffff811160071b81811c68ffffffffffffffffff1060061b1781811c64ffffffffff1060051b1781811c62ffffff1060041b1781811c620100000160b5600192831c1b0260121c80830401811c80830401811c80830401811c80830401811c80830401811c80830401811c80830401901c908190048111900390565b6000838302600019848609818110820190038061205157836120465763ae47f7026000526004601cfd5b508290049050610ec9565b8084116120665763ae47f7026000526004601cfd5b838587096000858103861695869004956003870260029081188089028203028089028203028089028203028089028203028089028203028089029091030291819003819004600101858411909403939093029190930391909104170290509392505050565b600954811015611ae25760405163f9322cc160e01b815260040160405180910390fd5b60105460115460135460009283928392612109600289613303565b9450811561214a5761211c85838561201c565b935061214361212c85838561201c565b61213787848761201c565b90808218908211021890565b955061217c565b600f54612158908690611f4b565b93506103e861216a610ff58787611c78565b6121749190613234565b95506103e890505b8560000361219d57604051630ed2849160e11b815260040160405180910390fd5b868610156121be57604051630ed2849160e11b815260040160405180910390fd5b6121c88584613221565b92506121d48483613221565b91506121e08682613221565b60138190556010849055601183905590506121fb8383611c78565b6012556040805186815260208101869052908101879052606081018490526080810183905260a081018290527f1530ec748a27514ffab0987654233a80256393e127bdf02d94e32ff3c7148ec69060c00160405180910390a15050509250925092565b612266612e47565b506001600160a01b03166000908152601c6020908152604091829020825161016081018452815481526001820154928101929092526002810154928201929092526003820154606082015260048201546080820152600582015460a0820152600682015460c0820152600782015460e082015260088201546101008201526009820154610120820152600a9091015461014082015290565b60008360600151600014610ec95760008460e001518461231e9190613247565b905061235a85606001516123408388610120015161296d90919063ffffffff16565b6101008801516123509087613247565b61127e9190613247565b6080860151612369908361296d565b6123739190613267565b915060008212156123975761238a6103e8836132d5565b6123949083613247565b91505b509392505050565b600080831280156123b6576123b384613347565b93505b6123cc610ffa8585670de0b6b3a764000061201c565b915080156123e5576123dd82613347565b915050610ee5565b5092915050565b6001600160a01b039091166000908152601c602090815260409182902083518155908301516001820155908201516002820155606082015160038201556080820151600482015560a0820151600582015560c0820151600682015560e082015160078201556101008201516008820155610120820151600982015561014090910151600a90910155565b638b78c6d81980546001600160a01b039092169182907f8be0079c531659141344cd1fd0a4f28419497f9722a3daafe3b4186f6b6457e0600080a355565b60105460115460135460009283929091836124d08a858461201c565b905060006124df8b858561201c565b90506124eb8286613234565b94506124f78185613234565b93506125038b84613234565b601086905560118590556013819055925061251e8585611c78565b601255898b0361254b5761253188611f60565b61253a82611f60565b6125449190613247565b955061257c565b612559610ffa898d8d61201c565b61256282611f60565b61256c9190613247565b9550612579898c8c61201c565b98505b60008613156125965761258f828a613234565b96506125a3565b6125a08983613234565b96505b505050505094509492505050565b60006125bb612ea1565b6000808252601b54908190036125d357611d24611f23565b60001981016020830152611d2482856129d7565b600080831280156125fe576125fb84613347565b93505b6123cc610ffa85670de0b6b3a76400008661201c565b60075415611e0057600080612627612bc4565b915091508160000361263a575050611e00565b601054601154600061264c8383611f4b565b90508481118061265b57508381105b156126795760405163090b0cb760e31b815260040160405180910390fd5b856126fd576000896001811115612692576126926131bf565b146126b9576126b46126a48884613221565b6126ae8a86613234565b90611f4b565b6126d0565b6126d06126c68884613234565b6126ae8a86613221565b9050848111806126df57508381105b156126fd5760405163090b0cb760e31b815260040160405180910390fd5b505050505050505050565b601b54439060008190036127f157604080516080810182526010548152601154602082019081524292820192835260608201858152601b805460018101825560009190915292517f3ad8aa4f87544323a9d1e5dd902f40c356527a7955687113db5f9a85ad579dc160049094029384015590517f3ad8aa4f87544323a9d1e5dd902f40c356527a7955687113db5f9a85ad579dc283015591517f3ad8aa4f87544323a9d1e5dd902f40c356527a7955687113db5f9a85ad579dc382015590517f3ad8aa4f87544323a9d1e5dd902f40c356527a7955687113db5f9a85ad579dc49091015561291b565b601b80546000919061280590600190613234565b8154811061281557612815613363565b90600052602060002090600402019050806003015483036128425760105481556011546001820155612919565b604080516080810182526010548152601154602082019081524292820192835260608201868152601b805460018101825560009190915292517f3ad8aa4f87544323a9d1e5dd902f40c356527a7955687113db5f9a85ad579dc160049094029384015590517f3ad8aa4f87544323a9d1e5dd902f40c356527a7955687113db5f9a85ad579dc283015591517f3ad8aa4f87544323a9d1e5dd902f40c356527a7955687113db5f9a85ad579dc382015590517f3ad8aa4f87544323a9d1e5dd902f40c356527a7955687113db5f9a85ad579dc4909101555b505b60105460115460408051928352602083019190915242908201527f15f6b01ebee55f22647a0fd0efc2a236df7f7e1a93fcd2547e54da88f4c4f6239060600161143a565b6335278d126000526004601cfd5b600080831281831280821415821561298b5761298886613347565b95505b811561299d5761299a85613347565b94505b6129b3610ffa8787670de0b6b3a764000061201c565b935080156129ce576129c484613347565b9350505050610ee5565b50505092915050565b6000806129e384612d10565b9050826000036129f4579050610ee5565b6000612a008442613234565b90506000601b866020015181548110612a1b57612a1b613363565b90600052602060002090600402016040518060800160405290816000820154815260200160018201548152602001600282015481526020016003820154815250509050601b8054905060011480612a76575081816040015111155b15612a8657829350505050610ee5565b60408101516000612a978242613234565b90506000612aa58287613317565b90505b8860200151600003612acb57612abe8282613303565b9650505050505050610ee5565b601b89602001805160019003908181525081548110612aec57612aec613363565b90600052602060002090600402016040518060800160405290816000820154815260200160018201548152602001600282015481526020016003820154815250509350612b3889612d10565b955084846040015111612b6a57612b4f8584613234565b612b599087613317565b612b639082613221565b9050612bad565b6000846040015184612b7c9190613234565b9050612b888188613317565b612b929083613221565b9150612b9e8184613221565b92508460400151935050612aa8565b612bb78882613303565b9998505050505050505050565b601b546000908190808203612bde57506000928392509050565b6000601b612bed600184613234565b81548110612bfd57612bfd613363565b90600052602060002090600402016040518060800160405290816000820154815260200160018201548152602001600282015481526020016003820154815250509050438160600151148015612c535750600182115b15612cb957601b612c65600284613234565b81548110612c7557612c75613363565b906000526020600020906004020160405180608001604052908160008201548152602001600182015481526020016002820154815260200160038201548152505090505b60208101518151600091612ccd9190611f4b565b600754909150612cef612ce882670de0b6b3a7640000613221565b8390611c78565b9550612d06612ce882670de0b6b3a7640000613234565b9450505050509091565b600080601b836020015181548110612d2a57612d2a613363565b6000918252602080832060408051608081018252600490940290910180548452600181015492840192909252600282015490830152600301546060820152915083516001811115612d7d57612d7d6131bf565b03612d925760208101518151610ec991611f4b565b600183516001811115612da757612da76131bf565b03612e4157826040015160200151600003612dc55750600092915050565b60008360400151604001516001811115612de157612de16131bf565b03612e035760408301518051602091820151835192840151610ec99390611c8d565b60018360400151604001516001811115612e1f57612e1f6131bf565b03612e415760408301518051602091820151835192840151610ec99390611e06565b50919050565b60405180610160016040528060008152602001600081526020016000815260200160008152602001600081526020016000815260200160008152602001600081526020016000815260200160008152602001600081525090565b6040805160608101825260008082526020820152908101612ed960408051606081018252600080825260208201819052909182015290565b905290565b600060208284031215612ef057600080fd5b5035919050565b80356001600160a01b0381168114612f0e57600080fd5b919050565b6000806000806000806000806000806101408b8d031215612f3357600080fd5b612f3c8b612ef7565b9c60208c01359c5060408c01359b60608101359b5060808101359a5060a0810135995060c0810135985060e0810135975061010081013596506101200135945092505050565b803560028110612f0e57600080fd5b600080600060608486031215612fa657600080fd5b612faf84612f82565b92506020840135915060408401358015158114612fcb57600080fd5b809150509250925092565b60008060408385031215612fe957600080fd5b612ff283612f82565b946020939093013593505050565b60006080828403121561301257600080fd5b6040516080810181811067ffffffffffffffff8211171561304357634e487b7160e01b600052604160045260246000fd5b8060405250809150823581526020830135602082015260408301356040820152606083013560608201525092915050565b6000806000806000610100868803121561308d57600080fd5b61309686612ef7565b94506020860135935060408601359250606086013591506130ba8760808801613000565b90509295509295909350565b600080604083850312156130d957600080fd5b50508035926020909101359150565b600080600060c084860312156130fd57600080fd5b61310684612ef7565b92506020840135915061311c8560408601613000565b90509250925092565b60a08101610ee5828480518252602081015160208301526040810151604083015260608101516060830152608081015160808301525050565b60c08101613197828580518252602081015160208301526040810151604083015260608101516060830152608081015160808301525050565b8260a08301529392505050565b6000602082840312156131b657600080fd5b610ee282612ef7565b634e487b7160e01b600052602160045260246000fd5b60608101600285106131f757634e487b7160e01b600052602160045260246000fd5b938152602081019290925260409091015290565b634e487b7160e01b600052601160045260246000fd5b80820180821115610ee557610ee561320b565b81810381811115610ee557610ee561320b565b81810360008312801583831316838312821617156123e5576123e561320b565b80820182811260008312801582168215821617156132875761328761320b565b505092915050565b80820260008212600160ff1b841416156132ab576132ab61320b565b8181058314821517610ee557610ee561320b565b634e487b7160e01b600052601260045260246000fd5b6000826132e4576132e46132bf565b600160ff1b8214600019841416156132fe576132fe61320b565b500590565b600082613312576133126132bf565b500490565b8082028115828204841417610ee557610ee561320b565b60006020828403121561334057600080fd5b5051919050565b6000600160ff1b820161335c5761335c61320b565b5060000390565b634e487b7160e01b600052603260045260246000fdfea264697066735822122063288523404d485d5e37b4f89383585822e8349a2b01f123eed3539118731e1664736f6c63430008150033",
		"linkReferences": {}
	},
	"methodIdentifiers": {
		"addLiquidity(address,uint256,uint256,uint256,(int256,int256,int256,uint256))": "682580fc",
		"calcLimitFee(uint256)": "c5745e86",
		"cancelOwnershipHandover()": "54d1f13d",
		"clearingHouse()": "0af96800",
		"completeOwnershipHandover(address)": "f04e283e",
		"getBaseFeeRatio()": "13d0143d",
		"getBaseToFill(uint256)": "5c220aa1",
		"getFeeRatiosTotalSupply()": "cc35489c",
		"getFluctuationLimitRatio()": "cc85f5f2",
		"getFundingPeriod()": "b5e2b047",
		"getIndexPrice()": "58c0994a",
		"getInitializationPrice()": "c0e0980c",
		"getInputPrice(uint8,uint256)": "d2b0b0f2",
		"getLiqidationFeeRatio()": "4c153b04",
		"getLiquidationPrice()": "46558d1b",
		"getMakerPosition(address)": "d3e41606",
		"getMakerValueTotalLiquidityTPS(uint256)": "64b3cd8e",
		"getMarginRatio()": "4f3c1542",
		"getMarkPrice()": "60409632",
		"getMarkPriceAfterClose(uint8,uint256)": "f36bdbc9",
		"getMarkPriceAfterOpen(uint8,uint256)": "4d85468b",
		"getMaxSize()": "63e1d57c",
		"getNextFundingTime()": "b626382d",
		"getOpenInterestCap()": "162ca710",
		"getOpenMarginRatio()": "bce2020d",
		"getOutputPrice(uint8,uint256)": "4170cd5e",
		"getPartialLiquidationRatio()": "6d206d6d",
		"getQuoteToFill(uint256)": "d3c7f026",
		"getRatios()": "b13c86a3",
		"getReserves()": "0902f1ac",
		"getReservesAndK()": "c24e3859",
		"getReservesAndTotalLiquidity()": "20e8e2d2",
		"getTotalPositionSize()": "ffbf688e",
		"getTotalSupply()": "c4e41b22",
		"getTradeLimitRatio()": "89058b7d",
		"getTwapInterval()": "3e742e3b",
		"initialize(address,uint256,uint256,uint256,uint256,uint256,uint256,uint256,uint256,uint256)": "0b87d6e3",
		"owner()": "8da5cb5b",
		"ownershipHandoverExpiresAt(address)": "fee81cf4",
		"ownershipHandoverValidFor()": "d7533f02",
		"priceFeed()": "741bef1a",
		"removeLiquidity(address,uint256,(int256,int256,int256,uint256))": "ab7ab903",
		"renounceOwnership()": "715018a6",
		"requestOwnershipHandover()": "25692962",
		"setAMMFeeRatio(uint256)": "d152a859",
		"setBaseFeeRatio(uint256)": "80295a74",
		"setCap(uint256,uint256)": "989292da",
		"setFluctationLimitRatio(uint256)": "b885a356",
		"setFundingPeriod(uint256)": "2a5aa292",
		"setInitMarginRatio(uint256)": "fbede224",
		"setKeeperFeeRatio(uint256)": "32a9569a",
		"setLimitMakerFeeRatio(uint256)": "e2559a83",
		"setLiquidationFeeRatio(uint256)": "a9ec1416",
		"setMaintenanceMarginRatio(uint256)": "08e9ef43",
		"setPartialLiquidationRatio(uint256)": "67acf241",
		"setTradeLimitRatio(uint256)": "20fa4f8e",
		"setTwapInterval(uint256)": "5ea679ef",
		"setWeights(uint256,uint256)": "ef6ffef2",
		"settleFunding()": "ed83d79c",
		"swapClose(uint8,uint256)": "65f66425",
		"swapOpen(uint8,uint256,bool)": "36dac706",
		"transferOwnership(address)": "f2fde38b"
	},
	"id": 39
}