{"abi":[{"type":"constructor","inputs":[{"name":"_priceFeed","type":"address","internalType":"address"},{"name":"_clearingHouse","type":"address","internalType":"address"},{"name":"_poolFactory","type":"address","internalType":"address"}],"stateMutability":"nonpayable"},{"type":"function","name":"addLiquidity","inputs":[{"name":"maker","type":"address","internalType":"address"},{"name":"liquidityAddData","type":"tuple[]","internalType":"struct LiquidityAddData[]","components":[{"name":"index","type":"uint256","internalType":"uint256"},{"name":"margin","type":"uint256","internalType":"uint256"},{"name":"leverage","type":"uint256","internalType":"uint256"}]}],"outputs":[{"name":"returnData","type":"tuple[]","internalType":"struct LiquidityAddReturnData[]","components":[{"name":"pool","type":"address","internalType":"contract IPool"},{"name":"shares","type":"uint256","internalType":"uint256"},{"name":"quote","type":"uint256","internalType":"uint256"},{"name":"base","type":"uint256","internalType":"uint256"}]},{"name":"marginAdded","type":"uint256","internalType":"uint256"}],"stateMutability":"nonpayable"},{"type":"function","name":"cancelOwnershipHandover","inputs":[],"outputs":[],"stateMutability":"payable"},{"type":"function","name":"clearingHouse","inputs":[],"outputs":[{"name":"","type":"address","internalType":"address"}],"stateMutability":"view"},{"type":"function","name":"completeOwnershipHandover","inputs":[{"name":"pendingOwner","type":"address","internalType":"address"}],"outputs":[],"stateMutability":"payable"},{"type":"function","name":"getAMMFee","inputs":[],"outputs":[{"name":"","type":"uint256","internalType":"uint256"}],"stateMutability":"view"},{"type":"function","name":"getActiveIndex","inputs":[],"outputs":[{"name":"","type":"uint256","internalType":"uint256"}],"stateMutability":"view"},{"type":"function","name":"getActivePool","inputs":[],"outputs":[{"name":"","type":"address","internalType":"contract IPool"}],"stateMutability":"view"},{"type":"function","name":"getBaseFeeRatio","inputs":[],"outputs":[{"name":"","type":"uint256","internalType":"uint256"}],"stateMutability":"view"},{"type":"function","name":"getBaseToFill","inputs":[{"name":"targetPrice","type":"uint256","internalType":"uint256"}],"outputs":[{"name":"","type":"uint256","internalType":"uint256"}],"stateMutability":"view"},{"type":"function","name":"getBaseValue","inputs":[{"name":"dirOfQuote","type":"uint8","internalType":"enum Dir"},{"name":"quoteAmount","type":"uint256","internalType":"uint256"}],"outputs":[{"name":"","type":"uint256","internalType":"uint256"}],"stateMutability":"view"},{"type":"function","name":"getFeeRatios","inputs":[],"outputs":[{"name":"","type":"tuple","internalType":"struct FeeRatios","components":[{"name":"baseFeeRatio","type":"uint256","internalType":"uint256"},{"name":"ammFeeRatio","type":"uint256","internalType":"uint256"},{"name":"limitMakerFeeRatio","type":"uint256","internalType":"uint256"},{"name":"keeperFeeRatio","type":"uint256","internalType":"uint256"},{"name":"liquidationFeeRatio","type":"uint256","internalType":"uint256"}]}],"stateMutability":"view"},{"type":"function","name":"getFluctuationLimitRatio","inputs":[],"outputs":[{"name":"","type":"uint256","internalType":"uint256"}],"stateMutability":"view"},{"type":"function","name":"getFullMakerImpermanentPosition","inputs":[{"name":"maker","type":"address","internalType":"address"}],"outputs":[{"name":"size","type":"int256","internalType":"int256"},{"name":"openNotional","type":"uint256","internalType":"uint256"}],"stateMutability":"view"},{"type":"function","name":"getFundingPeriod","inputs":[],"outputs":[{"name":"","type":"uint256","internalType":"uint256"}],"stateMutability":"view"},{"type":"function","name":"getFundingRate","inputs":[],"outputs":[{"name":"","type":"int256","internalType":"int256"}],"stateMutability":"view"},{"type":"function","name":"getIndexPrice","inputs":[],"outputs":[{"name":"","type":"uint256","internalType":"uint256"}],"stateMutability":"view"},{"type":"function","name":"getLastSettledFundingTime","inputs":[],"outputs":[{"name":"","type":"uint256","internalType":"uint256"}],"stateMutability":"view"},{"type":"function","name":"getLiquidationFeeRatio","inputs":[],"outputs":[{"name":"","type":"uint256","internalType":"uint256"}],"stateMutability":"view"},{"type":"function","name":"getLiquidationPrice","inputs":[],"outputs":[{"name":"","type":"uint256","internalType":"uint256"}],"stateMutability":"view"},{"type":"function","name":"getMakerImpermanentPosition","inputs":[{"name":"maker","type":"address","internalType":"address"},{"name":"poolIndexes","type":"uint256[]","internalType":"uint256[]"}],"outputs":[{"name":"size","type":"int256","internalType":"int256"},{"name":"openNotional","type":"uint256","internalType":"uint256"}],"stateMutability":"view"},{"type":"function","name":"getMakerPools","inputs":[{"name":"maker","type":"address","internalType":"address"}],"outputs":[{"name":"","type":"address[]","internalType":"contract IPool[]"}],"stateMutability":"view"},{"type":"function","name":"getMakerPositionData","inputs":[{"name":"maker","type":"address","internalType":"address"}],"outputs":[{"name":"size","type":"int256","internalType":"int256"},{"name":"openNotional","type":"uint256","internalType":"uint256"},{"name":"margin","type":"uint256","internalType":"uint256"},{"name":"pendingFees","type":"uint256","internalType":"uint256"},{"name":"pendingFundingPayment","type":"int256","internalType":"int256"},{"name":"poolInfo","type":"tuple[]","internalType":"struct PoolPosition[]","components":[{"name":"pool","type":"address","internalType":"contract IPool"},{"name":"shares","type":"uint256","internalType":"uint256"},{"name":"quote","type":"uint256","internalType":"uint256"},{"name":"base","type":"uint256","internalType":"uint256"}]}],"stateMutability":"view"},{"type":"function","name":"getMakerProfile","inputs":[{"name":"maker","type":"address","internalType":"address"}],"outputs":[{"name":"","type":"tuple","internalType":"struct MakerProfile","components":[{"name":"margin","type":"uint256","internalType":"uint256"},{"name":"pools","type":"address[]","internalType":"contract IPool[]"}]}],"stateMutability":"view"},{"type":"function","name":"getMarginRatio","inputs":[],"outputs":[{"name":"","type":"uint256","internalType":"uint256"}],"stateMutability":"view"},{"type":"function","name":"getMarkPrice","inputs":[],"outputs":[{"name":"","type":"uint256","internalType":"uint256"}],"stateMutability":"view"},{"type":"function","name":"getMarkPriceAfterClose","inputs":[{"name":"dirOfBase","type":"uint8","internalType":"enum Dir"},{"name":"baseAmount","type":"uint256","internalType":"uint256"}],"outputs":[{"name":"markPriceAfter","type":"uint256","internalType":"uint256"}],"stateMutability":"view"},{"type":"function","name":"getMarkPriceAfterOpen","inputs":[{"name":"dirOfQuote","type":"uint8","internalType":"enum Dir"},{"name":"quoteAmount","type":"uint256","internalType":"uint256"}],"outputs":[{"name":"markPriceAfter","type":"uint256","internalType":"uint256"}],"stateMutability":"view"},{"type":"function","name":"getMarkTwap","inputs":[{"name":"interval","type":"uint256","internalType":"uint256"}],"outputs":[{"name":"","type":"uint256","internalType":"uint256"}],"stateMutability":"view"},{"type":"function","name":"getMaxSize","inputs":[],"outputs":[{"name":"","type":"uint256","internalType":"uint256"}],"stateMutability":"view"},{"type":"function","name":"getNextFundingTime","inputs":[],"outputs":[{"name":"","type":"uint256","internalType":"uint256"}],"stateMutability":"view"},{"type":"function","name":"getOpenInterestCap","inputs":[],"outputs":[{"name":"","type":"uint256","internalType":"uint256"}],"stateMutability":"view"},{"type":"function","name":"getOpenMarginRatio","inputs":[],"outputs":[{"name":"","type":"uint256","internalType":"uint256"}],"stateMutability":"view"},{"type":"function","name":"getPendingMakerFees","inputs":[{"name":"maker","type":"address","internalType":"address"}],"outputs":[{"name":"totalFees","type":"uint256","internalType":"uint256"}],"stateMutability":"view"},{"type":"function","name":"getPendingMakerFundingPayment","inputs":[{"name":"maker","type":"address","internalType":"address"}],"outputs":[{"name":"fundingPayment","type":"int256","internalType":"int256"}],"stateMutability":"view"},{"type":"function","name":"getPool","inputs":[{"name":"_index","type":"uint256","internalType":"uint256"}],"outputs":[{"name":"","type":"address","internalType":"contract IPool"}],"stateMutability":"view"},{"type":"function","name":"getPoolsInRange","inputs":[],"outputs":[{"name":"","type":"address[]","internalType":"contract IPool[]"}],"stateMutability":"view"},{"type":"function","name":"getPriceWeights","inputs":[],"outputs":[{"name":"markWeight","type":"uint256","internalType":"uint256"},{"name":"indexWeight","type":"uint256","internalType":"uint256"}],"stateMutability":"view"},{"type":"function","name":"getQuoteToFill","inputs":[{"name":"targetPrice","type":"uint256","internalType":"uint256"}],"outputs":[{"name":"","type":"uint256","internalType":"uint256"}],"stateMutability":"view"},{"type":"function","name":"getQuoteValue","inputs":[{"name":"dirOfBase","type":"uint8","internalType":"enum Dir"},{"name":"baseAmount","type":"uint256","internalType":"uint256"}],"outputs":[{"name":"","type":"uint256","internalType":"uint256"}],"stateMutability":"view"},{"type":"function","name":"getReserves","inputs":[],"outputs":[{"name":"quoteReserve","type":"uint256","internalType":"uint256"},{"name":"baseReserve","type":"uint256","internalType":"uint256"}],"stateMutability":"view"},{"type":"function","name":"getTickSpacing","inputs":[],"outputs":[{"name":"","type":"uint256","internalType":"uint256"}],"stateMutability":"view"},{"type":"function","name":"getTwapInterval","inputs":[],"outputs":[{"name":"","type":"uint256","internalType":"uint256"}],"stateMutability":"view"},{"type":"function","name":"initialize","inputs":[{"name":"params","type":"tuple","internalType":"struct AMMParams","components":[{"name":"owner","type":"address","internalType":"address"},{"name":"fundingPeriod","type":"uint256","internalType":"uint256"},{"name":"tradeLimitRatio","type":"uint256","internalType":"uint256"},{"name":"fluctuationLimitRatio","type":"uint256","internalType":"uint256"},{"name":"openMarginRatio","type":"uint256","internalType":"uint256"},{"name":"maintenanceMarginRatio","type":"uint256","internalType":"uint256"},{"name":"maxSizeCap","type":"uint256","internalType":"uint256"},{"name":"openInterestCap","type":"uint256","internalType":"uint256"},{"name":"indexPriceWeight","type":"uint256","internalType":"uint256"},{"name":"twapInterval","type":"uint256","internalType":"uint256"},{"name":"baseFeeRatio","type":"uint256","internalType":"uint256"},{"name":"ammFeeRatio","type":"uint256","internalType":"uint256"},{"name":"limitMakerFeeRatio","type":"uint256","internalType":"uint256"},{"name":"keeperFeeRatio","type":"uint256","internalType":"uint256"},{"name":"liquidatorFeeRatio","type":"uint256","internalType":"uint256"}]}],"outputs":[],"stateMutability":"nonpayable"},{"type":"function","name":"isActive","inputs":[],"outputs":[{"name":"","type":"bool","internalType":"bool"}],"stateMutability":"view"},{"type":"function","name":"isMakerLiquidatable","inputs":[{"name":"maker","type":"address","internalType":"address"}],"outputs":[{"name":"","type":"bool","internalType":"bool"}],"stateMutability":"view"},{"type":"function","name":"liquidateMaker","inputs":[{"name":"maker","type":"address","internalType":"address"}],"outputs":[{"name":"size","type":"int256","internalType":"int256"},{"name":"openNotional","type":"uint256","internalType":"uint256"},{"name":"margin","type":"int256","internalType":"int256"}],"stateMutability":"nonpayable"},{"type":"function","name":"owner","inputs":[],"outputs":[{"name":"result","type":"address","internalType":"address"}],"stateMutability":"view"},{"type":"function","name":"ownershipHandoverExpiresAt","inputs":[{"name":"pendingOwner","type":"address","internalType":"address"}],"outputs":[{"name":"result","type":"uint256","internalType":"uint256"}],"stateMutability":"view"},{"type":"function","name":"poolFactory","inputs":[],"outputs":[{"name":"","type":"address","internalType":"contract IPoolFactory"}],"stateMutability":"view"},{"type":"function","name":"priceFeed","inputs":[],"outputs":[{"name":"","type":"address","internalType":"contract IPriceFeed"}],"stateMutability":"view"},{"type":"function","name":"removeLiquidity","inputs":[{"name":"maker","type":"address","internalType":"address"},{"name":"liquidityRemoveData","type":"tuple[]","internalType":"struct LiquidityRemoveData[]","components":[{"name":"index","type":"uint256","internalType":"uint256"},{"name":"shares","type":"uint256","internalType":"uint256"}]}],"outputs":[{"name":"size","type":"int256","internalType":"int256"},{"name":"openNotional","type":"uint256","internalType":"uint256"},{"name":"marginRemoved","type":"uint256","internalType":"uint256"}],"stateMutability":"nonpayable"},{"type":"function","name":"renounceOwnership","inputs":[],"outputs":[],"stateMutability":"payable"},{"type":"function","name":"requestOwnershipHandover","inputs":[],"outputs":[],"stateMutability":"payable"},{"type":"function","name":"setAMMFeeRatio","inputs":[{"name":"_ammFeeRatio","type":"uint256","internalType":"uint256"}],"outputs":[],"stateMutability":"nonpayable"},{"type":"function","name":"setActive","inputs":[{"name":"_active","type":"bool","internalType":"bool"}],"outputs":[],"stateMutability":"nonpayable"},{"type":"function","name":"setBaseFeeRatio","inputs":[{"name":"_baseFeeRatio","type":"uint256","internalType":"uint256"}],"outputs":[],"stateMutability":"nonpayable"},{"type":"function","name":"setFluctuationLimitRatio","inputs":[{"name":"_fluctuationLimitRatio","type":"uint256","internalType":"uint256"}],"outputs":[],"stateMutability":"nonpayable"},{"type":"function","name":"setFundingPeriod","inputs":[{"name":"_fundingPeriod","type":"uint256","internalType":"uint256"}],"outputs":[],"stateMutability":"nonpayable"},{"type":"function","name":"setIndexPriceWeight","inputs":[{"name":"_indexPriceWeight","type":"uint256","internalType":"uint256"}],"outputs":[],"stateMutability":"nonpayable"},{"type":"function","name":"setInitMarginRatio","inputs":[{"name":"_initMarginRatio","type":"uint256","internalType":"uint256"}],"outputs":[],"stateMutability":"nonpayable"},{"type":"function","name":"setKeeperFeeRatio","inputs":[{"name":"_keeperFeeRatio","type":"uint256","internalType":"uint256"}],"outputs":[],"stateMutability":"nonpayable"},{"type":"function","name":"setLimitMakerFeeRatio","inputs":[{"name":"_limitMakerFeeRatio","type":"uint256","internalType":"uint256"}],"outputs":[],"stateMutability":"nonpayable"},{"type":"function","name":"setLiquidationFeeRatio","inputs":[{"name":"_liquidationFeeRatio","type":"uint256","internalType":"uint256"}],"outputs":[],"stateMutability":"nonpayable"},{"type":"function","name":"setMaintenanceMarginRatio","inputs":[{"name":"_maintenanceMarginRatio","type":"uint256","internalType":"uint256"}],"outputs":[],"stateMutability":"nonpayable"},{"type":"function","name":"setMaxSize","inputs":[{"name":"_maxSize","type":"uint256","internalType":"uint256"}],"outputs":[],"stateMutability":"nonpayable"},{"type":"function","name":"setOpenInterestCap","inputs":[{"name":"_openInterestNotionalCap","type":"uint256","internalType":"uint256"}],"outputs":[],"stateMutability":"nonpayable"},{"type":"function","name":"setPoolLogicContract","inputs":[{"name":"_poolLogic","type":"address","internalType":"address"}],"outputs":[],"stateMutability":"nonpayable"},{"type":"function","name":"setPools","inputs":[{"name":"poolsToSet","type":"tuple[]","internalType":"struct PoolParams[]","components":[{"name":"id","type":"uint256","internalType":"uint256"},{"name":"upperBound","type":"uint256","internalType":"uint256"},{"name":"lowerBound","type":"uint256","internalType":"uint256"}]},{"name":"activeID","type":"uint256","internalType":"uint256"}],"outputs":[{"name":"poolsCreated","type":"tuple[]","internalType":"struct Pool[]","components":[{"name":"id","type":"uint256","internalType":"uint256"},{"name":"pool","type":"address","internalType":"contract IPool"}]}],"stateMutability":"nonpayable"},{"type":"function","name":"setTickSpacing","inputs":[{"name":"spacing","type":"uint256","internalType":"uint256"}],"outputs":[],"stateMutability":"nonpayable"},{"type":"function","name":"setTwapInterval","inputs":[{"name":"_twapInterval","type":"uint256","internalType":"uint256"}],"outputs":[],"stateMutability":"nonpayable"},{"type":"function","name":"settleFunding","inputs":[],"outputs":[{"name":"premiumFraction","type":"int256","internalType":"int256"},{"name":"mark","type":"uint256","internalType":"uint256"},{"name":"indexPrice","type":"uint256","internalType":"uint256"}],"stateMutability":"nonpayable"},{"type":"function","name":"swapClose","inputs":[{"name":"dirOfBase","type":"uint8","internalType":"enum Dir"},{"name":"baseAmount","type":"uint256","internalType":"uint256"}],"outputs":[{"name":"quoteAmount","type":"uint256","internalType":"uint256"}],"stateMutability":"nonpayable"},{"type":"function","name":"swapOpen","inputs":[{"name":"dirOfQuote","type":"uint8","internalType":"enum Dir"},{"name":"quoteAmount","type":"uint256","internalType":"uint256"}],"outputs":[{"name":"baseAmount","type":"uint256","internalType":"uint256"}],"stateMutability":"nonpayable"},{"type":"function","name":"transferOwnership","inputs":[{"name":"newOwner","type":"address","internalType":"address"}],"outputs":[],"stateMutability":"payable"},{"type":"event","name":"AMMFeeRatioChanged","inputs":[{"name":"newAMMFeeRatio","type":"uint256","indexed":false,"internalType":"uint256"}],"anonymous":false},{"type":"event","name":"Activated","inputs":[],"anonymous":false},{"type":"event","name":"ActivePoolChanged","inputs":[{"name":"newPool","type":"address","indexed":true,"internalType":"contract IPool"},{"name":"newIndex","type":"uint256","indexed":true,"internalType":"uint256"}],"anonymous":false},{"type":"event","name":"BaseFeeRatioChanged","inputs":[{"name":"newFeeRatio","type":"uint256","indexed":false,"internalType":"uint256"}],"anonymous":false},{"type":"event","name":"CapChanged","inputs":[{"name":"maxSize","type":"uint256","indexed":false,"internalType":"uint256"},{"name":"openInterestNotionalCap","type":"uint256","indexed":false,"internalType":"uint256"}],"anonymous":false},{"type":"event","name":"Deactivated","inputs":[],"anonymous":false},{"type":"event","name":"FluctuationLimitRatioChanged","inputs":[{"name":"ratio","type":"uint256","indexed":false,"internalType":"uint256"}],"anonymous":false},{"type":"event","name":"FundingPeriodChanged","inputs":[{"name":"fundingPeriod","type":"uint256","indexed":false,"internalType":"uint256"}],"anonymous":false},{"type":"event","name":"FundingRateUpdated","inputs":[{"name":"fundingRate","type":"int256","indexed":false,"internalType":"int256"},{"name":"price","type":"uint256","indexed":false,"internalType":"uint256"}],"anonymous":false},{"type":"event","name":"InitMarginRatioChanged","inputs":[{"name":"ratio","type":"uint256","indexed":false,"internalType":"uint256"}],"anonymous":false},{"type":"event","name":"Initialized","inputs":[{"name":"version","type":"uint8","indexed":false,"internalType":"uint8"}],"anonymous":false},{"type":"event","name":"KeeperFeeRatioChanged","inputs":[{"name":"newKeeperFeeRatio","type":"uint256","indexed":false,"internalType":"uint256"}],"anonymous":false},{"type":"event","name":"LimitMakerFeeRatioChanged","inputs":[{"name":"newLiquidatorFeeRatio","type":"uint256","indexed":false,"internalType":"uint256"}],"anonymous":false},{"type":"event","name":"LiquidationFeeRatioChanged","inputs":[{"name":"ratio","type":"uint256","indexed":false,"internalType":"uint256"}],"anonymous":false},{"type":"event","name":"LiquidityAdded","inputs":[{"name":"maker","type":"address","indexed":true,"internalType":"address"},{"name":"addedMargin","type":"uint256","indexed":false,"internalType":"uint256"},{"name":"addedNotional","type":"uint256","indexed":false,"internalType":"uint256"},{"name":"poolsIds","type":"uint256[]","indexed":false,"internalType":"uint256[]"}],"anonymous":false},{"type":"event","name":"LiquidityRemoved","inputs":[{"name":"maker","type":"address","indexed":true,"internalType":"address"},{"name":"removedMargin","type":"uint256","indexed":false,"internalType":"uint256"},{"name":"removedNotional","type":"uint256","indexed":false,"internalType":"uint256"},{"name":"poolIds","type":"uint256[]","indexed":false,"internalType":"uint256[]"}],"anonymous":false},{"type":"event","name":"MaintenanceMarginRatioChanged","inputs":[{"name":"ratio","type":"uint256","indexed":false,"internalType":"uint256"}],"anonymous":false},{"type":"event","name":"MaxSizeSet","inputs":[{"name":"maxSize","type":"uint256","indexed":false,"internalType":"uint256"}],"anonymous":false},{"type":"event","name":"NewPool","inputs":[{"name":"pool","type":"address","indexed":true,"internalType":"contract IPool"},{"name":"id","type":"uint256","indexed":true,"internalType":"uint256"}],"anonymous":false},{"type":"event","name":"NewPriceSnapshot","inputs":[{"name":"markPrice","type":"uint256","indexed":false,"internalType":"uint256"},{"name":"timestamp","type":"uint256","indexed":false,"internalType":"uint256"}],"anonymous":false},{"type":"event","name":"OpenInterestCapSet","inputs":[{"name":"openInterestCap","type":"uint256","indexed":false,"internalType":"uint256"}],"anonymous":false},{"type":"event","name":"OwnershipHandoverCanceled","inputs":[{"name":"pendingOwner","type":"address","indexed":true,"internalType":"address"}],"anonymous":false},{"type":"event","name":"OwnershipHandoverRequested","inputs":[{"name":"pendingOwner","type":"address","indexed":true,"internalType":"address"}],"anonymous":false},{"type":"event","name":"OwnershipTransferred","inputs":[{"name":"oldOwner","type":"address","indexed":true,"internalType":"address"},{"name":"newOwner","type":"address","indexed":true,"internalType":"address"}],"anonymous":false},{"type":"event","name":"PoolLogicContractChanged","inputs":[{"name":"newPoolLogic","type":"address","indexed":false,"internalType":"address"}],"anonymous":false},{"type":"event","name":"PriceWeightsChanged","inputs":[{"name":"markPriceWeight","type":"uint256","indexed":false,"internalType":"uint256"},{"name":"indexPriceWeight","type":"uint256","indexed":false,"internalType":"uint256"}],"anonymous":false},{"type":"event","name":"TickSpacingChanged","inputs":[{"name":"tickSpacing","type":"uint256","indexed":false,"internalType":"uint256"}],"anonymous":false},{"type":"event","name":"TwapIntervalChanged","inputs":[{"name":"twapInterval","type":"uint256","indexed":false,"internalType":"uint256"}],"anonymous":false},{"type":"error","name":"AlreadyInitialized","inputs":[]},{"type":"error","name":"BAD_DEBT","inputs":[]},{"type":"error","name":"FUNDING_INTERVAL_NOT_PASSED","inputs":[]},{"type":"error","name":"INACTIVE","inputs":[]},{"type":"error","name":"INSUFFICIENT_MARGIN","inputs":[]},{"type":"error","name":"INVALID_FUNDING_PERIOD","inputs":[]},{"type":"error","name":"INVALID_RATIO","inputs":[]},{"type":"error","name":"INVALID_WEIGHT","inputs":[]},{"type":"error","name":"LEVERAGE_TOO_HIGH","inputs":[]},{"type":"error","name":"LIQUIDATABLE","inputs":[]},{"type":"error","name":"NOT_ACTIVE_POOL","inputs":[]},{"type":"error","name":"NOT_CLEARING_HOUSE","inputs":[]},{"type":"error","name":"NOT_LIQUIDATABLE","inputs":[]},{"type":"error","name":"NOT_LP","inputs":[]},{"type":"error","name":"NOT_POSITION_MANAGER","inputs":[]},{"type":"error","name":"NO_POOL_IN_RANGE","inputs":[]},{"type":"error","name":"NewOwnerIsZeroAddress","inputs":[]},{"type":"error","name":"NoHandoverRequest","inputs":[]},{"type":"error","name":"POOL_ALREADY_SET","inputs":[]},{"type":"error","name":"PRICE_OVER_FLUCTUATION_LIMIT","inputs":[]},{"type":"error","name":"Unauthorized","inputs":[]}],"bytecode":{"object":"0x60e06040523480156200001157600080fd5b50604051620058523803806200585283398101604081905262000034916200013e565b6001600160a01b0380831660805280841660a052811660c0526200005762000060565b50505062000188565b600054610100900460ff1615620000cd5760405162461bcd60e51b815260206004820152602760248201527f496e697469616c697a61626c653a20636f6e747261637420697320696e697469604482015266616c697a696e6760c81b606482015260840160405180910390fd5b60005460ff908116146200011f576000805460ff191660ff9081179091556040519081527f7f26b83ff96e1f2b6a682f133852f6798a09c465da95921460cefb38474024989060200160405180910390a15b565b80516001600160a01b03811681146200013957600080fd5b919050565b6000806000606084860312156200015457600080fd5b6200015f8462000121565b92506200016f6020850162000121565b91506200017f6040850162000121565b90509250925092565b60805160a05160c051615685620001cd600039600081816106ad015261130c01526000818161089a01526136060152600081816104470152612ec001526156856000f3fe6080604052600436106103405760003560e01c80629a7ade146103455780630530770314610378578063068bcd8d1461038d5780630693ca3b146103d057806308e9ef43146103f25780630902f1ac146104125780630af96800146104355780630becc41d1461046957806313d0143d14610489578063162ca7101461049e5780631bde66e7146104b35780631d32afa5146104ee57806322f3e2d414610545578063245d5d511461056f578063256929621461058f5780632802e6db146105975780632a5aa292146105ac5780632e8501a4146105cc57806332a9569a146105e15780633911138f146106015780633e742e3b146106215780633ee112c0146106365780633f9c680d1461064e578063411efe251461067b5780634219dc401461069b578063435e13bf146106cf5780634433e5ca146106ef57806346558d1b1461071c5780634d85468b146107315780634e174762146107515780634f3c15421461076657806354d1f13d1461077b57806358c0994a146107835780635c220aa1146107985780635ea679ef146107b857806360409632146107d8578063622595b1146107ed57806363e1d57c1461080d57806365f664251461082257806367c9c1dd14610842578063695d336514610862578063715018a614610880578063741bef1a146108885780637c74ec89146108bc5780637db3fd69146108de57806380295a74146108f3578063816e117c146109135780638da5cb5b146109335780639219326e1461094c57806395196f7e1461096c578063a9c55bc314610981578063a9ec1416146109b3578063acec338a146109d3578063b5e2b047146109f3578063b626382d14610a08578063bce2020d14610a1d578063c355d1ac14610a32578063c7c2b7bf14610a52578063cc85f5f214610a72578063d152a85914610a87578063d3c7f02614610aa7578063e2559a8314610ac7578063e25f4f9214610ae7578063e66badc014610b07578063e6877a1b14610b27578063ec82120314610b47578063ed83d79c14610b67578063efdb942314610b7c578063f04e283e14610baa578063f2fde38b14610bbd578063f36bdbc914610bd0578063f39508f814610bf0578063fbede22414610c10578063fee81cf414610c30575b600080fd5b34801561035157600080fd5b50610365610360366004614b5d565b610c63565b6040519081526020015b60405180910390f35b34801561038457600080fd5b50600d54610365565b34801561039957600080fd5b506103c36103a8366004614b8d565b6000908152600660205260409020546001600160a01b031690565b60405161036f9190614ba6565b3480156103dc57600080fd5b506103f06103eb366004614b8d565b610c7b565b005b3480156103fe57600080fd5b506103f061040d366004614b8d565b610cbf565b34801561041e57600080fd5b50610427610d05565b60405161036f929190614bba565b34801561044157600080fd5b506103c37f000000000000000000000000000000000000000000000000000000000000000081565b34801561047557600080fd5b50610427610484366004614bdd565b610d7b565b34801561049557600080fd5b50600954610365565b3480156104aa57600080fd5b50601854610365565b3480156104bf57600080fd5b506104d36104ce366004614c64565b610e59565b6040805193845260208401929092529082015260600161036f565b3480156104fa57600080fd5b5061050361101a565b60405161036f9190600060a082019050825182526020830151602083015260408301516040830152606083015160608301526080830151608083015292915050565b34801561055157600080fd5b5060005462010000900460ff165b604051901515815260200161036f565b34801561057b57600080fd5b506103f061058a366004614b8d565b611082565b6103f06110bf565b3480156105a357600080fd5b50601254610365565b3480156105b857600080fd5b506103f06105c7366004614b8d565b61110e565b3480156105d857600080fd5b5061036561117c565b3480156105ed57600080fd5b506103f06105fc366004614b8d565b61119a565b34801561060d57600080fd5b5061036561061c366004614b5d565b6111e0565b34801561062d57600080fd5b50601c54610365565b34801561064257600080fd5b50601954601a54610427565b34801561065a57600080fd5b5061066e610669366004614c64565b6111ef565b60405161036f9190614c81565b34801561068757600080fd5b506103f0610696366004614b8d565b611290565b3480156106a757600080fd5b506103c37f000000000000000000000000000000000000000000000000000000000000000081565b3480156106db57600080fd5b506103656106ea366004614c64565b6112d6565b3480156106fb57600080fd5b5061070f61070a366004614d26565b6112e8565b60405161036f9190614d71565b34801561072857600080fd5b506103656115d7565b34801561073d57600080fd5b5061036561074c366004614b5d565b6115e1565b34801561075d57600080fd5b50600454610365565b34801561077257600080fd5b50601654610365565b6103f06118c3565b34801561078f57600080fd5b506103656118ff565b3480156107a457600080fd5b506103656107b3366004614b8d565b611909565b3480156107c457600080fd5b506103f06107d3366004614b8d565b61193a565b3480156107e457600080fd5b50600354610365565b3480156107f957600080fd5b506103f0610808366004614dc9565b611977565b34801561081957600080fd5b50601754610365565b34801561082e57600080fd5b5061036561083d366004614b5d565b611bec565b34801561084e57600080fd5b5061042761085d366004614c64565b611c00565b34801561086e57600080fd5b506002546001600160a01b03166103c3565b6103f0611c15565b34801561089457600080fd5b506103c37f000000000000000000000000000000000000000000000000000000000000000081565b3480156108c857600080fd5b506108d1611c29565b60405161036f9190614de2565b3480156108ea57600080fd5b50601b54610365565b3480156108ff57600080fd5b506103f061090e366004614b8d565b611c8b565b34801561091f57600080fd5b506103f061092e366004614b8d565b611cd1565b34801561093f57600080fd5b50638b78c6d819546103c3565b34801561095857600080fd5b506103f0610967366004614c64565b611d0e565b34801561097857600080fd5b50600e54610365565b34801561098d57600080fd5b506109a161099c366004614c64565b611d61565b60405161036f96959493929190614e5b565b3480156109bf57600080fd5b506103f06109ce366004614b8d565b611db0565b3480156109df57600080fd5b506103f06109ee366004614edc565b611df6565b3480156109ff57600080fd5b50600f54610365565b348015610a1457600080fd5b50601054610365565b348015610a2957600080fd5b50601554610365565b348015610a3e57600080fd5b50610365610a4d366004614b8d565b611e0a565b348015610a5e57600080fd5b50610365610a6d366004614c64565b611e15565b348015610a7e57600080fd5b50601354610365565b348015610a9357600080fd5b506103f0610aa2366004614b8d565b611e27565b348015610ab357600080fd5b50610365610ac2366004614b8d565b611e6d565b348015610ad357600080fd5b506103f0610ae2366004614b8d565b611e95565b348015610af357600080fd5b506103f0610b02366004614b8d565b611edb565b348015610b1357600080fd5b506108d1610b22366004614c64565b611f58565b348015610b3357600080fd5b5061055f610b42366004614c64565b611fd1565b348015610b5357600080fd5b50610365610b62366004614b5d565b611fdc565b348015610b7357600080fd5b506104d3611ff8565b348015610b8857600080fd5b50610b9c610b97366004614ef9565b61212b565b60405161036f929190614f4d565b6103f0610bb8366004614c64565b6125df565b6103f0610bcb366004614c64565b61261c565b348015610bdc57600080fd5b50610365610beb366004614b5d565b612643565b348015610bfc57600080fd5b506104d3610c0b366004614f9f565b612846565b348015610c1c57600080fd5b506103f0610c2b366004614b8d565b612c21565b348015610c3c57600080fd5b50610365610c4b366004614c64565b63389a75e1600c908152600091909152602090205490565b6000610c728383600454612c67565b90505b92915050565b610c83612d66565b601b8190556040518181527fddf597735ce1589d62b031d58fd38367099e7e7e747ac10dfaf3063c99da91e8906020015b60405180910390a150565b610cc7612d66565b610cd081612d81565b60168190556040518181527fe75e3e311afafb466335ae8af3bf1d55443d8937fb5ada14583f4fca729c0fa890602001610cb4565b60025460408051630240bc6b60e21b8152815160009384936001600160a01b0390911692630902f1ac92600480830193928290030181865afa158015610d4f573d6000803e3d6000fd5b505050506040513d601f19601f82011682018060405250810190610d739190615013565b915091509091565b6000808281816001600160401b03811115610d9857610d98615037565b604051908082528060200260200182016040528015610dc1578160200160208202803683370190505b50905060005b82811015610e405760066000888884818110610de557610de561504d565b90506020020135815260200190815260200160002060009054906101000a90046001600160a01b0316828281518110610e2057610e2061504d565b6001600160a01b0390921660209283029190910190910152600101610dc7565b50610e4b8782612daa565b935093505050935093915050565b6000806000610e66612eb5565b610e71846001612efe565b9050610e7c846130be565b610e9957604051633da1f7d160e11b815260040160405180910390fd5b610ea284613183565b6001600160a01b038616600090815260016020819052604082200154929550909350816001600160401b03811115610edc57610edc615037565b604051908082528060200260200182016040528015610f05578160200160208202803683370190505b5090506000805b83811015610ffa576001600160a01b038816600090815260016020819052604090912001805482908110610f4257610f4261504d565b60009182526020822001546040516301dc515160e31b81526001600160a01b0390911693508391630ee28a8891610f80918c91600190600401615063565b6080604051808303816000875af1158015610f9f573d6000803e3d6000fd5b505050506040513d601f19601f82011682018060405250810190610fc39190615086565b5050505081838281518110610fda57610fda61504d565b6001600160a01b0390921660209283029190910190910152600101610f0c565b5061100687600061320e565b611010878361322a565b5050509193909250565b61104c6040518060a0016040528060008152602001600081526020016000815260200160008152602001600081525090565b6040518060a001604052806009548152602001600a548152602001600b548152602001600c548152602001600d54815250905090565b61108a612d66565b60188190556040518181527fa01ceb086b04ede9a7d3ad6c4efe0c630676ae666cc14103ed5bba1ad2cdee8690602001610cb4565b60006202a3006001600160401b03164201905063389a75e1600c5233600052806020600c2055337fdbf36a107da19e49527a7176a1babf963b4b0ff8cde35ee35d6cd8f1f9ac7e1d600080a250565b611116612d66565b610e1081101561113957604051630bf7c9bd60e21b815260040160405180910390fd5b600f8190556111496002826150f3565b6011556040518181527f6ce6315004c92b2957244860cf57179c165f8c77755f841dcd1a7e315dc76afb90602001610cb4565b6000611195600a546009546133af90919063ffffffff16565b905090565b6111a2612d66565b6111ab81612d81565b600c8190556040518181527f8bfda404cbf4ce6e72ab164d5c72aaf4500bda00a57ab1f13d8b81c14edf8ccc90602001610cb4565b6000610c7283836004546133c4565b6040805180820190915260008152606060208201526001600160a01b03821660009081526001602081815260409283902083518085018552815481529281018054855181850281018501909652808652939491938584019383018282801561128057602002820191906000526020600020905b81546001600160a01b03168152600190910190602001808311611262575b5050505050815250509050919050565b611298612d66565b6112a181612d81565b60138190556040518181527f878cd65339a771e627bc9856c713f02fec044bd7607db61e3858f8d56e4ea4f590602001610cb4565b60006112e1826134ae565b5092915050565b60606112f2612d66565b600854604051631ee4bdb160e11b81526001600160a01b037f0000000000000000000000000000000000000000000000000000000000000000811692633dc97b62926113479289928992911690600401615107565b6000604051808303816000875af1158015611366573d6000803e3d6000fd5b505050506040513d6000823e601f3d908101601f1916820160405261138e91908101906151e8565b805160408051808201909152600080825260208201529192509060005b828110156115cd578381815181106113c5576113c561504d565b6020908102919091018101518051600090815260069092526040909120549092506001600160a01b03161561140d576040516353bdbfcd60e01b815260040160405180910390fd5b60208281018051845160009081526006909352604080842080546001600160a01b03199081166001600160a01b03948516179091558351600780546001810182559087527fa66cc928b5edb82af9bd49922954155ab7b0942694bea4ce44661d9a8736c68801805490921690841617905585519251905192939116917fbe4222bc407cb12031595fc55b46531e46308d31e4572c9c4360d8ae790e1a319190a381518590036115c557600354156114d757604051630fd1f58b60e11b815260040160405180910390fd5b60006114e16135e9565b905060008084602001516001600160a01b0316633cc87a206040518163ffffffff1660e01b81526004016040805180830381865afa158015611527573d6000803e3d6000fd5b505050506040513d601f19601f8201168201806040525081019061154b9190615013565b915091508282108061155c57508281115b1561157a57604051630fd1f58b60e11b815260040160405180910390fd5b6020850151600280546001600160a01b0319166001600160a01b0390921691821790556004899055600583905560405189919060008051602061561083398151915290600090a35050505b6001016113ab565b5050509392505050565b600061119561367d565b600254604051630a66108b60e11b81526000916001600160a01b031690829082906314cc2116906116169088906004016152f6565b602060405180830381865afa158015611633573d6000803e3d6000fd5b505050506040513d601f19601f820116820180604052508101906116579190615304565b9050808411156118435761166b818561531d565b93506000856001811115611681576116816152be565b1561169a576001600454611695919061531d565b6116a8565b6004546116a8906001615330565b90505b841561183d576000818152600660205260409020546001600160a01b03169250826117155760005b8660018111156116e5576116e56152be565b146116f55764174876e800611702565b676765c793fa10079d601b1b5b6001600160601b03169350505050610c75565b604051630a66108b60e11b81526001600160a01b038416906314cc2116906117419089906004016152f6565b602060405180830381865afa15801561175e573d6000803e3d6000fd5b505050506040513d601f19601f820116820180604052508101906117829190615304565b9150818511156117c457611796828661531d565b94508560018111156117aa576117aa6152be565b156117b95760001901806117be565b600101805b506116ab565b604051634d85468b60e01b81526001600160a01b03841690634d85468b906117f29089908990600401615343565b602060405180830381865afa15801561180f573d6000803e3d6000fd5b505050506040513d601f19601f820116820180604052508101906118339190615304565b9350505050610c75565b506118bb565b604051634d85468b60e01b81526001600160a01b03831690634d85468b906118719088908890600401615343565b602060405180830381865afa15801561188e573d6000803e3d6000fd5b505050506040513d601f19601f820116820180604052508101906118b29190615304565b92505050610c75565b505092915050565b63389a75e1600c523360005260006020600c2055337ffa7b8eab7da67f412cc9575ed43464468f9bfbae89d1675917346ca6d8fe3c92600080a2565b60006111956135e9565b60035460009080830361191f5750600092915050565b600454818411906119318582846136a8565b95945050505050565b611942612d66565b601c8190556040518181527f0bd5e02c0d6277fdf7c7c72fae10042c4c832b26ea94623a04b79a50a35a217e90602001610cb4565b600054610100900460ff16158080156119975750600054600160ff909116105b806119b15750303b1580156119b1575060005460ff166001145b611a185760405162461bcd60e51b815260206004820152602e60248201527f496e697469616c697a61626c653a20636f6e747261637420697320616c72656160448201526d191e481a5b9a5d1a585b1a5e995960921b606482015260840160405180910390fd5b6000805460ff191660011790558015611a3b576000805461ff0019166101001790555b611a488260400135612d81565b611a558260600135612d81565b611a63826101400135612d81565b611a71826101600135612d81565b611a7f826101800135612d81565b611a8d826101a00135612d81565b611a9b826101c00135612d81565b611aa88260800135612d81565b611ab58260a00135612d81565b670de0b6b3a76400008261010001351115611ae35760405163698f22ad60e01b815260040160405180910390fd5b60c082013560175560e0820135601855608082013560155560a0820135601655610120820135601c55610100820135601a819055611b2990670de0b6b3a764000061531d565b601955611b41611b3c6020840184614c64565b613779565b60408201356014556060820135601355610140820135600955610160820135600a55610180820135600b556101a0820135600c556101c0820135600d556020820135600f819055611b94906002906150f3565b601155611ba160016137a3565b8015611be8576000805461ff0019169055604051600181527f7f26b83ff96e1f2b6a682f133852f6798a09c465da95921460cefb3847402498906020015b60405180910390a15b5050565b6000611bf6612eb5565b610c72838361381b565b600080611c0c83613183565b91509150915091565b611c1d612d66565b611c2760006138c8565b565b60606007805480602002602001604051908101604052809291908181526020018280548015611c8157602002820191906000526020600020905b81546001600160a01b03168152600190910190602001808311611c63575b5050505050905090565b611c93612d66565b611c9c81612d81565b60098190556040518181527fd34babb0abb9a72918553cfe7b3612443c81b3ea59ba0f751d2bb7224d18d40790602001610cb4565b611cd9612d66565b60178190556040518181527fdbc1569600d42962797699d7aa6f29f1b0727a18e277167b28b07ccf3460e43d90602001610cb4565b611d16612d66565b600880546001600160a01b0319166001600160a01b0383161790556040517f75fb75ea8af26b29294e879e486c9d88828d41e43331a79de44fbc5b65bf31da90610cb4908390614ba6565b6001600160a01b038116600090815260016020526040812054819081806060611d8987613183565b9096509450611d97876134ae565b9093509150611da5876138f4565b905091939550919395565b611db8612d66565b611dc181612d81565b600d8190556040518181527f6f825f18b787836f7cf974799b160538ab237aa0d14af3611fa69683a40c6d2290602001610cb4565b611dfe612d66565b611e07816137a3565b50565b6000610c7582613baa565b6000611e20826134ae565b9392505050565b611e2f612d66565b611e3881612d81565b600a8190556040518181527f2534b354f571d8b893b9b19bf8e789ecd1e4234bd2f4dd8bf69a1076215e082590602001610cb4565b600354600090808303611e835750600092915050565b60045481841190611931858284613bd5565b611e9d612d66565b611ea681612d81565b600b8190556040518181527f84768b1f13e0bce8851491951ac15cf6a8449926307a23459606a32bc9b3658090602001610cb4565b611ee3612d66565b670de0b6b3a7640000811115611f0c5760405163698f22ad60e01b815260040160405180910390fd5b611f1e81670de0b6b3a764000061531d565b6019819055601a8290556040517f434a02b5f14989182b72225c80f68bad6feb2e4943e210115c90140d88837cb991610cb4918490614bba565b6001600160a01b038116600090815260016020818152604092839020909101805483518184028101840190945280845260609392830182828015611fc557602002820191906000526020600020905b81546001600160a01b03168152600190910190602001808311611fa7575b50505050509050919050565b6000610c7582613ca6565b6000611fe6613d8c565b611fee612eb5565b610c728383613db5565b6000806000612005612eb5565b601054600f544282111561202c576040516313a2f3df60e31b815260040160405180910390fd5b612037601c54613baa565b93506120416135e9565b9250600061204e84613e4f565b612059600354613e4f565b612063919061535e565b90506201518061207283613e4f565b61207c908361537e565b61208691906153ae565b955061209186613e68565b6000601154426120a19190615330565b90506000610e106120b28587615330565b6120bc91906150f3565b6120c890610e106153dc565b90508082108282180282186010556120e08887613f60565b600e55426012556040517fd2805fe76d30598332a67c1061cee82e2e102b0f59f5457b1729bce028a054a090612119908a908990614bba565b60405180910390a15050505050909192565b60606000612137613d8c565b61213f612eb5565b61214a856000612efe565b50826000816001600160401b0381111561216657612166615037565b60405190808252806020026020018201604052801561218f578160200160208202803683370190505b5090506000826001600160401b038111156121ac576121ac615037565b6040519080825280602002602001820160405280156121d5578160200160208202803683370190505b509050826001600160401b038111156121f0576121f0615037565b60405190808252806020026020018201604052801561225557816020015b612242604051806080016040528060006001600160a01b031681526020016000815260200160008152602001600081525090565b81526020019060019003908161220e5790505b50945060008061227f60405180606001604052806000815260200160008152602001600081525090565b60045460005b87811015612549578b8b8281811061229f5761229f61504d565b9050606002018036038101906122b591906153f3565b92506122d2836040015184602001516133af90919063ffffffff16565b94506122de8585615330565b93506122ff6122fa868560200151613fa690919063ffffffff16565b613fbb565b82600001518782815181106123165761231661504d565b602090810291909101810191909152835160009081526006909152604090205486516001600160a01b03909116908790839081106123565761235661504d565b60200260200101906001600160a01b031690816001600160a01b0316815250508581815181106123885761238861504d565b60200260200101518a82815181106123a2576123a261504d565b60209081029190910101516001600160a01b03909116905285518690829081106123ce576123ce61504d565b60200260200101516001600160a01b031663566887008e876040518363ffffffff1660e01b815260040161240392919061544e565b6060604051808303816000875af1158015612422573d6000803e3d6000fd5b505050506040513d601f19601f820116820180604052508101906124469190615467565b8c84815181106124585761245861504d565b60200260200101516020018d85815181106124755761247561504d565b60200260200101516040018e86815181106124925761249261504d565b602090810291909101015160600192909252919052528251829003612530578581815181106124c3576124c361504d565b60200260200101516001600160a01b031663604096326040518163ffffffff1660e01b8152600401602060405180830381865afa158015612508573d6000803e3d6000fd5b505050506040513d601f19601f8201168201806040525081019061252c9190615304565b6003555b602083015161253f908a615330565b9850600101612285565b506001600160a01b038c16600090815260016020526040812080548a9290612572908490615330565b9091555061258290508c86613fde565b61258b8c614133565b8b6001600160a01b03167fdfa5cc2f09b383ffee9ab6ff4a669710125418e275120c54359790d3ea9082228985896040516125c893929190615495565b60405180910390a250505050505050935093915050565b6125e7612d66565b63389a75e1600c52806000526020600c20805442111561260f57636f5e88186000526004601cfd5b60009055611e07816138c8565b612624612d66565b8060601b61263a57637448fbae6000526004601cfd5b611e07816138c8565b600254604051622f5bb160e31b81526000916001600160a01b0316908290829063017add88906126779088906004016152f6565b602060405180830381865afa158015612694573d6000803e3d6000fd5b505050506040513d601f19601f820116820180604052508101906126b89190615304565b905080841115612818576126cc818561531d565b935060008560018111156126e2576126e26152be565b6001146126fd5760016004546126f8919061531d565b61270b565b60045461270b906001615330565b90505b841561183d576000818152600660205260409020546001600160a01b031692508261273a5760016116d3565b604051622f5bb160e31b81526001600160a01b0384169063017add88906127659089906004016152f6565b602060405180830381865afa158015612782573d6000803e3d6000fd5b505050506040513d601f19601f820116820180604052508101906127a69190615304565b9150818511156127ea576127ba828661531d565b94508560018111156127ce576127ce6152be565b6001146127df5760001901806127e4565b600101805b5061270e565b60405163f36bdbc960e01b81526001600160a01b0384169063f36bdbc9906117f29089908990600401615343565b60405163f36bdbc960e01b81526001600160a01b0383169063f36bdbc9906118719088908890600401615343565b6000806000612853612eb5565b61285e866000612efe565b5083612868614a80565b6000826001600160401b0381111561288257612882615037565b6040519080825280602002602001820160405280156128ab578160200160208202803683370190505b5082526000836001600160401b038111156128c8576128c8615037565b6040519080825280602002602001820160405280156128f1578160200160208202803683370190505b5090506000806000805b87811015612b51578c8c828181106129155761291561504d565b90506040020180360381019061292b91906154ea565b604088018190525187518051839081106129475761294761504d565b60200260200101818152505060066000886040015160000151815260200190815260200160002060009054906101000a90046001600160a01b03169550856001600160a01b0316630ee28a888f89604001516020015160006040518463ffffffff1660e01b81526004016129bd93929190615063565b6080604051808303816000875af11580156129dc573d6000803e3d6000fd5b505050506040513d601f19601f82011682018060405250810190612a009190615086565b6020808c015190810193909352929091526060890180519295509093508391612a2a908390615330565b9052508215612a6d5785858581518110612a4657612a4661504d565b60200260200101906001600160a01b031690816001600160a01b0316815250508360010193505b60045460408801515103612ae157856001600160a01b031663604096326040518163ffffffff1660e01b8152600401602060405180830381865afa158015612ab9573d6000803e3d6000fd5b505050506040513d601f19601f82011682018060405250810190612add9190615304565b6003555b60208701515160001215612b15578660200151602001518760200151604001818151612b0d9190615330565b905250612b37565b8660200151602001518760200151606001818151612b339190615330565b9052505b602087015151612b47908c61551c565b9a506001016128fb565b5082845260208601516060810151604090910151612b6e9161415a565b9850612b7a8d8561322a565b612b888d8760600151614182565b6001600160a01b038e1660009081526001602052604081208054929a508a92909190612bb590849061531d565b90915550612bc490508d614133565b8c6001600160a01b03167f6e09e53cffbbb604addf0b7427eb65ec8f197d7cee9ad6f4bf5b39cc2636f54e8988606001518960000151604051612c0993929190615495565b60405180910390a25050505050505093509350939050565b612c29612d66565b612c3281612d81565b60158190556040518181527fd67453718fc57aad470d91be51568530ed02cc941c846cd9e281dc56b300e95e90602001610cb4565b6000818152600660205260408120546001600160a01b031680612c9d576040516338b7fdfb60e01b815260040160405180910390fd5b600080826001600160a01b0316629a7ade88886040518363ffffffff1660e01b8152600401612ccd929190615343565b6040805180830381865afa158015612ce9573d6000803e3d6000fd5b505050506040513d601f19601f82011682018060405250810190612d0d9190615013565b9150915080600014612d5c57612d50878260008a6001811115612d3257612d326152be565b14612d44576000199097019687612c67565b87600101975087612c67565b82019350505050611e20565b5095945050505050565b638b78c6d819543314611c27576382b429006000526004601cfd5b670de0b6b3a7640000811115611e07576040516306a4309560e01b815260040160405180910390fd5b80516000908190808203612dc5576000809250925050612eae565b60008060008060005b85811015612e9b57888181518110612de857612de861504d565b60200260200101516001600160a01b03166375011b9c8b6040518263ffffffff1660e01b8152600401612e1b9190614ba6565b6040805180830381865afa158015612e37573d6000803e3d6000fd5b505050506040513d601f19601f82011682018060405250810190612e5b9190615013565b90955093506000851315612e7a57612e738484615330565b9250612e87565b612e848483615330565b91505b612e91858961551c565b9750600101612dce565b50612ea6828261415a565b955050505050505b9250929050565b336001600160a01b037f00000000000000000000000000000000000000000000000000000000000000001614611c27576040516308abb64b60e21b815260040160405180910390fd5b6001600160a01b03821660009081526001602081815260408084209092018054835181840281018401909452808452849392830182828015612f6957602002820191906000526020600020905b81546001600160a01b03168152600190910190602001808311612f4b575b5050505050905060008151905060008060008060005b8581101561303357868181518110612f9957612f9961504d565b60200260200101516001600160a01b0316637d053c5f8b6040518263ffffffff1660e01b8152600401612fcc9190614ba6565b60408051808303816000875af1158015612fea573d6000803e3d6000fd5b505050506040513d601f19601f8201168201806040525081019061300e9190615013565b909550935061301d8584615330565b9250613029848361551c565b9150600101612f7f565b50600081613053846130448d6141cd565b61304e9190615330565b613e4f565b61305d919061535e565b9050881561307a578097506000811215613075575060005b61309c565b600081121561309c57604051632c7c1d6360e11b815260040160405180910390fd5b6130b18a60ff83901c6000038084011861320e565b5050505050505092915050565b60008060006130cc84613183565b91509150816000036130e2575060009392505050565b60006131026130ef61367d565b60ff85901c600003808601185b906133af565b9050600080841361312e5761311682613e4f565b61311f84613e4f565b613129919061535e565b61314a565b61313783613e4f565b61314083613e4f565b61314a919061535e565b9050613157601654613e4f565b613178838361316861304e8b6141cd565b613172919061551c565b90613f60565b129695505050505050565b6001600160a01b0381166000908152600160208181526040808420909201805483518184028101840190945280845284938493909291908301828280156131f357602002820191906000526020600020905b81546001600160a01b031681526001909101906020018083116131d5575b505050505090506132048482612daa565b9250925050915091565b6001600160a01b03909116600090815260016020526040902055565b6001600160a01b03821660009081526001602081815260408084209092018054835181840281018401909452808452909183018282801561329457602002820191906000526020600020905b81546001600160a01b03168152600190910190602001808311613276575b505085518451949550939250600091508190505b83811015613376578581815181106132c2576132c261504d565b6020026020010151915060005b855181101561336d578581815181106132ea576132ea61504d565b60200260200101516001600160a01b0316836001600160a01b03160361336557858460019003945084815181106133235761332361504d565b602002602001015186828151811061333d5761333d61504d565b60200260200101906001600160a01b031690816001600160a01b0316815250508386526132cf565b6001016132cf565b506001016132a8565b506001600160a01b038616600090815260016020818152604090922086516133a693919092019190870190614aec565b50505050505050565b6000610c728383670de0b6b3a76400006141e8565b6000818152600660205260408120546001600160a01b0316806133fa576040516338b7fdfb60e01b815260040160405180910390fd5b600080826001600160a01b0316633911138f88886040518363ffffffff1660e01b815260040161342b929190615343565b6040805180830381865afa158015613447573d6000803e3d6000fd5b505050506040513d601f19601f8201168201806040525081019061346b9190615013565b9150915080600014612d5c57612d50878260018a6001811115613490576134906152be565b146134a25760001990970196876133c4565b876001019750876133c4565b6001600160a01b038116600090815260016020818152604080842090920180548351818402810184019094528084528493849384938493909183018282801561352057602002820191906000526020600020905b81546001600160a01b03168152600190910190602001808311613502575b505083519394506000925050505b818110156135df578281815181106135485761354861504d565b60200260200101516001600160a01b0316634ae91523896040518263ffffffff1660e01b815260040161357b9190614ba6565b6040805180830381865afa158015613597573d6000803e3d6000fd5b505050506040513d601f19601f820116820180604052508101906135bb9190615013565b955093506135c98488615330565b96506135d5858761551c565b955060010161352e565b5050505050915091565b601c5460405163763e94e560e11b81526000916001600160a01b037f0000000000000000000000000000000000000000000000000000000000000000169163ec7d29ca9161363c9130919060040161544e565b602060405180830381865afa158015613659573d6000803e3d6000fd5b505050506040513d601f19601f820116820180604052508101906111959190615304565b600061368d601a546130fc6135e9565b61369e6019546130fc601c54613baa565b6111959190615330565b6000828152600660205260408120546001600160a01b0316806136de576040516338b7fdfb60e01b815260040160405180910390fd5b6040516317d7715d60e11b81526004810186905260009081906001600160a01b03841690632faee2ba906024016040805180830381865afa158015613727573d6000803e3d6000fd5b505050506040513d601f19601f8201168201806040525081019061374b919061553c565b915091508015612d5c57612d50878661376b576000199097019687613773565b876001019750875b876136a8565b6001600160a01b0316638b78c6d8198190558060006000805160206156308339815191528180a350565b6000805482158015620100000262ff000019909216919091179091556137ef576040517fed1cd0670ee0c0017f550451a038818c696d0b6a9d6ce5b369e44275573cf9b090600090a150565b6040517f1142a68cc39970640eb3524e77b91f78be21abc64f20f5919387eb46699bb77290600090a150565b6002546040516365f6642560e01b8152600091829182916001600160a01b0316906365f66425906138529088908890600401615343565b6060604051808303816000875af1158015613871573d6000803e3d6000fd5b505050506040513d601f19601f820116820180604052508101906138959190615467565b9450909250905080156138bf576138ab82614288565b6138b5858261381b565b6118b29084615330565b6118bb8261438f565b638b78c6d81980546001600160a01b03909216918290600080516020615630833981519152600080a355565b6001600160a01b03811660009081526001602081815260408084209092018054835181840281018401909452808452606094939283018282801561396157602002820191906000526020600020905b81546001600160a01b03168152600190910190602001808311613943575b5050835193945083925050506001600160401b0381111561398457613984615037565b6040519080825280602002602001820160405280156139e957816020015b6139d6604051806080016040528060006001600160a01b031681526020016000815260200160008152602001600081525090565b8152602001906001900390816139a25790505b5092506000805b82811015613ba157838181518110613a0a57613a0a61504d565b6020026020010151915081858281518110613a2757613a2761504d565b60209081029190910101516001600160a01b0391821690526040516369f20b0360e11b81529083169063d3e4160690613a64908990600401614ba6565b61014060405180830381865afa158015613a82573d6000803e3d6000fd5b505050506040513d601f19601f82011682018060405250810190613aa6919061556c565b60400151858281518110613abc57613abc61504d565b60200260200101516020018181525050816001600160a01b0316636edd7590868381518110613aed57613aed61504d565b6020026020010151602001516040518263ffffffff1660e01b8152600401613b1791815260200190565b6040805180830381865afa158015613b33573d6000803e3d6000fd5b505050506040513d601f19601f82011682018060405250810190613b579190615013565b868381518110613b6957613b6961504d565b6020026020010151604001878481518110613b8657613b8661504d565b602090810291909101015160600191909152526001016139f0565b50505050919050565b601d54600090808203613bc1575050600354919050565b611e20613bcf60018361531d565b846143a6565b6000828152600660205260408120546001600160a01b031680613c0b576040516338b7fdfb60e01b815260040160405180910390fd5b60405163543adaf160e11b81526004810186905260009081906001600160a01b0384169063a875b5e2906024016040805180830381865afa158015613c54573d6000803e3d6000fd5b505050506040513d601f19601f82011682018060405250810190613c78919061553c565b915091508015612d5c57612d508786613c98576000199097019687613ca0565b876001019750875b87613bd5565b6000806000613cb484613183565b9150915081600003613cca575060009392505050565b600080613cd6866134ae565b915091506000613cf8613ce761367d565b60ff87901c600003808801186130fc565b90506000808613613d2457613d0c82613e4f565b613d1586613e4f565b613d1f919061535e565b613d40565b613d2d85613e4f565b613d3683613e4f565b613d40919061535e565b905060008184613d53876130448d6141cd565b613d5d919061535e565b613d67919061551c565b9050613d74601654613e4f565b613d7e8285613f60565b129998505050505050505050565b60005462010000900460ff16611c2757604051637dc579d960e11b815260040160405180910390fd5b60025460405163ec82120360e01b8152600091829182916001600160a01b03169063ec82120390613dec9088908890600401615343565b6060604051808303816000875af1158015613e0b573d6000803e3d6000fd5b505050506040513d601f19601f82011682018060405250810190613e2f9190615467565b9450909250905080156138bf57613e4582614288565b6138b58582613db5565b6000600160ff1b8210613e6457613e6461455d565b5090565b60006007805480602002602001604051908101604052809291908181526020018280548015613ec057602002820191906000526020600020905b81546001600160a01b03168152600190910190602001808311613ea2575b505083519394506000925050505b81811015613f5a57828181518110613ee857613ee861504d565b60200260200101516001600160a01b031663bb825160856040518263ffffffff1660e01b8152600401613f1d91815260200190565b600060405180830381600087803b158015613f3757600080fd5b505af1158015613f4b573d6000803e3d6000fd5b50505050806001019050613ece565b50505050565b60008083128015613f7757613f74846155f3565b93505b613f8d61304e85670de0b6b3a7640000866141e8565b915080156112e157613f9e826155f3565b915050610c75565b6000610c7283670de0b6b3a7640000846141e8565b601554811015611e075760405163f9322cc160e01b815260040160405180910390fd5b613fe78161456b565b9050600060016000846001600160a01b03166001600160a01b0316815260200190815260200160002060010180548060200260200160405190810160405280929190818152602001828054801561406757602002820191906000526020600020905b81546001600160a01b03168152600190910190602001808311614049575b5050505050905080516000146140ff5781516000805b828110156140f7578481815181106140975761409761504d565b602002602001015191506140ab8483614659565b6140ef576001600160a01b038681166000908152600160208181526040832082018054928301815583529091200180546001600160a01b0319169184169190911790555b60010161407d565b505050505050565b6001600160a01b03831660009081526001602081815260409092208451613f5a93919092019190850190614aec565b505050565b61413c816130be565b15611e075760405163f752e53560e01b815260040160405180910390fd5b6000610c7261416883613e4f565b61417185613e4f565b818113818303929091038218021890565b6001600160a01b038216600090815260016020526040812054816141a5856146b8565b9050806000036141b757509050610c75565b611931846141c58382615330565b8491906141e8565b6001600160a01b031660009081526001602052604090205490565b828202600019838509818110820190038061421957826142105763ae47f7026000526004601cfd5b50819004611e20565b80831161422e5763ae47f7026000526004601cfd5b82848609600084810385169485900494848311909303908390038390046001010292030417600260038302811880840282030280840282030280840282030280840282030280840282030280840290910302029392505050565b60045460055460649061429c90849061415a565b106142ab5760001901806142b0565b600101805b506000818152600660205260409020546001600160a01b0316806142e7576040516338b7fdfb60e01b815260040160405180910390fd5b600280546001600160a01b0319166001600160a01b0383169081179091556004838155604080516301e643d160e51b81528151633cc87a209382810193928290030181865afa15801561433e573d6000803e3d6000fd5b505050506040513d601f19601f820116820180604052508101906143629190615013565b5060055560405182906001600160a01b0383169060008051602061561083398151915290600090a3505050565b614398816147e1565b6143a181614828565b600355565b600080601d84815481106143bc576143bc61504d565b90600052602060002090600302016040518060600160405290816000820154815260200160018201548152602001600282015481525050905060008342614403919061531d565b9050808260200151116144195750519050610c75565b8360000361442a5750519050610c75565b601d5460010361443d5750519050610c75565b6020820151600061444e824261531d565b9050600081856000015161446291906153dc565b905060005b886000036144865761447983836150f3565b9650505050505050610c75565b601d8960019003995089815481106144a0576144a061504d565b6000918252602091829020604080516060810182526003909302909101805483526001810154938301849052600201549082015296508510614503576144e6858561531d565b86516144f291906153dc565b6144fc9083615330565b9150614546565b6020860151614512908561531d565b86519091506145229082906153dc565b61452c9083615330565b91506145388184615330565b925085602001519350614467565b61455088836150f3565b9998505050505050505050565b6335278d126000526004601cfd5b80516060906000805b828110156146505784818151811061458e5761458e61504d565b6020026020010151915060008160016145a79190615330565b90505b83811015614647578581815181106145c4576145c461504d565b60200260200101516001600160a01b0316836001600160a01b03160361463f57858460019003945084815181106145fd576145fd61504d565b60200260200101518682815181106146175761461761504d565b60200260200101906001600160a01b031690816001600160a01b0316815250508386526145aa565b6001016145aa565b50600101614574565b50929392505050565b8151600090815b818110156146ad57836001600160a01b03168582815181106146845761468461504d565b60200260200101516001600160a01b0316036146a557600192505050610c75565b600101614660565b506000949350505050565b6001600160a01b0381166000908152600160208181526040808420909201805483518184028101840190945280845284939283018282801561472357602002820191906000526020600020905b81546001600160a01b03168152600190910190602001808311614705575b505083519394506000925050505b818110156147d95782818151811061474b5761474b61504d565b60200260200101516001600160a01b031663d3e41606866040518263ffffffff1660e01b815260040161477e9190614ba6565b61014060405180830381865afa15801561479c573d6000803e3d6000fd5b505050506040513d601f19601f820116820180604052508101906147c0919061556c565b61012001516147cf9085615330565b9350600101614731565b505050919050565b6000806147ec61494b565b91509150816000036147fd57505050565b8183118061480a57508083105b1561412e5760405163090b0cb760e31b815260040160405180910390fd5b601d548015614874576000601d61484060018461531d565b815481106148505761485061504d565b9060005260206000209060030201905043816002015403614872579190915550565b505b60408051606081018252838152426020820181815243838501908152601d805460018101825560009190915293517f6d4407e7be21f808e6509aa9fa9143369579dd7d760fe20a2c09680fc146134f60039095029485015590517f6d4407e7be21f808e6509aa9fa9143369579dd7d760fe20a2c09680fc1461350840155517f6d4407e7be21f808e6509aa9fa9143369579dd7d760fe20a2c09680fc14613519092019190915590517f248a375298de3738db140ba94c80eb918d26810443fb0b791e77fb4158fe873591611bdf91859190614bba565b601354600090819080820361496557506000928392509050565b601d5460008115614a3f576000601d61497f60018561531d565b8154811061498f5761498f61504d565b9060005260206000209060030201604051806060016040529081600082015481526020016001820154815260200160028201548152505090504381604001511480156149db5750600183115b15614a3757601d6149ed60028561531d565b815481106149fd576149fd61504d565b9060005260206000209060030201604051806060016040529081600082015481526020016001820154815260200160028201548152505090505b519050614a44565b506003545b614a60614a5984670de0b6b3a7640000615330565b82906133af565b9450614a77614a5984670de0b6b3a764000061531d565b93505050509091565b604051806080016040528060608152602001614abd6040518060800160405280600081526020016000815260200160008152602001600081525090565b8152602001614adf604051806040016040528060008152602001600081525090565b8152602001600081525090565b828054828255906000526020600020908101928215614b41579160200282015b82811115614b4157825182546001600160a01b0319166001600160a01b03909116178255602090920191600190910190614b0c565b50613e649291505b80821115613e645760008155600101614b49565b60008060408385031215614b7057600080fd5b823560028110614b7f57600080fd5b946020939093013593505050565b600060208284031215614b9f57600080fd5b5035919050565b6001600160a01b0391909116815260200190565b918252602082015260400190565b6001600160a01b0381168114611e0757600080fd5b600080600060408486031215614bf257600080fd5b8335614bfd81614bc8565b925060208401356001600160401b0380821115614c1957600080fd5b818601915086601f830112614c2d57600080fd5b813581811115614c3c57600080fd5b8760208260051b8501011115614c5157600080fd5b6020830194508093505050509250925092565b600060208284031215614c7657600080fd5b8135611e2081614bc8565b60208082528251828201528281015160408084015280516060840181905260009291820190839060808601905b80831015614cd75783516001600160a01b03168252928401926001929092019190840190614cae565b509695505050505050565b60008083601f840112614cf457600080fd5b5081356001600160401b03811115614d0b57600080fd5b602083019150836020606083028501011115612eae57600080fd5b600080600060408486031215614d3b57600080fd5b83356001600160401b03811115614d5157600080fd5b614d5d86828701614ce2565b909790965060209590950135949350505050565b602080825282518282018190526000919060409081850190868401855b82811015614dbc578151805185528601516001600160a01b0316868501529284019290850190600101614d8e565b5091979650505050505050565b60006101e08284031215614ddc57600080fd5b50919050565b6020808252825182820181905260009190848201906040850190845b81811015614e235783516001600160a01b031683529284019291840191600101614dfe565b50909695505050505050565b80516001600160a01b031682526020808201519083015260408082015190830152606090810151910152565b600060c08201888352602088818501528760408501528660608501526080868186015260c060a086015282865180855260e087019150838801945060005b81811015614ebc57614eac838751614e2f565b9484019491830191600101614e99565b50909c9b505050505050505050505050565b8015158114611e0757600080fd5b600060208284031215614eee57600080fd5b8135611e2081614ece565b600080600060408486031215614f0e57600080fd5b8335614f1981614bc8565b925060208401356001600160401b03811115614f3457600080fd5b614f4086828701614ce2565b9497909650939450505050565b604080825283519082018190526000906020906060840190828701845b82811015614f9057614f7d848351614e2f565b6080939093019290840190600101614f6a565b50505092019290925292915050565b600080600060408486031215614fb457600080fd5b8335614fbf81614bc8565b925060208401356001600160401b0380821115614fdb57600080fd5b818601915086601f830112614fef57600080fd5b813581811115614ffe57600080fd5b8760208260061b8501011115614c5157600080fd5b6000806040838503121561502657600080fd5b505080516020909101519092909150565b634e487b7160e01b600052604160045260246000fd5b634e487b7160e01b600052603260045260246000fd5b6001600160a01b0393909316835260208301919091521515604082015260600190565b6000806000806080858703121561509c57600080fd5b84519350602085015192506040850151915060608501516150bc81614ece565b939692955090935050565b634e487b7160e01b600052601260045260246000fd5b634e487b7160e01b600052601160045260246000fd5b600082615102576151026150c7565b500490565b6040808252818101849052600090606080840187845b8881101561514b5781358352602080830135908401528482013585840152918301919083019060010161511d565b50506001600160a01b0395909516602094909401939093525091949350505050565b604080519081016001600160401b038111828210171561518f5761518f615037565b60405290565b60405161014081016001600160401b038111828210171561518f5761518f615037565b604051601f8201601f191681016001600160401b03811182821017156151e0576151e0615037565b604052919050565b600060208083850312156151fb57600080fd5b82516001600160401b038082111561521257600080fd5b818501915085601f83011261522657600080fd5b81518181111561523857615238615037565b615246848260051b016151b8565b818152848101925060069190911b83018401908782111561526657600080fd5b928401925b818410156152b357604084890312156152845760008081fd5b61528c61516d565b845181528585015161529d81614bc8565b818701528352604093909301929184019161526b565b979650505050505050565b634e487b7160e01b600052602160045260246000fd5b600281106152f257634e487b7160e01b600052602160045260246000fd5b9052565b60208101610c7582846152d4565b60006020828403121561531657600080fd5b5051919050565b81810381811115610c7557610c756150dd565b80820180821115610c7557610c756150dd565b6040810161535182856152d4565b8260208301529392505050565b81810360008312801583831316838312821617156112e1576112e16150dd565b80820260008212600160ff1b8414161561539a5761539a6150dd565b8181058314821517610c7557610c756150dd565b6000826153bd576153bd6150c7565b600160ff1b8214600019841416156153d7576153d76150dd565b500590565b8082028115828204841417610c7557610c756150dd565b60006060828403121561540557600080fd5b604051606081016001600160401b038111828210171561542757615427615037565b80604052508235815260208301356020820152604083013560408201528091505092915050565b6001600160a01b03929092168252602082015260400190565b60008060006060848603121561547c57600080fd5b8351925060208401519150604084015190509250925092565b6000606082018583526020858185015260606040850152818551808452608086019150828701935060005b818110156154dc578451835293830193918301916001016154c0565b509098975050505050505050565b6000604082840312156154fc57600080fd5b61550461516d565b82358152602083013560208201528091505092915050565b80820182811260008312801582168215821617156118bb576118bb6150dd565b6000806040838503121561554f57600080fd5b82519150602083015161556181614ece565b809150509250929050565b6000610140828403121561557f57600080fd5b615587615195565b825181526020830151602082015260408301516040820152606083015160608201526080830151608082015260a083015160a082015260c083015160c082015260e083015160e08201526101008084015181830152506101208084015181830152508091505092915050565b6000600160ff1b8201615608576156086150dd565b506000039056fe8a40cc6c1de0d2acc080517ef56442920fcc444a644ed4d6d60432521dd20eb28be0079c531659141344cd1fd0a4f28419497f9722a3daafe3b4186f6b6457e0a2646970667358221220d887656bf9ab7e58ba4742a149227313e89c66f5d22334dc79d9c400908097c564736f6c63430008130033","linkReferences":{}},"methodIdentifiers":{"addLiquidity(address,(uint256,uint256,uint256)[])":"efdb9423","cancelOwnershipHandover()":"54d1f13d","clearingHouse()":"0af96800","completeOwnershipHandover(address)":"f04e283e","getAMMFee()":"2e8501a4","getActiveIndex()":"4e174762","getActivePool()":"695d3365","getBaseFeeRatio()":"13d0143d","getBaseToFill(uint256)":"5c220aa1","getBaseValue(uint8,uint256)":"009a7ade","getFeeRatios()":"1d32afa5","getFluctuationLimitRatio()":"cc85f5f2","getFullMakerImpermanentPosition(address)":"67c9c1dd","getFundingPeriod()":"b5e2b047","getFundingRate()":"95196f7e","getIndexPrice()":"58c0994a","getLastSettledFundingTime()":"2802e6db","getLiquidationFeeRatio()":"05307703","getLiquidationPrice()":"46558d1b","getMakerImpermanentPosition(address,uint256[])":"0becc41d","getMakerPools(address)":"e66badc0","getMakerPositionData(address)":"a9c55bc3","getMakerProfile(address)":"3f9c680d","getMarginRatio()":"4f3c1542","getMarkPrice()":"60409632","getMarkPriceAfterClose(uint8,uint256)":"f36bdbc9","getMarkPriceAfterOpen(uint8,uint256)":"4d85468b","getMarkTwap(uint256)":"c355d1ac","getMaxSize()":"63e1d57c","getNextFundingTime()":"b626382d","getOpenInterestCap()":"162ca710","getOpenMarginRatio()":"bce2020d","getPendingMakerFees(address)":"435e13bf","getPendingMakerFundingPayment(address)":"c7c2b7bf","getPool(uint256)":"068bcd8d","getPoolsInRange()":"7c74ec89","getPriceWeights()":"3ee112c0","getQuoteToFill(uint256)":"d3c7f026","getQuoteValue(uint8,uint256)":"3911138f","getReserves()":"0902f1ac","getTickSpacing()":"7db3fd69","getTwapInterval()":"3e742e3b","initialize((address,uint256,uint256,uint256,uint256,uint256,uint256,uint256,uint256,uint256,uint256,uint256,uint256,uint256,uint256))":"622595b1","isActive()":"22f3e2d4","isMakerLiquidatable(address)":"e6877a1b","liquidateMaker(address)":"1bde66e7","owner()":"8da5cb5b","ownershipHandoverExpiresAt(address)":"fee81cf4","poolFactory()":"4219dc40","priceFeed()":"741bef1a","removeLiquidity(address,(uint256,uint256)[])":"f39508f8","renounceOwnership()":"715018a6","requestOwnershipHandover()":"25692962","setAMMFeeRatio(uint256)":"d152a859","setActive(bool)":"acec338a","setBaseFeeRatio(uint256)":"80295a74","setFluctuationLimitRatio(uint256)":"411efe25","setFundingPeriod(uint256)":"2a5aa292","setIndexPriceWeight(uint256)":"e25f4f92","setInitMarginRatio(uint256)":"fbede224","setKeeperFeeRatio(uint256)":"32a9569a","setLimitMakerFeeRatio(uint256)":"e2559a83","setLiquidationFeeRatio(uint256)":"a9ec1416","setMaintenanceMarginRatio(uint256)":"08e9ef43","setMaxSize(uint256)":"816e117c","setOpenInterestCap(uint256)":"245d5d51","setPoolLogicContract(address)":"9219326e","setPools((uint256,uint256,uint256)[],uint256)":"4433e5ca","setTickSpacing(uint256)":"0693ca3b","setTwapInterval(uint256)":"5ea679ef","settleFunding()":"ed83d79c","swapClose(uint8,uint256)":"65f66425","swapOpen(uint8,uint256)":"ec821203","transferOwnership(address)":"f2fde38b"},"id":44}