{"abi":[{"type":"constructor","inputs":[{"name":"_priceFeed","type":"address","internalType":"address"},{"name":"_clearingHouse","type":"address","internalType":"address"},{"name":"_poolFactory","type":"address","internalType":"address"}],"stateMutability":"nonpayable"},{"type":"function","name":"addLiquidity","inputs":[{"name":"maker","type":"address","internalType":"address"},{"name":"liquidityAddData","type":"tuple[]","internalType":"struct LiquidityAddData[]","components":[{"name":"index","type":"uint256","internalType":"uint256"},{"name":"margin","type":"uint256","internalType":"uint256"},{"name":"leverage","type":"uint256","internalType":"uint256"}]}],"outputs":[{"name":"returnData","type":"tuple[]","internalType":"struct LiquidityAddReturnData[]","components":[{"name":"pool","type":"address","internalType":"contract IPool"},{"name":"shares","type":"uint256","internalType":"uint256"},{"name":"quote","type":"uint256","internalType":"uint256"},{"name":"base","type":"uint256","internalType":"uint256"}]},{"name":"marginAdded","type":"uint256","internalType":"uint256"}],"stateMutability":"nonpayable"},{"type":"function","name":"cancelOwnershipHandover","inputs":[],"outputs":[],"stateMutability":"payable"},{"type":"function","name":"clearingHouse","inputs":[],"outputs":[{"name":"","type":"address","internalType":"address"}],"stateMutability":"view"},{"type":"function","name":"completeOwnershipHandover","inputs":[{"name":"pendingOwner","type":"address","internalType":"address"}],"outputs":[],"stateMutability":"payable"},{"type":"function","name":"getAMMFee","inputs":[],"outputs":[{"name":"","type":"uint256","internalType":"uint256"}],"stateMutability":"view"},{"type":"function","name":"getActiveIndex","inputs":[],"outputs":[{"name":"","type":"uint256","internalType":"uint256"}],"stateMutability":"view"},{"type":"function","name":"getActivePool","inputs":[],"outputs":[{"name":"","type":"address","internalType":"contract IPool"}],"stateMutability":"view"},{"type":"function","name":"getBaseFeeRatio","inputs":[],"outputs":[{"name":"","type":"uint256","internalType":"uint256"}],"stateMutability":"view"},{"type":"function","name":"getBaseToFill","inputs":[{"name":"targetPrice","type":"uint256","internalType":"uint256"}],"outputs":[{"name":"","type":"uint256","internalType":"uint256"}],"stateMutability":"view"},{"type":"function","name":"getBaseValue","inputs":[{"name":"dirOfQuote","type":"uint8","internalType":"enum Dir"},{"name":"quoteAmount","type":"uint256","internalType":"uint256"}],"outputs":[{"name":"","type":"uint256","internalType":"uint256"}],"stateMutability":"view"},{"type":"function","name":"getFeeRatios","inputs":[],"outputs":[{"name":"","type":"tuple","internalType":"struct FeeRatios","components":[{"name":"baseFeeRatio","type":"uint256","internalType":"uint256"},{"name":"ammFeeRatio","type":"uint256","internalType":"uint256"},{"name":"limitMakerFeeRatio","type":"uint256","internalType":"uint256"},{"name":"keeperFeeRatio","type":"uint256","internalType":"uint256"},{"name":"liquidationFeeRatio","type":"uint256","internalType":"uint256"}]}],"stateMutability":"view"},{"type":"function","name":"getFluctuationLimitRatio","inputs":[],"outputs":[{"name":"","type":"uint256","internalType":"uint256"}],"stateMutability":"view"},{"type":"function","name":"getFullMakerImpermanentPosition","inputs":[{"name":"maker","type":"address","internalType":"address"}],"outputs":[{"name":"size","type":"int256","internalType":"int256"},{"name":"openNotional","type":"uint256","internalType":"uint256"}],"stateMutability":"view"},{"type":"function","name":"getFundingPeriod","inputs":[],"outputs":[{"name":"","type":"uint256","internalType":"uint256"}],"stateMutability":"view"},{"type":"function","name":"getFundingRate","inputs":[],"outputs":[{"name":"","type":"int256","internalType":"int256"}],"stateMutability":"view"},{"type":"function","name":"getIndexPrice","inputs":[],"outputs":[{"name":"","type":"uint256","internalType":"uint256"}],"stateMutability":"view"},{"type":"function","name":"getLastSettledFundingTime","inputs":[],"outputs":[{"name":"","type":"uint256","internalType":"uint256"}],"stateMutability":"view"},{"type":"function","name":"getLiquidationFeeRatio","inputs":[],"outputs":[{"name":"","type":"uint256","internalType":"uint256"}],"stateMutability":"view"},{"type":"function","name":"getLiquidationPrice","inputs":[],"outputs":[{"name":"","type":"uint256","internalType":"uint256"}],"stateMutability":"view"},{"type":"function","name":"getMakerImpermanentPosition","inputs":[{"name":"maker","type":"address","internalType":"address"},{"name":"poolIndexes","type":"uint256[]","internalType":"uint256[]"}],"outputs":[{"name":"size","type":"int256","internalType":"int256"},{"name":"openNotional","type":"uint256","internalType":"uint256"}],"stateMutability":"view"},{"type":"function","name":"getMakerPools","inputs":[{"name":"maker","type":"address","internalType":"address"}],"outputs":[{"name":"","type":"address[]","internalType":"contract IPool[]"}],"stateMutability":"view"},{"type":"function","name":"getMakerPositionData","inputs":[{"name":"maker","type":"address","internalType":"address"}],"outputs":[{"name":"size","type":"int256","internalType":"int256"},{"name":"openNotional","type":"uint256","internalType":"uint256"},{"name":"margin","type":"uint256","internalType":"uint256"},{"name":"pendingFees","type":"uint256","internalType":"uint256"},{"name":"pendingFundingPayment","type":"int256","internalType":"int256"},{"name":"poolInfo","type":"tuple[]","internalType":"struct PoolPosition[]","components":[{"name":"pool","type":"address","internalType":"contract IPool"},{"name":"shares","type":"uint256","internalType":"uint256"},{"name":"quote","type":"uint256","internalType":"uint256"},{"name":"base","type":"uint256","internalType":"uint256"}]}],"stateMutability":"view"},{"type":"function","name":"getMakerProfile","inputs":[{"name":"maker","type":"address","internalType":"address"}],"outputs":[{"name":"","type":"tuple","internalType":"struct MakerProfile","components":[{"name":"margin","type":"uint256","internalType":"uint256"},{"name":"pools","type":"address[]","internalType":"contract IPool[]"}]}],"stateMutability":"view"},{"type":"function","name":"getMarginRatio","inputs":[],"outputs":[{"name":"","type":"uint256","internalType":"uint256"}],"stateMutability":"view"},{"type":"function","name":"getMarkPrice","inputs":[],"outputs":[{"name":"","type":"uint256","internalType":"uint256"}],"stateMutability":"view"},{"type":"function","name":"getMarkPriceAfterClose","inputs":[{"name":"dirOfBase","type":"uint8","internalType":"enum Dir"},{"name":"baseAmount","type":"uint256","internalType":"uint256"}],"outputs":[{"name":"markPriceAfter","type":"uint256","internalType":"uint256"}],"stateMutability":"view"},{"type":"function","name":"getMarkPriceAfterOpen","inputs":[{"name":"dirOfQuote","type":"uint8","internalType":"enum Dir"},{"name":"quoteAmount","type":"uint256","internalType":"uint256"}],"outputs":[{"name":"markPriceAfter","type":"uint256","internalType":"uint256"}],"stateMutability":"view"},{"type":"function","name":"getMarkTwap","inputs":[{"name":"interval","type":"uint256","internalType":"uint256"}],"outputs":[{"name":"","type":"uint256","internalType":"uint256"}],"stateMutability":"view"},{"type":"function","name":"getMaxSize","inputs":[],"outputs":[{"name":"","type":"uint256","internalType":"uint256"}],"stateMutability":"view"},{"type":"function","name":"getNextFundingTime","inputs":[],"outputs":[{"name":"","type":"uint256","internalType":"uint256"}],"stateMutability":"view"},{"type":"function","name":"getOpenInterestCap","inputs":[],"outputs":[{"name":"","type":"uint256","internalType":"uint256"}],"stateMutability":"view"},{"type":"function","name":"getOpenMarginRatio","inputs":[],"outputs":[{"name":"","type":"uint256","internalType":"uint256"}],"stateMutability":"view"},{"type":"function","name":"getPendingMakerFees","inputs":[{"name":"maker","type":"address","internalType":"address"}],"outputs":[{"name":"totalFees","type":"uint256","internalType":"uint256"}],"stateMutability":"view"},{"type":"function","name":"getPendingMakerFundingPayment","inputs":[{"name":"maker","type":"address","internalType":"address"}],"outputs":[{"name":"fundingPayment","type":"int256","internalType":"int256"}],"stateMutability":"view"},{"type":"function","name":"getPool","inputs":[{"name":"_index","type":"uint256","internalType":"uint256"}],"outputs":[{"name":"","type":"address","internalType":"contract IPool"}],"stateMutability":"view"},{"type":"function","name":"getPoolsInRange","inputs":[],"outputs":[{"name":"","type":"address[]","internalType":"contract IPool[]"}],"stateMutability":"view"},{"type":"function","name":"getPriceWeights","inputs":[],"outputs":[{"name":"markWeight","type":"uint256","internalType":"uint256"},{"name":"indexWeight","type":"uint256","internalType":"uint256"}],"stateMutability":"view"},{"type":"function","name":"getQuoteToFill","inputs":[{"name":"targetPrice","type":"uint256","internalType":"uint256"}],"outputs":[{"name":"","type":"uint256","internalType":"uint256"}],"stateMutability":"view"},{"type":"function","name":"getQuoteValue","inputs":[{"name":"dirOfBase","type":"uint8","internalType":"enum Dir"},{"name":"baseAmount","type":"uint256","internalType":"uint256"}],"outputs":[{"name":"","type":"uint256","internalType":"uint256"}],"stateMutability":"view"},{"type":"function","name":"getReserves","inputs":[],"outputs":[{"name":"quoteReserve","type":"uint256","internalType":"uint256"},{"name":"baseReserve","type":"uint256","internalType":"uint256"}],"stateMutability":"view"},{"type":"function","name":"getTickSpacing","inputs":[],"outputs":[{"name":"","type":"uint256","internalType":"uint256"}],"stateMutability":"view"},{"type":"function","name":"getTwapInterval","inputs":[],"outputs":[{"name":"","type":"uint256","internalType":"uint256"}],"stateMutability":"view"},{"type":"function","name":"initialize","inputs":[{"name":"params","type":"tuple","internalType":"struct AMMParams","components":[{"name":"owner","type":"address","internalType":"address"},{"name":"fundingPeriod","type":"uint256","internalType":"uint256"},{"name":"fluctuationLimitRatio","type":"uint256","internalType":"uint256"},{"name":"openMarginRatio","type":"uint256","internalType":"uint256"},{"name":"maintenanceMarginRatio","type":"uint256","internalType":"uint256"},{"name":"maxSizeCap","type":"uint256","internalType":"uint256"},{"name":"openInterestCap","type":"uint256","internalType":"uint256"},{"name":"indexPriceWeight","type":"uint256","internalType":"uint256"},{"name":"twapInterval","type":"uint256","internalType":"uint256"},{"name":"baseFeeRatio","type":"uint256","internalType":"uint256"},{"name":"ammFeeRatio","type":"uint256","internalType":"uint256"},{"name":"limitMakerFeeRatio","type":"uint256","internalType":"uint256"},{"name":"keeperFeeRatio","type":"uint256","internalType":"uint256"},{"name":"liquidatorFeeRatio","type":"uint256","internalType":"uint256"}]}],"outputs":[],"stateMutability":"nonpayable"},{"type":"function","name":"isActive","inputs":[],"outputs":[{"name":"","type":"bool","internalType":"bool"}],"stateMutability":"view"},{"type":"function","name":"isMakerLiquidatable","inputs":[{"name":"maker","type":"address","internalType":"address"}],"outputs":[{"name":"","type":"bool","internalType":"bool"}],"stateMutability":"view"},{"type":"function","name":"liquidateMaker","inputs":[{"name":"maker","type":"address","internalType":"address"}],"outputs":[{"name":"size","type":"int256","internalType":"int256"},{"name":"openNotional","type":"uint256","internalType":"uint256"},{"name":"margin","type":"int256","internalType":"int256"}],"stateMutability":"nonpayable"},{"type":"function","name":"owner","inputs":[],"outputs":[{"name":"result","type":"address","internalType":"address"}],"stateMutability":"view"},{"type":"function","name":"ownershipHandoverExpiresAt","inputs":[{"name":"pendingOwner","type":"address","internalType":"address"}],"outputs":[{"name":"result","type":"uint256","internalType":"uint256"}],"stateMutability":"view"},{"type":"function","name":"poolFactory","inputs":[],"outputs":[{"name":"","type":"address","internalType":"contract IPoolFactory"}],"stateMutability":"view"},{"type":"function","name":"priceFeed","inputs":[],"outputs":[{"name":"","type":"address","internalType":"contract IPriceFeed"}],"stateMutability":"view"},{"type":"function","name":"removeLiquidity","inputs":[{"name":"maker","type":"address","internalType":"address"},{"name":"liquidityRemoveData","type":"tuple[]","internalType":"struct LiquidityRemoveData[]","components":[{"name":"index","type":"uint256","internalType":"uint256"},{"name":"shares","type":"uint256","internalType":"uint256"}]}],"outputs":[{"name":"size","type":"int256","internalType":"int256"},{"name":"openNotional","type":"uint256","internalType":"uint256"},{"name":"marginRemoved","type":"uint256","internalType":"uint256"}],"stateMutability":"nonpayable"},{"type":"function","name":"renounceOwnership","inputs":[],"outputs":[],"stateMutability":"payable"},{"type":"function","name":"requestOwnershipHandover","inputs":[],"outputs":[],"stateMutability":"payable"},{"type":"function","name":"setAMMFeeRatio","inputs":[{"name":"_ammFeeRatio","type":"uint256","internalType":"uint256"}],"outputs":[],"stateMutability":"nonpayable"},{"type":"function","name":"setActive","inputs":[{"name":"_active","type":"bool","internalType":"bool"}],"outputs":[],"stateMutability":"nonpayable"},{"type":"function","name":"setActivePool","inputs":[{"name":"id","type":"uint256","internalType":"uint256"}],"outputs":[],"stateMutability":"nonpayable"},{"type":"function","name":"setBaseFeeRatio","inputs":[{"name":"_baseFeeRatio","type":"uint256","internalType":"uint256"}],"outputs":[],"stateMutability":"nonpayable"},{"type":"function","name":"setFluctuationLimitRatio","inputs":[{"name":"_fluctuationLimitRatio","type":"uint256","internalType":"uint256"}],"outputs":[],"stateMutability":"nonpayable"},{"type":"function","name":"setFundingPeriod","inputs":[{"name":"_fundingPeriod","type":"uint256","internalType":"uint256"}],"outputs":[],"stateMutability":"nonpayable"},{"type":"function","name":"setIndexPriceWeight","inputs":[{"name":"_indexPriceWeight","type":"uint256","internalType":"uint256"}],"outputs":[],"stateMutability":"nonpayable"},{"type":"function","name":"setInitMarginRatio","inputs":[{"name":"_initMarginRatio","type":"uint256","internalType":"uint256"}],"outputs":[],"stateMutability":"nonpayable"},{"type":"function","name":"setKeeperFeeRatio","inputs":[{"name":"_keeperFeeRatio","type":"uint256","internalType":"uint256"}],"outputs":[],"stateMutability":"nonpayable"},{"type":"function","name":"setLimitMakerFeeRatio","inputs":[{"name":"_limitMakerFeeRatio","type":"uint256","internalType":"uint256"}],"outputs":[],"stateMutability":"nonpayable"},{"type":"function","name":"setLiquidationFeeRatio","inputs":[{"name":"_liquidationFeeRatio","type":"uint256","internalType":"uint256"}],"outputs":[],"stateMutability":"nonpayable"},{"type":"function","name":"setMaintenanceMarginRatio","inputs":[{"name":"_maintenanceMarginRatio","type":"uint256","internalType":"uint256"}],"outputs":[],"stateMutability":"nonpayable"},{"type":"function","name":"setMaxSize","inputs":[{"name":"_maxSize","type":"uint256","internalType":"uint256"}],"outputs":[],"stateMutability":"nonpayable"},{"type":"function","name":"setOpenInterestCap","inputs":[{"name":"_openInterestNotionalCap","type":"uint256","internalType":"uint256"}],"outputs":[],"stateMutability":"nonpayable"},{"type":"function","name":"setPoolLogicContract","inputs":[{"name":"_poolLogic","type":"address","internalType":"address"}],"outputs":[],"stateMutability":"nonpayable"},{"type":"function","name":"setPools","inputs":[{"name":"poolsToSet","type":"tuple[]","internalType":"struct PoolParams[]","components":[{"name":"id","type":"uint256","internalType":"uint256"},{"name":"upperBound","type":"uint256","internalType":"uint256"},{"name":"lowerBound","type":"uint256","internalType":"uint256"}]},{"name":"activeID","type":"uint256","internalType":"uint256"}],"outputs":[{"name":"poolsCreated","type":"tuple[]","internalType":"struct Pool[]","components":[{"name":"id","type":"uint256","internalType":"uint256"},{"name":"pool","type":"address","internalType":"contract IPool"}]}],"stateMutability":"nonpayable"},{"type":"function","name":"setTickSpacing","inputs":[{"name":"spacing","type":"uint256","internalType":"uint256"}],"outputs":[],"stateMutability":"nonpayable"},{"type":"function","name":"setTwapInterval","inputs":[{"name":"_twapInterval","type":"uint256","internalType":"uint256"}],"outputs":[],"stateMutability":"nonpayable"},{"type":"function","name":"settleFunding","inputs":[],"outputs":[{"name":"premiumFraction","type":"int256","internalType":"int256"},{"name":"mark","type":"uint256","internalType":"uint256"},{"name":"indexPrice","type":"uint256","internalType":"uint256"}],"stateMutability":"nonpayable"},{"type":"function","name":"swapClose","inputs":[{"name":"dirOfBase","type":"uint8","internalType":"enum Dir"},{"name":"baseAmount","type":"uint256","internalType":"uint256"}],"outputs":[{"name":"quoteAmount","type":"uint256","internalType":"uint256"}],"stateMutability":"nonpayable"},{"type":"function","name":"swapOpen","inputs":[{"name":"dirOfQuote","type":"uint8","internalType":"enum Dir"},{"name":"quoteAmount","type":"uint256","internalType":"uint256"}],"outputs":[{"name":"baseAmount","type":"uint256","internalType":"uint256"}],"stateMutability":"nonpayable"},{"type":"function","name":"transferOwnership","inputs":[{"name":"newOwner","type":"address","internalType":"address"}],"outputs":[],"stateMutability":"payable"},{"type":"event","name":"AMMFeeRatioChanged","inputs":[{"name":"newAMMFeeRatio","type":"uint256","indexed":false,"internalType":"uint256"}],"anonymous":false},{"type":"event","name":"Activated","inputs":[],"anonymous":false},{"type":"event","name":"ActivePoolChanged","inputs":[{"name":"newPool","type":"address","indexed":true,"internalType":"contract IPool"},{"name":"newIndex","type":"uint256","indexed":true,"internalType":"uint256"}],"anonymous":false},{"type":"event","name":"BaseFeeRatioChanged","inputs":[{"name":"newFeeRatio","type":"uint256","indexed":false,"internalType":"uint256"}],"anonymous":false},{"type":"event","name":"CapChanged","inputs":[{"name":"maxSize","type":"uint256","indexed":false,"internalType":"uint256"},{"name":"openInterestNotionalCap","type":"uint256","indexed":false,"internalType":"uint256"}],"anonymous":false},{"type":"event","name":"Deactivated","inputs":[],"anonymous":false},{"type":"event","name":"FluctuationLimitRatioChanged","inputs":[{"name":"ratio","type":"uint256","indexed":false,"internalType":"uint256"}],"anonymous":false},{"type":"event","name":"FundingPeriodChanged","inputs":[{"name":"fundingPeriod","type":"uint256","indexed":false,"internalType":"uint256"}],"anonymous":false},{"type":"event","name":"FundingRateUpdated","inputs":[{"name":"fundingRate","type":"int256","indexed":false,"internalType":"int256"},{"name":"price","type":"uint256","indexed":false,"internalType":"uint256"}],"anonymous":false},{"type":"event","name":"InitMarginRatioChanged","inputs":[{"name":"ratio","type":"uint256","indexed":false,"internalType":"uint256"}],"anonymous":false},{"type":"event","name":"Initialized","inputs":[{"name":"version","type":"uint8","indexed":false,"internalType":"uint8"}],"anonymous":false},{"type":"event","name":"KeeperFeeRatioChanged","inputs":[{"name":"newKeeperFeeRatio","type":"uint256","indexed":false,"internalType":"uint256"}],"anonymous":false},{"type":"event","name":"LimitMakerFeeRatioChanged","inputs":[{"name":"newLiquidatorFeeRatio","type":"uint256","indexed":false,"internalType":"uint256"}],"anonymous":false},{"type":"event","name":"LiquidationFeeRatioChanged","inputs":[{"name":"ratio","type":"uint256","indexed":false,"internalType":"uint256"}],"anonymous":false},{"type":"event","name":"LiquidityAdded","inputs":[{"name":"maker","type":"address","indexed":true,"internalType":"address"},{"name":"addedMargin","type":"uint256","indexed":false,"internalType":"uint256"},{"name":"addedNotional","type":"uint256","indexed":false,"internalType":"uint256"},{"name":"poolsIds","type":"uint256[]","indexed":false,"internalType":"uint256[]"}],"anonymous":false},{"type":"event","name":"LiquidityRemoved","inputs":[{"name":"maker","type":"address","indexed":true,"internalType":"address"},{"name":"removedMargin","type":"uint256","indexed":false,"internalType":"uint256"},{"name":"removedNotional","type":"uint256","indexed":false,"internalType":"uint256"},{"name":"poolIds","type":"uint256[]","indexed":false,"internalType":"uint256[]"}],"anonymous":false},{"type":"event","name":"MaintenanceMarginRatioChanged","inputs":[{"name":"ratio","type":"uint256","indexed":false,"internalType":"uint256"}],"anonymous":false},{"type":"event","name":"MaxSizeSet","inputs":[{"name":"maxSize","type":"uint256","indexed":false,"internalType":"uint256"}],"anonymous":false},{"type":"event","name":"NewPool","inputs":[{"name":"pool","type":"address","indexed":true,"internalType":"contract IPool"},{"name":"id","type":"uint256","indexed":true,"internalType":"uint256"}],"anonymous":false},{"type":"event","name":"NewPriceSnapshot","inputs":[{"name":"markPrice","type":"uint256","indexed":false,"internalType":"uint256"},{"name":"timestamp","type":"uint256","indexed":false,"internalType":"uint256"}],"anonymous":false},{"type":"event","name":"OpenInterestCapSet","inputs":[{"name":"openInterestCap","type":"uint256","indexed":false,"internalType":"uint256"}],"anonymous":false},{"type":"event","name":"OwnershipHandoverCanceled","inputs":[{"name":"pendingOwner","type":"address","indexed":true,"internalType":"address"}],"anonymous":false},{"type":"event","name":"OwnershipHandoverRequested","inputs":[{"name":"pendingOwner","type":"address","indexed":true,"internalType":"address"}],"anonymous":false},{"type":"event","name":"OwnershipTransferred","inputs":[{"name":"oldOwner","type":"address","indexed":true,"internalType":"address"},{"name":"newOwner","type":"address","indexed":true,"internalType":"address"}],"anonymous":false},{"type":"event","name":"PoolLogicContractChanged","inputs":[{"name":"newPoolLogic","type":"address","indexed":false,"internalType":"address"}],"anonymous":false},{"type":"event","name":"PriceWeightsChanged","inputs":[{"name":"markPriceWeight","type":"uint256","indexed":false,"internalType":"uint256"},{"name":"indexPriceWeight","type":"uint256","indexed":false,"internalType":"uint256"}],"anonymous":false},{"type":"event","name":"TickSpacingChanged","inputs":[{"name":"tickSpacing","type":"uint256","indexed":false,"internalType":"uint256"}],"anonymous":false},{"type":"event","name":"TwapIntervalChanged","inputs":[{"name":"twapInterval","type":"uint256","indexed":false,"internalType":"uint256"}],"anonymous":false},{"type":"error","name":"AlreadyInitialized","inputs":[]},{"type":"error","name":"BAD_DEBT","inputs":[]},{"type":"error","name":"FUNDING_INTERVAL_NOT_PASSED","inputs":[]},{"type":"error","name":"INACTIVE","inputs":[]},{"type":"error","name":"INSUFFICIENT_MARGIN","inputs":[]},{"type":"error","name":"INVALID_FUNDING_PERIOD","inputs":[]},{"type":"error","name":"INVALID_POOL","inputs":[]},{"type":"error","name":"INVALID_RATIO","inputs":[]},{"type":"error","name":"INVALID_WEIGHT","inputs":[]},{"type":"error","name":"LEVERAGE_TOO_HIGH","inputs":[]},{"type":"error","name":"LIQUIDATABLE","inputs":[]},{"type":"error","name":"MAX_POOLS_EXCEEDED","inputs":[]},{"type":"error","name":"NOT_ACTIVE_POOL","inputs":[]},{"type":"error","name":"NOT_CLEARING_HOUSE","inputs":[]},{"type":"error","name":"NOT_LIQUIDATABLE","inputs":[]},{"type":"error","name":"NOT_LP","inputs":[]},{"type":"error","name":"NOT_POSITION_MANAGER","inputs":[]},{"type":"error","name":"NO_POOL_IN_RANGE","inputs":[]},{"type":"error","name":"NewOwnerIsZeroAddress","inputs":[]},{"type":"error","name":"NoHandoverRequest","inputs":[]},{"type":"error","name":"POOL_ALREADY_SET","inputs":[]},{"type":"error","name":"PRICE_OVER_FLUCTUATION_LIMIT","inputs":[]},{"type":"error","name":"Unauthorized","inputs":[]}],"bytecode":{"object":"0x60e06040523480156200001157600080fd5b50604051620058a3380380620058a383398101604081905262000034916200013e565b6001600160a01b0380831660805280841660a052811660c0526200005762000060565b50505062000188565b600054610100900460ff1615620000cd5760405162461bcd60e51b815260206004820152602760248201527f496e697469616c697a61626c653a20636f6e747261637420697320696e697469604482015266616c697a696e6760c81b606482015260840160405180910390fd5b60005460ff908116146200011f576000805460ff191660ff9081179091556040519081527f7f26b83ff96e1f2b6a682f133852f6798a09c465da95921460cefb38474024989060200160405180910390a15b565b80516001600160a01b03811681146200013957600080fd5b919050565b6000806000606084860312156200015457600080fd5b6200015f8462000121565b92506200016f6020850162000121565b91506200017f6040850162000121565b90509250925092565b60805160a05160c0516156d6620001cd600039600081816106b801526112db01526000818161088501526135970152600081816104520152612fde01526156d66000f3fe60806040526004361061034b5760003560e01c80629a7ade146103505780630530770314610383578063068bcd8d146103985780630693ca3b146103db57806308e9ef43146103fd5780630902f1ac1461041d5780630af96800146104405780630becc41d1461047457806313d0143d14610494578063162ca710146104a95780631bde66e7146104be5780631d32afa5146104f957806322f3e2d414610550578063245d5d511461057a578063256929621461059a5780632802e6db146105a25780632a5aa292146105b75780632e8501a4146105d757806332a9569a146105ec5780633911138f1461060c5780633e742e3b1461062c5780633ee112c0146106415780633f9c680d14610659578063411efe25146106865780634219dc40146106a6578063435e13bf146106da5780634433e5ca146106fa57806346558d1b146107275780634d85468b1461073c5780634e1747621461075c5780634f3c15421461077157806354d1f13d1461078657806358c0994a1461078e5780635c220aa1146107a35780635ea679ef146107c357806360409632146107e357806363e1d57c146107f857806365f664251461080d57806367c9c1dd1461082d578063695d33651461084d578063715018a61461086b578063741bef1a146108735780637c74ec89146108a75780637db3fd69146108c957806380295a74146108de578063816e117c146108fe5780638da5cb5b1461091e57806390065f7d146109375780639219326e1461095757806395196f7e14610977578063a9c55bc31461098c578063a9ec1416146109be578063acec338a146109de578063b5e2b047146109fe578063b626382d14610a13578063bce2020d14610a28578063c355d1ac14610a3d578063c7c2b7bf14610a5d578063cc85f5f214610a7d578063d152a85914610a92578063d3c7f02614610ab2578063d77842e314610ad2578063e2559a8314610af2578063e25f4f9214610b12578063e66badc014610b32578063e6877a1b14610b52578063ec82120314610b72578063ed83d79c14610b92578063efdb942314610ba7578063f04e283e14610bd5578063f2fde38b14610be8578063f36bdbc914610bfb578063f39508f814610c1b578063fbede22414610c3b578063fee81cf414610c5b575b600080fd5b34801561035c57600080fd5b5061037061036b366004614bc7565b610c8e565b6040519081526020015b60405180910390f35b34801561038f57600080fd5b50600d54610370565b3480156103a457600080fd5b506103ce6103b3366004614bf7565b6000908152600660205260409020546001600160a01b031690565b60405161037a9190614c10565b3480156103e757600080fd5b506103fb6103f6366004614bf7565b610ca6565b005b34801561040957600080fd5b506103fb610418366004614bf7565b610cea565b34801561042957600080fd5b50610432610d30565b60405161037a929190614c24565b34801561044c57600080fd5b506103ce7f000000000000000000000000000000000000000000000000000000000000000081565b34801561048057600080fd5b5061043261048f366004614c47565b610da6565b3480156104a057600080fd5b50600954610370565b3480156104b557600080fd5b50601854610370565b3480156104ca57600080fd5b506104de6104d9366004614cce565b610e84565b6040805193845260208401929092529082015260600161037a565b34801561050557600080fd5b5061050e610fe9565b60405161037a9190600060a082019050825182526020830151602083015260408301516040830152606083015160608301526080830151608083015292915050565b34801561055c57600080fd5b5060005462010000900460ff165b604051901515815260200161037a565b34801561058657600080fd5b506103fb610595366004614bf7565b611051565b6103fb61108e565b3480156105ae57600080fd5b50601254610370565b3480156105c357600080fd5b506103fb6105d2366004614bf7565b6110dd565b3480156105e357600080fd5b5061037061114b565b3480156105f857600080fd5b506103fb610607366004614bf7565b611169565b34801561061857600080fd5b50610370610627366004614bc7565b6111af565b34801561063857600080fd5b50601c54610370565b34801561064d57600080fd5b50601954601a54610432565b34801561066557600080fd5b50610679610674366004614cce565b6111be565b60405161037a9190614ceb565b34801561069257600080fd5b506103fb6106a1366004614bf7565b61125f565b3480156106b257600080fd5b506103ce7f000000000000000000000000000000000000000000000000000000000000000081565b3480156106e657600080fd5b506103706106f5366004614cce565b6112a5565b34801561070657600080fd5b5061071a610715366004614d90565b6112b7565b60405161037a9190614ddb565b34801561073357600080fd5b506103706115a6565b34801561074857600080fd5b50610370610757366004614bc7565b6115b0565b34801561076857600080fd5b50600454610370565b34801561077d57600080fd5b50601654610370565b6103fb611892565b34801561079a57600080fd5b506103706118ce565b3480156107af57600080fd5b506103706107be366004614bf7565b6118d8565b3480156107cf57600080fd5b506103fb6107de366004614bf7565b611909565b3480156107ef57600080fd5b50600354610370565b34801561080457600080fd5b50601754610370565b34801561081957600080fd5b50610370610828366004614bc7565b611946565b34801561083957600080fd5b50610432610848366004614cce565b61195a565b34801561085957600080fd5b506002546001600160a01b03166103ce565b6103fb61196f565b34801561087f57600080fd5b506103ce7f000000000000000000000000000000000000000000000000000000000000000081565b3480156108b357600080fd5b506108bc611983565b60405161037a9190614e33565b3480156108d557600080fd5b50601b54610370565b3480156108ea57600080fd5b506103fb6108f9366004614bf7565b6119e5565b34801561090a57600080fd5b506103fb610919366004614bf7565b611a2b565b34801561092a57600080fd5b50638b78c6d819546103ce565b34801561094357600080fd5b506103fb610952366004614e80565b611a68565b34801561096357600080fd5b506103fb610972366004614cce565b611cc6565b34801561098357600080fd5b50600e54610370565b34801561099857600080fd5b506109ac6109a7366004614cce565b611d19565b60405161037a96959493929190614ec5565b3480156109ca57600080fd5b506103fb6109d9366004614bf7565b611d68565b3480156109ea57600080fd5b506103fb6109f9366004614f46565b611dae565b348015610a0a57600080fd5b50600f54610370565b348015610a1f57600080fd5b50601054610370565b348015610a3457600080fd5b50601554610370565b348015610a4957600080fd5b50610370610a58366004614bf7565b611dc2565b348015610a6957600080fd5b50610370610a78366004614cce565b611dcd565b348015610a8957600080fd5b50601354610370565b348015610a9e57600080fd5b506103fb610aad366004614bf7565b611ddf565b348015610abe57600080fd5b50610370610acd366004614bf7565b611e25565b348015610ade57600080fd5b506103fb610aed366004614bf7565b611e4d565b348015610afe57600080fd5b506103fb610b0d366004614bf7565b611f73565b348015610b1e57600080fd5b506103fb610b2d366004614bf7565b611fb9565b348015610b3e57600080fd5b506108bc610b4d366004614cce565b612036565b348015610b5e57600080fd5b5061056a610b6d366004614cce565b6120af565b348015610b7e57600080fd5b50610370610b8d366004614bc7565b6120ba565b348015610b9e57600080fd5b506104de6120d6565b348015610bb357600080fd5b50610bc7610bc2366004614f63565b612209565b60405161037a929190614fb7565b6103fb610be3366004614cce565b612713565b6103fb610bf6366004614cce565b612750565b348015610c0757600080fd5b50610370610c16366004614bc7565b612777565b348015610c2757600080fd5b506104de610c36366004615009565b61297a565b348015610c4757600080fd5b506103fb610c56366004614bf7565b612d3f565b348015610c6757600080fd5b50610370610c76366004614cce565b63389a75e1600c908152600091909152602090205490565b6000610c9d8383600454612d85565b90505b92915050565b610cae612e84565b601b8190556040518181527fddf597735ce1589d62b031d58fd38367099e7e7e747ac10dfaf3063c99da91e8906020015b60405180910390a150565b610cf2612e84565b610cfb81612e9f565b60168190556040518181527fe75e3e311afafb466335ae8af3bf1d55443d8937fb5ada14583f4fca729c0fa890602001610cdf565b60025460408051630240bc6b60e21b8152815160009384936001600160a01b0390911692630902f1ac92600480830193928290030181865afa158015610d7a573d6000803e3d6000fd5b505050506040513d601f19601f82011682018060405250810190610d9e919061507d565b915091509091565b6000808281816001600160401b03811115610dc357610dc36150a1565b604051908082528060200260200182016040528015610dec578160200160208202803683370190505b50905060005b82811015610e6b5760066000888884818110610e1057610e106150b7565b90506020020135815260200190815260200160002060009054906101000a90046001600160a01b0316828281518110610e4b57610e4b6150b7565b6001600160a01b0390921660209283029190910190910152600101610df2565b50610e768782612ec8565b935093505050935093915050565b6000806000610e91612fd3565b610e9c84600161301c565b9050610ea7846131f3565b610ec457604051633da1f7d160e11b815260040160405180910390fd5b610ecd846132b8565b6001600160a01b0386166000908152600160208190526040822001549295509093505b81811015610fb3576001600160a01b038616600090815260016020819052604090912001805482908110610f2657610f266150b7565b60009182526020822001546040516301dc515160e31b81526001600160a01b0390911691630ee28a8891610f61918a916001906004016150cd565b6080604051808303816000875af1158015610f80573d6000803e3d6000fd5b505050506040513d601f19601f82011682018060405250810190610fa491906150f0565b50505050806001019050610ef0565b506001600160a01b038516600090815260016020819052604082208281559190610fdf90830182614acb565b5050509193909250565b61101b6040518060a0016040528060008152602001600081526020016000815260200160008152602001600081525090565b6040518060a001604052806009548152602001600a548152602001600b548152602001600c548152602001600d54815250905090565b611059612e84565b60188190556040518181527fa01ceb086b04ede9a7d3ad6c4efe0c630676ae666cc14103ed5bba1ad2cdee8690602001610cdf565b60006202a3006001600160401b03164201905063389a75e1600c5233600052806020600c2055337fdbf36a107da19e49527a7176a1babf963b4b0ff8cde35ee35d6cd8f1f9ac7e1d600080a250565b6110e5612e84565b610e1081101561110857604051630bf7c9bd60e21b815260040160405180910390fd5b600f81905561111860028261515d565b6011556040518181527f6ce6315004c92b2957244860cf57179c165f8c77755f841dcd1a7e315dc76afb90602001610cdf565b6000611164600a5460095461334390919063ffffffff16565b905090565b611171612e84565b61117a81612e9f565b600c8190556040518181527f8bfda404cbf4ce6e72ab164d5c72aaf4500bda00a57ab1f13d8b81c14edf8ccc90602001610cdf565b6000610c9d8383600454613358565b6040805180820190915260008152606060208201526001600160a01b03821660009081526001602081815260409283902083518085018552815481529281018054855181850281018501909652808652939491938584019383018282801561124f57602002820191906000526020600020905b81546001600160a01b03168152600190910190602001808311611231575b5050505050815250509050919050565b611267612e84565b61127081612e9f565b60138190556040518181527f878cd65339a771e627bc9856c713f02fec044bd7607db61e3858f8d56e4ea4f590602001610cdf565b60006112b082613442565b5092915050565b60606112c1612e84565b600854604051631ee4bdb160e11b81526001600160a01b037f0000000000000000000000000000000000000000000000000000000000000000811692633dc97b62926113169289928992911690600401615171565b6000604051808303816000875af1158015611335573d6000803e3d6000fd5b505050506040513d6000823e601f3d908101601f1916820160405261135d9190810190615252565b805160408051808201909152600080825260208201529192509060005b8281101561159c57838181518110611394576113946150b7565b6020908102919091018101518051600090815260069092526040909120549092506001600160a01b0316156113dc576040516353bdbfcd60e01b815260040160405180910390fd5b60208281018051845160009081526006909352604080842080546001600160a01b03199081166001600160a01b03948516179091558351600780546001810182559087527fa66cc928b5edb82af9bd49922954155ab7b0942694bea4ce44661d9a8736c68801805490921690841617905585519251905192939116917fbe4222bc407cb12031595fc55b46531e46308d31e4572c9c4360d8ae790e1a319190a3815185900361159457600354156114a657604051630fd1f58b60e11b815260040160405180910390fd5b60006114b061357d565b905060008084602001516001600160a01b0316633cc87a206040518163ffffffff1660e01b81526004016040805180830381865afa1580156114f6573d6000803e3d6000fd5b505050506040513d601f19601f8201168201806040525081019061151a919061507d565b915091508282108061152b57508281115b1561154957604051630fd1f58b60e11b815260040160405180910390fd5b6020850151600280546001600160a01b0319166001600160a01b0390921691821790556004899055600583905560405189919060008051602061566183398151915290600090a35050505b60010161137a565b5050509392505050565b600061116461360d565b600254604051630a66108b60e11b81526000916001600160a01b031690829082906314cc2116906115e5908890600401615360565b602060405180830381865afa158015611602573d6000803e3d6000fd5b505050506040513d601f19601f82011682018060405250810190611626919061536e565b9050808411156118125761163a8185615387565b9350600085600181111561165057611650615328565b156116695760016004546116649190615387565b611677565b60045461167790600161539a565b90505b841561180c576000818152600660205260409020546001600160a01b03169250826116e45760005b8660018111156116b4576116b4615328565b146116c45764174876e8006116d1565b676765c793fa10079d601b1b5b6001600160601b03169350505050610ca0565b604051630a66108b60e11b81526001600160a01b038416906314cc211690611710908990600401615360565b602060405180830381865afa15801561172d573d6000803e3d6000fd5b505050506040513d601f19601f82011682018060405250810190611751919061536e565b915081851115611793576117658286615387565b945085600181111561177957611779615328565b1561178857600019018061178d565b600101805b5061167a565b604051634d85468b60e01b81526001600160a01b03841690634d85468b906117c190899089906004016153ad565b602060405180830381865afa1580156117de573d6000803e3d6000fd5b505050506040513d601f19601f82011682018060405250810190611802919061536e565b9350505050610ca0565b5061188a565b604051634d85468b60e01b81526001600160a01b03831690634d85468b9061184090889088906004016153ad565b602060405180830381865afa15801561185d573d6000803e3d6000fd5b505050506040513d601f19601f82011682018060405250810190611881919061536e565b92505050610ca0565b505092915050565b63389a75e1600c523360005260006020600c2055337ffa7b8eab7da67f412cc9575ed43464468f9bfbae89d1675917346ca6d8fe3c92600080a2565b600061116461357d565b6003546000908083036118ee5750600092915050565b60045481841190611900858284613638565b95945050505050565b611911612e84565b601c8190556040518181527f0bd5e02c0d6277fdf7c7c72fae10042c4c832b26ea94623a04b79a50a35a217e90602001610cdf565b6000611950612fd3565b610c9d8383613709565b600080611966836132b8565b91509150915091565b611977612e84565b61198160006137cb565b565b606060078054806020026020016040519081016040528092919081815260200182805480156119db57602002820191906000526020600020905b81546001600160a01b031681526001909101906020018083116119bd575b5050505050905090565b6119ed612e84565b6119f681612e9f565b60098190556040518181527fd34babb0abb9a72918553cfe7b3612443c81b3ea59ba0f751d2bb7224d18d40790602001610cdf565b611a33612e84565b60178190556040518181527fdbc1569600d42962797699d7aa6f29f1b0727a18e277167b28b07ccf3460e43d90602001610cdf565b600054610100900460ff1615808015611a885750600054600160ff909116105b80611aa25750303b158015611aa2575060005460ff166001145b611b095760405162461bcd60e51b815260206004820152602e60248201527f496e697469616c697a61626c653a20636f6e747261637420697320616c72656160448201526d191e481a5b9a5d1a585b1a5e995960921b606482015260840160405180910390fd5b6000805460ff191660011790558015611b2c576000805461ff0019166101001790555b611b398260400135612e9f565b611b47826101200135612e9f565b611b55826101400135612e9f565b611b63826101600135612e9f565b611b71826101800135612e9f565b611b7f826101a00135612e9f565b611b8c8260600135612e9f565b611b998260800135612e9f565b670de0b6b3a76400008260e001351115611bc65760405163698f22ad60e01b815260040160405180910390fd5b60a082013560175560c082013560185560608201356015556080820135601655610100820135601c5560e0820135601a819055611c0b90670de0b6b3a7640000615387565b601955611c23611c1e6020840184614cce565b6137f7565b6040820135601355610120820135600955610140820135600a55610160820135600b55610180820135600c556101a0820135600d556020820135600f819055611c6e9060029061515d565b601155611c7b6001613821565b8015611cc2576000805461ff0019169055604051600181527f7f26b83ff96e1f2b6a682f133852f6798a09c465da95921460cefb3847402498906020015b60405180910390a15b5050565b611cce612e84565b600880546001600160a01b0319166001600160a01b0383161790556040517f75fb75ea8af26b29294e879e486c9d88828d41e43331a79de44fbc5b65bf31da90610cdf908390614c10565b6001600160a01b038116600090815260016020526040812054819081806060611d41876132b8565b9096509450611d4f87613442565b9093509150611d5d87613899565b905091939550919395565b611d70612e84565b611d7981612e9f565b600d8190556040518181527f6f825f18b787836f7cf974799b160538ab237aa0d14af3611fa69683a40c6d2290602001610cdf565b611db6612e84565b611dbf81613821565b50565b6000610ca082613b4f565b6000611dd882613442565b9392505050565b611de7612e84565b611df081612e9f565b600a8190556040518181527f2534b354f571d8b893b9b19bf8e789ecd1e4234bd2f4dd8bf69a1076215e082590602001610cdf565b600354600090808303611e3b5750600092915050565b60045481841190611900858284613b7a565b611e55612e84565b6000818152600660205260409020546001600160a01b031680611e8b5760405163015216d560e21b815260040160405180910390fd5b600080826001600160a01b0316633cc87a206040518163ffffffff1660e01b81526004016040805180830381865afa158015611ecb573d6000803e3d6000fd5b505050506040513d601f19601f82011682018060405250810190611eef919061507d565b915091506000611efd61357d565b905080831080611f0c57508082115b15611f2a57604051630fd1f58b60e11b815260040160405180910390fd5b600280546001600160a01b0319166001600160a01b0386169081179091556004869055600584905560405186919060008051602061566183398151915290600090a35050505050565b611f7b612e84565b611f8481612e9f565b600b8190556040518181527f84768b1f13e0bce8851491951ac15cf6a8449926307a23459606a32bc9b3658090602001610cdf565b611fc1612e84565b670de0b6b3a7640000811115611fea5760405163698f22ad60e01b815260040160405180910390fd5b611ffc81670de0b6b3a7640000615387565b6019819055601a8290556040517f434a02b5f14989182b72225c80f68bad6feb2e4943e210115c90140d88837cb991610cdf918490614c24565b6001600160a01b0381166000908152600160208181526040928390209091018054835181840281018401909452808452606093928301828280156120a357602002820191906000526020600020905b81546001600160a01b03168152600190910190602001808311612085575b50505050509050919050565b6000610ca082613c4b565b60006120c4613d31565b6120cc612fd3565b610c9d8383613d5a565b60008060006120e3612fd3565b601054600f544282111561210a576040516313a2f3df60e31b815260040160405180910390fd5b612115601c54613b4f565b935061211f61357d565b9250600061212c84613df5565b612137600354613df5565b61214191906153c8565b90506201518061215083613df5565b61215a90836153e8565b6121649190615418565b955061216f86613e0e565b60006011544261217f919061539a565b90506000610e10612190858761539a565b61219a919061515d565b6121a690610e10615446565b90508082108282180282186010556121be8887613f06565b600e55426012556040517fd2805fe76d30598332a67c1061cee82e2e102b0f59f5457b1729bce028a054a0906121f7908a908990614c24565b60405180910390a15050505050909192565b60606000612215613d31565b61221d612fd3565b61222885600061301c565b50826000816001600160401b03811115612244576122446150a1565b60405190808252806020026020018201604052801561226d578160200160208202803683370190505b5090506000826001600160401b0381111561228a5761228a6150a1565b6040519080825280602002602001820160405280156122b3578160200160208202803683370190505b509050826001600160401b038111156122ce576122ce6150a1565b60405190808252806020026020018201604052801561233357816020015b612320604051806080016040528060006001600160a01b031681526020016000815260200160008152602001600081525090565b8152602001906001900390816122ec5790505b50945060008061235d60405180606001604052806000815260200160008152602001600081525090565b60045460005b8781101561267d578b8b8281811061237d5761237d6150b7565b905060600201803603810190612393919061545d565b92506123b08360400151846020015161334390919063ffffffff16565b94506123bc858561539a565b93506123dd6123d8868560200151613f4c90919063ffffffff16565b613f61565b82600001518782815181106123f4576123f46150b7565b602090810291909101810191909152835160009081526006909152604090205486516001600160a01b0390911690879083908110612434576124346150b7565b60200260200101906001600160a01b031690816001600160a01b03168152505060006001600160a01b0316868281518110612471576124716150b7565b60200260200101516001600160a01b0316036124a05760405163015216d560e21b815260040160405180910390fd5b8581815181106124b2576124b26150b7565b60200260200101518a82815181106124cc576124cc6150b7565b60209081029190910101516001600160a01b03909116905285518690829081106124f8576124f86150b7565b60209081029190910101516040516256688760e81b81526001600160a01b038f8116600483015260248201889052909116906356688700906044016060604051808303816000875af1158015612552573d6000803e3d6000fd5b505050506040513d601f19601f8201168201806040525081019061257691906154b8565b8c8481518110612588576125886150b7565b60200260200101516020018d85815181106125a5576125a56150b7565b60200260200101516040018e86815181106125c2576125c26150b7565b602090810291909101015160600192909252919052528251829003612664576126648682815181106125f6576125f66150b7565b60200260200101516001600160a01b031663604096326040518163ffffffff1660e01b8152600401602060405180830381865afa15801561263b573d6000803e3d6000fd5b505050506040513d601f19601f8201168201806040525081019061265f919061536e565b613f84565b6020830151612673908a61539a565b9850600101612363565b506001600160a01b038c16600090815260016020526040812080548a92906126a690849061539a565b909155506126b690508c86613f9b565b6126bf8c61410f565b8b6001600160a01b03167fdfa5cc2f09b383ffee9ab6ff4a669710125418e275120c54359790d3ea9082228985896040516126fc939291906154e6565b60405180910390a250505050505050935093915050565b61271b612e84565b63389a75e1600c52806000526020600c20805442111561274357636f5e88186000526004601cfd5b60009055611dbf816137cb565b612758612e84565b8060601b61276e57637448fbae6000526004601cfd5b611dbf816137cb565b600254604051622f5bb160e31b81526000916001600160a01b0316908290829063017add88906127ab908890600401615360565b602060405180830381865afa1580156127c8573d6000803e3d6000fd5b505050506040513d601f19601f820116820180604052508101906127ec919061536e565b90508084111561294c576128008185615387565b9350600085600181111561281657612816615328565b60011461283157600160045461282c9190615387565b61283f565b60045461283f90600161539a565b90505b841561180c576000818152600660205260409020546001600160a01b031692508261286e5760016116a2565b604051622f5bb160e31b81526001600160a01b0384169063017add8890612899908990600401615360565b602060405180830381865afa1580156128b6573d6000803e3d6000fd5b505050506040513d601f19601f820116820180604052508101906128da919061536e565b91508185111561291e576128ee8286615387565b945085600181111561290257612902615328565b600114612913576000190180612918565b600101805b50612842565b60405163f36bdbc960e01b81526001600160a01b0384169063f36bdbc9906117c190899089906004016153ad565b60405163f36bdbc960e01b81526001600160a01b0383169063f36bdbc99061184090889088906004016153ad565b6000806000612987612fd3565b61299286600061301c565b508361299c614ae9565b6000826001600160401b038111156129b6576129b66150a1565b6040519080825280602002602001820160405280156129df578160200160208202803683370190505b5082526000836001600160401b038111156129fc576129fc6150a1565b604051908082528060200260200182016040528015612a25578160200160208202803683370190505b5090506000806000805b87811015612c6f578c8c82818110612a4957612a496150b7565b905060400201803603810190612a5f919061553b565b60408801819052518751805183908110612a7b57612a7b6150b7565b60209081029190910181019190915260408089015151600090815260069092529020546001600160a01b0316955085612ac75760405163015216d560e21b815260040160405180910390fd5b856001600160a01b0316630ee28a888f89604001516020015160006040518463ffffffff1660e01b8152600401612b00939291906150cd565b6080604051808303816000875af1158015612b1f573d6000803e3d6000fd5b505050506040513d601f19601f82011682018060405250810190612b4391906150f0565b6020808c015190810193909352929091526060890180519295509093508391612b6d90839061539a565b9052508215612bb05785858581518110612b8957612b896150b7565b60200260200101906001600160a01b031690816001600160a01b0316815250508360010193505b60045460408801515103612bff57612bff866001600160a01b031663604096326040518163ffffffff1660e01b8152600401602060405180830381865afa15801561263b573d6000803e3d6000fd5b60208701515160001215612c33578660200151602001518760200151604001818151612c2b919061539a565b905250612c55565b8660200151602001518760200151606001818151612c51919061539a565b9052505b602087015151612c65908c61556d565b9a50600101612a2f565b5082845260208601516060810151604090910151612c8c91614136565b9850612c988d8561415e565b612ca68d87606001516142e3565b6001600160a01b038e1660009081526001602052604081208054929a508a92909190612cd3908490615387565b90915550612ce290508d61410f565b8c6001600160a01b03167f6e09e53cffbbb604addf0b7427eb65ec8f197d7cee9ad6f4bf5b39cc2636f54e8988606001518960000151604051612d27939291906154e6565b60405180910390a25050505050505093509350939050565b612d47612e84565b612d5081612e9f565b60158190556040518181527fd67453718fc57aad470d91be51568530ed02cc941c846cd9e281dc56b300e95e90602001610cdf565b6000818152600660205260408120546001600160a01b031680612dbb576040516338b7fdfb60e01b815260040160405180910390fd5b600080826001600160a01b0316629a7ade88886040518363ffffffff1660e01b8152600401612deb9291906153ad565b6040805180830381865afa158015612e07573d6000803e3d6000fd5b505050506040513d601f19601f82011682018060405250810190612e2b919061507d565b9150915080600014612e7a57612e6e878260008a6001811115612e5057612e50615328565b14612e62576000199097019687612d85565b87600101975087612d85565b82019350505050611dd8565b5095945050505050565b638b78c6d819543314611981576382b429006000526004601cfd5b670de0b6b3a7640000811115611dbf576040516306a4309560e01b815260040160405180910390fd5b80516000908190808203612ee3576000809250925050612fcc565b60008060008060005b85811015612fb957888181518110612f0657612f066150b7565b60200260200101516001600160a01b03166375011b9c8b6040518263ffffffff1660e01b8152600401612f399190614c10565b6040805180830381865afa158015612f55573d6000803e3d6000fd5b505050506040513d601f19601f82011682018060405250810190612f79919061507d565b90955093506000851315612f9857612f91848461539a565b9250612fa5565b612fa2848361539a565b91505b612faf858961556d565b9750600101612eec565b50612fc48282614136565b955050505050505b9250929050565b336001600160a01b037f00000000000000000000000000000000000000000000000000000000000000001614611981576040516308abb64b60e21b815260040160405180910390fd5b6001600160a01b0382166000908152600160208181526040808420909201805483518184028101840190945280845284939283018282801561308757602002820191906000526020600020905b81546001600160a01b03168152600190910190602001808311613069575b5050505050905060008151905060008060008060005b85811015613151578681815181106130b7576130b76150b7565b60200260200101516001600160a01b0316637d053c5f8b6040518263ffffffff1660e01b81526004016130ea9190614c10565b60408051808303816000875af1158015613108573d6000803e3d6000fd5b505050506040513d601f19601f8201168201806040525081019061312c919061507d565b909550935061313b858461539a565b9250613147848361556d565b915060010161309d565b50600081613171846131628d61432e565b61316c919061539a565b613df5565b61317b91906153c8565b90508815613198578097506000811215613193575060005b6131ba565b60008112156131ba57604051632c7c1d6360e11b815260040160405180910390fd5b6131e68a60ff83901c600003808401186001600160a01b03909116600090815260016020526040902055565b5050505050505092915050565b6000806000613201846132b8565b9150915081600003613217575060009392505050565b600061323761322461360d565b60ff85901c600003808601185b90613343565b905060008084136132635761324b82613df5565b61325484613df5565b61325e91906153c8565b61327f565b61326c83613df5565b61327583613df5565b61327f91906153c8565b905061328c601654613df5565b6132ad838361329d61316c8b61432e565b6132a7919061556d565b90613f06565b129695505050505050565b6001600160a01b03811660009081526001602081815260408084209092018054835181840281018401909452808452849384939092919083018282801561332857602002820191906000526020600020905b81546001600160a01b0316815260019091019060200180831161330a575b505050505090506133398482612ec8565b9250925050915091565b6000610c9d8383670de0b6b3a7640000614349565b6000818152600660205260408120546001600160a01b03168061338e576040516338b7fdfb60e01b815260040160405180910390fd5b600080826001600160a01b0316633911138f88886040518363ffffffff1660e01b81526004016133bf9291906153ad565b6040805180830381865afa1580156133db573d6000803e3d6000fd5b505050506040513d601f19601f820116820180604052508101906133ff919061507d565b9150915080600014612e7a57612e6e878260018a600181111561342457613424615328565b14613436576000199097019687613358565b87600101975087613358565b6001600160a01b03811660009081526001602081815260408084209092018054835181840281018401909452808452849384938493849390918301828280156134b457602002820191906000526020600020905b81546001600160a01b03168152600190910190602001808311613496575b505083519394506000925050505b81811015613573578281815181106134dc576134dc6150b7565b60200260200101516001600160a01b0316634ae91523896040518263ffffffff1660e01b815260040161350f9190614c10565b6040805180830381865afa15801561352b573d6000803e3d6000fd5b505050506040513d601f19601f8201168201806040525081019061354f919061507d565b9550935061355d848861539a565b9650613569858761556d565b95506001016134c2565b5050505050915091565b6040516341976e0960e01b81526000906001600160a01b037f000000000000000000000000000000000000000000000000000000000000000016906341976e09906135cc903090600401614c10565b602060405180830381865afa1580156135e9573d6000803e3d6000fd5b505050506040513d601f19601f82011682018060405250810190611164919061536e565b600061361d601a5461323161357d565b61362e601954613231601c54613b4f565b611164919061539a565b6000828152600660205260408120546001600160a01b03168061366e576040516338b7fdfb60e01b815260040160405180910390fd5b6040516317d7715d60e11b81526004810186905260009081906001600160a01b03841690632faee2ba906024016040805180830381865afa1580156136b7573d6000803e3d6000fd5b505050506040513d601f19601f820116820180604052508101906136db919061558d565b915091508015612e7a57612e6e87866136fb576000199097019687613703565b876001019750875b87613638565b6002546040516365f6642560e01b8152600091829182916001600160a01b0316906365f664259061374090889088906004016153ad565b6060604051808303816000875af115801561375f573d6000803e3d6000fd5b505050506040513d601f19601f8201168201806040525081019061378391906154b8565b9450909250905080156137c2576137ae60015b8660018111156137a8576137a8615328565b146143e9565b6137b88582613709565b611881908461539a565b61188a82613f84565b638b78c6d81980546001600160a01b03909216918290600080516020615681833981519152600080a355565b6001600160a01b0316638b78c6d8198190558060006000805160206156818339815191528180a350565b6000805482158015620100000262ff0000199092169190911790915561386d576040517fed1cd0670ee0c0017f550451a038818c696d0b6a9d6ce5b369e44275573cf9b090600090a150565b6040517f1142a68cc39970640eb3524e77b91f78be21abc64f20f5919387eb46699bb77290600090a150565b6001600160a01b03811660009081526001602081815260408084209092018054835181840281018401909452808452606094939283018282801561390657602002820191906000526020600020905b81546001600160a01b031681526001909101906020018083116138e8575b5050835193945083925050506001600160401b03811115613929576139296150a1565b60405190808252806020026020018201604052801561398e57816020015b61397b604051806080016040528060006001600160a01b031681526020016000815260200160008152602001600081525090565b8152602001906001900390816139475790505b5092506000805b82811015613b46578381815181106139af576139af6150b7565b60200260200101519150818582815181106139cc576139cc6150b7565b60209081029190910101516001600160a01b0391821690526040516369f20b0360e11b81529083169063d3e4160690613a09908990600401614c10565b61014060405180830381865afa158015613a27573d6000803e3d6000fd5b505050506040513d601f19601f82011682018060405250810190613a4b91906155bd565b60400151858281518110613a6157613a616150b7565b60200260200101516020018181525050816001600160a01b0316636edd7590868381518110613a9257613a926150b7565b6020026020010151602001516040518263ffffffff1660e01b8152600401613abc91815260200190565b6040805180830381865afa158015613ad8573d6000803e3d6000fd5b505050506040513d601f19601f82011682018060405250810190613afc919061507d565b868381518110613b0e57613b0e6150b7565b6020026020010151604001878481518110613b2b57613b2b6150b7565b60209081029190910101516060019190915252600101613995565b50505050919050565b601d54600090808203613b66575050600354919050565b611dd8613b74600183615387565b846144df565b6000828152600660205260408120546001600160a01b031680613bb0576040516338b7fdfb60e01b815260040160405180910390fd5b60405163543adaf160e11b81526004810186905260009081906001600160a01b0384169063a875b5e2906024016040805180830381865afa158015613bf9573d6000803e3d6000fd5b505050506040513d601f19601f82011682018060405250810190613c1d919061558d565b915091508015612e7a57612e6e8786613c3d576000199097019687613c45565b876001019750875b87613b7a565b6000806000613c59846132b8565b9150915081600003613c6f575060009392505050565b600080613c7b86613442565b915091506000613c9d613c8c61360d565b60ff87901c60000380880118613231565b90506000808613613cc957613cb182613df5565b613cba86613df5565b613cc491906153c8565b613ce5565b613cd285613df5565b613cdb83613df5565b613ce591906153c8565b905060008184613cf8876131628d61432e565b613d0291906153c8565b613d0c919061556d565b9050613d19601654613df5565b613d238285613f06565b129998505050505050505050565b60005462010000900460ff1661198157604051637dc579d960e11b815260040160405180910390fd5b60025460405163ec82120360e01b8152600091829182916001600160a01b03169063ec82120390613d9190889088906004016153ad565b6060604051808303816000875af1158015613db0573d6000803e3d6000fd5b505050506040513d601f19601f82011682018060405250810190613dd491906154b8565b9450909250905080156137c257613deb6000613796565b6137b88582613d5a565b6000600160ff1b8210613e0a57613e0a614696565b5090565b60006007805480602002602001604051908101604052809291908181526020018280548015613e6657602002820191906000526020600020905b81546001600160a01b03168152600190910190602001808311613e48575b505083519394506000925050505b81811015613f0057828181518110613e8e57613e8e6150b7565b60200260200101516001600160a01b031663bb825160856040518263ffffffff1660e01b8152600401613ec391815260200190565b600060405180830381600087803b158015613edd57600080fd5b505af1158015613ef1573d6000803e3d6000fd5b50505050806001019050613e74565b50505050565b60008083128015613f1d57613f1a84615644565b93505b613f3361316c85670de0b6b3a764000086614349565b915080156112b057613f4482615644565b915050610ca0565b6000610c9d83670de0b6b3a764000084614349565b601554811015611dbf5760405163f9322cc160e01b815260040160405180910390fd5b613f8d816146a4565b613f96816146eb565b600355565b6001600160a01b03821660009081526001602081815260408084209092018054835181840281018401909452808452909183018282801561400557602002820191906000526020600020905b81546001600160a01b03168152600190910190602001808311613fe7575b5050505050905080516000146140db5781516000805b8281101561409557848181518110614035576140356150b7565b60200260200101519150614049848361480e565b61408d576001600160a01b038681166000908152600160208181526040832082018054928301815583529091200180546001600160a01b0319169184169190911790555b60010161401b565b506001600160a01b03851660009081526001602081905260409091200154603c10156140d45760405163744cae7760e01b815260040160405180910390fd5b5050505050565b6001600160a01b03831660009081526001602081815260409092208451613f0093919092019190850190614b55565b505050565b614118816131f3565b15611dbf5760405163f752e53560e01b815260040160405180910390fd5b6000610c9d61414483613df5565b61414d85613df5565b818113818303929091038218021890565b6001600160a01b0382166000908152600160208181526040808420909201805483518184028101840190945280845290918301828280156141c857602002820191906000526020600020905b81546001600160a01b031681526001909101906020018083116141aa575b505085518451949550939250600091508190505b838110156142aa578581815181106141f6576141f66150b7565b6020026020010151915060005b85518110156142a15785818151811061421e5761421e6150b7565b60200260200101516001600160a01b0316836001600160a01b0316036142995785846001900394508481518110614257576142576150b7565b6020026020010151868281518110614271576142716150b7565b60200260200101906001600160a01b031690816001600160a01b031681525050838652614203565b600101614203565b506001016141dc565b506001600160a01b038616600090815260016020818152604090922086516142da93919092019190870190614b55565b50505050505050565b6001600160a01b038216600090815260016020526040812054816143068561486d565b90508060000361431857509050610ca0565b61190084614326838261539a565b849190614349565b6001600160a01b031660009081526001602052604090205490565b828202600019838509818110820190038061437a57826143715763ae47f7026000526004601cfd5b50819004611dd8565b80831161438f5763ae47f7026000526004601cfd5b82848609600084810385169485900494848311909303908390038390046001010292030417600260038302811880840282030280840282030280840282030280840282030280840282030280840290910302029392505050565b600454816143fb576000190180614400565b600101805b506000818152600660205260409020546001600160a01b031680614437576040516338b7fdfb60e01b815260040160405180910390fd5b600280546001600160a01b0319166001600160a01b0383169081179091556004838155604080516301e643d160e51b81528151633cc87a209382810193928290030181865afa15801561448e573d6000803e3d6000fd5b505050506040513d601f19601f820116820180604052508101906144b2919061507d565b5060055560405182906001600160a01b0383169060008051602061566183398151915290600090a3505050565b600080601d84815481106144f5576144f56150b7565b9060005260206000209060030201604051806060016040529081600082015481526020016001820154815260200160028201548152505090506000834261453c9190615387565b9050808260200151116145525750519050610ca0565b836000036145635750519050610ca0565b601d546001036145765750519050610ca0565b602082015160006145878242615387565b9050600081856000015161459b9190615446565b905060005b886000036145bf576145b2838361515d565b9650505050505050610ca0565b601d8960019003995089815481106145d9576145d96150b7565b600091825260209182902060408051606081018252600390930290910180548352600181015493830184905260020154908201529650851061463c5761461f8585615387565b865161462b9190615446565b614635908361539a565b915061467f565b602086015161464b9085615387565b865190915061465b908290615446565b614665908361539a565b9150614671818461539a565b9250856020015193506145a0565b614689888361515d565b9998505050505050505050565b6335278d126000526004601cfd5b6000806146af614996565b91509150816000036146c057505050565b818311806146cd57508083105b1561410a5760405163090b0cb760e31b815260040160405180910390fd5b601d548015614737576000601d614703600184615387565b81548110614713576147136150b7565b9060005260206000209060030201905043816002015403614735579190915550565b505b60408051606081018252838152426020820181815243838501908152601d805460018101825560009190915293517f6d4407e7be21f808e6509aa9fa9143369579dd7d760fe20a2c09680fc146134f60039095029485015590517f6d4407e7be21f808e6509aa9fa9143369579dd7d760fe20a2c09680fc1461350840155517f6d4407e7be21f808e6509aa9fa9143369579dd7d760fe20a2c09680fc14613519092019190915590517f248a375298de3738db140ba94c80eb918d26810443fb0b791e77fb4158fe873591611cb991859190614c24565b8151600090815b8181101561486257836001600160a01b0316858281518110614839576148396150b7565b60200260200101516001600160a01b03160361485a57600192505050610ca0565b600101614815565b506000949350505050565b6001600160a01b038116600090815260016020818152604080842090920180548351818402810184019094528084528493928301828280156148d857602002820191906000526020600020905b81546001600160a01b031681526001909101906020018083116148ba575b505083519394506000925050505b8181101561498e57828181518110614900576149006150b7565b60200260200101516001600160a01b031663d3e41606866040518263ffffffff1660e01b81526004016149339190614c10565b61014060405180830381865afa158015614951573d6000803e3d6000fd5b505050506040513d601f19601f8201168201806040525081019061497591906155bd565b6101200151614984908561539a565b93506001016148e6565b505050919050565b60135460009081908082036149b057506000928392509050565b601d5460008115614a8a576000601d6149ca600185615387565b815481106149da576149da6150b7565b906000526020600020906003020160405180606001604052908160008201548152602001600182015481526020016002820154815250509050438160400151148015614a265750600183115b15614a8257601d614a38600285615387565b81548110614a4857614a486150b7565b9060005260206000209060030201604051806060016040529081600082015481526020016001820154815260200160028201548152505090505b519050614a8f565b506003545b614aab614aa484670de0b6b3a764000061539a565b8290613343565b9450614ac2614aa484670de0b6b3a7640000615387565b93505050509091565b5080546000825590600052602060002090810190611dbf9190614bb2565b604051806080016040528060608152602001614b266040518060800160405280600081526020016000815260200160008152602001600081525090565b8152602001614b48604051806040016040528060008152602001600081525090565b8152602001600081525090565b828054828255906000526020600020908101928215614baa579160200282015b82811115614baa57825182546001600160a01b0319166001600160a01b03909116178255602090920191600190910190614b75565b50613e0a9291505b5b80821115613e0a5760008155600101614bb3565b60008060408385031215614bda57600080fd5b823560028110614be957600080fd5b946020939093013593505050565b600060208284031215614c0957600080fd5b5035919050565b6001600160a01b0391909116815260200190565b918252602082015260400190565b6001600160a01b0381168114611dbf57600080fd5b600080600060408486031215614c5c57600080fd5b8335614c6781614c32565b925060208401356001600160401b0380821115614c8357600080fd5b818601915086601f830112614c9757600080fd5b813581811115614ca657600080fd5b8760208260051b8501011115614cbb57600080fd5b6020830194508093505050509250925092565b600060208284031215614ce057600080fd5b8135611dd881614c32565b60208082528251828201528281015160408084015280516060840181905260009291820190839060808601905b80831015614d415783516001600160a01b03168252928401926001929092019190840190614d18565b509695505050505050565b60008083601f840112614d5e57600080fd5b5081356001600160401b03811115614d7557600080fd5b602083019150836020606083028501011115612fcc57600080fd5b600080600060408486031215614da557600080fd5b83356001600160401b03811115614dbb57600080fd5b614dc786828701614d4c565b909790965060209590950135949350505050565b602080825282518282018190526000919060409081850190868401855b82811015614e26578151805185528601516001600160a01b0316868501529284019290850190600101614df8565b5091979650505050505050565b6020808252825182820181905260009190848201906040850190845b81811015614e745783516001600160a01b031683529284019291840191600101614e4f565b50909695505050505050565b60006101c08284031215614e9357600080fd5b50919050565b80516001600160a01b031682526020808201519083015260408082015190830152606090810151910152565b600060c08201888352602088818501528760408501528660608501526080868186015260c060a086015282865180855260e087019150838801945060005b81811015614f2657614f16838751614e99565b9484019491830191600101614f03565b50909c9b505050505050505050505050565b8015158114611dbf57600080fd5b600060208284031215614f5857600080fd5b8135611dd881614f38565b600080600060408486031215614f7857600080fd5b8335614f8381614c32565b925060208401356001600160401b03811115614f9e57600080fd5b614faa86828701614d4c565b9497909650939450505050565b604080825283519082018190526000906020906060840190828701845b82811015614ffa57614fe7848351614e99565b6080939093019290840190600101614fd4565b50505092019290925292915050565b60008060006040848603121561501e57600080fd5b833561502981614c32565b925060208401356001600160401b038082111561504557600080fd5b818601915086601f83011261505957600080fd5b81358181111561506857600080fd5b8760208260061b8501011115614cbb57600080fd5b6000806040838503121561509057600080fd5b505080516020909101519092909150565b634e487b7160e01b600052604160045260246000fd5b634e487b7160e01b600052603260045260246000fd5b6001600160a01b0393909316835260208301919091521515604082015260600190565b6000806000806080858703121561510657600080fd5b845193506020850151925060408501519150606085015161512681614f38565b939692955090935050565b634e487b7160e01b600052601260045260246000fd5b634e487b7160e01b600052601160045260246000fd5b60008261516c5761516c615131565b500490565b6040808252818101849052600090606080840187845b888110156151b557813583526020808301359084015284820135858401529183019190830190600101615187565b50506001600160a01b0395909516602094909401939093525091949350505050565b604080519081016001600160401b03811182821017156151f9576151f96150a1565b60405290565b60405161014081016001600160401b03811182821017156151f9576151f96150a1565b604051601f8201601f191681016001600160401b038111828210171561524a5761524a6150a1565b604052919050565b6000602080838503121561526557600080fd5b82516001600160401b038082111561527c57600080fd5b818501915085601f83011261529057600080fd5b8151818111156152a2576152a26150a1565b6152b0848260051b01615222565b818152848101925060069190911b8301840190878211156152d057600080fd5b928401925b8184101561531d57604084890312156152ee5760008081fd5b6152f66151d7565b845181528585015161530781614c32565b81870152835260409390930192918401916152d5565b979650505050505050565b634e487b7160e01b600052602160045260246000fd5b6002811061535c57634e487b7160e01b600052602160045260246000fd5b9052565b60208101610ca0828461533e565b60006020828403121561538057600080fd5b5051919050565b81810381811115610ca057610ca0615147565b80820180821115610ca057610ca0615147565b604081016153bb828561533e565b8260208301529392505050565b81810360008312801583831316838312821617156112b0576112b0615147565b80820260008212600160ff1b8414161561540457615404615147565b8181058314821517610ca057610ca0615147565b60008261542757615427615131565b600160ff1b82146000198414161561544157615441615147565b500590565b8082028115828204841417610ca057610ca0615147565b60006060828403121561546f57600080fd5b604051606081016001600160401b0381118282101715615491576154916150a1565b80604052508235815260208301356020820152604083013560408201528091505092915050565b6000806000606084860312156154cd57600080fd5b8351925060208401519150604084015190509250925092565b6000606082018583526020858185015260606040850152818551808452608086019150828701935060005b8181101561552d57845183529383019391830191600101615511565b509098975050505050505050565b60006040828403121561554d57600080fd5b6155556151d7565b82358152602083013560208201528091505092915050565b808201828112600083128015821682158216171561188a5761188a615147565b600080604083850312156155a057600080fd5b8251915060208301516155b281614f38565b809150509250929050565b600061014082840312156155d057600080fd5b6155d86151ff565b825181526020830151602082015260408301516040820152606083015160608201526080830151608082015260a083015160a082015260c083015160c082015260e083015160e08201526101008084015181830152506101208084015181830152508091505092915050565b6000600160ff1b820161565957615659615147565b506000039056fe8a40cc6c1de0d2acc080517ef56442920fcc444a644ed4d6d60432521dd20eb28be0079c531659141344cd1fd0a4f28419497f9722a3daafe3b4186f6b6457e0a26469706673582212204600e3814a558b76931c30414101d0bd05d40f3749da8e9c5653fccfea42c8f264736f6c63430008130033","linkReferences":{}},"methodIdentifiers":{"addLiquidity(address,(uint256,uint256,uint256)[])":"efdb9423","cancelOwnershipHandover()":"54d1f13d","clearingHouse()":"0af96800","completeOwnershipHandover(address)":"f04e283e","getAMMFee()":"2e8501a4","getActiveIndex()":"4e174762","getActivePool()":"695d3365","getBaseFeeRatio()":"13d0143d","getBaseToFill(uint256)":"5c220aa1","getBaseValue(uint8,uint256)":"009a7ade","getFeeRatios()":"1d32afa5","getFluctuationLimitRatio()":"cc85f5f2","getFullMakerImpermanentPosition(address)":"67c9c1dd","getFundingPeriod()":"b5e2b047","getFundingRate()":"95196f7e","getIndexPrice()":"58c0994a","getLastSettledFundingTime()":"2802e6db","getLiquidationFeeRatio()":"05307703","getLiquidationPrice()":"46558d1b","getMakerImpermanentPosition(address,uint256[])":"0becc41d","getMakerPools(address)":"e66badc0","getMakerPositionData(address)":"a9c55bc3","getMakerProfile(address)":"3f9c680d","getMarginRatio()":"4f3c1542","getMarkPrice()":"60409632","getMarkPriceAfterClose(uint8,uint256)":"f36bdbc9","getMarkPriceAfterOpen(uint8,uint256)":"4d85468b","getMarkTwap(uint256)":"c355d1ac","getMaxSize()":"63e1d57c","getNextFundingTime()":"b626382d","getOpenInterestCap()":"162ca710","getOpenMarginRatio()":"bce2020d","getPendingMakerFees(address)":"435e13bf","getPendingMakerFundingPayment(address)":"c7c2b7bf","getPool(uint256)":"068bcd8d","getPoolsInRange()":"7c74ec89","getPriceWeights()":"3ee112c0","getQuoteToFill(uint256)":"d3c7f026","getQuoteValue(uint8,uint256)":"3911138f","getReserves()":"0902f1ac","getTickSpacing()":"7db3fd69","getTwapInterval()":"3e742e3b","initialize((address,uint256,uint256,uint256,uint256,uint256,uint256,uint256,uint256,uint256,uint256,uint256,uint256,uint256))":"90065f7d","isActive()":"22f3e2d4","isMakerLiquidatable(address)":"e6877a1b","liquidateMaker(address)":"1bde66e7","owner()":"8da5cb5b","ownershipHandoverExpiresAt(address)":"fee81cf4","poolFactory()":"4219dc40","priceFeed()":"741bef1a","removeLiquidity(address,(uint256,uint256)[])":"f39508f8","renounceOwnership()":"715018a6","requestOwnershipHandover()":"25692962","setAMMFeeRatio(uint256)":"d152a859","setActive(bool)":"acec338a","setActivePool(uint256)":"d77842e3","setBaseFeeRatio(uint256)":"80295a74","setFluctuationLimitRatio(uint256)":"411efe25","setFundingPeriod(uint256)":"2a5aa292","setIndexPriceWeight(uint256)":"e25f4f92","setInitMarginRatio(uint256)":"fbede224","setKeeperFeeRatio(uint256)":"32a9569a","setLimitMakerFeeRatio(uint256)":"e2559a83","setLiquidationFeeRatio(uint256)":"a9ec1416","setMaintenanceMarginRatio(uint256)":"08e9ef43","setMaxSize(uint256)":"816e117c","setOpenInterestCap(uint256)":"245d5d51","setPoolLogicContract(address)":"9219326e","setPools((uint256,uint256,uint256)[],uint256)":"4433e5ca","setTickSpacing(uint256)":"0693ca3b","setTwapInterval(uint256)":"5ea679ef","settleFunding()":"ed83d79c","swapClose(uint8,uint256)":"65f66425","swapOpen(uint8,uint256)":"ec821203","transferOwnership(address)":"f2fde38b"},"id":45}