{
  "abi": [
    {
      "inputs": [
        {
          "internalType": "address",
          "name": "_priceFeed",
          "type": "address"
        },
        {
          "internalType": "address",
          "name": "_clearingHouse",
          "type": "address"
        }
      ],
      "stateMutability": "nonpayable",
      "type": "constructor"
    },
    {
      "inputs": [],
      "name": "BAD_DEBT",
      "type": "error"
    },
    {
      "inputs": [],
      "name": "BASE_RESERVE_IS_ZERO",
      "type": "error"
    },
    {
      "inputs": [],
      "name": "FUNDING_INTERVAL_NOT_PASSED",
      "type": "error"
    },
    {
      "inputs": [],
      "name": "INACTIVE",
      "type": "error"
    },
    {
      "inputs": [],
      "name": "INSUFFICIENT_RESERVES",
      "type": "error"
    },
    {
      "inputs": [],
      "name": "INSUFFICIENT_SHARES",
      "type": "error"
    },
    {
      "inputs": [],
      "name": "INVALID_FUNDING_PERIOD",
      "type": "error"
    },
    {
      "inputs": [],
      "name": "INVALID_RATIO",
      "type": "error"
    },
    {
      "inputs": [],
      "name": "INVALID_WEIGHT",
      "type": "error"
    },
    {
      "inputs": [],
      "name": "LEVERAGE_TOO_HIGH",
      "type": "error"
    },
    {
      "inputs": [],
      "name": "MAKER_LIQUIDATABLE",
      "type": "error"
    },
    {
      "inputs": [],
      "name": "MAKER_NOT_LIQUIDATABLE",
      "type": "error"
    },
    {
      "inputs": [],
      "name": "NOT_CLEARING_HOUSE",
      "type": "error"
    },
    {
      "inputs": [],
      "name": "NOT_POSITION_MANAGER",
      "type": "error"
    },
    {
      "inputs": [],
      "name": "NewOwnerIsZeroAddress",
      "type": "error"
    },
    {
      "inputs": [],
      "name": "NoHandoverRequest",
      "type": "error"
    },
    {
      "inputs": [],
      "name": "OVER_MAX_BASE",
      "type": "error"
    },
    {
      "inputs": [],
      "name": "OVER_MAX_QUOTE",
      "type": "error"
    },
    {
      "inputs": [],
      "name": "OVER_TRADING_LIMIT",
      "type": "error"
    },
    {
      "inputs": [],
      "name": "PRICE_OVER_FLUCTUATION_LIMIT",
      "type": "error"
    },
    {
      "inputs": [],
      "name": "QUOTE_RESERVE_IS_ZERO",
      "type": "error"
    },
    {
      "inputs": [],
      "name": "SANDWICH",
      "type": "error"
    },
    {
      "inputs": [],
      "name": "UNDER_MIN_BASE",
      "type": "error"
    },
    {
      "inputs": [],
      "name": "UNDER_MIN_QUOTE",
      "type": "error"
    },
    {
      "inputs": [],
      "name": "UNDER_MIN_SHARES",
      "type": "error"
    },
    {
      "inputs": [],
      "name": "Unauthorized",
      "type": "error"
    },
    {
      "inputs": [],
      "name": "ZERO_CLOSE",
      "type": "error"
    },
    {
      "inputs": [],
      "name": "ZERO_LIQUIDITY",
      "type": "error"
    },
    {
      "inputs": [],
      "name": "ZERO_OPEN",
      "type": "error"
    },
    {
      "anonymous": false,
      "inputs": [
        {
          "indexed": false,
          "internalType": "uint256",
          "name": "newAMMFeeRatio",
          "type": "uint256"
        }
      ],
      "name": "AMMFeeRatioChanged",
      "type": "event"
    },
    {
      "anonymous": false,
      "inputs": [],
      "name": "Activated",
      "type": "event"
    },
    {
      "anonymous": false,
      "inputs": [
        {
          "indexed": false,
          "internalType": "uint256",
          "name": "newFeeRatio",
          "type": "uint256"
        }
      ],
      "name": "BaseFeeRatioChanged",
      "type": "event"
    },
    {
      "anonymous": false,
      "inputs": [
        {
          "indexed": false,
          "internalType": "uint256",
          "name": "maxSize",
          "type": "uint256"
        },
        {
          "indexed": false,
          "internalType": "uint256",
          "name": "openInterestNotionalCap",
          "type": "uint256"
        }
      ],
      "name": "CapChanged",
      "type": "event"
    },
    {
      "anonymous": false,
      "inputs": [],
      "name": "Deactivated",
      "type": "event"
    },
    {
      "anonymous": false,
      "inputs": [
        {
          "indexed": false,
          "internalType": "uint256",
          "name": "ratio",
          "type": "uint256"
        }
      ],
      "name": "FluctuationLimitRatioChanged",
      "type": "event"
    },
    {
      "anonymous": false,
      "inputs": [
        {
          "indexed": false,
          "internalType": "uint256",
          "name": "fundingPeriod",
          "type": "uint256"
        }
      ],
      "name": "FundingPeriodChanged",
      "type": "event"
    },
    {
      "anonymous": false,
      "inputs": [
        {
          "indexed": false,
          "internalType": "int256",
          "name": "fundingRate",
          "type": "int256"
        },
        {
          "indexed": false,
          "internalType": "uint256",
          "name": "price",
          "type": "uint256"
        }
      ],
      "name": "FundingRateUpdated",
      "type": "event"
    },
    {
      "anonymous": false,
      "inputs": [
        {
          "indexed": false,
          "internalType": "uint256",
          "name": "ratio",
          "type": "uint256"
        }
      ],
      "name": "InitMarginRatioChanged",
      "type": "event"
    },
    {
      "anonymous": false,
      "inputs": [
        {
          "indexed": false,
          "internalType": "uint8",
          "name": "version",
          "type": "uint8"
        }
      ],
      "name": "Initialized",
      "type": "event"
    },
    {
      "anonymous": false,
      "inputs": [
        {
          "indexed": false,
          "internalType": "uint256",
          "name": "newKeeperFeeRatio",
          "type": "uint256"
        }
      ],
      "name": "KeeperFeeRatioChanged",
      "type": "event"
    },
    {
      "anonymous": false,
      "inputs": [
        {
          "indexed": false,
          "internalType": "uint256",
          "name": "newLiquidatorFeeRatio",
          "type": "uint256"
        }
      ],
      "name": "LimitMakerFeeRatioChanged",
      "type": "event"
    },
    {
      "anonymous": false,
      "inputs": [
        {
          "indexed": false,
          "internalType": "uint256",
          "name": "ratio",
          "type": "uint256"
        }
      ],
      "name": "LiquidationFeeRatioChanged",
      "type": "event"
    },
    {
      "anonymous": false,
      "inputs": [
        {
          "indexed": false,
          "internalType": "uint256",
          "name": "ratio",
          "type": "uint256"
        }
      ],
      "name": "MaintenanceMarginRatioChanged",
      "type": "event"
    },
    {
      "anonymous": false,
      "inputs": [
        {
          "indexed": true,
          "internalType": "address",
          "name": "maker",
          "type": "address"
        },
        {
          "indexed": false,
          "internalType": "int256",
          "name": "shareDelta",
          "type": "int256"
        },
        {
          "indexed": false,
          "internalType": "uint256",
          "name": "remainingShares",
          "type": "uint256"
        },
        {
          "indexed": false,
          "internalType": "uint256",
          "name": "realizedFee",
          "type": "uint256"
        },
        {
          "indexed": false,
          "internalType": "int256",
          "name": "fundingPayment",
          "type": "int256"
        }
      ],
      "name": "MakerPositionChanged",
      "type": "event"
    },
    {
      "anonymous": false,
      "inputs": [
        {
          "indexed": false,
          "internalType": "uint256",
          "name": "markPrice",
          "type": "uint256"
        },
        {
          "indexed": false,
          "internalType": "uint256",
          "name": "timestamp",
          "type": "uint256"
        }
      ],
      "name": "NewPriceSnapshot",
      "type": "event"
    },
    {
      "anonymous": false,
      "inputs": [
        {
          "indexed": true,
          "internalType": "address",
          "name": "pendingOwner",
          "type": "address"
        }
      ],
      "name": "OwnershipHandoverCanceled",
      "type": "event"
    },
    {
      "anonymous": false,
      "inputs": [
        {
          "indexed": true,
          "internalType": "address",
          "name": "pendingOwner",
          "type": "address"
        }
      ],
      "name": "OwnershipHandoverRequested",
      "type": "event"
    },
    {
      "anonymous": false,
      "inputs": [
        {
          "indexed": true,
          "internalType": "address",
          "name": "oldOwner",
          "type": "address"
        },
        {
          "indexed": true,
          "internalType": "address",
          "name": "newOwner",
          "type": "address"
        }
      ],
      "name": "OwnershipTransferred",
      "type": "event"
    },
    {
      "anonymous": false,
      "inputs": [
        {
          "indexed": false,
          "internalType": "uint256",
          "name": "ratio",
          "type": "uint256"
        }
      ],
      "name": "PartialLiquidationRatioChanged",
      "type": "event"
    },
    {
      "anonymous": false,
      "inputs": [
        {
          "indexed": false,
          "internalType": "uint256",
          "name": "quoteReserve",
          "type": "uint256"
        },
        {
          "indexed": false,
          "internalType": "uint256",
          "name": "baseReserve",
          "type": "uint256"
        }
      ],
      "name": "ReservesUpdated",
      "type": "event"
    },
    {
      "anonymous": false,
      "inputs": [
        {
          "indexed": false,
          "internalType": "enum Dir",
          "name": "dirOfBase",
          "type": "uint8"
        },
        {
          "indexed": false,
          "internalType": "uint256",
          "name": "quoteAmount",
          "type": "uint256"
        },
        {
          "indexed": false,
          "internalType": "uint256",
          "name": "baseAmount",
          "type": "uint256"
        }
      ],
      "name": "SwapClose",
      "type": "event"
    },
    {
      "anonymous": false,
      "inputs": [
        {
          "indexed": false,
          "internalType": "enum Dir",
          "name": "dirOfQuote",
          "type": "uint8"
        },
        {
          "indexed": false,
          "internalType": "uint256",
          "name": "quoteAmount",
          "type": "uint256"
        },
        {
          "indexed": false,
          "internalType": "uint256",
          "name": "baseAmount",
          "type": "uint256"
        }
      ],
      "name": "SwapOpen",
      "type": "event"
    },
    {
      "anonymous": false,
      "inputs": [
        {
          "indexed": false,
          "internalType": "uint256",
          "name": "tickSpacing",
          "type": "uint256"
        }
      ],
      "name": "TickSpacingChanged",
      "type": "event"
    },
    {
      "anonymous": false,
      "inputs": [
        {
          "indexed": false,
          "internalType": "uint256",
          "name": "ratio",
          "type": "uint256"
        }
      ],
      "name": "TradeLimitRatioChanged",
      "type": "event"
    },
    {
      "inputs": [
        {
          "internalType": "address",
          "name": "maker",
          "type": "address"
        },
        {
          "internalType": "uint256",
          "name": "margin",
          "type": "uint256"
        },
        {
          "internalType": "uint256",
          "name": "leverage",
          "type": "uint256"
        },
        {
          "internalType": "uint256",
          "name": "minShares",
          "type": "uint256"
        }
      ],
      "name": "addLiquidity",
      "outputs": [
        {
          "internalType": "uint256",
          "name": "shares",
          "type": "uint256"
        },
        {
          "internalType": "uint256",
          "name": "quoteAmount",
          "type": "uint256"
        },
        {
          "internalType": "uint256",
          "name": "baseAmount",
          "type": "uint256"
        }
      ],
      "stateMutability": "nonpayable",
      "type": "function"
    },
    {
      "inputs": [],
      "name": "cancelOwnershipHandover",
      "outputs": [],
      "stateMutability": "payable",
      "type": "function"
    },
    {
      "inputs": [],
      "name": "clearingHouse",
      "outputs": [
        {
          "internalType": "address",
          "name": "",
          "type": "address"
        }
      ],
      "stateMutability": "view",
      "type": "function"
    },
    {
      "inputs": [
        {
          "internalType": "address",
          "name": "pendingOwner",
          "type": "address"
        }
      ],
      "name": "completeOwnershipHandover",
      "outputs": [],
      "stateMutability": "payable",
      "type": "function"
    },
    {
      "inputs": [],
      "name": "getBaseFeeRatio",
      "outputs": [
        {
          "internalType": "uint256",
          "name": "",
          "type": "uint256"
        }
      ],
      "stateMutability": "view",
      "type": "function"
    },
    {
      "inputs": [
        {
          "internalType": "uint256",
          "name": "targetPrice",
          "type": "uint256"
        }
      ],
      "name": "getBaseToFill",
      "outputs": [
        {
          "internalType": "uint256",
          "name": "",
          "type": "uint256"
        }
      ],
      "stateMutability": "view",
      "type": "function"
    },
    {
      "inputs": [
        {
          "internalType": "enum Dir",
          "name": "dirOfQuote",
          "type": "uint8"
        },
        {
          "internalType": "uint256",
          "name": "quoteAmount",
          "type": "uint256"
        }
      ],
      "name": "getBaseValue",
      "outputs": [
        {
          "internalType": "uint256",
          "name": "baseAmount",
          "type": "uint256"
        }
      ],
      "stateMutability": "view",
      "type": "function"
    },
    {
      "inputs": [],
      "name": "getBounds",
      "outputs": [
        {
          "internalType": "uint256",
          "name": "",
          "type": "uint256"
        },
        {
          "internalType": "uint256",
          "name": "",
          "type": "uint256"
        }
      ],
      "stateMutability": "view",
      "type": "function"
    },
    {
      "inputs": [],
      "name": "getFeeGrowth",
      "outputs": [
        {
          "internalType": "uint256",
          "name": "",
          "type": "uint256"
        }
      ],
      "stateMutability": "view",
      "type": "function"
    },
    {
      "inputs": [],
      "name": "getFeeRatios",
      "outputs": [
        {
          "components": [
            {
              "internalType": "uint256",
              "name": "baseFeeRatio",
              "type": "uint256"
            },
            {
              "internalType": "uint256",
              "name": "ammFeeRatio",
              "type": "uint256"
            },
            {
              "internalType": "uint256",
              "name": "limitMakerFeeRatio",
              "type": "uint256"
            },
            {
              "internalType": "uint256",
              "name": "keeperFeeRatio",
              "type": "uint256"
            },
            {
              "internalType": "uint256",
              "name": "liquidationFeeRatio",
              "type": "uint256"
            }
          ],
          "internalType": "struct FeeRatios",
          "name": "",
          "type": "tuple"
        }
      ],
      "stateMutability": "view",
      "type": "function"
    },
    {
      "inputs": [],
      "name": "getFeeRatiosTotalSupply",
      "outputs": [
        {
          "components": [
            {
              "internalType": "uint256",
              "name": "baseFeeRatio",
              "type": "uint256"
            },
            {
              "internalType": "uint256",
              "name": "ammFeeRatio",
              "type": "uint256"
            },
            {
              "internalType": "uint256",
              "name": "limitMakerFeeRatio",
              "type": "uint256"
            },
            {
              "internalType": "uint256",
              "name": "keeperFeeRatio",
              "type": "uint256"
            },
            {
              "internalType": "uint256",
              "name": "liquidationFeeRatio",
              "type": "uint256"
            }
          ],
          "internalType": "struct FeeRatios",
          "name": "",
          "type": "tuple"
        },
        {
          "internalType": "uint256",
          "name": "",
          "type": "uint256"
        }
      ],
      "stateMutability": "view",
      "type": "function"
    },
    {
      "inputs": [],
      "name": "getFluctuationLimitRatio",
      "outputs": [
        {
          "internalType": "uint256",
          "name": "",
          "type": "uint256"
        }
      ],
      "stateMutability": "view",
      "type": "function"
    },
    {
      "inputs": [],
      "name": "getFundingPeriod",
      "outputs": [
        {
          "internalType": "uint256",
          "name": "",
          "type": "uint256"
        }
      ],
      "stateMutability": "view",
      "type": "function"
    },
    {
      "inputs": [],
      "name": "getFundingRate",
      "outputs": [
        {
          "internalType": "int256",
          "name": "",
          "type": "int256"
        }
      ],
      "stateMutability": "view",
      "type": "function"
    },
    {
      "inputs": [],
      "name": "getIndexPrice",
      "outputs": [
        {
          "internalType": "uint256",
          "name": "",
          "type": "uint256"
        }
      ],
      "stateMutability": "view",
      "type": "function"
    },
    {
      "inputs": [],
      "name": "getLastSettledFundingTime",
      "outputs": [
        {
          "internalType": "uint256",
          "name": "",
          "type": "uint256"
        }
      ],
      "stateMutability": "view",
      "type": "function"
    },
    {
      "inputs": [],
      "name": "getLiquidationFeeRatio",
      "outputs": [
        {
          "internalType": "uint256",
          "name": "",
          "type": "uint256"
        }
      ],
      "stateMutability": "view",
      "type": "function"
    },
    {
      "inputs": [],
      "name": "getLiquidationPrice",
      "outputs": [
        {
          "internalType": "uint256",
          "name": "",
          "type": "uint256"
        }
      ],
      "stateMutability": "view",
      "type": "function"
    },
    {
      "inputs": [
        {
          "internalType": "address",
          "name": "maker",
          "type": "address"
        }
      ],
      "name": "getMakerFundingPayment",
      "outputs": [
        {
          "internalType": "int256",
          "name": "fundingPayment",
          "type": "int256"
        }
      ],
      "stateMutability": "view",
      "type": "function"
    },
    {
      "inputs": [
        {
          "internalType": "address",
          "name": "maker",
          "type": "address"
        }
      ],
      "name": "getMakerImpermanentPosition",
      "outputs": [
        {
          "internalType": "int256",
          "name": "size",
          "type": "int256"
        },
        {
          "internalType": "uint256",
          "name": "openNotional",
          "type": "uint256"
        }
      ],
      "stateMutability": "view",
      "type": "function"
    },
    {
      "inputs": [
        {
          "internalType": "address",
          "name": "maker",
          "type": "address"
        }
      ],
      "name": "getMakerPosition",
      "outputs": [
        {
          "components": [
            {
              "internalType": "uint256",
              "name": "margin",
              "type": "uint256"
            },
            {
              "internalType": "uint256",
              "name": "quote",
              "type": "uint256"
            },
            {
              "internalType": "uint256",
              "name": "base",
              "type": "uint256"
            },
            {
              "internalType": "uint256",
              "name": "shares",
              "type": "uint256"
            },
            {
              "internalType": "int256",
              "name": "position",
              "type": "int256"
            },
            {
              "internalType": "uint256",
              "name": "lastFeeGrowth",
              "type": "uint256"
            },
            {
              "internalType": "uint256",
              "name": "fees",
              "type": "uint256"
            },
            {
              "internalType": "int256",
              "name": "lastPremiumFraction",
              "type": "int256"
            },
            {
              "internalType": "int256",
              "name": "lastPremiumFractionPerShare",
              "type": "int256"
            },
            {
              "internalType": "int256",
              "name": "lastSizeOffsetPerShare",
              "type": "int256"
            },
            {
              "internalType": "uint256",
              "name": "blockNumber",
              "type": "uint256"
            }
          ],
          "internalType": "struct MakerPosition",
          "name": "",
          "type": "tuple"
        }
      ],
      "stateMutability": "view",
      "type": "function"
    },
    {
      "inputs": [],
      "name": "getMarginRatio",
      "outputs": [
        {
          "internalType": "uint256",
          "name": "",
          "type": "uint256"
        }
      ],
      "stateMutability": "view",
      "type": "function"
    },
    {
      "inputs": [],
      "name": "getMarkPrice",
      "outputs": [
        {
          "internalType": "uint256",
          "name": "",
          "type": "uint256"
        }
      ],
      "stateMutability": "view",
      "type": "function"
    },
    {
      "inputs": [
        {
          "internalType": "enum Dir",
          "name": "dirOfBase",
          "type": "uint8"
        },
        {
          "internalType": "uint256",
          "name": "baseAmount",
          "type": "uint256"
        }
      ],
      "name": "getMarkPriceAfterClose",
      "outputs": [
        {
          "internalType": "uint256",
          "name": "",
          "type": "uint256"
        }
      ],
      "stateMutability": "view",
      "type": "function"
    },
    {
      "inputs": [
        {
          "internalType": "enum Dir",
          "name": "dirOfQuote",
          "type": "uint8"
        },
        {
          "internalType": "uint256",
          "name": "quoteAmount",
          "type": "uint256"
        }
      ],
      "name": "getMarkPriceAfterOpen",
      "outputs": [
        {
          "internalType": "uint256",
          "name": "",
          "type": "uint256"
        }
      ],
      "stateMutability": "view",
      "type": "function"
    },
    {
      "inputs": [
        {
          "internalType": "uint256",
          "name": "interval",
          "type": "uint256"
        }
      ],
      "name": "getMarkTwap",
      "outputs": [
        {
          "internalType": "uint256",
          "name": "",
          "type": "uint256"
        }
      ],
      "stateMutability": "view",
      "type": "function"
    },
    {
      "inputs": [],
      "name": "getMaxSize",
      "outputs": [
        {
          "internalType": "uint256",
          "name": "",
          "type": "uint256"
        }
      ],
      "stateMutability": "view",
      "type": "function"
    },
    {
      "inputs": [],
      "name": "getNextFundingTime",
      "outputs": [
        {
          "internalType": "uint256",
          "name": "",
          "type": "uint256"
        }
      ],
      "stateMutability": "view",
      "type": "function"
    },
    {
      "inputs": [],
      "name": "getOpenInterestCap",
      "outputs": [
        {
          "internalType": "uint256",
          "name": "",
          "type": "uint256"
        }
      ],
      "stateMutability": "view",
      "type": "function"
    },
    {
      "inputs": [],
      "name": "getOpenMarginRatio",
      "outputs": [
        {
          "internalType": "uint256",
          "name": "",
          "type": "uint256"
        }
      ],
      "stateMutability": "view",
      "type": "function"
    },
    {
      "inputs": [],
      "name": "getPartialLiquidationRatio",
      "outputs": [
        {
          "internalType": "uint256",
          "name": "",
          "type": "uint256"
        }
      ],
      "stateMutability": "view",
      "type": "function"
    },
    {
      "inputs": [
        {
          "internalType": "address",
          "name": "maker",
          "type": "address"
        }
      ],
      "name": "getPendingMakerFees",
      "outputs": [
        {
          "internalType": "uint256",
          "name": "",
          "type": "uint256"
        }
      ],
      "stateMutability": "view",
      "type": "function"
    },
    {
      "inputs": [],
      "name": "getPriceWeights",
      "outputs": [
        {
          "internalType": "uint256",
          "name": "markWeight",
          "type": "uint256"
        },
        {
          "internalType": "uint256",
          "name": "indexWeight",
          "type": "uint256"
        }
      ],
      "stateMutability": "view",
      "type": "function"
    },
    {
      "inputs": [
        {
          "internalType": "uint256",
          "name": "targetPrice",
          "type": "uint256"
        }
      ],
      "name": "getQuoteToFill",
      "outputs": [
        {
          "internalType": "uint256",
          "name": "",
          "type": "uint256"
        }
      ],
      "stateMutability": "view",
      "type": "function"
    },
    {
      "inputs": [
        {
          "internalType": "enum Dir",
          "name": "dirOfBase",
          "type": "uint8"
        },
        {
          "internalType": "uint256",
          "name": "baseAmount",
          "type": "uint256"
        }
      ],
      "name": "getQuoteValue",
      "outputs": [
        {
          "internalType": "uint256",
          "name": "quoteAmount",
          "type": "uint256"
        }
      ],
      "stateMutability": "view",
      "type": "function"
    },
    {
      "inputs": [],
      "name": "getRatios",
      "outputs": [
        {
          "components": [
            {
              "internalType": "uint256",
              "name": "baseFeeRatio",
              "type": "uint256"
            },
            {
              "internalType": "uint256",
              "name": "initMarginRatio",
              "type": "uint256"
            },
            {
              "internalType": "uint256",
              "name": "maintenanceMarginRatio",
              "type": "uint256"
            },
            {
              "internalType": "uint256",
              "name": "partialLiquidationRatio",
              "type": "uint256"
            },
            {
              "internalType": "uint256",
              "name": "liquidationFeeRatio",
              "type": "uint256"
            }
          ],
          "internalType": "struct Ratios",
          "name": "",
          "type": "tuple"
        }
      ],
      "stateMutability": "view",
      "type": "function"
    },
    {
      "inputs": [],
      "name": "getRealReserves",
      "outputs": [
        {
          "internalType": "uint256",
          "name": "quoteReserve",
          "type": "uint256"
        },
        {
          "internalType": "uint256",
          "name": "baseReserve",
          "type": "uint256"
        }
      ],
      "stateMutability": "view",
      "type": "function"
    },
    {
      "inputs": [],
      "name": "getReserves",
      "outputs": [
        {
          "internalType": "uint256",
          "name": "quoteReserve",
          "type": "uint256"
        },
        {
          "internalType": "uint256",
          "name": "baseReserve",
          "type": "uint256"
        }
      ],
      "stateMutability": "view",
      "type": "function"
    },
    {
      "inputs": [],
      "name": "getReservesAndK",
      "outputs": [
        {
          "internalType": "uint256",
          "name": "quoteReserve",
          "type": "uint256"
        },
        {
          "internalType": "uint256",
          "name": "baseReserve",
          "type": "uint256"
        },
        {
          "internalType": "uint256",
          "name": "_k",
          "type": "uint256"
        }
      ],
      "stateMutability": "view",
      "type": "function"
    },
    {
      "inputs": [
        {
          "internalType": "uint256",
          "name": "shares",
          "type": "uint256"
        }
      ],
      "name": "getShareValue",
      "outputs": [
        {
          "internalType": "uint256",
          "name": "quote",
          "type": "uint256"
        },
        {
          "internalType": "uint256",
          "name": "base",
          "type": "uint256"
        }
      ],
      "stateMutability": "view",
      "type": "function"
    },
    {
      "inputs": [],
      "name": "getTickSpacing",
      "outputs": [
        {
          "internalType": "uint256",
          "name": "",
          "type": "uint256"
        }
      ],
      "stateMutability": "view",
      "type": "function"
    },
    {
      "inputs": [],
      "name": "getTotalSupply",
      "outputs": [
        {
          "internalType": "uint256",
          "name": "",
          "type": "uint256"
        }
      ],
      "stateMutability": "view",
      "type": "function"
    },
    {
      "inputs": [],
      "name": "getTradeLimitRatio",
      "outputs": [
        {
          "internalType": "uint256",
          "name": "",
          "type": "uint256"
        }
      ],
      "stateMutability": "view",
      "type": "function"
    },
    {
      "inputs": [],
      "name": "getTwapInterval",
      "outputs": [
        {
          "internalType": "uint256",
          "name": "",
          "type": "uint256"
        }
      ],
      "stateMutability": "view",
      "type": "function"
    },
    {
      "inputs": [
        {
          "components": [
            {
              "internalType": "address",
              "name": "owner",
              "type": "address"
            },
            {
              "internalType": "uint256",
              "name": "fundingPeriod",
              "type": "uint256"
            },
            {
              "internalType": "uint256",
              "name": "tradeLimitRatio",
              "type": "uint256"
            },
            {
              "internalType": "uint256",
              "name": "fluctuationLimitRatio",
              "type": "uint256"
            },
            {
              "internalType": "uint256",
              "name": "openMarginRatio",
              "type": "uint256"
            },
            {
              "internalType": "uint256",
              "name": "maintenanceMarginRatio",
              "type": "uint256"
            },
            {
              "internalType": "uint256",
              "name": "maxSizeCap",
              "type": "uint256"
            },
            {
              "internalType": "uint256",
              "name": "openInterestCap",
              "type": "uint256"
            },
            {
              "internalType": "uint256",
              "name": "indexPriceWeight",
              "type": "uint256"
            },
            {
              "internalType": "uint256",
              "name": "twapInterval",
              "type": "uint256"
            },
            {
              "internalType": "uint256",
              "name": "baseFeeRatio",
              "type": "uint256"
            },
            {
              "internalType": "uint256",
              "name": "ammFeeRatio",
              "type": "uint256"
            },
            {
              "internalType": "uint256",
              "name": "limitMakerFeeRatio",
              "type": "uint256"
            },
            {
              "internalType": "uint256",
              "name": "keeperFeeRatio",
              "type": "uint256"
            },
            {
              "internalType": "uint256",
              "name": "liquidatorFeeRatio",
              "type": "uint256"
            }
          ],
          "internalType": "struct AMMParams",
          "name": "params",
          "type": "tuple"
        }
      ],
      "name": "initialize",
      "outputs": [],
      "stateMutability": "nonpayable",
      "type": "function"
    },
    {
      "inputs": [],
      "name": "isActive",
      "outputs": [
        {
          "internalType": "bool",
          "name": "",
          "type": "bool"
        }
      ],
      "stateMutability": "view",
      "type": "function"
    },
    {
      "inputs": [
        {
          "internalType": "address",
          "name": "maker",
          "type": "address"
        }
      ],
      "name": "isMakerLiquidatable",
      "outputs": [
        {
          "internalType": "bool",
          "name": "liquidatable",
          "type": "bool"
        }
      ],
      "stateMutability": "view",
      "type": "function"
    },
    {
      "inputs": [
        {
          "internalType": "address",
          "name": "maker",
          "type": "address"
        }
      ],
      "name": "liquidateMaker",
      "outputs": [
        {
          "internalType": "int256",
          "name": "size",
          "type": "int256"
        },
        {
          "internalType": "uint256",
          "name": "openNotional",
          "type": "uint256"
        },
        {
          "internalType": "int256",
          "name": "margin",
          "type": "int256"
        }
      ],
      "stateMutability": "nonpayable",
      "type": "function"
    },
    {
      "inputs": [],
      "name": "owner",
      "outputs": [
        {
          "internalType": "address",
          "name": "result",
          "type": "address"
        }
      ],
      "stateMutability": "view",
      "type": "function"
    },
    {
      "inputs": [
        {
          "internalType": "address",
          "name": "pendingOwner",
          "type": "address"
        }
      ],
      "name": "ownershipHandoverExpiresAt",
      "outputs": [
        {
          "internalType": "uint256",
          "name": "result",
          "type": "uint256"
        }
      ],
      "stateMutability": "view",
      "type": "function"
    },
    {
      "inputs": [],
      "name": "ownershipHandoverValidFor",
      "outputs": [
        {
          "internalType": "uint64",
          "name": "",
          "type": "uint64"
        }
      ],
      "stateMutability": "view",
      "type": "function"
    },
    {
      "inputs": [],
      "name": "priceFeed",
      "outputs": [
        {
          "internalType": "contract IPriceFeed",
          "name": "",
          "type": "address"
        }
      ],
      "stateMutability": "view",
      "type": "function"
    },
    {
      "inputs": [
        {
          "internalType": "address",
          "name": "maker",
          "type": "address"
        },
        {
          "internalType": "uint256",
          "name": "shares",
          "type": "uint256"
        }
      ],
      "name": "removeLiquidity",
      "outputs": [
        {
          "internalType": "int256",
          "name": "size",
          "type": "int256"
        },
        {
          "internalType": "uint256",
          "name": "openNotional",
          "type": "uint256"
        },
        {
          "internalType": "uint256",
          "name": "marginToRemove",
          "type": "uint256"
        }
      ],
      "stateMutability": "nonpayable",
      "type": "function"
    },
    {
      "inputs": [],
      "name": "renounceOwnership",
      "outputs": [],
      "stateMutability": "payable",
      "type": "function"
    },
    {
      "inputs": [],
      "name": "requestOwnershipHandover",
      "outputs": [],
      "stateMutability": "payable",
      "type": "function"
    },
    {
      "inputs": [
        {
          "internalType": "uint256",
          "name": "_ammFeeRatio",
          "type": "uint256"
        }
      ],
      "name": "setAMMFeeRatio",
      "outputs": [],
      "stateMutability": "nonpayable",
      "type": "function"
    },
    {
      "inputs": [
        {
          "internalType": "bool",
          "name": "_active",
          "type": "bool"
        }
      ],
      "name": "setActive",
      "outputs": [],
      "stateMutability": "nonpayable",
      "type": "function"
    },
    {
      "inputs": [
        {
          "internalType": "uint256",
          "name": "_baseFeeRatio",
          "type": "uint256"
        }
      ],
      "name": "setBaseFeeRatio",
      "outputs": [],
      "stateMutability": "nonpayable",
      "type": "function"
    },
    {
      "inputs": [
        {
          "internalType": "uint256",
          "name": "upper",
          "type": "uint256"
        },
        {
          "internalType": "uint256",
          "name": "lower",
          "type": "uint256"
        }
      ],
      "name": "setBounds",
      "outputs": [],
      "stateMutability": "nonpayable",
      "type": "function"
    },
    {
      "inputs": [
        {
          "internalType": "uint256",
          "name": "_maxSize",
          "type": "uint256"
        },
        {
          "internalType": "uint256",
          "name": "_openInterestNotionalCap",
          "type": "uint256"
        }
      ],
      "name": "setCap",
      "outputs": [],
      "stateMutability": "nonpayable",
      "type": "function"
    },
    {
      "inputs": [
        {
          "internalType": "uint256",
          "name": "_fluctuationLimitRatio",
          "type": "uint256"
        }
      ],
      "name": "setFluctuationLimitRatio",
      "outputs": [],
      "stateMutability": "nonpayable",
      "type": "function"
    },
    {
      "inputs": [
        {
          "internalType": "uint256",
          "name": "_fundingPeriod",
          "type": "uint256"
        }
      ],
      "name": "setFundingPeriod",
      "outputs": [],
      "stateMutability": "nonpayable",
      "type": "function"
    },
    {
      "inputs": [
        {
          "internalType": "uint256",
          "name": "_indexPriceWeight",
          "type": "uint256"
        }
      ],
      "name": "setIndexPriceWeight",
      "outputs": [],
      "stateMutability": "nonpayable",
      "type": "function"
    },
    {
      "inputs": [
        {
          "internalType": "uint256",
          "name": "_initMarginRatio",
          "type": "uint256"
        }
      ],
      "name": "setInitMarginRatio",
      "outputs": [],
      "stateMutability": "nonpayable",
      "type": "function"
    },
    {
      "inputs": [
        {
          "internalType": "uint256",
          "name": "_keeperFeeRatio",
          "type": "uint256"
        }
      ],
      "name": "setKeeperFeeRatio",
      "outputs": [],
      "stateMutability": "nonpayable",
      "type": "function"
    },
    {
      "inputs": [
        {
          "internalType": "uint256",
          "name": "_limitMakerFeeRatio",
          "type": "uint256"
        }
      ],
      "name": "setLimitMakerFeeRatio",
      "outputs": [],
      "stateMutability": "nonpayable",
      "type": "function"
    },
    {
      "inputs": [
        {
          "internalType": "uint256",
          "name": "_liquidationFeeRatio",
          "type": "uint256"
        }
      ],
      "name": "setLiquidationFeeRatio",
      "outputs": [],
      "stateMutability": "nonpayable",
      "type": "function"
    },
    {
      "inputs": [
        {
          "internalType": "uint256",
          "name": "_maintenanceMarginRatio",
          "type": "uint256"
        }
      ],
      "name": "setMaintenanceMarginRatio",
      "outputs": [],
      "stateMutability": "nonpayable",
      "type": "function"
    },
    {
      "inputs": [
        {
          "internalType": "uint256",
          "name": "_maxSize",
          "type": "uint256"
        }
      ],
      "name": "setMaxSize",
      "outputs": [],
      "stateMutability": "nonpayable",
      "type": "function"
    },
    {
      "inputs": [
        {
          "internalType": "uint256",
          "name": "_partialLiquidationRatio",
          "type": "uint256"
        }
      ],
      "name": "setPartialLiquidationRatio",
      "outputs": [],
      "stateMutability": "nonpayable",
      "type": "function"
    },
    {
      "inputs": [
        {
          "internalType": "uint256",
          "name": "spacing",
          "type": "uint256"
        }
      ],
      "name": "setTickSpacing",
      "outputs": [],
      "stateMutability": "nonpayable",
      "type": "function"
    },
    {
      "inputs": [
        {
          "internalType": "uint256",
          "name": "_tradeLimitRatio",
          "type": "uint256"
        }
      ],
      "name": "setTradeLimitRatio",
      "outputs": [],
      "stateMutability": "nonpayable",
      "type": "function"
    },
    {
      "inputs": [
        {
          "internalType": "uint256",
          "name": "_twapInterval",
          "type": "uint256"
        }
      ],
      "name": "setTwapInterval",
      "outputs": [],
      "stateMutability": "nonpayable",
      "type": "function"
    },
    {
      "inputs": [],
      "name": "settleFunding",
      "outputs": [
        {
          "internalType": "int256",
          "name": "premiumFraction",
          "type": "int256"
        },
        {
          "internalType": "uint256",
          "name": "markPrice",
          "type": "uint256"
        },
        {
          "internalType": "uint256",
          "name": "indexPrice",
          "type": "uint256"
        }
      ],
      "stateMutability": "nonpayable",
      "type": "function"
    },
    {
      "inputs": [
        {
          "internalType": "enum Dir",
          "name": "dirOfBase",
          "type": "uint8"
        },
        {
          "internalType": "uint256",
          "name": "baseAmount",
          "type": "uint256"
        }
      ],
      "name": "swapClose",
      "outputs": [
        {
          "internalType": "uint256",
          "name": "quoteAmount",
          "type": "uint256"
        }
      ],
      "stateMutability": "nonpayable",
      "type": "function"
    },
    {
      "inputs": [
        {
          "internalType": "enum Dir",
          "name": "dirOfQuote",
          "type": "uint8"
        },
        {
          "internalType": "uint256",
          "name": "quoteAmount",
          "type": "uint256"
        }
      ],
      "name": "swapOpen",
      "outputs": [
        {
          "internalType": "uint256",
          "name": "baseAmount",
          "type": "uint256"
        }
      ],
      "stateMutability": "nonpayable",
      "type": "function"
    },
    {
      "inputs": [
        {
          "internalType": "address",
          "name": "newOwner",
          "type": "address"
        }
      ],
      "name": "transferOwnership",
      "outputs": [],
      "stateMutability": "payable",
      "type": "function"
    }
  ],
  "bytecode": {
    "object": "0x60c06040523480156200001157600080fd5b50604051620044b7380380620044b7833981016040819052620000349162000137565b6001600160a01b03808216608052821660a0526200005162000059565b50506200016f565b600054610100900460ff1615620000c65760405162461bcd60e51b815260206004820152602760248201527f496e697469616c697a61626c653a20636f6e747261637420697320696e697469604482015266616c697a696e6760c81b606482015260840160405180910390fd5b60005460ff9081161462000118576000805460ff191660ff9081179091556040519081527f7f26b83ff96e1f2b6a682f133852f6798a09c465da95921460cefb38474024989060200160405180910390a15b565b80516001600160a01b03811681146200013257600080fd5b919050565b600080604083850312156200014b57600080fd5b62000156836200011a565b915062000166602084016200011a565b90509250929050565b60805160a051614306620001b1600039600081816108de0152613301015260008181610531015281816113f6015281816128da01526129d001526143066000f3fe6080604052600436106104515760003560e01c8063715018a61161023f578063c4e41b2211610139578063e2559a83116100b6578063f04e283e1161007a578063f04e283e14610cfe578063f2fde38b14610d11578063f36bdbc914610d24578063fbede22414610d44578063fee81cf414610d6457600080fd5b8063e2559a8314610c69578063e25f4f9214610c89578063e6877a1b14610ca9578063ec82120314610cc9578063ed83d79c14610ce957600080fd5b8063d3c7f026116100fd578063d3c7f02614610b4e578063d3e4160614610b6e578063d5501b0b14610c13578063d7533f0214610c2b578063dd75d64a14610c4957600080fd5b8063c4e41b2214610ac1578063c909e6ce14610ad6578063cc35489c14610af6578063cc85f5f214610b19578063d152a85914610b2e57600080fd5b8063989292da116101c7578063b5e2b0471161018b578063b5e2b04714610a4d578063b626382d14610a62578063bce2020d14610a77578063c24e385914610a8c578063c355d1ac14610aa157600080fd5b8063989292da146109b8578063a201ccf6146109d8578063a9ec1416146109f8578063acec338a14610a18578063b13c86a314610a3857600080fd5b806380295a741161020e57806380295a7414610935578063816e117c1461095557806389058b7d146109755780638da5cb5b1461098a57806395196f7e146109a357600080fd5b8063715018a6146108c4578063741bef1a146108cc57806375011b9c146109005780637db3fd691461092057600080fd5b80633cc87a201161035057806358c0994a116102d857806363e1d57c1161029c57806363e1d57c1461083a57806365f664251461084f57806367acf2411461086f5780636d206d6d1461088f5780636edd7590146108a457600080fd5b806358c0994a146107b05780635c220aa1146107c55780635ea679ef146107e55780636040963214610805578063622595b11461081a57600080fd5b8063435e13bf1161031f578063435e13bf1461073e57806346558d1b1461075e5780634d85468b146107735780634f3c15421461079357806354d1f13d146107a857600080fd5b80633cc87a20146106d95780633e742e3b146106f15780633ee112c014610706578063411efe251461071e57600080fd5b80631bde66e7116103de57806325692962116103a2578063256929621461065c5780632802e6db146106645780632a5aa2921461067957806332a9569a146106995780633911138f146106b957600080fd5b80631bde66e7146105955780631d32afa5146105d05780631ece366a146105f257806320fa4f8e1461061257806322f3e2d41461063257600080fd5b806308e9ef431161042557806308e9ef43146104d55780630902f1ac146104f55780630af968001461051f57806313d0143d1461056b578063162ca7101461058057600080fd5b80629a7ade1461045657806305307703146104895780630693ca3b1461049e57806306a7643c146104c0575b600080fd5b34801561046257600080fd5b50610476610471366004613f65565b610d97565b6040519081526020015b60405180910390f35b34801561049557600080fd5b50600554610476565b3480156104aa57600080fd5b506104be6104b9366004613f95565b610db4565b005b3480156104cc57600080fd5b50601c54610476565b3480156104e157600080fd5b506104be6104f0366004613f95565b610df8565b34801561050157600080fd5b5061050a610e3e565b60408051928352602083019190915201610480565b34801561052b57600080fd5b506105537f000000000000000000000000000000000000000000000000000000000000000081565b6040516001600160a01b039091168152602001610480565b34801561057757600080fd5b50600154610476565b34801561058c57600080fd5b50601954610476565b3480156105a157600080fd5b506105b56105b0366004613fca565b610e7b565b60408051938452602084019290925290820152606001610480565b3480156105dc57600080fd5b506105e561101d565b6040516104809190613fe5565b3480156105fe57600080fd5b506105b561060d36600461401e565b611085565b34801561061e57600080fd5b506104be61062d366004613f95565b61130d565b34801561063e57600080fd5b5060005462010000900460ff165b6040519015158152602001610480565b6104be611353565b34801561067057600080fd5b50602354610476565b34801561068557600080fd5b506104be610694366004613f95565b6113a3565b3480156106a557600080fd5b506104be6106b4366004613f95565b61148b565b3480156106c557600080fd5b506104766106d4366004613f65565b6114d1565b3480156106e557600080fd5b5060165460175461050a565b3480156106fd57600080fd5b50601e54610476565b34801561071257600080fd5b50600c54600d5461050a565b34801561072a57600080fd5b506104be610739366004613f95565b6114e5565b34801561074a57600080fd5b50610476610759366004613fca565b61152b565b34801561076a57600080fd5b50610476611560565b34801561077f57600080fd5b5061047661078e366004613f65565b61159b565b34801561079f57600080fd5b50600a54610476565b6104be611648565b3480156107bc57600080fd5b50610476611684565b3480156107d157600080fd5b506104766107e0366004613f95565b61168e565b3480156107f157600080fd5b506104be610800366004613f95565b6116bf565b34801561081157600080fd5b506104766116cc565b34801561082657600080fd5b506104be610835366004614057565b6116fc565b34801561084657600080fd5b50601854610476565b34801561085b57600080fd5b5061047661086a366004613f65565b611971565b34801561087b57600080fd5b506104be61088a366004613f95565b611b75565b34801561089b57600080fd5b50600b54610476565b3480156108b057600080fd5b5061050a6108bf366004613f95565b611bbb565b6104be611bd9565b3480156108d857600080fd5b506105537f000000000000000000000000000000000000000000000000000000000000000081565b34801561090c57600080fd5b5061050a61091b366004613fca565b611bed565b34801561092c57600080fd5b50602454610476565b34801561094157600080fd5b506104be610950366004613f95565b611c3a565b34801561096157600080fd5b506104be610970366004613f95565b611c80565b34801561098157600080fd5b50600654610476565b34801561099657600080fd5b50638b78c6d81954610553565b3480156109af57600080fd5b50600e54610476565b3480156109c457600080fd5b506104be6109d3366004614070565b611c8d565b3480156109e457600080fd5b506105b56109f3366004614092565b611cd5565b348015610a0457600080fd5b506104be610a13366004613f95565b612026565b348015610a2457600080fd5b506104be610a333660046140ae565b61206c565b348015610a4457600080fd5b506105e5612080565b348015610a5957600080fd5b50601d54610476565b348015610a6e57600080fd5b50601f54610476565b348015610a8357600080fd5b50600954610476565b348015610a9857600080fd5b506105b56120e8565b348015610aad57600080fd5b50610476610abc366004613f95565b61212c565b348015610acd57600080fd5b50600f54610476565b348015610ae257600080fd5b506104be610af1366004614070565b612137565b348015610b0257600080fd5b50610b0b61215b565b6040516104809291906140d0565b348015610b2557600080fd5b50600754610476565b348015610b3a57600080fd5b506104be610b49366004613f95565b6121c6565b348015610b5a57600080fd5b50610476610b69366004613f95565b61220c565b348015610b7a57600080fd5b50610b8e610b89366004613fca565b612232565b6040516104809190600061016082019050825182526020830151602083015260408301516040830152606083015160608301526080830151608083015260a083015160a083015260c083015160c083015260e083015160e083015261010080840151818401525061012080840151818401525061014080840151818401525092915050565b348015610c1f57600080fd5b5060105460115461050a565b348015610c3757600080fd5b506040516202a3008152602001610480565b348015610c5557600080fd5b50610476610c64366004613fca565b612243565b348015610c7557600080fd5b506104be610c84366004613f95565b612259565b348015610c9557600080fd5b506104be610ca4366004613f95565b61229f565b348015610cb557600080fd5b5061064c610cc4366004613fca565b6122ea565b348015610cd557600080fd5b50610476610ce4366004613f65565b61234b565b348015610cf557600080fd5b506105b56124bf565b6104be610d0c366004613fca565b61261d565b6104be610d1f366004613fca565b61265a565b348015610d3057600080fd5b50610476610d3f366004613f65565b612681565b348015610d5057600080fd5b506104be610d5f366004613f95565b61272e565b348015610d7057600080fd5b50610476610d7f366004613fca565b63389a75e1600c908152600091909152602090205490565b6000610dab8383610da6612774565b6127cd565b90505b92915050565b610dbc61288b565b60248190556040518181527fddf597735ce1589d62b031d58fd38367099e7e7e747ac10dfaf3063c99da91e8906020015b60405180910390a150565b610e0061288b565b610e09816128a6565b600a8190556040518181527fe75e3e311afafb466335ae8af3bf1d55443d8937fb5ada14583f4fca729c0fa890602001610ded565b6000806000610e4b612774565b60408101518151919250610e5e9161412c565b81606001518260200151610e72919061412c565b92509250509091565b6000806000610e886128cf565b6000610e9385612918565b90506000610eab82610ea36129b8565b601b54612a44565b90506000610ecf8360a00151601c54610ec4919061413f565b606085015190612ae5565b90506000610ee684610ee084612afa565b85612b13565b9098509650905080610f0b5760405163b30922a960e01b815260040160405180910390fd5b82610f24838660000151610f1f919061412c565b612afa565b610f2e9190614152565b9450610f3d8460600151612c2d565b50506000610f4e8560600151612afa565b905060405180610160016040528060008152602001600081526020016000815260200160008152602001600081526020016000815260200160008152602001600081526020016000815260200160008152602001438152509450886001600160a01b03167f49d315f170762335b83e413058f5b79a513ef7baa43e9e43d4c80c0622ab06c182610fdd90614172565b6060808901516040805193845260208401919091528201879052810187905260800160405180910390a26110118986612d69565b50505050509193909250565b61104f6040518060a0016040528060008152602001600081526020016000815260200160008152602001600081525090565b6040518060a001604052806001548152602001600254815260200160035481526020016004548152602001600554815250905090565b60008060006110926128cf565b61109a612df3565b60006110a588612918565b905043816101400151036110cc5760405163fd4b12b160e01b815260040160405180910390fd5b60006110d88888612ae5565b90506110ec6110e78983612e1c565b612e31565b6110f68187612e54565b919650945092506000611107613156565b905060008084606001516000146111b65761112b8584600001518560200151612a44565b915061114f8560a001518460600151611144919061413f565b606087015190612ae5565b90508085600001818151611163919061412c565b90525060c08501805182919061117a90839061412c565b905250606085015161012086015160408501516111a1929161119b91614152565b906131b4565b856080018181516111b2919061418e565b9052505b6000826111cc8d8860000151610f1f919061412c565b6111d69190614152565b9050600081136111f957604051632c7c1d6360e11b815260040160405180910390fd5b60405180610160016040528082815260200189886020015161121b919061412c565b8152602001888860400151611230919061412c565b81526020018a8860600151611245919061412c565b815260200187608001518152602001856060015181526020018760c00151815260200185600001518152602001856020015181526020018560400151815260200143815250955061129586613201565b61129f8d87612d69565b8c6001600160a01b03167f49d315f170762335b83e413058f5b79a513ef7baa43e9e43d4c80c0622ab06c16112d38b612afa565b6060808a01516040805193845260208401919091528201869052810186905260800160405180910390a25050505050509450945094915050565b61131561288b565b61131e816128a6565b60068190556040518181527f413bcf24bd99a421ccaf50a4a1dba0cfd78558ceb34625206d2e6dfa1a53ff2790602001610ded565b60006202a30067ffffffffffffffff164201905063389a75e1600c5233600052806020600c2055337fdbf36a107da19e49527a7176a1babf963b4b0ff8cde35ee35d6cd8f1f9ac7e1d600080a250565b6113ab61288b565b610e108110156113ce57604051630bf7c9bd60e21b815260040160405180910390fd5b601d8190556113de6002826141cc565b602055604051636b17ad0360e01b81523060048201527f00000000000000000000000000000000000000000000000000000000000000006001600160a01b031690636b17ad0390602401600060405180830381600087803b15801561144257600080fd5b505af1158015611456573d6000803e3d6000fd5b505050507f6ce6315004c92b2957244860cf57179c165f8c77755f841dcd1a7e315dc76afb81604051610ded91815260200190565b61149361288b565b61149c816128a6565b60048190556040518181527f8bfda404cbf4ce6e72ab164d5c72aaf4500bda00a57ab1f13d8b81c14edf8ccc90602001610ded565b6000610dab83836114e0612774565b613228565b6114ed61288b565b6114f6816128a6565b60078190556040518181527f878cd65339a771e627bc9856c713f02fec044bd7607db61e3858f8d56e4ea4f590602001610ded565b60008061153783612918565b90506115598160a00151601c5461154e919061413f565b606083015190612ae5565b9392505050565b6000611576600d546115706132de565b90612ae5565b61158c600c54611570611587612774565b613338565b611596919061412c565b905090565b6000806115a6612774565b90506000816040015182600001516115be919061412c565b90506000826060015183602001516115d6919061412c565b905060008660018111156115ec576115ec6141e0565b03611602576115fb858361412c565b9150611625565b8251851061161857629896809350505050610dae565b611622858361413f565b91505b6015546116329083612e1c565b905061163e8282612e1c565b9695505050505050565b63389a75e1600c523360005260006020600c2055337ffa7b8eab7da67f412cc9575ed43464468f9bfbae89d1675917346ca6d8fe3c92600080a2565b60006115966132de565b6000610dae6014546011546116a3919061412c565b6015546116b9906116b49086612e1c565b613351565b906133f4565b6116c761288b565b601e55565b6000806116d7612774565b905080602001516000036116ed57600091505090565b6116f681613338565b91505090565b600054610100900460ff161580801561171c5750600054600160ff909116105b806117365750303b158015611736575060005460ff166001145b61179d5760405162461bcd60e51b815260206004820152602e60248201527f496e697469616c697a61626c653a20636f6e747261637420697320616c72656160448201526d191e481a5b9a5d1a585b1a5e995960921b606482015260840160405180910390fd5b6000805460ff1916600117905580156117c0576000805461ff0019166101001790555b6117cd82604001356128a6565b6117da82606001356128a6565b6117e88261014001356128a6565b6117f68261016001356128a6565b6118048261018001356128a6565b611812826101a001356128a6565b611820826101c001356128a6565b61182d82608001356128a6565b61183a8260a001356128a6565b670de0b6b3a764000082610100013511156118685760405163698f22ad60e01b815260040160405180910390fd5b60c082013560185560e0820135601955608082013560095560a0820135600a55610120820135601e55610100820135600d8190556118ae90670de0b6b3a764000061413f565b600c556118c66118c16020840184613fca565b61341c565b6040820135600655606082013560075561014082013560015561016082013560029081556101808301356003556101a08301356004556101c08301356005556020830135601d81905561191991906141cc565b6020556119266001613458565b801561196d576000805461ff0019169055604051600181527f7f26b83ff96e1f2b6a682f133852f6798a09c465da95921460cefb3847402498906020015b60405180910390a15b5050565b600061197b6128cf565b8160000361199c5760405163eea7064360e01b815260040160405180910390fd5b60006119a6612774565b905060018460018111156119bc576119bc6141e0565b036119cf576119cf8160200151846134d0565b6119da848483613228565b915060008460018111156119f0576119f06141e0565b03611a01578051611a0190836134d0565b6001846001811115611a1557611a156141e0565b03611a4b578181600001818151611a2c919061412c565b905250602081018051849190611a4390839061413f565b905250611a78565b8181600001818151611a5d919061413f565b905250602081018051849190611a7490839061412c565b9052505b611ad5611aa982606001518360200151611a92919061412c565b60408401518451611aa3919061412c565b90612e1c565b8251602084015185611aba88612afa565b60015b8a6001811115611acf57611acf6141e0565b14613510565b7fbdc2af1c8c8c5e9838d5c3bf7ede849f60e061477dce4ec73a1e10053ec240c0848385604051611b08939291906141f6565b60405180910390a1604081015181517f5141ecc84a35c12ca2bf76bb33d393bd2fc22f906da0743534beef4ae63c6c8e91611b429161412c565b82606001518360200151611b56919061412c565b6040805192835260208301919091520160405180910390a15092915050565b611b7d61288b565b611b86816128a6565b600b8190556040518181527f879382899c61e679db091d48ae2646f0021988fe20a18f21e1b856acbc57bb5c90602001610ded565b600080611bd083601054601154600f546135ad565b91509150915091565b611be161288b565b611beb60006135d3565b565b6000806000611bfb84612918565b9050600080611c168360600151601054601154600f546135ad565b91509150611c2e836020015184604001518484613611565b94509450505050915091565b611c4261288b565b611c4b816128a6565b60018190556040518181527fd34babb0abb9a72918553cfe7b3612443c81b3ea59ba0f751d2bb7224d18d40790602001610ded565b611c8861288b565b601855565b611c9561288b565b6018829055601981905560408051838152602081018390527f7338f3784ceb8f9456bac0c4a69f1c6354dc325fa6455e3e3f6a8a9bf9249a7c9101611964565b6000806000611ce26128cf565b6000611ced86612918565b90506000611cf9613156565b90508160600151861115611d2057604051634876fe0560e01b815260040160405180910390fd5b600080611d2c88612c2d565b915091506000611d458585600001518660200151612a44565b90506000611d6b8660a001518660600151611d60919061413f565b606088015190612ae5565b9050808660c001818151611d7f919061412c565b905250855181908790611d9390839061412c565b9052506060860151600090611da9908c9061413f565b9050611de7611dcb8c89606001518a602001516136659092919063ffffffff16565b606089015160408a0151611de0918f90613665565b8787613611565b909a50985060008115611f045760608801518851611e06918e90613665565b985083611e1c8a8a60000151610f1f919061413f565b611e269190614152565b90506000811215611e4a57604051632c7c1d6360e11b815260040160405180910390fd5b611e6382896101200151896040015161119b9190614152565b88608001818151611e74919061418e565b91508181525050604051806101600160405280828152602001878a60200151611e9d919061413f565b8152602001868a60400151611eb2919061413f565b815260200183815260200189608001518152602001886060015181526020018960c001518152602001886000015181526020018860200151815260200188604001518152602001438152509750611f9c565b83611f128960000151612afa565b611f1c9190614152565b90506000811215611f4057604051632c7c1d6360e11b815260040160405180910390fd5b809850604051806101600160405280600081526020016000815260200160008152602001600081526020016000815260200160008152602001600081526020016000815260200160008152602001600081526020014381525097505b611fa588613201565b6001600160a01b038d167f49d315f170762335b83e413058f5b79a513ef7baa43e9e43d4c80c0622ab06c1611fe38e670de0b6b3a763ffff19613714565b6060808c01516040805193845260208401919091528201879052810187905260800160405180910390a26120178d89612d69565b50505050505050509250925092565b61202e61288b565b612037816128a6565b60058190556040518181527f6f825f18b787836f7cf974799b160538ab237aa0d14af3611fa69683a40c6d2290602001610ded565b61207461288b565b61207d81613458565b50565b6120b26040518060a0016040528060008152602001600081526020016000815260200160008152602001600081525090565b6040518060a0016040528060015481526020016009548152602001600a548152602001600b548152602001600554815250905090565b6000806000806120f6612774565b604081015181519192506121099161412c565b8160600151826020015161211d919061412c565b60155493509350935050909192565b6000610dae82613740565b61213f61288b565b61214882613351565b60165561215481613351565b6017555050565b61218d6040518060a0016040528060008152602001600081526020016000815260200160008152602001600081525090565b506040805160a081018252600154815260025460208201526003549181019190915260045460608201526005546080820152600f549091565b6121ce61288b565b6121d7816128a6565b60028190556040518181527f2534b354f571d8b893b9b19bf8e789ecd1e4234bd2f4dd8bf69a1076215e082590602001610ded565b6000610dae601354601054612221919061412c565b6015546116b9906116b49086612ae5565b61223a613f0b565b610dae82612918565b6000610dae61225183612918565b610ea36129b8565b61226161288b565b61226a816128a6565b60038190556040518181527f84768b1f13e0bce8851491951ac15cf6a8449926307a23459606a32bc9b3658090602001610ded565b6122a761288b565b670de0b6b3a76400008111156122d05760405163698f22ad60e01b815260040160405180910390fd5b6122e281670de0b6b3a764000061413f565b600c55600d55565b6000806122f683612918565b9050600061231a8260a00151601c5461230f919061413f565b606084015190612ae5565b9050600061232a83610ea36129b8565b905061233f8361233984612afa565b83612b13565b50909695505050505050565b60006123556128cf565b61235d612df3565b8160000361237e5760405163789593ed60e11b815260040160405180910390fd5b6000612388612774565b9050600184600181111561239e5761239e6141e0565b036123af5780516123af90846134d0565b6123ba8484836127cd565b915060008460018111156123d0576123d06141e0565b036123e3576123e38160200151836134d0565b60008460018111156123f7576123f76141e0565b0361242d57828160000181815161240e919061412c565b90525060208101805183919061242590839061413f565b90525061245a565b828160000181815161243f919061413f565b90525060208101805183919061245690839061412c565b9052505b61248c61247482606001518360200151611a92919061412c565b825160208401518661248587612afa565b6000611abd565b7fc840d6ec356bae99b60f3eca12969ceda50b96f8fb6c9418c3d0e073c0b52553848484604051611b08939291906141f6565b60008060006124cc6128cf565b6124d4612df3565b601f54601d54428211156124fb576040516313a2f3df60e31b815260040160405180910390fd5b612506601e54613740565b93506125106132de565b9250600061251d84612afa565b61252686612afa565b6125309190614152565b90506201518061253f83612afa565b612549908361422c565b612553919061425c565b601a54909650612563908761376c565b61256e90600161418e565b601b600082825461257f919061418e565b9091555050602054600090612594904261412c565b90506000610e106125a5858761412c565b6125af91906141cc565b6125bb90610e1061428a565b9050808210828218028218601f556125d388876137d6565b600e554260235560408051898152602081018890527fd2805fe76d30598332a67c1061cee82e2e102b0f59f5457b1729bce028a054a0910160405180910390a15050505050909192565b61262561288b565b63389a75e1600c52806000526020600c20805442111561264d57636f5e88186000526004601cfd5b6000905561207d816135d3565b61266261288b565b8060601b61267857637448fbae6000526004601cfd5b61207d816135d3565b60008061268c612774565b90506000816040015182600001516126a4919061412c565b90506000826060015183602001516126bc919061412c565b905060008660018111156126d2576126d26141e0565b036126e8576126e1858261412c565b9050612715565b826020015185106127085769021e19e0c9bab24000009350505050610dae565b612712858261413f565b90505b6015546127229082612e1c565b915061163e8282612e1c565b61273661288b565b61273f816128a6565b60098190556040518181527fd67453718fc57aad470d91be51568530ed02cc941c846cd9e281dc56b300e95e90602001610ded565b61279f6040518060800160405280600081526020016000815260200160008152602001600081525090565b6040518060800160405280601054815260200160115481526020016013548152602001601454815250905090565b6000826000036127df57506000611559565b604082015182516000916127f29161412c565b905060008360600151846020015161280a919061412c565b90506000866001811115612820576128206141e0565b036128365761282f858361412c565b9150612864565b835185106128575760405163226f999960e11b815260040160405180910390fd5b612861858361413f565b91505b6015546000906128749084612e1c565b905061288082826133f4565b979650505050505050565b638b78c6d819543314611beb576382b429006000526004601cfd5b670de0b6b3a764000081111561207d576040516306a4309560e01b815260040160405180910390fd5b336001600160a01b037f00000000000000000000000000000000000000000000000000000000000000001614611beb576040516308abb64b60e21b815260040160405180910390fd5b612920613f0b565b506001600160a01b0316600090815260226020908152604091829020825161016081018452815481526001820154928101929092526002810154928201929092526003820154606082015260048201546080820152600582015460a0820152600682015460c0820152600782015460e082015260088201546101008201526009820154610120820152600a9091015461014082015290565b6040516301ba907960e61b81523060048201526000907f00000000000000000000000000000000000000000000000000000000000000006001600160a01b031690636ea41e40906024015b602060405180830381865afa158015612a20573d6000803e3d6000fd5b505050506040513d601f19601f8201168201806040525081019061159691906142a1565b600083606001516000146115595760008460e0015184612a649190614152565b9050612aa08560600151612a868388610120015161376c90919063ffffffff16565b610100880151612a969087614152565b61119b9190614152565b6080860151612aaf908361376c565b612ab9919061418e565b91506000821215612add57612ad06103e88361425c565b612ada9083614152565b91505b509392505050565b6000610dab8383670de0b6b3a7640000613665565b6000600160ff1b8210612b0f57612b0f613803565b5090565b60008060008560600151600003612b3257506000915081905080612c24565b600080612b4b8860600151601054601154600f546135ad565b91509150612b63886020015189604001518484613611565b90945092506000612b86612b75611560565b60ff87901c60000380880118611570565b9050600080861315612bb557612b9b85612afa565b612ba483612afa565b612bae9190614152565b9050612bd4565b612bbe82612afa565b612bc786612afa565b612bd19190614152565b90505b6000888a83612be68e60000151612afa565b612bf0919061418e565b612bfa919061418e565b612c049190614152565b9050612c11600a54612afa565b612c1b82856137d6565b12975050505050505b93509350939050565b601054601154600f5460009283929091612c49868484846135ad565b9095509350612c58858461413f565b9250612c64848361413f565b9150612c70868261413f565b60108490556011839055600f81905590506000819003612ca3576000601281905560138190556014819055601555612cf3565b80601281905550600080612cbc83601654601754613811565b601382905560148190559092509050612ce2612cd8828661412c565b611570848861412c565b612ced90600161412c565b60155550505b6000612cfd612774565b90507f5141ecc84a35c12ca2bf76bb33d393bd2fc22f906da0743534beef4ae63c6c8e81604001518260000151612d34919061412c565b82606001518360200151612d48919061412c565b6040805192835260208301919091520160405180910390a150505050915091565b6001600160a01b0390911660009081526022602090815260409182902083518155908301516001820155908201516002820155606082015160038201556080820151600482015560a0820151600582015560c0820151600682015560e082015160078201556101008201516008820155610120820151600982015561014090910151600a90910155565b60005462010000900460ff16611beb57604051637dc579d960e11b815260040160405180910390fd5b6000610dab83670de0b6b3a764000084613665565b60095481101561207d5760405163f9322cc160e01b815260040160405180910390fd5b600f54601654601754601254600093849384939192909190838503612f4a576000612e7d6132de565b90506000612e8a82613351565b9050612ec78b61157086612e9e868a612e1c565b612ea986600261428a565b612eb3919061413f565b612ebd919061413f565b611aa3888661413f565b9750612f288b61157086612edb868a612e1c565b612ee686600261428a565b612ef0919061413f565b612efa919061413f565b612f0c670de0b6b3a76400008a612e1c565b612f1e670de0b6b3a764000087612e1c565b611aa3919061413f565b9650612f3e612f3989898888613834565b613932565b98508892505050613013565b6000612f57611587612774565b90506000612f6482613351565b90506000612fa88c61157087612f7a878b612e1c565b612f8587600261428a565b612f8f919061413f565b612f99919061413f565b670de0b6b3a764000090612e1c565b9050612fbe612fb7868461413f565b8290612ae5565b9850612ff1612fd5670de0b6b3a764000088612e1c565b612fe7670de0b6b3a764000085612e1c565b612fb7919061413f565b975061300184611aa38984612ae5565b995061300d818561412c565b93505050505b871580159061302157508787105b1561303f57604051633bca375560e01b815260040160405180910390fd5b6000613049612774565b9050868160000181815161305d919061412c565b90525060208101805187919061307490839061412c565b905250613082828585613811565b60608301526040820152613096888661412c565b600f5560128290558051601055602081015160118190556040820151601355606082015160148190556130de916130cd919061412c565b60408301518351611570919061412c565b6130e990600161412c565b601555604081015181517f5141ecc84a35c12ca2bf76bb33d393bd2fc22f906da0743534beef4ae63c6c8e9161311e9161412c565b82606001518360200151613132919061412c565b6040805192835260208301919091520160405180910390a150505050509250925092565b6131816040518060800160405280600081526020016000815260200160008152602001600081525090565b60405180608001604052806131946129b8565b8152602001601b548152602001601a548152602001601c54815250905090565b600080831280156131cb576131c884614172565b93505b6131e1610f1f8585670de0b6b3a7640000613665565b915080156131fa576131f282614172565b915050610dae565b5092915050565b61320a816139b7565b1561207d57604051630322cd6760e11b815260040160405180910390fd5b60008260000361323a57506000611559565b6040820151825160009161324d9161412c565b9050600083606001518460200151613265919061412c565b9050600086600181111561327b5761327b6141e0565b036132915761328a858261412c565b90506132c2565b836020015185106132b55760405163226f999960e11b815260040160405180910390fd5b6132bf858261413f565b90505b6015546000906132d29083612e1c565b905061288083826133f4565b601e5460405163763e94e560e11b815230600482015260248101919091526000907f00000000000000000000000000000000000000000000000000000000000000006001600160a01b03169063ec7d29ca90604401612a03565b6000610dae82606001518360200151611a92919061412c565b6000610dae61336883670de0b6b3a764000061428a565b70ffffffffffffffffffffffffffffffffff811160071b81811c68ffffffffffffffffff1060061b1781811c64ffffffffff1060051b1781811c62ffffff1060041b1781811c620100000160b5600192831c1b0260121c80830401811c80830401811c80830401811c80830401811c80830401811c80830401811c80830401901c908190048111900390565b6000610dab61340283612afa565b61340b85612afa565b818113818303929091038218021890565b6001600160a01b0316638b78c6d8198190558060007f8be0079c531659141344cd1fd0a4f28419497f9722a3daafe3b4186f6b6457e08180a350565b6000805482158015620100000262ff000019909216919091179091556134a4576040517fed1cd0670ee0c0017f550451a038818c696d0b6a9d6ce5b369e44275573cf9b090600090a150565b6040517f1142a68cc39970640eb3524e77b91f78be21abc64f20f5919387eb46699bb77290600090a150565b60065460008190036134e157505050565b6134eb8382612ae5565b82111561350b57604051630f51792960e01b815260040160405180910390fd5b505050565b61351986613abf565b60108590556011849055600f548161353a5761353583826137d6565b61354d565b61354483826137d6565b61354d90614172565b601a600082825461355e919061418e565b9250508190555061358481611aa360025461157060015489612ae590919063ffffffff16565b601c6000828254613595919061412c565b909155506135a4905087613b06565b50505050505050565b6000806135bb858785613665565b91506135c8848785613665565b905094509492505050565b638b78c6d81980546001600160a01b039092169182907f8be0079c531659141344cd1fd0a4f28419497f9722a3daafe3b4186f6b6457e0600080a355565b60008061361d85612afa565b61362684612afa565b6136309190614152565b915061271060ff83901c6000038084011810156136525750600090508061365c565b6135c886856133f4565b94509492505050565b6000838302600019848609818110820190038061369a578361368f5763ae47f7026000526004601cfd5b508290049050611559565b8084116136af5763ae47f7026000526004601cfd5b838587096000858103861695869004956003870260029081188089028203028089028203028089028203028089028203028089028203028089029091030291819003819004600101858411909403939093029190930391909104170290509392505050565b600080821280156131cb5761372883614172565b92506131e1610f1f8585670de0b6b3a7640000613665565b60215460009080820361375857611559611587612774565b61155961376660018361413f565b84613c30565b600080831281831280821415821561378a5761378786614172565b95505b811561379c5761379985614172565b94505b6137b2610f1f8787670de0b6b3a7640000613665565b935080156137cd576137c384614172565b9350505050610dae565b50505092915050565b600080831280156137ed576137ea84614172565b93505b6131e1610f1f85670de0b6b3a764000086613665565b6335278d126000526004601cfd5b60008061381e8584612ae5565b915061382a8585612e1c565b9050935093915050565b61385f6040518060800160405280600081526020016000815260200160008152602001600081525090565b6138698284612e1c565b61387b90670de0b6b3a764000061413f565b815260006138898685612e1c565b905060006138978685612ae5565b90506138a3818361412c565b60208401526138b28688612ae5565b606084015260006138d586611aa387611570671bc16d674ec80000818d8f612ae5565b905060006138f06138e68880612ae5565b611aa38b80612ae5565b90506139028661157081818c80612ae5565b6040860152613911818361412c565b85604001818151613922919061412c565b9052509398975050505050505050565b8051600090819061394b90671bc16d674ec80000612ae5565b905060006139768460000151611570673782dace9d9000008760600151612ae590919063ffffffff16565b9050600081856040015161398a919061412c565b9050600061399782613351565b905060008187602001516139ab919061412c565b90506128808186612e1c565b600081606001516000036139cd57506000919050565b6000806139e68460600151601054601154600f546135ad565b91509150600080613a01866020015187604001518686613611565b9150915081600003613a195750600095945050505050565b6000613a37613a26611560565b60ff85901c60000380860118611570565b9050600080841315613a6657613a4c83612afa565b613a5583612afa565b613a5f9190614152565b9050613a85565b613a6f82612afa565b613a7884612afa565b613a829190614152565b90505b613a90600a54612afa565b613ab28383613aa28c60000151612afa565b613aac919061418e565b906137d6565b1298975050505050505050565b600080613aca613dd4565b9150915081600003613adb57505050565b81831180613ae857508083105b1561350b5760405163090b0cb760e31b815260040160405180910390fd5b604080518281524260208201527f248a375298de3738db140ba94c80eb918d26810443fb0b791e77fb4158fe8735910160405180910390a16021548015613b8a5760006021613b5660018461413f565b81548110613b6657613b666142ba565b9060005260206000209060030201905043816002015403613b88579190915550565b505b50604080516060810182529182524260208301908152439183019182526021805460018101825560009190915292517f3a6357012c1a3ae0a17d304c9920310382d968ebcc4b1771f41c6b304205b570600390940293840155517f3a6357012c1a3ae0a17d304c9920310382d968ebcc4b1771f41c6b304205b571830155517f3a6357012c1a3ae0a17d304c9920310382d968ebcc4b1771f41c6b304205b57290910155565b60008060218481548110613c4657613c466142ba565b90600052602060002090600302016040518060600160405290816000820154815260200160018201548152602001600282015481525050905060008342613c8d919061413f565b905080826020015111613ca35750519050610dae565b83600003613cb45750519050610dae565b60208201516000613cc5824261413f565b90506000818560000151613cd9919061428a565b905060005b88600003613cfd57613cf083836141cc565b9650505050505050610dae565b6021896001900399508981548110613d1757613d176142ba565b6000918252602091829020604080516060810182526003909302909101805483526001810154938301849052600201549082015296508510613d7a57613d5d858561413f565b8651613d69919061428a565b613d73908361412c565b9150613dbd565b6020860151613d89908561413f565b8651909150613d9990829061428a565b613da3908361412c565b9150613daf818461412c565b925085602001519350613cde565b613dc788836141cc565b9998505050505050505050565b6007546000908190808203613dee57506000928392509050565b60215460008115613ec85760006021613e0860018561413f565b81548110613e1857613e186142ba565b906000526020600020906003020160405180606001604052908160008201548152602001600182015481526020016002820154815250509050438160400151148015613e645750600183115b15613ec0576021613e7660028561413f565b81548110613e8657613e866142ba565b9060005260206000209060030201604051806060016040529081600082015481526020016001820154815260200160028201548152505090505b519050613ed6565b613ed3611587612774565b90505b613eeb612fb784670de0b6b3a764000061412c565b9450613f02612fb784670de0b6b3a764000061413f565b93505050509091565b60405180610160016040528060008152602001600081526020016000815260200160008152602001600081526020016000815260200160008152602001600081526020016000815260200160008152602001600081525090565b60008060408385031215613f7857600080fd5b823560028110613f8757600080fd5b946020939093013593505050565b600060208284031215613fa757600080fd5b5035919050565b80356001600160a01b0381168114613fc557600080fd5b919050565b600060208284031215613fdc57600080fd5b610dab82613fae565b60a08101610dae828480518252602081015160208301526040810151604083015260608101516060830152608081015160808301525050565b6000806000806080858703121561403457600080fd5b61403d85613fae565b966020860135965060408601359560600135945092505050565b60006101e0828403121561406a57600080fd5b50919050565b6000806040838503121561408357600080fd5b50508035926020909101359150565b600080604083850312156140a557600080fd5b613f8783613fae565b6000602082840312156140c057600080fd5b8135801515811461155957600080fd5b60c08101614109828580518252602081015160208301526040810151604083015260608101516060830152608081015160808301525050565b8260a08301529392505050565b634e487b7160e01b600052601160045260246000fd5b80820180821115610dae57610dae614116565b81810381811115610dae57610dae614116565b81810360008312801583831316838312821617156131fa576131fa614116565b6000600160ff1b820161418757614187614116565b5060000390565b80820182811260008312801582168215821617156141ae576141ae614116565b505092915050565b634e487b7160e01b600052601260045260246000fd5b6000826141db576141db6141b6565b500490565b634e487b7160e01b600052602160045260246000fd5b606081016002851061421857634e487b7160e01b600052602160045260246000fd5b938152602081019290925260409091015290565b80820260008212600160ff1b8414161561424857614248614116565b8181058314821517610dae57610dae614116565b60008261426b5761426b6141b6565b600160ff1b82146000198414161561428557614285614116565b500590565b8082028115828204841417610dae57610dae614116565b6000602082840312156142b357600080fd5b5051919050565b634e487b7160e01b600052603260045260246000fdfea26469706673582212209d531e41282c163553caef3f703428b0e39f1f4d17040968b0b592e53ffb0bc864736f6c63430008130033",
    "linkReferences": {}
  },
  "methodIdentifiers": {
    "addLiquidity(address,uint256,uint256,uint256)": "1ece366a",
    "cancelOwnershipHandover()": "54d1f13d",
    "clearingHouse()": "0af96800",
    "completeOwnershipHandover(address)": "f04e283e",
    "getBaseFeeRatio()": "13d0143d",
    "getBaseToFill(uint256)": "5c220aa1",
    "getBaseValue(uint8,uint256)": "009a7ade",
    "getBounds()": "3cc87a20",
    "getFeeGrowth()": "06a7643c",
    "getFeeRatios()": "1d32afa5",
    "getFeeRatiosTotalSupply()": "cc35489c",
    "getFluctuationLimitRatio()": "cc85f5f2",
    "getFundingPeriod()": "b5e2b047",
    "getFundingRate()": "95196f7e",
    "getIndexPrice()": "58c0994a",
    "getLastSettledFundingTime()": "2802e6db",
    "getLiquidationFeeRatio()": "05307703",
    "getLiquidationPrice()": "46558d1b",
    "getMakerFundingPayment(address)": "dd75d64a",
    "getMakerImpermanentPosition(address)": "75011b9c",
    "getMakerPosition(address)": "d3e41606",
    "getMarginRatio()": "4f3c1542",
    "getMarkPrice()": "60409632",
    "getMarkPriceAfterClose(uint8,uint256)": "f36bdbc9",
    "getMarkPriceAfterOpen(uint8,uint256)": "4d85468b",
    "getMarkTwap(uint256)": "c355d1ac",
    "getMaxSize()": "63e1d57c",
    "getNextFundingTime()": "b626382d",
    "getOpenInterestCap()": "162ca710",
    "getOpenMarginRatio()": "bce2020d",
    "getPartialLiquidationRatio()": "6d206d6d",
    "getPendingMakerFees(address)": "435e13bf",
    "getPriceWeights()": "3ee112c0",
    "getQuoteToFill(uint256)": "d3c7f026",
    "getQuoteValue(uint8,uint256)": "3911138f",
    "getRatios()": "b13c86a3",
    "getRealReserves()": "d5501b0b",
    "getReserves()": "0902f1ac",
    "getReservesAndK()": "c24e3859",
    "getShareValue(uint256)": "6edd7590",
    "getTickSpacing()": "7db3fd69",
    "getTotalSupply()": "c4e41b22",
    "getTradeLimitRatio()": "89058b7d",
    "getTwapInterval()": "3e742e3b",
    "initialize((address,uint256,uint256,uint256,uint256,uint256,uint256,uint256,uint256,uint256,uint256,uint256,uint256,uint256,uint256))": "622595b1",
    "isActive()": "22f3e2d4",
    "isMakerLiquidatable(address)": "e6877a1b",
    "liquidateMaker(address)": "1bde66e7",
    "owner()": "8da5cb5b",
    "ownershipHandoverExpiresAt(address)": "fee81cf4",
    "ownershipHandoverValidFor()": "d7533f02",
    "priceFeed()": "741bef1a",
    "removeLiquidity(address,uint256)": "a201ccf6",
    "renounceOwnership()": "715018a6",
    "requestOwnershipHandover()": "25692962",
    "setAMMFeeRatio(uint256)": "d152a859",
    "setActive(bool)": "acec338a",
    "setBaseFeeRatio(uint256)": "80295a74",
    "setBounds(uint256,uint256)": "c909e6ce",
    "setCap(uint256,uint256)": "989292da",
    "setFluctuationLimitRatio(uint256)": "411efe25",
    "setFundingPeriod(uint256)": "2a5aa292",
    "setIndexPriceWeight(uint256)": "e25f4f92",
    "setInitMarginRatio(uint256)": "fbede224",
    "setKeeperFeeRatio(uint256)": "32a9569a",
    "setLimitMakerFeeRatio(uint256)": "e2559a83",
    "setLiquidationFeeRatio(uint256)": "a9ec1416",
    "setMaintenanceMarginRatio(uint256)": "08e9ef43",
    "setMaxSize(uint256)": "816e117c",
    "setPartialLiquidationRatio(uint256)": "67acf241",
    "setTickSpacing(uint256)": "0693ca3b",
    "setTradeLimitRatio(uint256)": "20fa4f8e",
    "setTwapInterval(uint256)": "5ea679ef",
    "settleFunding()": "ed83d79c",
    "swapClose(uint8,uint256)": "65f66425",
    "swapOpen(uint8,uint256)": "ec821203",
    "transferOwnership(address)": "f2fde38b"
  },
  "id": 41
}