{
	"abi": [
		{
			"inputs": [
				{
					"internalType": "address",
					"name": "_weth",
					"type": "address"
				},
				{
					"internalType": "address",
					"name": "_insuranceFund",
					"type": "address"
				},
				{
					"internalType": "address",
					"name": "_positionManager",
					"type": "address"
				},
				{
					"internalType": "address",
					"name": "_positionMerger",
					"type": "address"
				},
				{
					"internalType": "address",
					"name": "_orderCreator",
					"type": "address"
				}
			],
			"stateMutability": "nonpayable",
			"type": "constructor"
		},
		{
			"inputs": [],
			"name": "AMM_IS_ACTIVE",
			"type": "error"
		},
		{
			"inputs": [],
			"name": "BAD_DEBT",
			"type": "error"
		},
		{
			"inputs": [],
			"name": "INACTIVE",
			"type": "error"
		},
		{
			"inputs": [],
			"name": "INSUFFICIENT_LIQUIDITY",
			"type": "error"
		},
		{
			"inputs": [],
			"name": "INSUFFICIENT_MARGIN",
			"type": "error"
		},
		{
			"inputs": [],
			"name": "INSUFFICIENT_OPEN_NOTIONAL",
			"type": "error"
		},
		{
			"inputs": [],
			"name": "INSUFFICIENT_SIZE",
			"type": "error"
		},
		{
			"inputs": [],
			"name": "INVALID_AMM",
			"type": "error"
		},
		{
			"inputs": [],
			"name": "INVALID_MARGIN_RATIO",
			"type": "error"
		},
		{
			"inputs": [],
			"name": "INVALID_SIDE",
			"type": "error"
		},
		{
			"inputs": [],
			"name": "INVALID_TRIGGER_AMOUNT",
			"type": "error"
		},
		{
			"inputs": [],
			"name": "LIQUIDATABLE",
			"type": "error"
		},
		{
			"inputs": [],
			"name": "NOT_LIMIT_CLOSE",
			"type": "error"
		},
		{
			"inputs": [],
			"name": "NOT_LIQUIDATABLE",
			"type": "error"
		},
		{
			"inputs": [],
			"name": "NOT_REDUCE_ONLY",
			"type": "error"
		},
		{
			"inputs": [],
			"name": "NOT_TRADER",
			"type": "error"
		},
		{
			"inputs": [],
			"name": "NO_POSITION",
			"type": "error"
		},
		{
			"inputs": [],
			"name": "NewOwnerIsZeroAddress",
			"type": "error"
		},
		{
			"inputs": [],
			"name": "NoHandoverRequest",
			"type": "error"
		},
		{
			"inputs": [],
			"name": "OPEN_INTEREST_CAP_EXCEEDED",
			"type": "error"
		},
		{
			"inputs": [],
			"name": "OVER_DIVERGENCE_CAP",
			"type": "error"
		},
		{
			"inputs": [],
			"name": "OVER_MAX_SIZE",
			"type": "error"
		},
		{
			"inputs": [],
			"name": "SANDWICH",
			"type": "error"
		},
		{
			"inputs": [],
			"name": "TRIGGER_INVALID",
			"type": "error"
		},
		{
			"inputs": [],
			"name": "TRIGGER_ON_MARK",
			"type": "error"
		},
		{
			"inputs": [],
			"name": "Unauthorized",
			"type": "error"
		},
		{
			"anonymous": false,
			"inputs": [],
			"name": "Activated",
			"type": "event"
		},
		{
			"anonymous": false,
			"inputs": [],
			"name": "Deactivated",
			"type": "event"
		},
		{
			"anonymous": false,
			"inputs": [
				{
					"indexed": true,
					"internalType": "contract IAMM",
					"name": "amm",
					"type": "address"
				},
				{
					"indexed": false,
					"internalType": "uint256",
					"name": "markPrice",
					"type": "uint256"
				},
				{
					"indexed": false,
					"internalType": "uint256",
					"name": "indexPrice",
					"type": "uint256"
				},
				{
					"indexed": false,
					"internalType": "int256",
					"name": "premiumFraction",
					"type": "int256"
				},
				{
					"indexed": false,
					"internalType": "int256",
					"name": "premiumFractionPerShare",
					"type": "int256"
				}
			],
			"name": "FundingSettled",
			"type": "event"
		},
		{
			"anonymous": false,
			"inputs": [
				{
					"indexed": false,
					"internalType": "uint8",
					"name": "version",
					"type": "uint8"
				}
			],
			"name": "Initialized",
			"type": "event"
		},
		{
			"anonymous": false,
			"inputs": [
				{
					"indexed": true,
					"internalType": "uint256",
					"name": "id",
					"type": "uint256"
				},
				{
					"indexed": false,
					"internalType": "contract IAMM",
					"name": "amm",
					"type": "address"
				},
				{
					"indexed": true,
					"internalType": "address",
					"name": "trader",
					"type": "address"
				},
				{
					"indexed": false,
					"internalType": "bool",
					"name": "filled",
					"type": "bool"
				}
			],
			"name": "LimitOrderRemoved",
			"type": "event"
		},
		{
			"anonymous": false,
			"inputs": [
				{
					"indexed": true,
					"internalType": "uint256",
					"name": "id",
					"type": "uint256"
				},
				{
					"indexed": true,
					"internalType": "contract IAMM",
					"name": "amm",
					"type": "address"
				},
				{
					"indexed": true,
					"internalType": "address",
					"name": "trader",
					"type": "address"
				},
				{
					"components": [
						{
							"internalType": "address",
							"name": "trader",
							"type": "address"
						},
						{
							"internalType": "contract IAMM",
							"name": "amm",
							"type": "address"
						},
						{
							"internalType": "enum Side",
							"name": "side",
							"type": "uint8"
						},
						{
							"internalType": "uint256",
							"name": "trigger",
							"type": "uint256"
						},
						{
							"internalType": "uint256",
							"name": "quoteAmount",
							"type": "uint256"
						},
						{
							"internalType": "uint256",
							"name": "leverage",
							"type": "uint256"
						},
						{
							"internalType": "bool",
							"name": "reduceOnly",
							"type": "bool"
						}
					],
					"indexed": false,
					"internalType": "struct LimitOrder",
					"name": "order",
					"type": "tuple"
				}
			],
			"name": "LimitOrderUpdated",
			"type": "event"
		},
		{
			"anonymous": false,
			"inputs": [
				{
					"indexed": true,
					"internalType": "contract IAMM",
					"name": "amm",
					"type": "address"
				},
				{
					"indexed": true,
					"internalType": "address",
					"name": "maker",
					"type": "address"
				},
				{
					"indexed": false,
					"internalType": "uint256",
					"name": "liquidity",
					"type": "uint256"
				},
				{
					"indexed": false,
					"internalType": "int256",
					"name": "fundingPayment",
					"type": "int256"
				}
			],
			"name": "LiquidityAdded",
			"type": "event"
		},
		{
			"anonymous": false,
			"inputs": [
				{
					"indexed": true,
					"internalType": "contract IAMM",
					"name": "amm",
					"type": "address"
				},
				{
					"indexed": true,
					"internalType": "address",
					"name": "trader",
					"type": "address"
				},
				{
					"indexed": false,
					"internalType": "uint256",
					"name": "liquidity",
					"type": "uint256"
				},
				{
					"indexed": false,
					"internalType": "int256",
					"name": "sizeRemoved",
					"type": "int256"
				},
				{
					"indexed": false,
					"internalType": "uint256",
					"name": "marginRemoved",
					"type": "uint256"
				},
				{
					"indexed": false,
					"internalType": "uint256",
					"name": "feeRealized",
					"type": "uint256"
				}
			],
			"name": "LiquidityRemoved",
			"type": "event"
		},
		{
			"anonymous": false,
			"inputs": [
				{
					"indexed": true,
					"internalType": "contract IAMM",
					"name": "amm",
					"type": "address"
				},
				{
					"indexed": true,
					"internalType": "address",
					"name": "trader",
					"type": "address"
				},
				{
					"indexed": false,
					"internalType": "uint256",
					"name": "amount",
					"type": "uint256"
				}
			],
			"name": "MarginAdded",
			"type": "event"
		},
		{
			"anonymous": false,
			"inputs": [
				{
					"indexed": true,
					"internalType": "contract IAMM",
					"name": "amm",
					"type": "address"
				},
				{
					"indexed": true,
					"internalType": "address",
					"name": "trader",
					"type": "address"
				},
				{
					"indexed": false,
					"internalType": "uint256",
					"name": "amount",
					"type": "uint256"
				}
			],
			"name": "MarginRemoved",
			"type": "event"
		},
		{
			"anonymous": false,
			"inputs": [
				{
					"indexed": true,
					"internalType": "contract IAMM",
					"name": "amm",
					"type": "address"
				},
				{
					"indexed": false,
					"internalType": "uint256",
					"name": "newOpenInterest",
					"type": "uint256"
				}
			],
			"name": "OpenInterestChanged",
			"type": "event"
		},
		{
			"anonymous": false,
			"inputs": [
				{
					"indexed": true,
					"internalType": "address",
					"name": "pendingOwner",
					"type": "address"
				}
			],
			"name": "OwnershipHandoverCanceled",
			"type": "event"
		},
		{
			"anonymous": false,
			"inputs": [
				{
					"indexed": true,
					"internalType": "address",
					"name": "pendingOwner",
					"type": "address"
				}
			],
			"name": "OwnershipHandoverRequested",
			"type": "event"
		},
		{
			"anonymous": false,
			"inputs": [
				{
					"indexed": true,
					"internalType": "address",
					"name": "oldOwner",
					"type": "address"
				},
				{
					"indexed": true,
					"internalType": "address",
					"name": "newOwner",
					"type": "address"
				}
			],
			"name": "OwnershipTransferred",
			"type": "event"
		},
		{
			"anonymous": false,
			"inputs": [
				{
					"indexed": true,
					"internalType": "contract IAMM",
					"name": "amm",
					"type": "address"
				},
				{
					"indexed": true,
					"internalType": "address",
					"name": "trader",
					"type": "address"
				},
				{
					"indexed": false,
					"internalType": "uint256",
					"name": "margin",
					"type": "uint256"
				},
				{
					"indexed": false,
					"internalType": "int256",
					"name": "size",
					"type": "int256"
				},
				{
					"indexed": false,
					"internalType": "uint256",
					"name": "exchangedQuote",
					"type": "uint256"
				},
				{
					"indexed": false,
					"internalType": "int256",
					"name": "exchangedBase",
					"type": "int256"
				},
				{
					"indexed": false,
					"internalType": "int256",
					"name": "realizedPnL",
					"type": "int256"
				},
				{
					"indexed": false,
					"internalType": "int256",
					"name": "fundingPayment",
					"type": "int256"
				},
				{
					"indexed": false,
					"internalType": "uint256",
					"name": "markPrice",
					"type": "uint256"
				},
				{
					"indexed": false,
					"internalType": "uint256",
					"name": "ifFee",
					"type": "uint256"
				},
				{
					"indexed": false,
					"internalType": "uint256",
					"name": "ammFee",
					"type": "uint256"
				},
				{
					"indexed": false,
					"internalType": "uint256",
					"name": "limitFee",
					"type": "uint256"
				},
				{
					"indexed": false,
					"internalType": "uint256",
					"name": "liquidationPenalty",
					"type": "uint256"
				},
				{
					"indexed": false,
					"internalType": "uint256",
					"name": "keeperFee",
					"type": "uint256"
				}
			],
			"name": "PositionChanged",
			"type": "event"
		},
		{
			"anonymous": false,
			"inputs": [
				{
					"indexed": true,
					"internalType": "uint256",
					"name": "id",
					"type": "uint256"
				},
				{
					"indexed": true,
					"internalType": "contract IAMM",
					"name": "amm",
					"type": "address"
				},
				{
					"indexed": true,
					"internalType": "address",
					"name": "trader",
					"type": "address"
				},
				{
					"indexed": false,
					"internalType": "address",
					"name": "keeper",
					"type": "address"
				}
			],
			"name": "TriggerOrderRemoved",
			"type": "event"
		},
		{
			"anonymous": false,
			"inputs": [
				{
					"indexed": true,
					"internalType": "uint256",
					"name": "id",
					"type": "uint256"
				},
				{
					"indexed": true,
					"internalType": "contract IAMM",
					"name": "amm",
					"type": "address"
				},
				{
					"indexed": true,
					"internalType": "address",
					"name": "trader",
					"type": "address"
				},
				{
					"components": [
						{
							"internalType": "address",
							"name": "trader",
							"type": "address"
						},
						{
							"internalType": "contract IAMM",
							"name": "amm",
							"type": "address"
						},
						{
							"internalType": "uint256",
							"name": "trigger",
							"type": "uint256"
						},
						{
							"internalType": "uint256",
							"name": "size",
							"type": "uint256"
						},
						{
							"internalType": "uint256",
							"name": "quoteLimit",
							"type": "uint256"
						},
						{
							"internalType": "bool",
							"name": "takeProfit",
							"type": "bool"
						}
					],
					"indexed": false,
					"internalType": "struct TriggerOrder",
					"name": "order",
					"type": "tuple"
				}
			],
			"name": "TriggerOrderUpdated",
			"type": "event"
		},
		{
			"inputs": [
				{
					"internalType": "contract IAMM",
					"name": "amm",
					"type": "address"
				},
				{
					"internalType": "uint256",
					"name": "margin",
					"type": "uint256"
				},
				{
					"internalType": "uint256",
					"name": "leverage",
					"type": "uint256"
				},
				{
					"internalType": "uint256",
					"name": "minLiquidity",
					"type": "uint256"
				}
			],
			"name": "addLiquidity",
			"outputs": [
				{
					"internalType": "uint256",
					"name": "liquidity",
					"type": "uint256"
				}
			],
			"stateMutability": "nonpayable",
			"type": "function"
		},
		{
			"inputs": [
				{
					"internalType": "contract IAMM",
					"name": "amm",
					"type": "address"
				},
				{
					"internalType": "uint256",
					"name": "margin",
					"type": "uint256"
				}
			],
			"name": "addMargin",
			"outputs": [],
			"stateMutability": "nonpayable",
			"type": "function"
		},
		{
			"inputs": [],
			"name": "cancelOwnershipHandover",
			"outputs": [],
			"stateMutability": "payable",
			"type": "function"
		},
		{
			"inputs": [
				{
					"internalType": "contract IAMM",
					"name": "amm",
					"type": "address"
				},
				{
					"internalType": "uint256",
					"name": "size",
					"type": "uint256"
				},
				{
					"internalType": "uint256",
					"name": "quoteLimit",
					"type": "uint256"
				}
			],
			"name": "closePosition",
			"outputs": [],
			"stateMutability": "nonpayable",
			"type": "function"
		},
		{
			"inputs": [
				{
					"internalType": "contract IAMM",
					"name": "amm",
					"type": "address"
				},
				{
					"internalType": "uint256",
					"name": "id",
					"type": "uint256"
				}
			],
			"name": "closePositionKeeper",
			"outputs": [],
			"stateMutability": "nonpayable",
			"type": "function"
		},
		{
			"inputs": [
				{
					"internalType": "address",
					"name": "pendingOwner",
					"type": "address"
				}
			],
			"name": "completeOwnershipHandover",
			"outputs": [],
			"stateMutability": "payable",
			"type": "function"
		},
		{
			"inputs": [
				{
					"components": [
						{
							"internalType": "address",
							"name": "trader",
							"type": "address"
						},
						{
							"internalType": "contract IAMM",
							"name": "amm",
							"type": "address"
						},
						{
							"internalType": "enum Side",
							"name": "side",
							"type": "uint8"
						},
						{
							"internalType": "uint256",
							"name": "trigger",
							"type": "uint256"
						},
						{
							"internalType": "uint256",
							"name": "quoteAmount",
							"type": "uint256"
						},
						{
							"internalType": "uint256",
							"name": "leverage",
							"type": "uint256"
						},
						{
							"internalType": "bool",
							"name": "reduceOnly",
							"type": "bool"
						}
					],
					"internalType": "struct LimitOrder",
					"name": "order",
					"type": "tuple"
				}
			],
			"name": "createLimitOrder",
			"outputs": [
				{
					"internalType": "uint256",
					"name": "id",
					"type": "uint256"
				}
			],
			"stateMutability": "nonpayable",
			"type": "function"
		},
		{
			"inputs": [
				{
					"components": [
						{
							"internalType": "address",
							"name": "trader",
							"type": "address"
						},
						{
							"internalType": "contract IAMM",
							"name": "amm",
							"type": "address"
						},
						{
							"internalType": "enum Side",
							"name": "side",
							"type": "uint8"
						},
						{
							"internalType": "uint256",
							"name": "trigger",
							"type": "uint256"
						},
						{
							"internalType": "uint256",
							"name": "quoteAmount",
							"type": "uint256"
						},
						{
							"internalType": "uint256",
							"name": "leverage",
							"type": "uint256"
						},
						{
							"internalType": "bool",
							"name": "reduceOnly",
							"type": "bool"
						}
					],
					"internalType": "struct LimitOrder[]",
					"name": "_orders",
					"type": "tuple[]"
				}
			],
			"name": "createLimitOrderBatch",
			"outputs": [
				{
					"internalType": "uint256[]",
					"name": "ids",
					"type": "uint256[]"
				}
			],
			"stateMutability": "nonpayable",
			"type": "function"
		},
		{
			"inputs": [
				{
					"components": [
						{
							"internalType": "address",
							"name": "trader",
							"type": "address"
						},
						{
							"internalType": "contract IAMM",
							"name": "amm",
							"type": "address"
						},
						{
							"internalType": "uint256",
							"name": "trigger",
							"type": "uint256"
						},
						{
							"internalType": "uint256",
							"name": "size",
							"type": "uint256"
						},
						{
							"internalType": "uint256",
							"name": "quoteLimit",
							"type": "uint256"
						},
						{
							"internalType": "bool",
							"name": "takeProfit",
							"type": "bool"
						}
					],
					"internalType": "struct TriggerOrder",
					"name": "order",
					"type": "tuple"
				}
			],
			"name": "createTriggerOrder",
			"outputs": [
				{
					"internalType": "uint256",
					"name": "id",
					"type": "uint256"
				}
			],
			"stateMutability": "nonpayable",
			"type": "function"
		},
		{
			"inputs": [
				{
					"internalType": "uint256",
					"name": "id",
					"type": "uint256"
				}
			],
			"name": "deleteLimitOrder",
			"outputs": [],
			"stateMutability": "nonpayable",
			"type": "function"
		},
		{
			"inputs": [
				{
					"internalType": "uint256[]",
					"name": "ids",
					"type": "uint256[]"
				}
			],
			"name": "deleteLimitOrderBatch",
			"outputs": [],
			"stateMutability": "nonpayable",
			"type": "function"
		},
		{
			"inputs": [
				{
					"internalType": "contract IAMM",
					"name": "amm",
					"type": "address"
				},
				{
					"internalType": "uint256",
					"name": "id",
					"type": "uint256"
				}
			],
			"name": "deleteTriggerOrder",
			"outputs": [],
			"stateMutability": "nonpayable",
			"type": "function"
		},
		{
			"inputs": [
				{
					"internalType": "contract IAMM",
					"name": "amm",
					"type": "address"
				},
				{
					"internalType": "address",
					"name": "trader",
					"type": "address"
				}
			],
			"name": "forceLiquidate",
			"outputs": [],
			"stateMutability": "nonpayable",
			"type": "function"
		},
		{
			"inputs": [
				{
					"internalType": "contract IAMM",
					"name": "amm",
					"type": "address"
				}
			],
			"name": "getAMMData",
			"outputs": [
				{
					"components": [
						{
							"internalType": "int256",
							"name": "premiumFraction",
							"type": "int256"
						},
						{
							"internalType": "int256",
							"name": "premiumFractionPerShare",
							"type": "int256"
						},
						{
							"internalType": "int256",
							"name": "netPositionOffsetPerShare",
							"type": "int256"
						},
						{
							"internalType": "uint256",
							"name": "feeGrowth",
							"type": "uint256"
						}
					],
					"internalType": "struct AMMData",
					"name": "",
					"type": "tuple"
				}
			],
			"stateMutability": "view",
			"type": "function"
		},
		{
			"inputs": [
				{
					"internalType": "contract IAMM",
					"name": "amm",
					"type": "address"
				}
			],
			"name": "getCumulativePremiumFraction",
			"outputs": [
				{
					"internalType": "int256",
					"name": "",
					"type": "int256"
				}
			],
			"stateMutability": "view",
			"type": "function"
		},
		{
			"inputs": [
				{
					"internalType": "contract IAMM",
					"name": "amm",
					"type": "address"
				}
			],
			"name": "getCumulativePremiumFractionPerShare",
			"outputs": [
				{
					"internalType": "int256",
					"name": "",
					"type": "int256"
				}
			],
			"stateMutability": "view",
			"type": "function"
		},
		{
			"inputs": [],
			"name": "getDivergenceCap",
			"outputs": [
				{
					"internalType": "uint256",
					"name": "",
					"type": "uint256"
				}
			],
			"stateMutability": "view",
			"type": "function"
		},
		{
			"inputs": [
				{
					"internalType": "contract IAMM",
					"name": "amm",
					"type": "address"
				}
			],
			"name": "getFeeGrowth",
			"outputs": [
				{
					"internalType": "uint256",
					"name": "",
					"type": "uint256"
				}
			],
			"stateMutability": "view",
			"type": "function"
		},
		{
			"inputs": [
				{
					"internalType": "uint256",
					"name": "id",
					"type": "uint256"
				}
			],
			"name": "getLimitOrder",
			"outputs": [
				{
					"components": [
						{
							"internalType": "address",
							"name": "trader",
							"type": "address"
						},
						{
							"internalType": "contract IAMM",
							"name": "amm",
							"type": "address"
						},
						{
							"internalType": "enum Side",
							"name": "side",
							"type": "uint8"
						},
						{
							"internalType": "uint256",
							"name": "trigger",
							"type": "uint256"
						},
						{
							"internalType": "uint256",
							"name": "quoteAmount",
							"type": "uint256"
						},
						{
							"internalType": "uint256",
							"name": "leverage",
							"type": "uint256"
						},
						{
							"internalType": "bool",
							"name": "reduceOnly",
							"type": "bool"
						}
					],
					"internalType": "struct LimitOrder",
					"name": "",
					"type": "tuple"
				}
			],
			"stateMutability": "view",
			"type": "function"
		},
		{
			"inputs": [],
			"name": "getMinOrderbookMargin",
			"outputs": [
				{
					"internalType": "uint256",
					"name": "",
					"type": "uint256"
				}
			],
			"stateMutability": "view",
			"type": "function"
		},
		{
			"inputs": [
				{
					"internalType": "contract IAMM",
					"name": "amm",
					"type": "address"
				}
			],
			"name": "getOpenInterestNotional",
			"outputs": [
				{
					"internalType": "uint256",
					"name": "",
					"type": "uint256"
				}
			],
			"stateMutability": "view",
			"type": "function"
		},
		{
			"inputs": [
				{
					"internalType": "contract IAMM",
					"name": "amm",
					"type": "address"
				},
				{
					"internalType": "address",
					"name": "trader",
					"type": "address"
				}
			],
			"name": "getPosition",
			"outputs": [
				{
					"components": [
						{
							"internalType": "int256",
							"name": "size",
							"type": "int256"
						},
						{
							"internalType": "uint256",
							"name": "margin",
							"type": "uint256"
						},
						{
							"internalType": "uint256",
							"name": "openNotional",
							"type": "uint256"
						},
						{
							"internalType": "int256",
							"name": "lastPremiumFraction",
							"type": "int256"
						},
						{
							"internalType": "uint256",
							"name": "blockNumber",
							"type": "uint256"
						}
					],
					"internalType": "struct Position",
					"name": "",
					"type": "tuple"
				}
			],
			"stateMutability": "view",
			"type": "function"
		},
		{
			"inputs": [
				{
					"internalType": "contract IAMM",
					"name": "amm",
					"type": "address"
				},
				{
					"internalType": "address",
					"name": "trader",
					"type": "address"
				}
			],
			"name": "getPositionNotionalUpnl",
			"outputs": [
				{
					"internalType": "uint256",
					"name": "positionNotional",
					"type": "uint256"
				},
				{
					"internalType": "int256",
					"name": "upnl",
					"type": "int256"
				}
			],
			"stateMutability": "view",
			"type": "function"
		},
		{
			"inputs": [
				{
					"internalType": "contract IAMM",
					"name": "amm",
					"type": "address"
				},
				{
					"internalType": "int256",
					"name": "size",
					"type": "int256"
				},
				{
					"internalType": "uint256",
					"name": "openNotional",
					"type": "uint256"
				}
			],
			"name": "getPositionNotionalUpnlByPosition",
			"outputs": [
				{
					"internalType": "uint256",
					"name": "",
					"type": "uint256"
				},
				{
					"internalType": "int256",
					"name": "",
					"type": "int256"
				}
			],
			"stateMutability": "view",
			"type": "function"
		},
		{
			"inputs": [
				{
					"internalType": "address",
					"name": "trader",
					"type": "address"
				},
				{
					"internalType": "contract IAMM",
					"name": "amm",
					"type": "address"
				}
			],
			"name": "getReduceOnlyOrders",
			"outputs": [
				{
					"internalType": "uint256[]",
					"name": "",
					"type": "uint256[]"
				}
			],
			"stateMutability": "view",
			"type": "function"
		},
		{
			"inputs": [
				{
					"internalType": "contract IAMM",
					"name": "amm",
					"type": "address"
				}
			],
			"name": "getTotalPositionSize",
			"outputs": [
				{
					"components": [
						{
							"internalType": "int256",
							"name": "netPositionSize",
							"type": "int256"
						},
						{
							"internalType": "int256",
							"name": "netPositionOffsetPerShare",
							"type": "int256"
						},
						{
							"internalType": "uint256",
							"name": "positionSizeLong",
							"type": "uint256"
						},
						{
							"internalType": "uint256",
							"name": "positionSizeShort",
							"type": "uint256"
						}
					],
					"internalType": "struct TotalPositionSize",
					"name": "",
					"type": "tuple"
				}
			],
			"stateMutability": "view",
			"type": "function"
		},
		{
			"inputs": [
				{
					"internalType": "uint256",
					"name": "id",
					"type": "uint256"
				}
			],
			"name": "getTriggerOrder",
			"outputs": [
				{
					"components": [
						{
							"internalType": "address",
							"name": "trader",
							"type": "address"
						},
						{
							"internalType": "contract IAMM",
							"name": "amm",
							"type": "address"
						},
						{
							"internalType": "uint256",
							"name": "trigger",
							"type": "uint256"
						},
						{
							"internalType": "uint256",
							"name": "size",
							"type": "uint256"
						},
						{
							"internalType": "uint256",
							"name": "quoteLimit",
							"type": "uint256"
						},
						{
							"internalType": "bool",
							"name": "takeProfit",
							"type": "bool"
						}
					],
					"internalType": "struct TriggerOrder",
					"name": "",
					"type": "tuple"
				}
			],
			"stateMutability": "view",
			"type": "function"
		},
		{
			"inputs": [
				{
					"internalType": "address",
					"name": "trader",
					"type": "address"
				},
				{
					"internalType": "contract IAMM",
					"name": "amm",
					"type": "address"
				}
			],
			"name": "getTriggerOrders",
			"outputs": [
				{
					"internalType": "uint256[]",
					"name": "",
					"type": "uint256[]"
				}
			],
			"stateMutability": "view",
			"type": "function"
		},
		{
			"inputs": [
				{
					"internalType": "contract IAMM",
					"name": "amm",
					"type": "address"
				}
			],
			"name": "getValidAMM",
			"outputs": [
				{
					"internalType": "bool",
					"name": "",
					"type": "bool"
				}
			],
			"stateMutability": "view",
			"type": "function"
		},
		{
			"inputs": [
				{
					"internalType": "address",
					"name": "_owner",
					"type": "address"
				},
				{
					"internalType": "uint256",
					"name": "_divergenceCap",
					"type": "uint256"
				}
			],
			"name": "initialize",
			"outputs": [],
			"stateMutability": "nonpayable",
			"type": "function"
		},
		{
			"inputs": [],
			"name": "isActive",
			"outputs": [
				{
					"internalType": "bool",
					"name": "",
					"type": "bool"
				}
			],
			"stateMutability": "view",
			"type": "function"
		},
		{
			"inputs": [
				{
					"internalType": "contract IAMM",
					"name": "amm",
					"type": "address"
				},
				{
					"internalType": "address",
					"name": "trader",
					"type": "address"
				}
			],
			"name": "isLiquidatable",
			"outputs": [
				{
					"internalType": "bool",
					"name": "",
					"type": "bool"
				}
			],
			"stateMutability": "view",
			"type": "function"
		},
		{
			"inputs": [
				{
					"internalType": "uint256",
					"name": "id",
					"type": "uint256"
				}
			],
			"name": "isTriggerOrderValid",
			"outputs": [
				{
					"internalType": "bool",
					"name": "",
					"type": "bool"
				}
			],
			"stateMutability": "view",
			"type": "function"
		},
		{
			"inputs": [
				{
					"internalType": "contract IAMM",
					"name": "amm",
					"type": "address"
				},
				{
					"internalType": "uint256",
					"name": "size",
					"type": "uint256"
				},
				{
					"internalType": "address",
					"name": "trader",
					"type": "address"
				},
				{
					"internalType": "uint256",
					"name": "margin",
					"type": "uint256"
				}
			],
			"name": "liquidate",
			"outputs": [],
			"stateMutability": "nonpayable",
			"type": "function"
		},
		{
			"inputs": [
				{
					"internalType": "contract IAMM",
					"name": "amm",
					"type": "address"
				},
				{
					"internalType": "address",
					"name": "maker",
					"type": "address"
				},
				{
					"internalType": "uint256",
					"name": "margin",
					"type": "uint256"
				}
			],
			"name": "liquidateMaker",
			"outputs": [],
			"stateMutability": "nonpayable",
			"type": "function"
		},
		{
			"inputs": [
				{
					"internalType": "contract IAMM",
					"name": "amm",
					"type": "address"
				},
				{
					"internalType": "enum Side",
					"name": "side",
					"type": "uint8"
				},
				{
					"internalType": "uint256",
					"name": "quote",
					"type": "uint256"
				},
				{
					"internalType": "uint256",
					"name": "leverage",
					"type": "uint256"
				},
				{
					"internalType": "uint256",
					"name": "baseLimit",
					"type": "uint256"
				}
			],
			"name": "openPosition",
			"outputs": [],
			"stateMutability": "nonpayable",
			"type": "function"
		},
		{
			"inputs": [],
			"name": "owner",
			"outputs": [
				{
					"internalType": "address",
					"name": "result",
					"type": "address"
				}
			],
			"stateMutability": "view",
			"type": "function"
		},
		{
			"inputs": [
				{
					"internalType": "address",
					"name": "pendingOwner",
					"type": "address"
				}
			],
			"name": "ownershipHandoverExpiresAt",
			"outputs": [
				{
					"internalType": "uint256",
					"name": "result",
					"type": "uint256"
				}
			],
			"stateMutability": "view",
			"type": "function"
		},
		{
			"inputs": [],
			"name": "ownershipHandoverValidFor",
			"outputs": [
				{
					"internalType": "uint64",
					"name": "",
					"type": "uint64"
				}
			],
			"stateMutability": "view",
			"type": "function"
		},
		{
			"inputs": [
				{
					"internalType": "contract IAMM",
					"name": "amm",
					"type": "address"
				},
				{
					"internalType": "uint256",
					"name": "amount",
					"type": "uint256"
				}
			],
			"name": "removeLiquidity",
			"outputs": [],
			"stateMutability": "nonpayable",
			"type": "function"
		},
		{
			"inputs": [
				{
					"internalType": "contract IAMM",
					"name": "amm",
					"type": "address"
				},
				{
					"internalType": "uint256",
					"name": "margin",
					"type": "uint256"
				}
			],
			"name": "removeMargin",
			"outputs": [],
			"stateMutability": "nonpayable",
			"type": "function"
		},
		{
			"inputs": [],
			"name": "renounceOwnership",
			"outputs": [],
			"stateMutability": "payable",
			"type": "function"
		},
		{
			"inputs": [],
			"name": "requestOwnershipHandover",
			"outputs": [],
			"stateMutability": "payable",
			"type": "function"
		},
		{
			"inputs": [
				{
					"internalType": "bool",
					"name": "_active",
					"type": "bool"
				}
			],
			"name": "setActive",
			"outputs": [],
			"stateMutability": "nonpayable",
			"type": "function"
		},
		{
			"inputs": [
				{
					"internalType": "uint256",
					"name": "_divergenceCap",
					"type": "uint256"
				}
			],
			"name": "setDivergenceCap",
			"outputs": [],
			"stateMutability": "nonpayable",
			"type": "function"
		},
		{
			"inputs": [
				{
					"internalType": "uint256",
					"name": "minMargin",
					"type": "uint256"
				}
			],
			"name": "setMinOrderbookMargin",
			"outputs": [],
			"stateMutability": "nonpayable",
			"type": "function"
		},
		{
			"inputs": [
				{
					"internalType": "contract IAMM",
					"name": "amm",
					"type": "address"
				},
				{
					"internalType": "bool",
					"name": "valid",
					"type": "bool"
				}
			],
			"name": "setValidAMM",
			"outputs": [],
			"stateMutability": "nonpayable",
			"type": "function"
		},
		{
			"inputs": [
				{
					"internalType": "contract IAMM",
					"name": "amm",
					"type": "address"
				}
			],
			"name": "settleFunding",
			"outputs": [],
			"stateMutability": "nonpayable",
			"type": "function"
		},
		{
			"inputs": [
				{
					"internalType": "address",
					"name": "newOwner",
					"type": "address"
				}
			],
			"name": "transferOwnership",
			"outputs": [],
			"stateMutability": "payable",
			"type": "function"
		},
		{
			"inputs": [
				{
					"internalType": "uint256",
					"name": "id",
					"type": "uint256"
				},
				{
					"components": [
						{
							"internalType": "address",
							"name": "trader",
							"type": "address"
						},
						{
							"internalType": "contract IAMM",
							"name": "amm",
							"type": "address"
						},
						{
							"internalType": "enum Side",
							"name": "side",
							"type": "uint8"
						},
						{
							"internalType": "uint256",
							"name": "trigger",
							"type": "uint256"
						},
						{
							"internalType": "uint256",
							"name": "quoteAmount",
							"type": "uint256"
						},
						{
							"internalType": "uint256",
							"name": "leverage",
							"type": "uint256"
						},
						{
							"internalType": "bool",
							"name": "reduceOnly",
							"type": "bool"
						}
					],
					"internalType": "struct LimitOrder",
					"name": "order",
					"type": "tuple"
				}
			],
			"name": "updateLimitOrder",
			"outputs": [],
			"stateMutability": "nonpayable",
			"type": "function"
		},
		{
			"inputs": [
				{
					"internalType": "uint256[]",
					"name": "ids",
					"type": "uint256[]"
				},
				{
					"components": [
						{
							"internalType": "address",
							"name": "trader",
							"type": "address"
						},
						{
							"internalType": "contract IAMM",
							"name": "amm",
							"type": "address"
						},
						{
							"internalType": "enum Side",
							"name": "side",
							"type": "uint8"
						},
						{
							"internalType": "uint256",
							"name": "trigger",
							"type": "uint256"
						},
						{
							"internalType": "uint256",
							"name": "quoteAmount",
							"type": "uint256"
						},
						{
							"internalType": "uint256",
							"name": "leverage",
							"type": "uint256"
						},
						{
							"internalType": "bool",
							"name": "reduceOnly",
							"type": "bool"
						}
					],
					"internalType": "struct LimitOrder[]",
					"name": "_orders",
					"type": "tuple[]"
				}
			],
			"name": "updateLimitOrderBatch",
			"outputs": [],
			"stateMutability": "nonpayable",
			"type": "function"
		},
		{
			"inputs": [
				{
					"internalType": "uint256",
					"name": "id",
					"type": "uint256"
				},
				{
					"components": [
						{
							"internalType": "address",
							"name": "trader",
							"type": "address"
						},
						{
							"internalType": "contract IAMM",
							"name": "amm",
							"type": "address"
						},
						{
							"internalType": "uint256",
							"name": "trigger",
							"type": "uint256"
						},
						{
							"internalType": "uint256",
							"name": "size",
							"type": "uint256"
						},
						{
							"internalType": "uint256",
							"name": "quoteLimit",
							"type": "uint256"
						},
						{
							"internalType": "bool",
							"name": "takeProfit",
							"type": "bool"
						}
					],
					"internalType": "struct TriggerOrder",
					"name": "order",
					"type": "tuple"
				}
			],
			"name": "updateTriggerOrder",
			"outputs": [],
			"stateMutability": "nonpayable",
			"type": "function"
		}
	],
	"bytecode": {
		"object": "0x6101206040523480156200001257600080fd5b5060405162005af638038062005af683398101604081905262000035916200014e565b6001600160a01b038086166080528481166101005283811660a05282811660c052811660e0526200006562000070565b5050505050620001be565b604354610100900460ff1615620000dd5760405162461bcd60e51b815260206004820152602760248201527f496e697469616c697a61626c653a20636f6e747261637420697320696e697469604482015266616c697a696e6760c81b606482015260840160405180910390fd5b60435460ff908116146200012f576043805460ff191660ff9081179091556040519081527f7f26b83ff96e1f2b6a682f133852f6798a09c465da95921460cefb38474024989060200160405180910390a15b565b80516001600160a01b03811681146200014957600080fd5b919050565b600080600080600060a086880312156200016757600080fd5b620001728662000131565b9450620001826020870162000131565b9350620001926040870162000131565b9250620001a26060870162000131565b9150620001b26080870162000131565b90509295509295909350565b60805160a05160c05160e05161010051615891620002656000396000612140015260008181610c2701528181611037015281816111d7015281816113f101526122ce0152600081816117830152818161195a0152611bba01526000818161114c01528181611d26015261201b015260008181610c74015281816116e4015281816118c901528181611bf301528181611f2d0152818161211e01526121dd01526158916000f3fe6080604052600436106102ff5760003560e01c80638da5cb5b11610190578063cf70cb69116100dc578063e304677011610095578063f04e283e1161006f578063f04e283e14610adf578063f2fde38b14610af2578063f8b6e44914610b05578063fee81cf414610b2557600080fd5b8063e304677014610a4c578063e859f37214610a6c578063e980e16e14610a8c57600080fd5b8063cf70cb6914610978578063d243505214610998578063d3123a80146109b8578063d7533f02146109ee578063dd2a65ed14610a0c578063e267935814610a2c57600080fd5b8063aa317dc011610149578063b346679b11610123578063b346679b146108e2578063b959d69514610918578063cbb50e6114610938578063cd6dc6871461095857600080fd5b8063aa317dc014610840578063acec338a14610860578063b33dc1901461088057600080fd5b80638da5cb5b146107595780639457be231461078557806398712fe4146107a5578063987362da146107d25780639dda4e4f146107e7578063a201ccf61461082057600080fd5b8063517237a91161024f57806368d8529711610208578063715018a6116101e2578063715018a6146106f157806373af0205146106f95780637aefce97146107195780637eb024061461073957600080fd5b806368d852971461067b5780636b17ad031461069b5780636ea41e40146106bb57600080fd5b8063517237a9146105d157806353061026146105f157806354b85a3e1461061e57806354d1f13d1461063e5780635ac3b62d146106465780636467024c1461065b57600080fd5b80632a120de4116102bc5780633966a28b116102965780633966a28b1461052e578063429e92371461054e5780634a6ebce7146105845780634fa9c4db146105b157600080fd5b80632a120de4146103e0578063364a1a9f1461040057806336cef3d91461042057600080fd5b80630e86a08d1461030457806313dee2d11461033e5780631ece366a14610360578063207b5b6f1461038e57806322f3e2d4146103ae57806325692962146103d8575b600080fd5b34801561031057600080fd5b5061032461031f3660046148ef565b610b58565b604080519283526020830191909152015b60405180910390f35b34801561034a57600080fd5b5061035e61035936600461496d565b610bcf565b005b34801561036c57600080fd5b5061038061037b366004614a07565b610c54565b604051908152602001610335565b34801561039a57600080fd5b5061035e6103a9366004614a50565b610db5565b3480156103ba57600080fd5b5060435462010000900460ff165b6040519015158152602001610335565b61035e610e71565b3480156103ec57600080fd5b5061035e6103fb366004614b79565b610ec1565b34801561040c57600080fd5b5061035e61041b366004614b9e565b610f77565b34801561042c57600080fd5b506104d761043b366004614bca565b6040805160c081018252600080825260208201819052918101829052606081018290526080810182905260a0810191909152506000908152600d6020908152604091829020825160c08101845281546001600160a01b03908116825260018301541692810192909252600281015492820192909252600382015460608201526004820154608082015260059091015460ff16151560a082015290565b604051610335919081516001600160a01b0390811682526020808401519091169082015260408083015190820152606080830151908201526080808301519082015260a09182015115159181019190915260c00190565b34801561053a57600080fd5b506103c86105493660046148ef565b610fc1565b34801561055a57600080fd5b50610380610569366004614be3565b6001600160a01b031660009081526008602052604090205490565b34801561059057600080fd5b506105a461059f366004614c00565b610fdf565b6040516103359190614c7d565b3480156105bd57600080fd5b5061035e6105cc366004614c90565b61107b565b3480156105dd57600080fd5b5061035e6105ec366004614ce9565b611185565b3480156105fd57600080fd5b5061061161060c366004614bca565b611201565b6040516103359190614e0d565b34801561062a57600080fd5b506105a46106393660046148ef565b6112ad565b61035e611326565b34801561065257600080fd5b50600f54610380565b34801561066757600080fd5b50610324610676366004614c90565b611362565b34801561068757600080fd5b50610380610696366004614e33565b6113a4565b3480156106a757600080fd5b5061035e6106b6366004614be3565b611434565b3480156106c757600080fd5b506103806106d6366004614be3565b6001600160a01b031660009081526005602052604090205490565b61035e6115bc565b34801561070557600080fd5b506105a46107143660046148ef565b6115d0565b34801561072557600080fd5b5061035e610734366004614e4f565b611647565b34801561074557600080fd5b50610380610754366004614e90565b6117b3565b34801561076557600080fd5b50638b78c6d819546040516001600160a01b039091168152602001610335565b34801561079157600080fd5b5061035e6107a0366004614ea2565b611876565b3480156107b157600080fd5b506107c56107c0366004614be3565b611980565b6040516103359190614eea565b3480156107de57600080fd5b50601054610380565b3480156107f357600080fd5b506103c8610802366004614be3565b6001600160a01b031660009081526003602052604090205460ff1690565b34801561082c57600080fd5b5061035e61083b366004614b9e565b611a06565b34801561084c57600080fd5b5061035e61085b3660046148ef565b611c77565b34801561086c57600080fd5b5061035e61087b366004614f15565b611d52565b34801561088c57600080fd5b506108a061089b3660046148ef565b611dd3565b6040516103359190600060a082019050825182526020830151602083015260408301516040830152606083015160608301526080830151608083015292915050565b3480156108ee57600080fd5b506103806108fd366004614be3565b6001600160a01b031660009081526004602052604090205490565b34801561092457600080fd5b5061035e610933366004614b9e565b611e0f565b34801561094457600080fd5b5061035e610953366004614f32565b611f9a565b34801561096457600080fd5b5061035e610973366004614b9e565b61204c565b34801561098457600080fd5b5061035e610993366004614b9e565b6121bf565b3480156109a457600080fd5b5061035e6109b3366004614f81565b612282565b3480156109c457600080fd5b506103806109d3366004614be3565b6001600160a01b031660009081526006602052604090205490565b3480156109fa57600080fd5b506040516202a3008152602001610335565b348015610a1857600080fd5b506103c8610a27366004614bca565b6122f4565b348015610a3857600080fd5b5061035e610a47366004614b9e565b6123a7565b348015610a5857600080fd5b5061035e610a67366004614bca565b6124d8565b348015610a7857600080fd5b5061035e610a87366004614bca565b6124e5565b348015610a9857600080fd5b50610aac610aa7366004614be3565b612545565b60405161033591908151815260208083015190820152604080830151908201526060918201519181019190915260800190565b61035e610aed366004614be3565b6125be565b61035e610b00366004614be3565b6125fb565b348015610b1157600080fd5b5061035e610b20366004614bca565b612622565b348015610b3157600080fd5b50610380610b40366004614be3565b63389a75e1600c908152600091909152602090205490565b6001600160a01b038083166000908152602081815260408083209385168352928152828220835160a08101855281548152600182015492810192909252600281015493820193909352600383015460608201526004909201546080830152908190610bc490859061262f565b909590945092505050565b610bd7612679565b610c4d3385858585604051602401610bf3959493929190615048565b60408051601f198184030181529190526020810180516001600160e01b031663e98143ad60e01b1790526001600160a01b037f000000000000000000000000000000000000000000000000000000000000000016906126a2565b5050505050565b6000610c5e612679565b610c67856126c7565b610c9c6001600160a01b037f000000000000000000000000000000000000000000000000000000000000000016333087612700565b604080516080810182526001600160a01b0387166000818152600560209081528482205484528282526006815284822054818501528282526007815284822060010154848601528282526004908190528482205460608501529351631a09603f60e21b81529093919263682580fc92610d1e9233928b928b928b9291016150ab565b60408051808303816000875af1158015610d3c573d6000803e3d6000fd5b505050506040513d601f19601f82011682018060405250810190610d6091906150ff565b604080518381526020810183905292945090925033916001600160a01b038916917f32923dfeaa77af290abe15bfb407a16585bee3843a05dc1b82ad3dca3a866aad910160405180910390a350949350505050565b610dbd612754565b80158015610e285750816001600160a01b03166322f3e2d46040518163ffffffff1660e01b8152600401602060405180830381865afa158015610e04573d6000803e3d6000fd5b505050506040513d601f19601f82011682018060405250810190610e289190615123565b15610e465760405163cdd8a30360e01b815260040160405180910390fd5b6001600160a01b03919091166000908152600360205260409020805460ff1916911515919091179055565b60006202a30067ffffffffffffffff164201905063389a75e1600c5233600052806020600c2055337fdbf36a107da19e49527a7176a1babf963b4b0ff8cde35ee35d6cd8f1f9ac7e1d600080a250565b610ec9612679565b604080516001808252818301909252600091816020015b610ee861480c565b815260200190600190039081610ee057505060408051600180825281830190925291925060009190602080830190803683370190505090508282600081518110610f3457610f34615140565b60200260200101819052508381600081518110610f5357610f53615140565b602002602001018181525050610c4d338284604051602401610bf393929190615190565b6000818152600d60205260409020546001600160a01b0316338114610faf576040516342f062b760e01b815260040160405180910390fd5b610fbc838383600061276f565b505050565b6000610fd683610fd185856129a6565b612a3b565b90505b92915050565b6060610fe9612679565b600061105d338585604051602401611003939291906151c6565b60408051601f198184030181529190526020810180516001600160e01b0316638b69f89760e01b1790526001600160a01b037f000000000000000000000000000000000000000000000000000000000000000016906126a2565b90508080602001905181019061107391906151f4565b949350505050565b611083612679565b61108c836126c7565b6110968333612bb3565b60006110a28433612be0565b905060ff81901c60000380820118808411156110d157604051631eab837160e11b815260040160405180910390fd5b836000036110e0575050505050565b60008083136110f05760006110f3565b60015b905061117233878388886000888c14604051602401611118979695949392919061527a565b60408051601f198184030181529190526020810180516001600160e01b0316637b9db48760e11b1790526001600160a01b037f000000000000000000000000000000000000000000000000000000000000000016906126a2565b5061117d8682612c27565b505050505050565b61118d612679565b6111fd33826040516024016111a39291906152cc565b60408051601f198184030181529190526020810180516001600160e01b0316637d5eb41f60e01b1790526001600160a01b037f000000000000000000000000000000000000000000000000000000000000000016906126a2565b5050565b61120961480c565b6000828152600c6020908152604091829020825160e08101845281546001600160a01b039081168252600180840154918216948301949094529093919291840191600160a01b90910460ff169081111561126557611265614d7f565b600181111561127657611276614d7f565b815260028201546020820152600382015460408201526004820154606082015260059091015460ff16151560809091015292915050565b6001600160a01b038083166000908152600b6020908152604080832093851683529281529082902080548351818402810184019094528084526060939283018282801561131957602002820191906000526020600020905b815481526020019060010190808311611305575b5050505050905092915050565b63389a75e1600c523360005260006020600c2055337ffa7b8eab7da67f412cc9575ed43464468f9bfbae89d1675917346ca6d8fe3c92600080a2565b600080611398856040518060a001604052808781526020016000815260200186815260200160008152602001600081525061262f565b91509150935093915050565b60008061141783336040516024016113bd929190615356565b60408051601f198184030181529190526020810180516001600160e01b0316631da5734360e21b1790526001600160a01b037f000000000000000000000000000000000000000000000000000000000000000016906126a2565b90508080602001905181019061142d919061537c565b9392505050565b61143c612679565b611445816126c7565b6000806000836001600160a01b031663ed83d79c6040518163ffffffff1660e01b81526004016060604051808303816000875af115801561148a573d6000803e3d6000fd5b505050506040513d601f19601f820116820180604052508101906114ae9190615395565b6001600160a01b0387166000818152600760209081526040808320815160808101835281548152600182015481850152600282015481840152600390910154606082015293835260058252808320546006909252909120549497509295509093509161151a86836153d9565b602084015190925061152c9087612d7d565b6115379060016153d9565b61154190826153d9565b6001600160a01b03881660008181526005602090815260408083208790556006825291829020849055815189815290810188905290810185905260608101839052919250907f1c02bced5ca0dc6cf5083d0cafb8183dce5091eaa32c83b0065021a491ae5e539060800160405180910390a250505050505050565b6115c4612754565b6115ce6000612dec565b565b6001600160a01b038083166000908152600a602090815260408083209385168352928152908290208054835181840281018401909452808452606093928301828280156113195760200282019190600052602060002090815481526020019060010190808311611305575050505050905092915050565b61164f612679565b611658836126c7565b604051631bde66e760e01b81526001600160a01b038381166004830152600091829182918291881690631bde66e7906024016080604051808303816000875af11580156116a9573d6000803e3d6000fd5b505050506040513d601f19601f820116820180604052508101906116cd9190615401565b9296509094509250905061170c6001600160a01b037f000000000000000000000000000000000000000000000000000000000000000016333088612700565b6040516001600160a01b0388166024820152336044820152606481018590526084810186905260a4810184905260c4810182905260e481018390526117a9906101040160408051601f198184030181529190526020810180516001600160e01b031663d0dea43d60e01b1790526001600160a01b037f000000000000000000000000000000000000000000000000000000000000000016906126a2565b5050505050505050565b60006117bd612679565b604080516001808252818301909252600091816020015b6117dc61480c565b8152602001906001900390816117d457905050905061180036849003840184615437565b8160008151811061181357611813615140565b602002602001018190525060006118363383604051602401611003929190615453565b905060008180602001905181019061184e91906151f4565b90508060008151811061186357611863615140565b602002602001015193505050505b919050565b61187e612679565b611887846126c7565b600061189385846129a6565b905061189f8582612a3b565b6118bc57604051633da1f7d160e11b815260040160405180910390fd5b6118f16001600160a01b037f000000000000000000000000000000000000000000000000000000000000000016333085612700565b6040516001600160a01b038087166024830152841660448201523360648201526084810185905260a4810183905261117d9060c40160408051601f198184030181529190526020810180516001600160e01b0316636f70e66f60e01b1790526001600160a01b037f000000000000000000000000000000000000000000000000000000000000000016906126a2565b6119ab6040518060800160405280600081526020016000815260200160008152602001600081525090565b50604080516080810182526001600160a01b0390921660008181526005602090815283822054855282825260068152838220548186015282825260078152838220600101548585015291815260049091522054606082015290565b611a0e612679565b611a17826126c7565b604080516080810182526001600160a01b038416600081815260056020908152848220548452828252600681528482205481850152828252600781528482206001015484860152828252600490819052848220546060850152935163ab7ab90360e01b81529093849384939263ab7ab90392611a979233928a9201615477565b6060604051808303816000875af1158015611ab6573d6000803e3d6000fd5b505050506040513d601f19601f82011682018060405250810190611ada9190615395565b9250925092506000856001600160a01b031663c4e41b226040518163ffffffff1660e01b8152600401602060405180830381865afa158015611b20573d6000803e3d6000fd5b505050506040513d601f19601f82011682018060405250810190611b44919061537c565b90508315801590611b5457508015155b15611be6576040516001600160a01b03871660248201523360448201526064810184905260848101859052611be09060a40160408051601f198184030181529190526020810180516001600160e01b031663dab497ff60e01b1790526001600160a01b037f000000000000000000000000000000000000000000000000000000000000000016906126a2565b50611c1a565b611c1a6001600160a01b037f0000000000000000000000000000000000000000000000000000000000000000163385612e2a565b60408051868152602081018690529081018490526060810183905233906001600160a01b038816907fef5ab242a679e37f2ff51fd2bc2aed154cad62c0906ef89aa3228d72f968105f9060800160405180910390a3505050505050565b611c7f612754565b6000611c8b83836129a6565b9050611c978382612a3b565b611cb457604051633da1f7d160e11b815260040160405180910390fd5b611d4c82846000846000015113611ccc576000611ccf565b60015b845160ff81901c6000039081011830604051602401611cf29594939291906154bc565b60408051601f198184030181529190526020810180516001600160e01b0316633a33b8b760e21b1790526001600160a01b037f000000000000000000000000000000000000000000000000000000000000000016906126a2565b50505050565b611d5a612754565b6043805482158015620100000262ff00001990921691909117909155611da6576040517fed1cd0670ee0c0017f550451a038818c696d0b6a9d6ce5b369e44275573cf9b090600090a150565b6040517f1142a68cc39970640eb3524e77b91f78be21abc64f20f5919387eb46699bb77290600090a15b50565b611e056040518060a0016040528060008152602001600081526020016000815260200160008152602001600081525090565b610fd683836129a6565b611e17612679565b611e20826126c7565b6001600160a01b0382166000908152602081815260408083203384528252808320815160a081018352815481526001820154938101939093526002810154918301919091526003810154606083015260040154608082015290611e968483611e9186670de0b6b3a763ffff19612e70565b612ebd565b90508060400151600014611ebd57604051632c7c1d6360e11b815260040160405180910390fd5b6060808201516020840152815190830152611ed88483612f85565b6001600160a01b038085166000908152602081815260408083203380855290835292819020865181559186015160018301558501516002820155606085015160038201556080850151600490910155611f54917f0000000000000000000000000000000000000000000000000000000000000000169085612e2a565b60405183815233906001600160a01b038616907fb0fa03f93c852a6feaaeb34ccf4cf865cc223c4cc9d25dce28a9131fde2710719060200160405180910390a350505050565b611fa2612679565b611fab856126c7565b611fb58533612bb3565b611fc98584611fc48186613088565b61309d565b612041338686868686604051602401611fe7969594939291906154fe565b60408051601f198184030181529190526020810180516001600160e01b03166310faff9560e31b1790526001600160a01b037f000000000000000000000000000000000000000000000000000000000000000016906126a2565b50610c4d8585612c27565b604354610100900460ff161580801561206c5750604354600160ff909116105b806120865750303b158015612086575060435460ff166001145b6120ee5760405162461bcd60e51b815260206004820152602e60248201527f496e697469616c697a61626c653a20636f6e747261637420697320616c72656160448201526d191e481a5b9a5d1a585b1a5e995960921b60648201526084015b60405180910390fd5b6043805460ff191660011790558015612111576043805461ff0019166101001790555b6121676001600160a01b037f0000000000000000000000000000000000000000000000000000000000000000167f0000000000000000000000000000000000000000000000000000000000000000600019613132565b600f8290556121758361316e565b8015610fbc576043805461ff0019169055604051600181527f7f26b83ff96e1f2b6a682f133852f6798a09c465da95921460cefb38474024989060200160405180910390a1505050565b6121c7612679565b6121d0826126c7565b6122056001600160a01b037f000000000000000000000000000000000000000000000000000000000000000016333084612700565b6001600160a01b03821660009081526020818152604080832033845290915281206001018054839290612239908490615542565b909155505060405181815233906001600160a01b038416907f05c2d01f05f37971d15b22586be2f1933a1ae8c0079a056a430b4391550ffb2d9060200160405180910390a35050565b610fbc82823360405160240161229a93929190615555565b60408051601f198184030181529190526020810180516001600160e01b03166312fd759760e11b1790526001600160a01b037f000000000000000000000000000000000000000000000000000000000000000016906126a2565b6000818152600d60209081526040808320815160c08101835281546001600160a01b039081168083526001840154909116948201859052600283015493820193909352600382015460608201526004820154608082015260059091015460ff16151560a082015291839161236891906129a6565b519050600081900361237e575060009392505050565b611073826020015160008313612395576001612398565b60005b84604001518560a001516131aa565b6123af612679565b6000818152600d6020908152604091829020825160c08101845281546001600160a01b03908116825260018301541692810183905260028201549381019390935260038101546060840152600481015460808401526005015460ff16151560a083015261241b906126c7565b6124258333612bb3565b6000612435848360000151612be0565b9050600060ff82901c810380830118905061246f83602001516000841361245d576001612460565b60005b85604001518660a00151613262565b808360600151111561248357606083018190525b6000808313612493576000612496565b60015b90506124a8868686600001513361276f565b8351602085015160608601516080870151604051611172946111189490939092879233908a84149060240161527a565b6124e0612754565b601055565b6124ed612679565b60408051600180825281830190925260009160208083019080368337019050509050818160008151811061252357612523615140565b602002602001018181525050610fbc33826040516024016111a39291906152cc565b6125706040518060800160405280600081526020016000815260200160008152602001600081525090565b506001600160a01b0316600090815260076020908152604091829020825160808101845281548152600182015492810192909252600281015492820192909252600390910154606082015290565b6125c6612754565b63389a75e1600c52806000526020600c2080544211156125ee57636f5e88186000526004601cfd5b60009055611dd081612dec565b612603612754565b8060601b61261957637448fbae6000526004601cfd5b611dd081612dec565b61262a612754565b600f55565b600080826000015160000361264957506000905080612672565b61265784846000015161328b565b915061266f82846040015160008660000151126136a8565b90505b9250929050565b60435462010000900460ff166115ce57604051637dc579d960e11b815260040160405180910390fd5b6060610fd68383604051806060016040528060278152602001615835602791396136f0565b6001600160a01b03811660009081526003602052604090205460ff16611dd0576040516304c1bb0360e11b815260040160405180910390fd5b60405181606052826040528360601b602c526323b872dd60601b600c52602060006064601c6000895af13d15600160005114171661274657637939f4246000526004601cfd5b600060605260405250505050565b638b78c6d8195433146115ce576382b429006000526004601cfd5b6000838152600d6020908152604080832080546001600160a01b031990811682556001820180549091169055600281018490556003810184905560048101849055600501805460ff191690556001600160a01b038581168452600b8352818420908816845282528083208054825181850281018501909352808352919290919083018282801561281e57602002820191906000526020600020905b81548152602001906001019080831161280a575b5050505050905060008151905080600103612868576001600160a01b038085166000908152600b60209081526040808320938a1683529290529081206128639161484b565b612957565b60005b8181101561290b578583828151811061288657612886615140565b602002602001015103612903578261289f600184615583565b815181106128af576128af615140565b6020908102919091018101516001600160a01b038088166000908152600b84526040808220928c168252919093529091208054839081106128f2576128f2615140565b60009182526020909120015561290b565b60010161286b565b506001600160a01b038085166000908152600b60209081526040808320938a1683529290522080548061294057612940615596565b600190038181906000526020600020016000905590555b6040516001600160a01b038481168252808616919088169087907f241cba1e62c0c28760eb65132303f670a906fac442064deb7a20da98ce538ed29060200160405180910390a4505050505050565b6129d86040518060a0016040528060008152602001600081526020016000815260200160008152602001600081525090565b506001600160a01b03918216600090815260208181526040808320939094168252918252829020825160a0810184528154815260018201549281019290925260028101549282019290925260038201546060820152600490910154608082015290565b80516000908103612a4e57506000610fd9565b6000612acf612ac0856001600160a01b03166346558d1b6040518163ffffffff1660e01b8152600401602060405180830381865afa158015612a94573d6000803e3d6000fd5b505050506040513d601f19601f82011682018060405250810190612ab8919061537c565b85519061375e565b60ff81901c6000039081011890565b905060008084600001511315612b0657612aec846040015161378a565b612af58361378a565b612aff91906155ac565b9050612b29565b612b0f8261378a565b612b1c856040015161378a565b612b2691906155ac565b90505b6000612b36868684612ebd565b606001519050856001600160a01b0316634f3c15426040518163ffffffff1660e01b8152600401602060405180830381865afa158015612b7a573d6000803e3d6000fd5b505050506040513d601f19601f82011682018060405250810190612b9e919061537c565b612ba882856137a3565b109695505050505050565b612bbd82826129a6565b6080015143036111fd5760405163fd4b12b160e01b815260040160405180910390fd5b6001600160a01b0380831660009081526020818152604080832093851683529290529081205490819003610fd957604051631d5fdf4760e11b815260040160405180910390fd5b600f546000819003612c3857505050565b6000836001600160a01b031663604096326040518163ffffffff1660e01b8152600401602060405180830381865afa158015612c78573d6000803e3d6000fd5b505050506040513d601f19601f82011682018060405250810190612c9c919061537c565b90506000846001600160a01b03166358c0994a6040518163ffffffff1660e01b8152600401602060405180830381865afa158015612cde573d6000803e3d6000fd5b505050506040513d601f19601f82011682018060405250810190612d02919061537c565b9050836001811115612d1657612d16614d7f565b818311612d24576000612d27565b60015b6001811115612d3857612d38614d7f565b03612d44575050505050565b6000612d5a82612d5485826137b8565b906137a3565b90508381111561117d5760405163a6dea22360e01b815260040160405180910390fd5b6000808312818312808214158215612d9b57612d98866155cc565b95505b8115612dad57612daa856155cc565b94505b612dc8612dc38787670de0b6b3a76400006137cf565b61378a565b93508015612de357612dd9846155cc565b9350505050610fd9565b50505092915050565b638b78c6d81980546001600160a01b039092169182907f8be0079c531659141344cd1fd0a4f28419497f9722a3daafe3b4186f6b6457e0600080a355565b816014528060345263a9059cbb60601b60005260206000604460106000875af13d156001600051141716612e66576390b8ec186000526004601cfd5b6000603452505050565b60008082128015612e8757612e84836155cc565b92505b612e9d612dc38585670de0b6b3a76400006137cf565b91508015612eb657612eae826155cc565b915050610fd9565b5092915050565b612ee86040518060800160405280600081526020016000815260200160008152602001600081525090565b6001600160a01b0384166000908152600560205260409020548152825115612f2d57825160608401518251612f279291612f21916155ac565b90612d7d565b60208201525b6000612f3c846020015161378a565b6020830151612f4b90856155ac565b612f5591906153d9565b905060008112612f6b5760608201819052612f7d565b60ff81901c6000038082011860408301525b509392505050565b600080612f92848461262f565b915091506000612fa5846020015161378a565b90506000808313612fbf57612fba83836153d9565b612fc1565b815b9050600061302a876001600160a01b031663bce2020d6040518163ffffffff1660e01b8152600401602060405180830381865afa158015613006573d6000803e3d6000fd5b505050506040513d601f19601f82011682018060405250810190612dc3919061537c565b9050600080876000015113156130505760408701516130499083612e70565b905061305d565b61305a8683612e70565b90505b600061306982856155ac565b12156117a95760405163845dfc3960e01b815260040160405180910390fd5b6000610fd68383670de0b6b3a76400006137cf565b6000836001600160a01b031663bce2020d6040518163ffffffff1660e01b8152600401602060405180830381865afa1580156130dd573d6000803e3d6000fd5b505050506040513d601f19601f82011682018060405250810190613101919061537c565b9050600061310f84846137a3565b905081811015610c4d576040516357809b3160e01b815260040160405180910390fd5b816014528060345263095ea7b360601b60005260206000604460106000875af13d156001600051141716612e6657633e3f8f736000526004601cfd5b6001600160a01b0316638b78c6d8198190558060007f8be0079c531659141344cd1fd0a4f28419497f9722a3daafe3b4186f6b6457e08180a350565b600080856001600160a01b031663604096326040518163ffffffff1660e01b8152600401602060405180830381865afa1580156131eb573d6000803e3d6000fd5b505050506040513d601f19601f8201168201806040525081019061320f919061537c565b905060008086600181111561322657613226614d7f565b0361324357836132385784821161323c565b8482105b9050613257565b8361325057848210613254565b8482115b90505b159695505050505050565b61326e848484846131aa565b611d4c576040516315f3d48360e01b815260040160405180910390fd5b6000613295614869565b60ff83901c60000380840118606082018190526000036132b9576000915050610fd9565b836001600160a01b031663c24e38596040518163ffffffff1660e01b8152600401606060405180830381865afa1580156132f7573d6000803e3d6000fd5b505050506040513d601f19601f8201168201806040525081019061331b9190615395565b60408401526020830152815260008313613336576001613339565b60005b8160c00190600181111561334f5761334f614d7f565b9081600181111561336257613362614d7f565b90525060018160c00151600181111561337d5761337d614d7f565b1460e08201526001600160a01b0384166000908152600160208190526040822060c084015190918391908111156133b6576133b6614d7f565b60018111156133c7576133c7614d7f565b815260200190815260200160002090506133fa6133f5836020015184600001516137a390919063ffffffff16565b61387e565b60020b608083015260e082015161348d906001600160a01b0387169063f36bdbc99061342757600061342a565b60015b85606001516040518363ffffffff1660e01b815260040161344c9291906155e8565b602060405180830381865afa158015613469573d6000803e3d6000fd5b505050506040513d601f19601f820116820180604052508101906133f5919061537c565b60020b60a083015260e0820151156134b4578160800180516134ae906155ff565b60020b90525b6000805b8360e001516134d7578360a0015160020b846080015160020b136134e9565b8360a0015160020b846080015160020b125b156135d557608084015160e0850151613507918591600190156138b8565b60029190910b6080860152905080156135b2576135896040518060e0016040528086606001518152602001866000015181526020018660200151815260200186604001518152602001896001600160a01b03168152602001866080015160020b81526020018660c00151600181111561358257613582614d7f565b9052613a75565b60208801528652606086019190915291506135a48286615542565b6060850151909550156135d5575b8360e001516135d0578360800180516135ca906155ff565b60020b90525b6134b8565b60608401511561369e578360e001511561362d57836020015184606001511061360f57600184602001516136099190615583565b60608501525b8360600151846020018181516136259190615583565b905250613647565b8360600151846020018181516136439190615542565b9052505b6000613664856020015186604001516137a390919063ffffffff16565b9050613690613676866000015161378a565b61367f8361378a565b818113818303929091038218021890565b61369a9087615542565b9550505b5050505092915050565b6000806136b48461378a565b905060006136c18661378a565b905083156136da576136d381836155ac565b92506136e7565b6136e482826155ac565b92505b50509392505050565b6060600080856001600160a01b03168560405161370d9190615646565b600060405180830381855af49150503d8060008114613748576040519150601f19603f3d011682016040523d82523d6000602084013e61374d565b606091505b50915091506136e486838387613d2a565b60008083128015612e8757613772846155cc565b9350612e9d612dc38585670de0b6b3a76400006137cf565b6000600160ff1b821061379f5761379f613da3565b5090565b6000610fd683670de0b6b3a7640000846137cf565b6000610fd66137c68361378a565b61367f8561378a565b6000838302600019848609818110820190038061380457836137f95763ae47f7026000526004601cfd5b50829004905061142d565b8084116138195763ae47f7026000526004601cfd5b838587096000858103861695869004956003870260029081188089028203028089028203028089028203028089028203028089028203028089029091030291819003819004600101858411909403939093029190930391909104170290509392505050565b6000610fd96138aa670de0b6b3a7640000606061389a86613db1565b6138a592911b615678565b613e4a565b6001600160a01b0316613e5f565b600080806138c6858761568c565b905060008660020b1280156138e657506138e085876156c6565b60020b15155b156138f957806138f5816155ff565b9150505b83156139a65760008061390b83614199565b90925090506000600160ff831681901b906139269082615583565b6139309190615542565b600184900b600090815260208c905260409020548116801515965090915085613970578861396160ff8516876156e8565b61396b919061570d565b61399b565b8861397a826141b9565b613984908561572d565b6139919060ff16876156e8565b61399b919061570d565b965050505050613a6b565b6000806139bc6139b7846001615746565b614199565b909250905060006139d4600160ff841681901b615583565b600184900b600090815260208c905260409020549019908116801515965090915085613a2d5788613a068460ff61572d565b60ff16613a14876001615746565b613a1e9190615746565b613a28919061570d565b613a64565b8883613a38836142a9565b613a42919061572d565b60ff16613a50876001615746565b613a5a9190615746565b613a64919061570d565b9650505050505b5094509492505050565b60808101516001600160a01b0316600090815260026020526040812060c0830151829182918291829182906001811115613ab157613ab1614d7f565b6001811115613ac257613ac2614d7f565b815260200190815260200160002060008760a0015160020b60020b81526020019081526020016000206040518060400160405290816000820154815260200160018201805480602002602001604051908101604052809291908181526020018280548015613b4f57602002820191906000526020600020905b815481526020019060010190808311613b3b575b50505050508152505090506000600c600083602001516001856020015151613b779190615583565b81518110613b8757613b87615140565b6020026020010151815260200190815260200160002060020154905080600003613bc95750508451602086015160408701519195506000945092509050613d23565b6000613bfd613bdb896040015161378a565b61367f612dc3613bf8868d606001516137a390919063ffffffff16565b613db1565b8851909150811115613c0d575086515b8088600001818151613c1f9190615583565b90525060008860c001516001811115613c3a57613c3a614d7f565b14613c5c578088604001818151613c519190615583565b915081815250613c75565b8088604001818151613c6e9190615542565b9150818152505b5060408801516060890151613c89916137a3565b9450613ca28860400151866137a390919063ffffffff16565b9150613cbd613cb4896020015161378a565b61367f8761378a565b885190965015613d13578251600090613cd690846137a3565b8951909150811115613ce6575087515b8089600001818151613cf89190615583565b905250613d058184613088565b613d0f9088615542565b9650505b5050855160408701519095509150505b9193509193565b60608315613d99578251600003613d92576001600160a01b0385163b613d925760405162461bcd60e51b815260206004820152601d60248201527f416464726573733a2063616c6c20746f206e6f6e2d636f6e747261637400000060448201526064016120e5565b5081611073565b61107383836143d4565b6335278d126000526004601cfd5b6000610fd9613dc883670de0b6b3a764000061576b565b6001600160881b03811160071b81811c68ffffffffffffffffff1060061b1781811c64ffffffffff1060051b1781811c62ffffff1060041b1781811c620100000160b5600192831c1b0260121c80830401811c80830401811c80830401811c80830401811c80830401811c80830401811c80830401901c908190048111900390565b6000600160a01b821061379f5761379f613da3565b60006401000276a36001600160a01b03831610801590613e9b575073fffd8963efd1fc6a506488495d951d5263988d266001600160a01b038316105b613ecb5760405162461bcd60e51b81526020600482015260016024820152602960f91b60448201526064016120e5565b640100000000600160c01b03602083901b166001600160801b03811160071b81811c67ffffffffffffffff811160061b90811c63ffffffff811160051b90811c61ffff811160041b90811c60ff8111600390811b91821c600f811160021b90811c918211600190811b92831c97908811961790941790921717909117171760808110613f6657613f5c607f82615583565b83901c9150613f77565b613f7181607f615583565b83901b91505b60006040613f866080846155ac565b901b9050828302607f1c92508260801c80603f1b8217915083811c935050828302607f1c92508260801c80603e1b8217915083811c935050828302607f1c92508260801c80603d1b8217915083811c935050828302607f1c92508260801c80603c1b8217915083811c935050828302607f1c92508260801c80603b1b8217915083811c935050828302607f1c92508260801c80603a1b8217915083811c935050828302607f1c92508260801c8060391b8217915083811c935050828302607f1c92508260801c8060381b8217915083811c935050828302607f1c92508260801c8060371b8217915083811c935050828302607f1c92508260801c8060361b8217915083811c935050828302607f1c92508260801c8060351b8217915083811c935050828302607f1c92508260801c8060341b8217915083811c935050828302607f1c92508260801c8060331b8217915083811c935050828302607f1c92508260801c8060321b8217915050600081693627a301d71055774c856141099190615782565b9050600060806141296f028f6481ab7f045a5af012a19d003aaa846155ac565b901d90506000608061414b846fdb2df09e81959a81455e260799a0632f6153d9565b901d90508060020b8260020b1461418a57886001600160a01b031661416f826143fe565b6001600160a01b03161115614184578161418c565b8061418c565b815b9998505050505050505050565b600281900b60081d60006141af610100846156c6565b60020b9050915091565b60008082116141c757600080fd5b600160801b82106141e557608091821c916141e290826157b2565b90505b68010000000000000000821061420857604091821c9161420590826157b2565b90505b640100000000821061422757602091821c9161422490826157b2565b90505b62010000821061424457601091821c9161424190826157b2565b90505b610100821061426057600891821c9161425d90826157b2565b90505b6010821061427b57600491821c9161427890826157b2565b90505b6004821061429657600291821c9161429390826157b2565b90505b6002821061187157610fd96001826157b2565b60008082116142b757600080fd5b5060ff6001600160801b038216156142db576142d460808261572d565b90506142e3565b608082901c91505b67ffffffffffffffff821615614305576142fe60408261572d565b905061430d565b604082901c91505b63ffffffff82161561432b5761432460208261572d565b9050614333565b602082901c91505b61ffff82161561434f5761434860108261572d565b9050614357565b601082901c91505b60ff8216156143725761436b60088261572d565b905061437a565b600882901c91505b600f8216156143955761438e60048261572d565b905061439d565b600482901c91505b60038216156143b8576143b160028261572d565b90506143c0565b600282901c91505b600182161561187157610fd960018261572d565b8151156143e45781518083602001fd5b8060405162461bcd60e51b81526004016120e591906157cb565b60008060008360020b12614415578260020b614422565b8260020b614422906155cc565b9050614431620d89e7196157fe565b60020b8111156144675760405162461bcd60e51b81526020600482015260016024820152601560fa1b60448201526064016120e5565b60008160011660000361447e57600160801b614490565b6ffffcb933bd6fad37aa2d162d1a5940015b6001600160881b0316905060028216156144c55760806144c0826ffff97272373d413259a46990580e213a61576b565b901c90505b60048216156144ef5760806144ea826ffff2e50f5f656932ef12357cf3c7fdcc61576b565b901c90505b6008821615614519576080614514826fffe5caca7e10e4e61c3624eaa0941cd061576b565b901c90505b601082161561454357608061453e826fffcb9843d60f6159c9db58835c92664461576b565b901c90505b602082161561456d576080614568826fff973b41fa98c081472e6896dfb254c061576b565b901c90505b6040821615614597576080614592826fff2ea16466c96a3843ec78b326b5286161576b565b901c90505b60808216156145c15760806145bc826ffe5dee046a99a2a811c461f1969c305361576b565b901c90505b6101008216156145ec5760806145e7826ffcbe86c7900a88aedcffc83b479aa3a461576b565b901c90505b610200821615614617576080614612826ff987a7253ac413176f2b074cf7815e5461576b565b901c90505b61040082161561464257608061463d826ff3392b0822b70005940c7a398e4b70f361576b565b901c90505b61080082161561466d576080614668826fe7159475a2c29b7443b29c7fa6e889d961576b565b901c90505b611000821615614698576080614693826fd097f3bdfd2022b8845ad8f792aa582561576b565b901c90505b6120008216156146c35760806146be826fa9f746462d870fdf8a65dc1f90e061e561576b565b901c90505b6140008216156146ee5760806146e9826f70d869a156d2a1b890bb3df62baf32f761576b565b901c90505b618000821615614719576080614714826f31be135f97d08fd981231505542fcfa661576b565b901c90505b62010000821615614745576080614740826f09aa508b5b7a84e1c677de54f3e99bc961576b565b901c90505b6202000082161561477057608061476b826e5d6af8dedb81196699c329225ee60461576b565b901c90505b6204000082161561479a576080614795826d2216e584f5fa1ea926041bedfe9861576b565b901c90505b620800008216156147c25760806147bd826b048a170391f7dc42444e8fa261576b565b901c90505b60008460020b13156147dd576147da81600019615678565b90505b6147ec64010000000082615820565b156147f85760016147fb565b60005b6110739060ff16602083901c615542565b6040805160e081018252600080825260208201819052909182019081526020016000815260200160008152602001600081526020016000151581525090565b5080546000825590600052602060002090810190611dd091906148c5565b60405180610100016040528060008152602001600081526020016000815260200160008152602001600060020b8152602001600060020b8152602001600060018111156148b8576148b8614d7f565b8152600060209091015290565b5b8082111561379f57600081556001016148c6565b6001600160a01b0381168114611dd057600080fd5b6000806040838503121561490257600080fd5b823561490d816148da565b9150602083013561491d816148da565b809150509250929050565b60008083601f84011261493a57600080fd5b50813567ffffffffffffffff81111561495257600080fd5b60208301915083602060e08302850101111561267257600080fd5b6000806000806040858703121561498357600080fd5b843567ffffffffffffffff8082111561499b57600080fd5b818701915087601f8301126149af57600080fd5b8135818111156149be57600080fd5b8860208260051b85010111156149d357600080fd5b6020928301965094509086013590808211156149ee57600080fd5b506149fb87828801614928565b95989497509550505050565b60008060008060808587031215614a1d57600080fd5b8435614a28816148da565b966020860135965060408601359560600135945092505050565b8015158114611dd057600080fd5b60008060408385031215614a6357600080fd5b8235614a6e816148da565b9150602083013561491d81614a42565b634e487b7160e01b600052604160045260246000fd5b604051601f8201601f1916810167ffffffffffffffff81118282101715614abd57614abd614a7e565b604052919050565b80356002811061187157600080fd5b600060e08284031215614ae657600080fd5b60405160e0810181811067ffffffffffffffff82111715614b0957614b09614a7e565b6040529050808235614b1a816148da565b81526020830135614b2a816148da565b6020820152614b3b60408401614ac5565b6040820152606083013560608201526080830135608082015260a083013560a082015260c0830135614b6c81614a42565b60c0919091015292915050565b6000806101008385031215614b8d57600080fd5b8235915061266f8460208501614ad4565b60008060408385031215614bb157600080fd5b8235614bbc816148da565b946020939093013593505050565b600060208284031215614bdc57600080fd5b5035919050565b600060208284031215614bf557600080fd5b813561142d816148da565b60008060208385031215614c1357600080fd5b823567ffffffffffffffff811115614c2a57600080fd5b614c3685828601614928565b90969095509350505050565b600081518084526020808501945080840160005b83811015614c7257815187529582019590820190600101614c56565b509495945050505050565b602081526000610fd66020830184614c42565b600080600060608486031215614ca557600080fd5b8335614cb0816148da565b95602085013595506040909401359392505050565b600067ffffffffffffffff821115614cdf57614cdf614a7e565b5060051b60200190565b60006020808385031215614cfc57600080fd5b823567ffffffffffffffff811115614d1357600080fd5b8301601f81018513614d2457600080fd5b8035614d37614d3282614cc5565b614a94565b81815260059190911b82018301908381019087831115614d5657600080fd5b928401925b82841015614d7457833582529284019290840190614d5b565b979650505050505050565b634e487b7160e01b600052602160045260246000fd5b60028110611dd057634e487b7160e01b600052602160045260246000fd5b80516001600160a01b039081168352602080830151909116908301526040810151614ddd81614d95565b6040830152606081810151908301526080808201519083015260a0808201519083015260c0908101511515910152565b60e08101610fd98284614db3565b600060c08284031215614e2d57600080fd5b50919050565b600060c08284031215614e4557600080fd5b610fd68383614e1b565b600080600060608486031215614e6457600080fd5b8335614e6f816148da565b92506020840135614e7f816148da565b929592945050506040919091013590565b600060e08284031215614e2d57600080fd5b60008060008060808587031215614eb857600080fd5b8435614ec3816148da565b9350602085013592506040850135614eda816148da565b9396929550929360600135925050565b8151815260208083015190820152604080830151908201526060808301519082015260808101610fd9565b600060208284031215614f2757600080fd5b813561142d81614a42565b600080600080600060a08688031215614f4a57600080fd5b8535614f55816148da565b9450614f6360208701614ac5565b94979496505050506040830135926060810135926080909101359150565b60008060e08385031215614f9457600080fd5b8235915061266f8460208501614e1b565b8183526000602080850194508260005b85811015614c72578135614fc8816148da565b6001600160a01b0390811688528284013590614fe3826148da565b16878401526040614ff5838201614ac5565b614ffe81614d95565b90880152606082810135908801526080808301359088015260a0808301359088015260c08083013561502f81614a42565b15159088015260e0968701969190910190600101614fb5565b6001600160a01b0386168152606060208201819052810184905260006001600160fb1b0385111561507857600080fd5b8460051b8087608085013782018281036080908101604085015261509f9082018587614fa5565b98975050505050505050565b6001600160a01b0386168152602080820186905260408083018690526060808401869052845160808501529184015160a084015283015160c083015282015160e082015261010081015b9695505050505050565b6000806040838503121561511257600080fd5b505080516020909101519092909150565b60006020828403121561513557600080fd5b815161142d81614a42565b634e487b7160e01b600052603260045260246000fd5b600081518084526020808501945080840160005b83811015614c725761517d878351614db3565b60e096909601959082019060010161516a565b6001600160a01b03841681526060602082018190526000906151b490830185614c42565b82810360408401526150f58185615156565b6001600160a01b03841681526040602082018190526000906151eb9083018486614fa5565b95945050505050565b6000602080838503121561520757600080fd5b825167ffffffffffffffff81111561521e57600080fd5b8301601f8101851361522f57600080fd5b805161523d614d3282614cc5565b81815260059190911b8201830190838101908783111561525c57600080fd5b928401925b82841015614d7457835182529284019290840190615261565b6001600160a01b038881168252878116602083015260e082019061529d88614d95565b87604084015286606084015285608084015280851660a08401525082151560c083015298975050505050505050565b6001600160a01b038316815260406020820181905260009061107390830184614c42565b80356152fb816148da565b6001600160a01b039081168352602082013590615317826148da565b16602083015260408181013590830152606080820135908301526080808201359083015260a081013561534981614a42565b80151560a0840152505050565b60e0810161536482856152f0565b6001600160a01b039290921660c09190910152919050565b60006020828403121561538e57600080fd5b5051919050565b6000806000606084860312156153aa57600080fd5b8351925060208401519150604084015190509250925092565b634e487b7160e01b600052601160045260246000fd5b80820182811260008312801582168215821617156153f9576153f96153c3565b505092915050565b6000806000806080858703121561541757600080fd5b505082516020840151604085015160609095015191969095509092509050565b600060e0828403121561544957600080fd5b610fd68383614ad4565b6001600160a01b038316815260406020820181905260009061107390830184615156565b6001600160a01b03841681526020810183905260c081016110736040830184805182526020810151602083015260408101516040830152606081015160608301525050565b6001600160a01b038681168252858116602083015260a08201906154df86614d95565b8560408401528460608401528084166080840152509695505050505050565b6001600160a01b0387811682528616602082015260c0810161551f86614d95565b8560408301528460608301528360808301528260a0830152979650505050505050565b80820180821115610fd957610fd96153c3565b838152610100810161556a60208301856152f0565b6001600160a01b039290921660e0919091015292915050565b81810381811115610fd957610fd96153c3565b634e487b7160e01b600052603160045260246000fd5b8181036000831280158383131683831282161715612eb657612eb66153c3565b6000600160ff1b82016155e1576155e16153c3565b5060000390565b604081016155f584614d95565b9281526020015290565b60008160020b627fffff198103615618576156186153c3565b6000190192915050565b60005b8381101561563d578181015183820152602001615625565b50506000910152565b60008251615658818460208701615622565b9190910192915050565b634e487b7160e01b600052601260045260246000fd5b60008261568757615687615662565b500490565b60008160020b8360020b806156a3576156a3615662565b627fffff198214600019821416156156bd576156bd6153c3565b90059392505050565b60008260020b806156d9576156d9615662565b808360020b0791505092915050565b600282810b9082900b03627fffff198112627fffff82131715610fd957610fd96153c3565b60008260020b8260020b028060020b9150808214612eb657612eb66153c3565b60ff8281168282160390811115610fd957610fd96153c3565b600281810b9083900b01627fffff8113627fffff1982121715610fd957610fd96153c3565b8082028115828204841417610fd957610fd96153c3565b80820260008212600160ff1b8414161561579e5761579e6153c3565b8181058314821517610fd957610fd96153c3565b60ff8181168382160190811115610fd957610fd96153c3565b60208152600082518060208401526157ea816040850160208701615622565b601f01601f19169190910160400192915050565b60008160020b627fffff198103615817576158176153c3565b60000392915050565b60008261582f5761582f615662565b50069056fe416464726573733a206c6f772d6c6576656c2064656c65676174652063616c6c206661696c6564a2646970667358221220f35ba950b5479421ff852022cae2467b50320b309c7deca94790349e580df54764736f6c63430008130033",
		"linkReferences": {}
	},
	"methodIdentifiers": {
		"addLiquidity(address,uint256,uint256,uint256)": "1ece366a",
		"addMargin(address,uint256)": "cf70cb69",
		"cancelOwnershipHandover()": "54d1f13d",
		"closePosition(address,uint256,uint256)": "4fa9c4db",
		"closePositionKeeper(address,uint256)": "e2679358",
		"completeOwnershipHandover(address)": "f04e283e",
		"createLimitOrder((address,address,uint8,uint256,uint256,uint256,bool))": "7eb02406",
		"createLimitOrderBatch((address,address,uint8,uint256,uint256,uint256,bool)[])": "4a6ebce7",
		"createTriggerOrder((address,address,uint256,uint256,uint256,bool))": "68d85297",
		"deleteLimitOrder(uint256)": "e859f372",
		"deleteLimitOrderBatch(uint256[])": "517237a9",
		"deleteTriggerOrder(address,uint256)": "364a1a9f",
		"forceLiquidate(address,address)": "aa317dc0",
		"getAMMData(address)": "98712fe4",
		"getCumulativePremiumFraction(address)": "6ea41e40",
		"getCumulativePremiumFractionPerShare(address)": "d3123a80",
		"getDivergenceCap()": "5ac3b62d",
		"getFeeGrowth(address)": "b346679b",
		"getLimitOrder(uint256)": "53061026",
		"getMinOrderbookMargin()": "987362da",
		"getOpenInterestNotional(address)": "429e9237",
		"getPosition(address,address)": "b33dc190",
		"getPositionNotionalUpnl(address,address)": "0e86a08d",
		"getPositionNotionalUpnlByPosition(address,int256,uint256)": "6467024c",
		"getReduceOnlyOrders(address,address)": "73af0205",
		"getTotalPositionSize(address)": "e980e16e",
		"getTriggerOrder(uint256)": "36cef3d9",
		"getTriggerOrders(address,address)": "54b85a3e",
		"getValidAMM(address)": "9dda4e4f",
		"initialize(address,uint256)": "cd6dc687",
		"isActive()": "22f3e2d4",
		"isLiquidatable(address,address)": "3966a28b",
		"isTriggerOrderValid(uint256)": "dd2a65ed",
		"liquidate(address,uint256,address,uint256)": "9457be23",
		"liquidateMaker(address,address,uint256)": "7aefce97",
		"openPosition(address,uint8,uint256,uint256,uint256)": "cbb50e61",
		"owner()": "8da5cb5b",
		"ownershipHandoverExpiresAt(address)": "fee81cf4",
		"ownershipHandoverValidFor()": "d7533f02",
		"removeLiquidity(address,uint256)": "a201ccf6",
		"removeMargin(address,uint256)": "b959d695",
		"renounceOwnership()": "715018a6",
		"requestOwnershipHandover()": "25692962",
		"setActive(bool)": "acec338a",
		"setDivergenceCap(uint256)": "f8b6e449",
		"setMinOrderbookMargin(uint256)": "e3046770",
		"setValidAMM(address,bool)": "207b5b6f",
		"settleFunding(address)": "6b17ad03",
		"transferOwnership(address)": "f2fde38b",
		"updateLimitOrder(uint256,(address,address,uint8,uint256,uint256,uint256,bool))": "2a120de4",
		"updateLimitOrderBatch(uint256[],(address,address,uint8,uint256,uint256,uint256,bool)[])": "13dee2d1",
		"updateTriggerOrder(uint256,(address,address,uint256,uint256,uint256,bool))": "d2435052"
	},
	"id": 43
}