{"abi":[{"type":"constructor","inputs":[{"name":"_weth","type":"address","internalType":"address"},{"name":"_insuranceFund","type":"address","internalType":"address"},{"name":"_positionManager","type":"address","internalType":"address"},{"name":"_positionMerger","type":"address","internalType":"address"},{"name":"_deleverager","type":"address","internalType":"address"},{"name":"_orderCreator","type":"address","internalType":"address"},{"name":"_whitelist","type":"address","internalType":"address"}],"stateMutability":"nonpayable"},{"type":"function","name":"addLiquidity","inputs":[{"name":"amm","type":"address","internalType":"contract IRouter"},{"name":"data","type":"tuple[]","internalType":"struct LiquidityAddData[]","components":[{"name":"index","type":"uint256","internalType":"uint256"},{"name":"margin","type":"uint256","internalType":"uint256"},{"name":"leverage","type":"uint256","internalType":"uint256"}]}],"outputs":[{"name":"returnData","type":"tuple[]","internalType":"struct LiquidityAddReturnData[]","components":[{"name":"pool","type":"address","internalType":"contract IPool"},{"name":"shares","type":"uint256","internalType":"uint256"},{"name":"quote","type":"uint256","internalType":"uint256"},{"name":"base","type":"uint256","internalType":"uint256"}]}],"stateMutability":"nonpayable"},{"type":"function","name":"addMargin","inputs":[{"name":"amm","type":"address","internalType":"contract IRouter"},{"name":"margin","type":"uint256","internalType":"uint256"}],"outputs":[],"stateMutability":"nonpayable"},{"type":"function","name":"adminDeleteLimitOrders","inputs":[{"name":"ids","type":"uint256[]","internalType":"uint256[]"}],"outputs":[],"stateMutability":"nonpayable"},{"type":"function","name":"cancelOwnershipHandover","inputs":[],"outputs":[],"stateMutability":"payable"},{"type":"function","name":"closePosition","inputs":[{"name":"amm","type":"address","internalType":"contract IRouter"},{"name":"size","type":"uint256","internalType":"uint256"},{"name":"quoteLimit","type":"uint256","internalType":"uint256"}],"outputs":[{"name":"quoteAmount","type":"uint256","internalType":"uint256"}],"stateMutability":"nonpayable"},{"type":"function","name":"closePositionKeeper","inputs":[{"name":"id","type":"uint256","internalType":"uint256"}],"outputs":[{"name":"quoteAmount","type":"uint256","internalType":"uint256"}],"stateMutability":"nonpayable"},{"type":"function","name":"completeOwnershipHandover","inputs":[{"name":"pendingOwner","type":"address","internalType":"address"}],"outputs":[],"stateMutability":"payable"},{"type":"function","name":"createLimitOrder","inputs":[{"name":"order","type":"tuple","internalType":"struct LimitOrder","components":[{"name":"trader","type":"address","internalType":"address"},{"name":"amm","type":"address","internalType":"contract IRouter"},{"name":"side","type":"uint8","internalType":"enum Side"},{"name":"trigger","type":"uint256","internalType":"uint256"},{"name":"quoteAmount","type":"uint256","internalType":"uint256"},{"name":"leverage","type":"uint256","internalType":"uint256"},{"name":"reduceOnly","type":"bool","internalType":"bool"}]}],"outputs":[{"name":"id","type":"uint256","internalType":"uint256"}],"stateMutability":"nonpayable"},{"type":"function","name":"createLimitOrderBatch","inputs":[{"name":"_orders","type":"tuple[]","internalType":"struct LimitOrder[]","components":[{"name":"trader","type":"address","internalType":"address"},{"name":"amm","type":"address","internalType":"contract IRouter"},{"name":"side","type":"uint8","internalType":"enum Side"},{"name":"trigger","type":"uint256","internalType":"uint256"},{"name":"quoteAmount","type":"uint256","internalType":"uint256"},{"name":"leverage","type":"uint256","internalType":"uint256"},{"name":"reduceOnly","type":"bool","internalType":"bool"}]}],"outputs":[{"name":"ids","type":"uint256[]","internalType":"uint256[]"}],"stateMutability":"nonpayable"},{"type":"function","name":"createTriggerOrder","inputs":[{"name":"order","type":"tuple","internalType":"struct TriggerOrder","components":[{"name":"trader","type":"address","internalType":"address"},{"name":"amm","type":"address","internalType":"contract IRouter"},{"name":"trigger","type":"uint256","internalType":"uint256"},{"name":"size","type":"uint256","internalType":"uint256"},{"name":"quoteLimit","type":"uint256","internalType":"uint256"},{"name":"takeProfit","type":"bool","internalType":"bool"}]}],"outputs":[{"name":"id","type":"uint256","internalType":"uint256"}],"stateMutability":"nonpayable"},{"type":"function","name":"deleteLimitOrder","inputs":[{"name":"id","type":"uint256","internalType":"uint256"}],"outputs":[],"stateMutability":"nonpayable"},{"type":"function","name":"deleteLimitOrderBatch","inputs":[{"name":"ids","type":"uint256[]","internalType":"uint256[]"}],"outputs":[],"stateMutability":"nonpayable"},{"type":"function","name":"deleteTriggerOrder","inputs":[{"name":"id","type":"uint256","internalType":"uint256"}],"outputs":[],"stateMutability":"nonpayable"},{"type":"function","name":"deleverage","inputs":[{"name":"amm","type":"address","internalType":"contract IRouter"},{"name":"taker","type":"address","internalType":"address"},{"name":"maker","type":"address","internalType":"address"},{"name":"size","type":"uint256","internalType":"uint256"}],"outputs":[],"stateMutability":"nonpayable"},{"type":"function","name":"getCumulativePremiumFraction","inputs":[{"name":"amm","type":"address","internalType":"contract IRouter"}],"outputs":[{"name":"","type":"int256","internalType":"int256"}],"stateMutability":"view"},{"type":"function","name":"getDivergenceCap","inputs":[],"outputs":[{"name":"","type":"uint256","internalType":"uint256"}],"stateMutability":"view"},{"type":"function","name":"getFreeCollateral","inputs":[{"name":"amm","type":"address","internalType":"contract IRouter"},{"name":"trader","type":"address","internalType":"address"}],"outputs":[{"name":"","type":"int256","internalType":"int256"}],"stateMutability":"nonpayable"},{"type":"function","name":"getLimitOrder","inputs":[{"name":"id","type":"uint256","internalType":"uint256"}],"outputs":[{"name":"","type":"tuple","internalType":"struct LimitOrder","components":[{"name":"trader","type":"address","internalType":"address"},{"name":"amm","type":"address","internalType":"contract IRouter"},{"name":"side","type":"uint8","internalType":"enum Side"},{"name":"trigger","type":"uint256","internalType":"uint256"},{"name":"quoteAmount","type":"uint256","internalType":"uint256"},{"name":"leverage","type":"uint256","internalType":"uint256"},{"name":"reduceOnly","type":"bool","internalType":"bool"}]}],"stateMutability":"view"},{"type":"function","name":"getLiquidatorFlatFee","inputs":[],"outputs":[{"name":"","type":"uint256","internalType":"uint256"}],"stateMutability":"view"},{"type":"function","name":"getMinOrderbookMargin","inputs":[],"outputs":[{"name":"","type":"uint256","internalType":"uint256"}],"stateMutability":"view"},{"type":"function","name":"getOpenInterestNotional","inputs":[{"name":"amm","type":"address","internalType":"contract IRouter"}],"outputs":[{"name":"","type":"uint256","internalType":"uint256"}],"stateMutability":"view"},{"type":"function","name":"getPosition","inputs":[{"name":"amm","type":"address","internalType":"contract IRouter"},{"name":"trader","type":"address","internalType":"address"}],"outputs":[{"name":"","type":"tuple","internalType":"struct Position","components":[{"name":"size","type":"int256","internalType":"int256"},{"name":"margin","type":"uint256","internalType":"uint256"},{"name":"openNotional","type":"uint256","internalType":"uint256"},{"name":"lastPremiumFraction","type":"int256","internalType":"int256"},{"name":"blockNumber","type":"uint256","internalType":"uint256"}]}],"stateMutability":"view"},{"type":"function","name":"getPositionNotionalUpnl","inputs":[{"name":"amm","type":"address","internalType":"contract IRouter"},{"name":"trader","type":"address","internalType":"address"}],"outputs":[{"name":"positionNotional","type":"uint256","internalType":"uint256"},{"name":"upnl","type":"int256","internalType":"int256"}],"stateMutability":"nonpayable"},{"type":"function","name":"getReduceOnlyOrders","inputs":[{"name":"trader","type":"address","internalType":"address"},{"name":"amm","type":"address","internalType":"contract IRouter"}],"outputs":[{"name":"","type":"uint256[]","internalType":"uint256[]"}],"stateMutability":"view"},{"type":"function","name":"getTotalPositionSize","inputs":[{"name":"amm","type":"address","internalType":"contract IRouter"}],"outputs":[{"name":"","type":"tuple","internalType":"struct TotalPositionSize","components":[{"name":"netPositionSize","type":"int256","internalType":"int256"},{"name":"positionSizeLong","type":"uint256","internalType":"uint256"},{"name":"positionSizeShort","type":"uint256","internalType":"uint256"}]}],"stateMutability":"view"},{"type":"function","name":"getTriggerOrder","inputs":[{"name":"id","type":"uint256","internalType":"uint256"}],"outputs":[{"name":"","type":"tuple","internalType":"struct TriggerOrder","components":[{"name":"trader","type":"address","internalType":"address"},{"name":"amm","type":"address","internalType":"contract IRouter"},{"name":"trigger","type":"uint256","internalType":"uint256"},{"name":"size","type":"uint256","internalType":"uint256"},{"name":"quoteLimit","type":"uint256","internalType":"uint256"},{"name":"takeProfit","type":"bool","internalType":"bool"}]}],"stateMutability":"view"},{"type":"function","name":"getTriggerOrders","inputs":[{"name":"trader","type":"address","internalType":"address"},{"name":"amm","type":"address","internalType":"contract IRouter"}],"outputs":[{"name":"","type":"uint256[]","internalType":"uint256[]"}],"stateMutability":"view"},{"type":"function","name":"getValidAMM","inputs":[{"name":"amm","type":"address","internalType":"contract IRouter"}],"outputs":[{"name":"","type":"bool","internalType":"bool"}],"stateMutability":"view"},{"type":"function","name":"initialize","inputs":[{"name":"_owner","type":"address","internalType":"address"},{"name":"_divergenceCap","type":"uint256","internalType":"uint256"},{"name":"_minOrderbookMargin","type":"uint256","internalType":"uint256"}],"outputs":[],"stateMutability":"nonpayable"},{"type":"function","name":"isActive","inputs":[],"outputs":[{"name":"","type":"bool","internalType":"bool"}],"stateMutability":"view"},{"type":"function","name":"isLiquidatable","inputs":[{"name":"amm","type":"address","internalType":"contract IRouter"},{"name":"trader","type":"address","internalType":"address"}],"outputs":[{"name":"","type":"bool","internalType":"bool"}],"stateMutability":"view"},{"type":"function","name":"isTriggerOrderValid","inputs":[{"name":"id","type":"uint256","internalType":"uint256"}],"outputs":[{"name":"","type":"bool","internalType":"bool"}],"stateMutability":"view"},{"type":"function","name":"liquidate","inputs":[{"name":"amm","type":"address","internalType":"contract IRouter"},{"name":"liquidatee","type":"address","internalType":"address"}],"outputs":[{"name":"liquidatorFee","type":"uint256","internalType":"uint256"}],"stateMutability":"nonpayable"},{"type":"function","name":"liquidateMaker","inputs":[{"name":"amm","type":"address","internalType":"contract IRouter"},{"name":"liquidatee","type":"address","internalType":"address"}],"outputs":[],"stateMutability":"nonpayable"},{"type":"function","name":"openPosition","inputs":[{"name":"amm","type":"address","internalType":"contract IRouter"},{"name":"side","type":"uint8","internalType":"enum Side"},{"name":"quote","type":"uint256","internalType":"uint256"},{"name":"leverage","type":"uint256","internalType":"uint256"},{"name":"baseLimit","type":"uint256","internalType":"uint256"}],"outputs":[{"name":"baseAmount","type":"uint256","internalType":"uint256"}],"stateMutability":"nonpayable"},{"type":"function","name":"owner","inputs":[],"outputs":[{"name":"result","type":"address","internalType":"address"}],"stateMutability":"view"},{"type":"function","name":"ownershipHandoverExpiresAt","inputs":[{"name":"pendingOwner","type":"address","internalType":"address"}],"outputs":[{"name":"result","type":"uint256","internalType":"uint256"}],"stateMutability":"view"},{"type":"function","name":"removeLiquidity","inputs":[{"name":"amm","type":"address","internalType":"contract IRouter"},{"name":"data","type":"tuple[]","internalType":"struct LiquidityRemoveData[]","components":[{"name":"index","type":"uint256","internalType":"uint256"},{"name":"shares","type":"uint256","internalType":"uint256"}]},{"name":"addedMargin","type":"uint256","internalType":"uint256"}],"outputs":[],"stateMutability":"nonpayable"},{"type":"function","name":"removeMargin","inputs":[{"name":"amm","type":"address","internalType":"contract IRouter"},{"name":"margin","type":"uint256","internalType":"uint256"}],"outputs":[],"stateMutability":"nonpayable"},{"type":"function","name":"renounceOwnership","inputs":[],"outputs":[],"stateMutability":"payable"},{"type":"function","name":"requestOwnershipHandover","inputs":[],"outputs":[],"stateMutability":"payable"},{"type":"function","name":"setActive","inputs":[{"name":"_active","type":"bool","internalType":"bool"}],"outputs":[],"stateMutability":"nonpayable"},{"type":"function","name":"setDivergenceCap","inputs":[{"name":"_divergenceCap","type":"uint256","internalType":"uint256"}],"outputs":[],"stateMutability":"nonpayable"},{"type":"function","name":"setLiquidatorFlatFee","inputs":[{"name":"_liquidatorFlatFee","type":"uint256","internalType":"uint256"}],"outputs":[],"stateMutability":"nonpayable"},{"type":"function","name":"setMinOrderbookMargin","inputs":[{"name":"minMargin","type":"uint256","internalType":"uint256"}],"outputs":[],"stateMutability":"nonpayable"},{"type":"function","name":"setValidAMM","inputs":[{"name":"amm","type":"address","internalType":"contract IRouter"},{"name":"valid","type":"bool","internalType":"bool"}],"outputs":[],"stateMutability":"nonpayable"},{"type":"function","name":"settleFunding","inputs":[{"name":"amm","type":"address","internalType":"contract IRouter"}],"outputs":[],"stateMutability":"nonpayable"},{"type":"function","name":"transferOwnership","inputs":[{"name":"newOwner","type":"address","internalType":"address"}],"outputs":[],"stateMutability":"payable"},{"type":"function","name":"updateLimitOrder","inputs":[{"name":"id","type":"uint256","internalType":"uint256"},{"name":"order","type":"tuple","internalType":"struct LimitOrder","components":[{"name":"trader","type":"address","internalType":"address"},{"name":"amm","type":"address","internalType":"contract IRouter"},{"name":"side","type":"uint8","internalType":"enum Side"},{"name":"trigger","type":"uint256","internalType":"uint256"},{"name":"quoteAmount","type":"uint256","internalType":"uint256"},{"name":"leverage","type":"uint256","internalType":"uint256"},{"name":"reduceOnly","type":"bool","internalType":"bool"}]}],"outputs":[],"stateMutability":"nonpayable"},{"type":"function","name":"updateLimitOrderBatch","inputs":[{"name":"ids","type":"uint256[]","internalType":"uint256[]"},{"name":"_orders","type":"tuple[]","internalType":"struct LimitOrder[]","components":[{"name":"trader","type":"address","internalType":"address"},{"name":"amm","type":"address","internalType":"contract IRouter"},{"name":"side","type":"uint8","internalType":"enum Side"},{"name":"trigger","type":"uint256","internalType":"uint256"},{"name":"quoteAmount","type":"uint256","internalType":"uint256"},{"name":"leverage","type":"uint256","internalType":"uint256"},{"name":"reduceOnly","type":"bool","internalType":"bool"}]}],"outputs":[],"stateMutability":"nonpayable"},{"type":"function","name":"updateTriggerOrder","inputs":[{"name":"id","type":"uint256","internalType":"uint256"},{"name":"order","type":"tuple","internalType":"struct TriggerOrder","components":[{"name":"trader","type":"address","internalType":"address"},{"name":"amm","type":"address","internalType":"contract IRouter"},{"name":"trigger","type":"uint256","internalType":"uint256"},{"name":"size","type":"uint256","internalType":"uint256"},{"name":"quoteLimit","type":"uint256","internalType":"uint256"},{"name":"takeProfit","type":"bool","internalType":"bool"}]}],"outputs":[],"stateMutability":"nonpayable"},{"type":"event","name":"AMMInvalidated","inputs":[{"name":"amm","type":"address","indexed":true,"internalType":"contract IRouter"}],"anonymous":false},{"type":"event","name":"AMMValidated","inputs":[{"name":"amm","type":"address","indexed":true,"internalType":"contract IRouter"}],"anonymous":false},{"type":"event","name":"Activated","inputs":[],"anonymous":false},{"type":"event","name":"Deactivated","inputs":[],"anonymous":false},{"type":"event","name":"DivergenceCapChanged","inputs":[{"name":"divergenceCap","type":"uint256","indexed":false,"internalType":"uint256"}],"anonymous":false},{"type":"event","name":"FeeDistributed","inputs":[{"name":"amm","type":"address","indexed":true,"internalType":"contract IRouter"},{"name":"payer","type":"address","indexed":true,"internalType":"address"},{"name":"receiver","type":"address","indexed":true,"internalType":"address"},{"name":"id","type":"uint256","indexed":false,"internalType":"uint256"},{"name":"amount","type":"uint256","indexed":false,"internalType":"uint256"},{"name":"feeType","type":"uint8","indexed":false,"internalType":"enum FeeType"}],"anonymous":false},{"type":"event","name":"FundingSettled","inputs":[{"name":"amm","type":"address","indexed":true,"internalType":"contract IRouter"},{"name":"markPrice","type":"uint256","indexed":false,"internalType":"uint256"},{"name":"indexPrice","type":"uint256","indexed":false,"internalType":"uint256"},{"name":"premiumFraction","type":"int256","indexed":false,"internalType":"int256"}],"anonymous":false},{"type":"event","name":"Initialized","inputs":[{"name":"version","type":"uint8","indexed":false,"internalType":"uint8"}],"anonymous":false},{"type":"event","name":"LimitOrderRemoved","inputs":[{"name":"id","type":"uint256","indexed":true,"internalType":"uint256"},{"name":"amm","type":"address","indexed":true,"internalType":"contract IRouter"},{"name":"trader","type":"address","indexed":true,"internalType":"address"},{"name":"result","type":"uint8","indexed":false,"internalType":"enum LimitOrderResult"}],"anonymous":false},{"type":"event","name":"LimitOrderUpdated","inputs":[{"name":"id","type":"uint256","indexed":true,"internalType":"uint256"},{"name":"amm","type":"address","indexed":true,"internalType":"contract IRouter"},{"name":"trader","type":"address","indexed":true,"internalType":"address"},{"name":"order","type":"tuple","indexed":false,"internalType":"struct LimitOrder","components":[{"name":"trader","type":"address","internalType":"address"},{"name":"amm","type":"address","internalType":"contract IRouter"},{"name":"side","type":"uint8","internalType":"enum Side"},{"name":"trigger","type":"uint256","internalType":"uint256"},{"name":"quoteAmount","type":"uint256","internalType":"uint256"},{"name":"leverage","type":"uint256","internalType":"uint256"},{"name":"reduceOnly","type":"bool","internalType":"bool"}]}],"anonymous":false},{"type":"event","name":"LiquidityAdded","inputs":[{"name":"amm","type":"address","indexed":true,"internalType":"contract IRouter"},{"name":"maker","type":"address","indexed":true,"internalType":"address"}],"anonymous":false},{"type":"event","name":"LiquidityRemoved","inputs":[{"name":"amm","type":"address","indexed":true,"internalType":"contract IRouter"},{"name":"trader","type":"address","indexed":true,"internalType":"address"}],"anonymous":false},{"type":"event","name":"MarginAdded","inputs":[{"name":"amm","type":"address","indexed":true,"internalType":"contract IRouter"},{"name":"trader","type":"address","indexed":true,"internalType":"address"},{"name":"amount","type":"uint256","indexed":false,"internalType":"uint256"}],"anonymous":false},{"type":"event","name":"MarginRemoved","inputs":[{"name":"amm","type":"address","indexed":true,"internalType":"contract IRouter"},{"name":"trader","type":"address","indexed":true,"internalType":"address"},{"name":"amount","type":"uint256","indexed":false,"internalType":"uint256"}],"anonymous":false},{"type":"event","name":"MinOrderbookMarginChanged","inputs":[{"name":"minOrderbookMargin","type":"uint256","indexed":false,"internalType":"uint256"}],"anonymous":false},{"type":"event","name":"OpenInterestChanged","inputs":[{"name":"amm","type":"address","indexed":true,"internalType":"contract IRouter"},{"name":"newOpenInterest","type":"uint256","indexed":false,"internalType":"uint256"}],"anonymous":false},{"type":"event","name":"OwnershipHandoverCanceled","inputs":[{"name":"pendingOwner","type":"address","indexed":true,"internalType":"address"}],"anonymous":false},{"type":"event","name":"OwnershipHandoverRequested","inputs":[{"name":"pendingOwner","type":"address","indexed":true,"internalType":"address"}],"anonymous":false},{"type":"event","name":"OwnershipTransferred","inputs":[{"name":"oldOwner","type":"address","indexed":true,"internalType":"address"},{"name":"newOwner","type":"address","indexed":true,"internalType":"address"}],"anonymous":false},{"type":"event","name":"PositionChanged","inputs":[{"name":"amm","type":"address","indexed":true,"internalType":"contract IRouter"},{"name":"trader","type":"address","indexed":true,"internalType":"address"},{"name":"margin","type":"uint256","indexed":false,"internalType":"uint256"},{"name":"size","type":"int256","indexed":false,"internalType":"int256"},{"name":"openNotional","type":"uint256","indexed":false,"internalType":"uint256"},{"name":"exchangedQuote","type":"uint256","indexed":false,"internalType":"uint256"},{"name":"exchangedBase","type":"int256","indexed":false,"internalType":"int256"},{"name":"realizedPnL","type":"int256","indexed":false,"internalType":"int256"},{"name":"fundingPayment","type":"int256","indexed":false,"internalType":"int256"},{"name":"markPrice","type":"uint256","indexed":false,"internalType":"uint256"},{"name":"tradeType","type":"uint8","indexed":false,"internalType":"enum TradeType"}],"anonymous":false},{"type":"event","name":"TriggerOrderRemoved","inputs":[{"name":"id","type":"uint256","indexed":true,"internalType":"uint256"},{"name":"amm","type":"address","indexed":true,"internalType":"contract IRouter"},{"name":"trader","type":"address","indexed":true,"internalType":"address"},{"name":"keeper","type":"address","indexed":false,"internalType":"address"}],"anonymous":false},{"type":"event","name":"TriggerOrderUpdated","inputs":[{"name":"id","type":"uint256","indexed":true,"internalType":"uint256"},{"name":"amm","type":"address","indexed":true,"internalType":"contract IRouter"},{"name":"trader","type":"address","indexed":true,"internalType":"address"},{"name":"order","type":"tuple","indexed":false,"internalType":"struct TriggerOrder","components":[{"name":"trader","type":"address","internalType":"address"},{"name":"amm","type":"address","internalType":"contract IRouter"},{"name":"trigger","type":"uint256","internalType":"uint256"},{"name":"size","type":"uint256","internalType":"uint256"},{"name":"quoteLimit","type":"uint256","internalType":"uint256"},{"name":"takeProfit","type":"bool","internalType":"bool"}]}],"anonymous":false},{"type":"error","name":"AMM_IS_ACTIVE","inputs":[]},{"type":"error","name":"AlreadyInitialized","inputs":[]},{"type":"error","name":"BAD_DEBT","inputs":[]},{"type":"error","name":"INACTIVE","inputs":[]},{"type":"error","name":"INSUFFICIENT_LIQUIDITY","inputs":[]},{"type":"error","name":"INSUFFICIENT_MARGIN","inputs":[]},{"type":"error","name":"INSUFFICIENT_OPEN_NOTIONAL","inputs":[]},{"type":"error","name":"INSUFFICIENT_SIZE","inputs":[]},{"type":"error","name":"INVALID_AMM","inputs":[]},{"type":"error","name":"INVALID_SIDE","inputs":[]},{"type":"error","name":"INVALID_TRIGGER_AMOUNT","inputs":[]},{"type":"error","name":"LEVERAGE_UNDER_1X","inputs":[]},{"type":"error","name":"LIQUIDATABLE","inputs":[]},{"type":"error","name":"NOT_LIMIT_CLOSE","inputs":[]},{"type":"error","name":"NOT_LIQUIDATABLE","inputs":[]},{"type":"error","name":"NOT_REDUCE_ONLY","inputs":[]},{"type":"error","name":"NOT_TRADER","inputs":[]},{"type":"error","name":"NO_POOL_IN_RANGE","inputs":[]},{"type":"error","name":"NO_POSITION","inputs":[]},{"type":"error","name":"NewOwnerIsZeroAddress","inputs":[]},{"type":"error","name":"NoHandoverRequest","inputs":[]},{"type":"error","name":"OPEN_INTEREST_CAP_EXCEEDED","inputs":[]},{"type":"error","name":"OVER_DIVERGENCE_CAP","inputs":[]},{"type":"error","name":"OVER_MAX_LEVERAGE","inputs":[]},{"type":"error","name":"OVER_MAX_SIZE","inputs":[]},{"type":"error","name":"POSITION_ON_WRONG_SIDE","inputs":[]},{"type":"error","name":"SANDWICH","inputs":[]},{"type":"error","name":"TRIGGER_INVALID","inputs":[]},{"type":"error","name":"TRIGGER_ON_MARK","inputs":[]},{"type":"error","name":"Unauthorized","inputs":[]}],"bytecode":{"object":"0x6101606040526618de76816d80006010553480156200001d57600080fd5b5060405162004a5238038062004a52833981016040819052620000409162000169565b6001600160a01b038088166080528681166101205285811660a05284811660c05283811660e052828116610100528116610140526200007e6200008b565b50505050505050620001fe565b604154610100900460ff1615620000f85760405162461bcd60e51b815260206004820152602760248201527f496e697469616c697a61626c653a20636f6e747261637420697320696e697469604482015266616c697a696e6760c81b606482015260840160405180910390fd5b60415460ff908116146200014a576041805460ff191660ff9081179091556040519081527f7f26b83ff96e1f2b6a682f133852f6798a09c465da95921460cefb38474024989060200160405180910390a15b565b80516001600160a01b03811681146200016457600080fd5b919050565b600080600080600080600060e0888a0312156200018557600080fd5b62000190886200014c565b9650620001a0602089016200014c565b9550620001b0604089016200014c565b9450620001c0606089016200014c565b9350620001d0608089016200014c565b9250620001e060a089016200014c565b9150620001f060c089016200014c565b905092959891949750929550565b60805160a05160c05160e051610100516101205161014051614766620002ec60003960008181610ffa0152818161103e015281816118160152818161185a01528181611e0e01528181611e520152818161255a015261259e01526000611777015260008181610aec015281816110f20152818161125e01528181611432015281816115cb01526120be01526000610edf015260008181610a4c01528181611b4e01526122f2015260008181610dc401528181611a090152611f3301526000818161175501528181611d9501528181611fcd015281816122550152818161232b015261269901526147666000f3fe6080604052600436106102445760003560e01c80630e5389a1146102495780630e86a08d1461026d57806313dee2d1146102a2578063207b5b6f146102c457806322f3e2d4146102e457806323c16e221461030e578063256929621461032e57806325a208a2146103365780632a120de41461035657806333d3bd301461037657806336cef3d9146103965780633966a28b146104a4578063429e9237146104c45780634a6ebce7146104fa5780634fa9c4db14610527578063517237a914610547578063530610261461056757806354b85a3e1461059457806354d1f13d146105b45780635ac3b62d146105bc57806368d85297146105d15780636b17ad03146105f15780636ea41e40146106115780636f82317b14610647578063715018a61461066757806373af02051461066f5780637a1ac61e1461068f5780637d6727ed146106af5780637eb02406146106cf57806386b9d81f146106ef5780638da5cb5b1461070f578063987362da146107315780639dda4e4f146107465780639fddd8d21461077f578063acec338a1461079f578063b33dc190146107bf578063b959d695146107ec578063cbb50e611461080c578063cf70cb691461082c578063d24350521461084c578063da8c7e401461086c578063db1b5c971461088c578063dd2a65ed146108ac578063e3046770146108cc578063e859f372146108ec578063e980e16e1461090c578063efdb94231461094e578063f04e283e1461097b578063f2fde38b1461098e578063f8b6e449146109a1578063fee81cf4146109c1575b600080fd5b34801561025557600080fd5b506010545b6040519081526020015b60405180910390f35b34801561027957600080fd5b5061028d6102883660046136db565b6109f4565b60408051928352602083019190915201610264565b3480156102ae57600080fd5b506102c26102bd36600461375f565b610a94565b005b3480156102d057600080fd5b506102c26102df366004613806565b610b19565b3480156102f057600080fd5b5060415462010000900460ff165b6040519015158152602001610264565b34801561031a57600080fd5b5061025a610329366004613834565b610c48565b6102c2610e1b565b34801561034257600080fd5b506102c261035136600461384d565b610e6a565b34801561036257600080fd5b506102c26103713660046139bf565b610f05565b34801561038257600080fd5b5061025a6103913660046136db565b610fbb565b3480156103a257600080fd5b5061044d6103b1366004613834565b6040805160c081018252600080825260208201819052918101829052606081018290526080810182905260a0810191909152506000908152600b6020908152604091829020825160c08101845281546001600160a01b03908116825260018301541692810192909252600281015492820192909252600382015460608201526004820154608082015260059091015460ff16151560a082015290565b604051610264919081516001600160a01b0390811682526020808401519091169082015260408083015190820152606080830151908201526080808301519082015260a09182015115159181019190915260c00190565b3480156104b057600080fd5b506102fe6104bf3660046136db565b610fd9565b3480156104d057600080fd5b5061025a6104df3660046139ed565b6001600160a01b031660009081526006602052604090205490565b34801561050657600080fd5b5061051a610515366004613a0a565b610fee565b6040516102649190613a7a565b34801561053357600080fd5b5061025a610542366004613a8d565b611136565b34801561055357600080fd5b506102c2610562366004613ae5565b61120c565b34801561057357600080fd5b50610587610582366004613834565b611284565b6040516102649190613c02565b3480156105a057600080fd5b5061051a6105af3660046136db565b611330565b6102c26113a9565b3480156105c857600080fd5b50600d5461025a565b3480156105dd57600080fd5b5061025a6105ec366004613c28565b6113e5565b3480156105fd57600080fd5b506102c261060c3660046139ed565b61146e565b34801561061d57600080fd5b5061025a61062c3660046139ed565b6001600160a01b031660009081526004602052604090205490565b34801561065357600080fd5b506102c2610662366004613ae5565b61157b565b6102c26115f1565b34801561067b57600080fd5b5061051a61068a3660046136db565b611605565b34801561069b57600080fd5b506102c26106aa366004613a8d565b61167c565b3480156106bb57600080fd5b506102c26106ca366004613834565b6117fd565b3480156106db57600080fd5b5061025a6106ea366004613c44565b61180a565b3480156106fb57600080fd5b5061025a61070a3660046136db565b611978565b34801561071b57600080fd5b50610724611a45565b6040516102649190613c56565b34801561073d57600080fd5b50600e5461025a565b34801561075257600080fd5b506102fe6107613660046139ed565b6001600160a01b031660009081526003602052604090205460ff1690565b34801561078b57600080fd5b506102c261079a3660046136db565b611a4f565b3480156107ab57600080fd5b506102c26107ba366004613c6a565b611bc5565b3480156107cb57600080fd5b506107df6107da3660046136db565b611c46565b6040516102649190613cb7565b3480156107f857600080fd5b506102c2610807366004613cc5565b611c58565b34801561081857600080fd5b5061025a610827366004613cf1565b611e02565b34801561083857600080fd5b506102c2610847366004613cc5565b611f84565b34801561085857600080fd5b506102c2610867366004613d40565b612072565b34801561087857600080fd5b506102c2610887366004613834565b6120e9565b34801561089857600080fd5b506102c26108a7366004613d64565b6121ab565b3480156108b857600080fd5b506102fe6108c7366004613834565b612391565b3480156108d857600080fd5b506102c26108e7366004613834565b612444565b3480156108f857600080fd5b506102c2610907366004613834565b612488565b34801561091857600080fd5b5061092c6109273660046139ed565b6124e8565b6040805182518152602080840151908201529181015190820152606001610264565b34801561095a57600080fd5b5061096e610969366004613df1565b61254e565b6040516102649190613e78565b6102c26109893660046139ed565b6126ff565b6102c261099c3660046139ed565b61273c565b3480156109ad57600080fd5b506102c26109bc366004613834565b612763565b3480156109cd57600080fd5b5061025a6109dc3660046139ed565b63389a75e1600c908152600091909152602090205490565b6000806000610a7285610a0787876127a0565b604051602401610a18929190613ee5565b60408051601f198184030181529190526020810180516001600160e01b03166334fccb6d60e21b1790526001600160a01b037f0000000000000000000000000000000000000000000000000000000000000000169061280b565b905080806020019051810190610a889190613f02565b90969095509350505050565b610a9c612830565b610b123385858585604051602401610ab8959493929190613fca565b60408051601f198184030181529190526020810180516001600160e01b031663e98143ad60e01b1790526001600160a01b037f0000000000000000000000000000000000000000000000000000000000000000169061280b565b5050505050565b610b21612859565b80158015610b8c5750816001600160a01b03166322f3e2d46040518163ffffffff1660e01b8152600401602060405180830381865afa158015610b68573d6000803e3d6000fd5b505050506040513d601f19601f82011682018060405250810190610b8c919061402d565b15610baa5760405163cdd8a30360e01b815260040160405180910390fd5b6001600160a01b0382166000908152600360205260409020805460ff19168215801591909117909155610c0f576040516001600160a01b038316907fe541249509232f3b648c653a6759a750d245da1a7b3e0b3878d4b5d3f4fcec1190600090a25050565b6040516001600160a01b038316907f0cf3718d7b5134fb0be63caea34ab4b8e6f19d5b5c3c4f7b4cfb00db821204ae90600090a25b5050565b6000610c52612830565b6000828152600b6020908152604091829020825160c08101845281546001600160a01b03908116825260018301541692810183905260028201549381019390935260038101546060840152600481015460808401526005015460ff16151560a0830152610cbe90612874565b610cd0816020015182600001516128ad565b6000610ce4826020015183600001516128da565b90506000610cf182612921565b9050610d1c836020015160008413610d0a576001610d0d565b60005b85604001518660a00151612930565b8083606001511115610d3057606083018190525b6000808313610d40576000610d43565b60015b9050610d59846020015187866000015133612959565b8351602085015160608601516080870151604051600094610dea94610d9094919390928892919033908f908c85149060240161404a565b60408051601f198184030181529190526020810180516001600160e01b03166368622da160e01b1790526001600160a01b037f0000000000000000000000000000000000000000000000000000000000000000169061280b565b9050610dfa856020015183612b95565b80806020019051810190610e0e91906140a2565b955050505050505b919050565b60006202a3006001600160401b03164201905063389a75e1600c5233600052806020600c2055337fdbf36a107da19e49527a7176a1babf963b4b0ff8cde35ee35d6cd8f1f9ac7e1d600080a250565b610e72612859565b610e7b84612874565b6040516001600160a01b03808616602483015280851660448301528316606482015260848101829052610b129060a40160408051601f198184030181529190526020810180516001600160e01b03166312d1045160e11b1790526001600160a01b037f0000000000000000000000000000000000000000000000000000000000000000169061280b565b610f0d612830565b604080516001808252818301909252600091816020015b610f2c61362a565b815260200190600190039081610f2457505060408051600180825281830190925291925060009190602080830190803683370190505090508282600081518110610f7857610f786140bb565b60200260200101819052508381600081518110610f9757610f976140bb565b602002602001018181525050610b12338284604051602401610ab89392919061410b565b6000610fd083610fcb85856127a0565b612cf3565b90505b92915050565b6000610fd083610fe985856127a0565b612e0d565b6060610ff8612830565b7f00000000000000000000000000000000000000000000000000000000000000006001600160a01b0316156110a457604051633026f7e360e11b81526001600160a01b037f0000000000000000000000000000000000000000000000000000000000000000169063604defc690611073903390600401613c56565b60006040518083038186803b15801561108b57600080fd5b505afa15801561109f573d6000803e3d6000fd5b505050505b60006111183385856040516024016110be93929190614141565b60408051601f198184030181529190526020810180516001600160e01b0316638b69f89760e01b1790526001600160a01b037f0000000000000000000000000000000000000000000000000000000000000000169061280b565b90508080602001905181019061112e919061416f565b949350505050565b6000611140612830565b61114984612874565b61115384336128ad565b600061115f85336128da565b9050600061116c82612921565b90508085111561118f57604051631eab837160e11b815260040160405180910390fd5b846000036111a257600092505050611205565b60008083136111b25760006111b5565b60015b905060006111de3389848a8a6000808a8f14604051602401610d9098979695949392919061404a565b90506111ea8883612b95565b808060200190518101906111fe91906140a2565b9450505050505b9392505050565b611214612830565b610c44338260405160240161122a9291906141f4565b60408051601f198184030181529190526020810180516001600160e01b0316637d5eb41f60e01b1790526001600160a01b037f0000000000000000000000000000000000000000000000000000000000000000169061280b565b61128c61362a565b6000828152600a6020908152604091829020825160e08101845281546001600160a01b039081168252600180840154918216948301949094529093919291840191600160a01b90910460ff16908111156112e8576112e8613b6f565b60018111156112f9576112f9613b6f565b815260028201546020820152600382015460408201526004820154606082015260059091015460ff16151560809091015292915050565b6001600160a01b03808316600090815260096020908152604080832093851683529281529082902080548351818402810184019094528084526060939283018282801561139c57602002820191906000526020600020905b815481526020019060010190808311611388575b5050505050905092915050565b63389a75e1600c523360005260006020600c2055337ffa7b8eab7da67f412cc9575ed43464468f9bfbae89d1675917346ca6d8fe3c92600080a2565b60008061145883336040516024016113fe92919061427e565b60408051601f198184030181529190526020810180516001600160e01b0316631da5734360e21b1790526001600160a01b037f0000000000000000000000000000000000000000000000000000000000000000169061280b565b90508080602001905181019061120591906140a2565b611476612830565b61147f81612874565b6000806000836001600160a01b031663ed83d79c6040518163ffffffff1660e01b81526004016060604051808303816000875af11580156114c4573d6000803e3d6000fd5b505050506040513d601f19601f820116820180604052508101906114e891906142a4565b6001600160a01b038716600090815260046020526040902054929550909350915061151384826142e8565b6001600160a01b0386166000818152600460209081526040918290208490558151878152908101869052908101839052919250907fbfed1e6debfebfaef8f787a2e2c506676d0e9e9f06d217ef82d090151af844e89060600160405180910390a25050505050565b611583612859565b610c44816040516024016115979190613a7a565b60408051601f198184030181529190526020810180516001600160e01b0316636f82317b60e01b1790526001600160a01b037f0000000000000000000000000000000000000000000000000000000000000000169061280b565b6115f9612859565b6116036000612f4a565b565b6001600160a01b03808316600090815260086020908152604080832093851683529281529082902080548351818402810184019094528084526060939283018282801561139c5760200282019190600052602060002090815481526020019060010190808311611388575050505050905092915050565b604154610100900460ff161580801561169c5750604154600160ff909116105b806116bd57506116ab30612f76565b1580156116bd575060415460ff166001145b6117255760405162461bcd60e51b815260206004820152602e60248201527f496e697469616c697a61626c653a20636f6e747261637420697320616c72656160448201526d191e481a5b9a5d1a585b1a5e995960921b60648201526084015b60405180910390fd5b6041805460ff191660011790558015611748576041805461ff0019166101001790555b61179e6001600160a01b037f0000000000000000000000000000000000000000000000000000000000000000167f0000000000000000000000000000000000000000000000000000000000000000600019612f85565b600d839055600e8290556117b184612fcb565b80156117f7576041805461ff0019169055604051600181527f7f26b83ff96e1f2b6a682f133852f6798a09c465da95921460cefb38474024989060200160405180910390a15b50505050565b611805612859565b601055565b6000611814612830565b7f00000000000000000000000000000000000000000000000000000000000000006001600160a01b0316156118c057604051633026f7e360e11b81526001600160a01b037f0000000000000000000000000000000000000000000000000000000000000000169063604defc69061188f903390600401613c56565b60006040518083038186803b1580156118a757600080fd5b505afa1580156118bb573d6000803e3d6000fd5b505050505b604080516001808252818301909252600091816020015b6118df61362a565b8152602001906001900390816118d757905050905061190336849003840184614310565b81600081518110611916576119166140bb565b6020026020010181905250600061193933836040516024016110be92919061432c565b9050600081806020019051810190611951919061416f565b905080600081518110611966576119666140bb565b60200260200101519350505050919050565b6000611982612830565b61198b83612874565b61199983610fe985856127a0565b6119b657604051633da1f7d160e11b815260040160405180910390fd5b6000611a2f8484336000806040516024016119d5959493929190614350565b60408051601f198184030181529190526020810180516001600160e01b0316636f70e66f60e01b1790526001600160a01b037f0000000000000000000000000000000000000000000000000000000000000000169061280b565b90508080602001905181019061112e91906140a2565b638b78c6d8195490565b611a57612830565b611a6082612874565b6000806000846001600160a01b0316631bde66e7856040518263ffffffff1660e01b8152600401611a919190613c56565b6060604051808303816000875af1158015611ab0573d6000803e3d6000fd5b505050506040513d601f19601f82011682018060405250810190611ad491906142a4565b6040516001600160a01b03808a166024830152336044830152881660648201526084810184905260a4810183905260c481018290529295509093509150600090611b749060e40160408051601f198184030181529190526020810180516001600160e01b031662312c6d60e21b1790526001600160a01b037f0000000000000000000000000000000000000000000000000000000000000000169061280b565b9050600080600083806020019051810190611b8f9190614384565b9250925092508215611bba57611bb789893384866040516024016119d5959493929190614350565b93505b505050505050505050565b611bcd612859565b6041805482158015620100000262ff00001990921691909117909155611c19576040517fed1cd0670ee0c0017f550451a038818c696d0b6a9d6ce5b369e44275573cf9b090600090a150565b6040517f1142a68cc39970640eb3524e77b91f78be21abc64f20f5919387eb46699bb77290600090a15b50565b611c4e613669565b610fd083836127a0565b611c60612830565b611c6982612874565b6001600160a01b0382166000908152602081815260408083203384528252808320815160a081018352815481526001820154938101849052600282015492810192909252600381015460608301526004015460808201529103611cdf57604051631d5fdf4760e11b815260040160405180910390fd5b6000611cfe8483611cf986670de0b6b3a763ffff19612ff5565b613042565b90508060400151600014611d2557604051632c7c1d6360e11b815260040160405180910390fd5b6060808201516020840152815190830152611d408483613137565b6001600160a01b038085166000908152602081815260408083203380855290835292819020865181559186015160018301558501516002820155606085015160038201556080850151600490910155611dbc917f0000000000000000000000000000000000000000000000000000000000000000169085613162565b60405183815233906001600160a01b038616907fb0fa03f93c852a6feaaeb34ccf4cf865cc223c4cc9d25dce28a9131fde2710719060200160405180910390a350505050565b6000611e0c612830565b7f00000000000000000000000000000000000000000000000000000000000000006001600160a01b031615611eb857604051633026f7e360e11b81526001600160a01b037f0000000000000000000000000000000000000000000000000000000000000000169063604defc690611e87903390600401613c56565b60006040518083038186803b158015611e9f57600080fd5b505afa158015611eb3573d6000803e3d6000fd5b505050505b611ec186612874565b611ecb86336128ad565b611edf8685611eda818761319e565b6131b3565b6000611f59338888888888604051602401611eff969594939291906143bb565b60408051601f198184030181529190526020810180516001600160e01b03166310faff9560e31b1790526001600160a01b037f0000000000000000000000000000000000000000000000000000000000000000169061280b565b9050611f658787612b95565b80806020019051810190611f7991906140a2565b979650505050505050565b611f8c612830565b611f9582612874565b611f9f82336127a0565b51600003611fc057604051631d5fdf4760e11b815260040160405180910390fd5b611ff56001600160a01b037f000000000000000000000000000000000000000000000000000000000000000016333084613248565b6001600160a01b038216600090815260208181526040808320338452909152812060010180548392906120299084906143fd565b909155505060405181815233906001600160a01b038416907f05c2d01f05f37971d15b22586be2f1933a1ae8c0079a056a430b4391550ffb2d9060200160405180910390a35050565b6120e482823360405160240161208a93929190614410565b60408051601f198184030181529190526020810180516001600160e01b03166312fd759760e11b1790526001600160a01b037f0000000000000000000000000000000000000000000000000000000000000000169061280b565b505050565b6000818152600b6020908152604091829020825160c08101845281546001600160a01b0390811680835260018401549091169382019390935260028201549381019390935260038101546060840152600481015460808401526005015460ff16151560a083015233148015906121785750612162611a45565b6001600160a01b0316336001600160a01b031614155b15612196576040516342f062b760e01b815260040160405180910390fd5b610c4481602001518383600001516000612959565b6121b3612830565b6121bc84612874565b6000806000866001600160a01b031663f39508f83388886040518463ffffffff1660e01b81526004016121f19392919061443e565b6060604051808303816000875af1158015612210573d6000803e3d6000fd5b505050506040513d601f19601f8201168201806040525081019061223491906142a4565b9250925092508260001461231e57831561227d5761227d6001600160a01b037f000000000000000000000000000000000000000000000000000000000000000016333087613248565b612318873361228c87856143fd565b6040516001600160a01b03938416602482015292909116604483015260648201526084810185905260a4810184905260c40160408051601f198184030181529190526020810180516001600160e01b0316636e6f167560e01b1790526001600160a01b037f0000000000000000000000000000000000000000000000000000000000000000169061280b565b50612352565b6123526001600160a01b037f0000000000000000000000000000000000000000000000000000000000000000163383613162565b60405133906001600160a01b038916907fd04e6350fe09fd82d32a2e9549de19274bab2fafa4013189498798d981a763e790600090a350505050505050565b6000818152600b60209081526040808320815160c08101835281546001600160a01b039081168083526001840154909116948201859052600283015493820193909352600382015460608201526004820154608082015260059091015460ff16151560a082015291839161240591906127a0565b519050600081900361241b575060009392505050565b61112e826020015160008313612432576001612435565b60005b84604001518560a0015161329c565b61244c612859565b600e8190556040518181527f577724f96ac2a3cf85a2f91a90bfb1e890d4604525edcfeaaad826163fe9a1a9906020015b60405180910390a150565b612490612830565b6040805160018082528183019092526000916020808301908036833701905050905081816000815181106124c6576124c66140bb565b6020026020010181815250506120e4338260405160240161122a9291906141f4565b61250c60405180606001604052806000815260200160008152602001600081525090565b506001600160a01b0316600090815260056020908152604091829020825160608101845281548152600182015492810192909252600201549181019190915290565b6060612558612830565b7f00000000000000000000000000000000000000000000000000000000000000006001600160a01b03161561260457604051633026f7e360e11b81526001600160a01b037f0000000000000000000000000000000000000000000000000000000000000000169063604defc6906125d3903390600401613c56565b60006040518083038186803b1580156125eb57600080fd5b505afa1580156125ff573d6000803e3d6000fd5b505050505b61260d84612874565b60405163efdb942360e01b81526000906001600160a01b0386169063efdb94239061264090339088908890600401614497565b6000604051808303816000875af115801561265f573d6000803e3d6000fd5b505050506040513d6000823e601f3d908101601f1916820160405261268791908101906144fb565b90925090506126c16001600160a01b037f000000000000000000000000000000000000000000000000000000000000000016333084613248565b60405133906001600160a01b038716907f99e877011be95eb42bf6be0d3db080f9a2f0256536d7713ce401a3c971e0527e90600090a3509392505050565b612707612859565b63389a75e1600c52806000526020600c20805442111561272f57636f5e88186000526004601cfd5b60009055611c4381612f4a565b612744612859565b8060601b61275a57637448fbae6000526004601cfd5b611c4381612f4a565b61276b612859565b600d8190556040518181527fc207d9444020fb76b81600635e7137d0a86fc95b69e50b1c84197ea18127d6069060200161247d565b6127a8613669565b506001600160a01b03918216600090815260208181526040808320939094168252918252829020825160a0810184528154815260018201549281019290925260028101549282019290925260038201546060820152600490910154608082015290565b6060610fd0838360405180606001604052806027815260200161470a60279139613354565b60415462010000900460ff1661160357604051637dc579d960e11b815260040160405180910390fd5b638b78c6d819543314611603576382b429006000526004601cfd5b6001600160a01b03811660009081526003602052604090205460ff16611c43576040516304c1bb0360e11b815260040160405180910390fd5b6128b782826127a0565b608001514303610c445760405163fd4b12b160e01b815260040160405180910390fd5b6001600160a01b0380831660009081526020818152604080832093851683529290529081205490819003610fd357604051631d5fdf4760e11b815260040160405180910390fd5b60ff81901c6000039081011890565b61293c8484848461329c565b6117f7576040516315f3d48360e01b815260040160405180910390fd5b6000838152600b6020908152604080832080546001600160a01b031990811682556001820180549091169055600281018490556003810184905560048101849055600501805460ff191690556001600160a01b038581168452600983528184209088168452825280832080548251818502810185019093528083529192909190830182828015612a0857602002820191906000526020600020905b8154815260200190600101908083116129f4575b5050505050905060008151905080600103612a52576001600160a01b038085166000908152600960209081526040808320938a168352929052908120612a4d91613698565b612b41565b60005b81811015612af55785838281518110612a7057612a706140bb565b602002602001015103612aed5782612a896001846145d5565b81518110612a9957612a996140bb565b6020908102919091018101516001600160a01b038088166000908152600984526040808220928c16825291909352909120805483908110612adc57612adc6140bb565b600091825260209091200155612af5565b600101612a55565b506001600160a01b038085166000908152600960209081526040808320938a16835292905220805480612b2a57612b2a6145e8565b600190038181906000526020600020016000905590555b836001600160a01b0316866001600160a01b0316867f241cba1e62c0c28760eb65132303f670a906fac442064deb7a20da98ce538ed286604051612b859190613c56565b60405180910390a4505050505050565b600d546000819003612ba657505050565b6000836001600160a01b031663604096326040518163ffffffff1660e01b8152600401602060405180830381865afa158015612be6573d6000803e3d6000fd5b505050506040513d601f19601f82011682018060405250810190612c0a91906140a2565b90506000846001600160a01b03166358c0994a6040518163ffffffff1660e01b8152600401602060405180830381865afa158015612c4c573d6000803e3d6000fd5b505050506040513d601f19601f82011682018060405250810190612c7091906140a2565b9050836001811115612c8457612c84613b6f565b818311612c92576000612c95565b60015b6001811115612ca657612ca6613b6f565b03612cb2575050505050565b6000612cc883612cc281856133cc565b906133f4565b905083811115612ceb5760405163a6dea22360e01b815260040160405180910390fd5b505050505050565b600080612d0c8484604051602401610a18929190613ee5565b905060008082806020019051810190612d259190613f02565b915091506000612d388660200151613409565b90506000808313612d5257612d4d83836142e8565b612d54565b815b90506000612dc2896001600160a01b031663bce2020d6040518163ffffffff1660e01b8152600401602060405180830381865afa158015612d99573d6000803e3d6000fd5b505050506040513d601f19601f82011682018060405250810190612dbd91906140a2565b613409565b905060008089600001511315612de8576040890151612de19083612ff5565b9050612df5565b612df28683612ff5565b90505b612dff81846145fe565b9a9950505050505050505050565b80516000908103612e2057506000610fd3565b6000612e97612e92856001600160a01b03166346558d1b6040518163ffffffff1660e01b8152600401602060405180830381865afa158015612e66573d6000803e3d6000fd5b505050506040513d601f19601f82011682018060405250810190612e8a91906140a2565b855190613422565b612921565b90506000612ebe612ea783613409565b612eb48660400151613409565b865160001261344e565b90506000612ecd868684613042565b606001519050856001600160a01b0316634f3c15426040518163ffffffff1660e01b8152600401602060405180830381865afa158015612f11573d6000803e3d6000fd5b505050506040513d601f19601f82011682018060405250810190612f3591906140a2565b612f3f82856133f4565b109695505050505050565b638b78c6d81980546001600160a01b039092169182906000805160206146ea833981519152600080a355565b6001600160a01b03163b151590565b816014528060345263095ea7b360601b60005260206000604460106000875af13d156001600051141716612fc157633e3f8f736000526004601cfd5b6000603452505050565b6001600160a01b0316638b78c6d8198190558060006000805160206146ea8339815191528180a350565b6000808212801561300c576130098361461e565b92505b613022612dbd8585670de0b6b3a7640000613471565b9150801561303b576130338261461e565b915050610fd3565b5092915050565b61306d6040518060800160405280600081526020016000815260200160008152602001600081525090565b6001600160a01b03841660009081526004602052604090205481528251156130e2578251606084015182516130ac92916130a6916145fe565b90613511565b60208201819052600013156130e2576103e881602001516130cd919061463a565b816020018181516130de91906145fe565b9052505b60006130f18460200151613409565b602083015161310090856145fe565b61310a91906142e8565b905060008112613120576060820181905261312f565b61312981612921565b60408301525b509392505050565b60006131438383612cf3565b1215610c445760405163845dfc3960e01b815260040160405180910390fd5b816014528060345263a9059cbb60601b60005260206000604460106000875af13d156001600051141716612fc1576390b8ec186000526004601cfd5b6000610fd08383670de0b6b3a7640000613471565b6000836001600160a01b031663bce2020d6040518163ffffffff1660e01b8152600401602060405180830381865afa1580156131f3573d6000803e3d6000fd5b505050506040513d601f19601f8201168201806040525081019061321791906140a2565b9050600061322584846133f4565b905081811015610b12576040516333c44bc760e21b815260040160405180910390fd5b60405181606052826040528360601b602c526323b872dd60601b600c52602060006064601c6000895af13d15600160005114171661328e57637939f4246000526004601cfd5b600060605260405250505050565b600080856001600160a01b031663604096326040518163ffffffff1660e01b8152600401602060405180830381865afa1580156132dd573d6000803e3d6000fd5b505050506040513d601f19601f8201168201806040525081019061330191906140a2565b905060008086600181111561331857613318613b6f565b03613335578361332a5784821161332e565b8482105b9050613349565b8361334257848210613346565b8482115b90505b159695505050505050565b6060600080856001600160a01b031685604051613371919061469a565b600060405180830381855af49150503d80600081146133ac576040519150601f19603f3d011682016040523d82523d6000602084013e6133b1565b606091505b50915091506133c28683838761357b565b9695505050505050565b6000610fd06133da83613409565b6133e385613409565b818113818303929091038218021890565b6000610fd083670de0b6b3a764000084613471565b6000600160ff1b821061341e5761341e6135f2565b5090565b6000808312801561300c576134368461461e565b9350613022612dbd8585670de0b6b3a7640000613471565b600081156134675761346083856145fe565b9050611205565b61112e84846145fe565b82820260001983850981811082019003806134a257826134995763ae47f7026000526004601cfd5b50819004611205565b8083116134b75763ae47f7026000526004601cfd5b82848609600084810385169485900494848311909303908390038390046001010292030417600260038302811880840282030280840282030280840282030280840282030280840282030280840290910302029392505050565b600080831281831280821415821561352f5761352c8661461e565b95505b81156135415761353e8561461e565b94505b613557612dbd8787670de0b6b3a7640000613471565b93508015613572576135688461461e565b9350505050610fd3565b50505092915050565b606083156135e85782516000036135e15761359585612f76565b6135e15760405162461bcd60e51b815260206004820152601d60248201527f416464726573733a2063616c6c20746f206e6f6e2d636f6e7472616374000000604482015260640161171c565b508161112e565b61112e8383613600565b6335278d126000526004601cfd5b8151156136105781518083602001fd5b8060405162461bcd60e51b815260040161171c91906146b6565b6040805160e081018252600080825260208201819052909182019081526020016000815260200160008152602001600081526020016000151581525090565b6040518060a0016040528060008152602001600081526020016000815260200160008152602001600081525090565b5080546000825590600052602060002090810190611c4391905b8082111561341e57600081556001016136b2565b6001600160a01b0381168114611c4357600080fd5b600080604083850312156136ee57600080fd5b82356136f9816136c6565b91506020830135613709816136c6565b809150509250929050565b60008083601f84011261372657600080fd5b5081356001600160401b0381111561373d57600080fd5b60208301915083602060e08302850101111561375857600080fd5b9250929050565b6000806000806040858703121561377557600080fd5b84356001600160401b038082111561378c57600080fd5b818701915087601f8301126137a057600080fd5b8135818111156137af57600080fd5b8860208260051b85010111156137c457600080fd5b6020928301965094509086013590808211156137df57600080fd5b506137ec87828801613714565b95989497509550505050565b8015158114611c4357600080fd5b6000806040838503121561381957600080fd5b8235613824816136c6565b91506020830135613709816137f8565b60006020828403121561384657600080fd5b5035919050565b6000806000806080858703121561386357600080fd5b843561386e816136c6565b9350602085013561387e816136c6565b9250604085013561388e816136c6565b9396929550929360600135925050565b634e487b7160e01b600052604160045260246000fd5b604051608081016001600160401b03811182821017156138d6576138d661389e565b60405290565b604051601f8201601f191681016001600160401b03811182821017156139045761390461389e565b604052919050565b803560028110610e1657600080fd5b600060e0828403121561392d57600080fd5b60405160e081016001600160401b038111828210171561394f5761394f61389e565b6040529050808235613960816136c6565b81526020830135613970816136c6565b60208201526139816040840161390c565b6040820152606083013560608201526080830135608082015260a083013560a082015260c08301356139b2816137f8565b60c0919091015292915050565b60008061010083850312156139d357600080fd5b823591506139e4846020850161391b565b90509250929050565b6000602082840312156139ff57600080fd5b8135611205816136c6565b60008060208385031215613a1d57600080fd5b82356001600160401b03811115613a3357600080fd5b610a8885828601613714565b600081518084526020808501945080840160005b83811015613a6f57815187529582019590820190600101613a53565b509495945050505050565b602081526000610fd06020830184613a3f565b600080600060608486031215613aa257600080fd5b8335613aad816136c6565b95602085013595506040909401359392505050565b60006001600160401b03821115613adb57613adb61389e565b5060051b60200190565b60006020808385031215613af857600080fd5b82356001600160401b03811115613b0e57600080fd5b8301601f81018513613b1f57600080fd5b8035613b32613b2d82613ac2565b6138dc565b81815260059190911b82018301908381019087831115613b5157600080fd5b928401925b82841015611f7957833582529284019290840190613b56565b634e487b7160e01b600052602160045260246000fd5b60028110613ba357634e487b7160e01b600052602160045260246000fd5b9052565b60018060a01b03808251168352806020830151166020840152506040810151613bd36040840182613b85565b50606081015160608301526080810151608083015260a081015160a083015260c0810151151560c08301525050565b60e08101610fd38284613ba7565b600060c08284031215613c2257600080fd5b50919050565b600060c08284031215613c3a57600080fd5b610fd08383613c10565b600060e08284031215613c2257600080fd5b6001600160a01b0391909116815260200190565b600060208284031215613c7c57600080fd5b8135611205816137f8565b80518252602081015160208301526040810151604083015260608101516060830152608081015160808301525050565b60a08101610fd38284613c87565b60008060408385031215613cd857600080fd5b8235613ce3816136c6565b946020939093013593505050565b600080600080600060a08688031215613d0957600080fd5b8535613d14816136c6565b9450613d226020870161390c565b94979496505050506040830135926060810135926080909101359150565b60008060e08385031215613d5357600080fd5b823591506139e48460208501613c10565b60008060008060608587031215613d7a57600080fd5b8435613d85816136c6565b935060208501356001600160401b0380821115613da157600080fd5b818701915087601f830112613db557600080fd5b813581811115613dc457600080fd5b8860208260061b8501011115613dd957600080fd5b95986020929092019750949560400135945092505050565b600080600060408486031215613e0657600080fd5b8335613e11816136c6565b925060208401356001600160401b0380821115613e2d57600080fd5b818601915086601f830112613e4157600080fd5b813581811115613e5057600080fd5b876020606083028501011115613e6557600080fd5b6020830194508093505050509250925092565b602080825282518282018190526000919060409081850190868401855b82811015613ed857815180516001600160a01b03168552868101518786015285810151868601526060908101519085015260809093019290850190600101613e95565b5091979650505050505050565b6001600160a01b038316815260c081016112056020830184613c87565b60008060408385031215613f1557600080fd5b505080516020909101519092909150565b8183526000602080850194508260005b85811015613a6f578135613f49816136c6565b6001600160a01b0390811688528284013590613f64826136c6565b16878401526040613f7683820161390c565b613f82828a0182613b85565b5050606082810135908801526080808301359088015260a0808301359088015260c080830135613fb1816137f8565b15159088015260e0968701969190910190600101613f36565b6001600160a01b0386168152606060208201819052810184905260006001600160fb1b03851115613ffa57600080fd5b8460051b808760808501378201828103608090810160408501526140219082018587613f26565b98975050505050505050565b60006020828403121561403f57600080fd5b8151611205816137f8565b6001600160a01b0389811682528881166020830152610100820190614072604084018a613b85565b87606084015286608084015280861660a0840152508360c083015282151560e08301529998505050505050505050565b6000602082840312156140b457600080fd5b5051919050565b634e487b7160e01b600052603260045260246000fd5b600081518084526020808501945080840160005b83811015613a6f576140f8878351613ba7565b60e09690960195908201906001016140e5565b6001600160a01b038416815260606020820181905260009061412f90830185613a3f565b82810360408401526133c281856140d1565b6001600160a01b03841681526040602082018190526000906141669083018486613f26565b95945050505050565b6000602080838503121561418257600080fd5b82516001600160401b0381111561419857600080fd5b8301601f810185136141a957600080fd5b80516141b7613b2d82613ac2565b81815260059190911b820183019083810190878311156141d657600080fd5b928401925b82841015611f79578351825292840192908401906141db565b6001600160a01b038316815260406020820181905260009061112e90830184613a3f565b8035614223816136c6565b6001600160a01b03908116835260208201359061423f826136c6565b16602083015260408181013590830152606080820135908301526080808201359083015260a0810135614271816137f8565b80151560a0840152505050565b60e0810161428c8285614218565b6001600160a01b039290921660c09190910152919050565b6000806000606084860312156142b957600080fd5b8351925060208401519150604084015190509250925092565b634e487b7160e01b600052601160045260246000fd5b8082018281126000831280158216821582161715614308576143086142d2565b505092915050565b600060e0828403121561432257600080fd5b610fd0838361391b565b6001600160a01b038316815260406020820181905260009061112e908301846140d1565b6001600160a01b03958616815293851660208501529190931660408301526060820192909252608081019190915260a00190565b60008060006060848603121561439957600080fd5b83516143a4816137f8565b602085015160409095015190969495509392505050565b6001600160a01b0387811682528616602082015260c081016143e06040830187613b85565b8460608301528360808301528260a0830152979650505050505050565b80820180821115610fd357610fd36142d2565b83815261010081016144256020830185614218565b6001600160a01b039290921660e0919091015292915050565b6001600160a01b03841681526040602080830182905282820184905260009190859060608501845b8781101561448a578335825282840135838301529284019290840190600101614466565b5098975050505050505050565b6001600160a01b0384168152604060208083018290528282018490526000919060609081850187855b888110156144ec57813583528382013584840152858201358684015291840191908401906001016144c0565b50909998505050505050505050565b600080604080848603121561450f57600080fd5b83516001600160401b0381111561452557600080fd5b8401601f8101861361453657600080fd5b80516020614546613b2d83613ac2565b82815260079290921b8301810191818101908984111561456557600080fd5b938201935b838510156145c3576080858b0312156145835760008081fd5b61458b6138b4565b8551614596816136c6565b8152858401518482015286860151878201526060808701519082015282526080909401939082019061456a565b97909101519698969750505050505050565b81810381811115610fd357610fd36142d2565b634e487b7160e01b600052603160045260246000fd5b818103600083128015838313168383128216171561303b5761303b6142d2565b6000600160ff1b8201614633576146336142d2565b5060000390565b60008261465757634e487b7160e01b600052601260045260246000fd5b600160ff1b821460001984141615614671576146716142d2565b500590565b60005b83811015614691578181015183820152602001614679565b50506000910152565b600082516146ac818460208701614676565b9190910192915050565b60208152600082518060208401526146d5816040850160208701614676565b601f01601f1916919091016040019291505056fe8be0079c531659141344cd1fd0a4f28419497f9722a3daafe3b4186f6b6457e0416464726573733a206c6f772d6c6576656c2064656c65676174652063616c6c206661696c6564a2646970667358221220989555f0c629975023aef790fc378b0854af7b413513aeabc8b79a5fb9b7717264736f6c63430008130033","linkReferences":{}},"methodIdentifiers":{"addLiquidity(address,(uint256,uint256,uint256)[])":"efdb9423","addMargin(address,uint256)":"cf70cb69","adminDeleteLimitOrders(uint256[])":"6f82317b","cancelOwnershipHandover()":"54d1f13d","closePosition(address,uint256,uint256)":"4fa9c4db","closePositionKeeper(uint256)":"23c16e22","completeOwnershipHandover(address)":"f04e283e","createLimitOrder((address,address,uint8,uint256,uint256,uint256,bool))":"7eb02406","createLimitOrderBatch((address,address,uint8,uint256,uint256,uint256,bool)[])":"4a6ebce7","createTriggerOrder((address,address,uint256,uint256,uint256,bool))":"68d85297","deleteLimitOrder(uint256)":"e859f372","deleteLimitOrderBatch(uint256[])":"517237a9","deleteTriggerOrder(uint256)":"da8c7e40","deleverage(address,address,address,uint256)":"25a208a2","getCumulativePremiumFraction(address)":"6ea41e40","getDivergenceCap()":"5ac3b62d","getFreeCollateral(address,address)":"33d3bd30","getLimitOrder(uint256)":"53061026","getLiquidatorFlatFee()":"0e5389a1","getMinOrderbookMargin()":"987362da","getOpenInterestNotional(address)":"429e9237","getPosition(address,address)":"b33dc190","getPositionNotionalUpnl(address,address)":"0e86a08d","getReduceOnlyOrders(address,address)":"73af0205","getTotalPositionSize(address)":"e980e16e","getTriggerOrder(uint256)":"36cef3d9","getTriggerOrders(address,address)":"54b85a3e","getValidAMM(address)":"9dda4e4f","initialize(address,uint256,uint256)":"7a1ac61e","isActive()":"22f3e2d4","isLiquidatable(address,address)":"3966a28b","isTriggerOrderValid(uint256)":"dd2a65ed","liquidate(address,address)":"86b9d81f","liquidateMaker(address,address)":"9fddd8d2","openPosition(address,uint8,uint256,uint256,uint256)":"cbb50e61","owner()":"8da5cb5b","ownershipHandoverExpiresAt(address)":"fee81cf4","removeLiquidity(address,(uint256,uint256)[],uint256)":"db1b5c97","removeMargin(address,uint256)":"b959d695","renounceOwnership()":"715018a6","requestOwnershipHandover()":"25692962","setActive(bool)":"acec338a","setDivergenceCap(uint256)":"f8b6e449","setLiquidatorFlatFee(uint256)":"7d6727ed","setMinOrderbookMargin(uint256)":"e3046770","setValidAMM(address,bool)":"207b5b6f","settleFunding(address)":"6b17ad03","transferOwnership(address)":"f2fde38b","updateLimitOrder(uint256,(address,address,uint8,uint256,uint256,uint256,bool))":"2a120de4","updateLimitOrderBatch(uint256[],(address,address,uint8,uint256,uint256,uint256,bool)[])":"13dee2d1","updateTriggerOrder(uint256,(address,address,uint256,uint256,uint256,bool))":"d2435052"},"id":46}