{"abi":[{"type":"constructor","inputs":[{"name":"_weth","type":"address","internalType":"address"},{"name":"_insuranceFund","type":"address","internalType":"address"},{"name":"_positionManager","type":"address","internalType":"address"},{"name":"_positionMerger","type":"address","internalType":"address"},{"name":"_deleverager","type":"address","internalType":"address"},{"name":"_orderCreator","type":"address","internalType":"address"},{"name":"_whitelist","type":"address","internalType":"address"}],"stateMutability":"nonpayable"},{"type":"function","name":"addLiquidity","inputs":[{"name":"amm","type":"address","internalType":"contract IRouter"},{"name":"data","type":"tuple[]","internalType":"struct LiquidityAddData[]","components":[{"name":"index","type":"uint256","internalType":"uint256"},{"name":"margin","type":"uint256","internalType":"uint256"},{"name":"leverage","type":"uint256","internalType":"uint256"}]}],"outputs":[{"name":"returnData","type":"tuple[]","internalType":"struct LiquidityAddReturnData[]","components":[{"name":"pool","type":"address","internalType":"contract IPool"},{"name":"shares","type":"uint256","internalType":"uint256"},{"name":"quote","type":"uint256","internalType":"uint256"},{"name":"base","type":"uint256","internalType":"uint256"}]}],"stateMutability":"nonpayable"},{"type":"function","name":"addMargin","inputs":[{"name":"amm","type":"address","internalType":"contract IRouter"},{"name":"margin","type":"uint256","internalType":"uint256"}],"outputs":[],"stateMutability":"nonpayable"},{"type":"function","name":"adminDeleteLimitOrders","inputs":[{"name":"ids","type":"uint256[]","internalType":"uint256[]"}],"outputs":[],"stateMutability":"nonpayable"},{"type":"function","name":"cancelOwnershipHandover","inputs":[],"outputs":[],"stateMutability":"payable"},{"type":"function","name":"closePosition","inputs":[{"name":"amm","type":"address","internalType":"contract IRouter"},{"name":"size","type":"uint256","internalType":"uint256"},{"name":"quoteLimit","type":"uint256","internalType":"uint256"}],"outputs":[{"name":"quoteAmount","type":"uint256","internalType":"uint256"}],"stateMutability":"nonpayable"},{"type":"function","name":"closePositionKeeper","inputs":[{"name":"id","type":"uint256","internalType":"uint256"}],"outputs":[{"name":"quoteAmount","type":"uint256","internalType":"uint256"}],"stateMutability":"nonpayable"},{"type":"function","name":"completeOwnershipHandover","inputs":[{"name":"pendingOwner","type":"address","internalType":"address"}],"outputs":[],"stateMutability":"payable"},{"type":"function","name":"createLimitOrder","inputs":[{"name":"order","type":"tuple","internalType":"struct LimitOrder","components":[{"name":"trader","type":"address","internalType":"address"},{"name":"amm","type":"address","internalType":"contract IRouter"},{"name":"side","type":"uint8","internalType":"enum Side"},{"name":"trigger","type":"uint256","internalType":"uint256"},{"name":"quoteAmount","type":"uint256","internalType":"uint256"},{"name":"leverage","type":"uint256","internalType":"uint256"},{"name":"reduceOnly","type":"bool","internalType":"bool"}]}],"outputs":[{"name":"id","type":"uint256","internalType":"uint256"}],"stateMutability":"nonpayable"},{"type":"function","name":"createLimitOrderBatch","inputs":[{"name":"_orders","type":"tuple[]","internalType":"struct LimitOrder[]","components":[{"name":"trader","type":"address","internalType":"address"},{"name":"amm","type":"address","internalType":"contract IRouter"},{"name":"side","type":"uint8","internalType":"enum Side"},{"name":"trigger","type":"uint256","internalType":"uint256"},{"name":"quoteAmount","type":"uint256","internalType":"uint256"},{"name":"leverage","type":"uint256","internalType":"uint256"},{"name":"reduceOnly","type":"bool","internalType":"bool"}]}],"outputs":[{"name":"ids","type":"uint256[]","internalType":"uint256[]"}],"stateMutability":"nonpayable"},{"type":"function","name":"createTriggerOrder","inputs":[{"name":"order","type":"tuple","internalType":"struct TriggerOrder","components":[{"name":"trader","type":"address","internalType":"address"},{"name":"amm","type":"address","internalType":"contract IRouter"},{"name":"trigger","type":"uint256","internalType":"uint256"},{"name":"size","type":"uint256","internalType":"uint256"},{"name":"quoteLimit","type":"uint256","internalType":"uint256"},{"name":"takeProfit","type":"bool","internalType":"bool"}]}],"outputs":[{"name":"id","type":"uint256","internalType":"uint256"}],"stateMutability":"nonpayable"},{"type":"function","name":"deleteLimitOrder","inputs":[{"name":"id","type":"uint256","internalType":"uint256"}],"outputs":[],"stateMutability":"nonpayable"},{"type":"function","name":"deleteLimitOrderBatch","inputs":[{"name":"ids","type":"uint256[]","internalType":"uint256[]"}],"outputs":[],"stateMutability":"nonpayable"},{"type":"function","name":"deleteTriggerOrder","inputs":[{"name":"id","type":"uint256","internalType":"uint256"}],"outputs":[],"stateMutability":"nonpayable"},{"type":"function","name":"deleverage","inputs":[{"name":"amm","type":"address","internalType":"contract IRouter"},{"name":"taker","type":"address","internalType":"address"},{"name":"maker","type":"address","internalType":"address"},{"name":"size","type":"uint256","internalType":"uint256"}],"outputs":[],"stateMutability":"nonpayable"},{"type":"function","name":"getCumulativePremiumFraction","inputs":[{"name":"amm","type":"address","internalType":"contract IRouter"}],"outputs":[{"name":"","type":"int256","internalType":"int256"}],"stateMutability":"view"},{"type":"function","name":"getDivergenceCap","inputs":[],"outputs":[{"name":"","type":"uint256","internalType":"uint256"}],"stateMutability":"view"},{"type":"function","name":"getFreeCollateral","inputs":[{"name":"amm","type":"address","internalType":"contract IRouter"},{"name":"trader","type":"address","internalType":"address"}],"outputs":[{"name":"","type":"int256","internalType":"int256"}],"stateMutability":"nonpayable"},{"type":"function","name":"getLimitOrder","inputs":[{"name":"id","type":"uint256","internalType":"uint256"}],"outputs":[{"name":"","type":"tuple","internalType":"struct LimitOrder","components":[{"name":"trader","type":"address","internalType":"address"},{"name":"amm","type":"address","internalType":"contract IRouter"},{"name":"side","type":"uint8","internalType":"enum Side"},{"name":"trigger","type":"uint256","internalType":"uint256"},{"name":"quoteAmount","type":"uint256","internalType":"uint256"},{"name":"leverage","type":"uint256","internalType":"uint256"},{"name":"reduceOnly","type":"bool","internalType":"bool"}]}],"stateMutability":"view"},{"type":"function","name":"getMinOrderbookMargin","inputs":[],"outputs":[{"name":"","type":"uint256","internalType":"uint256"}],"stateMutability":"view"},{"type":"function","name":"getOpenInterestNotional","inputs":[{"name":"amm","type":"address","internalType":"contract IRouter"}],"outputs":[{"name":"","type":"uint256","internalType":"uint256"}],"stateMutability":"view"},{"type":"function","name":"getPosition","inputs":[{"name":"amm","type":"address","internalType":"contract IRouter"},{"name":"trader","type":"address","internalType":"address"}],"outputs":[{"name":"","type":"tuple","internalType":"struct Position","components":[{"name":"size","type":"int256","internalType":"int256"},{"name":"margin","type":"uint256","internalType":"uint256"},{"name":"openNotional","type":"uint256","internalType":"uint256"},{"name":"lastPremiumFraction","type":"int256","internalType":"int256"},{"name":"blockNumber","type":"uint256","internalType":"uint256"}]}],"stateMutability":"view"},{"type":"function","name":"getPositionNotionalUpnl","inputs":[{"name":"amm","type":"address","internalType":"contract IRouter"},{"name":"trader","type":"address","internalType":"address"}],"outputs":[{"name":"positionNotional","type":"uint256","internalType":"uint256"},{"name":"upnl","type":"int256","internalType":"int256"}],"stateMutability":"nonpayable"},{"type":"function","name":"getReduceOnlyOrders","inputs":[{"name":"trader","type":"address","internalType":"address"},{"name":"amm","type":"address","internalType":"contract IRouter"}],"outputs":[{"name":"","type":"uint256[]","internalType":"uint256[]"}],"stateMutability":"view"},{"type":"function","name":"getTotalPositionSize","inputs":[{"name":"amm","type":"address","internalType":"contract IRouter"}],"outputs":[{"name":"","type":"tuple","internalType":"struct TotalPositionSize","components":[{"name":"netPositionSize","type":"int256","internalType":"int256"},{"name":"positionSizeLong","type":"uint256","internalType":"uint256"},{"name":"positionSizeShort","type":"uint256","internalType":"uint256"}]}],"stateMutability":"view"},{"type":"function","name":"getTriggerOrder","inputs":[{"name":"id","type":"uint256","internalType":"uint256"}],"outputs":[{"name":"","type":"tuple","internalType":"struct TriggerOrder","components":[{"name":"trader","type":"address","internalType":"address"},{"name":"amm","type":"address","internalType":"contract IRouter"},{"name":"trigger","type":"uint256","internalType":"uint256"},{"name":"size","type":"uint256","internalType":"uint256"},{"name":"quoteLimit","type":"uint256","internalType":"uint256"},{"name":"takeProfit","type":"bool","internalType":"bool"}]}],"stateMutability":"view"},{"type":"function","name":"getTriggerOrders","inputs":[{"name":"trader","type":"address","internalType":"address"},{"name":"amm","type":"address","internalType":"contract IRouter"}],"outputs":[{"name":"","type":"uint256[]","internalType":"uint256[]"}],"stateMutability":"view"},{"type":"function","name":"getValidAMM","inputs":[{"name":"amm","type":"address","internalType":"contract IRouter"}],"outputs":[{"name":"","type":"bool","internalType":"bool"}],"stateMutability":"view"},{"type":"function","name":"initialize","inputs":[{"name":"_owner","type":"address","internalType":"address"},{"name":"_divergenceCap","type":"uint256","internalType":"uint256"},{"name":"_minOrderbookMargin","type":"uint256","internalType":"uint256"}],"outputs":[],"stateMutability":"nonpayable"},{"type":"function","name":"isActive","inputs":[],"outputs":[{"name":"","type":"bool","internalType":"bool"}],"stateMutability":"view"},{"type":"function","name":"isLiquidatable","inputs":[{"name":"amm","type":"address","internalType":"contract IRouter"},{"name":"trader","type":"address","internalType":"address"}],"outputs":[{"name":"","type":"bool","internalType":"bool"}],"stateMutability":"view"},{"type":"function","name":"isTriggerOrderValid","inputs":[{"name":"id","type":"uint256","internalType":"uint256"}],"outputs":[{"name":"","type":"bool","internalType":"bool"}],"stateMutability":"view"},{"type":"function","name":"liquidate","inputs":[{"name":"amm","type":"address","internalType":"contract IRouter"},{"name":"size","type":"uint256","internalType":"uint256"},{"name":"liquidatee","type":"address","internalType":"address"},{"name":"margin","type":"uint256","internalType":"uint256"}],"outputs":[],"stateMutability":"nonpayable"},{"type":"function","name":"liquidateMaker","inputs":[{"name":"amm","type":"address","internalType":"contract IRouter"},{"name":"liquidatee","type":"address","internalType":"address"},{"name":"margin","type":"uint256","internalType":"uint256"}],"outputs":[],"stateMutability":"nonpayable"},{"type":"function","name":"openPosition","inputs":[{"name":"amm","type":"address","internalType":"contract IRouter"},{"name":"side","type":"uint8","internalType":"enum Side"},{"name":"quote","type":"uint256","internalType":"uint256"},{"name":"leverage","type":"uint256","internalType":"uint256"},{"name":"baseLimit","type":"uint256","internalType":"uint256"}],"outputs":[{"name":"baseAmount","type":"uint256","internalType":"uint256"}],"stateMutability":"nonpayable"},{"type":"function","name":"owner","inputs":[],"outputs":[{"name":"result","type":"address","internalType":"address"}],"stateMutability":"view"},{"type":"function","name":"ownershipHandoverExpiresAt","inputs":[{"name":"pendingOwner","type":"address","internalType":"address"}],"outputs":[{"name":"result","type":"uint256","internalType":"uint256"}],"stateMutability":"view"},{"type":"function","name":"removeLiquidity","inputs":[{"name":"amm","type":"address","internalType":"contract IRouter"},{"name":"data","type":"tuple[]","internalType":"struct LiquidityRemoveData[]","components":[{"name":"index","type":"uint256","internalType":"uint256"},{"name":"shares","type":"uint256","internalType":"uint256"}]},{"name":"addedMargin","type":"uint256","internalType":"uint256"}],"outputs":[],"stateMutability":"nonpayable"},{"type":"function","name":"removeMargin","inputs":[{"name":"amm","type":"address","internalType":"contract IRouter"},{"name":"margin","type":"uint256","internalType":"uint256"}],"outputs":[],"stateMutability":"nonpayable"},{"type":"function","name":"renounceOwnership","inputs":[],"outputs":[],"stateMutability":"payable"},{"type":"function","name":"requestOwnershipHandover","inputs":[],"outputs":[],"stateMutability":"payable"},{"type":"function","name":"setActive","inputs":[{"name":"_active","type":"bool","internalType":"bool"}],"outputs":[],"stateMutability":"nonpayable"},{"type":"function","name":"setDivergenceCap","inputs":[{"name":"_divergenceCap","type":"uint256","internalType":"uint256"}],"outputs":[],"stateMutability":"nonpayable"},{"type":"function","name":"setMinOrderbookMargin","inputs":[{"name":"minMargin","type":"uint256","internalType":"uint256"}],"outputs":[],"stateMutability":"nonpayable"},{"type":"function","name":"setValidAMM","inputs":[{"name":"amm","type":"address","internalType":"contract IRouter"},{"name":"valid","type":"bool","internalType":"bool"}],"outputs":[],"stateMutability":"nonpayable"},{"type":"function","name":"settleFunding","inputs":[{"name":"amm","type":"address","internalType":"contract IRouter"}],"outputs":[],"stateMutability":"nonpayable"},{"type":"function","name":"transferOwnership","inputs":[{"name":"newOwner","type":"address","internalType":"address"}],"outputs":[],"stateMutability":"payable"},{"type":"function","name":"updateLimitOrder","inputs":[{"name":"id","type":"uint256","internalType":"uint256"},{"name":"order","type":"tuple","internalType":"struct LimitOrder","components":[{"name":"trader","type":"address","internalType":"address"},{"name":"amm","type":"address","internalType":"contract IRouter"},{"name":"side","type":"uint8","internalType":"enum Side"},{"name":"trigger","type":"uint256","internalType":"uint256"},{"name":"quoteAmount","type":"uint256","internalType":"uint256"},{"name":"leverage","type":"uint256","internalType":"uint256"},{"name":"reduceOnly","type":"bool","internalType":"bool"}]}],"outputs":[],"stateMutability":"nonpayable"},{"type":"function","name":"updateLimitOrderBatch","inputs":[{"name":"ids","type":"uint256[]","internalType":"uint256[]"},{"name":"_orders","type":"tuple[]","internalType":"struct LimitOrder[]","components":[{"name":"trader","type":"address","internalType":"address"},{"name":"amm","type":"address","internalType":"contract IRouter"},{"name":"side","type":"uint8","internalType":"enum Side"},{"name":"trigger","type":"uint256","internalType":"uint256"},{"name":"quoteAmount","type":"uint256","internalType":"uint256"},{"name":"leverage","type":"uint256","internalType":"uint256"},{"name":"reduceOnly","type":"bool","internalType":"bool"}]}],"outputs":[],"stateMutability":"nonpayable"},{"type":"function","name":"updateTriggerOrder","inputs":[{"name":"id","type":"uint256","internalType":"uint256"},{"name":"order","type":"tuple","internalType":"struct TriggerOrder","components":[{"name":"trader","type":"address","internalType":"address"},{"name":"amm","type":"address","internalType":"contract IRouter"},{"name":"trigger","type":"uint256","internalType":"uint256"},{"name":"size","type":"uint256","internalType":"uint256"},{"name":"quoteLimit","type":"uint256","internalType":"uint256"},{"name":"takeProfit","type":"bool","internalType":"bool"}]}],"outputs":[],"stateMutability":"nonpayable"},{"type":"event","name":"AMMInvalidated","inputs":[{"name":"amm","type":"address","indexed":true,"internalType":"contract IRouter"}],"anonymous":false},{"type":"event","name":"AMMValidated","inputs":[{"name":"amm","type":"address","indexed":true,"internalType":"contract IRouter"}],"anonymous":false},{"type":"event","name":"Activated","inputs":[],"anonymous":false},{"type":"event","name":"Deactivated","inputs":[],"anonymous":false},{"type":"event","name":"DivergenceCapChanged","inputs":[{"name":"divergenceCap","type":"uint256","indexed":false,"internalType":"uint256"}],"anonymous":false},{"type":"event","name":"FeeDistributed","inputs":[{"name":"amm","type":"address","indexed":true,"internalType":"contract IRouter"},{"name":"payer","type":"address","indexed":true,"internalType":"address"},{"name":"receiver","type":"address","indexed":true,"internalType":"address"},{"name":"id","type":"uint256","indexed":false,"internalType":"uint256"},{"name":"amount","type":"uint256","indexed":false,"internalType":"uint256"},{"name":"feeType","type":"uint8","indexed":false,"internalType":"enum FeeType"}],"anonymous":false},{"type":"event","name":"FundingSettled","inputs":[{"name":"amm","type":"address","indexed":true,"internalType":"contract IRouter"},{"name":"markPrice","type":"uint256","indexed":false,"internalType":"uint256"},{"name":"indexPrice","type":"uint256","indexed":false,"internalType":"uint256"},{"name":"premiumFraction","type":"int256","indexed":false,"internalType":"int256"}],"anonymous":false},{"type":"event","name":"Initialized","inputs":[{"name":"version","type":"uint8","indexed":false,"internalType":"uint8"}],"anonymous":false},{"type":"event","name":"LimitOrderRemoved","inputs":[{"name":"id","type":"uint256","indexed":true,"internalType":"uint256"},{"name":"amm","type":"address","indexed":true,"internalType":"contract IRouter"},{"name":"trader","type":"address","indexed":true,"internalType":"address"},{"name":"result","type":"uint8","indexed":false,"internalType":"enum LimitOrderResult"}],"anonymous":false},{"type":"event","name":"LimitOrderUpdated","inputs":[{"name":"id","type":"uint256","indexed":true,"internalType":"uint256"},{"name":"amm","type":"address","indexed":true,"internalType":"contract IRouter"},{"name":"trader","type":"address","indexed":true,"internalType":"address"},{"name":"order","type":"tuple","indexed":false,"internalType":"struct LimitOrder","components":[{"name":"trader","type":"address","internalType":"address"},{"name":"amm","type":"address","internalType":"contract IRouter"},{"name":"side","type":"uint8","internalType":"enum Side"},{"name":"trigger","type":"uint256","internalType":"uint256"},{"name":"quoteAmount","type":"uint256","internalType":"uint256"},{"name":"leverage","type":"uint256","internalType":"uint256"},{"name":"reduceOnly","type":"bool","internalType":"bool"}]}],"anonymous":false},{"type":"event","name":"LiquidityAdded","inputs":[{"name":"amm","type":"address","indexed":true,"internalType":"contract IRouter"},{"name":"maker","type":"address","indexed":true,"internalType":"address"}],"anonymous":false},{"type":"event","name":"LiquidityRemoved","inputs":[{"name":"amm","type":"address","indexed":true,"internalType":"contract IRouter"},{"name":"trader","type":"address","indexed":true,"internalType":"address"}],"anonymous":false},{"type":"event","name":"MarginAdded","inputs":[{"name":"amm","type":"address","indexed":true,"internalType":"contract IRouter"},{"name":"trader","type":"address","indexed":true,"internalType":"address"},{"name":"amount","type":"uint256","indexed":false,"internalType":"uint256"}],"anonymous":false},{"type":"event","name":"MarginRemoved","inputs":[{"name":"amm","type":"address","indexed":true,"internalType":"contract IRouter"},{"name":"trader","type":"address","indexed":true,"internalType":"address"},{"name":"amount","type":"uint256","indexed":false,"internalType":"uint256"}],"anonymous":false},{"type":"event","name":"MinOrderbookMarginChanged","inputs":[{"name":"minOrderbookMargin","type":"uint256","indexed":false,"internalType":"uint256"}],"anonymous":false},{"type":"event","name":"OpenInterestChanged","inputs":[{"name":"amm","type":"address","indexed":true,"internalType":"contract IRouter"},{"name":"newOpenInterest","type":"uint256","indexed":false,"internalType":"uint256"}],"anonymous":false},{"type":"event","name":"OwnershipHandoverCanceled","inputs":[{"name":"pendingOwner","type":"address","indexed":true,"internalType":"address"}],"anonymous":false},{"type":"event","name":"OwnershipHandoverRequested","inputs":[{"name":"pendingOwner","type":"address","indexed":true,"internalType":"address"}],"anonymous":false},{"type":"event","name":"OwnershipTransferred","inputs":[{"name":"oldOwner","type":"address","indexed":true,"internalType":"address"},{"name":"newOwner","type":"address","indexed":true,"internalType":"address"}],"anonymous":false},{"type":"event","name":"PositionChanged","inputs":[{"name":"amm","type":"address","indexed":true,"internalType":"contract IRouter"},{"name":"trader","type":"address","indexed":true,"internalType":"address"},{"name":"margin","type":"uint256","indexed":false,"internalType":"uint256"},{"name":"size","type":"int256","indexed":false,"internalType":"int256"},{"name":"openNotional","type":"uint256","indexed":false,"internalType":"uint256"},{"name":"exchangedQuote","type":"uint256","indexed":false,"internalType":"uint256"},{"name":"exchangedBase","type":"int256","indexed":false,"internalType":"int256"},{"name":"realizedPnL","type":"int256","indexed":false,"internalType":"int256"},{"name":"fundingPayment","type":"int256","indexed":false,"internalType":"int256"},{"name":"markPrice","type":"uint256","indexed":false,"internalType":"uint256"},{"name":"tradeType","type":"uint8","indexed":false,"internalType":"enum TradeType"}],"anonymous":false},{"type":"event","name":"TriggerOrderRemoved","inputs":[{"name":"id","type":"uint256","indexed":true,"internalType":"uint256"},{"name":"amm","type":"address","indexed":true,"internalType":"contract IRouter"},{"name":"trader","type":"address","indexed":true,"internalType":"address"},{"name":"keeper","type":"address","indexed":false,"internalType":"address"}],"anonymous":false},{"type":"event","name":"TriggerOrderUpdated","inputs":[{"name":"id","type":"uint256","indexed":true,"internalType":"uint256"},{"name":"amm","type":"address","indexed":true,"internalType":"contract IRouter"},{"name":"trader","type":"address","indexed":true,"internalType":"address"},{"name":"order","type":"tuple","indexed":false,"internalType":"struct TriggerOrder","components":[{"name":"trader","type":"address","internalType":"address"},{"name":"amm","type":"address","internalType":"contract IRouter"},{"name":"trigger","type":"uint256","internalType":"uint256"},{"name":"size","type":"uint256","internalType":"uint256"},{"name":"quoteLimit","type":"uint256","internalType":"uint256"},{"name":"takeProfit","type":"bool","internalType":"bool"}]}],"anonymous":false},{"type":"error","name":"AMM_IS_ACTIVE","inputs":[]},{"type":"error","name":"AlreadyInitialized","inputs":[]},{"type":"error","name":"BAD_DEBT","inputs":[]},{"type":"error","name":"INACTIVE","inputs":[]},{"type":"error","name":"INSUFFICIENT_LIQUIDITY","inputs":[]},{"type":"error","name":"INSUFFICIENT_MARGIN","inputs":[]},{"type":"error","name":"INSUFFICIENT_OPEN_NOTIONAL","inputs":[]},{"type":"error","name":"INSUFFICIENT_SIZE","inputs":[]},{"type":"error","name":"INVALID_AMM","inputs":[]},{"type":"error","name":"INVALID_SIDE","inputs":[]},{"type":"error","name":"INVALID_TRIGGER_AMOUNT","inputs":[]},{"type":"error","name":"LIQUIDATABLE","inputs":[]},{"type":"error","name":"NOT_LIMIT_CLOSE","inputs":[]},{"type":"error","name":"NOT_LIQUIDATABLE","inputs":[]},{"type":"error","name":"NOT_REDUCE_ONLY","inputs":[]},{"type":"error","name":"NOT_TRADER","inputs":[]},{"type":"error","name":"NO_POOL_IN_RANGE","inputs":[]},{"type":"error","name":"NO_POSITION","inputs":[]},{"type":"error","name":"NewOwnerIsZeroAddress","inputs":[]},{"type":"error","name":"NoHandoverRequest","inputs":[]},{"type":"error","name":"OPEN_INTEREST_CAP_EXCEEDED","inputs":[]},{"type":"error","name":"OVER_DIVERGENCE_CAP","inputs":[]},{"type":"error","name":"OVER_MAX_LEVERAGE","inputs":[]},{"type":"error","name":"OVER_MAX_SIZE","inputs":[]},{"type":"error","name":"POSITION_ON_WRONG_SIDE","inputs":[]},{"type":"error","name":"SANDWICH","inputs":[]},{"type":"error","name":"TRIGGER_INVALID","inputs":[]},{"type":"error","name":"TRIGGER_ON_MARK","inputs":[]},{"type":"error","name":"Unauthorized","inputs":[]}],"bytecode":{"object":"0x6101606040523480156200001257600080fd5b5060405162004bad38038062004bad83398101604081905262000035916200015e565b6001600160a01b038088166080528681166101205285811660a05284811660c05283811660e052828116610100528116610140526200007362000080565b50505050505050620001f3565b604154610100900460ff1615620000ed5760405162461bcd60e51b815260206004820152602760248201527f496e697469616c697a61626c653a20636f6e747261637420697320696e697469604482015266616c697a696e6760c81b606482015260840160405180910390fd5b60415460ff908116146200013f576041805460ff191660ff9081179091556040519081527f7f26b83ff96e1f2b6a682f133852f6798a09c465da95921460cefb38474024989060200160405180910390a15b565b80516001600160a01b03811681146200015957600080fd5b919050565b600080600080600080600060e0888a0312156200017a57600080fd5b620001858862000141565b9650620001956020890162000141565b9550620001a56040890162000141565b9450620001b56060890162000141565b9350620001c56080890162000141565b9250620001d560a0890162000141565b9150620001e560c0890162000141565b905092959891949750929550565b60805160a05160c05160e0516101005161012051610140516148a26200030b60003960008181610fb101528181610ff5015281816117bc01528181611800015281816119d901528181611a1d01528181611b4f01528181611b9301528181611f4c01528181611f900152818161269801526126dc0152600061172c015260008181610aa5015281816110a901528181611213015281816113e70152818161158001526121fc01526000610e96015260008181610a050152818161199e01528181611cd50152612430015260008181610d7b015261207101526000818161170a015281816118fe01528181611c4401528181611ed30152818161210b015281816123930152818161246901526127d701526148a26000f3fe60806040526004361061022e5760003560e01c80630e86a08d1461023357806313dee2d11461026d578063207b5b6f1461028f57806322f3e2d4146102af57806323c16e22146102d9578063256929621461030757806325a208a21461030f5780632a120de41461032f57806333d3bd301461034f57806336cef3d91461036f5780633966a28b1461047d578063429e92371461049d5780634a6ebce7146104d35780634fa9c4db14610500578063517237a914610520578063530610261461054057806354b85a3e1461056d57806354d1f13d1461058d5780635ac3b62d1461059557806368d85297146105aa5780636b17ad03146105ca5780636ea41e40146105ea5780636f82317b14610620578063715018a61461064057806373af0205146106485780637a1ac61e146106685780637aefce97146106885780637eb02406146106a85780638da5cb5b146106c85780639457be23146106ea578063987362da1461070a5780639dda4e4f1461071f578063acec338a14610758578063b33dc19014610778578063b959d695146107a5578063cbb50e61146107c5578063cf70cb69146107e5578063d243505214610805578063da8c7e4014610825578063db1b5c9714610845578063dd2a65ed14610865578063e304677014610885578063e859f372146108a5578063e980e16e146108c5578063efdb942314610907578063f04e283e14610934578063f2fde38b14610947578063f8b6e4491461095a578063fee81cf41461097a575b600080fd5b34801561023f57600080fd5b5061025361024e366004613811565b6109ad565b604080519283526020830191909152015b60405180910390f35b34801561027957600080fd5b5061028d610288366004613895565b610a4d565b005b34801561029b57600080fd5b5061028d6102aa36600461393c565b610ad2565b3480156102bb57600080fd5b5060415462010000900460ff165b6040519015158152602001610264565b3480156102e557600080fd5b506102f96102f436600461396a565b610c01565b604051908152602001610264565b61028d610dd2565b34801561031b57600080fd5b5061028d61032a366004613983565b610e21565b34801561033b57600080fd5b5061028d61034a366004613af5565b610ebc565b34801561035b57600080fd5b506102f961036a366004613811565b610f72565b34801561037b57600080fd5b5061042661038a36600461396a565b6040805160c081018252600080825260208201819052918101829052606081018290526080810182905260a0810191909152506000908152600b6020908152604091829020825160c08101845281546001600160a01b03908116825260018301541692810192909252600281015492820192909252600382015460608201526004820154608082015260059091015460ff16151560a082015290565b604051610264919081516001600160a01b0390811682526020808401519091169082015260408083015190820152606080830151908201526080808301519082015260a09182015115159181019190915260c00190565b34801561048957600080fd5b506102c9610498366004613811565b610f90565b3480156104a957600080fd5b506102f96104b8366004613b23565b6001600160a01b031660009081526006602052604090205490565b3480156104df57600080fd5b506104f36104ee366004613b40565b610fa5565b6040516102649190613bb0565b34801561050c57600080fd5b506102f961051b366004613bc3565b6110ed565b34801561052c57600080fd5b5061028d61053b366004613c1b565b6111c1565b34801561054c57600080fd5b5061056061055b36600461396a565b611239565b6040516102649190613d38565b34801561057957600080fd5b506104f3610588366004613811565b6112e5565b61028d61135e565b3480156105a157600080fd5b50600d546102f9565b3480156105b657600080fd5b506102f96105c5366004613d5e565b61139a565b3480156105d657600080fd5b5061028d6105e5366004613b23565b611423565b3480156105f657600080fd5b506102f9610605366004613b23565b6001600160a01b031660009081526004602052604090205490565b34801561062c57600080fd5b5061028d61063b366004613c1b565b611530565b61028d6115a6565b34801561065457600080fd5b506104f3610663366004613811565b6115ba565b34801561067457600080fd5b5061028d610683366004613bc3565b611631565b34801561069457600080fd5b5061028d6106a3366004613d7a565b6117b2565b3480156106b457600080fd5b506102f96106c3366004613dbb565b6119cd565b3480156106d457600080fd5b506106dd611b3b565b6040516102649190613dcd565b3480156106f657600080fd5b5061028d610705366004613de1565b611b45565b34801561071657600080fd5b50600e546102f9565b34801561072b57600080fd5b506102c961073a366004613b23565b6001600160a01b031660009081526003602052604090205460ff1690565b34801561076457600080fd5b5061028d610773366004613e19565b611d03565b34801561078457600080fd5b50610798610793366004613811565b611d84565b6040516102649190613e66565b3480156107b157600080fd5b5061028d6107c0366004613e74565b611d96565b3480156107d157600080fd5b506102f96107e0366004613ea0565b611f40565b3480156107f157600080fd5b5061028d610800366004613e74565b6120c2565b34801561081157600080fd5b5061028d610820366004613eef565b6121b0565b34801561083157600080fd5b5061028d61084036600461396a565b612227565b34801561085157600080fd5b5061028d610860366004613f13565b6122e9565b34801561087157600080fd5b506102c961088036600461396a565b6124cf565b34801561089157600080fd5b5061028d6108a036600461396a565b612582565b3480156108b157600080fd5b5061028d6108c036600461396a565b6125c6565b3480156108d157600080fd5b506108e56108e0366004613b23565b612626565b6040805182518152602080840151908201529181015190820152606001610264565b34801561091357600080fd5b50610927610922366004613fa0565b61268c565b6040516102649190614027565b61028d610942366004613b23565b61283d565b61028d610955366004613b23565b61287a565b34801561096657600080fd5b5061028d61097536600461396a565b6128a1565b34801561098657600080fd5b506102f9610995366004613b23565b63389a75e1600c908152600091909152602090205490565b6000806000610a2b856109c087876128de565b6040516024016109d1929190614094565b60408051601f198184030181529190526020810180516001600160e01b03166334fccb6d60e21b1790526001600160a01b037f00000000000000000000000000000000000000000000000000000000000000001690612949565b905080806020019051810190610a4191906140b1565b90969095509350505050565b610a5561296e565b610acb3385858585604051602401610a71959493929190614179565b60408051601f198184030181529190526020810180516001600160e01b031663e98143ad60e01b1790526001600160a01b037f00000000000000000000000000000000000000000000000000000000000000001690612949565b5050505050565b610ada612997565b80158015610b455750816001600160a01b03166322f3e2d46040518163ffffffff1660e01b8152600401602060405180830381865afa158015610b21573d6000803e3d6000fd5b505050506040513d601f19601f82011682018060405250810190610b4591906141dc565b15610b635760405163cdd8a30360e01b815260040160405180910390fd5b6001600160a01b0382166000908152600360205260409020805460ff19168215801591909117909155610bc8576040516001600160a01b038316907fe541249509232f3b648c653a6759a750d245da1a7b3e0b3878d4b5d3f4fcec1190600090a25050565b6040516001600160a01b038316907f0cf3718d7b5134fb0be63caea34ab4b8e6f19d5b5c3c4f7b4cfb00db821204ae90600090a25b5050565b6000610c0b61296e565b6000828152600b6020908152604091829020825160c08101845281546001600160a01b03908116825260018301541692810183905260028201549381019390935260038101546060840152600481015460808401526005015460ff16151560a0830152610c77906129b2565b610c89816020015182600001516129eb565b6000610c9d82602001518360000151612a18565b90506000610caa82612a5f565b9050610cd5836020015160008413610cc3576001610cc6565b60005b85604001518660a00151612a6e565b8083606001511115610ce957606083018190525b6000808313610cf9576000610cfc565b60015b9050610d12846020015187866000015133612a97565b8351602085015160608601516080870151604051600094610da194610d4794919390928892919033908b8414906024016141f9565b60408051601f198184030181529190526020810180516001600160e01b0316637b9db48760e11b1790526001600160a01b037f00000000000000000000000000000000000000000000000000000000000000001690612949565b9050610db1856020015183612cd3565b80806020019051810190610dc59190614249565b955050505050505b919050565b60006202a3006001600160401b03164201905063389a75e1600c5233600052806020600c2055337fdbf36a107da19e49527a7176a1babf963b4b0ff8cde35ee35d6cd8f1f9ac7e1d600080a250565b610e29612997565b610e32846129b2565b6040516001600160a01b03808616602483015280851660448301528316606482015260848101829052610acb9060a40160408051601f198184030181529190526020810180516001600160e01b03166312d1045160e11b1790526001600160a01b037f00000000000000000000000000000000000000000000000000000000000000001690612949565b610ec461296e565b604080516001808252818301909252600091816020015b610ee3613760565b815260200190600190039081610edb57505060408051600180825281830190925291925060009190602080830190803683370190505090508282600081518110610f2f57610f2f614262565b60200260200101819052508381600081518110610f4e57610f4e614262565b602002602001018181525050610acb338284604051602401610a71939291906142b2565b6000610f8783610f8285856128de565b612e29565b90505b92915050565b6000610f8783610fa085856128de565b612f43565b6060610faf61296e565b7f00000000000000000000000000000000000000000000000000000000000000006001600160a01b03161561105b57604051633026f7e360e11b81526001600160a01b037f0000000000000000000000000000000000000000000000000000000000000000169063604defc69061102a903390600401613dcd565b60006040518083038186803b15801561104257600080fd5b505afa158015611056573d6000803e3d6000fd5b505050505b60006110cf338585604051602401611075939291906142e8565b60408051601f198184030181529190526020810180516001600160e01b0316638b69f89760e01b1790526001600160a01b037f00000000000000000000000000000000000000000000000000000000000000001690612949565b9050808060200190518101906110e59190614316565b949350505050565b60006110f761296e565b611100846129b2565b61110a84336129eb565b60006111168533612a18565b9050600061112382612a5f565b90508085111561114657604051631eab837160e11b815260040160405180910390fd5b84600003611159576000925050506111ba565b600080831361116957600061116c565b60015b905060006111933389848a8a6000898e14604051602401610d4797969594939291906141f9565b905061119f8883612cd3565b808060200190518101906111b39190614249565b9450505050505b9392505050565b6111c961296e565b610bfd33826040516024016111df92919061439b565b60408051601f198184030181529190526020810180516001600160e01b0316637d5eb41f60e01b1790526001600160a01b037f00000000000000000000000000000000000000000000000000000000000000001690612949565b611241613760565b6000828152600a6020908152604091829020825160e08101845281546001600160a01b039081168252600180840154918216948301949094529093919291840191600160a01b90910460ff169081111561129d5761129d613ca5565b60018111156112ae576112ae613ca5565b815260028201546020820152600382015460408201526004820154606082015260059091015460ff16151560809091015292915050565b6001600160a01b03808316600090815260096020908152604080832093851683529281529082902080548351818402810184019094528084526060939283018282801561135157602002820191906000526020600020905b81548152602001906001019080831161133d575b5050505050905092915050565b63389a75e1600c523360005260006020600c2055337ffa7b8eab7da67f412cc9575ed43464468f9bfbae89d1675917346ca6d8fe3c92600080a2565b60008061140d83336040516024016113b3929190614425565b60408051601f198184030181529190526020810180516001600160e01b0316631da5734360e21b1790526001600160a01b037f00000000000000000000000000000000000000000000000000000000000000001690612949565b9050808060200190518101906111ba9190614249565b61142b61296e565b611434816129b2565b6000806000836001600160a01b031663ed83d79c6040518163ffffffff1660e01b81526004016060604051808303816000875af1158015611479573d6000803e3d6000fd5b505050506040513d601f19601f8201168201806040525081019061149d919061444b565b6001600160a01b03871660009081526004602052604090205492955090935091506114c8848261448f565b6001600160a01b0386166000818152600460209081526040918290208490558151878152908101869052908101839052919250907fbfed1e6debfebfaef8f787a2e2c506676d0e9e9f06d217ef82d090151af844e89060600160405180910390a25050505050565b611538612997565b610bfd8160405160240161154c9190613bb0565b60408051601f198184030181529190526020810180516001600160e01b0316636f82317b60e01b1790526001600160a01b037f00000000000000000000000000000000000000000000000000000000000000001690612949565b6115ae612997565b6115b86000613080565b565b6001600160a01b038083166000908152600860209081526040808320938516835292815290829020805483518184028101840190945280845260609392830182828015611351576020028201919060005260206000209081548152602001906001019080831161133d575050505050905092915050565b604154610100900460ff16158080156116515750604154600160ff909116105b806116725750611660306130ac565b158015611672575060415460ff166001145b6116da5760405162461bcd60e51b815260206004820152602e60248201527f496e697469616c697a61626c653a20636f6e747261637420697320616c72656160448201526d191e481a5b9a5d1a585b1a5e995960921b60648201526084015b60405180910390fd5b6041805460ff1916600117905580156116fd576041805461ff0019166101001790555b6117536001600160a01b037f0000000000000000000000000000000000000000000000000000000000000000167f00000000000000000000000000000000000000000000000000000000000000006000196130bb565b600d839055600e82905561176684613101565b80156117ac576041805461ff0019169055604051600181527f7f26b83ff96e1f2b6a682f133852f6798a09c465da95921460cefb38474024989060200160405180910390a15b50505050565b6117ba61296e565b7f00000000000000000000000000000000000000000000000000000000000000006001600160a01b03161561186657604051633026f7e360e11b81526001600160a01b037f0000000000000000000000000000000000000000000000000000000000000000169063604defc690611835903390600401613dcd565b60006040518083038186803b15801561184d57600080fd5b505afa158015611861573d6000803e3d6000fd5b505050505b61186f836129b2565b6000806000856001600160a01b0316631bde66e7866040518263ffffffff1660e01b81526004016118a09190613dcd565b6060604051808303816000875af11580156118bf573d6000803e3d6000fd5b505050506040513d601f19601f820116820180604052508101906118e3919061444b565b92509250925083600014611926576119266001600160a01b037f00000000000000000000000000000000000000000000000000000000000000001633308761312b565b6040516001600160a01b038088166024830152336044830152861660648201526084810184905260a4810183905260c4810182905260e481018590526119c4906101040160408051601f198184030181529190526020810180516001600160e01b0316631fe05b1760e11b1790526001600160a01b037f00000000000000000000000000000000000000000000000000000000000000001690612949565b50505050505050565b60006119d761296e565b7f00000000000000000000000000000000000000000000000000000000000000006001600160a01b031615611a8357604051633026f7e360e11b81526001600160a01b037f0000000000000000000000000000000000000000000000000000000000000000169063604defc690611a52903390600401613dcd565b60006040518083038186803b158015611a6a57600080fd5b505afa158015611a7e573d6000803e3d6000fd5b505050505b604080516001808252818301909252600091816020015b611aa2613760565b815260200190600190039081611a9a579050509050611ac6368490038401846144b7565b81600081518110611ad957611ad9614262565b60200260200101819052506000611afc33836040516024016110759291906144d3565b9050600081806020019051810190611b149190614316565b905080600081518110611b2957611b29614262565b60200260200101519350505050919050565b638b78c6d8195490565b611b4d61296e565b7f00000000000000000000000000000000000000000000000000000000000000006001600160a01b031615611bf957604051633026f7e360e11b81526001600160a01b037f0000000000000000000000000000000000000000000000000000000000000000169063604defc690611bc8903390600401613dcd565b60006040518083038186803b158015611be057600080fd5b505afa158015611bf4573d6000803e3d6000fd5b505050505b611c02846129b2565b6000611c0e85846128de565b9050611c1a8582612f43565b611c3757604051633da1f7d160e11b815260040160405180910390fd5b611c6c6001600160a01b037f00000000000000000000000000000000000000000000000000000000000000001633308561312b565b6040516001600160a01b038087166024830152841660448201523360648201526084810185905260a48101839052611cfb9060c40160408051601f198184030181529190526020810180516001600160e01b0316636f70e66f60e01b1790526001600160a01b037f00000000000000000000000000000000000000000000000000000000000000001690612949565b505050505050565b611d0b612997565b6041805482158015620100000262ff00001990921691909117909155611d57576040517fed1cd0670ee0c0017f550451a038818c696d0b6a9d6ce5b369e44275573cf9b090600090a150565b6040517f1142a68cc39970640eb3524e77b91f78be21abc64f20f5919387eb46699bb77290600090a15b50565b611d8c61379f565b610f8783836128de565b611d9e61296e565b611da7826129b2565b6001600160a01b0382166000908152602081815260408083203384528252808320815160a081018352815481526001820154938101849052600282015492810192909252600381015460608301526004015460808201529103611e1d57604051631d5fdf4760e11b815260040160405180910390fd5b6000611e3c8483611e3786670de0b6b3a763ffff1961317f565b6131cc565b90508060400151600014611e6357604051632c7c1d6360e11b815260040160405180910390fd5b6060808201516020840152815190830152611e7e84836132c1565b6001600160a01b038085166000908152602081815260408083203380855290835292819020865181559186015160018301558501516002820155606085015160038201556080850151600490910155611efa917f00000000000000000000000000000000000000000000000000000000000000001690856132ec565b60405183815233906001600160a01b038616907fb0fa03f93c852a6feaaeb34ccf4cf865cc223c4cc9d25dce28a9131fde2710719060200160405180910390a350505050565b6000611f4a61296e565b7f00000000000000000000000000000000000000000000000000000000000000006001600160a01b031615611ff657604051633026f7e360e11b81526001600160a01b037f0000000000000000000000000000000000000000000000000000000000000000169063604defc690611fc5903390600401613dcd565b60006040518083038186803b158015611fdd57600080fd5b505afa158015611ff1573d6000803e3d6000fd5b505050505b611fff866129b2565b61200986336129eb565b61201d86856120188187613328565b61333d565b600061209733888888888860405160240161203d969594939291906144f7565b60408051601f198184030181529190526020810180516001600160e01b03166310faff9560e31b1790526001600160a01b037f00000000000000000000000000000000000000000000000000000000000000001690612949565b90506120a38787612cd3565b808060200190518101906120b79190614249565b979650505050505050565b6120ca61296e565b6120d3826129b2565b6120dd82336128de565b516000036120fe57604051631d5fdf4760e11b815260040160405180910390fd5b6121336001600160a01b037f00000000000000000000000000000000000000000000000000000000000000001633308461312b565b6001600160a01b03821660009081526020818152604080832033845290915281206001018054839290612167908490614539565b909155505060405181815233906001600160a01b038416907f05c2d01f05f37971d15b22586be2f1933a1ae8c0079a056a430b4391550ffb2d9060200160405180910390a35050565b6122228282336040516024016121c89392919061454c565b60408051601f198184030181529190526020810180516001600160e01b03166312fd759760e11b1790526001600160a01b037f00000000000000000000000000000000000000000000000000000000000000001690612949565b505050565b6000818152600b6020908152604091829020825160c08101845281546001600160a01b0390811680835260018401549091169382019390935260028201549381019390935260038101546060840152600481015460808401526005015460ff16151560a083015233148015906122b657506122a0611b3b565b6001600160a01b0316336001600160a01b031614155b156122d4576040516342f062b760e01b815260040160405180910390fd5b610bfd81602001518383600001516000612a97565b6122f161296e565b6122fa846129b2565b6000806000866001600160a01b031663f39508f83388886040518463ffffffff1660e01b815260040161232f9392919061457a565b6060604051808303816000875af115801561234e573d6000803e3d6000fd5b505050506040513d601f19601f82011682018060405250810190612372919061444b565b9250925092508260001461245c5783156123bb576123bb6001600160a01b037f00000000000000000000000000000000000000000000000000000000000000001633308761312b565b61245687336123ca8785614539565b6040516001600160a01b03938416602482015292909116604483015260648201526084810185905260a4810184905260c40160408051601f198184030181529190526020810180516001600160e01b0316636e6f167560e01b1790526001600160a01b037f00000000000000000000000000000000000000000000000000000000000000001690612949565b50612490565b6124906001600160a01b037f00000000000000000000000000000000000000000000000000000000000000001633836132ec565b60405133906001600160a01b038916907fd04e6350fe09fd82d32a2e9549de19274bab2fafa4013189498798d981a763e790600090a350505050505050565b6000818152600b60209081526040808320815160c08101835281546001600160a01b039081168083526001840154909116948201859052600283015493820193909352600382015460608201526004820154608082015260059091015460ff16151560a082015291839161254391906128de565b5190506000819003612559575060009392505050565b6110e5826020015160008313612570576001612573565b60005b84604001518560a001516133d2565b61258a612997565b600e8190556040518181527f577724f96ac2a3cf85a2f91a90bfb1e890d4604525edcfeaaad826163fe9a1a9906020015b60405180910390a150565b6125ce61296e565b60408051600180825281830190925260009160208083019080368337019050509050818160008151811061260457612604614262565b60200260200101818152505061222233826040516024016111df92919061439b565b61264a60405180606001604052806000815260200160008152602001600081525090565b506001600160a01b0316600090815260056020908152604091829020825160608101845281548152600182015492810192909252600201549181019190915290565b606061269661296e565b7f00000000000000000000000000000000000000000000000000000000000000006001600160a01b03161561274257604051633026f7e360e11b81526001600160a01b037f0000000000000000000000000000000000000000000000000000000000000000169063604defc690612711903390600401613dcd565b60006040518083038186803b15801561272957600080fd5b505afa15801561273d573d6000803e3d6000fd5b505050505b61274b846129b2565b60405163efdb942360e01b81526000906001600160a01b0386169063efdb94239061277e903390889088906004016145d3565b6000604051808303816000875af115801561279d573d6000803e3d6000fd5b505050506040513d6000823e601f3d908101601f191682016040526127c59190810190614637565b90925090506127ff6001600160a01b037f00000000000000000000000000000000000000000000000000000000000000001633308461312b565b60405133906001600160a01b038716907f99e877011be95eb42bf6be0d3db080f9a2f0256536d7713ce401a3c971e0527e90600090a3509392505050565b612845612997565b63389a75e1600c52806000526020600c20805442111561286d57636f5e88186000526004601cfd5b60009055611d8181613080565b612882612997565b8060601b61289857637448fbae6000526004601cfd5b611d8181613080565b6128a9612997565b600d8190556040518181527fc207d9444020fb76b81600635e7137d0a86fc95b69e50b1c84197ea18127d606906020016125bb565b6128e661379f565b506001600160a01b03918216600090815260208181526040808320939094168252918252829020825160a0810184528154815260018201549281019290925260028101549282019290925260038201546060820152600490910154608082015290565b6060610f8783836040518060600160405280602781526020016148466027913961348a565b60415462010000900460ff166115b857604051637dc579d960e11b815260040160405180910390fd5b638b78c6d8195433146115b8576382b429006000526004601cfd5b6001600160a01b03811660009081526003602052604090205460ff16611d81576040516304c1bb0360e11b815260040160405180910390fd5b6129f582826128de565b608001514303610bfd5760405163fd4b12b160e01b815260040160405180910390fd5b6001600160a01b0380831660009081526020818152604080832093851683529290529081205490819003610f8a57604051631d5fdf4760e11b815260040160405180910390fd5b60ff81901c6000039081011890565b612a7a848484846133d2565b6117ac576040516315f3d48360e01b815260040160405180910390fd5b6000838152600b6020908152604080832080546001600160a01b031990811682556001820180549091169055600281018490556003810184905560048101849055600501805460ff191690556001600160a01b038581168452600983528184209088168452825280832080548251818502810185019093528083529192909190830182828015612b4657602002820191906000526020600020905b815481526020019060010190808311612b32575b5050505050905060008151905080600103612b90576001600160a01b038085166000908152600960209081526040808320938a168352929052908120612b8b916137ce565b612c7f565b60005b81811015612c335785838281518110612bae57612bae614262565b602002602001015103612c2b5782612bc7600184614711565b81518110612bd757612bd7614262565b6020908102919091018101516001600160a01b038088166000908152600984526040808220928c16825291909352909120805483908110612c1a57612c1a614262565b600091825260209091200155612c33565b600101612b93565b506001600160a01b038085166000908152600960209081526040808320938a16835292905220805480612c6857612c68614724565b600190038181906000526020600020016000905590555b836001600160a01b0316866001600160a01b0316867f241cba1e62c0c28760eb65132303f670a906fac442064deb7a20da98ce538ed286604051612cc39190613dcd565b60405180910390a4505050505050565b600d546000819003612ce457505050565b6000836001600160a01b031663604096326040518163ffffffff1660e01b8152600401602060405180830381865afa158015612d24573d6000803e3d6000fd5b505050506040513d601f19601f82011682018060405250810190612d489190614249565b90506000846001600160a01b03166358c0994a6040518163ffffffff1660e01b8152600401602060405180830381865afa158015612d8a573d6000803e3d6000fd5b505050506040513d601f19601f82011682018060405250810190612dae9190614249565b9050836001811115612dc257612dc2613ca5565b818311612dd0576000612dd3565b60015b6001811115612de457612de4613ca5565b03612df0575050505050565b6000612e0683612e008185613502565b9061352a565b905083811115611cfb5760405163a6dea22360e01b815260040160405180910390fd5b600080612e4284846040516024016109d1929190614094565b905060008082806020019051810190612e5b91906140b1565b915091506000612e6e866020015161353f565b90506000808313612e8857612e83838361448f565b612e8a565b815b90506000612ef8896001600160a01b031663bce2020d6040518163ffffffff1660e01b8152600401602060405180830381865afa158015612ecf573d6000803e3d6000fd5b505050506040513d601f19601f82011682018060405250810190612ef39190614249565b61353f565b905060008089600001511315612f1e576040890151612f17908361317f565b9050612f2b565b612f28868361317f565b90505b612f35818461473a565b9a9950505050505050505050565b80516000908103612f5657506000610f8a565b6000612fcd612fc8856001600160a01b03166346558d1b6040518163ffffffff1660e01b8152600401602060405180830381865afa158015612f9c573d6000803e3d6000fd5b505050506040513d601f19601f82011682018060405250810190612fc09190614249565b855190613558565b612a5f565b90506000612ff4612fdd8361353f565b612fea866040015161353f565b8651600012613584565b905060006130038686846131cc565b606001519050856001600160a01b0316634f3c15426040518163ffffffff1660e01b8152600401602060405180830381865afa158015613047573d6000803e3d6000fd5b505050506040513d601f19601f8201168201806040525081019061306b9190614249565b613075828561352a565b109695505050505050565b638b78c6d81980546001600160a01b03909216918290600080516020614826833981519152600080a355565b6001600160a01b03163b151590565b816014528060345263095ea7b360601b60005260206000604460106000875af13d1560016000511417166130f757633e3f8f736000526004601cfd5b6000603452505050565b6001600160a01b0316638b78c6d8198190558060006000805160206148268339815191528180a350565b60405181606052826040528360601b602c526323b872dd60601b600c52602060006064601c6000895af13d15600160005114171661317157637939f4246000526004601cfd5b600060605260405250505050565b60008082128015613196576131938361475a565b92505b6131ac612ef38585670de0b6b3a76400006135a7565b915080156131c5576131bd8261475a565b915050610f8a565b5092915050565b6131f76040518060800160405280600081526020016000815260200160008152602001600081525090565b6001600160a01b038416600090815260046020526040902054815282511561326c5782516060840151825161323692916132309161473a565b90613647565b602082018190526000131561326c576103e881602001516132579190614776565b81602001818151613268919061473a565b9052505b600061327b846020015161353f565b602083015161328a908561473a565b613294919061448f565b9050600081126132aa57606082018190526132b9565b6132b381612a5f565b60408301525b509392505050565b60006132cd8383612e29565b1215610bfd5760405163845dfc3960e01b815260040160405180910390fd5b816014528060345263a9059cbb60601b60005260206000604460106000875af13d1560016000511417166130f7576390b8ec186000526004601cfd5b6000610f878383670de0b6b3a76400006135a7565b6000836001600160a01b031663bce2020d6040518163ffffffff1660e01b8152600401602060405180830381865afa15801561337d573d6000803e3d6000fd5b505050506040513d601f19601f820116820180604052508101906133a19190614249565b905060006133af848461352a565b905081811015610acb576040516333c44bc760e21b815260040160405180910390fd5b600080856001600160a01b031663604096326040518163ffffffff1660e01b8152600401602060405180830381865afa158015613413573d6000803e3d6000fd5b505050506040513d601f19601f820116820180604052508101906134379190614249565b905060008086600181111561344e5761344e613ca5565b0361346b578361346057848211613464565b8482105b905061347f565b836134785784821061347c565b8482115b90505b159695505050505050565b6060600080856001600160a01b0316856040516134a791906147d6565b600060405180830381855af49150503d80600081146134e2576040519150601f19603f3d011682016040523d82523d6000602084013e6134e7565b606091505b50915091506134f8868383876136b1565b9695505050505050565b6000610f876135108361353f565b6135198561353f565b818113818303929091038218021890565b6000610f8783670de0b6b3a7640000846135a7565b6000600160ff1b821061355457613554613728565b5090565b600080831280156131965761356c8461475a565b93506131ac612ef38585670de0b6b3a76400006135a7565b6000811561359d57613596838561473a565b90506111ba565b6110e5848461473a565b82820260001983850981811082019003806135d857826135cf5763ae47f7026000526004601cfd5b508190046111ba565b8083116135ed5763ae47f7026000526004601cfd5b82848609600084810385169485900494848311909303908390038390046001010292030417600260038302811880840282030280840282030280840282030280840282030280840282030280840290910302029392505050565b6000808312818312808214158215613665576136628661475a565b95505b8115613677576136748561475a565b94505b61368d612ef38787670de0b6b3a76400006135a7565b935080156136a85761369e8461475a565b9350505050610f8a565b50505092915050565b6060831561371e578251600003613717576136cb856130ac565b6137175760405162461bcd60e51b815260206004820152601d60248201527f416464726573733a2063616c6c20746f206e6f6e2d636f6e747261637400000060448201526064016116d1565b50816110e5565b6110e58383613736565b6335278d126000526004601cfd5b8151156137465781518083602001fd5b8060405162461bcd60e51b81526004016116d191906147f2565b6040805160e081018252600080825260208201819052909182019081526020016000815260200160008152602001600081526020016000151581525090565b6040518060a0016040528060008152602001600081526020016000815260200160008152602001600081525090565b5080546000825590600052602060002090810190611d8191905b8082111561355457600081556001016137e8565b6001600160a01b0381168114611d8157600080fd5b6000806040838503121561382457600080fd5b823561382f816137fc565b9150602083013561383f816137fc565b809150509250929050565b60008083601f84011261385c57600080fd5b5081356001600160401b0381111561387357600080fd5b60208301915083602060e08302850101111561388e57600080fd5b9250929050565b600080600080604085870312156138ab57600080fd5b84356001600160401b03808211156138c257600080fd5b818701915087601f8301126138d657600080fd5b8135818111156138e557600080fd5b8860208260051b85010111156138fa57600080fd5b60209283019650945090860135908082111561391557600080fd5b506139228782880161384a565b95989497509550505050565b8015158114611d8157600080fd5b6000806040838503121561394f57600080fd5b823561395a816137fc565b9150602083013561383f8161392e565b60006020828403121561397c57600080fd5b5035919050565b6000806000806080858703121561399957600080fd5b84356139a4816137fc565b935060208501356139b4816137fc565b925060408501356139c4816137fc565b9396929550929360600135925050565b634e487b7160e01b600052604160045260246000fd5b604051608081016001600160401b0381118282101715613a0c57613a0c6139d4565b60405290565b604051601f8201601f191681016001600160401b0381118282101715613a3a57613a3a6139d4565b604052919050565b803560028110610dcd57600080fd5b600060e08284031215613a6357600080fd5b60405160e081016001600160401b0381118282101715613a8557613a856139d4565b6040529050808235613a96816137fc565b81526020830135613aa6816137fc565b6020820152613ab760408401613a42565b6040820152606083013560608201526080830135608082015260a083013560a082015260c0830135613ae88161392e565b60c0919091015292915050565b6000806101008385031215613b0957600080fd5b82359150613b1a8460208501613a51565b90509250929050565b600060208284031215613b3557600080fd5b81356111ba816137fc565b60008060208385031215613b5357600080fd5b82356001600160401b03811115613b6957600080fd5b610a418582860161384a565b600081518084526020808501945080840160005b83811015613ba557815187529582019590820190600101613b89565b509495945050505050565b602081526000610f876020830184613b75565b600080600060608486031215613bd857600080fd5b8335613be3816137fc565b95602085013595506040909401359392505050565b60006001600160401b03821115613c1157613c116139d4565b5060051b60200190565b60006020808385031215613c2e57600080fd5b82356001600160401b03811115613c4457600080fd5b8301601f81018513613c5557600080fd5b8035613c68613c6382613bf8565b613a12565b81815260059190911b82018301908381019087831115613c8757600080fd5b928401925b828410156120b757833582529284019290840190613c8c565b634e487b7160e01b600052602160045260246000fd5b60028110613cd957634e487b7160e01b600052602160045260246000fd5b9052565b60018060a01b03808251168352806020830151166020840152506040810151613d096040840182613cbb565b50606081015160608301526080810151608083015260a081015160a083015260c0810151151560c08301525050565b60e08101610f8a8284613cdd565b600060c08284031215613d5857600080fd5b50919050565b600060c08284031215613d7057600080fd5b610f878383613d46565b600080600060608486031215613d8f57600080fd5b8335613d9a816137fc565b92506020840135613daa816137fc565b929592945050506040919091013590565b600060e08284031215613d5857600080fd5b6001600160a01b0391909116815260200190565b60008060008060808587031215613df757600080fd5b8435613e02816137fc565b93506020850135925060408501356139c4816137fc565b600060208284031215613e2b57600080fd5b81356111ba8161392e565b80518252602081015160208301526040810151604083015260608101516060830152608081015160808301525050565b60a08101610f8a8284613e36565b60008060408385031215613e8757600080fd5b8235613e92816137fc565b946020939093013593505050565b600080600080600060a08688031215613eb857600080fd5b8535613ec3816137fc565b9450613ed160208701613a42565b94979496505050506040830135926060810135926080909101359150565b60008060e08385031215613f0257600080fd5b82359150613b1a8460208501613d46565b60008060008060608587031215613f2957600080fd5b8435613f34816137fc565b935060208501356001600160401b0380821115613f5057600080fd5b818701915087601f830112613f6457600080fd5b813581811115613f7357600080fd5b8860208260061b8501011115613f8857600080fd5b95986020929092019750949560400135945092505050565b600080600060408486031215613fb557600080fd5b8335613fc0816137fc565b925060208401356001600160401b0380821115613fdc57600080fd5b818601915086601f830112613ff057600080fd5b813581811115613fff57600080fd5b87602060608302850101111561401457600080fd5b6020830194508093505050509250925092565b602080825282518282018190526000919060409081850190868401855b8281101561408757815180516001600160a01b03168552868101518786015285810151868601526060908101519085015260809093019290850190600101614044565b5091979650505050505050565b6001600160a01b038316815260c081016111ba6020830184613e36565b600080604083850312156140c457600080fd5b505080516020909101519092909150565b8183526000602080850194508260005b85811015613ba55781356140f8816137fc565b6001600160a01b0390811688528284013590614113826137fc565b16878401526040614125838201613a42565b614131828a0182613cbb565b5050606082810135908801526080808301359088015260a0808301359088015260c0808301356141608161392e565b15159088015260e09687019691909101906001016140e5565b6001600160a01b0386168152606060208201819052810184905260006001600160fb1b038511156141a957600080fd5b8460051b808760808501378201828103608090810160408501526141d090820185876140d5565b98975050505050505050565b6000602082840312156141ee57600080fd5b81516111ba8161392e565b6001600160a01b038881168252878116602083015260e08201906142206040840189613cbb565b86606084015285608084015280851660a08401525082151560c083015298975050505050505050565b60006020828403121561425b57600080fd5b5051919050565b634e487b7160e01b600052603260045260246000fd5b600081518084526020808501945080840160005b83811015613ba55761429f878351613cdd565b60e096909601959082019060010161428c565b6001600160a01b03841681526060602082018190526000906142d690830185613b75565b82810360408401526134f88185614278565b6001600160a01b038416815260406020820181905260009061430d90830184866140d5565b95945050505050565b6000602080838503121561432957600080fd5b82516001600160401b0381111561433f57600080fd5b8301601f8101851361435057600080fd5b805161435e613c6382613bf8565b81815260059190911b8201830190838101908783111561437d57600080fd5b928401925b828410156120b757835182529284019290840190614382565b6001600160a01b03831681526040602082018190526000906110e590830184613b75565b80356143ca816137fc565b6001600160a01b0390811683526020820135906143e6826137fc565b16602083015260408181013590830152606080820135908301526080808201359083015260a08101356144188161392e565b80151560a0840152505050565b60e0810161443382856143bf565b6001600160a01b039290921660c09190910152919050565b60008060006060848603121561446057600080fd5b8351925060208401519150604084015190509250925092565b634e487b7160e01b600052601160045260246000fd5b80820182811260008312801582168215821617156144af576144af614479565b505092915050565b600060e082840312156144c957600080fd5b610f878383613a51565b6001600160a01b03831681526040602082018190526000906110e590830184614278565b6001600160a01b0387811682528616602082015260c0810161451c6040830187613cbb565b8460608301528360808301528260a0830152979650505050505050565b80820180821115610f8a57610f8a614479565b838152610100810161456160208301856143bf565b6001600160a01b039290921660e0919091015292915050565b6001600160a01b03841681526040602080830182905282820184905260009190859060608501845b878110156145c65783358252828401358383015292840192908401906001016145a2565b5098975050505050505050565b6001600160a01b0384168152604060208083018290528282018490526000919060609081850187855b8881101561462857813583528382013584840152858201358684015291840191908401906001016145fc565b50909998505050505050505050565b600080604080848603121561464b57600080fd5b83516001600160401b0381111561466157600080fd5b8401601f8101861361467257600080fd5b80516020614682613c6383613bf8565b82815260079290921b830181019181810190898411156146a157600080fd5b938201935b838510156146ff576080858b0312156146bf5760008081fd5b6146c76139ea565b85516146d2816137fc565b815285840151848201528686015187820152606080870151908201528252608090940193908201906146a6565b97909101519698969750505050505050565b81810381811115610f8a57610f8a614479565b634e487b7160e01b600052603160045260246000fd5b81810360008312801583831316838312821617156131c5576131c5614479565b6000600160ff1b820161476f5761476f614479565b5060000390565b60008261479357634e487b7160e01b600052601260045260246000fd5b600160ff1b8214600019841416156147ad576147ad614479565b500590565b60005b838110156147cd5781810151838201526020016147b5565b50506000910152565b600082516147e88184602087016147b2565b9190910192915050565b60208152600082518060208401526148118160408501602087016147b2565b601f01601f1916919091016040019291505056fe8be0079c531659141344cd1fd0a4f28419497f9722a3daafe3b4186f6b6457e0416464726573733a206c6f772d6c6576656c2064656c65676174652063616c6c206661696c6564a26469706673582212200c7be7ea115c38bd9fa520255f497c71a92cdd5e4b3c309fe0c01e5c8cb45be164736f6c63430008130033","linkReferences":{}},"methodIdentifiers":{"addLiquidity(address,(uint256,uint256,uint256)[])":"efdb9423","addMargin(address,uint256)":"cf70cb69","adminDeleteLimitOrders(uint256[])":"6f82317b","cancelOwnershipHandover()":"54d1f13d","closePosition(address,uint256,uint256)":"4fa9c4db","closePositionKeeper(uint256)":"23c16e22","completeOwnershipHandover(address)":"f04e283e","createLimitOrder((address,address,uint8,uint256,uint256,uint256,bool))":"7eb02406","createLimitOrderBatch((address,address,uint8,uint256,uint256,uint256,bool)[])":"4a6ebce7","createTriggerOrder((address,address,uint256,uint256,uint256,bool))":"68d85297","deleteLimitOrder(uint256)":"e859f372","deleteLimitOrderBatch(uint256[])":"517237a9","deleteTriggerOrder(uint256)":"da8c7e40","deleverage(address,address,address,uint256)":"25a208a2","getCumulativePremiumFraction(address)":"6ea41e40","getDivergenceCap()":"5ac3b62d","getFreeCollateral(address,address)":"33d3bd30","getLimitOrder(uint256)":"53061026","getMinOrderbookMargin()":"987362da","getOpenInterestNotional(address)":"429e9237","getPosition(address,address)":"b33dc190","getPositionNotionalUpnl(address,address)":"0e86a08d","getReduceOnlyOrders(address,address)":"73af0205","getTotalPositionSize(address)":"e980e16e","getTriggerOrder(uint256)":"36cef3d9","getTriggerOrders(address,address)":"54b85a3e","getValidAMM(address)":"9dda4e4f","initialize(address,uint256,uint256)":"7a1ac61e","isActive()":"22f3e2d4","isLiquidatable(address,address)":"3966a28b","isTriggerOrderValid(uint256)":"dd2a65ed","liquidate(address,uint256,address,uint256)":"9457be23","liquidateMaker(address,address,uint256)":"7aefce97","openPosition(address,uint8,uint256,uint256,uint256)":"cbb50e61","owner()":"8da5cb5b","ownershipHandoverExpiresAt(address)":"fee81cf4","removeLiquidity(address,(uint256,uint256)[],uint256)":"db1b5c97","removeMargin(address,uint256)":"b959d695","renounceOwnership()":"715018a6","requestOwnershipHandover()":"25692962","setActive(bool)":"acec338a","setDivergenceCap(uint256)":"f8b6e449","setMinOrderbookMargin(uint256)":"e3046770","setValidAMM(address,bool)":"207b5b6f","settleFunding(address)":"6b17ad03","transferOwnership(address)":"f2fde38b","updateLimitOrder(uint256,(address,address,uint8,uint256,uint256,uint256,bool))":"2a120de4","updateLimitOrderBatch(uint256[],(address,address,uint8,uint256,uint256,uint256,bool)[])":"13dee2d1","updateTriggerOrder(uint256,(address,address,uint256,uint256,uint256,bool))":"d2435052"},"id":47}