{
	"abi": [
		{
			"inputs": [
				{
					"internalType": "address",
					"name": "_weth",
					"type": "address"
				},
				{
					"internalType": "address",
					"name": "_insuranceFund",
					"type": "address"
				},
				{
					"internalType": "address",
					"name": "_positionManager",
					"type": "address"
				},
				{
					"internalType": "address",
					"name": "_positionMerger",
					"type": "address"
				}
			],
			"stateMutability": "nonpayable",
			"type": "constructor"
		},
		{
			"inputs": [],
			"name": "BAD_DEBT",
			"type": "error"
		},
		{
			"inputs": [],
			"name": "INACTIVE",
			"type": "error"
		},
		{
			"inputs": [],
			"name": "INACTIVE_REDUCE_ONLY_ORDER",
			"type": "error"
		},
		{
			"inputs": [],
			"name": "INSUFFICIENT_LIQUIDITY",
			"type": "error"
		},
		{
			"inputs": [],
			"name": "INSUFFICIENT_MARGIN",
			"type": "error"
		},
		{
			"inputs": [],
			"name": "INSUFFICIENT_SIZE",
			"type": "error"
		},
		{
			"inputs": [],
			"name": "INVALID_AMM",
			"type": "error"
		},
		{
			"inputs": [],
			"name": "INVALID_MARGIN_RATIO",
			"type": "error"
		},
		{
			"inputs": [],
			"name": "INVALID_SIDE",
			"type": "error"
		},
		{
			"inputs": [],
			"name": "INVALID_TRIGGER_AMOUNT",
			"type": "error"
		},
		{
			"inputs": [],
			"name": "NOT_LIMIT_CLOSE",
			"type": "error"
		},
		{
			"inputs": [],
			"name": "NOT_LIQUIDATABLE",
			"type": "error"
		},
		{
			"inputs": [],
			"name": "NOT_TRADER",
			"type": "error"
		},
		{
			"inputs": [],
			"name": "NO_POSITION",
			"type": "error"
		},
		{
			"inputs": [],
			"name": "NewOwnerIsZeroAddress",
			"type": "error"
		},
		{
			"inputs": [],
			"name": "NoHandoverRequest",
			"type": "error"
		},
		{
			"inputs": [],
			"name": "TRIGGER_ON_MARK",
			"type": "error"
		},
		{
			"inputs": [],
			"name": "Unauthorized",
			"type": "error"
		},
		{
			"anonymous": false,
			"inputs": [],
			"name": "Activated",
			"type": "event"
		},
		{
			"anonymous": false,
			"inputs": [],
			"name": "Deactived",
			"type": "event"
		},
		{
			"anonymous": false,
			"inputs": [
				{
					"indexed": true,
					"internalType": "contract IAMM",
					"name": "amm",
					"type": "address"
				},
				{
					"indexed": false,
					"internalType": "uint256",
					"name": "markPrice",
					"type": "uint256"
				},
				{
					"indexed": false,
					"internalType": "uint256",
					"name": "indexPrice",
					"type": "uint256"
				},
				{
					"indexed": false,
					"internalType": "int256",
					"name": "premiumFractionLong",
					"type": "int256"
				},
				{
					"indexed": false,
					"internalType": "int256",
					"name": "premiumFractionShort",
					"type": "int256"
				},
				{
					"indexed": false,
					"internalType": "int256",
					"name": "insuranceFundPnL",
					"type": "int256"
				}
			],
			"name": "FundingPayment",
			"type": "event"
		},
		{
			"anonymous": false,
			"inputs": [
				{
					"indexed": true,
					"internalType": "contract IAMM",
					"name": "amm",
					"type": "address"
				},
				{
					"indexed": false,
					"internalType": "uint256",
					"name": "markPrice",
					"type": "uint256"
				},
				{
					"indexed": false,
					"internalType": "uint256",
					"name": "indexPrice",
					"type": "uint256"
				},
				{
					"indexed": false,
					"internalType": "int256",
					"name": "premiumFraction",
					"type": "int256"
				},
				{
					"indexed": false,
					"internalType": "int256",
					"name": "insuranceFundPnL",
					"type": "int256"
				}
			],
			"name": "FundingSettled",
			"type": "event"
		},
		{
			"anonymous": false,
			"inputs": [
				{
					"indexed": false,
					"internalType": "uint8",
					"name": "version",
					"type": "uint8"
				}
			],
			"name": "Initialized",
			"type": "event"
		},
		{
			"anonymous": false,
			"inputs": [
				{
					"indexed": true,
					"internalType": "bytes32",
					"name": "id",
					"type": "bytes32"
				},
				{
					"indexed": false,
					"internalType": "contract IAMM",
					"name": "amm",
					"type": "address"
				},
				{
					"indexed": false,
					"internalType": "bool",
					"name": "filled",
					"type": "bool"
				}
			],
			"name": "LimitOrderRemoved",
			"type": "event"
		},
		{
			"anonymous": false,
			"inputs": [
				{
					"indexed": true,
					"internalType": "bytes32",
					"name": "id",
					"type": "bytes32"
				},
				{
					"components": [
						{
							"internalType": "address",
							"name": "trader",
							"type": "address"
						},
						{
							"internalType": "contract IAMM",
							"name": "amm",
							"type": "address"
						},
						{
							"internalType": "enum Side",
							"name": "side",
							"type": "uint8"
						},
						{
							"internalType": "uint256",
							"name": "trigger",
							"type": "uint256"
						},
						{
							"internalType": "uint256",
							"name": "quoteAmount",
							"type": "uint256"
						},
						{
							"internalType": "uint256",
							"name": "leverage",
							"type": "uint256"
						},
						{
							"internalType": "bool",
							"name": "reduceOnly",
							"type": "bool"
						}
					],
					"indexed": false,
					"internalType": "struct LimitOrder",
					"name": "order",
					"type": "tuple"
				}
			],
			"name": "LimitOrderUpdated",
			"type": "event"
		},
		{
			"anonymous": false,
			"inputs": [
				{
					"indexed": true,
					"internalType": "contract IAMM",
					"name": "amm",
					"type": "address"
				},
				{
					"indexed": true,
					"internalType": "address",
					"name": "maker",
					"type": "address"
				},
				{
					"indexed": false,
					"internalType": "uint256",
					"name": "liquidity",
					"type": "uint256"
				}
			],
			"name": "LiquidityAdded",
			"type": "event"
		},
		{
			"anonymous": false,
			"inputs": [
				{
					"indexed": true,
					"internalType": "contract IAMM",
					"name": "amm",
					"type": "address"
				},
				{
					"indexed": true,
					"internalType": "address",
					"name": "trader",
					"type": "address"
				},
				{
					"indexed": false,
					"internalType": "uint256",
					"name": "liquidity",
					"type": "uint256"
				},
				{
					"indexed": false,
					"internalType": "int256",
					"name": "sizeRemoved",
					"type": "int256"
				},
				{
					"indexed": false,
					"internalType": "uint256",
					"name": "marginRemoved",
					"type": "uint256"
				},
				{
					"indexed": false,
					"internalType": "uint256",
					"name": "feeRealized",
					"type": "uint256"
				}
			],
			"name": "LiquidityRemoved",
			"type": "event"
		},
		{
			"anonymous": false,
			"inputs": [
				{
					"indexed": true,
					"internalType": "contract IAMM",
					"name": "amm",
					"type": "address"
				},
				{
					"indexed": true,
					"internalType": "address",
					"name": "maker",
					"type": "address"
				},
				{
					"indexed": false,
					"internalType": "uint256",
					"name": "liquidity",
					"type": "uint256"
				},
				{
					"indexed": false,
					"internalType": "int256",
					"name": "fundingPayment",
					"type": "int256"
				},
				{
					"indexed": false,
					"internalType": "uint256",
					"name": "fee",
					"type": "uint256"
				}
			],
			"name": "LiquidityRemoved",
			"type": "event"
		},
		{
			"anonymous": false,
			"inputs": [
				{
					"indexed": true,
					"internalType": "contract IAMM",
					"name": "amm",
					"type": "address"
				},
				{
					"indexed": true,
					"internalType": "address",
					"name": "trader",
					"type": "address"
				},
				{
					"indexed": false,
					"internalType": "uint256",
					"name": "amount",
					"type": "uint256"
				}
			],
			"name": "MarginAdded",
			"type": "event"
		},
		{
			"anonymous": false,
			"inputs": [
				{
					"indexed": true,
					"internalType": "contract IAMM",
					"name": "amm",
					"type": "address"
				},
				{
					"indexed": true,
					"internalType": "address",
					"name": "trader",
					"type": "address"
				},
				{
					"indexed": false,
					"internalType": "uint256",
					"name": "amount",
					"type": "uint256"
				}
			],
			"name": "MarginRemoved",
			"type": "event"
		},
		{
			"anonymous": false,
			"inputs": [
				{
					"indexed": true,
					"internalType": "contract IAMM",
					"name": "amm",
					"type": "address"
				},
				{
					"indexed": false,
					"internalType": "uint256",
					"name": "newOpenInterest",
					"type": "uint256"
				}
			],
			"name": "OpenInterestChanged",
			"type": "event"
		},
		{
			"anonymous": false,
			"inputs": [
				{
					"indexed": true,
					"internalType": "address",
					"name": "pendingOwner",
					"type": "address"
				}
			],
			"name": "OwnershipHandoverCanceled",
			"type": "event"
		},
		{
			"anonymous": false,
			"inputs": [
				{
					"indexed": true,
					"internalType": "address",
					"name": "pendingOwner",
					"type": "address"
				}
			],
			"name": "OwnershipHandoverRequested",
			"type": "event"
		},
		{
			"anonymous": false,
			"inputs": [
				{
					"indexed": true,
					"internalType": "address",
					"name": "oldOwner",
					"type": "address"
				},
				{
					"indexed": true,
					"internalType": "address",
					"name": "newOwner",
					"type": "address"
				}
			],
			"name": "OwnershipTransferred",
			"type": "event"
		},
		{
			"anonymous": false,
			"inputs": [
				{
					"indexed": true,
					"internalType": "contract IAMM",
					"name": "amm",
					"type": "address"
				},
				{
					"indexed": true,
					"internalType": "address",
					"name": "trader",
					"type": "address"
				},
				{
					"indexed": false,
					"internalType": "uint256",
					"name": "margin",
					"type": "uint256"
				},
				{
					"indexed": false,
					"internalType": "int256",
					"name": "size",
					"type": "int256"
				},
				{
					"indexed": false,
					"internalType": "uint256",
					"name": "exchangedQuote",
					"type": "uint256"
				},
				{
					"indexed": false,
					"internalType": "int256",
					"name": "exchangedBase",
					"type": "int256"
				},
				{
					"indexed": false,
					"internalType": "int256",
					"name": "realizedPnL",
					"type": "int256"
				},
				{
					"indexed": false,
					"internalType": "int256",
					"name": "fundingPayment",
					"type": "int256"
				},
				{
					"indexed": false,
					"internalType": "uint256",
					"name": "markPrice",
					"type": "uint256"
				},
				{
					"indexed": false,
					"internalType": "uint256",
					"name": "ifFee",
					"type": "uint256"
				},
				{
					"indexed": false,
					"internalType": "uint256",
					"name": "ammFee",
					"type": "uint256"
				},
				{
					"indexed": false,
					"internalType": "uint256",
					"name": "limitFee",
					"type": "uint256"
				},
				{
					"indexed": false,
					"internalType": "uint256",
					"name": "liquidationPenalty",
					"type": "uint256"
				},
				{
					"indexed": false,
					"internalType": "uint256",
					"name": "keeperFee",
					"type": "uint256"
				}
			],
			"name": "PositionChanged",
			"type": "event"
		},
		{
			"anonymous": false,
			"inputs": [
				{
					"indexed": true,
					"internalType": "contract IAMM",
					"name": "amm",
					"type": "address"
				},
				{
					"indexed": true,
					"internalType": "address",
					"name": "trader",
					"type": "address"
				},
				{
					"indexed": true,
					"internalType": "address",
					"name": "liquidator",
					"type": "address"
				},
				{
					"indexed": false,
					"internalType": "uint256",
					"name": "liquidatedPositionNotional",
					"type": "uint256"
				},
				{
					"indexed": false,
					"internalType": "uint256",
					"name": "liquidatedPositionSize",
					"type": "uint256"
				},
				{
					"indexed": false,
					"internalType": "uint256",
					"name": "liquidationReward",
					"type": "uint256"
				},
				{
					"indexed": false,
					"internalType": "uint256",
					"name": "insuranceFundProfit",
					"type": "uint256"
				},
				{
					"indexed": false,
					"internalType": "uint256",
					"name": "badDebt",
					"type": "uint256"
				}
			],
			"name": "PositionLiquidated",
			"type": "event"
		},
		{
			"anonymous": false,
			"inputs": [
				{
					"indexed": true,
					"internalType": "bytes32",
					"name": "id",
					"type": "bytes32"
				},
				{
					"indexed": true,
					"internalType": "contract IAMM",
					"name": "amm",
					"type": "address"
				},
				{
					"indexed": true,
					"internalType": "address",
					"name": "keeper",
					"type": "address"
				}
			],
			"name": "TriggerOrderRemoved",
			"type": "event"
		},
		{
			"anonymous": false,
			"inputs": [
				{
					"indexed": true,
					"internalType": "bytes32",
					"name": "id",
					"type": "bytes32"
				},
				{
					"components": [
						{
							"internalType": "address",
							"name": "trader",
							"type": "address"
						},
						{
							"internalType": "contract IAMM",
							"name": "amm",
							"type": "address"
						},
						{
							"internalType": "uint256",
							"name": "trigger",
							"type": "uint256"
						},
						{
							"internalType": "uint256",
							"name": "size",
							"type": "uint256"
						},
						{
							"internalType": "uint256",
							"name": "quoteLimit",
							"type": "uint256"
						},
						{
							"internalType": "bool",
							"name": "takeProfit",
							"type": "bool"
						}
					],
					"indexed": false,
					"internalType": "struct TriggerOrder",
					"name": "order",
					"type": "tuple"
				}
			],
			"name": "TriggerOrderUpdated",
			"type": "event"
		},
		{
			"inputs": [
				{
					"internalType": "contract IAMM",
					"name": "amm",
					"type": "address"
				},
				{
					"internalType": "uint256",
					"name": "margin",
					"type": "uint256"
				},
				{
					"internalType": "uint256",
					"name": "leverage",
					"type": "uint256"
				},
				{
					"internalType": "uint256",
					"name": "minLiquidity",
					"type": "uint256"
				}
			],
			"name": "addLiquidity",
			"outputs": [
				{
					"internalType": "uint256",
					"name": "liquidity",
					"type": "uint256"
				}
			],
			"stateMutability": "nonpayable",
			"type": "function"
		},
		{
			"inputs": [
				{
					"internalType": "contract IAMM",
					"name": "amm",
					"type": "address"
				},
				{
					"internalType": "uint256",
					"name": "margin",
					"type": "uint256"
				}
			],
			"name": "addMargin",
			"outputs": [],
			"stateMutability": "nonpayable",
			"type": "function"
		},
		{
			"inputs": [
				{
					"internalType": "uint256",
					"name": "margin",
					"type": "uint256"
				}
			],
			"name": "addMarginToBalance",
			"outputs": [],
			"stateMutability": "nonpayable",
			"type": "function"
		},
		{
			"inputs": [],
			"name": "cancelOwnershipHandover",
			"outputs": [],
			"stateMutability": "payable",
			"type": "function"
		},
		{
			"inputs": [
				{
					"internalType": "contract IAMM",
					"name": "amm",
					"type": "address"
				},
				{
					"internalType": "uint256",
					"name": "size",
					"type": "uint256"
				},
				{
					"internalType": "uint256",
					"name": "quoteLimit",
					"type": "uint256"
				}
			],
			"name": "closePosition",
			"outputs": [],
			"stateMutability": "nonpayable",
			"type": "function"
		},
		{
			"inputs": [
				{
					"internalType": "contract IAMM",
					"name": "amm",
					"type": "address"
				},
				{
					"internalType": "bytes32",
					"name": "id",
					"type": "bytes32"
				}
			],
			"name": "closePositionKeeper",
			"outputs": [],
			"stateMutability": "nonpayable",
			"type": "function"
		},
		{
			"inputs": [
				{
					"internalType": "address",
					"name": "pendingOwner",
					"type": "address"
				}
			],
			"name": "completeOwnershipHandover",
			"outputs": [],
			"stateMutability": "payable",
			"type": "function"
		},
		{
			"inputs": [
				{
					"components": [
						{
							"internalType": "address",
							"name": "trader",
							"type": "address"
						},
						{
							"internalType": "contract IAMM",
							"name": "amm",
							"type": "address"
						},
						{
							"internalType": "enum Side",
							"name": "side",
							"type": "uint8"
						},
						{
							"internalType": "uint256",
							"name": "trigger",
							"type": "uint256"
						},
						{
							"internalType": "uint256",
							"name": "quoteAmount",
							"type": "uint256"
						},
						{
							"internalType": "uint256",
							"name": "leverage",
							"type": "uint256"
						},
						{
							"internalType": "bool",
							"name": "reduceOnly",
							"type": "bool"
						}
					],
					"internalType": "struct LimitOrder",
					"name": "order",
					"type": "tuple"
				}
			],
			"name": "createLimitOrder",
			"outputs": [
				{
					"internalType": "bytes32",
					"name": "id",
					"type": "bytes32"
				}
			],
			"stateMutability": "nonpayable",
			"type": "function"
		},
		{
			"inputs": [
				{
					"components": [
						{
							"internalType": "address",
							"name": "trader",
							"type": "address"
						},
						{
							"internalType": "contract IAMM",
							"name": "amm",
							"type": "address"
						},
						{
							"internalType": "uint256",
							"name": "trigger",
							"type": "uint256"
						},
						{
							"internalType": "uint256",
							"name": "size",
							"type": "uint256"
						},
						{
							"internalType": "uint256",
							"name": "quoteLimit",
							"type": "uint256"
						},
						{
							"internalType": "bool",
							"name": "takeProfit",
							"type": "bool"
						}
					],
					"internalType": "struct TriggerOrder",
					"name": "order",
					"type": "tuple"
				}
			],
			"name": "createTriggerOrder",
			"outputs": [
				{
					"internalType": "bytes32",
					"name": "id",
					"type": "bytes32"
				}
			],
			"stateMutability": "nonpayable",
			"type": "function"
		},
		{
			"inputs": [
				{
					"internalType": "contract IAMM",
					"name": "amm",
					"type": "address"
				},
				{
					"internalType": "bytes32",
					"name": "id",
					"type": "bytes32"
				}
			],
			"name": "deleteLimitOrder",
			"outputs": [],
			"stateMutability": "nonpayable",
			"type": "function"
		},
		{
			"inputs": [
				{
					"internalType": "contract IAMM",
					"name": "amm",
					"type": "address"
				}
			],
			"name": "getAmmActive",
			"outputs": [
				{
					"internalType": "bool",
					"name": "",
					"type": "bool"
				}
			],
			"stateMutability": "view",
			"type": "function"
		},
		{
			"inputs": [
				{
					"internalType": "contract IAMM",
					"name": "amm",
					"type": "address"
				}
			],
			"name": "getCumulativePremiumFraction",
			"outputs": [
				{
					"internalType": "int256",
					"name": "",
					"type": "int256"
				}
			],
			"stateMutability": "view",
			"type": "function"
		},
		{
			"inputs": [
				{
					"internalType": "contract IAMM",
					"name": "amm",
					"type": "address"
				}
			],
			"name": "getFeeGrowth",
			"outputs": [
				{
					"internalType": "uint256",
					"name": "",
					"type": "uint256"
				}
			],
			"stateMutability": "view",
			"type": "function"
		},
		{
			"inputs": [
				{
					"internalType": "contract IAMM",
					"name": "amm",
					"type": "address"
				}
			],
			"name": "getFeePool",
			"outputs": [
				{
					"internalType": "uint256",
					"name": "",
					"type": "uint256"
				}
			],
			"stateMutability": "view",
			"type": "function"
		},
		{
			"inputs": [
				{
					"internalType": "contract IAMM",
					"name": "amm",
					"type": "address"
				},
				{
					"internalType": "enum Side",
					"name": "side",
					"type": "uint8"
				},
				{
					"internalType": "int24",
					"name": "tick",
					"type": "int24"
				}
			],
			"name": "getLimitLiquidity",
			"outputs": [
				{
					"components": [
						{
							"internalType": "uint256",
							"name": "liquidity",
							"type": "uint256"
						},
						{
							"internalType": "bytes32[]",
							"name": "ids",
							"type": "bytes32[]"
						}
					],
					"internalType": "struct Liquidity",
					"name": "",
					"type": "tuple"
				}
			],
			"stateMutability": "view",
			"type": "function"
		},
		{
			"inputs": [
				{
					"internalType": "contract IAMM",
					"name": "amm",
					"type": "address"
				},
				{
					"internalType": "bytes32",
					"name": "id",
					"type": "bytes32"
				}
			],
			"name": "getLimitOrder",
			"outputs": [
				{
					"components": [
						{
							"internalType": "address",
							"name": "trader",
							"type": "address"
						},
						{
							"internalType": "contract IAMM",
							"name": "amm",
							"type": "address"
						},
						{
							"internalType": "enum Side",
							"name": "side",
							"type": "uint8"
						},
						{
							"internalType": "uint256",
							"name": "trigger",
							"type": "uint256"
						},
						{
							"internalType": "uint256",
							"name": "quoteAmount",
							"type": "uint256"
						},
						{
							"internalType": "uint256",
							"name": "leverage",
							"type": "uint256"
						},
						{
							"internalType": "bool",
							"name": "reduceOnly",
							"type": "bool"
						}
					],
					"internalType": "struct LimitOrder",
					"name": "",
					"type": "tuple"
				}
			],
			"stateMutability": "view",
			"type": "function"
		},
		{
			"inputs": [
				{
					"internalType": "contract IAMM",
					"name": "amm",
					"type": "address"
				}
			],
			"name": "getOpenInterestNotional",
			"outputs": [
				{
					"internalType": "uint256",
					"name": "",
					"type": "uint256"
				}
			],
			"stateMutability": "view",
			"type": "function"
		},
		{
			"inputs": [
				{
					"internalType": "contract IAMM",
					"name": "amm",
					"type": "address"
				},
				{
					"internalType": "address",
					"name": "trader",
					"type": "address"
				}
			],
			"name": "getPosition",
			"outputs": [
				{
					"components": [
						{
							"internalType": "int256",
							"name": "size",
							"type": "int256"
						},
						{
							"internalType": "uint256",
							"name": "margin",
							"type": "uint256"
						},
						{
							"internalType": "uint256",
							"name": "openNotional",
							"type": "uint256"
						},
						{
							"internalType": "int256",
							"name": "lastPremiumFraction",
							"type": "int256"
						},
						{
							"internalType": "uint256",
							"name": "blockNumber",
							"type": "uint256"
						}
					],
					"internalType": "struct Position",
					"name": "position",
					"type": "tuple"
				}
			],
			"stateMutability": "view",
			"type": "function"
		},
		{
			"inputs": [
				{
					"internalType": "contract IAMM",
					"name": "amm",
					"type": "address"
				},
				{
					"internalType": "address",
					"name": "trader",
					"type": "address"
				}
			],
			"name": "getPositionNotional",
			"outputs": [
				{
					"internalType": "uint256",
					"name": "positionNotional",
					"type": "uint256"
				}
			],
			"stateMutability": "view",
			"type": "function"
		},
		{
			"inputs": [
				{
					"internalType": "contract IAMM",
					"name": "amm",
					"type": "address"
				},
				{
					"internalType": "address",
					"name": "trader",
					"type": "address"
				}
			],
			"name": "getPositionValue",
			"outputs": [
				{
					"internalType": "uint256",
					"name": "value",
					"type": "uint256"
				},
				{
					"internalType": "int256",
					"name": "size",
					"type": "int256"
				}
			],
			"stateMutability": "view",
			"type": "function"
		},
		{
			"inputs": [
				{
					"internalType": "contract IAMM",
					"name": "amm",
					"type": "address"
				},
				{
					"internalType": "address",
					"name": "trader",
					"type": "address"
				},
				{
					"internalType": "uint256",
					"name": "goalQuote",
					"type": "uint256"
				}
			],
			"name": "getSizeForQuote",
			"outputs": [
				{
					"internalType": "uint256",
					"name": "size",
					"type": "uint256"
				}
			],
			"stateMutability": "nonpayable",
			"type": "function"
		},
		{
			"inputs": [
				{
					"internalType": "contract IAMM",
					"name": "amm",
					"type": "address"
				}
			],
			"name": "getTotalPositionSize",
			"outputs": [
				{
					"components": [
						{
							"internalType": "int256",
							"name": "netPositionSize",
							"type": "int256"
						},
						{
							"internalType": "int256",
							"name": "netPositionOffsetPerShare",
							"type": "int256"
						},
						{
							"internalType": "uint256",
							"name": "positionSizeLong",
							"type": "uint256"
						},
						{
							"internalType": "uint256",
							"name": "positionSizeShort",
							"type": "uint256"
						}
					],
					"internalType": "struct TotalPositionSize",
					"name": "",
					"type": "tuple"
				}
			],
			"stateMutability": "view",
			"type": "function"
		},
		{
			"inputs": [
				{
					"internalType": "address",
					"name": "_owner",
					"type": "address"
				}
			],
			"name": "initialize",
			"outputs": [],
			"stateMutability": "nonpayable",
			"type": "function"
		},
		{
			"inputs": [],
			"name": "isActive",
			"outputs": [
				{
					"internalType": "bool",
					"name": "",
					"type": "bool"
				}
			],
			"stateMutability": "view",
			"type": "function"
		},
		{
			"inputs": [
				{
					"internalType": "contract IAMM",
					"name": "amm",
					"type": "address"
				},
				{
					"internalType": "address",
					"name": "trader",
					"type": "address"
				}
			],
			"name": "isLiquidatable",
			"outputs": [
				{
					"internalType": "bool",
					"name": "liquidatable",
					"type": "bool"
				}
			],
			"stateMutability": "view",
			"type": "function"
		},
		{
			"inputs": [
				{
					"internalType": "contract IAMM",
					"name": "amm",
					"type": "address"
				},
				{
					"internalType": "address",
					"name": "trader",
					"type": "address"
				},
				{
					"internalType": "uint256",
					"name": "margin",
					"type": "uint256"
				}
			],
			"name": "liquidate",
			"outputs": [],
			"stateMutability": "nonpayable",
			"type": "function"
		},
		{
			"inputs": [
				{
					"internalType": "contract IAMM",
					"name": "amm",
					"type": "address"
				},
				{
					"internalType": "enum Side",
					"name": "side",
					"type": "uint8"
				},
				{
					"internalType": "uint256",
					"name": "quote",
					"type": "uint256"
				},
				{
					"internalType": "uint256",
					"name": "leverage",
					"type": "uint256"
				},
				{
					"internalType": "uint256",
					"name": "baseLimit",
					"type": "uint256"
				}
			],
			"name": "openPosition",
			"outputs": [],
			"stateMutability": "nonpayable",
			"type": "function"
		},
		{
			"inputs": [],
			"name": "owner",
			"outputs": [
				{
					"internalType": "address",
					"name": "result",
					"type": "address"
				}
			],
			"stateMutability": "view",
			"type": "function"
		},
		{
			"inputs": [
				{
					"internalType": "address",
					"name": "pendingOwner",
					"type": "address"
				}
			],
			"name": "ownershipHandoverExpiresAt",
			"outputs": [
				{
					"internalType": "uint256",
					"name": "result",
					"type": "uint256"
				}
			],
			"stateMutability": "view",
			"type": "function"
		},
		{
			"inputs": [],
			"name": "ownershipHandoverValidFor",
			"outputs": [
				{
					"internalType": "uint64",
					"name": "",
					"type": "uint64"
				}
			],
			"stateMutability": "view",
			"type": "function"
		},
		{
			"inputs": [
				{
					"internalType": "contract IAMM",
					"name": "amm",
					"type": "address"
				},
				{
					"internalType": "uint256",
					"name": "amount",
					"type": "uint256"
				}
			],
			"name": "removeLiquidity",
			"outputs": [],
			"stateMutability": "nonpayable",
			"type": "function"
		},
		{
			"inputs": [
				{
					"internalType": "contract IAMM",
					"name": "amm",
					"type": "address"
				},
				{
					"internalType": "uint256",
					"name": "margin",
					"type": "uint256"
				}
			],
			"name": "removeMargin",
			"outputs": [],
			"stateMutability": "nonpayable",
			"type": "function"
		},
		{
			"inputs": [
				{
					"internalType": "uint256",
					"name": "margin",
					"type": "uint256"
				}
			],
			"name": "removeMarginFromBalance",
			"outputs": [],
			"stateMutability": "nonpayable",
			"type": "function"
		},
		{
			"inputs": [
				{
					"internalType": "bytes32",
					"name": "id",
					"type": "bytes32"
				},
				{
					"internalType": "contract IAMM",
					"name": "amm",
					"type": "address"
				}
			],
			"name": "removeTriggerOrder",
			"outputs": [],
			"stateMutability": "nonpayable",
			"type": "function"
		},
		{
			"inputs": [],
			"name": "renounceOwnership",
			"outputs": [],
			"stateMutability": "payable",
			"type": "function"
		},
		{
			"inputs": [],
			"name": "requestOwnershipHandover",
			"outputs": [],
			"stateMutability": "payable",
			"type": "function"
		},
		{
			"inputs": [
				{
					"internalType": "bool",
					"name": "_active",
					"type": "bool"
				}
			],
			"name": "setActive",
			"outputs": [],
			"stateMutability": "nonpayable",
			"type": "function"
		},
		{
			"inputs": [
				{
					"internalType": "contract IAMM",
					"name": "amm",
					"type": "address"
				},
				{
					"internalType": "bool",
					"name": "active",
					"type": "bool"
				}
			],
			"name": "setActiveAMM",
			"outputs": [],
			"stateMutability": "nonpayable",
			"type": "function"
		},
		{
			"inputs": [
				{
					"internalType": "contract IAMM",
					"name": "amm",
					"type": "address"
				},
				{
					"internalType": "address",
					"name": "pool",
					"type": "address"
				},
				{
					"internalType": "bool",
					"name": "valid",
					"type": "bool"
				}
			],
			"name": "setVaildPool",
			"outputs": [],
			"stateMutability": "nonpayable",
			"type": "function"
		},
		{
			"inputs": [
				{
					"internalType": "contract IAMM",
					"name": "amm",
					"type": "address"
				}
			],
			"name": "settleFunding",
			"outputs": [],
			"stateMutability": "nonpayable",
			"type": "function"
		},
		{
			"inputs": [
				{
					"internalType": "address",
					"name": "newOwner",
					"type": "address"
				}
			],
			"name": "transferOwnership",
			"outputs": [],
			"stateMutability": "payable",
			"type": "function"
		},
		{
			"inputs": [
				{
					"internalType": "bytes32",
					"name": "id",
					"type": "bytes32"
				},
				{
					"components": [
						{
							"internalType": "address",
							"name": "trader",
							"type": "address"
						},
						{
							"internalType": "contract IAMM",
							"name": "amm",
							"type": "address"
						},
						{
							"internalType": "enum Side",
							"name": "side",
							"type": "uint8"
						},
						{
							"internalType": "uint256",
							"name": "trigger",
							"type": "uint256"
						},
						{
							"internalType": "uint256",
							"name": "quoteAmount",
							"type": "uint256"
						},
						{
							"internalType": "uint256",
							"name": "leverage",
							"type": "uint256"
						},
						{
							"internalType": "bool",
							"name": "reduceOnly",
							"type": "bool"
						}
					],
					"internalType": "struct LimitOrder",
					"name": "order",
					"type": "tuple"
				}
			],
			"name": "updateLimitOrder",
			"outputs": [],
			"stateMutability": "nonpayable",
			"type": "function"
		},
		{
			"inputs": [
				{
					"internalType": "bytes32",
					"name": "id",
					"type": "bytes32"
				},
				{
					"internalType": "contract IAMM",
					"name": "amm",
					"type": "address"
				},
				{
					"components": [
						{
							"internalType": "address",
							"name": "trader",
							"type": "address"
						},
						{
							"internalType": "contract IAMM",
							"name": "amm",
							"type": "address"
						},
						{
							"internalType": "uint256",
							"name": "trigger",
							"type": "uint256"
						},
						{
							"internalType": "uint256",
							"name": "size",
							"type": "uint256"
						},
						{
							"internalType": "uint256",
							"name": "quoteLimit",
							"type": "uint256"
						},
						{
							"internalType": "bool",
							"name": "takeProfit",
							"type": "bool"
						}
					],
					"internalType": "struct TriggerOrder",
					"name": "order",
					"type": "tuple"
				}
			],
			"name": "updateTriggerOrder",
			"outputs": [],
			"stateMutability": "nonpayable",
			"type": "function"
		}
	],
	"bytecode": {
		"object": "0x6101006040523480156200001257600080fd5b506040516200608738038062006087833981016040819052620000359162000146565b6001600160a01b0380851660805283811660e05282811660a052811660c0526200005e62000068565b50505050620001a3565b600054610100900460ff1615620000d55760405162461bcd60e51b815260206004820152602760248201527f496e697469616c697a61626c653a20636f6e747261637420697320696e697469604482015266616c697a696e6760c81b606482015260840160405180910390fd5b60005460ff9081161462000127576000805460ff191660ff9081179091556040519081527f7f26b83ff96e1f2b6a682f133852f6798a09c465da95921460cefb38474024989060200160405180910390a15b565b80516001600160a01b03811681146200014157600080fd5b919050565b600080600080608085870312156200015d57600080fd5b620001688562000129565b9350620001786020860162000129565b9250620001886040860162000129565b9150620001986060860162000129565b905092959194509250565b60805160a05160c05160e051615e486200023f60003960008181611c4b01528181611cf30152612a15015260008181610f0d015261257d0152600081816118f60152818161197d0152612cc7015260008181610a7a015281816116020152818161166d01528181611ec40152818161228f015281816125b601528181612872015281816129f301528181612d030152612e910152615e486000f3fe60806040526004361061025c5760003560e01c80637eb0240611610144578063bf4c8bf5116100b6578063d7533f021161007a578063d7533f02146107c6578063e980e16e146107e4578063f04e283e14610837578063f2fde38b1461084a578063fde3d4f91461085d578063fee81cf41461087d57600080fd5b8063bf4c8bf514610726578063c4d66de814610746578063c88d348a14610766578063cbb50e6114610786578063cf70cb69146107a657600080fd5b80638da5cb5b116101085780638da5cb5b14610602578063a201ccf61461062e578063acec338a1461064e578063b33dc1901461066e578063b346679b146106d0578063b959d6951461070657600080fd5b80637eb02406146105265780637ee194fc146105465780637fdd7c511461057f57806386f28fc51461059f5780638d66a9a3146105cc57600080fd5b80634e270f9b116101dd5780636b17ad03116101a15780636b17ad03146104535780636ea41e4014610473578063715018a6146104a957806377b57b07146104b15780637afc1f98146104e65780637c88490a1461050657600080fd5b80634e270f9b146103be5780634fa9c4db146103eb578063546c8d171461040b57806354d1f13d1461042b57806368d852971461043357600080fd5b80632569296211610224578063256929621461032057806326c013031461032857806327745899146103485780633966a28b14610368578063429e92371461038857600080fd5b806302000f1b1461026157806318aec626146102835780631dbd10fb146102a35780631ece366a146102c357806322f3e2d4146102f6575b600080fd5b34801561026d57600080fd5b5061028161027c366004615330565b6108b0565b005b34801561028f57600080fd5b5061028161029e36600461536e565b610aed565b3480156102af57600080fd5b506102816102be3660046153ae565b610bf8565b3480156102cf57600080fd5b506102e36102de3660046153de565b610ccd565b6040519081526020015b60405180910390f35b34801561030257600080fd5b5060005462010000900460ff165b60405190151581526020016102ed565b610281610dc3565b34801561033457600080fd5b50610281610343366004615419565b610e13565b34801561035457600080fd5b50610281610363366004615544565b610f3b565b34801561037457600080fd5b50610310610383366004615572565b6116d4565b34801561039457600080fd5b506102e36103a33660046155a0565b6001600160a01b031660009081526009602052604090205490565b3480156103ca57600080fd5b506103de6103d93660046155bd565b611746565b6040516102ed919061560c565b3480156103f757600080fd5b50610281610406366004615664565b611833565b34801561041757600080fd5b506102e3610426366004615419565b61191c565b6102816119c2565b34801561043f57600080fd5b506102e361044e366004615699565b6119fe565b34801561045f57600080fd5b5061028161046e3660046155a0565b611afb565b34801561047f57600080fd5b506102e361048e3660046155a0565b6001600160a01b031660009081526007602052604090205490565b610281611dd4565b3480156104bd57600080fd5b506104d16104cc366004615572565b611de8565b604080519283526020830191909152016102ed565b3480156104f257600080fd5b506102816105013660046156b5565b611e92565b34801561051257600080fd5b506102e3610521366004615572565b611eee565b34801561053257600080fd5b506102e36105413660046156ce565b611f5f565b34801561055257600080fd5b506103106105613660046155a0565b6001600160a01b031660009081526001602052604090205460ff1690565b34801561058b57600080fd5b5061028161059a3660046156ea565b61232b565b3480156105ab57600080fd5b506105bf6105ba366004615330565b61235e565b6040516102ed91906157a6565b3480156105d857600080fd5b506102e36105e73660046155a0565b6001600160a01b03166000908152600b602052604090205490565b34801561060e57600080fd5b50638b78c6d819546040516001600160a01b0390911681526020016102ed565b34801561063a57600080fd5b50610281610649366004615330565b61244d565b34801561065a57600080fd5b506102816106693660046157b4565b612666565b34801561067a57600080fd5b5061068e610689366004615572565b6126e6565b6040516102ed9190600060a082019050825182526020830151602083015260408301516040830152606083015160608301526080830151608083015292915050565b3480156106dc57600080fd5b506102e36106eb3660046155a0565b6001600160a01b03166000908152600c602052604090205490565b34801561071257600080fd5b50610281610721366004615330565b61277d565b34801561073257600080fd5b506102816107413660046157d1565b6128df565b34801561075257600080fd5b506102816107613660046155a0565b612921565b34801561077257600080fd5b50610281610781366004615330565b612a8f565b34801561079257600080fd5b506102816107a1366004615811565b612c50565b3480156107b257600080fd5b506102816107c1366004615330565b612ced565b3480156107d257600080fd5b506040516202a30081526020016102ed565b3480156107f057600080fd5b506108046107ff3660046155a0565b612daa565b6040516102ed91908151815260208083015190820152604080830151908201526060918201519181019190915260800190565b6102816108453660046155a0565b612e20565b6102816108583660046155a0565b612e5d565b34801561086957600080fd5b506102816108783660046156b5565b612e84565b34801561088957600080fd5b506102e36108983660046155a0565b63389a75e1600c908152600091909152602090205490565b6001600160a01b0382811660009081526006602090815260408083208584528252808320815160e081018352815486168152600180830154968716948201949094529394909291840191600160a01b90910460ff169081111561091557610915615718565b600181111561092657610926615718565b815260028201546020820152600382015460408201526004820154606082015260059091015460ff16151560809091015280519091506001600160a01b03163314610984576040516342f062b760e01b815260040160405180910390fd5b60006109938260600151612ee0565b90506109c48260200151836040015183866109bf8760a001518860800151612f0090919063ffffffff16565b612f15565b6020808301516001600160a01b0316600090815260068252604080822086835290925290812080546001600160a01b03191681556001810180546001600160a81b031916905560028101829055600381018290556004810191909155600501805460ff1916905560c0820151610aa257608082015182516001600160a01b03166000908152600a602052604081208054909190610a62908490615876565b90915550506080820151610aa2906001600160a01b037f000000000000000000000000000000000000000000000000000000000000000016903390613240565b604080516001600160a01b03861681526000602082015284917f2813f778e1cc9f965ce6235cfabe2ca8468c71ac5b8dc7a6e8315ab8fbfda0ca91015b60405180910390a250505050565b610b05610b0060408301602084016155a0565b613286565b6001600160a01b038083166000908152600e6020908152604080832087845290915290205416338114610b4b576040516342f062b760e01b815260040160405180910390fd5b33610b5960208401846155a0565b6001600160a01b031614610b80576040516342f062b760e01b815260040160405180910390fd5b81600e6000610b9560408401602085016155a0565b6001600160a01b03168152602080820192909252604090810160009081208882529092529020610bc582826158a9565b905050837fe657aa4938f23a1e792a700bd221e3e0dda2760d6572e0c57ac1d90a33a6d9f283604051610adf9190615987565b6001600160a01b038082166000908152600e6020908152604080832086845290915290205416338114610c3e576040516342f062b760e01b815260040160405180910390fd5b6001600160a01b0382166000818152600e6020908152604080832087845290915280822080546001600160a01b031990811682556001820180549091169055600281018390556003810183905560048101839055600501805460ff191690555190919085907f9242309241259c8f8c0196f19912b72928f6d95256e1939aee16099b71e9884f908490a4505050565b604080516080810182526001600160a01b03861660008181526007602090815284822054845282825260088152848220548185019081528383526003825285832060010154858701908152848452600c90925285832054606086019081529551631a09603f60e21b8152336004820152602481018a90526044810189905260648101889052945160848601525160a48501525160c4840152925160e48301529063682580fc906101040160408051808303816000875af1158015610d95573d6000803e3d6000fd5b505050506040513d601f19601f82011682018060405250810190610db99190615995565b5095945050505050565b60006202a30067ffffffffffffffff164201905063389a75e1600c5233600052806020600c2055337fdbf36a107da19e49527a7176a1babf963b4b0ff8cde35ee35d6cd8f1f9ac7e1d600080a250565b610e1b6132bf565b610e2483613286565b6001600160a01b0380841660009081526002602081815260408084209487168452938152838320845160a08101865281548152600182015492810192909252918201549381019390935260038101546060840152600401546080830152610e8b85836132e8565b905080610eab57604051633da1f7d160e11b815260040160405180910390fd5b6040516001600160a01b0380871660248301528516604482015233606482015260848101849052610f339060a40160408051601f198184030181529190526020810180516001600160e01b03166315567f0d60e31b1790526001600160a01b037f00000000000000000000000000000000000000000000000000000000000000001690613492565b505050505050565b6020818101516001600160a01b0390811660009081526006835260408082208683528452808220815160e0810183528154851681526001808301549586169682019690965292949293909291840191600160a01b90910460ff1690811115610fa557610fa5615718565b6001811115610fb657610fb6615718565b815260028201546020820152600382015460408201526004820154606082015260059091015460ff16151560809091015280519091506001600160a01b03163314611014576040516342f062b760e01b815260040160405180910390fd5b61103a82602001518360400151846000015185608001518660a0015187606001516134b7565b60006110498360600151612ee0565b90508260600151826060015114158061108c57508260400151600181111561107357611073615718565b8260400151600181111561108957611089615718565b14155b156112ee5760006110a08360600151612ee0565b90506110cc8460200151846040015183886109bf8860a001518960800151612f0090919063ffffffff16565b6005600085602001516001600160a01b03166001600160a01b0316815260200190815260200160002060008560400151600181111561110d5761110d615718565b600181111561111e5761111e615718565b815260208082019290925260409081016000908120600286900b825290925281206001015490036111be576111be8260016004600088602001516001600160a01b03166001600160a01b0316815260200190815260200160002060008860400151600181111561119057611190615718565b60018111156111a1576111a1615718565b81526020019081526020016000206135e99092919063ffffffff16565b6005600085602001516001600160a01b03166001600160a01b031681526020019081526020016000206000856040015160018111156111ff576111ff615718565b600181111561121057611210615718565b815260208082019290925260409081016000908120600286900b8252835290812060019081018054918201815582529190200185905560a0840151608085015161125991612f00565b6005600086602001516001600160a01b03166001600160a01b0316815260200190815260200160002060008660400151600181111561129a5761129a615718565b60018111156112ab576112ab615718565b815260200190815260200160002060008460020b60020b815260200190815260200160002060000160008282546112e291906159b9565b9091555061146e915050565b600061130b8360a001518460800151612f0090919063ffffffff16565b9050600061132a8560a001518660800151612f0090919063ffffffff16565b9050808211156113d25761133e8183615876565b6005600087602001516001600160a01b03166001600160a01b0316815260200190815260200160002060008760400151600181111561137f5761137f615718565b600181111561139057611390615718565b815260200190815260200160002060008560020b60020b815260200190815260200160002060000160008282546113c79190615876565b9091555061146b9050565b6113dc8282615876565b6005600087602001516001600160a01b03166001600160a01b0316815260200190815260200160002060008760400151600181111561141d5761141d615718565b600181111561142e5761142e615718565b815260200190815260200160002060008560020b60020b8152602001908152602001600020600001600082825461146591906159b9565b90915550505b50505b61147783613641565b151560c0840152602080840180516001600160a01b039081166000908152600684526040808220898352909452839020865181549083166001600160a01b0319918216178255925160018083018054929094169482168517845594880151889592949093926001600160a81b03199092161790600160a01b90849081111561150157611501615718565b0217905550606082015160028201556080820151600382015560a0820151600482015560c0918201516005909101805460ff19169115159190911790558281015190840151600091151590151514611587578360c001511561157a5761156a8360800151613742565b611573906159cc565b90506115ae565b6115738460800151613742565b6115948360800151613742565b6115a18560800151613742565b6115ab91906159e8565b90505b60ff81901c6000908103808301189082131561162f5784516001600160a01b03166000908152600a6020526040812080548392906115ed9084906159b9565b9091555050845161162a906001600160a01b037f00000000000000000000000000000000000000000000000000000000000000001690308461375b565b611694565b84516001600160a01b03166000908152600a602052604081208054839290611658908490615876565b90915550508451611694906001600160a01b037f0000000000000000000000000000000000000000000000000000000000000000169083613240565b857fecc2f826c147cc58b571f0fb944daa8efc8aeb82760929d06e91ea2f35a4ba60866040516116c491906157a6565b60405180910390a2505050505050565b6001600160a01b0380831660009081526002602081815260408084209486168452938152838320845160a081018652815481526001820154928101929092529182015493810193909352600381015460608401526004015460808301529061173c84826132e8565b9150505b92915050565b6040805180820190915260008152606060208201526001600160a01b03841660009081526005602052604081209084600181111561178657611786615718565b600181111561179757611797615718565b815260200190815260200160002060008360020b60020b8152602001908152602001600020604051806040016040529081600082015481526020016001820180548060200260200160405190810160405280929190818152602001828054801561182057602002820191906000526020600020905b81548152602001906001019080831161180c575b50505050508152505090505b9392505050565b61183b6132bf565b61184483613286565b600061185084336137af565b905060ff81901c600003808201188084111561187f57604051631eab837160e11b815260040160405180910390fd5b8360000361188e575050505050565b610f333386600085136118a25760006118a5565b60015b87876000878b146040516024016118c29796959493929190615a08565b60408051601f198184030181529190526020810180516001600160e01b0316637b9db48760e11b1790526001600160a01b037f00000000000000000000000000000000000000000000000000000000000000001690613492565b6040516001600160a01b038085166024830152831660448201526064810182905260009081906119a39060840160408051601f198184030181529190526020810180516001600160e01b031663546c8d1760e01b1790526001600160a01b037f00000000000000000000000000000000000000000000000000000000000000001690613492565b9050808060200190518101906119b99190615a5a565b95945050505050565b63389a75e1600c523360005260006020600c2055337ffa7b8eab7da67f412cc9575ed43464468f9bfbae89d1675917346ca6d8fe3c92600080a2565b6000611a13610b0060408401602085016155a0565b33611a2160208401846155a0565b6001600160a01b031614611a48576040516342f062b760e01b815260040160405180910390fd5b8143604051602001611a5b929190615a73565b60405160208183030381529060405280519060200120905081600e6000846020016020810190611a8b91906155a0565b6001600160a01b03168152602080820192909252604090810160009081208582529092529020611abb82826158a9565b905050807fe657aa4938f23a1e792a700bd221e3e0dda2760d6572e0c57ac1d90a33a6d9f283604051611aee9190615987565b60405180910390a2919050565b611b036132bf565b611b0c81613286565b6000806000836001600160a01b031663ed83d79c6040518163ffffffff1660e01b81526004016060604051808303816000875af1158015611b51573d6000803e3d6000fd5b505050506040513d601f19601f82011682018060405250810190611b759190615a8e565b6001600160a01b038716600081815260036020818152604080842081516080810183528154815260018201548185015260028201548184015293015460608401529383526007905291812080549598509396509194509286929190611bdb908490615abc565b90915550506020810151611bef90856137f8565b611bfa906001615abc565b6001600160a01b03861660009081526008602052604081208054909190611c22908490615abc565b90915550508051600090611c3690866137f8565b90506000811315611ce0576001600160a01b037f00000000000000000000000000000000000000000000000000000000000000001663c40768768760ff84901c600003808501186040516001600160e01b031960e085901b1681526001600160a01b0390921660048301526024820152604401600060405180830381600087803b158015611cc357600080fd5b505af1158015611cd7573d6000803e3d6000fd5b50505050611d84565b6000811215611d84576001600160a01b037f00000000000000000000000000000000000000000000000000000000000000001663aad3ec968760ff84901c600003808501186040516001600160e01b031960e085901b1681526001600160a01b0390921660048301526024820152604401600060405180830381600087803b158015611d6b57600080fd5b505af1158015611d7f573d6000803e3d6000fd5b505050505b6040805185815260208101859052908101869052606081018290526001600160a01b038716907f1c02bced5ca0dc6cf5083d0cafb8183dce5091eaa32c83b0065021a491ae5e53906080016116c4565b611ddc613862565b611de6600061387d565b565b6001600160a01b0380831660009081526002602081815260408084209486168452938152838320845160a0810186528154808252600183015493820193909352928101549483019490945260038401546060830152600490930154608082015290918291908203611e60576000809250925050611e8b565b6000611e6c86836138bb565b9150506000611e7c878484613d1e565b60600151925192945091925050505b9250929050565b336000908152600a602052604081208054839290611eb1908490615876565b90915550611eeb90506001600160a01b037f0000000000000000000000000000000000000000000000000000000000000000163383613240565b50565b6001600160a01b0380831660009081526002602081815260408084209486168452938152838320845160a0810186528154815260018201549281019290925291820154938101939093526003810154606084015260040154608083015290611f579084906138bb565b509392505050565b6000611f8782602001518360400151846000015185608001518660a0015187606001516134b7565b8143604051602001611f9a929190615ae4565b6040516020818303038152906040528051906020012090506000611fc18360600151612ee0565b6020808501516001600160a01b031660009081526005909152604080822090860151929350916001811115611ff857611ff8615718565b600181111561200957612009615718565b815260208082019290925260409081016000908120600285900b8252909252812060010154900361207b5761207b8160016004600087602001516001600160a01b03166001600160a01b0316815260200190815260200160002060008760400151600181111561119057611190615718565b6005600084602001516001600160a01b03166001600160a01b031681526020019081526020016000206000846040015160018111156120bc576120bc615718565b60018111156120cd576120cd615718565b815260208082019290925260409081016000908120600285900b8252835290812060019081018054918201815582529190200182905560a0830151608084015161211691612f00565b6005600085602001516001600160a01b03166001600160a01b0316815260200190815260200160002060008560400151600181111561215757612157615718565b600181111561216857612168615718565b815260200190815260200160002060008360020b60020b8152602001908152602001600020600001600082825461219f91906159b9565b909155506121ae905083613641565b151560c0840152602080840180516001600160a01b039081166000908152600684526040808220878352909452839020865181549083166001600160a01b0319918216178255925160018083018054929094169482168517845594880151889592949093926001600160a81b03199092161790600160a01b90849081111561223857612238615718565b0217905550606082015160028201556080820151600382015560a0820151600482015560c0918201516005909101805460ff19169115159190911790558301516122ed5760808301516122b9906001600160a01b037f000000000000000000000000000000000000000000000000000000000000000016903390309061375b565b608083015183516001600160a01b03166000908152600a6020526040812080549091906122e79084906159b9565b90915550505b817fecc2f826c147cc58b571f0fb944daa8efc8aeb82760929d06e91ea2f35a4ba608460405161231d91906157a6565b60405180910390a250919050565b612333613862565b6001600160a01b03919091166000908152600160205260409020805460ff1916911515919091179055565b6123a06040805160e081018252600080825260208201819052909182019081526020016000815260200160008152602001600081526020016000151581525090565b6001600160a01b038381166000908152600660209081526040808320868452825291829020825160e08101845281548516815260018083015495861693820193909352939092840191600160a01b90910460ff169081111561240457612404615718565b600181111561241557612415615718565b815260028201546020820152600382015460408201526004820154606082015260059091015460ff1615156080909101529392505050565b604080516080810182526001600160a01b038416600081815260076020908152848220548452828252600881528482205481850152828252600381528482206001015484860152828252600c9052838120546060840152925163ab7ab90360e01b8152839283929163ab7ab903916124cb9133918991600401615b00565b6060604051808303816000875af11580156124ea573d6000803e3d6000fd5b505050506040513d601f19601f8201168201806040525081019061250e9190615a8e565b925092509250826000146125a9576040516001600160a01b038616602482015233604482015260648101839052608481018490526125a39060a40160408051601f198184030181529190526020810180516001600160e01b031663dab497ff60e01b1790526001600160a01b037f00000000000000000000000000000000000000000000000000000000000000001690613492565b506125dd565b6125dd6001600160a01b037f0000000000000000000000000000000000000000000000000000000000000000163384613240565b6001600160a01b0385166000908152600b602052604081208054839290612605908490615876565b909155505060408051858152602081018590529081018390526060810182905233906001600160a01b038716907fef5ab242a679e37f2ff51fd2bc2aed154cad62c0906ef89aa3228d72f968105f9060800160405180910390a35050505050565b61266e613862565b6000805482158015620100000262ff000019909216919091179091556126ba576040517fed1cd0670ee0c0017f550451a038818c696d0b6a9d6ce5b369e44275573cf9b090600090a150565b6040517ff0c683001104e62ea6db2065e069e1df46185d033db8cf4494df0a516cf537cb90600090a150565b6127186040518060a0016040528060008152602001600081526020016000815260200160008152602001600081525090565b506001600160a01b03918216600090815260026020818152604080842094909516835292835290839020835160a08101855281548152600182015493810193909352908101549282019290925260038201546060820152600490910154608082015290565b61278682613286565b6001600160a01b03821660009081526002602081815260408084203385528252808420815160a081018352815481526001820154938101939093529283015490820152600382015460608201526004909101546080820152906127fc84836127f786670de0b6b3a763ffff19613dee565b613d1e565b606080820151602085015281519084015290506128198483613e3b565b6001600160a01b03808516600090815260026020818152604080842033808652908352938190208751815591870151600183015586015191810191909155606085015160038201556080850151600490910155612899917f0000000000000000000000000000000000000000000000000000000000000000169085613240565b60405183815233906001600160a01b038616907fb0fa03f93c852a6feaaeb34ccf4cf865cc223c4cc9d25dce28a9131fde2710719060200160405180910390a350505050565b6128e7613862565b6001600160a01b039283166000908152600d6020908152604080832094909516825292909252919020805460ff1916911515919091179055565b600054610100900460ff16158080156129415750600054600160ff909116105b8061295b5750303b15801561295b575060005460ff166001145b6129c35760405162461bcd60e51b815260206004820152602e60248201527f496e697469616c697a61626c653a20636f6e747261637420697320616c72656160448201526d191e481a5b9a5d1a585b1a5e995960921b60648201526084015b60405180910390fd5b6000805460ff1916600117905580156129e6576000805461ff0019166101001790555b612a3c6001600160a01b037f0000000000000000000000000000000000000000000000000000000000000000167f0000000000000000000000000000000000000000000000000000000000000000600019613f42565b612a4582613f7e565b8015612a8b576000805461ff0019169055604051600181527f7f26b83ff96e1f2b6a682f133852f6798a09c465da95921460cefb38474024989060200160405180910390a15b5050565b612a976132bf565b6001600160a01b038083166000908152600e602090815260408083208584528252808320815160c0810183528154861680825260018301549096169381019390935260028101549183019190915260038101546060830152600481015460808301526005015460ff16151560a082015291612b139085906137af565b9050600060ff82901c8103808301189050612b318360200151613286565b612b5a836020015160008413612b48576001612b4b565b60005b85604001518660a00151613fba565b6001600160a01b0385166000908152600e60209081526040808320878452909152812080546001600160a01b03199081168255600182018054909116905560028101829055600381018290556004810191909155600501805460ff191690556060830151811015612bcd57606083018190525b612c108360000151846020015160008513612be9576000612bec565b60015b606087015160808801516040516118c2959493929190339089841490602401615a08565b5060405133906001600160a01b0387169086907f9242309241259c8f8c0196f19912b72928f6d95256e1939aee16099b71e9884f90600090a45050505050565b612c586132bf565b612c6185613286565b612c758584612c708186612f00565b614085565b610f33338686868686604051602401612c9396959493929190615b45565b60408051601f198184030181529190526020810180516001600160e01b03166310faff9560e31b1790526001600160a01b037f00000000000000000000000000000000000000000000000000000000000000001690613492565b612cf682613286565b612d2b6001600160a01b037f00000000000000000000000000000000000000000000000000000000000000001633308461375b565b6001600160a01b038216600090815260026020908152604080832033845290915281206001018054839290612d619084906159b9565b909155505060405181815233906001600160a01b038416907f05c2d01f05f37971d15b22586be2f1933a1ae8c0079a056a430b4391550ffb2d9060200160405180910390a35050565b612dd56040518060800160405280600081526020016000815260200160008152602001600081525090565b506001600160a01b0316600090815260036020818152604092839020835160808101855281548152600182015492810192909252600281015493820193909352910154606082015290565b612e28613862565b63389a75e1600c52806000526020600c208054421115612e5057636f5e88186000526004601cfd5b60009055611eeb8161387d565b612e65613862565b8060601b612e7b57637448fbae6000526004601cfd5b611eeb8161387d565b612eb96001600160a01b037f00000000000000000000000000000000000000000000000000000000000000001633308461375b565b336000908152600a602052604081208054839290612ed89084906159b9565b909155505050565b60006117406060612ef084614121565b901b6001600160a01b03166141a3565b600061182c8383670de0b6b3a76400006144dd565b6001600160a01b038516600090815260056020526040812081866001811115612f4057612f40615718565b6001811115612f5157612f51615718565b815260200190815260200160002060008560020b60020b8152602001908152602001600020600101805480602002602001604051908101604052809291908181526020018280548015612fc357602002820191906000526020600020905b815481526020019060010190808311612faf575b5050835193945060009250612fdd91506001905083615876565b67ffffffffffffffff811115612ff557612ff561545a565b60405190808252806020026020018201604052801561301e578160200160208202803683370190505b5090506000805b83811015613094578685828151811061304057613040615b89565b60200260200101511461308c5784818151811061305f5761305f615b89565b602002602001015183838151811061307957613079615b89565b6020026020010181815250508160010191505b600101613025565b508015613193576001600160a01b038916600090815260056020526040812083918a60018111156130c7576130c7615718565b60018111156130d8576130d8615718565b815260200190815260200160002060008960020b60020b8152602001908152602001600020600101908051906020019061311392919061523a565b506001600160a01b038916600090815260056020526040812086918a600181111561314057613140615718565b600181111561315157613151615718565b815260200190815260200160002060008960020b60020b815260200190815260200160002060000160008282546131889190615876565b909155506132359050565b6001600160a01b0389166000908152600560205260408120908960018111156131be576131be615718565b60018111156131cf576131cf615718565b81526020808201929092526040908101600090812060028b900b82529092528120818155906132016001830182615281565b50506001600160a01b03891660009081526004602052604081206132359189916001918c8381111561119057611190615718565b505050505050505050565b816014528060345263a9059cbb60601b60005260206000604460106000875af13d15600160005114171661327c576390b8ec186000526004601cfd5b6000603452505050565b6001600160a01b03811660009081526001602052604090205460ff16611eeb576040516304c1bb0360e11b815260040160405180910390fd5b60005462010000900460ff16611de657604051637dc579d960e11b815260040160405180910390fd5b805160009081036132fb57506000611740565b600061338461337561336d866001600160a01b03166346558d1b6040518163ffffffff1660e01b8152600401602060405180830381865afa158015613344573d6000803e3d6000fd5b505050506040513d601f19601f820116820180604052508101906133689190615a5a565b613742565b8551906137f8565b60ff81901c6000039081011890565b9050600080846000015113156133bb576133a18460400151613742565b6133aa83613742565b6133b491906159e8565b90506133de565b6133c482613742565b6133d18560400151613742565b6133db91906159e8565b90505b600061340283836133f28860200151613742565b6133fc9190615abc565b9061458c565b905060008112156134195760019350505050611740565b856001600160a01b0316634f3c15426040518163ffffffff1660e01b8152600401602060405180830381865afa158015613457573d6000803e3d6000fd5b505050506040513d601f19601f8201168201806040525081019061347b9190615a5a565b60ff82901c60000380830118109695505050505050565b606061182c8383604051806060016040528060278152602001615dec602791396145b9565b336001600160a01b038516146134e0576040516342f062b760e01b815260040160405180910390fd5b6134e986613286565b6134f281614631565b6135018684612c708186612f00565b6000866001600160a01b031663604096326040518163ffffffff1660e01b8152600401602060405180830381865afa158015613541573d6000803e3d6000fd5b505050506040513d601f19601f820116820180604052508101906135659190615a5a565b905081810361358757604051636b20f24560e01b815260040160405180910390fd5b600086600181111561359b5761359b615718565b8284116135a95760016135ac565b60005b60018111156135bd576135bd615718565b14905080156135df5760405163349b316560e11b815260040160405180910390fd5b5050505050505050565b6135f38183615bb5565b60020b1561360057600080fd5b6000806136156136108486615bd7565b614661565b600191820b60009081526020979097526040909620805460ff9097169190911b90951890945550505050565b6020808201516001600160a01b0390811660009081526002808452604080832086519094168352928452828220835160a08101855281548082526001830154968201969096529181015493820193909352600383015460608201526004909201546080830152911561373c5760006136db61336885606001516136d58760a001518860800151612f0090919063ffffffff16565b90614681565b90506001846040015160018111156136f5576136f5615718565b0361370657613703816159cc565b90505b81516000906137159083615c11565b121561373a5760ff81901c60000380820118825160ff81901c60000390810118101592505b505b50919050565b6000600160ff1b821061375757613757614696565b5090565b60405181606052826040528360601b602c526323b872dd60601b600c52602060006064601c6000895af13d1560016000511417166137a157637939f4246000526004601cfd5b600060605260405250505050565b6001600160a01b0380831660009081526002602090815260408083209385168352929052908120549081900361174057604051631d5fdf4760e11b815260040160405180910390fd5b600080831281831280821415821561381657613813866159cc565b95505b811561382857613825856159cc565b94505b61383e6133688787670de0b6b3a76400006144dd565b935080156138595761384f846159cc565b9350505050611740565b50505092915050565b638b78c6d819543314611de6576382b429006000526004601cfd5b638b78c6d81980546001600160a01b039092169182907f8be0079c531659141344cd1fd0a4f28419497f9722a3daafe3b4186f6b6457e0600080a355565b6000806138c661529f565b835160ff81901c60000390810118606082018190526000036138ef576000809250925050611e8b565b846001600160a01b031663c24e38596040518163ffffffff1660e01b8152600401606060405180830381865afa15801561392d573d6000803e3d6000fd5b505050506040513d601f19601f820116820180604052508101906139519190615a8e565b604084015260208301528152835160001261396d576001613970565b60005b8160c00190600181111561398657613986615718565b9081600181111561399957613999615718565b90525060018160c0015160018111156139b4576139b4615718565b1460e08201526001600160a01b038516600090815260046020526040812060c0830151829060018111156139ea576139ea615718565b60018111156139fb576139fb615718565b81526020019081526020016000209050613a2e613a298360200151846000015161468190919063ffffffff16565b612ee0565b60020b608083015260e0820151613ac1906001600160a01b0388169063f36bdbc990613a5b576000613a5e565b60015b85606001516040518363ffffffff1660e01b8152600401613a80929190615c41565b602060405180830381865afa158015613a9d573d6000803e3d6000fd5b505050506040513d601f19601f82011682018060405250810190613a299190615a5a565b60020b60a083015260e082015115613ae857816080018051613ae290615c58565b60020b90525b6000805b8360e00151613b0b578360a0015160020b846080015160020b13613b1d565b8360a0015160020b846080015160020b125b15613c0957608084015160e0850151613b3b918591600190156146a4565b60029190910b608086015290508015613be657613bbd6040518060e00160405280866060015181526020018660000151815260200186602001518152602001866040015181526020018a6001600160a01b03168152602001866080015160020b81526020018660c001516001811115613bb657613bb6615718565b905261485c565b6020880152865260608601919091529150613bd882876159b9565b606085015190965015613c09575b8360e00151613c0457836080018051613bfe90615c58565b60020b90525b613aec565b606084015115613cac578360e0015115613c3b57836060015184602001818151613c339190615876565b905250613c55565b836060015184602001818151613c5191906159b9565b9052505b6000613c728560200151866040015161468190919063ffffffff16565b9050613c9e613c848660000151613742565b613c8d83613742565b818113818303929091038218021890565b613ca890886159b9565b9650505b60018460c001516001811115613cc457613cc4615718565b03613cf057613cd286613742565b613cdf8860400151613742565b613ce991906159e8565b9450613d13565b613cfd8760400151613742565b613d0687613742565b613d1091906159e8565b94505b505050509250929050565b613d496040518060800160405280600081526020016000815260200160008152602001600081525090565b6001600160a01b0384166000908152600760205260409020548152825115613d8e57825160608401518251613d889291613d82916159e8565b906137f8565b60208201525b6000613d9d8460200151613742565b6020830151613dac90856159e8565b613db69190615abc565b905060008112613dd65760ff81901c600003808201186060830152611f57565b60ff81901c6000039081011860408201529392505050565b60008082128015613e0557613e02836159cc565b92505b613e1b6133688585670de0b6b3a76400006144dd565b91508015613e3457613e2c826159cc565b915050611740565b5092915050565b600080613e4884846138bb565b915091506000613e5b8460200151613742565b90506000808313613e7557613e708383615abc565b613e77565b815b90506000866001600160a01b031663bce2020d6040518163ffffffff1660e01b8152600401602060405180830381865afa158015613eb9573d6000803e3d6000fd5b505050506040513d601f19601f82011682018060405250810190613edd9190615a5a565b905060008087600001511315613f07576040870151613f00906133689084612f00565b9050613f17565b613f146133688784612f00565b90505b6000613f2382856159e8565b12156135df5760405163845dfc3960e01b815260040160405180910390fd5b816014528060345263095ea7b360601b60005260206000604460106000875af13d15600160005114171661327c57633e3f8f736000526004601cfd5b6001600160a01b0316638b78c6d8198190558060007f8be0079c531659141344cd1fd0a4f28419497f9722a3daafe3b4186f6b6457e08180a350565b6000846001600160a01b031663604096326040518163ffffffff1660e01b8152600401602060405180830381865afa158015613ffa573d6000803e3d6000fd5b505050506040513d601f19601f8201168201806040525081019061401e9190615a5a565b905060008085600181111561403557614035615718565b0361405257826140475783821161404b565b8382105b9050614066565b8261405f57838210614063565b8382115b90505b8015610f3357604051630661bf5f60e51b815260040160405180910390fd5b6000836001600160a01b031663bce2020d6040518163ffffffff1660e01b8152600401602060405180830381865afa1580156140c5573d6000803e3d6000fd5b505050506040513d601f19601f820116820180604052508101906140e99190615a5a565b905060006140f78484614681565b90508181101561411a576040516357809b3160e01b815260040160405180910390fd5b5050505050565b6001600160881b03811160071b81811c68ffffffffffffffffff1060061b1781811c64ffffffffff1060051b1781811c62ffffff1060041b1781811c620100000160b5600192831c1b0260121c80830401811c80830401811c80830401811c80830401811c80830401811c80830401811c80830401901c908190048111900390565b60006401000276a36001600160a01b038316108015906141df575073fffd8963efd1fc6a506488495d951d5263988d266001600160a01b038316105b61420f5760405162461bcd60e51b81526020600482015260016024820152602960f91b60448201526064016129ba565b640100000000600160c01b03602083901b166001600160801b03811160071b81811c67ffffffffffffffff811160061b90811c63ffffffff811160051b90811c61ffff811160041b90811c60ff8111600390811b91821c600f811160021b90811c918211600190811b92831c979088119617909417909217179091171717608081106142aa576142a0607f82615876565b83901c91506142bb565b6142b581607f615876565b83901b91505b600060406142ca6080846159e8565b901b9050828302607f1c92508260801c80603f1b8217915083811c935050828302607f1c92508260801c80603e1b8217915083811c935050828302607f1c92508260801c80603d1b8217915083811c935050828302607f1c92508260801c80603c1b8217915083811c935050828302607f1c92508260801c80603b1b8217915083811c935050828302607f1c92508260801c80603a1b8217915083811c935050828302607f1c92508260801c8060391b8217915083811c935050828302607f1c92508260801c8060381b8217915083811c935050828302607f1c92508260801c8060371b8217915083811c935050828302607f1c92508260801c8060361b8217915083811c935050828302607f1c92508260801c8060351b8217915083811c935050828302607f1c92508260801c8060341b8217915083811c935050828302607f1c92508260801c8060331b8217915083811c935050828302607f1c92508260801c8060321b8217915050600081693627a301d71055774c8561444d9190615c11565b90506000608061446d6f028f6481ab7f045a5af012a19d003aaa846159e8565b901d90506000608061448f846fdb2df09e81959a81455e260799a0632f615abc565b901d90508060020b8260020b146144ce57886001600160a01b03166144b382614b45565b6001600160a01b031611156144c857816144d0565b806144d0565b815b9998505050505050505050565b6000838302600019848609818110820190038061451257836145075763ae47f7026000526004601cfd5b50829004905061182c565b8084116145275763ae47f7026000526004601cfd5b838587096000858103861695869004956003870260029081188089028203028089028203028089028203028089028203028089028203028089029091030291819003819004600101858411909403939093029190930391909104170290509392505050565b600080831280156145a3576145a0846159cc565b93505b613e1b61336885670de0b6b3a7640000866144dd565b6060600080856001600160a01b0316856040516145d69190615c9f565b600060405180830381855af49150503d8060008114614611576040519150601f19603f3d011682016040523d82523d6000602084013e614616565b606091505b509150915061462786838387614f5b565b9695505050505050565b61464367016345785d8a000082615cbb565b15611eeb57604051637434384960e01b815260040160405180910390fd5b600281900b60081d600061467761010084615bb5565b60020b9050915091565b600061182c83670de0b6b3a7640000846144dd565b6335278d126000526004601cfd5b600080806146b28587615bd7565b905060008660020b1280156146d257506146cc8587615bb5565b60020b15155b156146e557806146e181615c58565b9150505b8315614792576000806146f783614661565b90925090506000600160ff831681901b906147129082615876565b61471c91906159b9565b600184900b600090815260208c90526040902054811680151596509091508561475c578861474d60ff851687615ccf565b6147579190615cf4565b614787565b8861476682614fd4565b6147709085615d14565b61477d9060ff1687615ccf565b6147879190615cf4565b965050505050614852565b6000806147a3613610846001615d2d565b909250905060006147bb600160ff841681901b615876565b600184900b600090815260208c90526040902054901990811680151596509091508561481457886147ed8460ff615d14565b60ff166147fb876001615d2d565b6148059190615d2d565b61480f9190615cf4565b61484b565b888361481f836150c9565b6148299190615d14565b60ff16614837876001615d2d565b6148419190615d2d565b61484b9190615cf4565b9650505050505b5094509492505050565b60808101516001600160a01b0316600090815260056020526040812060c083015182918291829182918290600181111561489857614898615718565b60018111156148a9576148a9615718565b815260200190815260200160002060008760a0015160020b60020b8152602001908152602001600020604051806040016040529081600082015481526020016001820180548060200260200160405190810160405280929190818152602001828054801561493657602002820191906000526020600020905b815481526020019060010190808311614922575b505050505081525050905060006006600088608001516001600160a01b03166001600160a01b031681526020019081526020016000206000836020015160018560200151516149859190615876565b8151811061499557614995615b89565b60200260200101518152602001908152602001600020600201549050806000036149d75750508451602086015160408701519195506000945092509050614b3e565b6000614a0b6149e98960400151613742565b613c8d613368614a06868d6060015161468190919063ffffffff16565b6151f4565b8851909150811115614a1b575086515b8088600001818151614a2d9190615876565b90525060008860c001516001811115614a4857614a48615718565b14614a6a578088604001818151614a5f9190615876565b915081815250614a83565b8088604001818151614a7c91906159b9565b9150818152505b5060408801516060890151614a9791614681565b9450614ab2614aa98960200151613742565b613c8d87613742565b885190965015614b2e576000614ae0614ad88a604001518861468190919063ffffffff16565b855190614681565b8951909150811115614af0575087515b8089600001818151614b029190615876565b9052506040890151614b2090614b19908890614681565b8290612f00565b614b2a90886159b9565b9650505b5050855160408701519095509150505b9193509193565b60008060008360020b12614b5c578260020b614b69565b8260020b614b69906159cc565b9050614b78620d89e719615d52565b60020b811115614bae5760405162461bcd60e51b81526020600482015260016024820152601560fa1b60448201526064016129ba565b600081600116600003614bc557600160801b614bd7565b6ffffcb933bd6fad37aa2d162d1a5940015b6001600160881b031690506002821615614c0c576080614c07826ffff97272373d413259a46990580e213a615d74565b901c90505b6004821615614c36576080614c31826ffff2e50f5f656932ef12357cf3c7fdcc615d74565b901c90505b6008821615614c60576080614c5b826fffe5caca7e10e4e61c3624eaa0941cd0615d74565b901c90505b6010821615614c8a576080614c85826fffcb9843d60f6159c9db58835c926644615d74565b901c90505b6020821615614cb4576080614caf826fff973b41fa98c081472e6896dfb254c0615d74565b901c90505b6040821615614cde576080614cd9826fff2ea16466c96a3843ec78b326b52861615d74565b901c90505b6080821615614d08576080614d03826ffe5dee046a99a2a811c461f1969c3053615d74565b901c90505b610100821615614d33576080614d2e826ffcbe86c7900a88aedcffc83b479aa3a4615d74565b901c90505b610200821615614d5e576080614d59826ff987a7253ac413176f2b074cf7815e54615d74565b901c90505b610400821615614d89576080614d84826ff3392b0822b70005940c7a398e4b70f3615d74565b901c90505b610800821615614db4576080614daf826fe7159475a2c29b7443b29c7fa6e889d9615d74565b901c90505b611000821615614ddf576080614dda826fd097f3bdfd2022b8845ad8f792aa5825615d74565b901c90505b612000821615614e0a576080614e05826fa9f746462d870fdf8a65dc1f90e061e5615d74565b901c90505b614000821615614e35576080614e30826f70d869a156d2a1b890bb3df62baf32f7615d74565b901c90505b618000821615614e60576080614e5b826f31be135f97d08fd981231505542fcfa6615d74565b901c90505b62010000821615614e8c576080614e87826f09aa508b5b7a84e1c677de54f3e99bc9615d74565b901c90505b62020000821615614eb7576080614eb2826e5d6af8dedb81196699c329225ee604615d74565b901c90505b62040000821615614ee1576080614edc826d2216e584f5fa1ea926041bedfe98615d74565b901c90505b62080000821615614f09576080614f04826b048a170391f7dc42444e8fa2615d74565b901c90505b60008460020b1315614f2457614f2181600019615d8b565b90505b614f3364010000000082615cbb565b15614f3f576001614f42565b60005b614f539060ff16602083901c6159b9565b949350505050565b60608315614fca578251600003614fc3576001600160a01b0385163b614fc35760405162461bcd60e51b815260206004820152601d60248201527f416464726573733a2063616c6c20746f206e6f6e2d636f6e747261637400000060448201526064016129ba565b5081614f53565b614f538383615210565b6000808211614fe257600080fd5b600160801b821061500057608091821c91614ffd9082615d9f565b90505b68010000000000000000821061502357604091821c916150209082615d9f565b90505b640100000000821061504257602091821c9161503f9082615d9f565b90505b62010000821061505f57601091821c9161505c9082615d9f565b90505b610100821061507b57600891821c916150789082615d9f565b90505b6010821061509657600491821c916150939082615d9f565b90505b600482106150b157600291821c916150ae9082615d9f565b90505b600282106150c457611740600182615d9f565b919050565b60008082116150d757600080fd5b5060ff6001600160801b038216156150fb576150f4608082615d14565b9050615103565b608082901c91505b67ffffffffffffffff8216156151255761511e604082615d14565b905061512d565b604082901c91505b63ffffffff82161561514b57615144602082615d14565b9050615153565b602082901c91505b61ffff82161561516f57615168601082615d14565b9050615177565b601082901c91505b60ff8216156151925761518b600882615d14565b905061519a565b600882901c91505b600f8216156151b5576151ae600482615d14565b90506151bd565b600482901c91505b60038216156151d8576151d1600282615d14565b90506151e0565b600282901c91505b60018216156150c457611740600182615d14565b600061174061520b83670de0b6b3a7640000615d74565b614121565b8151156152205781518083602001fd5b8060405162461bcd60e51b81526004016129ba9190615db8565b828054828255906000526020600020908101928215615275579160200282015b8281111561527557825182559160200191906001019061525a565b506137579291506152fb565b5080546000825590600052602060002090810190611eeb91906152fb565b60405180610100016040528060008152602001600081526020016000815260200160008152602001600060020b8152602001600060020b8152602001600060018111156152ee576152ee615718565b8152600060209091015290565b5b8082111561375757600081556001016152fc565b6001600160a01b0381168114611eeb57600080fd5b80356150c481615310565b6000806040838503121561534357600080fd5b823561534e81615310565b946020939093013593505050565b600060c0828403121561373c57600080fd5b6000806000610100848603121561538457600080fd5b83359250602084013561539681615310565b91506153a5856040860161535c565b90509250925092565b600080604083850312156153c157600080fd5b8235915060208301356153d381615310565b809150509250929050565b600080600080608085870312156153f457600080fd5b84356153ff81615310565b966020860135965060408601359560600135945092505050565b60008060006060848603121561542e57600080fd5b833561543981615310565b9250602084013561544981615310565b929592945050506040919091013590565b634e487b7160e01b600052604160045260246000fd5b8035600281106150c457600080fd5b8015158114611eeb57600080fd5b80356150c48161547f565b600060e082840312156154aa57600080fd5b60405160e0810181811067ffffffffffffffff821117156154db57634e487b7160e01b600052604160045260246000fd5b6040529050806154ea83615325565b81526154f860208401615325565b602082015261550960408401615470565b6040820152606083013560608201526080830135608082015260a083013560a082015261553860c0840161548d565b60c08201525092915050565b600080610100838503121561555857600080fd5b823591506155698460208501615498565b90509250929050565b6000806040838503121561558557600080fd5b823561559081615310565b915060208301356153d381615310565b6000602082840312156155b257600080fd5b813561182c81615310565b6000806000606084860312156155d257600080fd5b83356155dd81615310565b92506155eb60208501615470565b915060408401358060020b811461560157600080fd5b809150509250925092565b60208082528251828201528281015160408084015280516060840181905260009291820190839060808601905b808310156156595783518252928401926001929092019190840190615639565b509695505050505050565b60008060006060848603121561567957600080fd5b833561568481615310565b95602085013595506040909401359392505050565b600060c082840312156156ab57600080fd5b61182c838361535c565b6000602082840312156156c757600080fd5b5035919050565b600060e082840312156156e057600080fd5b61182c8383615498565b600080604083850312156156fd57600080fd5b823561570881615310565b915060208301356153d38161547f565b634e487b7160e01b600052602160045260246000fd5b60028110611eeb57634e487b7160e01b600052602160045260246000fd5b80516001600160a01b0390811683526020808301519091169083015260408101516157768161572e565b6040830152606081810151908301526080808201519083015260a0808201519083015260c0908101511515910152565b60e08101611740828461574c565b6000602082840312156157c657600080fd5b813561182c8161547f565b6000806000606084860312156157e657600080fd5b83356157f181615310565b9250602084013561580181615310565b915060408401356156018161547f565b600080600080600060a0868803121561582957600080fd5b853561583481615310565b945061584260208701615470565b94979496505050506040830135926060810135926080909101359150565b634e487b7160e01b600052601160045260246000fd5b8181038181111561174057611740615860565b80546001600160a01b0319166001600160a01b0392909216919091179055565b81356158b481615310565b6158be8183615889565b5060208201356158cd81615310565b6158da8160018401615889565b506040820135600282015560608201356003820155608082013560048201556005810160a083013561590b8161547f565b815490151560ff1660ff19919091161790555050565b803561592c81615310565b6001600160a01b03908116835260208201359061594882615310565b16602083015260408181013590830152606080820135908301526080808201359083015260a081013561597a8161547f565b80151560a0840152505050565b60c081016117408284615921565b600080604083850312156159a857600080fd5b505080516020909101519092909150565b8082018082111561174057611740615860565b6000600160ff1b82016159e1576159e1615860565b5060000390565b8181036000831280158383131683831282161715613e3457613e34615860565b6001600160a01b038881168252878116602083015260e0820190615a2b8861572e565b87604084015286606084015285608084015280851660a08401525082151560c083015298975050505050505050565b600060208284031215615a6c57600080fd5b5051919050565b60e08101615a818285615921565b8260c08301529392505050565b600080600060608486031215615aa357600080fd5b8351925060208401519150604084015190509250925092565b8082018281126000831280158216821582161715615adc57615adc615860565b505092915050565b6101008101615af3828561574c565b8260e08301529392505050565b6001600160a01b03841681526020810183905260c08101614f536040830184805182526020810151602083015260408101516040830152606081015160608301525050565b6001600160a01b0387811682528616602082015260c08101615b668661572e565b8560408301528460608301528360808301528260a0830152979650505050505050565b634e487b7160e01b600052603260045260246000fd5b634e487b7160e01b600052601260045260246000fd5b60008260020b80615bc857615bc8615b9f565b808360020b0791505092915050565b60008160020b8360020b80615bee57615bee615b9f565b627fffff19821460001982141615615c0857615c08615860565b90059392505050565b80820260008212600160ff1b84141615615c2d57615c2d615860565b818105831482151761174057611740615860565b60408101615c4e8461572e565b9281526020015290565b60008160020b627fffff198103615c7157615c71615860565b6000190192915050565b60005b83811015615c96578181015183820152602001615c7e565b50506000910152565b60008251615cb1818460208701615c7b565b9190910192915050565b600082615cca57615cca615b9f565b500690565b600282810b9082900b03627fffff198112627fffff8213171561174057611740615860565b60008260020b8260020b028060020b9150808214613e3457613e34615860565b60ff828116828216039081111561174057611740615860565b600281810b9083900b01627fffff8113627fffff198212171561174057611740615860565b60008160020b627fffff198103615d6b57615d6b615860565b60000392915050565b808202811582820484141761174057611740615860565b600082615d9a57615d9a615b9f565b500490565b60ff818116838216019081111561174057611740615860565b6020815260008251806020840152615dd7816040850160208701615c7b565b601f01601f1916919091016040019291505056fe416464726573733a206c6f772d6c6576656c2064656c65676174652063616c6c206661696c6564a264697066735822122055d3032f29fa77c5b295666e98ce7a486a04e7cc93c1e3707f42c1077919151864736f6c63430008150033",
		"linkReferences": {}
	},
	"methodIdentifiers": {
		"addLiquidity(address,uint256,uint256,uint256)": "1ece366a",
		"addMargin(address,uint256)": "cf70cb69",
		"addMarginToBalance(uint256)": "fde3d4f9",
		"cancelOwnershipHandover()": "54d1f13d",
		"closePosition(address,uint256,uint256)": "4fa9c4db",
		"closePositionKeeper(address,bytes32)": "c88d348a",
		"completeOwnershipHandover(address)": "f04e283e",
		"createLimitOrder((address,address,uint8,uint256,uint256,uint256,bool))": "7eb02406",
		"createTriggerOrder((address,address,uint256,uint256,uint256,bool))": "68d85297",
		"deleteLimitOrder(address,bytes32)": "02000f1b",
		"getAmmActive(address)": "7ee194fc",
		"getCumulativePremiumFraction(address)": "6ea41e40",
		"getFeeGrowth(address)": "b346679b",
		"getFeePool(address)": "8d66a9a3",
		"getLimitLiquidity(address,uint8,int24)": "4e270f9b",
		"getLimitOrder(address,bytes32)": "86f28fc5",
		"getOpenInterestNotional(address)": "429e9237",
		"getPosition(address,address)": "b33dc190",
		"getPositionNotional(address,address)": "7c88490a",
		"getPositionValue(address,address)": "77b57b07",
		"getSizeForQuote(address,address,uint256)": "546c8d17",
		"getTotalPositionSize(address)": "e980e16e",
		"initialize(address)": "c4d66de8",
		"isActive()": "22f3e2d4",
		"isLiquidatable(address,address)": "3966a28b",
		"liquidate(address,address,uint256)": "26c01303",
		"openPosition(address,uint8,uint256,uint256,uint256)": "cbb50e61",
		"owner()": "8da5cb5b",
		"ownershipHandoverExpiresAt(address)": "fee81cf4",
		"ownershipHandoverValidFor()": "d7533f02",
		"removeLiquidity(address,uint256)": "a201ccf6",
		"removeMargin(address,uint256)": "b959d695",
		"removeMarginFromBalance(uint256)": "7afc1f98",
		"removeTriggerOrder(bytes32,address)": "1dbd10fb",
		"renounceOwnership()": "715018a6",
		"requestOwnershipHandover()": "25692962",
		"setActive(bool)": "acec338a",
		"setActiveAMM(address,bool)": "7fdd7c51",
		"setVaildPool(address,address,bool)": "bf4c8bf5",
		"settleFunding(address)": "6b17ad03",
		"transferOwnership(address)": "f2fde38b",
		"updateLimitOrder(bytes32,(address,address,uint8,uint256,uint256,uint256,bool))": "27745899",
		"updateTriggerOrder(bytes32,address,(address,address,uint256,uint256,uint256,bool))": "18aec626"
	},
	"id": 39
}