{
    "abi": [
        {
            "inputs": [
                {
                    "internalType": "address",
                    "name": "_weth",
                    "type": "address"
                },
                {
                    "internalType": "address",
                    "name": "_insuranceFund",
                    "type": "address"
                },
                {
                    "internalType": "address",
                    "name": "_positionManager",
                    "type": "address"
                }
            ],
            "stateMutability": "nonpayable",
            "type": "constructor"
        },
        {
            "inputs": [],
            "name": "BAD_DEBT",
            "type": "error"
        },
        {
            "inputs": [],
            "name": "INACTIVE",
            "type": "error"
        },
        {
            "inputs": [],
            "name": "INACTIVE_REDUCE_ONLY_ORDER",
            "type": "error"
        },
        {
            "inputs": [],
            "name": "INSUFFICIENT_LIQUIDITY",
            "type": "error"
        },
        {
            "inputs": [],
            "name": "INVALID_AMM",
            "type": "error"
        },
        {
            "inputs": [],
            "name": "INVALID_MARGIN_RATIO",
            "type": "error"
        },
        {
            "inputs": [],
            "name": "INVALID_SIDE",
            "type": "error"
        },
        {
            "inputs": [],
            "name": "INVALID_TRIGGER_AMOUNT",
            "type": "error"
        },
        {
            "inputs": [],
            "name": "NOT_LIQUIDATABLE",
            "type": "error"
        },
        {
            "inputs": [],
            "name": "NOT_TRADER",
            "type": "error"
        },
        {
            "inputs": [],
            "name": "NO_POSITION",
            "type": "error"
        },
        {
            "inputs": [],
            "name": "NewOwnerIsZeroAddress",
            "type": "error"
        },
        {
            "inputs": [],
            "name": "NoHandoverRequest",
            "type": "error"
        },
        {
            "inputs": [],
            "name": "TRIGGER_ON_MARK",
            "type": "error"
        },
        {
            "inputs": [],
            "name": "Unauthorized",
            "type": "error"
        },
        {
            "anonymous": false,
            "inputs": [],
            "name": "Activated",
            "type": "event"
        },
        {
            "anonymous": false,
            "inputs": [
                {
                    "indexed": false,
                    "internalType": "address",
                    "name": "previousAdmin",
                    "type": "address"
                },
                {
                    "indexed": false,
                    "internalType": "address",
                    "name": "newAdmin",
                    "type": "address"
                }
            ],
            "name": "AdminChanged",
            "type": "event"
        },
        {
            "anonymous": false,
            "inputs": [
                {
                    "indexed": true,
                    "internalType": "address",
                    "name": "beacon",
                    "type": "address"
                }
            ],
            "name": "BeaconUpgraded",
            "type": "event"
        },
        {
            "anonymous": false,
            "inputs": [],
            "name": "Deactived",
            "type": "event"
        },
        {
            "anonymous": false,
            "inputs": [
                {
                    "indexed": true,
                    "internalType": "contract IAMM",
                    "name": "amm",
                    "type": "address"
                },
                {
                    "indexed": false,
                    "internalType": "uint256",
                    "name": "markPrice",
                    "type": "uint256"
                },
                {
                    "indexed": false,
                    "internalType": "uint256",
                    "name": "indexPrice",
                    "type": "uint256"
                },
                {
                    "indexed": false,
                    "internalType": "int256",
                    "name": "premiumFractionLong",
                    "type": "int256"
                },
                {
                    "indexed": false,
                    "internalType": "int256",
                    "name": "premiumFractionShort",
                    "type": "int256"
                },
                {
                    "indexed": false,
                    "internalType": "int256",
                    "name": "insuranceFundPnL",
                    "type": "int256"
                }
            ],
            "name": "FundingPayment",
            "type": "event"
        },
        {
            "anonymous": false,
            "inputs": [
                {
                    "indexed": true,
                    "internalType": "contract IAMM",
                    "name": "amm",
                    "type": "address"
                },
                {
                    "indexed": false,
                    "internalType": "uint256",
                    "name": "markPrice",
                    "type": "uint256"
                },
                {
                    "indexed": false,
                    "internalType": "uint256",
                    "name": "indexPrice",
                    "type": "uint256"
                },
                {
                    "indexed": false,
                    "internalType": "int256",
                    "name": "premiumFraction",
                    "type": "int256"
                },
                {
                    "indexed": false,
                    "internalType": "int256",
                    "name": "insuranceFundPnL",
                    "type": "int256"
                }
            ],
            "name": "FundingSettled",
            "type": "event"
        },
        {
            "anonymous": false,
            "inputs": [
                {
                    "indexed": false,
                    "internalType": "uint8",
                    "name": "version",
                    "type": "uint8"
                }
            ],
            "name": "Initialized",
            "type": "event"
        },
        {
            "anonymous": false,
            "inputs": [
                {
                    "indexed": true,
                    "internalType": "bytes32",
                    "name": "id",
                    "type": "bytes32"
                },
                {
                    "indexed": false,
                    "internalType": "bool",
                    "name": "filled",
                    "type": "bool"
                }
            ],
            "name": "LimitOrderRemoved",
            "type": "event"
        },
        {
            "anonymous": false,
            "inputs": [
                {
                    "indexed": true,
                    "internalType": "bytes32",
                    "name": "id",
                    "type": "bytes32"
                },
                {
                    "components": [
                        {
                            "internalType": "address",
                            "name": "trader",
                            "type": "address"
                        },
                        {
                            "internalType": "contract IAMM",
                            "name": "amm",
                            "type": "address"
                        },
                        {
                            "internalType": "enum Side",
                            "name": "side",
                            "type": "uint8"
                        },
                        {
                            "internalType": "uint256",
                            "name": "trigger",
                            "type": "uint256"
                        },
                        {
                            "internalType": "uint256",
                            "name": "quoteAmount",
                            "type": "uint256"
                        },
                        {
                            "internalType": "uint256",
                            "name": "leverage",
                            "type": "uint256"
                        }
                    ],
                    "indexed": false,
                    "internalType": "struct LimitOrder",
                    "name": "order",
                    "type": "tuple"
                }
            ],
            "name": "LimitOrderUpdated",
            "type": "event"
        },
        {
            "anonymous": false,
            "inputs": [
                {
                    "indexed": true,
                    "internalType": "contract IAMM",
                    "name": "amm",
                    "type": "address"
                },
                {
                    "indexed": true,
                    "internalType": "address",
                    "name": "maker",
                    "type": "address"
                },
                {
                    "indexed": false,
                    "internalType": "uint256",
                    "name": "liquidity",
                    "type": "uint256"
                }
            ],
            "name": "LiquidityAdded",
            "type": "event"
        },
        {
            "anonymous": false,
            "inputs": [
                {
                    "indexed": true,
                    "internalType": "contract IAMM",
                    "name": "amm",
                    "type": "address"
                },
                {
                    "indexed": true,
                    "internalType": "address",
                    "name": "maker",
                    "type": "address"
                },
                {
                    "indexed": false,
                    "internalType": "uint256",
                    "name": "liquidity",
                    "type": "uint256"
                },
                {
                    "indexed": false,
                    "internalType": "int256",
                    "name": "fundingPayment",
                    "type": "int256"
                },
                {
                    "indexed": false,
                    "internalType": "uint256",
                    "name": "fee",
                    "type": "uint256"
                }
            ],
            "name": "LiquidityRemoved",
            "type": "event"
        },
        {
            "anonymous": false,
            "inputs": [
                {
                    "indexed": true,
                    "internalType": "contract IAMM",
                    "name": "amm",
                    "type": "address"
                },
                {
                    "indexed": true,
                    "internalType": "address",
                    "name": "trader",
                    "type": "address"
                },
                {
                    "indexed": false,
                    "internalType": "uint256",
                    "name": "amount",
                    "type": "uint256"
                }
            ],
            "name": "MarginAdded",
            "type": "event"
        },
        {
            "anonymous": false,
            "inputs": [
                {
                    "indexed": true,
                    "internalType": "contract IAMM",
                    "name": "amm",
                    "type": "address"
                },
                {
                    "indexed": true,
                    "internalType": "address",
                    "name": "trader",
                    "type": "address"
                },
                {
                    "indexed": false,
                    "internalType": "uint256",
                    "name": "amount",
                    "type": "uint256"
                }
            ],
            "name": "MarginRemoved",
            "type": "event"
        },
        {
            "anonymous": false,
            "inputs": [
                {
                    "indexed": true,
                    "internalType": "contract IAMM",
                    "name": "amm",
                    "type": "address"
                },
                {
                    "indexed": false,
                    "internalType": "uint256",
                    "name": "newOpenInterest",
                    "type": "uint256"
                }
            ],
            "name": "OpenInterestChanged",
            "type": "event"
        },
        {
            "anonymous": false,
            "inputs": [
                {
                    "indexed": true,
                    "internalType": "address",
                    "name": "pendingOwner",
                    "type": "address"
                }
            ],
            "name": "OwnershipHandoverCanceled",
            "type": "event"
        },
        {
            "anonymous": false,
            "inputs": [
                {
                    "indexed": true,
                    "internalType": "address",
                    "name": "pendingOwner",
                    "type": "address"
                }
            ],
            "name": "OwnershipHandoverRequested",
            "type": "event"
        },
        {
            "anonymous": false,
            "inputs": [
                {
                    "indexed": true,
                    "internalType": "address",
                    "name": "oldOwner",
                    "type": "address"
                },
                {
                    "indexed": true,
                    "internalType": "address",
                    "name": "newOwner",
                    "type": "address"
                }
            ],
            "name": "OwnershipTransferred",
            "type": "event"
        },
        {
            "anonymous": false,
            "inputs": [
                {
                    "indexed": true,
                    "internalType": "contract IAMM",
                    "name": "amm",
                    "type": "address"
                },
                {
                    "indexed": true,
                    "internalType": "address",
                    "name": "trader",
                    "type": "address"
                },
                {
                    "indexed": false,
                    "internalType": "uint256",
                    "name": "openNotional",
                    "type": "uint256"
                },
                {
                    "indexed": false,
                    "internalType": "int256",
                    "name": "size",
                    "type": "int256"
                },
                {
                    "indexed": false,
                    "internalType": "uint256",
                    "name": "exchangedQuote",
                    "type": "uint256"
                },
                {
                    "indexed": false,
                    "internalType": "int256",
                    "name": "exchangedSize",
                    "type": "int256"
                },
                {
                    "indexed": false,
                    "internalType": "int256",
                    "name": "realizedPnL",
                    "type": "int256"
                },
                {
                    "indexed": false,
                    "internalType": "int256",
                    "name": "fundingPayment",
                    "type": "int256"
                },
                {
                    "indexed": false,
                    "internalType": "uint256",
                    "name": "markPrice",
                    "type": "uint256"
                },
                {
                    "indexed": false,
                    "internalType": "uint256",
                    "name": "ifFee",
                    "type": "uint256"
                },
                {
                    "indexed": false,
                    "internalType": "uint256",
                    "name": "ammFee",
                    "type": "uint256"
                },
                {
                    "indexed": false,
                    "internalType": "uint256",
                    "name": "limitFee",
                    "type": "uint256"
                },
                {
                    "indexed": false,
                    "internalType": "uint256",
                    "name": "keeperFee",
                    "type": "uint256"
                }
            ],
            "name": "PositionChanged",
            "type": "event"
        },
        {
            "anonymous": false,
            "inputs": [
                {
                    "indexed": true,
                    "internalType": "contract IAMM",
                    "name": "amm",
                    "type": "address"
                },
                {
                    "indexed": true,
                    "internalType": "address",
                    "name": "trader",
                    "type": "address"
                },
                {
                    "indexed": true,
                    "internalType": "address",
                    "name": "liquidator",
                    "type": "address"
                },
                {
                    "indexed": false,
                    "internalType": "uint256",
                    "name": "liquidatedPositionNotional",
                    "type": "uint256"
                },
                {
                    "indexed": false,
                    "internalType": "uint256",
                    "name": "liquidatedPositionSize",
                    "type": "uint256"
                },
                {
                    "indexed": false,
                    "internalType": "uint256",
                    "name": "liquidationReward",
                    "type": "uint256"
                },
                {
                    "indexed": false,
                    "internalType": "uint256",
                    "name": "insuranceFundProfit",
                    "type": "uint256"
                },
                {
                    "indexed": false,
                    "internalType": "uint256",
                    "name": "badDebt",
                    "type": "uint256"
                }
            ],
            "name": "PositionLiquidated",
            "type": "event"
        },
        {
            "anonymous": false,
            "inputs": [
                {
                    "indexed": true,
                    "internalType": "bytes32",
                    "name": "id",
                    "type": "bytes32"
                },
                {
                    "indexed": true,
                    "internalType": "address",
                    "name": "keeper",
                    "type": "address"
                }
            ],
            "name": "TriggerOrderRemoved",
            "type": "event"
        },
        {
            "anonymous": false,
            "inputs": [
                {
                    "indexed": true,
                    "internalType": "bytes32",
                    "name": "id",
                    "type": "bytes32"
                },
                {
                    "components": [
                        {
                            "internalType": "address",
                            "name": "trader",
                            "type": "address"
                        },
                        {
                            "internalType": "contract IAMM",
                            "name": "amm",
                            "type": "address"
                        },
                        {
                            "internalType": "uint256",
                            "name": "trigger",
                            "type": "uint256"
                        },
                        {
                            "internalType": "uint256",
                            "name": "size",
                            "type": "uint256"
                        },
                        {
                            "internalType": "uint256",
                            "name": "quoteLimit",
                            "type": "uint256"
                        },
                        {
                            "internalType": "bool",
                            "name": "takeProfit",
                            "type": "bool"
                        }
                    ],
                    "indexed": false,
                    "internalType": "struct TriggerOrder",
                    "name": "order",
                    "type": "tuple"
                }
            ],
            "name": "TriggerOrderUpdated",
            "type": "event"
        },
        {
            "anonymous": false,
            "inputs": [
                {
                    "indexed": true,
                    "internalType": "address",
                    "name": "implementation",
                    "type": "address"
                }
            ],
            "name": "Upgraded",
            "type": "event"
        },
        {
            "inputs": [
                {
                    "internalType": "contract IAMM",
                    "name": "amm",
                    "type": "address"
                }
            ],
            "name": "activateAMM",
            "outputs": [],
            "stateMutability": "nonpayable",
            "type": "function"
        },
        {
            "inputs": [
                {
                    "internalType": "contract IAMM",
                    "name": "amm",
                    "type": "address"
                },
                {
                    "internalType": "uint256",
                    "name": "margin",
                    "type": "uint256"
                },
                {
                    "internalType": "uint256",
                    "name": "notional",
                    "type": "uint256"
                },
                {
                    "internalType": "uint256",
                    "name": "minLiquidity",
                    "type": "uint256"
                }
            ],
            "name": "addLiquidity",
            "outputs": [
                {
                    "internalType": "uint256",
                    "name": "",
                    "type": "uint256"
                }
            ],
            "stateMutability": "nonpayable",
            "type": "function"
        },
        {
            "inputs": [
                {
                    "internalType": "contract IAMM",
                    "name": "amm",
                    "type": "address"
                },
                {
                    "internalType": "uint256",
                    "name": "margin",
                    "type": "uint256"
                },
                {
                    "internalType": "uint256",
                    "name": "leverage",
                    "type": "uint256"
                },
                {
                    "internalType": "uint256",
                    "name": "minLiquidity",
                    "type": "uint256"
                }
            ],
            "name": "addLiquidityH",
            "outputs": [
                {
                    "internalType": "uint256",
                    "name": "liquidity",
                    "type": "uint256"
                }
            ],
            "stateMutability": "nonpayable",
            "type": "function"
        },
        {
            "inputs": [
                {
                    "internalType": "contract IAMM",
                    "name": "amm",
                    "type": "address"
                },
                {
                    "internalType": "uint256",
                    "name": "margin",
                    "type": "uint256"
                }
            ],
            "name": "addMargin",
            "outputs": [],
            "stateMutability": "nonpayable",
            "type": "function"
        },
        {
            "inputs": [],
            "name": "cancelOwnershipHandover",
            "outputs": [],
            "stateMutability": "payable",
            "type": "function"
        },
        {
            "inputs": [
                {
                    "internalType": "contract IAMM",
                    "name": "amm",
                    "type": "address"
                },
                {
                    "internalType": "uint256",
                    "name": "size",
                    "type": "uint256"
                },
                {
                    "internalType": "uint256",
                    "name": "quoteLimit",
                    "type": "uint256"
                }
            ],
            "name": "closePosition",
            "outputs": [],
            "stateMutability": "nonpayable",
            "type": "function"
        },
        {
            "inputs": [
                {
                    "internalType": "bytes32",
                    "name": "id",
                    "type": "bytes32"
                },
                {
                    "internalType": "contract IAMM",
                    "name": "amm",
                    "type": "address"
                }
            ],
            "name": "closePositionKeeper",
            "outputs": [],
            "stateMutability": "nonpayable",
            "type": "function"
        },
        {
            "inputs": [
                {
                    "internalType": "address",
                    "name": "pendingOwner",
                    "type": "address"
                }
            ],
            "name": "completeOwnershipHandover",
            "outputs": [],
            "stateMutability": "payable",
            "type": "function"
        },
        {
            "inputs": [
                {
                    "components": [
                        {
                            "internalType": "address",
                            "name": "trader",
                            "type": "address"
                        },
                        {
                            "internalType": "contract IAMM",
                            "name": "amm",
                            "type": "address"
                        },
                        {
                            "internalType": "enum Side",
                            "name": "side",
                            "type": "uint8"
                        },
                        {
                            "internalType": "uint256",
                            "name": "trigger",
                            "type": "uint256"
                        },
                        {
                            "internalType": "uint256",
                            "name": "quoteAmount",
                            "type": "uint256"
                        },
                        {
                            "internalType": "uint256",
                            "name": "leverage",
                            "type": "uint256"
                        }
                    ],
                    "internalType": "struct LimitOrder",
                    "name": "order",
                    "type": "tuple"
                }
            ],
            "name": "createLimitOrder",
            "outputs": [
                {
                    "internalType": "bytes32",
                    "name": "id",
                    "type": "bytes32"
                }
            ],
            "stateMutability": "nonpayable",
            "type": "function"
        },
        {
            "inputs": [
                {
                    "components": [
                        {
                            "internalType": "address",
                            "name": "trader",
                            "type": "address"
                        },
                        {
                            "internalType": "contract IAMM",
                            "name": "amm",
                            "type": "address"
                        },
                        {
                            "internalType": "uint256",
                            "name": "trigger",
                            "type": "uint256"
                        },
                        {
                            "internalType": "uint256",
                            "name": "size",
                            "type": "uint256"
                        },
                        {
                            "internalType": "uint256",
                            "name": "quoteLimit",
                            "type": "uint256"
                        },
                        {
                            "internalType": "bool",
                            "name": "takeProfit",
                            "type": "bool"
                        }
                    ],
                    "internalType": "struct TriggerOrder",
                    "name": "order",
                    "type": "tuple"
                }
            ],
            "name": "createTriggerOrder",
            "outputs": [
                {
                    "internalType": "bytes32",
                    "name": "id",
                    "type": "bytes32"
                }
            ],
            "stateMutability": "nonpayable",
            "type": "function"
        },
        {
            "inputs": [
                {
                    "internalType": "contract IAMM",
                    "name": "amm",
                    "type": "address"
                },
                {
                    "internalType": "bytes32",
                    "name": "id",
                    "type": "bytes32"
                }
            ],
            "name": "deleteLimitOrder",
            "outputs": [],
            "stateMutability": "nonpayable",
            "type": "function"
        },
        {
            "inputs": [
                {
                    "internalType": "contract IAMM",
                    "name": "amm",
                    "type": "address"
                },
                {
                    "internalType": "address",
                    "name": "trader",
                    "type": "address"
                }
            ],
            "name": "forceLiquidate",
            "outputs": [],
            "stateMutability": "nonpayable",
            "type": "function"
        },
        {
            "inputs": [
                {
                    "internalType": "contract IAMM",
                    "name": "amm",
                    "type": "address"
                }
            ],
            "name": "getAmmActive",
            "outputs": [
                {
                    "internalType": "bool",
                    "name": "",
                    "type": "bool"
                }
            ],
            "stateMutability": "view",
            "type": "function"
        },
        {
            "inputs": [
                {
                    "internalType": "contract IAMM",
                    "name": "amm",
                    "type": "address"
                }
            ],
            "name": "getCumulativePremiumFraction",
            "outputs": [
                {
                    "internalType": "int256",
                    "name": "",
                    "type": "int256"
                }
            ],
            "stateMutability": "view",
            "type": "function"
        },
        {
            "inputs": [
                {
                    "internalType": "contract IAMM",
                    "name": "amm",
                    "type": "address"
                },
                {
                    "internalType": "address",
                    "name": "trader",
                    "type": "address"
                }
            ],
            "name": "getImpermanentMakerSizeAndNotional",
            "outputs": [
                {
                    "internalType": "uint256",
                    "name": "positionNotional",
                    "type": "uint256"
                },
                {
                    "internalType": "int256",
                    "name": "size",
                    "type": "int256"
                }
            ],
            "stateMutability": "view",
            "type": "function"
        },
        {
            "inputs": [
                {
                    "internalType": "contract IAMM",
                    "name": "amm",
                    "type": "address"
                },
                {
                    "internalType": "bytes32",
                    "name": "id",
                    "type": "bytes32"
                }
            ],
            "name": "getLimitOrder",
            "outputs": [
                {
                    "components": [
                        {
                            "internalType": "address",
                            "name": "trader",
                            "type": "address"
                        },
                        {
                            "internalType": "contract IAMM",
                            "name": "amm",
                            "type": "address"
                        },
                        {
                            "internalType": "enum Side",
                            "name": "side",
                            "type": "uint8"
                        },
                        {
                            "internalType": "uint256",
                            "name": "trigger",
                            "type": "uint256"
                        },
                        {
                            "internalType": "uint256",
                            "name": "quoteAmount",
                            "type": "uint256"
                        },
                        {
                            "internalType": "uint256",
                            "name": "leverage",
                            "type": "uint256"
                        }
                    ],
                    "internalType": "struct LimitOrder",
                    "name": "",
                    "type": "tuple"
                }
            ],
            "stateMutability": "view",
            "type": "function"
        },
        {
            "inputs": [
                {
                    "internalType": "contract IAMM",
                    "name": "amm",
                    "type": "address"
                },
                {
                    "internalType": "address",
                    "name": "maker",
                    "type": "address"
                }
            ],
            "name": "getMakerFundingPayment",
            "outputs": [
                {
                    "internalType": "int256",
                    "name": "fundingPayment",
                    "type": "int256"
                }
            ],
            "stateMutability": "view",
            "type": "function"
        },
        {
            "inputs": [
                {
                    "internalType": "contract IAMM",
                    "name": "amm",
                    "type": "address"
                },
                {
                    "internalType": "address",
                    "name": "maker",
                    "type": "address"
                }
            ],
            "name": "getMakerFundingPaymentH",
            "outputs": [
                {
                    "internalType": "int256",
                    "name": "fundingPayment",
                    "type": "int256"
                }
            ],
            "stateMutability": "view",
            "type": "function"
        },
        {
            "inputs": [
                {
                    "internalType": "contract IAMM",
                    "name": "amm",
                    "type": "address"
                }
            ],
            "name": "getOpenInterestNotional",
            "outputs": [
                {
                    "internalType": "uint256",
                    "name": "",
                    "type": "uint256"
                }
            ],
            "stateMutability": "view",
            "type": "function"
        },
        {
            "inputs": [
                {
                    "internalType": "contract IAMM",
                    "name": "amm",
                    "type": "address"
                },
                {
                    "internalType": "address",
                    "name": "trader",
                    "type": "address"
                }
            ],
            "name": "getPosition",
            "outputs": [
                {
                    "components": [
                        {
                            "internalType": "int256",
                            "name": "size",
                            "type": "int256"
                        },
                        {
                            "internalType": "uint256",
                            "name": "margin",
                            "type": "uint256"
                        },
                        {
                            "internalType": "uint256",
                            "name": "openNotional",
                            "type": "uint256"
                        },
                        {
                            "internalType": "int256",
                            "name": "lastPremiumFraction",
                            "type": "int256"
                        },
                        {
                            "internalType": "uint256",
                            "name": "blockNumber",
                            "type": "uint256"
                        }
                    ],
                    "internalType": "struct Position",
                    "name": "position",
                    "type": "tuple"
                }
            ],
            "stateMutability": "view",
            "type": "function"
        },
        {
            "inputs": [
                {
                    "internalType": "contract IAMM",
                    "name": "amm",
                    "type": "address"
                },
                {
                    "internalType": "address",
                    "name": "taker",
                    "type": "address"
                }
            ],
            "name": "getTakerFundingPayment",
            "outputs": [
                {
                    "internalType": "int256",
                    "name": "fundingPayment",
                    "type": "int256"
                }
            ],
            "stateMutability": "view",
            "type": "function"
        },
        {
            "inputs": [
                {
                    "internalType": "contract IAMM",
                    "name": "amm",
                    "type": "address"
                }
            ],
            "name": "getTotalPositionSize",
            "outputs": [
                {
                    "components": [
                        {
                            "internalType": "int256",
                            "name": "netPositionSize",
                            "type": "int256"
                        },
                        {
                            "internalType": "int256",
                            "name": "netPositionSizePerShare",
                            "type": "int256"
                        },
                        {
                            "internalType": "uint256",
                            "name": "positionSizeLong",
                            "type": "uint256"
                        },
                        {
                            "internalType": "uint256",
                            "name": "positionSizeShort",
                            "type": "uint256"
                        }
                    ],
                    "internalType": "struct TotalPositionSize",
                    "name": "",
                    "type": "tuple"
                }
            ],
            "stateMutability": "view",
            "type": "function"
        },
        {
            "inputs": [
                {
                    "internalType": "address",
                    "name": "_owner",
                    "type": "address"
                },
                {
                    "internalType": "uint256",
                    "name": "_ammFeeRatio",
                    "type": "uint256"
                },
                {
                    "internalType": "uint256",
                    "name": "_limitFeeRatio",
                    "type": "uint256"
                },
                {
                    "internalType": "uint256",
                    "name": "_keeperFeeRatio",
                    "type": "uint256"
                },
                {
                    "internalType": "uint256",
                    "name": "_liquidatorFeeRatio",
                    "type": "uint256"
                },
                {
                    "internalType": "uint256",
                    "name": "_fundingRateDeltaCapRatio",
                    "type": "uint256"
                }
            ],
            "name": "initialize",
            "outputs": [],
            "stateMutability": "nonpayable",
            "type": "function"
        },
        {
            "inputs": [],
            "name": "insuranceFund",
            "outputs": [
                {
                    "internalType": "contract IInsuranceFund",
                    "name": "",
                    "type": "address"
                }
            ],
            "stateMutability": "view",
            "type": "function"
        },
        {
            "inputs": [],
            "name": "isActive",
            "outputs": [
                {
                    "internalType": "bool",
                    "name": "",
                    "type": "bool"
                }
            ],
            "stateMutability": "view",
            "type": "function"
        },
        {
            "inputs": [
                {
                    "internalType": "contract IAMM",
                    "name": "amm",
                    "type": "address"
                },
                {
                    "internalType": "address",
                    "name": "trader",
                    "type": "address"
                }
            ],
            "name": "isLiquidatable",
            "outputs": [
                {
                    "internalType": "bool",
                    "name": "hi",
                    "type": "bool"
                }
            ],
            "stateMutability": "view",
            "type": "function"
        },
        {
            "inputs": [
                {
                    "internalType": "contract IAMM",
                    "name": "amm",
                    "type": "address"
                },
                {
                    "internalType": "address",
                    "name": "trader",
                    "type": "address"
                },
                {
                    "internalType": "int256",
                    "name": "positionSize",
                    "type": "int256"
                }
            ],
            "name": "liquidate",
            "outputs": [],
            "stateMutability": "nonpayable",
            "type": "function"
        },
        {
            "inputs": [
                {
                    "internalType": "contract IAMM",
                    "name": "amm",
                    "type": "address"
                },
                {
                    "internalType": "enum Side",
                    "name": "side",
                    "type": "uint8"
                },
                {
                    "internalType": "uint256",
                    "name": "quote",
                    "type": "uint256"
                },
                {
                    "internalType": "uint256",
                    "name": "leverage",
                    "type": "uint256"
                },
                {
                    "internalType": "uint256",
                    "name": "baseLimit",
                    "type": "uint256"
                }
            ],
            "name": "openPosition",
            "outputs": [],
            "stateMutability": "nonpayable",
            "type": "function"
        },
        {
            "inputs": [],
            "name": "owner",
            "outputs": [
                {
                    "internalType": "address",
                    "name": "result",
                    "type": "address"
                }
            ],
            "stateMutability": "view",
            "type": "function"
        },
        {
            "inputs": [
                {
                    "internalType": "address",
                    "name": "pendingOwner",
                    "type": "address"
                }
            ],
            "name": "ownershipHandoverExpiresAt",
            "outputs": [
                {
                    "internalType": "uint256",
                    "name": "result",
                    "type": "uint256"
                }
            ],
            "stateMutability": "view",
            "type": "function"
        },
        {
            "inputs": [],
            "name": "ownershipHandoverValidFor",
            "outputs": [
                {
                    "internalType": "uint64",
                    "name": "",
                    "type": "uint64"
                }
            ],
            "stateMutability": "view",
            "type": "function"
        },
        {
            "inputs": [],
            "name": "positionManager",
            "outputs": [
                {
                    "internalType": "address",
                    "name": "",
                    "type": "address"
                }
            ],
            "stateMutability": "view",
            "type": "function"
        },
        {
            "inputs": [],
            "name": "proxiableUUID",
            "outputs": [
                {
                    "internalType": "bytes32",
                    "name": "",
                    "type": "bytes32"
                }
            ],
            "stateMutability": "view",
            "type": "function"
        },
        {
            "inputs": [
                {
                    "internalType": "contract IAMM",
                    "name": "amm",
                    "type": "address"
                },
                {
                    "internalType": "uint256",
                    "name": "liquidity",
                    "type": "uint256"
                }
            ],
            "name": "removeLiquidity",
            "outputs": [],
            "stateMutability": "nonpayable",
            "type": "function"
        },
        {
            "inputs": [
                {
                    "internalType": "contract IAMM",
                    "name": "amm",
                    "type": "address"
                },
                {
                    "internalType": "uint256",
                    "name": "margin",
                    "type": "uint256"
                }
            ],
            "name": "removeMargin",
            "outputs": [],
            "stateMutability": "nonpayable",
            "type": "function"
        },
        {
            "inputs": [
                {
                    "internalType": "bytes32",
                    "name": "id",
                    "type": "bytes32"
                },
                {
                    "internalType": "contract IAMM",
                    "name": "amm",
                    "type": "address"
                }
            ],
            "name": "removeTriggerOrder",
            "outputs": [],
            "stateMutability": "nonpayable",
            "type": "function"
        },
        {
            "inputs": [],
            "name": "renounceOwnership",
            "outputs": [],
            "stateMutability": "payable",
            "type": "function"
        },
        {
            "inputs": [],
            "name": "requestOwnershipHandover",
            "outputs": [],
            "stateMutability": "payable",
            "type": "function"
        },
        {
            "inputs": [
                {
                    "internalType": "bool",
                    "name": "_active",
                    "type": "bool"
                }
            ],
            "name": "setActive",
            "outputs": [],
            "stateMutability": "nonpayable",
            "type": "function"
        },
        {
            "inputs": [
                {
                    "internalType": "uint256",
                    "name": "ratio",
                    "type": "uint256"
                }
            ],
            "name": "setAmmFeeRatio",
            "outputs": [],
            "stateMutability": "nonpayable",
            "type": "function"
        },
        {
            "inputs": [
                {
                    "internalType": "uint256",
                    "name": "ratio",
                    "type": "uint256"
                }
            ],
            "name": "setKeeperFeeRatio",
            "outputs": [],
            "stateMutability": "nonpayable",
            "type": "function"
        },
        {
            "inputs": [
                {
                    "internalType": "uint256",
                    "name": "ratio",
                    "type": "uint256"
                }
            ],
            "name": "setLimitFeeRatio",
            "outputs": [],
            "stateMutability": "nonpayable",
            "type": "function"
        },
        {
            "inputs": [
                {
                    "internalType": "uint256",
                    "name": "ratio",
                    "type": "uint256"
                }
            ],
            "name": "setLiquidatorFeeRatio",
            "outputs": [],
            "stateMutability": "nonpayable",
            "type": "function"
        },
        {
            "inputs": [
                {
                    "internalType": "contract IAMM",
                    "name": "amm",
                    "type": "address"
                }
            ],
            "name": "settleFunding",
            "outputs": [],
            "stateMutability": "nonpayable",
            "type": "function"
        },
        {
            "inputs": [
                {
                    "internalType": "address",
                    "name": "newOwner",
                    "type": "address"
                }
            ],
            "name": "transferOwnership",
            "outputs": [],
            "stateMutability": "payable",
            "type": "function"
        },
        {
            "inputs": [
                {
                    "internalType": "bytes32",
                    "name": "id",
                    "type": "bytes32"
                },
                {
                    "components": [
                        {
                            "internalType": "address",
                            "name": "trader",
                            "type": "address"
                        },
                        {
                            "internalType": "contract IAMM",
                            "name": "amm",
                            "type": "address"
                        },
                        {
                            "internalType": "enum Side",
                            "name": "side",
                            "type": "uint8"
                        },
                        {
                            "internalType": "uint256",
                            "name": "trigger",
                            "type": "uint256"
                        },
                        {
                            "internalType": "uint256",
                            "name": "quoteAmount",
                            "type": "uint256"
                        },
                        {
                            "internalType": "uint256",
                            "name": "leverage",
                            "type": "uint256"
                        }
                    ],
                    "internalType": "struct LimitOrder",
                    "name": "order",
                    "type": "tuple"
                }
            ],
            "name": "updateLimitOrder",
            "outputs": [],
            "stateMutability": "nonpayable",
            "type": "function"
        },
        {
            "inputs": [
                {
                    "internalType": "bytes32",
                    "name": "id",
                    "type": "bytes32"
                },
                {
                    "internalType": "contract IAMM",
                    "name": "amm",
                    "type": "address"
                },
                {
                    "components": [
                        {
                            "internalType": "address",
                            "name": "trader",
                            "type": "address"
                        },
                        {
                            "internalType": "contract IAMM",
                            "name": "amm",
                            "type": "address"
                        },
                        {
                            "internalType": "uint256",
                            "name": "trigger",
                            "type": "uint256"
                        },
                        {
                            "internalType": "uint256",
                            "name": "size",
                            "type": "uint256"
                        },
                        {
                            "internalType": "uint256",
                            "name": "quoteLimit",
                            "type": "uint256"
                        },
                        {
                            "internalType": "bool",
                            "name": "takeProfit",
                            "type": "bool"
                        }
                    ],
                    "internalType": "struct TriggerOrder",
                    "name": "order",
                    "type": "tuple"
                }
            ],
            "name": "updateTriggerOrder",
            "outputs": [],
            "stateMutability": "nonpayable",
            "type": "function"
        },
        {
            "inputs": [
                {
                    "internalType": "address",
                    "name": "newImplementation",
                    "type": "address"
                }
            ],
            "name": "upgradeTo",
            "outputs": [],
            "stateMutability": "nonpayable",
            "type": "function"
        },
        {
            "inputs": [
                {
                    "internalType": "address",
                    "name": "newImplementation",
                    "type": "address"
                },
                {
                    "internalType": "bytes",
                    "name": "data",
                    "type": "bytes"
                }
            ],
            "name": "upgradeToAndCall",
            "outputs": [],
            "stateMutability": "payable",
            "type": "function"
        },
        {
            "inputs": [],
            "name": "weth",
            "outputs": [
                {
                    "internalType": "address",
                    "name": "",
                    "type": "address"
                }
            ],
            "stateMutability": "view",
            "type": "function"
        }
    ],
    "bytecode": {
        "object": "0x610100604052306080523480156200001657600080fd5b5060405162005b8038038062005b80833981016040819052620000399162000143565b6001600160a01b0380841660a05282811660e052811660c0526200005c62000065565b5050506200018d565b600054610100900460ff1615620000d25760405162461bcd60e51b815260206004820152602760248201527f496e697469616c697a61626c653a20636f6e747261637420697320696e697469604482015266616c697a696e6760c81b606482015260840160405180910390fd5b60005460ff9081161462000124576000805460ff191660ff9081179091556040519081527f7f26b83ff96e1f2b6a682f133852f6798a09c465da95921460cefb38474024989060200160405180910390a15b565b80516001600160a01b03811681146200013e57600080fd5b919050565b6000806000606084860312156200015957600080fd5b620001648462000126565b9250620001746020850162000126565b9150620001846040850162000126565b90509250925092565b60805160a05160c05160e05161593b62000245600039600081816108610152818161239e015261241301526000818161066c01528181611efe0152818161212501528181612d2801526131060152600081816104bc01528181610b4c01528181610e460152818161134d0152818161191b01528181611a3b015281816123d4015281816130230152613142015260008181611b0901528181611b5201528181611d9301528181611dd30152611f38015261593b6000f3fe6080604052600436106102c95760003560e01c8063715018a611610175578063b3bac474116100dc578063d7533f0211610095578063f04e283e1161006f578063f04e283e14610974578063f22693d114610987578063f2fde38b146109a7578063fee81cf4146109ba57600080fd5b8063d7533f02146108e3578063e1c0f21714610901578063e980e16e1461092157600080fd5b8063b3bac4741461080f578063b7901a431461082f578063b79023031461084f578063b959d69514610883578063cbb50e61146108a3578063cf70cb69146108c357600080fd5b80638a4f4a6f1161012e5780638a4f4a6f146107145780638da5cb5b14610734578063a201ccf61461074d578063aa317dc01461076d578063acec338a1461078d578063b33dc190146107ad57600080fd5b8063715018a6146106325780637658a14f1461063a578063791b98bc1461065a5780637ee194fc1461068e57806384ee8543146106c757806386f28fc5146106e757600080fd5b80633659cfe6116102345780634fa9c4db116101ed57806365d461bd116101c757806365d461bd1461059c57806368d85297146105bc5780636b17ad03146105dc5780636ea41e40146105fc57600080fd5b80634fa9c4db1461055f57806352d1902d1461057f57806354d1f13d1461059457600080fd5b80633659cfe61461046a5780633966a28b1461048a5780633fc8cef3146104aa578063429e9237146104f657806345ff4c801461052c5780634f1ef2861461054c57600080fd5b80631ece366a116102865780631ece366a146103a3578063216a7f9b146103c357806322f3e2d4146103f85780632487010014610422578063256929621461044257806332a9569a1461044a57600080fd5b806301e5d726146102ce57806302000f1b146102f057806302d07c241461031057806316ca18fe1461034357806318aec626146103635780631dbd10fb14610383575b600080fd5b3480156102da57600080fd5b506102ee6102e9366004614d96565b6109ed565b005b3480156102fc57600080fd5b506102ee61030b366004614dc4565b6109fa565b34801561031c57600080fd5b5061033061032b366004614e08565b610bb1565b6040519081526020015b60405180910390f35b34801561034f57600080fd5b5061033061035e366004614e24565b610f28565b34801561036f57600080fd5b506102ee61037e366004614e5d565b610fb2565b34801561038f57600080fd5b506102ee61039e366004614e9d565b6110bd565b3480156103af57600080fd5b506103306103be366004614ec2565b61118f565b3480156103cf57600080fd5b506103e36103de366004614e24565b6113c3565b6040805192835260208301919091520161033a565b34801561040457600080fd5b5060005462010000900460ff165b604051901515815260200161033a565b34801561042e57600080fd5b506102ee61043d366004614efd565b611581565b6102ee611aa2565b34801561045657600080fd5b506102ee610465366004614d96565b611af2565b34801561047657600080fd5b506102ee610485366004614f2a565b611aff565b34801561049657600080fd5b506104126104a5366004614e24565b611be7565b3480156104b657600080fd5b506104de7f000000000000000000000000000000000000000000000000000000000000000081565b6040516001600160a01b03909116815260200161033a565b34801561050257600080fd5b50610330610511366004614f2a565b6001600160a01b03166000908152600e602052604090205490565b34801561053857600080fd5b506102ee610547366004614f47565b611c58565b6102ee61055a366004614fa9565b611d89565b34801561056b57600080fd5b506102ee61057a36600461506d565b611e59565b34801561058b57600080fd5b50610330611f2b565b6102ee611fde565b3480156105a857600080fd5b506102ee6105b73660046150a2565b61201a565b3480156105c857600080fd5b506103306105d7366004614e08565b612153565b3480156105e857600080fd5b506102ee6105f7366004614f2a565b612250565b34801561060857600080fd5b50610330610617366004614f2a565b6001600160a01b03166000908152600c602052604090205490565b6102ee6124f4565b34801561064657600080fd5b50610330610655366004614ec2565b612508565b34801561066657600080fd5b506104de7f000000000000000000000000000000000000000000000000000000000000000081565b34801561069a57600080fd5b506104126106a9366004614f2a565b6001600160a01b031660009081526006602052604090205460ff1690565b3480156106d357600080fd5b506102ee6106e2366004614d96565b6127c3565b3480156106f357600080fd5b50610707610702366004614dc4565b6127d0565b60405161033a9190615117565b34801561072057600080fd5b506102ee61072f366004614d96565b6128a7565b34801561074057600080fd5b50638b78c6d819546104de565b34801561075957600080fd5b506102ee610768366004614dc4565b6128b4565b34801561077957600080fd5b506102ee610788366004614e24565b612c25565b34801561079957600080fd5b506102ee6107a836600461517f565b612d4e565b3480156107b957600080fd5b506107cd6107c8366004614e24565b612dce565b60405161033a9190600060a082019050825182526020830151602083015260408301516040830152606083015160608301526080830151608083015292915050565b34801561081b57600080fd5b5061033061082a366004614e24565b612e65565b34801561083b57600080fd5b506102ee61084a366004614f2a565b612f02565b34801561085b57600080fd5b506104de7f000000000000000000000000000000000000000000000000000000000000000081565b34801561088f57600080fd5b506102ee61089e366004614dc4565b612f2e565b3480156108af57600080fd5b506102ee6108be3660046151a9565b61308f565b3480156108cf57600080fd5b506102ee6108de366004614dc4565b61312c565b3480156108ef57600080fd5b506040516202a300815260200161033a565b34801561090d57600080fd5b506102ee61091c366004614e9d565b6131e9565b34801561092d57600080fd5b5061094161093c366004614f2a565b61339e565b60405161033a91908151815260208083015190820152604080830151908201526060918201519181019190915260800190565b6102ee610982366004614f2a565b613417565b34801561099357600080fd5b506103306109a2366004614e24565b613454565b6102ee6109b5366004614f2a565b6135fd565b3480156109c657600080fd5b506103306109d5366004614f2a565b63389a75e1600c908152600091909152602090205490565b6109f5613624565b600155565b6001600160a01b038281166000908152600b602090815260408083208584528252808320815160c081018352815486168152600180830154968716948201949094529394909291840191600160a01b90910460ff1690811115610a5f57610a5f6150e3565b6001811115610a7057610a706150e3565b8152600282015460208201526003820154604082015260049091015460609091015280519091506001600160a01b03163314610abf576040516342f062b760e01b815260040160405180910390fd5b6000610ace826060015161363f565b9050610ae48260200151836040015183866136dc565b6020808301516001600160a01b039081166000908152600b8352604080822087835290935291822080546001600160a01b03191681556001810180546001600160a81b03191690556002810183905560038101839055600401919091556080830151610b74917f000000000000000000000000000000000000000000000000000000000000000016903390613975565b6040516000815283907f2e837aa3474f1f8472ba0a0bd3baabfe98e1afbfa3edc0ad3293d6d99d385f86906020015b60405180910390a250505050565b6000610bf7610bc66040840160208501614f2a565b610bd660608501604086016151fa565b610be36020860186614f2a565b85608001358660a0013587606001356139bb565b8143604051602001610c0a92919061527f565b6040516020818303038152906040528051906020012090506000610c31836060013561363f565b9050600a6000610c476040860160208701614f2a565b6001600160a01b03166001600160a01b031681526020019081526020016000206000846040016020810190610c7c91906151fa565b6001811115610c8d57610c8d6150e3565b6001811115610c9e57610c9e6150e3565b815260208082019290925260409081016000908120600285900b82529092528120549003610d5457610d5481600160096000610ce06040890160208a01614f2a565b6001600160a01b03166001600160a01b031681526020019081526020016000206000876040016020810190610d1591906151fa565b6001811115610d2657610d266150e3565b6001811115610d3757610d376150e3565b81526020019081526020016000206139fc9092919063ffffffff16565b600a6000610d686040860160208701614f2a565b6001600160a01b03166001600160a01b031681526020019081526020016000206000846040016020810190610d9d91906151fa565b6001811115610dae57610dae6150e3565b6001811115610dbf57610dbf6150e3565b815260208082019290925260409081016000908120600285900b825283528181208054600181018255908252838220018590558592600b92610e0691908501908501614f2a565b6001600160a01b03168152602080820192909252604090810160009081208682529092529020610e3682826152ba565b50610e7290506001600160a01b037f00000000000000000000000000000000000000000000000000000000000000001633306080870135613a54565b6080830135600f6000610e8b6040870160208801614f2a565b6001600160a01b03168152602080820192909252604001600090812091610eb490870187614f2a565b6001600160a01b03166001600160a01b031681526020019081526020016000206000828254610ee39190615353565b92505081905550817fd580c78c1b8798d641c5441b8f9df66563bd35875927dd0191b4695f8444c94284604051610f1a9190615366565b60405180910390a250919050565b6001600160a01b0380831660008181526007602090815260408083209486168352938152838220845160a08101865281548082526001830154828501526002830154828801526003830154606083018190526004909301546080830152948452600c9092529382205491939092610faa929091610fa491615374565b90613aa8565b949350505050565b610fca610fc56040830160208401614f2a565b613b12565b6001600160a01b03808316600090815260126020908152604080832087845290915290205416338114611010576040516342f062b760e01b815260040160405180910390fd5b3361101e6020840184614f2a565b6001600160a01b031614611045576040516342f062b760e01b815260040160405180910390fd5b816012600061105a6040840160208501614f2a565b6001600160a01b0316815260208082019290925260409081016000908120888252909252902061108a8282615394565b905050837fe657aa4938f23a1e792a700bd221e3e0dda2760d6572e0c57ac1d90a33a6d9f283604051610ba39190615472565b6001600160a01b03808216600090815260126020908152604080832086845290915290205416338114611103576040516342f062b760e01b815260040160405180910390fd5b6001600160a01b038216600090815260126020908152604080832086845290915280822080546001600160a01b031990811682556001820180549091169055600281018390556003810183905560048101839055600501805460ff191690555184907fa052a3a05833c68f905c84a3642ce523a06483f59e02d33a6a4be9c9d5d234ea908390a3505050565b600061119c858585613b4b565b6001600160a01b03851660008181526010602090815260408083203384528252808320815160c0810183528154815260018201549381019390935260028101548383015260038101546060840152600480820154608085015260059091015460a08401529051634e6a20ed60e11b8152908101879052602481018690529092829182918291639cd441da906044016080604051808303816000875af1158015611249573d6000803e3d6000fd5b505050506040513d601f19601f8201168201806040525081019061126d9190615480565b93509350935093506040518060c001604052808a87600001516112909190615353565b81526020018487602001516112a59190615353565b81526020018387604001516112ba9190615353565b81526020018587606001516112cf9190615353565b81526001600160a01b03808d166000818152600c602090815260408083205482870152439581019590955291815260108252838120338083529083529084902085518155918501516001830155928401516002820155606084015160038201556080840151600482015560a0840151600590910155919650611375917f00000000000000000000000000000000000000000000000000000000000000001690308c613a54565b60405184815233906001600160a01b038c16907f9d278c56ba6dc86a12eefe6b43112bd6e06648eb4ec0b950ee2d783d40e2acb49060200160405180910390a3509198975050505050505050565b6001600160a01b0380831660008181526010602090815260408083209486168352938152838220845160c0810186528154815260018201549281019290925260028101548286015260038101546060830152600480820154608084015260059091015460a08301528451630240bc6b60e21b81528551939586959394869485949093630902f1ac9381830193909290918290030181865afa15801561146c573d6000803e3d6000fd5b505050506040513d601f19601f8201168201806040525081019061149091906154b6565b915091506000876001600160a01b03166335c7e9256040518163ffffffff1660e01b8152600401602060405180830381865afa1580156114d4573d6000803e3d6000fd5b505050506040513d601f19601f820116820180604052508101906114f891906154da565b606085015190915060009061150e908584613be0565b6060860151909150600090611524908585613be0565b90506115338660400151613c8e565b61153c82613c8e565b6115469190615374565b965061157261155483613c8e565b6115618860200151613c8e565b818113818303929091038218021890565b97505050505050509250929050565b6000600b816115966040850160208601614f2a565b6001600160a01b039081168252602080830193909352604091820160009081208782528452829020825160c08101845281548316815260018083015493841695820195909552939092840191600160a01b900460ff16908111156115fc576115fc6150e3565b600181111561160d5761160d6150e3565b8152600282015460208201526003820154604082015260049091015460609091015280519091506001600160a01b0316331461165c576040516342f062b760e01b815260040160405180910390fd5b61166f610bc66040840160208501614f2a565b600061167e836060013561363f565b9050826060013582606001511415806116cc57506116a260608401604085016151fa565b60018111156116b3576116b36150e3565b826040015160018111156116c9576116c96150e3565b14155b156118835760006116e0836060015161363f565b90506117016116f56040860160208701614f2a565b846040015183886136dc565b600a60006117156040870160208801614f2a565b6001600160a01b03166001600160a01b03168152602001908152602001600020600085604001602081019061174a91906151fa565b600181111561175b5761175b6150e3565b600181111561176c5761176c6150e3565b815260208082019290925260409081016000908120600286900b825290925281205490036117e3576117e3826001600960006117ae60408a0160208b01614f2a565b6001600160a01b03166001600160a01b031681526020019081526020016000206000886040016020810190610d1591906151fa565b600a60006117f76040870160208801614f2a565b6001600160a01b03166001600160a01b03168152602001908152602001600020600085604001602081019061182c91906151fa565b600181111561183d5761183d6150e3565b600181111561184e5761184e6150e3565b815260208082019290925260409081016000908120600286900b82528352908120805460018101825590825291902001859055505b82600b60006118986040840160208501614f2a565b6001600160a01b031681526020808201929092526040908101600090812088825290925290206118c882826152ba565b90505060006118da8360800151613c8e565b6118e78560800135613c8e565b6118f19190615374565b905060ff81901c600003808201188115611a625760008213156119bb576119436001600160a01b037f000000000000000000000000000000000000000000000000000000000000000016333084613a54565b80600f60006119586040890160208a01614f2a565b6001600160a01b0316815260208082019290925260400160009081209161198190890189614f2a565b6001600160a01b03166001600160a01b0316815260200190815260200160002060008282546119b09190615353565b90915550611a629050565b80600f60006119d06040890160208a01614f2a565b6001600160a01b031681526020808201929092526040016000908120916119f990890189614f2a565b6001600160a01b03166001600160a01b031681526020019081526020016000206000828254611a2891906154f3565b90915550611a6290506001600160a01b037f0000000000000000000000000000000000000000000000000000000000000000163383613975565b857fd580c78c1b8798d641c5441b8f9df66563bd35875927dd0191b4695f8444c94286604051611a929190615366565b60405180910390a2505050505050565b60006202a30067ffffffffffffffff164201905063389a75e1600c5233600052806020600c2055337fdbf36a107da19e49527a7176a1babf963b4b0ff8cde35ee35d6cd8f1f9ac7e1d600080a250565b611afa613624565b600355565b6001600160a01b037f0000000000000000000000000000000000000000000000000000000000000000163003611b505760405162461bcd60e51b8152600401611b4790615506565b60405180910390fd5b7f00000000000000000000000000000000000000000000000000000000000000006001600160a01b0316611b996000805160206158bf833981519152546001600160a01b031690565b6001600160a01b031614611bbf5760405162461bcd60e51b8152600401611b4790615552565b611bc881613ca7565b60408051600080825260208201909252611be491839190613caf565b50565b6001600160a01b0380831660009081526007602090815260408083209385168352928152828220835160a0810185528154815260018201549281019290925260028101549382019390935260038301546060820152600490920154608083015290610faa8482613e1f565b92915050565b600054610100900460ff1615808015611c785750600054600160ff909116105b80611c925750303b158015611c92575060005460ff166001145b611cf55760405162461bcd60e51b815260206004820152602e60248201527f496e697469616c697a61626c653a20636f6e747261637420697320616c72656160448201526d191e481a5b9a5d1a585b1a5e995960921b6064820152608401611b47565b6000805460ff191660011790558015611d18576000805461ff0019166101001790555b611d2187613ed0565b600186905560028590556003849055600483905560058290558015611d80576000805461ff0019169055604051600181527f7f26b83ff96e1f2b6a682f133852f6798a09c465da95921460cefb38474024989060200160405180910390a15b50505050505050565b6001600160a01b037f0000000000000000000000000000000000000000000000000000000000000000163003611dd15760405162461bcd60e51b8152600401611b4790615506565b7f00000000000000000000000000000000000000000000000000000000000000006001600160a01b0316611e1a6000805160206158bf833981519152546001600160a01b031690565b6001600160a01b031614611e405760405162461bcd60e51b8152600401611b4790615552565b611e4982613ca7565b611e5582826001613caf565b5050565b611e61613f0c565b611e6a83613b12565b6000611e768433613f35565b905060ff81901c60000380820118831115611e9a5760ff81901c6000038082011892505b611f24338560008413611eae576000611eb1565b60015b86866000604051602401611eca9695949392919061559e565b60408051601f198184030181529190526020810180516001600160e01b031663bb31c24360e01b1790526001600160a01b037f00000000000000000000000000000000000000000000000000000000000000001690613f7e565b5050505050565b6000306001600160a01b037f00000000000000000000000000000000000000000000000000000000000000001614611fcb5760405162461bcd60e51b815260206004820152603860248201527f555550535570677261646561626c653a206d757374206e6f742062652063616c60448201527f6c6564207468726f7567682064656c656761746563616c6c00000000000000006064820152608401611b47565b506000805160206158bf83398151915290565b63389a75e1600c523360005260006020600c2055337ffa7b8eab7da67f412cc9575ed43464468f9bfbae89d1675917346ca6d8fe3c92600080a2565b612022613f0c565b61202b83613b12565b6001600160a01b0380841660009081526007602090815260408083209386168352928152828220835160a081018552815481526001820154928101929092526002810154938201939093526003830154606082015260049092015460808301526120958583613e1f565b9050806120b557604051633da1f7d160e11b815260040160405180910390fd5b81518313156120c357600080fd5b6040516001600160a01b038087166024830152851660448201523360648201526084810184905261214b9060a40160408051601f198184030181529190526020810180516001600160e01b03166304f6f91360e31b1790526001600160a01b037f00000000000000000000000000000000000000000000000000000000000000001690613f7e565b505050505050565b6000612168610fc56040840160208501614f2a565b336121766020840184614f2a565b6001600160a01b03161461219d576040516342f062b760e01b815260040160405180910390fd5b81436040516020016121b09291906155e7565b60405160208183030381529060405280519060200120905081601260008460200160208101906121e09190614f2a565b6001600160a01b031681526020808201929092526040908101600090812085825290925290206122108282615394565b905050807fe657aa4938f23a1e792a700bd221e3e0dda2760d6572e0c57ac1d90a33a6d9f2836040516122439190615472565b60405180910390a2919050565b612258613f0c565b61226181613b12565b6000806000836001600160a01b031663ed83d79c6040518163ffffffff1660e01b81526004016060604051808303816000875af11580156122a6573d6000803e3d6000fd5b505050506040513d601f19601f820116820180604052508101906122ca91906155f5565b6001600160a01b03871660008181526008602090815260408083208151608081018352815481526001820154818501526002820154818401526003909101546060820152938352600c909152812080549598509396509194509286929190612333908490615623565b909155505060208101516123479085613aa8565b612352906001615623565b6001600160a01b0386166000908152600d60205260408120805490919061237a908490615623565b9091555050805160009061238e9086613aa8565b90506000811315612400576123fb7f000000000000000000000000000000000000000000000000000000000000000060ff83901c600003808401185b6001600160a01b037f0000000000000000000000000000000000000000000000000000000000000000169190613975565b6124a4565b60008112156124a4576001600160a01b037f00000000000000000000000000000000000000000000000000000000000000001663f3fef3a38760ff84901c600003808501186040516001600160e01b031960e085901b1681526001600160a01b0390921660048301526024820152604401600060405180830381600087803b15801561248b57600080fd5b505af115801561249f573d6000803e3d6000fd5b505050505b6040805185815260208101859052908101869052606081018290526001600160a01b038716907f1c02bced5ca0dc6cf5083d0cafb8183dce5091eaa32c83b0065021a491ae5e5390608001611a92565b6124fc613624565b6125066000613fa3565b565b6000806125158585613fe1565b9050612522868683613b4b565b6040516368211ba160e01b8152600481018290526024810184905260009081906001600160a01b038916906368211ba1906044016060604051808303816000875af1158015612575573d6000803e3d6000fd5b505050506040513d601f19601f8201168201806040525081019061259991906155f5565b6001600160a01b038b1660009081526008602081815260408084206001908101546011845282862033875284529482902082516101208101845281548152918101549382019390935260028301549181019190915260038201546060820181905260048301546080830152600583015460a0830152600683015460c0830152600783015460e0830152919092015461010083015294985092955090935091156126705761265b61264c8260600151613c8e565b60e0830151610fa49085615374565b8160800181815161266c9190615623565b9052505b6040518061012001604052808a836000015161268c9190615353565b81526020018583602001516126a19190615353565b81526020018483604001516126b69190615353565b81526020018783606001516126cb9190615353565b81526080928301516020808301919091526001600160a01b038d166000818152600c835260408082205481860152828252600d8452808220546060808701919091528786018990524360a0968701528383526011855281832033808552908652928290208751815587860151600182015587830151600282015590870151600382015596860151600488015593850151600587015560c0850151600687015560e0850151600787015561010085015160089096019590955591518981529293927f9d278c56ba6dc86a12eefe6b43112bd6e06648eb4ec0b950ee2d783d40e2acb4910160405180910390a35050505050949350505050565b6127cb613624565b600255565b6128096040805160c081018252600080825260208201819052909182019081526020016000815260200160008152602001600081525090565b6001600160a01b038381166000908152600b60209081526040808320868452825291829020825160c08101845281548516815260018083015495861693820193909352939092840191600160a01b90910460ff169081111561286d5761286d6150e3565b600181111561287e5761287e6150e3565b815260028201546020820152600382015460408201526004909101546060909101529392505050565b6128af613624565b600455565b6001600160a01b0382166000908152601060209081526040808320338452825291829020825160c081018452815481526001820154928101929092526002810154928201929092526003820154606082018190526004830154608083015260059092015460a08201529082111561293e5760405163827e7b7f60e01b815260040160405180910390fd5b600080600080866001600160a01b03166364b3cd8e86606001516040518263ffffffff1660e01b815260040161297691815260200190565b608060405180830381865afa158015612993573d6000803e3d6000fd5b505050506040513d601f19601f820116820180604052508101906129b79190615480565b935093509350935060006129ce8660400151613c8e565b6129d785613c8e565b6129e19190615374565b6001600160a01b0389166000908152600c6020526040812054608089015192935091612a13908490610fa49085615374565b6060890151604051639d7de6b360e01b8152600481018c905260248101919091529091506001600160a01b038b1690639d7de6b39060440160408051808303816000875af1158015612a69573d6000803e3d6000fd5b505050506040513d601f19601f82011682018060405250810190612a8d91906154b6565b60608a015191985096506000908a03612af8578851612aab90613c8e565b6001600160a01b038c166000908152601060209081526040808320338452909152812081815560018101829055600281018290556003810182905560048101829055600501559050612be1565b6000612b118a606001518c613ff690919063ffffffff16565b8a51909150612b2990612b249083613fe1565b613c8e565b91506040518060c00160405280612b4d838d60000151613fe190919063ffffffff16565b8c51612b5991906154f3565b81526020018a81526020018981526020018c8c60600151612b7a91906154f3565b81526020808201879052436040928301526001600160a01b038f16600090815260108252828120338252825282902083518155908301516001820155908201516002820155606082015160038201556080820151600482015560a090910151600590910155505b6000811215612c0357604051632c7c1d6360e11b815260040160405180910390fd5b612c183360ff83901c600003808401186123ca565b5050505050505050505050565b612c2d613624565b6001600160a01b0380831660009081526007602090815260408083209385168352928152828220835160a08101855281548152600182015492810192909252600281015493820193909352600383015460608201526004909201546080830152612c978483613e1f565b905080612cb757604051633da1f7d160e11b815260040160405180910390fd5b611f2483856000856000015113612ccf576000612cd2565b60015b855160ff81901c6000039081011830604051602401612cf595949392919061564b565b60408051601f198184030181529190526020810180516001600160e01b0316620645ef60e11b1790526001600160a01b037f00000000000000000000000000000000000000000000000000000000000000001690613f7e565b612d56613624565b6000805482158015620100000262ff00001990921691909117909155612da2576040517fed1cd0670ee0c0017f550451a038818c696d0b6a9d6ce5b369e44275573cf9b090600090a150565b6040517ff0c683001104e62ea6db2065e069e1df46185d033db8cf4494df0a516cf537cb90600090a150565b612e006040518060a0016040528060008152602001600081526020016000815260200160008152602001600081525090565b506001600160a01b039182166000908152600760209081526040808320939094168252918252829020825160a0810184528154815260018201549281019290925260028101549282019290925260038201546060820152600490910154608082015290565b6001600160a01b0380831660009081526011602090815260408083209385168352928152828220835161012081018552815481526001820154928101929092526002810154938201939093526003830154606082015260048301546080820152600583015460a0820152600683015460c0820152600783015460e082015260089092015461010083015290612efb90849061400b565b9392505050565b612f0a613624565b6001600160a01b03166000908152600660205260409020805460ff19166001179055565b612f3782613b12565b6001600160a01b0382166000908152600760209081526040808320338452825291829020825160a081018452815481526001820154928101838152600283015494820194909452600382015460608201526004909101546080820152918391612fa19083906154f3565b905250612fae8382613e1f565b15612fcc576040516357809b3160e01b815260040160405180910390fd5b6001600160a01b038084166000908152600760209081526040808320338085529083529281902085518155918501516001830155840151600282015560608401516003820155608084015160049091015561304a917f0000000000000000000000000000000000000000000000000000000000000000169084613975565b60405182815233906001600160a01b038516907fb0fa03f93c852a6feaaeb34ccf4cf865cc223c4cc9d25dce28a9131fde2710719060200160405180910390a3505050565b613097613f0c565b6130a085613b12565b6130b485846130af8186613fe1565b613b4b565b61214b3386868686866040516024016130d29695949392919061568d565b60408051601f198184030181529190526020810180516001600160e01b03166310faff9560e31b1790526001600160a01b037f00000000000000000000000000000000000000000000000000000000000000001690613f7e565b61313582613b12565b61316a6001600160a01b037f000000000000000000000000000000000000000000000000000000000000000016333084613a54565b6001600160a01b0382166000908152600760209081526040808320338452909152812060010180548392906131a0908490615353565b909155505060405181815233906001600160a01b038416907f05c2d01f05f37971d15b22586be2f1933a1ae8c0079a056a430b4391550ffb2d9060200160405180910390a35050565b6131f1613f0c565b6001600160a01b0380821660009081526012602090815260408083208684528252808320815160c0810183528154861680825260018301549096169381019390935260028101549183019190915260038101546060830152600481015460808301526005015460ff16151560a08201529161326d908490613f35565b905061327c8260200151613b12565b6132a5826020015160008313613293576001613296565b60005b84604001518560a001516140dc565b6001600160a01b0383166000908152601260209081526040808320878452909152812080546001600160a01b031990811682556001820180549091169055600281018290556003810182905560048101829055600501805460ff1916905560ff82901c9003808201188260600151111561332b5760ff81901c6000038082011860608301525b61336a826000015183602001516000841361334757600061334a565b60015b8560600151866080015133604051602401611eca9695949392919061559e565b50604051339085907fa052a3a05833c68f905c84a3642ce523a06483f59e02d33a6a4be9c9d5d234ea90600090a350505050565b6133c96040518060800160405280600081526020016000815260200160008152602001600081525090565b506001600160a01b0316600090815260086020908152604091829020825160808101845281548152600182015492810192909252600281015492820192909252600390910154606082015290565b61341f613624565b63389a75e1600c52806000526020600c20805442111561344757636f5e88186000526004601cfd5b60009055611be481613fa3565b6001600160a01b0380831660008181526010602090815260408083209486168352938152838220845160c0810186528154815260018201549281019290925260028101548286015260038101546060830152600480820154608084015260059091015460a08301528451630240bc6b60e21b8152855193959294869485949193630902f1ac93808201939291908290030181865afa1580156134fa573d6000803e3d6000fd5b505050506040513d601f19601f8201168201806040525081019061351e91906154b6565b915091506000866001600160a01b03166335c7e9256040518163ffffffff1660e01b8152600401602060405180830381865afa158015613562573d6000803e3d6000fd5b505050506040513d601f19601f8201168201806040525081019061358691906154da565b606085015190915060009061359c908484613be0565b905060006135ad8660400151613c8e565b6135b683613c8e565b6135c09190615374565b60808701516001600160a01b038b166000908152600c60205260409020549192506135f0918391610fa491615374565b9998505050505050505050565b613605613624565b8060601b61361b57637448fbae6000526004601cfd5b611be481613fa3565b638b78c6d819543314612506576382b429006000526004601cfd5b6000611c5260606136cc846001600160881b03811160071b81811c68ffffffffffffffffff1060061b1781811c64ffffffffff1060051b1781811c62ffffff1060041b1781811c620100000160b5600192831c1b0260121c80830401811c80830401811c80830401811c80830401811c80830401811c80830401811c80830401901c908190048111900390565b901b6001600160a01b03166141a7565b6001600160a01b0384166000908152600a6020526040812081856001811115613707576137076150e3565b6001811115613718576137186150e3565b815260200190815260200160002060008460020b60020b815260200190815260200160002080548060200260200160405190810160405280929190818152602001828054801561378757602002820191906000526020600020905b815481526020019060010190808311613773575b50508351939450600092506137a1915060019050836154f3565b67ffffffffffffffff8111156137b9576137b9614f93565b6040519080825280602002602001820160405280156137e2578160200160208202803683370190505b5090506000805b838110156138585785858281518110613804576138046156d1565b60200260200101511461385057848181518110613823576138236156d1565b602002602001015183838151811061383d5761383d6156d1565b6020026020010181815250508160010191505b6001016137e9565b5080156138d3576001600160a01b0388166000908152600a60205260408120839189600181111561388b5761388b6150e3565b600181111561389c5761389c6150e3565b81526020808201929092526040908101600090812060028b900b825283522082516138cd9391929190910190614d20565b5061396b565b6001600160a01b0388166000908152600a60205260408120908860018111156138fe576138fe6150e3565b600181111561390f5761390f6150e3565b81526020808201929092526040908101600090812060028a900b8252909252812061393991614d67565b6001600160a01b038816600090815260096020526040812061396b9188916001918b83811115610d2657610d266150e3565b5050505050505050565b816014528060345263a9059cbb60601b60005260206000604460106000875af13d1560016000511417166139b1576390b8ec186000526004601cfd5b6000603452505050565b336001600160a01b038516146139e4576040516342f062b760e01b815260040160405180910390fd5b6139ed86613b12565b61214b86846130af8186613fe1565b613a0681836156fd565b60020b15613a1357600080fd5b600080613a28613a23848661571f565b6144e7565b600191820b60009081526020979097526040909620805460ff9097169190911b90951890945550505050565b60405181606052826040528360601b602c526323b872dd60601b600c52602060006064601c6000895af13d156001600051141716613a9a57637939f4246000526004601cfd5b600060605260405250505050565b6000808312818312808214158215613ac657613ac386615759565b95505b8115613ad857613ad585615759565b94505b613aee612b248787670de0b6b3a7640000613be0565b93508015613b0957613aff84615759565b9350505050611c52565b50505092915050565b6001600160a01b03811660009081526006602052604090205460ff16611be4576040516304c1bb0360e11b815260040160405180910390fd5b6000836001600160a01b031663bce2020d6040518163ffffffff1660e01b8152600401602060405180830381865afa158015613b8b573d6000803e3d6000fd5b505050506040513d601f19601f82011682018060405250810190613baf91906154da565b90506000613bbd8484613ff6565b905081811015611f24576040516357809b3160e01b815260040160405180910390fd5b60008383026000198486098181108201900380613c155783613c0a5763ae47f7026000526004601cfd5b508290049050612efb565b808411613c2a5763ae47f7026000526004601cfd5b8385870960008581038616958690049582850381900494909211909203600192829003919091049190910102176002600384028118808502820302808502820302808502820302808502820302808502820302808502909103020290509392505050565b6000600160ff1b8210613ca357613ca3614507565b5090565b611be4613624565b7f4910fdfa16fed3260ed0e7147f7cc6da11a60208b5b9406d12a635614ffd91435460ff1615613ce757613ce283614515565b505050565b826001600160a01b03166352d1902d6040518163ffffffff1660e01b8152600401602060405180830381865afa925050508015613d41575060408051601f3d908101601f19168201909252613d3e918101906154da565b60015b613da45760405162461bcd60e51b815260206004820152602e60248201527f45524331393637557067726164653a206e657720696d706c656d656e7461746960448201526d6f6e206973206e6f74205555505360901b6064820152608401611b47565b6000805160206158bf8339815191528114613e135760405162461bcd60e51b815260206004820152602960248201527f45524331393637557067726164653a20756e737570706f727465642070726f786044820152681a58589b195555525160ba1b6064820152608401611b47565b50613ce28383836145b1565b6000806000613e2e85856145dc565b91509150600080613e408787856146de565b90925090506000613e5b85613e5584866154f3565b90613ff6565b90506000886001600160a01b0316634f3c15426040518163ffffffff1660e01b8152600401602060405180830381865afa158015613e9d573d6000803e3d6000fd5b505050506040513d601f19601f82011682018060405250810190613ec191906154da565b90911098975050505050505050565b6001600160a01b0316638b78c6d8198190558060007f8be0079c531659141344cd1fd0a4f28419497f9722a3daafe3b4186f6b6457e08180a350565b60005462010000900460ff1661250657604051637dc579d960e11b815260040160405180910390fd5b6001600160a01b03808316600090815260076020908152604080832093851683529290529081205490819003611c5257604051631d5fdf4760e11b815260040160405180910390fd5b6060612efb83836040518060600160405280602781526020016158df60279139614776565b638b78c6d81980546001600160a01b039092169182907f8be0079c531659141344cd1fd0a4f28419497f9722a3daafe3b4186f6b6457e0600080a355565b6000612efb8383670de0b6b3a7640000613be0565b6000612efb83670de0b6b3a764000084613be0565b60008160600151600014611c525760a08201516001600160a01b0384166000908152600c6020526040812054909161404291615374565b905061409b8360600151614063838660e00151613aa890919063ffffffff16565b60c08601516001600160a01b0388166000908152600d602052604090205461408b9190615374565b6140959190615374565b906147ee565b60808401516140aa9083613aa8565b6140b49190615623565b915060008212156140d5576140cb6103e883615775565b610faa9083615374565b5092915050565b6000846001600160a01b031663604096326040518163ffffffff1660e01b8152600401602060405180830381865afa15801561411c573d6000803e3d6000fd5b505050506040513d601f19601f8201168201806040525081019061414091906154da565b9050600080856001811115614157576141576150e3565b0361417457826141695783821161416d565b8382105b9050614188565b8261418157838210614185565b8382115b90505b801561214b57604051630661bf5f60e51b815260040160405180910390fd5b60006401000276a36001600160a01b038316108015906141e3575073fffd8963efd1fc6a506488495d951d5263988d266001600160a01b038316105b6142135760405162461bcd60e51b81526020600482015260016024820152602960f91b6044820152606401611b47565b640100000000600160c01b03602083901b166fffffffffffffffffffffffffffffffff811160071b81811c67ffffffffffffffff811160061b90811c63ffffffff811160051b90811c61ffff811160041b90811c60ff8111600390811b91821c600f811160021b90811c918211600190811b92831c979088119617909417909217179091171717608081106142b7576142ad607f826154f3565b83901c91506142c8565b6142c281607f6154f3565b83901b91505b600060406142d7608084615374565b901b9050828302607f1c92508260801c80603f1b8217915083811c935050828302607f1c92508260801c80603e1b8217915083811c935050828302607f1c92508260801c80603d1b8217915083811c935050828302607f1c92508260801c80603c1b8217915083811c935050828302607f1c92508260801c80603b1b8217915083811c935050828302607f1c92508260801c80603a1b8217915083811c935050828302607f1c92508260801c8060391b8217915083811c935050828302607f1c92508260801c8060381b8217915083811c935050828302607f1c92508260801c8060371b8217915083811c935050828302607f1c92508260801c8060361b8217915083811c935050828302607f1c92508260801c8060351b8217915083811c935050828302607f1c92508260801c8060341b8217915083811c935050828302607f1c92508260801c8060331b8217915083811c935050828302607f1c92508260801c8060321b8217915050600081693627a301d71055774c8561445a91906157a3565b90506000608061447a6f028f6481ab7f045a5af012a19d003aaa84615374565b901d90506000608061449c846fdb2df09e81959a81455e260799a0632f615623565b901d90508060020b8260020b146144db57886001600160a01b03166144c082614834565b6001600160a01b031611156144d557816135f0565b806135f0565b50979650505050505050565b600281900b60081d60006144fd610100846156fd565b60020b9050915091565b6335278d126000526004601cfd5b6001600160a01b0381163b6145825760405162461bcd60e51b815260206004820152602d60248201527f455243313936373a206e657720696d706c656d656e746174696f6e206973206e60448201526c1bdd08184818dbdb9d1c9858dd609a1b6064820152608401611b47565b6000805160206158bf83398151915280546001600160a01b0319166001600160a01b0392909216919091179055565b6145ba83614c42565b6000825111806145c75750805b15613ce2576145d68383613f7e565b50505050565b60008060006145f8846000015160ff81901c6000039081011890565b905080156146d65783516000136001600160a01b038616634170cd5e82614620576000614623565b60015b846040518363ffffffff1660e01b81526004016146419291906157d3565b602060405180830381865afa15801561465e573d6000803e3d6000fd5b505050506040513d601f19601f8201168201806040525081019061468291906154da565b935080156146b15761469384613c8e565b6146a08660400151613c8e565b6146aa9190615374565b92506146d4565b6146be8560400151613c8e565b6146c785613c8e565b6146d19190615374565b92505b505b509250929050565b6001600160a01b0383166000908152600c6020526040812054835182919082901561471c57855160608701516147199190610fa49085615374565b90505b600061472b8760200151613c8e565b6147358388615374565b61473f9190615623565b90506000811261475c5760ff81901c60000380820118945061476b565b60ff81901c6000038082011893505b505050935093915050565b6060600080856001600160a01b031685604051614793919061580e565b600060405180830381855af49150503d80600081146147ce576040519150601f19603f3d011682016040523d82523d6000602084013e6147d3565b606091505b50915091506147e486838387614c82565b9695505050505050565b600080831280156148055761480284615759565b93505b61481b612b248585670de0b6b3a7640000613be0565b915080156140d55761482c82615759565b915050611c52565b60008060008360020b1261484b578260020b614858565b8260020b61485890615759565b9050614867620d89e71961582a565b60020b81111561489d5760405162461bcd60e51b81526020600482015260016024820152601560fa1b6044820152606401611b47565b6000816001166000036148b457600160801b6148c6565b6ffffcb933bd6fad37aa2d162d1a5940015b6001600160881b0316905060028216156148fb5760806148f6826ffff97272373d413259a46990580e213a61584c565b901c90505b6004821615614925576080614920826ffff2e50f5f656932ef12357cf3c7fdcc61584c565b901c90505b600882161561494f57608061494a826fffe5caca7e10e4e61c3624eaa0941cd061584c565b901c90505b6010821615614979576080614974826fffcb9843d60f6159c9db58835c92664461584c565b901c90505b60208216156149a357608061499e826fff973b41fa98c081472e6896dfb254c061584c565b901c90505b60408216156149cd5760806149c8826fff2ea16466c96a3843ec78b326b5286161584c565b901c90505b60808216156149f75760806149f2826ffe5dee046a99a2a811c461f1969c305361584c565b901c90505b610100821615614a22576080614a1d826ffcbe86c7900a88aedcffc83b479aa3a461584c565b901c90505b610200821615614a4d576080614a48826ff987a7253ac413176f2b074cf7815e5461584c565b901c90505b610400821615614a78576080614a73826ff3392b0822b70005940c7a398e4b70f361584c565b901c90505b610800821615614aa3576080614a9e826fe7159475a2c29b7443b29c7fa6e889d961584c565b901c90505b611000821615614ace576080614ac9826fd097f3bdfd2022b8845ad8f792aa582561584c565b901c90505b612000821615614af9576080614af4826fa9f746462d870fdf8a65dc1f90e061e561584c565b901c90505b614000821615614b24576080614b1f826f70d869a156d2a1b890bb3df62baf32f761584c565b901c90505b618000821615614b4f576080614b4a826f31be135f97d08fd981231505542fcfa661584c565b901c90505b62010000821615614b7b576080614b76826f09aa508b5b7a84e1c677de54f3e99bc961584c565b901c90505b62020000821615614ba6576080614ba1826e5d6af8dedb81196699c329225ee60461584c565b901c90505b62040000821615614bd0576080614bcb826d2216e584f5fa1ea926041bedfe9861584c565b901c90505b62080000821615614bf8576080614bf3826b048a170391f7dc42444e8fa261584c565b901c90505b60008460020b1315614c1357614c1081600019615863565b90505b614c2264010000000082615877565b15614c2e576001614c31565b60005b610faa9060ff16602083901c615353565b614c4b81614515565b6040516001600160a01b038216907fbc7cd75a20ee27fd9adebab32041f755214dbc6bffa90cc0225b39da2e5c2d3b90600090a250565b60608315614cf1578251600003614cea576001600160a01b0385163b614cea5760405162461bcd60e51b815260206004820152601d60248201527f416464726573733a2063616c6c20746f206e6f6e2d636f6e74726163740000006044820152606401611b47565b5081610faa565b610faa8383815115614d065781518083602001fd5b8060405162461bcd60e51b8152600401611b47919061588b565b828054828255906000526020600020908101928215614d5b579160200282015b82811115614d5b578251825591602001919060010190614d40565b50613ca3929150614d81565b5080546000825590600052602060002090810190611be491905b5b80821115613ca35760008155600101614d82565b600060208284031215614da857600080fd5b5035919050565b6001600160a01b0381168114611be457600080fd5b60008060408385031215614dd757600080fd5b8235614de281614daf565b946020939093013593505050565b600060c08284031215614e0257600080fd5b50919050565b600060c08284031215614e1a57600080fd5b612efb8383614df0565b60008060408385031215614e3757600080fd5b8235614e4281614daf565b91506020830135614e5281614daf565b809150509250929050565b60008060006101008486031215614e7357600080fd5b833592506020840135614e8581614daf565b9150614e948560408601614df0565b90509250925092565b60008060408385031215614eb057600080fd5b823591506020830135614e5281614daf565b60008060008060808587031215614ed857600080fd5b8435614ee381614daf565b966020860135965060408601359560600135945092505050565b60008060e08385031215614f1057600080fd5b82359150614f218460208501614df0565b90509250929050565b600060208284031215614f3c57600080fd5b8135612efb81614daf565b60008060008060008060c08789031215614f6057600080fd5b8635614f6b81614daf565b9860208801359850604088013597606081013597506080810135965060a00135945092505050565b634e487b7160e01b600052604160045260246000fd5b60008060408385031215614fbc57600080fd5b8235614fc781614daf565b9150602083013567ffffffffffffffff80821115614fe457600080fd5b818501915085601f830112614ff857600080fd5b81358181111561500a5761500a614f93565b604051601f8201601f19908116603f0116810190838211818310171561503257615032614f93565b8160405282815288602084870101111561504b57600080fd5b8260208601602083013760006020848301015280955050505050509250929050565b60008060006060848603121561508257600080fd5b833561508d81614daf565b95602085013595506040909401359392505050565b6000806000606084860312156150b757600080fd5b83356150c281614daf565b925060208401356150d281614daf565b929592945050506040919091013590565b634e487b7160e01b600052602160045260246000fd5b60028110611be457634e487b7160e01b600052602160045260246000fd5b81516001600160a01b03908116825260208084015190911690820152604082015160c0820190615146816150f9565b80604084015250606083015160608301526080830151608083015260a083015160a083015292915050565b8015158114611be457600080fd5b60006020828403121561519157600080fd5b8135612efb81615171565b60028110611be457600080fd5b600080600080600060a086880312156151c157600080fd5b85356151cc81614daf565b945060208601356151dc8161519c565b94979496505050506040830135926060810135926080909101359150565b60006020828403121561520c57600080fd5b8135612efb8161519c565b803561522281614daf565b6001600160a01b03908116835260208201359061523e82614daf565b16602083015260408101356152528161519c565b61525b816150f9565b6040830152606081810135908301526080808201359083015260a090810135910152565b60e0810161528d8285615217565b8260c08301529392505050565b80546001600160a01b0319166001600160a01b0392909216919091179055565b81356152c581614daf565b6152cf818361529a565b506001810160208301356152e281614daf565b6152ec818361529a565b5060408301356152fb8161519c565b615304816150f9565b815460ff60a01b191660a091821b60ff60a01b161790915560608301356002830155608083013560038301559190910135600490910155565b634e487b7160e01b600052601160045260246000fd5b80820180821115611c5257611c5261533d565b60c08101611c528284615217565b81810360008312801583831316838312821617156140d5576140d561533d565b813561539f81614daf565b6153a9818361529a565b5060208201356153b881614daf565b6153c5816001840161529a565b506040820135600282015560608201356003820155608082013560048201556005810160a08301356153f681615171565b815490151560ff1660ff19919091161790555050565b803561541781614daf565b6001600160a01b03908116835260208201359061543382614daf565b16602083015260408181013590830152606080820135908301526080808201359083015260a081013561546581615171565b80151560a0840152505050565b60c08101611c52828461540c565b6000806000806080858703121561549657600080fd5b505082516020840151604085015160609095015191969095509092509050565b600080604083850312156154c957600080fd5b505080516020909101519092909150565b6000602082840312156154ec57600080fd5b5051919050565b81810381811115611c5257611c5261533d565b6020808252602c908201527f46756e6374696f6e206d7573742062652063616c6c6564207468726f7567682060408201526b19195b1959d85d1958d85b1b60a21b606082015260800190565b6020808252602c908201527f46756e6374696f6e206d7573742062652063616c6c6564207468726f7567682060408201526b6163746976652070726f787960a01b606082015260800190565b6001600160a01b038781168252868116602083015260c08201906155c1876150f9565b86604084015285606084015284608084015280841660a084015250979650505050505050565b60e0810161528d828561540c565b60008060006060848603121561560a57600080fd5b8351925060208401519150604084015190509250925092565b80820182811260008312801582168215821617156156435761564361533d565b505092915050565b6001600160a01b038681168252858116602083015260a082019061566e866150f9565b8560408401528460608401528084166080840152509695505050505050565b6001600160a01b0387811682528616602082015260c081016156ae866150f9565b8560408301528460608301528360808301528260a0830152979650505050505050565b634e487b7160e01b600052603260045260246000fd5b634e487b7160e01b600052601260045260246000fd5b60008260020b80615710576157106156e7565b808360020b0791505092915050565b60008160020b8360020b80615736576157366156e7565b627fffff198214600019821416156157505761575061533d565b90059392505050565b6000600160ff1b820161576e5761576e61533d565b5060000390565b600082615784576157846156e7565b600160ff1b82146000198414161561579e5761579e61533d565b500590565b80820260008212600160ff1b841416156157bf576157bf61533d565b8181058314821517611c5257611c5261533d565b604081016157e0846150f9565b9281526020015290565b60005b838110156158055781810151838201526020016157ed565b50506000910152565b600082516158208184602087016157ea565b9190910192915050565b60008160020b627fffff1981036158435761584361533d565b60000392915050565b8082028115828204841417611c5257611c5261533d565b600082615872576158726156e7565b500490565b600082615886576158866156e7565b500690565b60208152600082518060208401526158aa8160408501602087016157ea565b601f01601f1916919091016040019291505056fe360894a13ba1a3210667c828492db98dca3e2076cc3735a920a3ca505d382bbc416464726573733a206c6f772d6c6576656c2064656c65676174652063616c6c206661696c6564a2646970667358221220e56c451e13eb8d405ed2f8c927724fd46e53d178292f6478ae8046b0066af9ce64736f6c63430008150033",
        "linkReferences": {}
    },
    "methodIdentifiers": {
        "activateAMM(address)": "b7901a43",
        "addLiquidity(address,uint256,uint256,uint256)": "1ece366a",
        "addLiquidityH(address,uint256,uint256,uint256)": "7658a14f",
        "addMargin(address,uint256)": "cf70cb69",
        "cancelOwnershipHandover()": "54d1f13d",
        "closePosition(address,uint256,uint256)": "4fa9c4db",
        "closePositionKeeper(bytes32,address)": "e1c0f217",
        "completeOwnershipHandover(address)": "f04e283e",
        "createLimitOrder((address,address,uint8,uint256,uint256,uint256))": "02d07c24",
        "createTriggerOrder((address,address,uint256,uint256,uint256,bool))": "68d85297",
        "deleteLimitOrder(address,bytes32)": "02000f1b",
        "forceLiquidate(address,address)": "aa317dc0",
        "getAmmActive(address)": "7ee194fc",
        "getCumulativePremiumFraction(address)": "6ea41e40",
        "getImpermanentMakerSizeAndNotional(address,address)": "216a7f9b",
        "getLimitOrder(address,bytes32)": "86f28fc5",
        "getMakerFundingPayment(address,address)": "f22693d1",
        "getMakerFundingPaymentH(address,address)": "b3bac474",
        "getOpenInterestNotional(address)": "429e9237",
        "getPosition(address,address)": "b33dc190",
        "getTakerFundingPayment(address,address)": "16ca18fe",
        "getTotalPositionSize(address)": "e980e16e",
        "initialize(address,uint256,uint256,uint256,uint256,uint256)": "45ff4c80",
        "insuranceFund()": "b7902303",
        "isActive()": "22f3e2d4",
        "isLiquidatable(address,address)": "3966a28b",
        "liquidate(address,address,int256)": "65d461bd",
        "openPosition(address,uint8,uint256,uint256,uint256)": "cbb50e61",
        "owner()": "8da5cb5b",
        "ownershipHandoverExpiresAt(address)": "fee81cf4",
        "ownershipHandoverValidFor()": "d7533f02",
        "positionManager()": "791b98bc",
        "proxiableUUID()": "52d1902d",
        "removeLiquidity(address,uint256)": "a201ccf6",
        "removeMargin(address,uint256)": "b959d695",
        "removeTriggerOrder(bytes32,address)": "1dbd10fb",
        "renounceOwnership()": "715018a6",
        "requestOwnershipHandover()": "25692962",
        "setActive(bool)": "acec338a",
        "setAmmFeeRatio(uint256)": "01e5d726",
        "setKeeperFeeRatio(uint256)": "32a9569a",
        "setLimitFeeRatio(uint256)": "84ee8543",
        "setLiquidatorFeeRatio(uint256)": "8a4f4a6f",
        "settleFunding(address)": "6b17ad03",
        "transferOwnership(address)": "f2fde38b",
        "updateLimitOrder(bytes32,(address,address,uint8,uint256,uint256,uint256))": "24870100",
        "updateTriggerOrder(bytes32,address,(address,address,uint256,uint256,uint256,bool))": "18aec626",
        "upgradeTo(address)": "3659cfe6",
        "upgradeToAndCall(address,bytes)": "4f1ef286",
        "weth()": "3fc8cef3"
    },
    "id": 37
}