{
  "abi": [
    {
      "inputs": [
        {
          "internalType": "address",
          "name": "_weth",
          "type": "address"
        },
        {
          "internalType": "address",
          "name": "_insuranceFund",
          "type": "address"
        },
        {
          "internalType": "address",
          "name": "_positionManager",
          "type": "address"
        },
        {
          "internalType": "address",
          "name": "_positionMerger",
          "type": "address"
        },
        {
          "internalType": "address",
          "name": "_deleverager",
          "type": "address"
        },
        {
          "internalType": "address",
          "name": "_orderCreator",
          "type": "address"
        }
      ],
      "stateMutability": "nonpayable",
      "type": "constructor"
    },
    {
      "inputs": [],
      "name": "AMM_IS_ACTIVE",
      "type": "error"
    },
    {
      "inputs": [],
      "name": "BAD_DEBT",
      "type": "error"
    },
    {
      "inputs": [],
      "name": "INACTIVE",
      "type": "error"
    },
    {
      "inputs": [],
      "name": "INSUFFICIENT_LIQUIDITY",
      "type": "error"
    },
    {
      "inputs": [],
      "name": "INSUFFICIENT_MARGIN",
      "type": "error"
    },
    {
      "inputs": [],
      "name": "INSUFFICIENT_OPEN_NOTIONAL",
      "type": "error"
    },
    {
      "inputs": [],
      "name": "INSUFFICIENT_SIZE",
      "type": "error"
    },
    {
      "inputs": [],
      "name": "INVALID_AMM",
      "type": "error"
    },
    {
      "inputs": [],
      "name": "INVALID_SIDE",
      "type": "error"
    },
    {
      "inputs": [],
      "name": "INVALID_TRIGGER_AMOUNT",
      "type": "error"
    },
    {
      "inputs": [],
      "name": "LIQUIDATABLE",
      "type": "error"
    },
    {
      "inputs": [],
      "name": "NOT_LIMIT_CLOSE",
      "type": "error"
    },
    {
      "inputs": [],
      "name": "NOT_LIQUIDATABLE",
      "type": "error"
    },
    {
      "inputs": [],
      "name": "NOT_REDUCE_ONLY",
      "type": "error"
    },
    {
      "inputs": [],
      "name": "NOT_TRADER",
      "type": "error"
    },
    {
      "inputs": [],
      "name": "NO_POSITION",
      "type": "error"
    },
    {
      "inputs": [],
      "name": "NewOwnerIsZeroAddress",
      "type": "error"
    },
    {
      "inputs": [],
      "name": "NoHandoverRequest",
      "type": "error"
    },
    {
      "inputs": [],
      "name": "OPEN_INTEREST_CAP_EXCEEDED",
      "type": "error"
    },
    {
      "inputs": [],
      "name": "OVER_DIVERGENCE_CAP",
      "type": "error"
    },
    {
      "inputs": [],
      "name": "OVER_MAX_LEVERAGE",
      "type": "error"
    },
    {
      "inputs": [],
      "name": "OVER_MAX_SIZE",
      "type": "error"
    },
    {
      "inputs": [],
      "name": "POSITION_ON_WRONG_SIDE",
      "type": "error"
    },
    {
      "inputs": [],
      "name": "SANDWICH",
      "type": "error"
    },
    {
      "inputs": [],
      "name": "TRIGGER_INVALID",
      "type": "error"
    },
    {
      "inputs": [],
      "name": "TRIGGER_ON_MARK",
      "type": "error"
    },
    {
      "inputs": [],
      "name": "Unauthorized",
      "type": "error"
    },
    {
      "anonymous": false,
      "inputs": [],
      "name": "Activated",
      "type": "event"
    },
    {
      "anonymous": false,
      "inputs": [],
      "name": "Deactivated",
      "type": "event"
    },
    {
      "anonymous": false,
      "inputs": [
        {
          "indexed": true,
          "internalType": "contract IAMM",
          "name": "amm",
          "type": "address"
        },
        {
          "indexed": false,
          "internalType": "uint256",
          "name": "markPrice",
          "type": "uint256"
        },
        {
          "indexed": false,
          "internalType": "uint256",
          "name": "indexPrice",
          "type": "uint256"
        },
        {
          "indexed": false,
          "internalType": "int256",
          "name": "premiumFraction",
          "type": "int256"
        }
      ],
      "name": "FundingSettled",
      "type": "event"
    },
    {
      "anonymous": false,
      "inputs": [
        {
          "indexed": false,
          "internalType": "uint8",
          "name": "version",
          "type": "uint8"
        }
      ],
      "name": "Initialized",
      "type": "event"
    },
    {
      "anonymous": false,
      "inputs": [
        {
          "indexed": true,
          "internalType": "uint256",
          "name": "id",
          "type": "uint256"
        },
        {
          "indexed": true,
          "internalType": "contract IAMM",
          "name": "amm",
          "type": "address"
        },
        {
          "indexed": true,
          "internalType": "address",
          "name": "trader",
          "type": "address"
        },
        {
          "indexed": false,
          "internalType": "enum LimitOrderResult",
          "name": "result",
          "type": "uint8"
        }
      ],
      "name": "LimitOrderRemoved",
      "type": "event"
    },
    {
      "anonymous": false,
      "inputs": [
        {
          "indexed": true,
          "internalType": "uint256",
          "name": "id",
          "type": "uint256"
        },
        {
          "indexed": true,
          "internalType": "contract IAMM",
          "name": "amm",
          "type": "address"
        },
        {
          "indexed": true,
          "internalType": "address",
          "name": "trader",
          "type": "address"
        },
        {
          "components": [
            {
              "internalType": "address",
              "name": "trader",
              "type": "address"
            },
            {
              "internalType": "contract IAMM",
              "name": "amm",
              "type": "address"
            },
            {
              "internalType": "enum Side",
              "name": "side",
              "type": "uint8"
            },
            {
              "internalType": "uint256",
              "name": "trigger",
              "type": "uint256"
            },
            {
              "internalType": "uint256",
              "name": "quoteAmount",
              "type": "uint256"
            },
            {
              "internalType": "uint256",
              "name": "leverage",
              "type": "uint256"
            },
            {
              "internalType": "bool",
              "name": "reduceOnly",
              "type": "bool"
            }
          ],
          "indexed": false,
          "internalType": "struct LimitOrder",
          "name": "order",
          "type": "tuple"
        }
      ],
      "name": "LimitOrderUpdated",
      "type": "event"
    },
    {
      "anonymous": false,
      "inputs": [
        {
          "indexed": true,
          "internalType": "contract IAMM",
          "name": "amm",
          "type": "address"
        },
        {
          "indexed": true,
          "internalType": "address",
          "name": "maker",
          "type": "address"
        },
        {
          "indexed": false,
          "internalType": "uint256",
          "name": "liquidity",
          "type": "uint256"
        },
        {
          "indexed": false,
          "internalType": "int256",
          "name": "fundingPayment",
          "type": "int256"
        }
      ],
      "name": "LiquidityAdded",
      "type": "event"
    },
    {
      "anonymous": false,
      "inputs": [
        {
          "indexed": true,
          "internalType": "contract IAMM",
          "name": "amm",
          "type": "address"
        },
        {
          "indexed": true,
          "internalType": "address",
          "name": "trader",
          "type": "address"
        },
        {
          "indexed": false,
          "internalType": "uint256",
          "name": "liquidity",
          "type": "uint256"
        },
        {
          "indexed": false,
          "internalType": "int256",
          "name": "sizeRemoved",
          "type": "int256"
        },
        {
          "indexed": false,
          "internalType": "uint256",
          "name": "marginRemoved",
          "type": "uint256"
        },
        {
          "indexed": false,
          "internalType": "uint256",
          "name": "feeRealized",
          "type": "uint256"
        }
      ],
      "name": "LiquidityRemoved",
      "type": "event"
    },
    {
      "anonymous": false,
      "inputs": [
        {
          "indexed": true,
          "internalType": "contract IAMM",
          "name": "amm",
          "type": "address"
        },
        {
          "indexed": true,
          "internalType": "address",
          "name": "trader",
          "type": "address"
        },
        {
          "indexed": false,
          "internalType": "uint256",
          "name": "amount",
          "type": "uint256"
        }
      ],
      "name": "MarginAdded",
      "type": "event"
    },
    {
      "anonymous": false,
      "inputs": [
        {
          "indexed": true,
          "internalType": "contract IAMM",
          "name": "amm",
          "type": "address"
        },
        {
          "indexed": true,
          "internalType": "address",
          "name": "trader",
          "type": "address"
        },
        {
          "indexed": false,
          "internalType": "uint256",
          "name": "amount",
          "type": "uint256"
        }
      ],
      "name": "MarginRemoved",
      "type": "event"
    },
    {
      "anonymous": false,
      "inputs": [
        {
          "indexed": true,
          "internalType": "contract IAMM",
          "name": "amm",
          "type": "address"
        },
        {
          "indexed": false,
          "internalType": "uint256",
          "name": "newOpenInterest",
          "type": "uint256"
        }
      ],
      "name": "OpenInterestChanged",
      "type": "event"
    },
    {
      "anonymous": false,
      "inputs": [
        {
          "indexed": true,
          "internalType": "address",
          "name": "pendingOwner",
          "type": "address"
        }
      ],
      "name": "OwnershipHandoverCanceled",
      "type": "event"
    },
    {
      "anonymous": false,
      "inputs": [
        {
          "indexed": true,
          "internalType": "address",
          "name": "pendingOwner",
          "type": "address"
        }
      ],
      "name": "OwnershipHandoverRequested",
      "type": "event"
    },
    {
      "anonymous": false,
      "inputs": [
        {
          "indexed": true,
          "internalType": "address",
          "name": "oldOwner",
          "type": "address"
        },
        {
          "indexed": true,
          "internalType": "address",
          "name": "newOwner",
          "type": "address"
        }
      ],
      "name": "OwnershipTransferred",
      "type": "event"
    },
    {
      "anonymous": false,
      "inputs": [
        {
          "indexed": true,
          "internalType": "contract IAMM",
          "name": "amm",
          "type": "address"
        },
        {
          "indexed": true,
          "internalType": "address",
          "name": "trader",
          "type": "address"
        },
        {
          "indexed": false,
          "internalType": "uint256",
          "name": "margin",
          "type": "uint256"
        },
        {
          "indexed": false,
          "internalType": "int256",
          "name": "size",
          "type": "int256"
        },
        {
          "indexed": false,
          "internalType": "uint256",
          "name": "exchangedQuote",
          "type": "uint256"
        },
        {
          "indexed": false,
          "internalType": "int256",
          "name": "exchangedBase",
          "type": "int256"
        },
        {
          "indexed": false,
          "internalType": "int256",
          "name": "realizedPnL",
          "type": "int256"
        },
        {
          "indexed": false,
          "internalType": "int256",
          "name": "fundingPayment",
          "type": "int256"
        },
        {
          "indexed": false,
          "internalType": "uint256",
          "name": "markPrice",
          "type": "uint256"
        },
        {
          "indexed": false,
          "internalType": "uint256",
          "name": "ifFee",
          "type": "uint256"
        },
        {
          "indexed": false,
          "internalType": "uint256",
          "name": "ammFee",
          "type": "uint256"
        },
        {
          "indexed": false,
          "internalType": "uint256",
          "name": "limitFee",
          "type": "uint256"
        },
        {
          "indexed": false,
          "internalType": "uint256",
          "name": "liquidatorFee",
          "type": "uint256"
        },
        {
          "indexed": false,
          "internalType": "uint256",
          "name": "keeperFee",
          "type": "uint256"
        },
        {
          "indexed": false,
          "internalType": "enum TradeType",
          "name": "tradeType",
          "type": "uint8"
        }
      ],
      "name": "PositionChanged",
      "type": "event"
    },
    {
      "anonymous": false,
      "inputs": [
        {
          "indexed": true,
          "internalType": "uint256",
          "name": "id",
          "type": "uint256"
        },
        {
          "indexed": true,
          "internalType": "contract IAMM",
          "name": "amm",
          "type": "address"
        },
        {
          "indexed": true,
          "internalType": "address",
          "name": "trader",
          "type": "address"
        },
        {
          "indexed": false,
          "internalType": "address",
          "name": "keeper",
          "type": "address"
        }
      ],
      "name": "TriggerOrderRemoved",
      "type": "event"
    },
    {
      "anonymous": false,
      "inputs": [
        {
          "indexed": true,
          "internalType": "uint256",
          "name": "id",
          "type": "uint256"
        },
        {
          "indexed": true,
          "internalType": "contract IAMM",
          "name": "amm",
          "type": "address"
        },
        {
          "indexed": true,
          "internalType": "address",
          "name": "trader",
          "type": "address"
        },
        {
          "components": [
            {
              "internalType": "address",
              "name": "trader",
              "type": "address"
            },
            {
              "internalType": "contract IAMM",
              "name": "amm",
              "type": "address"
            },
            {
              "internalType": "uint256",
              "name": "trigger",
              "type": "uint256"
            },
            {
              "internalType": "uint256",
              "name": "size",
              "type": "uint256"
            },
            {
              "internalType": "uint256",
              "name": "quoteLimit",
              "type": "uint256"
            },
            {
              "internalType": "bool",
              "name": "takeProfit",
              "type": "bool"
            }
          ],
          "indexed": false,
          "internalType": "struct TriggerOrder",
          "name": "order",
          "type": "tuple"
        }
      ],
      "name": "TriggerOrderUpdated",
      "type": "event"
    },
    {
      "inputs": [
        {
          "internalType": "contract IAMM",
          "name": "amm",
          "type": "address"
        },
        {
          "internalType": "uint256",
          "name": "margin",
          "type": "uint256"
        },
        {
          "internalType": "uint256",
          "name": "leverage",
          "type": "uint256"
        },
        {
          "internalType": "uint256",
          "name": "minShares",
          "type": "uint256"
        }
      ],
      "name": "addLiquidity",
      "outputs": [
        {
          "internalType": "uint256",
          "name": "shares",
          "type": "uint256"
        }
      ],
      "stateMutability": "nonpayable",
      "type": "function"
    },
    {
      "inputs": [
        {
          "internalType": "contract IAMM",
          "name": "amm",
          "type": "address"
        },
        {
          "internalType": "uint256",
          "name": "margin",
          "type": "uint256"
        }
      ],
      "name": "addMargin",
      "outputs": [],
      "stateMutability": "nonpayable",
      "type": "function"
    },
    {
      "inputs": [],
      "name": "cancelOwnershipHandover",
      "outputs": [],
      "stateMutability": "payable",
      "type": "function"
    },
    {
      "inputs": [
        {
          "internalType": "contract IAMM",
          "name": "amm",
          "type": "address"
        },
        {
          "internalType": "uint256",
          "name": "size",
          "type": "uint256"
        },
        {
          "internalType": "uint256",
          "name": "quoteLimit",
          "type": "uint256"
        }
      ],
      "name": "closePosition",
      "outputs": [
        {
          "internalType": "uint256",
          "name": "quoteAmount",
          "type": "uint256"
        }
      ],
      "stateMutability": "nonpayable",
      "type": "function"
    },
    {
      "inputs": [
        {
          "internalType": "uint256",
          "name": "id",
          "type": "uint256"
        }
      ],
      "name": "closePositionKeeper",
      "outputs": [
        {
          "internalType": "uint256",
          "name": "quoteAmount",
          "type": "uint256"
        }
      ],
      "stateMutability": "nonpayable",
      "type": "function"
    },
    {
      "inputs": [
        {
          "internalType": "address",
          "name": "pendingOwner",
          "type": "address"
        }
      ],
      "name": "completeOwnershipHandover",
      "outputs": [],
      "stateMutability": "payable",
      "type": "function"
    },
    {
      "inputs": [
        {
          "components": [
            {
              "internalType": "address",
              "name": "trader",
              "type": "address"
            },
            {
              "internalType": "contract IAMM",
              "name": "amm",
              "type": "address"
            },
            {
              "internalType": "enum Side",
              "name": "side",
              "type": "uint8"
            },
            {
              "internalType": "uint256",
              "name": "trigger",
              "type": "uint256"
            },
            {
              "internalType": "uint256",
              "name": "quoteAmount",
              "type": "uint256"
            },
            {
              "internalType": "uint256",
              "name": "leverage",
              "type": "uint256"
            },
            {
              "internalType": "bool",
              "name": "reduceOnly",
              "type": "bool"
            }
          ],
          "internalType": "struct LimitOrder",
          "name": "order",
          "type": "tuple"
        }
      ],
      "name": "createLimitOrder",
      "outputs": [
        {
          "internalType": "uint256",
          "name": "id",
          "type": "uint256"
        }
      ],
      "stateMutability": "nonpayable",
      "type": "function"
    },
    {
      "inputs": [
        {
          "components": [
            {
              "internalType": "address",
              "name": "trader",
              "type": "address"
            },
            {
              "internalType": "contract IAMM",
              "name": "amm",
              "type": "address"
            },
            {
              "internalType": "enum Side",
              "name": "side",
              "type": "uint8"
            },
            {
              "internalType": "uint256",
              "name": "trigger",
              "type": "uint256"
            },
            {
              "internalType": "uint256",
              "name": "quoteAmount",
              "type": "uint256"
            },
            {
              "internalType": "uint256",
              "name": "leverage",
              "type": "uint256"
            },
            {
              "internalType": "bool",
              "name": "reduceOnly",
              "type": "bool"
            }
          ],
          "internalType": "struct LimitOrder[]",
          "name": "_orders",
          "type": "tuple[]"
        }
      ],
      "name": "createLimitOrderBatch",
      "outputs": [
        {
          "internalType": "uint256[]",
          "name": "ids",
          "type": "uint256[]"
        }
      ],
      "stateMutability": "nonpayable",
      "type": "function"
    },
    {
      "inputs": [
        {
          "components": [
            {
              "internalType": "address",
              "name": "trader",
              "type": "address"
            },
            {
              "internalType": "contract IAMM",
              "name": "amm",
              "type": "address"
            },
            {
              "internalType": "uint256",
              "name": "trigger",
              "type": "uint256"
            },
            {
              "internalType": "uint256",
              "name": "size",
              "type": "uint256"
            },
            {
              "internalType": "uint256",
              "name": "quoteLimit",
              "type": "uint256"
            },
            {
              "internalType": "bool",
              "name": "takeProfit",
              "type": "bool"
            }
          ],
          "internalType": "struct TriggerOrder",
          "name": "order",
          "type": "tuple"
        }
      ],
      "name": "createTriggerOrder",
      "outputs": [
        {
          "internalType": "uint256",
          "name": "id",
          "type": "uint256"
        }
      ],
      "stateMutability": "nonpayable",
      "type": "function"
    },
    {
      "inputs": [
        {
          "internalType": "uint256",
          "name": "id",
          "type": "uint256"
        }
      ],
      "name": "deleteLimitOrder",
      "outputs": [],
      "stateMutability": "nonpayable",
      "type": "function"
    },
    {
      "inputs": [
        {
          "internalType": "uint256[]",
          "name": "ids",
          "type": "uint256[]"
        }
      ],
      "name": "deleteLimitOrderBatch",
      "outputs": [],
      "stateMutability": "nonpayable",
      "type": "function"
    },
    {
      "inputs": [
        {
          "internalType": "uint256",
          "name": "id",
          "type": "uint256"
        }
      ],
      "name": "deleteTriggerOrder",
      "outputs": [],
      "stateMutability": "nonpayable",
      "type": "function"
    },
    {
      "inputs": [
        {
          "internalType": "contract IAMM",
          "name": "amm",
          "type": "address"
        },
        {
          "internalType": "address",
          "name": "taker",
          "type": "address"
        },
        {
          "internalType": "address",
          "name": "maker",
          "type": "address"
        },
        {
          "internalType": "uint256",
          "name": "size",
          "type": "uint256"
        }
      ],
      "name": "deleverage",
      "outputs": [],
      "stateMutability": "nonpayable",
      "type": "function"
    },
    {
      "inputs": [
        {
          "internalType": "contract IAMM",
          "name": "amm",
          "type": "address"
        }
      ],
      "name": "getCumulativePremiumFraction",
      "outputs": [
        {
          "internalType": "int256",
          "name": "",
          "type": "int256"
        }
      ],
      "stateMutability": "view",
      "type": "function"
    },
    {
      "inputs": [],
      "name": "getDivergenceCap",
      "outputs": [
        {
          "internalType": "uint256",
          "name": "",
          "type": "uint256"
        }
      ],
      "stateMutability": "view",
      "type": "function"
    },
    {
      "inputs": [
        {
          "internalType": "uint256",
          "name": "id",
          "type": "uint256"
        }
      ],
      "name": "getLimitOrder",
      "outputs": [
        {
          "components": [
            {
              "internalType": "address",
              "name": "trader",
              "type": "address"
            },
            {
              "internalType": "contract IAMM",
              "name": "amm",
              "type": "address"
            },
            {
              "internalType": "enum Side",
              "name": "side",
              "type": "uint8"
            },
            {
              "internalType": "uint256",
              "name": "trigger",
              "type": "uint256"
            },
            {
              "internalType": "uint256",
              "name": "quoteAmount",
              "type": "uint256"
            },
            {
              "internalType": "uint256",
              "name": "leverage",
              "type": "uint256"
            },
            {
              "internalType": "bool",
              "name": "reduceOnly",
              "type": "bool"
            }
          ],
          "internalType": "struct LimitOrder",
          "name": "",
          "type": "tuple"
        }
      ],
      "stateMutability": "view",
      "type": "function"
    },
    {
      "inputs": [],
      "name": "getMinOrderbookMargin",
      "outputs": [
        {
          "internalType": "uint256",
          "name": "",
          "type": "uint256"
        }
      ],
      "stateMutability": "view",
      "type": "function"
    },
    {
      "inputs": [
        {
          "internalType": "contract IAMM",
          "name": "amm",
          "type": "address"
        }
      ],
      "name": "getOpenInterestNotional",
      "outputs": [
        {
          "internalType": "uint256",
          "name": "",
          "type": "uint256"
        }
      ],
      "stateMutability": "view",
      "type": "function"
    },
    {
      "inputs": [
        {
          "internalType": "contract IAMM",
          "name": "amm",
          "type": "address"
        },
        {
          "internalType": "address",
          "name": "trader",
          "type": "address"
        }
      ],
      "name": "getPosition",
      "outputs": [
        {
          "components": [
            {
              "internalType": "int256",
              "name": "size",
              "type": "int256"
            },
            {
              "internalType": "uint256",
              "name": "margin",
              "type": "uint256"
            },
            {
              "internalType": "uint256",
              "name": "openNotional",
              "type": "uint256"
            },
            {
              "internalType": "int256",
              "name": "lastPremiumFraction",
              "type": "int256"
            },
            {
              "internalType": "uint256",
              "name": "blockNumber",
              "type": "uint256"
            }
          ],
          "internalType": "struct Position",
          "name": "",
          "type": "tuple"
        }
      ],
      "stateMutability": "view",
      "type": "function"
    },
    {
      "inputs": [
        {
          "internalType": "contract IAMM",
          "name": "amm",
          "type": "address"
        },
        {
          "internalType": "address",
          "name": "trader",
          "type": "address"
        }
      ],
      "name": "getPositionNotionalUpnl",
      "outputs": [
        {
          "internalType": "uint256",
          "name": "positionNotional",
          "type": "uint256"
        },
        {
          "internalType": "int256",
          "name": "upnl",
          "type": "int256"
        }
      ],
      "stateMutability": "view",
      "type": "function"
    },
    {
      "inputs": [
        {
          "internalType": "address",
          "name": "trader",
          "type": "address"
        },
        {
          "internalType": "contract IAMM",
          "name": "amm",
          "type": "address"
        }
      ],
      "name": "getReduceOnlyOrders",
      "outputs": [
        {
          "internalType": "uint256[]",
          "name": "",
          "type": "uint256[]"
        }
      ],
      "stateMutability": "view",
      "type": "function"
    },
    {
      "inputs": [
        {
          "internalType": "contract IAMM",
          "name": "amm",
          "type": "address"
        }
      ],
      "name": "getTotalPositionSize",
      "outputs": [
        {
          "components": [
            {
              "internalType": "int256",
              "name": "netPositionSize",
              "type": "int256"
            },
            {
              "internalType": "uint256",
              "name": "positionSizeLong",
              "type": "uint256"
            },
            {
              "internalType": "uint256",
              "name": "positionSizeShort",
              "type": "uint256"
            }
          ],
          "internalType": "struct TotalPositionSize",
          "name": "",
          "type": "tuple"
        }
      ],
      "stateMutability": "view",
      "type": "function"
    },
    {
      "inputs": [
        {
          "internalType": "uint256",
          "name": "id",
          "type": "uint256"
        }
      ],
      "name": "getTriggerOrder",
      "outputs": [
        {
          "components": [
            {
              "internalType": "address",
              "name": "trader",
              "type": "address"
            },
            {
              "internalType": "contract IAMM",
              "name": "amm",
              "type": "address"
            },
            {
              "internalType": "uint256",
              "name": "trigger",
              "type": "uint256"
            },
            {
              "internalType": "uint256",
              "name": "size",
              "type": "uint256"
            },
            {
              "internalType": "uint256",
              "name": "quoteLimit",
              "type": "uint256"
            },
            {
              "internalType": "bool",
              "name": "takeProfit",
              "type": "bool"
            }
          ],
          "internalType": "struct TriggerOrder",
          "name": "",
          "type": "tuple"
        }
      ],
      "stateMutability": "view",
      "type": "function"
    },
    {
      "inputs": [
        {
          "internalType": "address",
          "name": "trader",
          "type": "address"
        },
        {
          "internalType": "contract IAMM",
          "name": "amm",
          "type": "address"
        }
      ],
      "name": "getTriggerOrders",
      "outputs": [
        {
          "internalType": "uint256[]",
          "name": "",
          "type": "uint256[]"
        }
      ],
      "stateMutability": "view",
      "type": "function"
    },
    {
      "inputs": [
        {
          "internalType": "contract IAMM",
          "name": "amm",
          "type": "address"
        }
      ],
      "name": "getValidAMM",
      "outputs": [
        {
          "internalType": "bool",
          "name": "",
          "type": "bool"
        }
      ],
      "stateMutability": "view",
      "type": "function"
    },
    {
      "inputs": [
        {
          "internalType": "address",
          "name": "_owner",
          "type": "address"
        },
        {
          "internalType": "uint256",
          "name": "_divergenceCap",
          "type": "uint256"
        },
        {
          "internalType": "uint256",
          "name": "_minOrderbookMargin",
          "type": "uint256"
        }
      ],
      "name": "initialize",
      "outputs": [],
      "stateMutability": "nonpayable",
      "type": "function"
    },
    {
      "inputs": [],
      "name": "isActive",
      "outputs": [
        {
          "internalType": "bool",
          "name": "",
          "type": "bool"
        }
      ],
      "stateMutability": "view",
      "type": "function"
    },
    {
      "inputs": [
        {
          "internalType": "contract IAMM",
          "name": "amm",
          "type": "address"
        },
        {
          "internalType": "address",
          "name": "trader",
          "type": "address"
        }
      ],
      "name": "isLiquidatable",
      "outputs": [
        {
          "internalType": "bool",
          "name": "",
          "type": "bool"
        }
      ],
      "stateMutability": "view",
      "type": "function"
    },
    {
      "inputs": [
        {
          "internalType": "uint256",
          "name": "id",
          "type": "uint256"
        }
      ],
      "name": "isTriggerOrderValid",
      "outputs": [
        {
          "internalType": "bool",
          "name": "",
          "type": "bool"
        }
      ],
      "stateMutability": "view",
      "type": "function"
    },
    {
      "inputs": [
        {
          "internalType": "contract IAMM",
          "name": "amm",
          "type": "address"
        },
        {
          "internalType": "uint256",
          "name": "size",
          "type": "uint256"
        },
        {
          "internalType": "address",
          "name": "liquidatee",
          "type": "address"
        },
        {
          "internalType": "uint256",
          "name": "margin",
          "type": "uint256"
        }
      ],
      "name": "liquidate",
      "outputs": [],
      "stateMutability": "nonpayable",
      "type": "function"
    },
    {
      "inputs": [
        {
          "internalType": "contract IAMM",
          "name": "amm",
          "type": "address"
        },
        {
          "internalType": "address",
          "name": "liquidatee",
          "type": "address"
        },
        {
          "internalType": "uint256",
          "name": "margin",
          "type": "uint256"
        }
      ],
      "name": "liquidateMaker",
      "outputs": [],
      "stateMutability": "nonpayable",
      "type": "function"
    },
    {
      "inputs": [
        {
          "internalType": "contract IAMM",
          "name": "amm",
          "type": "address"
        },
        {
          "internalType": "enum Side",
          "name": "side",
          "type": "uint8"
        },
        {
          "internalType": "uint256",
          "name": "quote",
          "type": "uint256"
        },
        {
          "internalType": "uint256",
          "name": "leverage",
          "type": "uint256"
        },
        {
          "internalType": "uint256",
          "name": "baseLimit",
          "type": "uint256"
        }
      ],
      "name": "openPosition",
      "outputs": [
        {
          "internalType": "uint256",
          "name": "baseAmount",
          "type": "uint256"
        }
      ],
      "stateMutability": "nonpayable",
      "type": "function"
    },
    {
      "inputs": [],
      "name": "owner",
      "outputs": [
        {
          "internalType": "address",
          "name": "result",
          "type": "address"
        }
      ],
      "stateMutability": "view",
      "type": "function"
    },
    {
      "inputs": [
        {
          "internalType": "address",
          "name": "pendingOwner",
          "type": "address"
        }
      ],
      "name": "ownershipHandoverExpiresAt",
      "outputs": [
        {
          "internalType": "uint256",
          "name": "result",
          "type": "uint256"
        }
      ],
      "stateMutability": "view",
      "type": "function"
    },
    {
      "inputs": [],
      "name": "ownershipHandoverValidFor",
      "outputs": [
        {
          "internalType": "uint64",
          "name": "",
          "type": "uint64"
        }
      ],
      "stateMutability": "view",
      "type": "function"
    },
    {
      "inputs": [
        {
          "internalType": "contract IAMM",
          "name": "amm",
          "type": "address"
        },
        {
          "internalType": "uint256",
          "name": "shares",
          "type": "uint256"
        },
        {
          "internalType": "uint256",
          "name": "addedMargin",
          "type": "uint256"
        }
      ],
      "name": "removeLiquidity",
      "outputs": [],
      "stateMutability": "nonpayable",
      "type": "function"
    },
    {
      "inputs": [
        {
          "internalType": "contract IAMM",
          "name": "amm",
          "type": "address"
        },
        {
          "internalType": "uint256",
          "name": "margin",
          "type": "uint256"
        }
      ],
      "name": "removeMargin",
      "outputs": [],
      "stateMutability": "nonpayable",
      "type": "function"
    },
    {
      "inputs": [],
      "name": "renounceOwnership",
      "outputs": [],
      "stateMutability": "payable",
      "type": "function"
    },
    {
      "inputs": [],
      "name": "requestOwnershipHandover",
      "outputs": [],
      "stateMutability": "payable",
      "type": "function"
    },
    {
      "inputs": [
        {
          "internalType": "bool",
          "name": "_active",
          "type": "bool"
        }
      ],
      "name": "setActive",
      "outputs": [],
      "stateMutability": "nonpayable",
      "type": "function"
    },
    {
      "inputs": [
        {
          "internalType": "uint256",
          "name": "_divergenceCap",
          "type": "uint256"
        }
      ],
      "name": "setDivergenceCap",
      "outputs": [],
      "stateMutability": "nonpayable",
      "type": "function"
    },
    {
      "inputs": [
        {
          "internalType": "uint256",
          "name": "minMargin",
          "type": "uint256"
        }
      ],
      "name": "setMinOrderbookMargin",
      "outputs": [],
      "stateMutability": "nonpayable",
      "type": "function"
    },
    {
      "inputs": [
        {
          "internalType": "contract IAMM",
          "name": "amm",
          "type": "address"
        },
        {
          "internalType": "bool",
          "name": "valid",
          "type": "bool"
        }
      ],
      "name": "setValidAMM",
      "outputs": [],
      "stateMutability": "nonpayable",
      "type": "function"
    },
    {
      "inputs": [
        {
          "internalType": "contract IAMM",
          "name": "amm",
          "type": "address"
        }
      ],
      "name": "settleFunding",
      "outputs": [],
      "stateMutability": "nonpayable",
      "type": "function"
    },
    {
      "inputs": [
        {
          "internalType": "address",
          "name": "newOwner",
          "type": "address"
        }
      ],
      "name": "transferOwnership",
      "outputs": [],
      "stateMutability": "payable",
      "type": "function"
    },
    {
      "inputs": [
        {
          "internalType": "uint256",
          "name": "id",
          "type": "uint256"
        },
        {
          "components": [
            {
              "internalType": "address",
              "name": "trader",
              "type": "address"
            },
            {
              "internalType": "contract IAMM",
              "name": "amm",
              "type": "address"
            },
            {
              "internalType": "enum Side",
              "name": "side",
              "type": "uint8"
            },
            {
              "internalType": "uint256",
              "name": "trigger",
              "type": "uint256"
            },
            {
              "internalType": "uint256",
              "name": "quoteAmount",
              "type": "uint256"
            },
            {
              "internalType": "uint256",
              "name": "leverage",
              "type": "uint256"
            },
            {
              "internalType": "bool",
              "name": "reduceOnly",
              "type": "bool"
            }
          ],
          "internalType": "struct LimitOrder",
          "name": "order",
          "type": "tuple"
        }
      ],
      "name": "updateLimitOrder",
      "outputs": [],
      "stateMutability": "nonpayable",
      "type": "function"
    },
    {
      "inputs": [
        {
          "internalType": "uint256[]",
          "name": "ids",
          "type": "uint256[]"
        },
        {
          "components": [
            {
              "internalType": "address",
              "name": "trader",
              "type": "address"
            },
            {
              "internalType": "contract IAMM",
              "name": "amm",
              "type": "address"
            },
            {
              "internalType": "enum Side",
              "name": "side",
              "type": "uint8"
            },
            {
              "internalType": "uint256",
              "name": "trigger",
              "type": "uint256"
            },
            {
              "internalType": "uint256",
              "name": "quoteAmount",
              "type": "uint256"
            },
            {
              "internalType": "uint256",
              "name": "leverage",
              "type": "uint256"
            },
            {
              "internalType": "bool",
              "name": "reduceOnly",
              "type": "bool"
            }
          ],
          "internalType": "struct LimitOrder[]",
          "name": "_orders",
          "type": "tuple[]"
        }
      ],
      "name": "updateLimitOrderBatch",
      "outputs": [],
      "stateMutability": "nonpayable",
      "type": "function"
    },
    {
      "inputs": [
        {
          "internalType": "uint256",
          "name": "id",
          "type": "uint256"
        },
        {
          "components": [
            {
              "internalType": "address",
              "name": "trader",
              "type": "address"
            },
            {
              "internalType": "contract IAMM",
              "name": "amm",
              "type": "address"
            },
            {
              "internalType": "uint256",
              "name": "trigger",
              "type": "uint256"
            },
            {
              "internalType": "uint256",
              "name": "size",
              "type": "uint256"
            },
            {
              "internalType": "uint256",
              "name": "quoteLimit",
              "type": "uint256"
            },
            {
              "internalType": "bool",
              "name": "takeProfit",
              "type": "bool"
            }
          ],
          "internalType": "struct TriggerOrder",
          "name": "order",
          "type": "tuple"
        }
      ],
      "name": "updateTriggerOrder",
      "outputs": [],
      "stateMutability": "nonpayable",
      "type": "function"
    }
  ],
  "bytecode": {
    "object": "0x6101406040523480156200001257600080fd5b506040516200580e3803806200580e833981016040819052620000359162000156565b6001600160a01b038087166080528581166101205284811660a05283811660c05282811660e0528116610100526200006c62000078565b505050505050620001d7565b604154610100900460ff1615620000e55760405162461bcd60e51b815260206004820152602760248201527f496e697469616c697a61626c653a20636f6e747261637420697320696e697469604482015266616c697a696e6760c81b606482015260840160405180910390fd5b60415460ff9081161462000137576041805460ff191660ff9081179091556040519081527f7f26b83ff96e1f2b6a682f133852f6798a09c465da95921460cefb38474024989060200160405180910390a15b565b80516001600160a01b03811681146200015157600080fd5b919050565b60008060008060008060c087890312156200017057600080fd5b6200017b8762000139565b95506200018b6020880162000139565b94506200019b6040880162000139565b9350620001ab6060880162000139565b9250620001bb6080880162000139565b9150620001cb60a0880162000139565b90509295509295509295565b60805160a05160c05160e05161010051610120516155856200028960003960006116eb015260008181610af1015281816110e20152818161124b015281816114230152611f0001526000610f900152600081816118b101528181611a860152612264015260008181610e740152611da0015260008181610b3e015281816116c901528181611811015281816119f501528181611cae01528181611e0f015281816121c7015261229d01526155856000f3fe6080604052600436106102935760003560e01c80637a1ac61e1161015a578063d2435052116100c1578063e859f3721161007a578063e859f37214610947578063e980e16e14610967578063f04e283e146109a9578063f2fde38b146109bc578063f8b6e449146109cf578063fee81cf4146109ef57600080fd5b8063d243505214610889578063d7533f02146108a9578063da8c7e40146108c7578063dd2a65ed146108e7578063e304677014610907578063e38192e31461092757600080fd5b80639dda4e4f116101135780639dda4e4f1461076e578063acec338a146107a7578063b33dc190146107c7578063b959d69514610829578063cbb50e6114610849578063cf70cb691461086957600080fd5b80637a1ac61e146106ad5780637aefce97146106cd5780637eb02406146106ed5780638da5cb5b1461070d5780639457be2314610739578063987362da1461075957600080fd5b80634a6ebce7116101fe5780635ac3b62d116101b75780635ac3b62d146105fa57806368d852971461060f5780636b17ad031461062f5780636ea41e401461064f578063715018a61461068557806373af02051461068d57600080fd5b80634a6ebce7146105385780634fa9c4db14610565578063517237a91461058557806353061026146105a557806354b85a3e146105d257806354d1f13d146105f257600080fd5b80632569296211610250578063256929621461038c57806325a208a2146103945780632a120de4146103b457806336cef3d9146103d45780633966a28b146104e2578063429e92371461050257600080fd5b80630e86a08d1461029857806313dee2d1146102d25780631ece366a146102f4578063207b5b6f1461032257806322f3e2d41461034257806323c16e221461036c575b600080fd5b3480156102a457600080fd5b506102b86102b33660046146bb565b610a22565b604080519283526020830191909152015b60405180910390f35b3480156102de57600080fd5b506102f26102ed366004614739565b610a99565b005b34801561030057600080fd5b5061031461030f3660046147d3565b610b1e565b6040519081526020016102c9565b34801561032e57600080fd5b506102f261033d36600461481c565b610c3c565b34801561034e57600080fd5b5060415462010000900460ff165b60405190151581526020016102c9565b34801561037857600080fd5b5061031461038736600461484a565b610cf8565b6102f2610ecb565b3480156103a057600080fd5b506102f26103af366004614863565b610f1b565b3480156103c057600080fd5b506102f26103cf3660046149af565b610fb6565b3480156103e057600080fd5b5061048b6103ef36600461484a565b6040805160c081018252600080825260208201819052918101829052606081018290526080810182905260a0810191909152506000908152600b6020908152604091829020825160c08101845281546001600160a01b03908116825260018301541692810192909252600281015492820192909252600382015460608201526004820154608082015260059091015460ff16151560a082015290565b6040516102c9919081516001600160a01b0390811682526020808401519091169082015260408083015190820152606080830151908201526080808301519082015260a09182015115159181019190915260c00190565b3480156104ee57600080fd5b5061035c6104fd3660046146bb565b61106c565b34801561050e57600080fd5b5061031461051d3660046149d4565b6001600160a01b031660009081526006602052604090205490565b34801561054457600080fd5b506105586105533660046149f1565b61108a565b6040516102c99190614a6e565b34801561057157600080fd5b50610314610580366004614a81565b611126565b34801561059157600080fd5b506102f26105a0366004614ada565b6111f9565b3480156105b157600080fd5b506105c56105c036600461484a565b611275565b6040516102c99190614bf3565b3480156105de57600080fd5b506105586105ed3660046146bb565b611321565b6102f261139a565b34801561060657600080fd5b50600d54610314565b34801561061b57600080fd5b5061031461062a366004614c19565b6113d6565b34801561063b57600080fd5b506102f261064a3660046149d4565b61145f565b34801561065b57600080fd5b5061031461066a3660046149d4565b6001600160a01b031660009081526004602052604090205490565b6102f261156c565b34801561069957600080fd5b506105586106a83660046146bb565b611580565b3480156106b957600080fd5b506102f26106c8366004614a81565b6115f7565b3480156106d957600080fd5b506102f26106e8366004614c35565b611771565b3480156106f957600080fd5b50610314610708366004614c76565b6118e0565b34801561071957600080fd5b50638b78c6d819546040516001600160a01b0390911681526020016102c9565b34801561074557600080fd5b506102f2610754366004614c88565b6119a2565b34801561076557600080fd5b50600e54610314565b34801561077a57600080fd5b5061035c6107893660046149d4565b6001600160a01b031660009081526003602052604090205460ff1690565b3480156107b357600080fd5b506102f26107c2366004614cc0565b611ab4565b3480156107d357600080fd5b506107e76107e23660046146bb565b611b35565b6040516102c99190600060a082019050825182526020830151602083015260408301516040830152606083015160608301526080830151608083015292915050565b34801561083557600080fd5b506102f2610844366004614cdd565b611b71565b34801561085557600080fd5b50610314610864366004614d09565b611d1b565b34801561087557600080fd5b506102f2610884366004614cdd565b611df1565b34801561089557600080fd5b506102f26108a4366004614d58565b611eb4565b3480156108b557600080fd5b506040516202a30081526020016102c9565b3480156108d357600080fd5b506102f26108e236600461484a565b611f2b565b3480156108f357600080fd5b5061035c61090236600461484a565b611fec565b34801561091357600080fd5b506102f261092236600461484a565b61209f565b34801561093357600080fd5b506102f2610942366004614a81565b6120ac565b34801561095357600080fd5b506102f261096236600461484a565b6122c4565b34801561097357600080fd5b506109876109823660046149d4565b612324565b60408051825181526020808401519082015291810151908201526060016102c9565b6102f26109b73660046149d4565b61238a565b6102f26109ca3660046149d4565b6123c7565b3480156109db57600080fd5b506102f26109ea36600461484a565b6123ee565b3480156109fb57600080fd5b50610314610a0a3660046149d4565b63389a75e1600c908152600091909152602090205490565b6001600160a01b038083166000908152602081815260408083209385168352928152828220835160a08101855281548152600182015492810192909252600281015493820193909352600383015460608201526004909201546080830152908190610a8e9085906123fb565b909590945092505050565b610aa1612452565b610b173385858585604051602401610abd959493929190614e1f565b60408051601f198184030181529190526020810180516001600160e01b031663e98143ad60e01b1790526001600160a01b037f0000000000000000000000000000000000000000000000000000000000000000169061247b565b5050505050565b6000610b28612452565b610b31856124a0565b610b666001600160a01b037f0000000000000000000000000000000000000000000000000000000000000000163330876124d9565b604051630f671b3560e11b81523360048201526024810185905260448101849052606481018390526000906001600160a01b03871690631ece366a9060840160408051808303816000875af1158015610bc3573d6000803e3d6000fd5b505050506040513d601f19601f82011682018060405250810190610be79190614e82565b604080518381526020810183905292945090925033916001600160a01b038916917f32923dfeaa77af290abe15bfb407a16585bee3843a05dc1b82ad3dca3a866aad910160405180910390a350949350505050565b610c4461252d565b80158015610caf5750816001600160a01b03166322f3e2d46040518163ffffffff1660e01b8152600401602060405180830381865afa158015610c8b573d6000803e3d6000fd5b505050506040513d601f19601f82011682018060405250810190610caf9190614ea6565b15610ccd5760405163cdd8a30360e01b815260040160405180910390fd5b6001600160a01b03919091166000908152600360205260409020805460ff1916911515919091179055565b6000610d02612452565b6000828152600b6020908152604091829020825160c08101845281546001600160a01b03908116825260018301541692810183905260028201549381019390935260038101546060840152600481015460808401526005015460ff16151560a0830152610d6e906124a0565b610d8081602001518260000151612548565b6000610d9482602001518360000151612575565b9050600060ff82901c8103808301189050610dce836020015160008413610dbc576001610dbf565b60005b85604001518660a001516125bc565b8083606001511115610de257606083018190525b6000808313610df2576000610df5565b60015b9050610e0b8460200151878660000151336125e5565b8351602085015160608601516080870151604051600094610e9a94610e4094919390928892919033908b841490602401614ec3565b60408051601f198184030181529190526020810180516001600160e01b0316637b9db48760e11b1790526001600160a01b037f0000000000000000000000000000000000000000000000000000000000000000169061247b565b9050610eaa85602001518361281c565b80806020019051810190610ebe9190614f15565b955050505050505b919050565b60006202a30067ffffffffffffffff164201905063389a75e1600c5233600052806020600c2055337fdbf36a107da19e49527a7176a1babf963b4b0ff8cde35ee35d6cd8f1f9ac7e1d600080a250565b610f2361252d565b610f2c846124a0565b6040516001600160a01b03808616602483015280851660448301528316606482015260848101829052610b179060a40160408051601f198184030181529190526020810180516001600160e01b03166312d1045160e11b1790526001600160a01b037f0000000000000000000000000000000000000000000000000000000000000000169061247b565b610fbe612452565b604080516001808252818301909252600091816020015b610fdd6145d8565b815260200190600190039081610fd55750506040805160018082528183019092529192506000919060208083019080368337019050509050828260008151811061102957611029614f2e565b6020026020010181905250838160008151811061104857611048614f2e565b602002602001018181525050610b17338284604051602401610abd93929190614f7e565b60006110818361107c8585612972565b612a07565b90505b92915050565b6060611094612452565b60006111083385856040516024016110ae93929190614fb4565b60408051601f198184030181529190526020810180516001600160e01b0316638b69f89760e01b1790526001600160a01b037f0000000000000000000000000000000000000000000000000000000000000000169061247b565b90508080602001905181019061111e9190614fe2565b949350505050565b6000611130612452565b611139846124a0565b6111438433612548565b600061114f8533612575565b905060ff81901c600003808201188085111561117e57604051631eab837160e11b815260040160405180910390fd5b84600003611191576000925050506111f2565b60008083136111a15760006111a4565b60015b905060006111cb3389848a8a6000898e14604051602401610e409796959493929190614ec3565b90506111d7888361281c565b808060200190518101906111eb9190614f15565b9450505050505b9392505050565b611201612452565b6112713382604051602401611217929190615068565b60408051601f198184030181529190526020810180516001600160e01b0316637d5eb41f60e01b1790526001600160a01b037f0000000000000000000000000000000000000000000000000000000000000000169061247b565b5050565b61127d6145d8565b6000828152600a6020908152604091829020825160e08101845281546001600160a01b039081168252600180840154918216948301949094529093919291840191600160a01b90910460ff16908111156112d9576112d9614b65565b60018111156112ea576112ea614b65565b815260028201546020820152600382015460408201526004820154606082015260059091015460ff16151560809091015292915050565b6001600160a01b03808316600090815260096020908152604080832093851683529281529082902080548351818402810184019094528084526060939283018282801561138d57602002820191906000526020600020905b815481526020019060010190808311611379575b5050505050905092915050565b63389a75e1600c523360005260006020600c2055337ffa7b8eab7da67f412cc9575ed43464468f9bfbae89d1675917346ca6d8fe3c92600080a2565b60008061144983336040516024016113ef9291906150f2565b60408051601f198184030181529190526020810180516001600160e01b0316631da5734360e21b1790526001600160a01b037f0000000000000000000000000000000000000000000000000000000000000000169061247b565b9050808060200190518101906111f29190614f15565b611467612452565b611470816124a0565b6000806000836001600160a01b031663ed83d79c6040518163ffffffff1660e01b81526004016060604051808303816000875af11580156114b5573d6000803e3d6000fd5b505050506040513d601f19601f820116820180604052508101906114d99190615118565b6001600160a01b0387166000908152600460205260409020549295509093509150611504848261515c565b6001600160a01b0386166000818152600460209081526040918290208490558151878152908101869052908101839052919250907fbfed1e6debfebfaef8f787a2e2c506676d0e9e9f06d217ef82d090151af844e89060600160405180910390a25050505050565b61157461252d565b61157e6000612b4e565b565b6001600160a01b03808316600090815260086020908152604080832093851683529281529082902080548351818402810184019094528084526060939283018282801561138d5760200282019190600052602060002090815481526020019060010190808311611379575050505050905092915050565b604154610100900460ff16158080156116175750604154600160ff909116105b806116315750303b158015611631575060415460ff166001145b6116995760405162461bcd60e51b815260206004820152602e60248201527f496e697469616c697a61626c653a20636f6e747261637420697320616c72656160448201526d191e481a5b9a5d1a585b1a5e995960921b60648201526084015b60405180910390fd5b6041805460ff1916600117905580156116bc576041805461ff0019166101001790555b6117126001600160a01b037f0000000000000000000000000000000000000000000000000000000000000000167f0000000000000000000000000000000000000000000000000000000000000000600019612b8c565b600d839055600e82905561172584612bd2565b801561176b576041805461ff0019169055604051600181527f7f26b83ff96e1f2b6a682f133852f6798a09c465da95921460cefb38474024989060200160405180910390a15b50505050565b611779612452565b611782836124a0565b604051631bde66e760e01b81526001600160a01b0383811660048301526000918291829190871690631bde66e7906024016060604051808303816000875af11580156117d2573d6000803e3d6000fd5b505050506040513d601f19601f820116820180604052508101906117f69190615118565b92509250925083600014611839576118396001600160a01b037f0000000000000000000000000000000000000000000000000000000000000000163330876124d9565b6040516001600160a01b038088166024830152336044830152861660648201526084810184905260a4810183905260c4810182905260e481018590526118d7906101040160408051601f198184030181529190526020810180516001600160e01b0316631fe05b1760e11b1790526001600160a01b037f0000000000000000000000000000000000000000000000000000000000000000169061247b565b50505050505050565b60006118ea612452565b604080516001808252818301909252600091816020015b6119096145d8565b81526020019060019003908161190157905050905061192d36849003840184615184565b8160008151811061194057611940614f2e565b6020026020010181905250600061196333836040516024016110ae9291906151a0565b905060008180602001905181019061197b9190614fe2565b90508060008151811061199057611990614f2e565b60200260200101519350505050919050565b6119aa612452565b6119b3846124a0565b60006119bf8584612972565b90506119cb8582612a07565b6119e857604051633da1f7d160e11b815260040160405180910390fd5b611a1d6001600160a01b037f0000000000000000000000000000000000000000000000000000000000000000163330856124d9565b6040516001600160a01b038087166024830152841660448201523360648201526084810185905260a48101839052611aac9060c40160408051601f198184030181529190526020810180516001600160e01b0316636f70e66f60e01b1790526001600160a01b037f0000000000000000000000000000000000000000000000000000000000000000169061247b565b505050505050565b611abc61252d565b6041805482158015620100000262ff00001990921691909117909155611b08576040517fed1cd0670ee0c0017f550451a038818c696d0b6a9d6ce5b369e44275573cf9b090600090a150565b6040517f1142a68cc39970640eb3524e77b91f78be21abc64f20f5919387eb46699bb77290600090a15b50565b611b676040518060a0016040528060008152602001600081526020016000815260200160008152602001600081525090565b6110818383612972565b611b79612452565b611b82826124a0565b6001600160a01b0382166000908152602081815260408083203384528252808320815160a081018352815481526001820154938101849052600282015492810192909252600381015460608301526004015460808201529103611bf857604051631d5fdf4760e11b815260040160405180910390fd5b6000611c178483611c1286670de0b6b3a763ffff19612c0e565b612c60565b90508060400151600014611c3e57604051632c7c1d6360e11b815260040160405180910390fd5b6060808201516020840152815190830152611c598483612d58565b6001600160a01b038085166000908152602081815260408083203380855290835292819020865181559186015160018301558501516002820155606085015160038201556080850151600490910155611cd5917f0000000000000000000000000000000000000000000000000000000000000000169085612e65565b60405183815233906001600160a01b038616907fb0fa03f93c852a6feaaeb34ccf4cf865cc223c4cc9d25dce28a9131fde2710719060200160405180910390a350505050565b6000611d25612452565b611d2e866124a0565b611d388633612548565b611d4c8685611d478187612ea1565b612eb6565b6000611dc6338888888888604051602401611d6c969594939291906151c4565b60408051601f198184030181529190526020810180516001600160e01b03166310faff9560e31b1790526001600160a01b037f0000000000000000000000000000000000000000000000000000000000000000169061247b565b9050611dd2878761281c565b80806020019051810190611de69190614f15565b979650505050505050565b611df9612452565b611e02826124a0565b611e376001600160a01b037f0000000000000000000000000000000000000000000000000000000000000000163330846124d9565b6001600160a01b03821660009081526020818152604080832033845290915281206001018054839290611e6b908490615208565b909155505060405181815233906001600160a01b038416907f05c2d01f05f37971d15b22586be2f1933a1ae8c0079a056a430b4391550ffb2d9060200160405180910390a35050565b611f26828233604051602401611ecc9392919061521b565b60408051601f198184030181529190526020810180516001600160e01b03166312fd759760e11b1790526001600160a01b037f0000000000000000000000000000000000000000000000000000000000000000169061247b565b505050565b6000818152600b6020908152604091829020825160c08101845281546001600160a01b0390811680835260018401549091169382019390935260028201549381019390935260038101546060840152600481015460808401526005015460ff16151560a08301523314801590611fb95750638b78c6d819546001600160a01b0316336001600160a01b031614155b15611fd7576040516342f062b760e01b815260040160405180910390fd5b611271816020015183836000015160006125e5565b6000818152600b60209081526040808320815160c08101835281546001600160a01b039081168083526001840154909116948201859052600283015493820193909352600382015460608201526004820154608082015260059091015460ff16151560a08201529183916120609190612972565b5190506000819003612076575060009392505050565b61111e82602001516000831361208d576001612090565b60005b84604001518560a00151612f4b565b6120a761252d565b600e55565b6120b4612452565b6120bd836124a0565b604051635100e67b60e11b815233600482015260248101839052600090819081906001600160a01b0387169063a201ccf6906044016060604051808303816000875af1158015612111573d6000803e3d6000fd5b505050506040513d601f19601f820116820180604052508101906121359190615118565b9250925092506000866001600160a01b031663c4e41b226040518163ffffffff1660e01b8152600401602060405180830381865afa15801561217b573d6000803e3d6000fd5b505050506040513d601f19601f8201168201806040525081019061219f9190614f15565b905083158015906121af57508015155b156122905784156121ef576121ef6001600160a01b037f0000000000000000000000000000000000000000000000000000000000000000163330886124d9565b61228a87336121fe8886615208565b6040516001600160a01b03938416602482015292909116604483015260648201526084810186905260a4810185905260c40160408051601f198184030181529190526020810180516001600160e01b0316636e6f167560e01b1790526001600160a01b037f0000000000000000000000000000000000000000000000000000000000000000169061247b565b506118d7565b6118d76001600160a01b037f0000000000000000000000000000000000000000000000000000000000000000163384612e65565b6122cc612452565b60408051600180825281830190925260009160208083019080368337019050509050818160008151811061230257612302614f2e565b602002602001018181525050611f263382604051602401611217929190615068565b61234860405180606001604052806000815260200160008152602001600081525090565b506001600160a01b0316600090815260056020908152604091829020825160608101845281548152600182015492810192909252600201549181019190915290565b61239261252d565b63389a75e1600c52806000526020600c2080544211156123ba57636f5e88186000526004601cfd5b60009055611b3281612b4e565b6123cf61252d565b8060601b6123e557637448fbae6000526004601cfd5b611b3281612b4e565b6123f661252d565b600d55565b60008082600001516000036124155750600090508061244b565b612423848460000151613003565b915061244861243183613420565b61243e8560400151613420565b8551600012613439565b90505b9250929050565b60415462010000900460ff1661157e57604051637dc579d960e11b815260040160405180910390fd5b606061108183836040518060600160405280602781526020016155296027913961345c565b6001600160a01b03811660009081526003602052604090205460ff16611b32576040516304c1bb0360e11b815260040160405180910390fd5b60405181606052826040528360601b602c526323b872dd60601b600c52602060006064601c6000895af13d15600160005114171661251f57637939f4246000526004601cfd5b600060605260405250505050565b638b78c6d81954331461157e576382b429006000526004601cfd5b6125528282612972565b6080015143036112715760405163fd4b12b160e01b815260040160405180910390fd5b6001600160a01b038083166000908152602081815260408083209385168352929052908120549081900361108457604051631d5fdf4760e11b815260040160405180910390fd5b6125c884848484612f4b565b61176b576040516315f3d48360e01b815260040160405180910390fd5b6000838152600b6020908152604080832080546001600160a01b031990811682556001820180549091169055600281018490556003810184905560048101849055600501805460ff191690556001600160a01b03858116845260098352818420908816845282528083208054825181850281018501909352808352919290919083018282801561269457602002820191906000526020600020905b815481526020019060010190808311612680575b50505050509050600081519050806001036126de576001600160a01b038085166000908152600960209081526040808320938a1683529290529081206126d991614617565b6127cd565b60005b8181101561278157858382815181106126fc576126fc614f2e565b6020026020010151036127795782612715600184615249565b8151811061272557612725614f2e565b6020908102919091018101516001600160a01b038088166000908152600984526040808220928c1682529190935290912080548390811061276857612768614f2e565b600091825260209091200155612781565b6001016126e1565b506001600160a01b038085166000908152600960209081526040808320938a168352929052208054806127b6576127b661525c565b600190038181906000526020600020016000905590555b6040516001600160a01b038481168252808616919088169087907f241cba1e62c0c28760eb65132303f670a906fac442064deb7a20da98ce538ed29060200160405180910390a4505050505050565b600d54600081900361282d57505050565b6000836001600160a01b031663604096326040518163ffffffff1660e01b8152600401602060405180830381865afa15801561286d573d6000803e3d6000fd5b505050506040513d601f19601f820116820180604052508101906128919190614f15565b90506000846001600160a01b03166358c0994a6040518163ffffffff1660e01b8152600401602060405180830381865afa1580156128d3573d6000803e3d6000fd5b505050506040513d601f19601f820116820180604052508101906128f79190614f15565b905083600181111561290b5761290b614b65565b81831161291957600061291c565b60015b600181111561292d5761292d614b65565b03612939575050505050565b600061294f8361294981856134d4565b906134eb565b905083811115611aac5760405163a6dea22360e01b815260040160405180910390fd5b6129a46040518060a0016040528060008152602001600081526020016000815260200160008152602001600081525090565b506001600160a01b03918216600090815260208181526040808320939094168252918252829020825160a0810184528154815260018201549281019290925260028101549282019290925260038201546060820152600490910154608082015290565b80516000908103612a1a57506000611084565b6000612a9b612a8c856001600160a01b03166346558d1b6040518163ffffffff1660e01b8152600401602060405180830381865afa158015612a60573d6000803e3d6000fd5b505050506040513d601f19601f82011682018060405250810190612a849190614f15565b855190613500565b60ff81901c6000039081011890565b90506000612ac2612aab83613420565b612ab88660400151613420565b8651600012613439565b90506000612ad1868684612c60565b606001519050856001600160a01b0316634f3c15426040518163ffffffff1660e01b8152600401602060405180830381865afa158015612b15573d6000803e3d6000fd5b505050506040513d601f19601f82011682018060405250810190612b399190614f15565b612b4382856134eb565b109695505050505050565b638b78c6d81980546001600160a01b039092169182907f8be0079c531659141344cd1fd0a4f28419497f9722a3daafe3b4186f6b6457e0600080a355565b816014528060345263095ea7b360601b60005260206000604460106000875af13d156001600051141716612bc857633e3f8f736000526004601cfd5b6000603452505050565b6001600160a01b0316638b78c6d8198190558060007f8be0079c531659141344cd1fd0a4f28419497f9722a3daafe3b4186f6b6457e08180a350565b60008082128015612c2557612c2283615272565b92505b612c40612c3b8585670de0b6b3a7640000613528565b613420565b91508015612c5957612c5182615272565b915050611084565b5092915050565b612c8b6040518060800160405280600081526020016000815260200160008152602001600081525090565b6001600160a01b0384166000908152600460205260409020548152825115612d0057825160608401518251612cca9291612cc49161528e565b906135d7565b6020820181905260001315612d00576103e88160200151612ceb91906152c4565b81602001818151612cfc919061528e565b9052505b6000612d0f8460200151613420565b6020830151612d1e908561528e565b612d28919061515c565b905060008112612d3e5760608201819052612d50565b60ff81901c6000038082011860408301525b509392505050565b600080612d6584846123fb565b915091506000612d788460200151613420565b90506000808313612d9257612d8d838361515c565b612d94565b815b90506000612dfd876001600160a01b031663bce2020d6040518163ffffffff1660e01b8152600401602060405180830381865afa158015612dd9573d6000803e3d6000fd5b505050506040513d601f19601f82011682018060405250810190612c3b9190614f15565b905060008087600001511315612e23576040870151612e1c9083612c0e565b9050612e30565b612e2d8683612c0e565b90505b6000612e3c828561528e565b1215612e5b5760405163845dfc3960e01b815260040160405180910390fd5b5050505050505050565b816014528060345263a9059cbb60601b60005260206000604460106000875af13d156001600051141716612bc8576390b8ec186000526004601cfd5b60006110818383670de0b6b3a7640000613528565b6000836001600160a01b031663bce2020d6040518163ffffffff1660e01b8152600401602060405180830381865afa158015612ef6573d6000803e3d6000fd5b505050506040513d601f19601f82011682018060405250810190612f1a9190614f15565b90506000612f2884846134eb565b905081811015610b17576040516333c44bc760e21b815260040160405180910390fd5b600080856001600160a01b031663604096326040518163ffffffff1660e01b8152600401602060405180830381865afa158015612f8c573d6000803e3d6000fd5b505050506040513d601f19601f82011682018060405250810190612fb09190614f15565b9050600080866001811115612fc757612fc7614b65565b03612fe45783612fd957848211612fdd565b8482105b9050612ff8565b83612ff157848210612ff5565b8482115b90505b159695505050505050565b600061300d614635565b60ff83901c6000038084011860608201819052600003613031576000915050611084565b836001600160a01b031663c24e38596040518163ffffffff1660e01b8152600401606060405180830381865afa15801561306f573d6000803e3d6000fd5b505050506040513d601f19601f820116820180604052508101906130939190615118565b604084015260208301528152600083136130ae5760016130b1565b60005b8160c0019060018111156130c7576130c7614b65565b908160018111156130da576130da614b65565b90525060018160c0015160018111156130f5576130f5614b65565b1460e08201526001600160a01b0384166000908152600160208190526040822060c0840151909183919081111561312e5761312e614b65565b600181111561313f5761313f614b65565b8152602001908152602001600020905061317261316d836020015184600001516134eb90919063ffffffff16565b613641565b60020b608083015260e0820151613205906001600160a01b0387169063f36bdbc99061319f5760006131a2565b60015b85606001516040518363ffffffff1660e01b81526004016131c49291906152f2565b602060405180830381865afa1580156131e1573d6000803e3d6000fd5b505050506040513d601f19601f8201168201806040525081019061316d9190614f15565b60020b60a083015260e08201511561322c5781608001805161322690615309565b60020b90525b6000805b8360e0015161324f578360a0015160020b846080015160020b13613261565b8360a0015160020b846080015160020b125b1561334d57608084015160e085015161327f91859160019015613689565b60029190910b60808601529050801561332a576133016040518060e0016040528086606001518152602001866000015181526020018660200151815260200186604001518152602001896001600160a01b03168152602001866080015160020b81526020018660c0015160018111156132fa576132fa614b65565b9052613846565b602088015286526060860191909152915061331c8286615208565b60608501519095501561334d575b8360e001516133485783608001805161334290615309565b60020b90525b613230565b606084015115613416578360e00151156133a557836020015184606001511061338757600184602001516133819190615249565b60608501525b83606001518460200181815161339d9190615249565b9052506133bf565b8360600151846020018181516133bb9190615208565b9052505b60006133dc856020015186604001516134eb90919063ffffffff16565b90506134086133ee8660000151613420565b6133f783613420565b818113818303929091038218021890565b6134129087615208565b9550505b5050505092915050565b6000600160ff1b821061343557613435613af6565b5090565b600081156134525761344b838561528e565b90506111f2565b61111e848461528e565b6060600080856001600160a01b0316856040516134799190615350565b600060405180830381855af49150503d80600081146134b4576040519150601f19603f3d011682016040523d82523d6000602084013e6134b9565b606091505b50915091506134ca86838387613b04565b9695505050505050565b60006110816134e283613420565b6133f785613420565b600061108183670de0b6b3a764000084613528565b60008083128015612c255761351484615272565b9350612c40612c3b8585670de0b6b3a76400005b6000838302600019848609818110820190038061355d57836135525763ae47f7026000526004601cfd5b5082900490506111f2565b8084116135725763ae47f7026000526004601cfd5b838587096000858103861695869004956003870260029081188089028203028089028203028089028203028089028203028089028203028089029091030291819003819004600101858411909403939093029190930391909104170290509392505050565b60008083128183128082141582156135f5576135f286615272565b95505b81156136075761360485615272565b94505b61361d612c3b8787670de0b6b3a7640000613528565b935080156136385761362e84615272565b9350505050611084565b50505092915050565b600061108461367b670de0b6b3a7640000606061366b6136666402540be4008861536c565b613b7d565b61367692911b61536c565b613c16565b6001600160a01b0316613c2b565b600080806136978587615380565b905060008660020b1280156136b757506136b185876153ba565b60020b15155b156136ca57806136c681615309565b9150505b8315613777576000806136dc83613f65565b90925090506000600160ff831681901b906136f79082615249565b6137019190615208565b600184900b600090815260208c905260409020548116801515965090915085613741578861373260ff8516876153dc565b61373c9190615401565b61376c565b8861374b82613f85565b6137559085615421565b6137629060ff16876153dc565b61376c9190615401565b96505050505061383c565b60008061378d61378884600161543a565b613f65565b909250905060006137a5600160ff841681901b615249565b600184900b600090815260208c9052604090205490199081168015159650909150856137fe57886137d78460ff615421565b60ff166137e587600161543a565b6137ef919061543a565b6137f99190615401565b613835565b888361380983614075565b6138139190615421565b60ff1661382187600161543a565b61382b919061543a565b6138359190615401565b9650505050505b5094509492505050565b60808101516001600160a01b0316600090815260026020526040812060c083015182918291829182918290600181111561388257613882614b65565b600181111561389357613893614b65565b815260200190815260200160002060008760a0015160020b60020b8152602001908152602001600020604051806040016040529081600082015481526020016001820180548060200260200160405190810160405280929190818152602001828054801561392057602002820191906000526020600020905b81548152602001906001019080831161390c575b50505050508152505090506000600a6000836020015160018560200151516139489190615249565b8151811061395857613958614f2e565b602002602001015181526020019081526020016000206002015490508060000361399a5750508451602086015160408701519195506000945092509050613aef565b60006139c96139ac8960400151613420565b6133f7612c3b613666868d606001516134eb90919063ffffffff16565b88519091508111156139d9575086515b80886000018181516139eb9190615249565b90525060008860c001516001811115613a0657613a06614b65565b14613a28578088604001818151613a1d9190615249565b915081815250613a41565b8088604001818151613a3a9190615208565b9150818152505b5060408801516060890151613a55916134eb565b9450613a6e8860400151866134eb90919063ffffffff16565b9150613a89613a808960200151613420565b6133f787613420565b885190965015613adf578251600090613aa290846134eb565b8951909150811115613ab2575087515b8089600001818151613ac49190615249565b905250613ad18184612ea1565b613adb9088615208565b9650505b5050855160408701519095509150505b9193509193565b6335278d126000526004601cfd5b60608315613b73578251600003613b6c576001600160a01b0385163b613b6c5760405162461bcd60e51b815260206004820152601d60248201527f416464726573733a2063616c6c20746f206e6f6e2d636f6e74726163740000006044820152606401611690565b508161111e565b61111e83836141a0565b6000611084613b9483670de0b6b3a764000061545f565b6001600160881b03811160071b81811c68ffffffffffffffffff1060061b1781811c64ffffffffff1060051b1781811c62ffffff1060041b1781811c620100000160b5600192831c1b0260121c80830401811c80830401811c80830401811c80830401811c80830401811c80830401811c80830401901c908190048111900390565b6000600160a01b821061343557613435613af6565b60006401000276a36001600160a01b03831610801590613c67575073fffd8963efd1fc6a506488495d951d5263988d266001600160a01b038316105b613c975760405162461bcd60e51b81526020600482015260016024820152602960f91b6044820152606401611690565b640100000000600160c01b03602083901b166001600160801b03811160071b81811c67ffffffffffffffff811160061b90811c63ffffffff811160051b90811c61ffff811160041b90811c60ff8111600390811b91821c600f811160021b90811c918211600190811b92831c97908811961790941790921717909117171760808110613d3257613d28607f82615249565b83901c9150613d43565b613d3d81607f615249565b83901b91505b60006040613d5260808461528e565b901b9050828302607f1c92508260801c80603f1b8217915083811c935050828302607f1c92508260801c80603e1b8217915083811c935050828302607f1c92508260801c80603d1b8217915083811c935050828302607f1c92508260801c80603c1b8217915083811c935050828302607f1c92508260801c80603b1b8217915083811c935050828302607f1c92508260801c80603a1b8217915083811c935050828302607f1c92508260801c8060391b8217915083811c935050828302607f1c92508260801c8060381b8217915083811c935050828302607f1c92508260801c8060371b8217915083811c935050828302607f1c92508260801c8060361b8217915083811c935050828302607f1c92508260801c8060351b8217915083811c935050828302607f1c92508260801c8060341b8217915083811c935050828302607f1c92508260801c8060331b8217915083811c935050828302607f1c92508260801c8060321b8217915050600081693627a301d71055774c85613ed59190615476565b905060006080613ef56f028f6481ab7f045a5af012a19d003aaa8461528e565b901d905060006080613f17846fdb2df09e81959a81455e260799a0632f61515c565b901d90508060020b8260020b14613f5657886001600160a01b0316613f3b826141ca565b6001600160a01b03161115613f505781613f58565b80613f58565b815b9998505050505050505050565b600281900b60081d6000613f7b610100846153ba565b60020b9050915091565b6000808211613f9357600080fd5b600160801b8210613fb157608091821c91613fae90826154a6565b90505b680100000000000000008210613fd457604091821c91613fd190826154a6565b90505b6401000000008210613ff357602091821c91613ff090826154a6565b90505b62010000821061401057601091821c9161400d90826154a6565b90505b610100821061402c57600891821c9161402990826154a6565b90505b6010821061404757600491821c9161404490826154a6565b90505b6004821061406257600291821c9161405f90826154a6565b90505b60028210610ec6576110846001826154a6565b600080821161408357600080fd5b5060ff6001600160801b038216156140a7576140a0608082615421565b90506140af565b608082901c91505b67ffffffffffffffff8216156140d1576140ca604082615421565b90506140d9565b604082901c91505b63ffffffff8216156140f7576140f0602082615421565b90506140ff565b602082901c91505b61ffff82161561411b57614114601082615421565b9050614123565b601082901c91505b60ff82161561413e57614137600882615421565b9050614146565b600882901c91505b600f8216156141615761415a600482615421565b9050614169565b600482901c91505b60038216156141845761417d600282615421565b905061418c565b600282901c91505b6001821615610ec657611084600182615421565b8151156141b05781518083602001fd5b8060405162461bcd60e51b815260040161169091906154bf565b60008060008360020b126141e1578260020b6141ee565b8260020b6141ee90615272565b90506141fd620d89e7196154f2565b60020b8111156142335760405162461bcd60e51b81526020600482015260016024820152601560fa1b6044820152606401611690565b60008160011660000361424a57600160801b61425c565b6ffffcb933bd6fad37aa2d162d1a5940015b6001600160881b03169050600282161561429157608061428c826ffff97272373d413259a46990580e213a61545f565b901c90505b60048216156142bb5760806142b6826ffff2e50f5f656932ef12357cf3c7fdcc61545f565b901c90505b60088216156142e55760806142e0826fffe5caca7e10e4e61c3624eaa0941cd061545f565b901c90505b601082161561430f57608061430a826fffcb9843d60f6159c9db58835c92664461545f565b901c90505b6020821615614339576080614334826fff973b41fa98c081472e6896dfb254c061545f565b901c90505b604082161561436357608061435e826fff2ea16466c96a3843ec78b326b5286161545f565b901c90505b608082161561438d576080614388826ffe5dee046a99a2a811c461f1969c305361545f565b901c90505b6101008216156143b85760806143b3826ffcbe86c7900a88aedcffc83b479aa3a461545f565b901c90505b6102008216156143e35760806143de826ff987a7253ac413176f2b074cf7815e5461545f565b901c90505b61040082161561440e576080614409826ff3392b0822b70005940c7a398e4b70f361545f565b901c90505b610800821615614439576080614434826fe7159475a2c29b7443b29c7fa6e889d961545f565b901c90505b61100082161561446457608061445f826fd097f3bdfd2022b8845ad8f792aa582561545f565b901c90505b61200082161561448f57608061448a826fa9f746462d870fdf8a65dc1f90e061e561545f565b901c90505b6140008216156144ba5760806144b5826f70d869a156d2a1b890bb3df62baf32f761545f565b901c90505b6180008216156144e55760806144e0826f31be135f97d08fd981231505542fcfa661545f565b901c90505b6201000082161561451157608061450c826f09aa508b5b7a84e1c677de54f3e99bc961545f565b901c90505b6202000082161561453c576080614537826e5d6af8dedb81196699c329225ee60461545f565b901c90505b62040000821615614566576080614561826d2216e584f5fa1ea926041bedfe9861545f565b901c90505b6208000082161561458e576080614589826b048a170391f7dc42444e8fa261545f565b901c90505b60008460020b13156145a9576145a68160001961536c565b90505b6145b864010000000082615514565b156145c45760016145c7565b60005b61111e9060ff16602083901c615208565b6040805160e081018252600080825260208201819052909182019081526020016000815260200160008152602001600081526020016000151581525090565b5080546000825590600052602060002090810190611b329190614691565b60405180610100016040528060008152602001600081526020016000815260200160008152602001600060020b8152602001600060020b81526020016000600181111561468457614684614b65565b8152600060209091015290565b5b808211156134355760008155600101614692565b6001600160a01b0381168114611b3257600080fd5b600080604083850312156146ce57600080fd5b82356146d9816146a6565b915060208301356146e9816146a6565b809150509250929050565b60008083601f84011261470657600080fd5b50813567ffffffffffffffff81111561471e57600080fd5b60208301915083602060e08302850101111561244b57600080fd5b6000806000806040858703121561474f57600080fd5b843567ffffffffffffffff8082111561476757600080fd5b818701915087601f83011261477b57600080fd5b81358181111561478a57600080fd5b8860208260051b850101111561479f57600080fd5b6020928301965094509086013590808211156147ba57600080fd5b506147c7878288016146f4565b95989497509550505050565b600080600080608085870312156147e957600080fd5b84356147f4816146a6565b966020860135965060408601359560600135945092505050565b8015158114611b3257600080fd5b6000806040838503121561482f57600080fd5b823561483a816146a6565b915060208301356146e98161480e565b60006020828403121561485c57600080fd5b5035919050565b6000806000806080858703121561487957600080fd5b8435614884816146a6565b93506020850135614894816146a6565b925060408501356148a4816146a6565b9396929550929360600135925050565b634e487b7160e01b600052604160045260246000fd5b604051601f8201601f1916810167ffffffffffffffff811182821017156148f3576148f36148b4565b604052919050565b803560028110610ec657600080fd5b600060e0828403121561491c57600080fd5b60405160e0810181811067ffffffffffffffff8211171561493f5761493f6148b4565b6040529050808235614950816146a6565b81526020830135614960816146a6565b6020820152614971604084016148fb565b6040820152606083013560608201526080830135608082015260a083013560a082015260c08301356149a28161480e565b60c0919091015292915050565b60008061010083850312156149c357600080fd5b82359150612448846020850161490a565b6000602082840312156149e657600080fd5b81356111f2816146a6565b60008060208385031215614a0457600080fd5b823567ffffffffffffffff811115614a1b57600080fd5b614a27858286016146f4565b90969095509350505050565b600081518084526020808501945080840160005b83811015614a6357815187529582019590820190600101614a47565b509495945050505050565b6020815260006110816020830184614a33565b600080600060608486031215614a9657600080fd5b8335614aa1816146a6565b95602085013595506040909401359392505050565b600067ffffffffffffffff821115614ad057614ad06148b4565b5060051b60200190565b60006020808385031215614aed57600080fd5b823567ffffffffffffffff811115614b0457600080fd5b8301601f81018513614b1557600080fd5b8035614b28614b2382614ab6565b6148ca565b81815260059190911b82018301908381019087831115614b4757600080fd5b928401925b82841015611de657833582529284019290840190614b4c565b634e487b7160e01b600052602160045260246000fd5b60028110611b3257634e487b7160e01b600052602160045260246000fd5b80516001600160a01b039081168352602080830151909116908301526040810151614bc381614b7b565b6040830152606081810151908301526080808201519083015260a0808201519083015260c0908101511515910152565b60e081016110848284614b99565b600060c08284031215614c1357600080fd5b50919050565b600060c08284031215614c2b57600080fd5b6110818383614c01565b600080600060608486031215614c4a57600080fd5b8335614c55816146a6565b92506020840135614c65816146a6565b929592945050506040919091013590565b600060e08284031215614c1357600080fd5b60008060008060808587031215614c9e57600080fd5b8435614ca9816146a6565b93506020850135925060408501356148a4816146a6565b600060208284031215614cd257600080fd5b81356111f28161480e565b60008060408385031215614cf057600080fd5b8235614cfb816146a6565b946020939093013593505050565b600080600080600060a08688031215614d2157600080fd5b8535614d2c816146a6565b9450614d3a602087016148fb565b94979496505050506040830135926060810135926080909101359150565b60008060e08385031215614d6b57600080fd5b823591506124488460208501614c01565b8183526000602080850194508260005b85811015614a63578135614d9f816146a6565b6001600160a01b0390811688528284013590614dba826146a6565b16878401526040614dcc8382016148fb565b614dd581614b7b565b90880152606082810135908801526080808301359088015260a0808301359088015260c080830135614e068161480e565b15159088015260e0968701969190910190600101614d8c565b6001600160a01b0386168152606060208201819052810184905260006001600160fb1b03851115614e4f57600080fd5b8460051b80876080850137820182810360809081016040850152614e769082018587614d7c565b98975050505050505050565b60008060408385031215614e9557600080fd5b505080516020909101519092909150565b600060208284031215614eb857600080fd5b81516111f28161480e565b6001600160a01b038881168252878116602083015260e0820190614ee688614b7b565b87604084015286606084015285608084015280851660a08401525082151560c083015298975050505050505050565b600060208284031215614f2757600080fd5b5051919050565b634e487b7160e01b600052603260045260246000fd5b600081518084526020808501945080840160005b83811015614a6357614f6b878351614b99565b60e0969096019590820190600101614f58565b6001600160a01b0384168152606060208201819052600090614fa290830185614a33565b82810360408401526134ca8185614f44565b6001600160a01b0384168152604060208201819052600090614fd99083018486614d7c565b95945050505050565b60006020808385031215614ff557600080fd5b825167ffffffffffffffff81111561500c57600080fd5b8301601f8101851361501d57600080fd5b805161502b614b2382614ab6565b81815260059190911b8201830190838101908783111561504a57600080fd5b928401925b82841015611de65783518252928401929084019061504f565b6001600160a01b038316815260406020820181905260009061111e90830184614a33565b8035615097816146a6565b6001600160a01b0390811683526020820135906150b3826146a6565b16602083015260408181013590830152606080820135908301526080808201359083015260a08101356150e58161480e565b80151560a0840152505050565b60e08101615100828561508c565b6001600160a01b039290921660c09190910152919050565b60008060006060848603121561512d57600080fd5b8351925060208401519150604084015190509250925092565b634e487b7160e01b600052601160045260246000fd5b808201828112600083128015821682158216171561517c5761517c615146565b505092915050565b600060e0828403121561519657600080fd5b611081838361490a565b6001600160a01b038316815260406020820181905260009061111e90830184614f44565b6001600160a01b0387811682528616602082015260c081016151e586614b7b565b8560408301528460608301528360808301528260a0830152979650505050505050565b8082018082111561108457611084615146565b8381526101008101615230602083018561508c565b6001600160a01b039290921660e0919091015292915050565b8181038181111561108457611084615146565b634e487b7160e01b600052603160045260246000fd5b6000600160ff1b820161528757615287615146565b5060000390565b8181036000831280158383131683831282161715612c5957612c59615146565b634e487b7160e01b600052601260045260246000fd5b6000826152d3576152d36152ae565b600160ff1b8214600019841416156152ed576152ed615146565b500590565b604081016152ff84614b7b565b9281526020015290565b60008160020b627fffff19810361532257615322615146565b6000190192915050565b60005b8381101561534757818101518382015260200161532f565b50506000910152565b6000825161536281846020870161532c565b9190910192915050565b60008261537b5761537b6152ae565b500490565b60008160020b8360020b80615397576153976152ae565b627fffff198214600019821416156153b1576153b1615146565b90059392505050565b60008260020b806153cd576153cd6152ae565b808360020b0791505092915050565b600282810b9082900b03627fffff198112627fffff8213171561108457611084615146565b60008260020b8260020b028060020b9150808214612c5957612c59615146565b60ff828116828216039081111561108457611084615146565b600281810b9083900b01627fffff8113627fffff198212171561108457611084615146565b808202811582820484141761108457611084615146565b80820260008212600160ff1b8414161561549257615492615146565b818105831482151761108457611084615146565b60ff818116838216019081111561108457611084615146565b60208152600082518060208401526154de81604085016020870161532c565b601f01601f19169190910160400192915050565b60008160020b627fffff19810361550b5761550b615146565b60000392915050565b600082615523576155236152ae565b50069056fe416464726573733a206c6f772d6c6576656c2064656c65676174652063616c6c206661696c6564a26469706673582212200dccefea8e37dc22333cc9885b8efb3ef1bb9c54772a248f4f1a249015b927b264736f6c63430008130033",
    "linkReferences": {}
  },
  "methodIdentifiers": {
    "addLiquidity(address,uint256,uint256,uint256)": "1ece366a",
    "addMargin(address,uint256)": "cf70cb69",
    "cancelOwnershipHandover()": "54d1f13d",
    "closePosition(address,uint256,uint256)": "4fa9c4db",
    "closePositionKeeper(uint256)": "23c16e22",
    "completeOwnershipHandover(address)": "f04e283e",
    "createLimitOrder((address,address,uint8,uint256,uint256,uint256,bool))": "7eb02406",
    "createLimitOrderBatch((address,address,uint8,uint256,uint256,uint256,bool)[])": "4a6ebce7",
    "createTriggerOrder((address,address,uint256,uint256,uint256,bool))": "68d85297",
    "deleteLimitOrder(uint256)": "e859f372",
    "deleteLimitOrderBatch(uint256[])": "517237a9",
    "deleteTriggerOrder(uint256)": "da8c7e40",
    "deleverage(address,address,address,uint256)": "25a208a2",
    "getCumulativePremiumFraction(address)": "6ea41e40",
    "getDivergenceCap()": "5ac3b62d",
    "getLimitOrder(uint256)": "53061026",
    "getMinOrderbookMargin()": "987362da",
    "getOpenInterestNotional(address)": "429e9237",
    "getPosition(address,address)": "b33dc190",
    "getPositionNotionalUpnl(address,address)": "0e86a08d",
    "getReduceOnlyOrders(address,address)": "73af0205",
    "getTotalPositionSize(address)": "e980e16e",
    "getTriggerOrder(uint256)": "36cef3d9",
    "getTriggerOrders(address,address)": "54b85a3e",
    "getValidAMM(address)": "9dda4e4f",
    "initialize(address,uint256,uint256)": "7a1ac61e",
    "isActive()": "22f3e2d4",
    "isLiquidatable(address,address)": "3966a28b",
    "isTriggerOrderValid(uint256)": "dd2a65ed",
    "liquidate(address,uint256,address,uint256)": "9457be23",
    "liquidateMaker(address,address,uint256)": "7aefce97",
    "openPosition(address,uint8,uint256,uint256,uint256)": "cbb50e61",
    "owner()": "8da5cb5b",
    "ownershipHandoverExpiresAt(address)": "fee81cf4",
    "ownershipHandoverValidFor()": "d7533f02",
    "removeLiquidity(address,uint256,uint256)": "e38192e3",
    "removeMargin(address,uint256)": "b959d695",
    "renounceOwnership()": "715018a6",
    "requestOwnershipHandover()": "25692962",
    "setActive(bool)": "acec338a",
    "setDivergenceCap(uint256)": "f8b6e449",
    "setMinOrderbookMargin(uint256)": "e3046770",
    "setValidAMM(address,bool)": "207b5b6f",
    "settleFunding(address)": "6b17ad03",
    "transferOwnership(address)": "f2fde38b",
    "updateLimitOrder(uint256,(address,address,uint8,uint256,uint256,uint256,bool))": "2a120de4",
    "updateLimitOrderBatch(uint256[],(address,address,uint8,uint256,uint256,uint256,bool)[])": "13dee2d1",
    "updateTriggerOrder(uint256,(address,address,uint256,uint256,uint256,bool))": "d2435052"
  },
  "id": 42
}