{"abi":[{"type":"constructor","inputs":[{"name":"_weth","type":"address","internalType":"address"},{"name":"_insuranceFund","type":"address","internalType":"address"},{"name":"_positionManager","type":"address","internalType":"address"},{"name":"_positionMerger","type":"address","internalType":"address"},{"name":"_deleverager","type":"address","internalType":"address"},{"name":"_orderCreator","type":"address","internalType":"address"},{"name":"_whitelist","type":"address","internalType":"address"},{"name":"blast","type":"address","internalType":"address"},{"name":"_owner","type":"address","internalType":"address"}],"stateMutability":"nonpayable"},{"type":"function","name":"addLiquidity","inputs":[{"name":"amm","type":"address","internalType":"contract IRouter"},{"name":"data","type":"tuple[]","internalType":"struct LiquidityAddData[]","components":[{"name":"index","type":"uint256","internalType":"uint256"},{"name":"margin","type":"uint256","internalType":"uint256"},{"name":"leverage","type":"uint256","internalType":"uint256"}]}],"outputs":[{"name":"returnData","type":"tuple[]","internalType":"struct LiquidityAddReturnData[]","components":[{"name":"pool","type":"address","internalType":"contract IPool"},{"name":"shares","type":"uint256","internalType":"uint256"},{"name":"quote","type":"uint256","internalType":"uint256"},{"name":"base","type":"uint256","internalType":"uint256"}]}],"stateMutability":"nonpayable"},{"type":"function","name":"addMargin","inputs":[{"name":"amm","type":"address","internalType":"contract IRouter"},{"name":"margin","type":"uint256","internalType":"uint256"}],"outputs":[],"stateMutability":"nonpayable"},{"type":"function","name":"adminDeleteLimitOrders","inputs":[{"name":"ids","type":"uint256[]","internalType":"uint256[]"}],"outputs":[],"stateMutability":"nonpayable"},{"type":"function","name":"cancelOwnershipHandover","inputs":[],"outputs":[],"stateMutability":"payable"},{"type":"function","name":"closePosition","inputs":[{"name":"amm","type":"address","internalType":"contract IRouter"},{"name":"size","type":"uint256","internalType":"uint256"},{"name":"quoteLimit","type":"uint256","internalType":"uint256"}],"outputs":[{"name":"quoteAmount","type":"uint256","internalType":"uint256"}],"stateMutability":"nonpayable"},{"type":"function","name":"closePositionKeeper","inputs":[{"name":"id","type":"uint256","internalType":"uint256"}],"outputs":[{"name":"quoteAmount","type":"uint256","internalType":"uint256"}],"stateMutability":"nonpayable"},{"type":"function","name":"completeOwnershipHandover","inputs":[{"name":"pendingOwner","type":"address","internalType":"address"}],"outputs":[],"stateMutability":"payable"},{"type":"function","name":"createLimitOrder","inputs":[{"name":"order","type":"tuple","internalType":"struct LimitOrder","components":[{"name":"trader","type":"address","internalType":"address"},{"name":"amm","type":"address","internalType":"contract IRouter"},{"name":"side","type":"uint8","internalType":"enum Side"},{"name":"trigger","type":"uint256","internalType":"uint256"},{"name":"quoteAmount","type":"uint256","internalType":"uint256"},{"name":"leverage","type":"uint256","internalType":"uint256"},{"name":"reduceOnly","type":"bool","internalType":"bool"}]}],"outputs":[{"name":"id","type":"uint256","internalType":"uint256"}],"stateMutability":"nonpayable"},{"type":"function","name":"createLimitOrderBatch","inputs":[{"name":"_orders","type":"tuple[]","internalType":"struct LimitOrder[]","components":[{"name":"trader","type":"address","internalType":"address"},{"name":"amm","type":"address","internalType":"contract IRouter"},{"name":"side","type":"uint8","internalType":"enum Side"},{"name":"trigger","type":"uint256","internalType":"uint256"},{"name":"quoteAmount","type":"uint256","internalType":"uint256"},{"name":"leverage","type":"uint256","internalType":"uint256"},{"name":"reduceOnly","type":"bool","internalType":"bool"}]}],"outputs":[{"name":"ids","type":"uint256[]","internalType":"uint256[]"}],"stateMutability":"nonpayable"},{"type":"function","name":"createTriggerOrder","inputs":[{"name":"order","type":"tuple","internalType":"struct TriggerOrder","components":[{"name":"trader","type":"address","internalType":"address"},{"name":"amm","type":"address","internalType":"contract IRouter"},{"name":"trigger","type":"uint256","internalType":"uint256"},{"name":"size","type":"uint256","internalType":"uint256"},{"name":"quoteLimit","type":"uint256","internalType":"uint256"},{"name":"takeProfit","type":"bool","internalType":"bool"}]}],"outputs":[{"name":"id","type":"uint256","internalType":"uint256"}],"stateMutability":"nonpayable"},{"type":"function","name":"deleteLimitOrder","inputs":[{"name":"id","type":"uint256","internalType":"uint256"}],"outputs":[],"stateMutability":"nonpayable"},{"type":"function","name":"deleteLimitOrderBatch","inputs":[{"name":"ids","type":"uint256[]","internalType":"uint256[]"}],"outputs":[],"stateMutability":"nonpayable"},{"type":"function","name":"deleteTriggerOrder","inputs":[{"name":"id","type":"uint256","internalType":"uint256"}],"outputs":[],"stateMutability":"nonpayable"},{"type":"function","name":"deleverage","inputs":[{"name":"amm","type":"address","internalType":"contract IRouter"},{"name":"taker","type":"address","internalType":"address"},{"name":"maker","type":"address","internalType":"address"},{"name":"size","type":"uint256","internalType":"uint256"}],"outputs":[],"stateMutability":"nonpayable"},{"type":"function","name":"getCumulativePremiumFraction","inputs":[{"name":"amm","type":"address","internalType":"contract IRouter"}],"outputs":[{"name":"","type":"int256","internalType":"int256"}],"stateMutability":"view"},{"type":"function","name":"getDivergenceCap","inputs":[],"outputs":[{"name":"","type":"uint256","internalType":"uint256"}],"stateMutability":"view"},{"type":"function","name":"getFreeCollateral","inputs":[{"name":"amm","type":"address","internalType":"contract IRouter"},{"name":"trader","type":"address","internalType":"address"}],"outputs":[{"name":"","type":"int256","internalType":"int256"}],"stateMutability":"nonpayable"},{"type":"function","name":"getLimitOrder","inputs":[{"name":"id","type":"uint256","internalType":"uint256"}],"outputs":[{"name":"","type":"tuple","internalType":"struct LimitOrder","components":[{"name":"trader","type":"address","internalType":"address"},{"name":"amm","type":"address","internalType":"contract IRouter"},{"name":"side","type":"uint8","internalType":"enum Side"},{"name":"trigger","type":"uint256","internalType":"uint256"},{"name":"quoteAmount","type":"uint256","internalType":"uint256"},{"name":"leverage","type":"uint256","internalType":"uint256"},{"name":"reduceOnly","type":"bool","internalType":"bool"}]}],"stateMutability":"view"},{"type":"function","name":"getLiquidatorFlatFee","inputs":[],"outputs":[{"name":"","type":"uint256","internalType":"uint256"}],"stateMutability":"view"},{"type":"function","name":"getMinOrderbookMargin","inputs":[],"outputs":[{"name":"","type":"uint256","internalType":"uint256"}],"stateMutability":"view"},{"type":"function","name":"getOpenInterestNotional","inputs":[{"name":"amm","type":"address","internalType":"contract IRouter"}],"outputs":[{"name":"","type":"uint256","internalType":"uint256"}],"stateMutability":"view"},{"type":"function","name":"getPosition","inputs":[{"name":"amm","type":"address","internalType":"contract IRouter"},{"name":"trader","type":"address","internalType":"address"}],"outputs":[{"name":"","type":"tuple","internalType":"struct Position","components":[{"name":"size","type":"int256","internalType":"int256"},{"name":"margin","type":"uint256","internalType":"uint256"},{"name":"openNotional","type":"uint256","internalType":"uint256"},{"name":"lastPremiumFraction","type":"int256","internalType":"int256"},{"name":"blockNumber","type":"uint256","internalType":"uint256"}]}],"stateMutability":"view"},{"type":"function","name":"getPositionNotionalUpnl","inputs":[{"name":"amm","type":"address","internalType":"contract IRouter"},{"name":"trader","type":"address","internalType":"address"}],"outputs":[{"name":"positionNotional","type":"uint256","internalType":"uint256"},{"name":"upnl","type":"int256","internalType":"int256"}],"stateMutability":"nonpayable"},{"type":"function","name":"getReduceOnlyOrders","inputs":[{"name":"trader","type":"address","internalType":"address"},{"name":"amm","type":"address","internalType":"contract IRouter"}],"outputs":[{"name":"","type":"uint256[]","internalType":"uint256[]"}],"stateMutability":"view"},{"type":"function","name":"getTotalPositionSize","inputs":[{"name":"amm","type":"address","internalType":"contract IRouter"}],"outputs":[{"name":"","type":"tuple","internalType":"struct TotalPositionSize","components":[{"name":"netPositionSize","type":"int256","internalType":"int256"},{"name":"positionSizeLong","type":"uint256","internalType":"uint256"},{"name":"positionSizeShort","type":"uint256","internalType":"uint256"}]}],"stateMutability":"view"},{"type":"function","name":"getTriggerOrder","inputs":[{"name":"id","type":"uint256","internalType":"uint256"}],"outputs":[{"name":"","type":"tuple","internalType":"struct TriggerOrder","components":[{"name":"trader","type":"address","internalType":"address"},{"name":"amm","type":"address","internalType":"contract IRouter"},{"name":"trigger","type":"uint256","internalType":"uint256"},{"name":"size","type":"uint256","internalType":"uint256"},{"name":"quoteLimit","type":"uint256","internalType":"uint256"},{"name":"takeProfit","type":"bool","internalType":"bool"}]}],"stateMutability":"view"},{"type":"function","name":"getTriggerOrders","inputs":[{"name":"trader","type":"address","internalType":"address"},{"name":"amm","type":"address","internalType":"contract IRouter"}],"outputs":[{"name":"","type":"uint256[]","internalType":"uint256[]"}],"stateMutability":"view"},{"type":"function","name":"getValidAMM","inputs":[{"name":"amm","type":"address","internalType":"contract IRouter"}],"outputs":[{"name":"","type":"bool","internalType":"bool"}],"stateMutability":"view"},{"type":"function","name":"initialize","inputs":[{"name":"_owner","type":"address","internalType":"address"},{"name":"_divergenceCap","type":"uint256","internalType":"uint256"},{"name":"_minOrderbookMargin","type":"uint256","internalType":"uint256"},{"name":"blast","type":"address","internalType":"address"},{"name":"blastPoints","type":"address","internalType":"address"}],"outputs":[],"stateMutability":"nonpayable"},{"type":"function","name":"isActive","inputs":[],"outputs":[{"name":"","type":"bool","internalType":"bool"}],"stateMutability":"view"},{"type":"function","name":"isLiquidatable","inputs":[{"name":"amm","type":"address","internalType":"contract IRouter"},{"name":"trader","type":"address","internalType":"address"}],"outputs":[{"name":"","type":"bool","internalType":"bool"}],"stateMutability":"view"},{"type":"function","name":"isTriggerOrderValid","inputs":[{"name":"id","type":"uint256","internalType":"uint256"}],"outputs":[{"name":"","type":"bool","internalType":"bool"}],"stateMutability":"view"},{"type":"function","name":"liquidate","inputs":[{"name":"amm","type":"address","internalType":"contract IRouter"},{"name":"liquidatee","type":"address","internalType":"address"}],"outputs":[{"name":"liquidatorFee","type":"uint256","internalType":"uint256"}],"stateMutability":"nonpayable"},{"type":"function","name":"liquidateMaker","inputs":[{"name":"amm","type":"address","internalType":"contract IRouter"},{"name":"liquidatee","type":"address","internalType":"address"}],"outputs":[],"stateMutability":"nonpayable"},{"type":"function","name":"openPosition","inputs":[{"name":"amm","type":"address","internalType":"contract IRouter"},{"name":"side","type":"uint8","internalType":"enum Side"},{"name":"quote","type":"uint256","internalType":"uint256"},{"name":"leverage","type":"uint256","internalType":"uint256"},{"name":"baseLimit","type":"uint256","internalType":"uint256"}],"outputs":[{"name":"baseAmount","type":"uint256","internalType":"uint256"}],"stateMutability":"nonpayable"},{"type":"function","name":"owner","inputs":[],"outputs":[{"name":"result","type":"address","internalType":"address"}],"stateMutability":"view"},{"type":"function","name":"ownershipHandoverExpiresAt","inputs":[{"name":"pendingOwner","type":"address","internalType":"address"}],"outputs":[{"name":"result","type":"uint256","internalType":"uint256"}],"stateMutability":"view"},{"type":"function","name":"removeLiquidity","inputs":[{"name":"amm","type":"address","internalType":"contract IRouter"},{"name":"data","type":"tuple[]","internalType":"struct LiquidityRemoveData[]","components":[{"name":"index","type":"uint256","internalType":"uint256"},{"name":"shares","type":"uint256","internalType":"uint256"}]},{"name":"addedMargin","type":"uint256","internalType":"uint256"}],"outputs":[],"stateMutability":"nonpayable"},{"type":"function","name":"removeMargin","inputs":[{"name":"amm","type":"address","internalType":"contract IRouter"},{"name":"margin","type":"uint256","internalType":"uint256"}],"outputs":[],"stateMutability":"nonpayable"},{"type":"function","name":"renounceOwnership","inputs":[],"outputs":[],"stateMutability":"payable"},{"type":"function","name":"requestOwnershipHandover","inputs":[],"outputs":[],"stateMutability":"payable"},{"type":"function","name":"setActive","inputs":[{"name":"_active","type":"bool","internalType":"bool"}],"outputs":[],"stateMutability":"nonpayable"},{"type":"function","name":"setDivergenceCap","inputs":[{"name":"_divergenceCap","type":"uint256","internalType":"uint256"}],"outputs":[],"stateMutability":"nonpayable"},{"type":"function","name":"setLiquidatorFlatFee","inputs":[{"name":"_liquidatorFlatFee","type":"uint256","internalType":"uint256"}],"outputs":[],"stateMutability":"nonpayable"},{"type":"function","name":"setMinOrderbookMargin","inputs":[{"name":"minMargin","type":"uint256","internalType":"uint256"}],"outputs":[],"stateMutability":"nonpayable"},{"type":"function","name":"setValidAMM","inputs":[{"name":"amm","type":"address","internalType":"contract IRouter"},{"name":"valid","type":"bool","internalType":"bool"}],"outputs":[],"stateMutability":"nonpayable"},{"type":"function","name":"settleFunding","inputs":[{"name":"amm","type":"address","internalType":"contract IRouter"}],"outputs":[],"stateMutability":"nonpayable"},{"type":"function","name":"transferOwnership","inputs":[{"name":"newOwner","type":"address","internalType":"address"}],"outputs":[],"stateMutability":"payable"},{"type":"function","name":"updateLimitOrder","inputs":[{"name":"id","type":"uint256","internalType":"uint256"},{"name":"order","type":"tuple","internalType":"struct LimitOrder","components":[{"name":"trader","type":"address","internalType":"address"},{"name":"amm","type":"address","internalType":"contract IRouter"},{"name":"side","type":"uint8","internalType":"enum Side"},{"name":"trigger","type":"uint256","internalType":"uint256"},{"name":"quoteAmount","type":"uint256","internalType":"uint256"},{"name":"leverage","type":"uint256","internalType":"uint256"},{"name":"reduceOnly","type":"bool","internalType":"bool"}]}],"outputs":[],"stateMutability":"nonpayable"},{"type":"function","name":"updateLimitOrderBatch","inputs":[{"name":"ids","type":"uint256[]","internalType":"uint256[]"},{"name":"_orders","type":"tuple[]","internalType":"struct LimitOrder[]","components":[{"name":"trader","type":"address","internalType":"address"},{"name":"amm","type":"address","internalType":"contract IRouter"},{"name":"side","type":"uint8","internalType":"enum Side"},{"name":"trigger","type":"uint256","internalType":"uint256"},{"name":"quoteAmount","type":"uint256","internalType":"uint256"},{"name":"leverage","type":"uint256","internalType":"uint256"},{"name":"reduceOnly","type":"bool","internalType":"bool"}]}],"outputs":[],"stateMutability":"nonpayable"},{"type":"function","name":"updateTriggerOrder","inputs":[{"name":"id","type":"uint256","internalType":"uint256"},{"name":"order","type":"tuple","internalType":"struct TriggerOrder","components":[{"name":"trader","type":"address","internalType":"address"},{"name":"amm","type":"address","internalType":"contract IRouter"},{"name":"trigger","type":"uint256","internalType":"uint256"},{"name":"size","type":"uint256","internalType":"uint256"},{"name":"quoteLimit","type":"uint256","internalType":"uint256"},{"name":"takeProfit","type":"bool","internalType":"bool"}]}],"outputs":[],"stateMutability":"nonpayable"},{"type":"event","name":"AMMInvalidated","inputs":[{"name":"amm","type":"address","indexed":true,"internalType":"contract IRouter"}],"anonymous":false},{"type":"event","name":"AMMValidated","inputs":[{"name":"amm","type":"address","indexed":true,"internalType":"contract IRouter"}],"anonymous":false},{"type":"event","name":"Activated","inputs":[],"anonymous":false},{"type":"event","name":"Deactivated","inputs":[],"anonymous":false},{"type":"event","name":"DivergenceCapChanged","inputs":[{"name":"divergenceCap","type":"uint256","indexed":false,"internalType":"uint256"}],"anonymous":false},{"type":"event","name":"FeeDistributed","inputs":[{"name":"amm","type":"address","indexed":true,"internalType":"contract IRouter"},{"name":"payer","type":"address","indexed":true,"internalType":"address"},{"name":"receiver","type":"address","indexed":true,"internalType":"address"},{"name":"id","type":"uint256","indexed":false,"internalType":"uint256"},{"name":"amount","type":"uint256","indexed":false,"internalType":"uint256"},{"name":"feeType","type":"uint8","indexed":false,"internalType":"enum FeeType"}],"anonymous":false},{"type":"event","name":"FundingSettled","inputs":[{"name":"amm","type":"address","indexed":true,"internalType":"contract IRouter"},{"name":"markPrice","type":"uint256","indexed":false,"internalType":"uint256"},{"name":"indexPrice","type":"uint256","indexed":false,"internalType":"uint256"},{"name":"premiumFraction","type":"int256","indexed":false,"internalType":"int256"}],"anonymous":false},{"type":"event","name":"Initialized","inputs":[{"name":"version","type":"uint8","indexed":false,"internalType":"uint8"}],"anonymous":false},{"type":"event","name":"LimitOrderRemoved","inputs":[{"name":"id","type":"uint256","indexed":true,"internalType":"uint256"},{"name":"amm","type":"address","indexed":true,"internalType":"contract IRouter"},{"name":"trader","type":"address","indexed":true,"internalType":"address"},{"name":"result","type":"uint8","indexed":false,"internalType":"enum LimitOrderResult"}],"anonymous":false},{"type":"event","name":"LimitOrderUpdated","inputs":[{"name":"id","type":"uint256","indexed":true,"internalType":"uint256"},{"name":"amm","type":"address","indexed":true,"internalType":"contract IRouter"},{"name":"trader","type":"address","indexed":true,"internalType":"address"},{"name":"order","type":"tuple","indexed":false,"internalType":"struct LimitOrder","components":[{"name":"trader","type":"address","internalType":"address"},{"name":"amm","type":"address","internalType":"contract IRouter"},{"name":"side","type":"uint8","internalType":"enum Side"},{"name":"trigger","type":"uint256","internalType":"uint256"},{"name":"quoteAmount","type":"uint256","internalType":"uint256"},{"name":"leverage","type":"uint256","internalType":"uint256"},{"name":"reduceOnly","type":"bool","internalType":"bool"}]}],"anonymous":false},{"type":"event","name":"LiquidityAdded","inputs":[{"name":"amm","type":"address","indexed":true,"internalType":"contract IRouter"},{"name":"maker","type":"address","indexed":true,"internalType":"address"}],"anonymous":false},{"type":"event","name":"LiquidityRemoved","inputs":[{"name":"amm","type":"address","indexed":true,"internalType":"contract IRouter"},{"name":"trader","type":"address","indexed":true,"internalType":"address"}],"anonymous":false},{"type":"event","name":"MarginAdded","inputs":[{"name":"amm","type":"address","indexed":true,"internalType":"contract IRouter"},{"name":"trader","type":"address","indexed":true,"internalType":"address"},{"name":"amount","type":"uint256","indexed":false,"internalType":"uint256"}],"anonymous":false},{"type":"event","name":"MarginRemoved","inputs":[{"name":"amm","type":"address","indexed":true,"internalType":"contract IRouter"},{"name":"trader","type":"address","indexed":true,"internalType":"address"},{"name":"amount","type":"uint256","indexed":false,"internalType":"uint256"}],"anonymous":false},{"type":"event","name":"MinOrderbookMarginChanged","inputs":[{"name":"minOrderbookMargin","type":"uint256","indexed":false,"internalType":"uint256"}],"anonymous":false},{"type":"event","name":"OpenInterestChanged","inputs":[{"name":"amm","type":"address","indexed":true,"internalType":"contract IRouter"},{"name":"newOpenInterest","type":"uint256","indexed":false,"internalType":"uint256"}],"anonymous":false},{"type":"event","name":"OwnershipHandoverCanceled","inputs":[{"name":"pendingOwner","type":"address","indexed":true,"internalType":"address"}],"anonymous":false},{"type":"event","name":"OwnershipHandoverRequested","inputs":[{"name":"pendingOwner","type":"address","indexed":true,"internalType":"address"}],"anonymous":false},{"type":"event","name":"OwnershipTransferred","inputs":[{"name":"oldOwner","type":"address","indexed":true,"internalType":"address"},{"name":"newOwner","type":"address","indexed":true,"internalType":"address"}],"anonymous":false},{"type":"event","name":"PositionChanged","inputs":[{"name":"amm","type":"address","indexed":true,"internalType":"contract IRouter"},{"name":"trader","type":"address","indexed":true,"internalType":"address"},{"name":"margin","type":"uint256","indexed":false,"internalType":"uint256"},{"name":"size","type":"int256","indexed":false,"internalType":"int256"},{"name":"openNotional","type":"uint256","indexed":false,"internalType":"uint256"},{"name":"exchangedQuote","type":"uint256","indexed":false,"internalType":"uint256"},{"name":"exchangedBase","type":"int256","indexed":false,"internalType":"int256"},{"name":"realizedPnL","type":"int256","indexed":false,"internalType":"int256"},{"name":"fundingPayment","type":"int256","indexed":false,"internalType":"int256"},{"name":"markPrice","type":"uint256","indexed":false,"internalType":"uint256"},{"name":"tradeType","type":"uint8","indexed":false,"internalType":"enum TradeType"}],"anonymous":false},{"type":"event","name":"TriggerOrderRemoved","inputs":[{"name":"id","type":"uint256","indexed":true,"internalType":"uint256"},{"name":"amm","type":"address","indexed":true,"internalType":"contract IRouter"},{"name":"trader","type":"address","indexed":true,"internalType":"address"},{"name":"keeper","type":"address","indexed":false,"internalType":"address"}],"anonymous":false},{"type":"event","name":"TriggerOrderUpdated","inputs":[{"name":"id","type":"uint256","indexed":true,"internalType":"uint256"},{"name":"amm","type":"address","indexed":true,"internalType":"contract IRouter"},{"name":"trader","type":"address","indexed":true,"internalType":"address"},{"name":"order","type":"tuple","indexed":false,"internalType":"struct TriggerOrder","components":[{"name":"trader","type":"address","internalType":"address"},{"name":"amm","type":"address","internalType":"contract IRouter"},{"name":"trigger","type":"uint256","internalType":"uint256"},{"name":"size","type":"uint256","internalType":"uint256"},{"name":"quoteLimit","type":"uint256","internalType":"uint256"},{"name":"takeProfit","type":"bool","internalType":"bool"}]}],"anonymous":false},{"type":"error","name":"AMM_IS_ACTIVE","inputs":[]},{"type":"error","name":"AlreadyInitialized","inputs":[]},{"type":"error","name":"BAD_DEBT","inputs":[]},{"type":"error","name":"INACTIVE","inputs":[]},{"type":"error","name":"INSUFFICIENT_LIQUIDITY","inputs":[]},{"type":"error","name":"INSUFFICIENT_MARGIN","inputs":[]},{"type":"error","name":"INSUFFICIENT_OPEN_NOTIONAL","inputs":[]},{"type":"error","name":"INSUFFICIENT_SIZE","inputs":[]},{"type":"error","name":"INVALID_AMM","inputs":[]},{"type":"error","name":"INVALID_SIDE","inputs":[]},{"type":"error","name":"INVALID_TRIGGER_AMOUNT","inputs":[]},{"type":"error","name":"LEVERAGE_UNDER_1X","inputs":[]},{"type":"error","name":"LIQUIDATABLE","inputs":[]},{"type":"error","name":"NOT_LIMIT_CLOSE","inputs":[]},{"type":"error","name":"NOT_LIQUIDATABLE","inputs":[]},{"type":"error","name":"NOT_REDUCE_ONLY","inputs":[]},{"type":"error","name":"NOT_TRADER","inputs":[]},{"type":"error","name":"NO_POOL_IN_RANGE","inputs":[]},{"type":"error","name":"NO_POSITION","inputs":[]},{"type":"error","name":"NewOwnerIsZeroAddress","inputs":[]},{"type":"error","name":"NoHandoverRequest","inputs":[]},{"type":"error","name":"OPEN_INTEREST_CAP_EXCEEDED","inputs":[]},{"type":"error","name":"OVER_DIVERGENCE_CAP","inputs":[]},{"type":"error","name":"OVER_MAX_LEVERAGE","inputs":[]},{"type":"error","name":"OVER_MAX_SIZE","inputs":[]},{"type":"error","name":"POSITION_ON_WRONG_SIDE","inputs":[]},{"type":"error","name":"SANDWICH","inputs":[]},{"type":"error","name":"TRIGGER_INVALID","inputs":[]},{"type":"error","name":"TRIGGER_ON_MARK","inputs":[]},{"type":"error","name":"Unauthorized","inputs":[]}],"bytecode":{"object":"0x6101606040523480156200001257600080fd5b5060405162004d6c38038062004d6c833981016040819052620000359162000233565b6001600160a01b03808a166080528881166101205287811660a05286811660c05285811660e052848116610100528316610140526200007582826200008e565b6200007f62000155565b505050505050505050620002ee565b6001600160a01b038216156200015157816001600160a01b0316634e606c476040518163ffffffff1660e01b8152600401600060405180830381600087803b158015620000da57600080fd5b505af1158015620000ef573d6000803e3d6000fd5b5050604051631d70c8d360e31b81526001600160a01b0384811660048301528516925063eb8646989150602401600060405180830381600087803b1580156200013757600080fd5b505af11580156200014c573d6000803e3d6000fd5b505050505b5050565b604154610100900460ff1615620001c25760405162461bcd60e51b815260206004820152602760248201527f496e697469616c697a61626c653a20636f6e747261637420697320696e697469604482015266616c697a696e6760c81b606482015260840160405180910390fd5b60415460ff9081161462000214576041805460ff191660ff9081179091556040519081527f7f26b83ff96e1f2b6a682f133852f6798a09c465da95921460cefb38474024989060200160405180910390a15b565b80516001600160a01b03811681146200022e57600080fd5b919050565b60008060008060008060008060006101208a8c0312156200025357600080fd5b6200025e8a62000216565b98506200026e60208b0162000216565b97506200027e60408b0162000216565b96506200028e60608b0162000216565b95506200029e60808b0162000216565b9450620002ae60a08b0162000216565b9350620002be60c08b0162000216565b9250620002ce60e08b0162000216565b9150620002df6101008b0162000216565b90509295985092959850929598565b60805160a05160c05160e051610100516101205161014051614989620003e360003960008181611283015281816112c70152818161191c0152818161196001528181611f1401528181611f580152818161266001526126a401526000610aef015260008181610d770152818161137b015281816114e5015281816116b90152818161185201526121c401526000611168015260008181610cd701528181611c5401526123f801526000818161104d01528181611b0f0152612039015260008181610acd01528181610b4f01528181611e9b015281816120d30152818161235b01528181612431015261279f01526149896000f3fe6080604052600436106102445760003560e01c806303b54d52146102495780630e5389a11461026b5780630e86a08d1461028f57806313dee2d1146102c4578063207b5b6f146102e457806322f3e2d41461030457806323c16e221461032e578063256929621461034e57806325a208a2146103565780632a120de41461037657806333d3bd301461039657806336cef3d9146103b65780633966a28b146104c4578063429e9237146104e45780634a6ebce71461051a5780634fa9c4db14610547578063517237a914610567578063530610261461058757806354b85a3e146105b457806354d1f13d146105d45780635ac3b62d146105dc57806368d85297146105f15780636b17ad03146106115780636ea41e40146106315780636f82317b14610667578063715018a61461068757806373af02051461068f5780637d6727ed146106af5780637eb02406146106cf57806386b9d81f146106ef5780638da5cb5b1461070f578063987362da146107315780639dda4e4f146107465780639fddd8d21461077f578063acec338a1461079f578063b33dc190146107bf578063b959d695146107ec578063cbb50e611461080c578063cf70cb691461082c578063d24350521461084c578063da8c7e401461086c578063db1b5c971461088c578063dd2a65ed146108ac578063e3046770146108cc578063e859f372146108ec578063e980e16e1461090c578063efdb94231461094e578063f04e283e1461097b578063f2fde38b1461098e578063f8b6e449146109a1578063fee81cf4146109c1575b600080fd5b34801561025557600080fd5b5061026961026436600461389b565b6109f4565b005b34801561027757600080fd5b506010545b6040519081526020015b60405180910390f35b34801561029b57600080fd5b506102af6102aa3660046138fa565b610c7f565b60408051928352602083019190915201610286565b3480156102d057600080fd5b506102696102df36600461397e565b610d1f565b3480156102f057600080fd5b506102696102ff366004613a25565b610da4565b34801561031057600080fd5b5060415462010000900460ff165b6040519015158152602001610286565b34801561033a57600080fd5b5061027c610349366004613a53565b610ed3565b6102696110a4565b34801561036257600080fd5b50610269610371366004613a6c565b6110f3565b34801561038257600080fd5b50610269610391366004613bde565b61118e565b3480156103a257600080fd5b5061027c6103b13660046138fa565b611244565b3480156103c257600080fd5b5061046d6103d1366004613a53565b6040805160c081018252600080825260208201819052918101829052606081018290526080810182905260a0810191909152506000908152600b6020908152604091829020825160c08101845281546001600160a01b03908116825260018301541692810192909252600281015492820192909252600382015460608201526004820154608082015260059091015460ff16151560a082015290565b604051610286919081516001600160a01b0390811682526020808401519091169082015260408083015190820152606080830151908201526080808301519082015260a09182015115159181019190915260c00190565b3480156104d057600080fd5b5061031e6104df3660046138fa565b611262565b3480156104f057600080fd5b5061027c6104ff366004613c0c565b6001600160a01b031660009081526006602052604090205490565b34801561052657600080fd5b5061053a610535366004613c29565b611277565b6040516102869190613c99565b34801561055357600080fd5b5061027c610562366004613cac565b6113bf565b34801561057357600080fd5b50610269610582366004613d04565b611493565b34801561059357600080fd5b506105a76105a2366004613a53565b61150b565b6040516102869190613e13565b3480156105c057600080fd5b5061053a6105cf3660046138fa565b6115b7565b610269611630565b3480156105e857600080fd5b50600d5461027c565b3480156105fd57600080fd5b5061027c61060c366004613e39565b61166c565b34801561061d57600080fd5b5061026961062c366004613c0c565b6116f5565b34801561063d57600080fd5b5061027c61064c366004613c0c565b6001600160a01b031660009081526004602052604090205490565b34801561067357600080fd5b50610269610682366004613d04565b611802565b610269611878565b34801561069b57600080fd5b5061053a6106aa3660046138fa565b61188c565b3480156106bb57600080fd5b506102696106ca366004613a53565b611903565b3480156106db57600080fd5b5061027c6106ea366004613e55565b611910565b3480156106fb57600080fd5b5061027c61070a3660046138fa565b611a7e565b34801561071b57600080fd5b50610724611b4b565b6040516102869190613e67565b34801561073d57600080fd5b50600e5461027c565b34801561075257600080fd5b5061031e610761366004613c0c565b6001600160a01b031660009081526003602052604090205460ff1690565b34801561078b57600080fd5b5061026961079a3660046138fa565b611b55565b3480156107ab57600080fd5b506102696107ba366004613e7b565b611ccb565b3480156107cb57600080fd5b506107df6107da3660046138fa565b611d4c565b6040516102869190613ec8565b3480156107f857600080fd5b50610269610807366004613ed6565b611d5e565b34801561081857600080fd5b5061027c610827366004613f02565b611f08565b34801561083857600080fd5b50610269610847366004613ed6565b61208a565b34801561085857600080fd5b50610269610867366004613f51565b612178565b34801561087857600080fd5b50610269610887366004613a53565b6121ef565b34801561089857600080fd5b506102696108a7366004613f75565b6122b1565b3480156108b857600080fd5b5061031e6108c7366004613a53565b612497565b3480156108d857600080fd5b506102696108e7366004613a53565b61254a565b3480156108f857600080fd5b50610269610907366004613a53565b61258e565b34801561091857600080fd5b5061092c610927366004613c0c565b6125ee565b6040805182518152602080840151908201529181015190820152606001610286565b34801561095a57600080fd5b5061096e610969366004614002565b612654565b6040516102869190614089565b610269610989366004613c0c565b612805565b61026961099c366004613c0c565b612842565b3480156109ad57600080fd5b506102696109bc366004613a53565b612869565b3480156109cd57600080fd5b5061027c6109dc366004613c0c565b63389a75e1600c908152600091909152602090205490565b604154610100900460ff1615808015610a145750604154600160ff909116105b80610a355750610a23306128a6565b158015610a35575060415460ff166001145b610a9d5760405162461bcd60e51b815260206004820152602e60248201527f496e697469616c697a61626c653a20636f6e747261637420697320616c72656160448201526d191e481a5b9a5d1a585b1a5e995960921b60648201526084015b60405180910390fd5b6041805460ff191660011790558015610ac0576041805461ff0019166101001790555b610b166001600160a01b037f0000000000000000000000000000000000000000000000000000000000000000167f00000000000000000000000000000000000000000000000000000000000000006000196128b5565b600d859055600e849055610b29866128fb565b6001600160a01b03831615610c3157604051631a33757d60e01b81526001600160a01b037f00000000000000000000000000000000000000000000000000000000000000001690631a33757d90610b85906002906004016140f6565b6020604051808303816000875af1158015610ba4573d6000803e3d6000fd5b505050506040513d601f19601f82011682018060405250810190610bc89190614110565b506040516336b91f2b60e01b81526001600160a01b038316906336b91f2b90610bf5908990600401613e67565b600060405180830381600087803b158015610c0f57600080fd5b505af1158015610c23573d6000803e3d6000fd5b50505050610c318387612925565b8015610c77576041805461ff0019169055604051600181527f7f26b83ff96e1f2b6a682f133852f6798a09c465da95921460cefb38474024989060200160405180910390a15b505050505050565b6000806000610cfd85610c9287876129e1565b604051602401610ca3929190614129565b60408051601f198184030181529190526020810180516001600160e01b03166334fccb6d60e21b1790526001600160a01b037f00000000000000000000000000000000000000000000000000000000000000001690612a4c565b905080806020019051810190610d139190614146565b90969095509350505050565b610d27612a71565b610d9d3385858585604051602401610d4395949392919061420e565b60408051601f198184030181529190526020810180516001600160e01b031663e98143ad60e01b1790526001600160a01b037f00000000000000000000000000000000000000000000000000000000000000001690612a4c565b5050505050565b610dac612a9a565b80158015610e175750816001600160a01b03166322f3e2d46040518163ffffffff1660e01b8152600401602060405180830381865afa158015610df3573d6000803e3d6000fd5b505050506040513d601f19601f82011682018060405250810190610e179190614271565b15610e355760405163cdd8a30360e01b815260040160405180910390fd5b6001600160a01b0382166000908152600360205260409020805460ff19168215801591909117909155610e9a576040516001600160a01b038316907fe541249509232f3b648c653a6759a750d245da1a7b3e0b3878d4b5d3f4fcec1190600090a25050565b6040516001600160a01b038316907f0cf3718d7b5134fb0be63caea34ab4b8e6f19d5b5c3c4f7b4cfb00db821204ae90600090a25b5050565b6000610edd612a71565b6000828152600b6020908152604091829020825160c08101845281546001600160a01b03908116825260018301541692810183905260028201549381019390935260038101546060840152600481015460808401526005015460ff16151560a0830152610f4990612ab5565b610f5b81602001518260000151612aee565b6000610f6f82602001518360000151612b1b565b90506000610f7c82612b62565b9050610fa7836020015160008413610f95576001610f98565b60005b85604001518660a00151612b71565b8083606001511115610fbb57606083018190525b6000808313610fcb576000610fce565b60015b9050610fe4846020015187866000015133612ba0565b83516020850151606086015160808701516040516000946110739461101994919390928892919033908b84149060240161428e565b60408051601f198184030181529190526020810180516001600160e01b0316637b9db48760e11b1790526001600160a01b037f00000000000000000000000000000000000000000000000000000000000000001690612a4c565b9050611083856020015183612ddc565b808060200190518101906110979190614110565b955050505050505b919050565b60006202a3006001600160401b03164201905063389a75e1600c5233600052806020600c2055337fdbf36a107da19e49527a7176a1babf963b4b0ff8cde35ee35d6cd8f1f9ac7e1d600080a250565b6110fb612a9a565b61110484612ab5565b6040516001600160a01b03808616602483015280851660448301528316606482015260848101829052610d9d9060a40160408051601f198184030181529190526020810180516001600160e01b03166312d1045160e11b1790526001600160a01b037f00000000000000000000000000000000000000000000000000000000000000001690612a4c565b611196612a71565b604080516001808252818301909252600091816020015b6111b56137ea565b8152602001906001900390816111ad57505060408051600180825281830190925291925060009190602080830190803683370190505090508282600081518110611201576112016142de565b60200260200101819052508381600081518110611220576112206142de565b602002602001018181525050610d9d338284604051602401610d439392919061432e565b60006112598361125485856129e1565b612f32565b90505b92915050565b60006112598361127285856129e1565b61304c565b6060611281612a71565b7f00000000000000000000000000000000000000000000000000000000000000006001600160a01b03161561132d57604051633026f7e360e11b81526001600160a01b037f0000000000000000000000000000000000000000000000000000000000000000169063604defc6906112fc903390600401613e67565b60006040518083038186803b15801561131457600080fd5b505afa158015611328573d6000803e3d6000fd5b505050505b60006113a133858560405160240161134793929190614364565b60408051601f198184030181529190526020810180516001600160e01b0316638b69f89760e01b1790526001600160a01b037f00000000000000000000000000000000000000000000000000000000000000001690612a4c565b9050808060200190518101906113b79190614392565b949350505050565b60006113c9612a71565b6113d284612ab5565b6113dc8433612aee565b60006113e88533612b1b565b905060006113f582612b62565b90508085111561141857604051631eab837160e11b815260040160405180910390fd5b8460000361142b5760009250505061148c565b600080831361143b57600061143e565b60015b905060006114653389848a8a6000898e14604051602401611019979695949392919061428e565b90506114718883612ddc565b808060200190518101906114859190614110565b9450505050505b9392505050565b61149b612a71565b610ecf33826040516024016114b1929190614417565b60408051601f198184030181529190526020810180516001600160e01b0316637d5eb41f60e01b1790526001600160a01b037f00000000000000000000000000000000000000000000000000000000000000001690612a4c565b6115136137ea565b6000828152600a6020908152604091829020825160e08101845281546001600160a01b039081168252600180840154918216948301949094529093919291840191600160a01b90910460ff169081111561156f5761156f613d8e565b600181111561158057611580613d8e565b815260028201546020820152600382015460408201526004820154606082015260059091015460ff16151560809091015292915050565b6001600160a01b03808316600090815260096020908152604080832093851683529281529082902080548351818402810184019094528084526060939283018282801561162357602002820191906000526020600020905b81548152602001906001019080831161160f575b5050505050905092915050565b63389a75e1600c523360005260006020600c2055337ffa7b8eab7da67f412cc9575ed43464468f9bfbae89d1675917346ca6d8fe3c92600080a2565b6000806116df83336040516024016116859291906144a1565b60408051601f198184030181529190526020810180516001600160e01b0316631da5734360e21b1790526001600160a01b037f00000000000000000000000000000000000000000000000000000000000000001690612a4c565b90508080602001905181019061148c9190614110565b6116fd612a71565b61170681612ab5565b6000806000836001600160a01b031663ed83d79c6040518163ffffffff1660e01b81526004016060604051808303816000875af115801561174b573d6000803e3d6000fd5b505050506040513d601f19601f8201168201806040525081019061176f91906144c7565b6001600160a01b038716600090815260046020526040902054929550909350915061179a848261450b565b6001600160a01b0386166000818152600460209081526040918290208490558151878152908101869052908101839052919250907fbfed1e6debfebfaef8f787a2e2c506676d0e9e9f06d217ef82d090151af844e89060600160405180910390a25050505050565b61180a612a9a565b610ecf8160405160240161181e9190613c99565b60408051601f198184030181529190526020810180516001600160e01b0316636f82317b60e01b1790526001600160a01b037f00000000000000000000000000000000000000000000000000000000000000001690612a4c565b611880612a9a565b61188a6000613189565b565b6001600160a01b038083166000908152600860209081526040808320938516835292815290829020805483518184028101840190945280845260609392830182828015611623576020028201919060005260206000209081548152602001906001019080831161160f575050505050905092915050565b61190b612a9a565b601055565b600061191a612a71565b7f00000000000000000000000000000000000000000000000000000000000000006001600160a01b0316156119c657604051633026f7e360e11b81526001600160a01b037f0000000000000000000000000000000000000000000000000000000000000000169063604defc690611995903390600401613e67565b60006040518083038186803b1580156119ad57600080fd5b505afa1580156119c1573d6000803e3d6000fd5b505050505b604080516001808252818301909252600091816020015b6119e56137ea565b8152602001906001900390816119dd579050509050611a0936849003840184614533565b81600081518110611a1c57611a1c6142de565b60200260200101819052506000611a3f338360405160240161134792919061454f565b9050600081806020019051810190611a579190614392565b905080600081518110611a6c57611a6c6142de565b60200260200101519350505050919050565b6000611a88612a71565b611a9183612ab5565b611a9f8361127285856129e1565b611abc57604051633da1f7d160e11b815260040160405180910390fd5b6000611b35848433600080604051602401611adb959493929190614573565b60408051601f198184030181529190526020810180516001600160e01b0316636f70e66f60e01b1790526001600160a01b037f00000000000000000000000000000000000000000000000000000000000000001690612a4c565b9050808060200190518101906113b79190614110565b638b78c6d8195490565b611b5d612a71565b611b6682612ab5565b6000806000846001600160a01b0316631bde66e7856040518263ffffffff1660e01b8152600401611b979190613e67565b6060604051808303816000875af1158015611bb6573d6000803e3d6000fd5b505050506040513d601f19601f82011682018060405250810190611bda91906144c7565b6040516001600160a01b03808a166024830152336044830152881660648201526084810184905260a4810183905260c481018290529295509093509150600090611c7a9060e40160408051601f198184030181529190526020810180516001600160e01b031662312c6d60e21b1790526001600160a01b037f00000000000000000000000000000000000000000000000000000000000000001690612a4c565b9050600080600083806020019051810190611c9591906145a7565b9250925092508215611cc057611cbd8989338486604051602401611adb959493929190614573565b93505b505050505050505050565b611cd3612a9a565b6041805482158015620100000262ff00001990921691909117909155611d1f576040517fed1cd0670ee0c0017f550451a038818c696d0b6a9d6ce5b369e44275573cf9b090600090a150565b6040517f1142a68cc39970640eb3524e77b91f78be21abc64f20f5919387eb46699bb77290600090a15b50565b611d54613829565b61125983836129e1565b611d66612a71565b611d6f82612ab5565b6001600160a01b0382166000908152602081815260408083203384528252808320815160a081018352815481526001820154938101849052600282015492810192909252600381015460608301526004015460808201529103611de557604051631d5fdf4760e11b815260040160405180910390fd5b6000611e048483611dff86670de0b6b3a763ffff196131b5565b613202565b90508060400151600014611e2b57604051632c7c1d6360e11b815260040160405180910390fd5b6060808201516020840152815190830152611e4684836132f7565b6001600160a01b038085166000908152602081815260408083203380855290835292819020865181559186015160018301558501516002820155606085015160038201556080850151600490910155611ec2917f0000000000000000000000000000000000000000000000000000000000000000169085613322565b60405183815233906001600160a01b038616907fb0fa03f93c852a6feaaeb34ccf4cf865cc223c4cc9d25dce28a9131fde2710719060200160405180910390a350505050565b6000611f12612a71565b7f00000000000000000000000000000000000000000000000000000000000000006001600160a01b031615611fbe57604051633026f7e360e11b81526001600160a01b037f0000000000000000000000000000000000000000000000000000000000000000169063604defc690611f8d903390600401613e67565b60006040518083038186803b158015611fa557600080fd5b505afa158015611fb9573d6000803e3d6000fd5b505050505b611fc786612ab5565b611fd18633612aee565b611fe58685611fe0818761335e565b613373565b600061205f338888888888604051602401612005969594939291906145de565b60408051601f198184030181529190526020810180516001600160e01b03166310faff9560e31b1790526001600160a01b037f00000000000000000000000000000000000000000000000000000000000000001690612a4c565b905061206b8787612ddc565b8080602001905181019061207f9190614110565b979650505050505050565b612092612a71565b61209b82612ab5565b6120a582336129e1565b516000036120c657604051631d5fdf4760e11b815260040160405180910390fd5b6120fb6001600160a01b037f000000000000000000000000000000000000000000000000000000000000000016333084613408565b6001600160a01b0382166000908152602081815260408083203384529091528120600101805483929061212f908490614620565b909155505060405181815233906001600160a01b038416907f05c2d01f05f37971d15b22586be2f1933a1ae8c0079a056a430b4391550ffb2d9060200160405180910390a35050565b6121ea82823360405160240161219093929190614633565b60408051601f198184030181529190526020810180516001600160e01b03166312fd759760e11b1790526001600160a01b037f00000000000000000000000000000000000000000000000000000000000000001690612a4c565b505050565b6000818152600b6020908152604091829020825160c08101845281546001600160a01b0390811680835260018401549091169382019390935260028201549381019390935260038101546060840152600481015460808401526005015460ff16151560a0830152331480159061227e5750612268611b4b565b6001600160a01b0316336001600160a01b031614155b1561229c576040516342f062b760e01b815260040160405180910390fd5b610ecf81602001518383600001516000612ba0565b6122b9612a71565b6122c284612ab5565b6000806000866001600160a01b031663f39508f83388886040518463ffffffff1660e01b81526004016122f793929190614661565b6060604051808303816000875af1158015612316573d6000803e3d6000fd5b505050506040513d601f19601f8201168201806040525081019061233a91906144c7565b92509250925082600014612424578315612383576123836001600160a01b037f000000000000000000000000000000000000000000000000000000000000000016333087613408565b61241e87336123928785614620565b6040516001600160a01b03938416602482015292909116604483015260648201526084810185905260a4810184905260c40160408051601f198184030181529190526020810180516001600160e01b0316636e6f167560e01b1790526001600160a01b037f00000000000000000000000000000000000000000000000000000000000000001690612a4c565b50612458565b6124586001600160a01b037f0000000000000000000000000000000000000000000000000000000000000000163383613322565b60405133906001600160a01b038916907fd04e6350fe09fd82d32a2e9549de19274bab2fafa4013189498798d981a763e790600090a350505050505050565b6000818152600b60209081526040808320815160c08101835281546001600160a01b039081168083526001840154909116948201859052600283015493820193909352600382015460608201526004820154608082015260059091015460ff16151560a082015291839161250b91906129e1565b5190506000819003612521575060009392505050565b6113b782602001516000831361253857600161253b565b60005b84604001518560a0015161345c565b612552612a9a565b600e8190556040518181527f577724f96ac2a3cf85a2f91a90bfb1e890d4604525edcfeaaad826163fe9a1a9906020015b60405180910390a150565b612596612a71565b6040805160018082528183019092526000916020808301908036833701905050905081816000815181106125cc576125cc6142de565b6020026020010181815250506121ea33826040516024016114b1929190614417565b61261260405180606001604052806000815260200160008152602001600081525090565b506001600160a01b0316600090815260056020908152604091829020825160608101845281548152600182015492810192909252600201549181019190915290565b606061265e612a71565b7f00000000000000000000000000000000000000000000000000000000000000006001600160a01b03161561270a57604051633026f7e360e11b81526001600160a01b037f0000000000000000000000000000000000000000000000000000000000000000169063604defc6906126d9903390600401613e67565b60006040518083038186803b1580156126f157600080fd5b505afa158015612705573d6000803e3d6000fd5b505050505b61271384612ab5565b60405163efdb942360e01b81526000906001600160a01b0386169063efdb942390612746903390889088906004016146ba565b6000604051808303816000875af1158015612765573d6000803e3d6000fd5b505050506040513d6000823e601f3d908101601f1916820160405261278d919081019061471e565b90925090506127c76001600160a01b037f000000000000000000000000000000000000000000000000000000000000000016333084613408565b60405133906001600160a01b038716907f99e877011be95eb42bf6be0d3db080f9a2f0256536d7713ce401a3c971e0527e90600090a3509392505050565b61280d612a9a565b63389a75e1600c52806000526020600c20805442111561283557636f5e88186000526004601cfd5b60009055611d4981613189565b61284a612a9a565b8060601b61286057637448fbae6000526004601cfd5b611d4981613189565b612871612a9a565b600d8190556040518181527fc207d9444020fb76b81600635e7137d0a86fc95b69e50b1c84197ea18127d60690602001612583565b6001600160a01b03163b151590565b816014528060345263095ea7b360601b60005260206000604460106000875af13d1560016000511417166128f157633e3f8f736000526004601cfd5b6000603452505050565b6001600160a01b0316638b78c6d81981905580600060008051602061490d8339815191528180a350565b6001600160a01b03821615610ecf57816001600160a01b0316634e606c476040518163ffffffff1660e01b8152600401600060405180830381600087803b15801561296f57600080fd5b505af1158015612983573d6000803e3d6000fd5b5050604051631d70c8d360e31b81526001600160a01b038516925063eb86469891506129b3908490600401613e67565b600060405180830381600087803b1580156129cd57600080fd5b505af1158015610c77573d6000803e3d6000fd5b6129e9613829565b506001600160a01b03918216600090815260208181526040808320939094168252918252829020825160a0810184528154815260018201549281019290925260028101549282019290925260038201546060820152600490910154608082015290565b6060611259838360405180606001604052806027815260200161492d60279139613514565b60415462010000900460ff1661188a57604051637dc579d960e11b815260040160405180910390fd5b638b78c6d81954331461188a576382b429006000526004601cfd5b6001600160a01b03811660009081526003602052604090205460ff16611d49576040516304c1bb0360e11b815260040160405180910390fd5b612af882826129e1565b608001514303610ecf5760405163fd4b12b160e01b815260040160405180910390fd5b6001600160a01b038083166000908152602081815260408083209385168352929052908120549081900361125c57604051631d5fdf4760e11b815260040160405180910390fd5b60ff81901c6000039081011890565b612b7d8484848461345c565b612b9a576040516315f3d48360e01b815260040160405180910390fd5b50505050565b6000838152600b6020908152604080832080546001600160a01b031990811682556001820180549091169055600281018490556003810184905560048101849055600501805460ff191690556001600160a01b038581168452600983528184209088168452825280832080548251818502810185019093528083529192909190830182828015612c4f57602002820191906000526020600020905b815481526020019060010190808311612c3b575b5050505050905060008151905080600103612c99576001600160a01b038085166000908152600960209081526040808320938a168352929052908120612c9491613858565b612d88565b60005b81811015612d3c5785838281518110612cb757612cb76142de565b602002602001015103612d345782612cd06001846147f8565b81518110612ce057612ce06142de565b6020908102919091018101516001600160a01b038088166000908152600984526040808220928c16825291909352909120805483908110612d2357612d236142de565b600091825260209091200155612d3c565b600101612c9c565b506001600160a01b038085166000908152600960209081526040808320938a16835292905220805480612d7157612d7161480b565b600190038181906000526020600020016000905590555b836001600160a01b0316866001600160a01b0316867f241cba1e62c0c28760eb65132303f670a906fac442064deb7a20da98ce538ed286604051612dcc9190613e67565b60405180910390a4505050505050565b600d546000819003612ded57505050565b6000836001600160a01b031663604096326040518163ffffffff1660e01b8152600401602060405180830381865afa158015612e2d573d6000803e3d6000fd5b505050506040513d601f19601f82011682018060405250810190612e519190614110565b90506000846001600160a01b03166358c0994a6040518163ffffffff1660e01b8152600401602060405180830381865afa158015612e93573d6000803e3d6000fd5b505050506040513d601f19601f82011682018060405250810190612eb79190614110565b9050836001811115612ecb57612ecb613d8e565b818311612ed9576000612edc565b60015b6001811115612eed57612eed613d8e565b03612ef9575050505050565b6000612f0f83612f09818561358c565b906135b4565b905083811115610c775760405163a6dea22360e01b815260040160405180910390fd5b600080612f4b8484604051602401610ca3929190614129565b905060008082806020019051810190612f649190614146565b915091506000612f7786602001516135c9565b90506000808313612f9157612f8c838361450b565b612f93565b815b90506000613001896001600160a01b031663bce2020d6040518163ffffffff1660e01b8152600401602060405180830381865afa158015612fd8573d6000803e3d6000fd5b505050506040513d601f19601f82011682018060405250810190612ffc9190614110565b6135c9565b90506000808960000151131561302757604089015161302090836131b5565b9050613034565b61303186836131b5565b90505b61303e8184614821565b9a9950505050505050505050565b8051600090810361305f5750600061125c565b60006130d66130d1856001600160a01b03166346558d1b6040518163ffffffff1660e01b8152600401602060405180830381865afa1580156130a5573d6000803e3d6000fd5b505050506040513d601f19601f820116820180604052508101906130c99190614110565b8551906135e2565b612b62565b905060006130fd6130e6836135c9565b6130f386604001516135c9565b865160001261360e565b9050600061310c868684613202565b606001519050856001600160a01b0316634f3c15426040518163ffffffff1660e01b8152600401602060405180830381865afa158015613150573d6000803e3d6000fd5b505050506040513d601f19601f820116820180604052508101906131749190614110565b61317e82856135b4565b109695505050505050565b638b78c6d81980546001600160a01b0390921691829060008051602061490d833981519152600080a355565b600080821280156131cc576131c983614841565b92505b6131e2612ffc8585670de0b6b3a7640000613631565b915080156131fb576131f382614841565b91505061125c565b5092915050565b61322d6040518060800160405280600081526020016000815260200160008152602001600081525090565b6001600160a01b03841660009081526004602052604090205481528251156132a25782516060840151825161326c929161326691614821565b906136d1565b60208201819052600013156132a2576103e8816020015161328d919061485d565b8160200181815161329e9190614821565b9052505b60006132b184602001516135c9565b60208301516132c09085614821565b6132ca919061450b565b9050600081126132e057606082018190526132ef565b6132e981612b62565b60408301525b509392505050565b60006133038383612f32565b1215610ecf5760405163845dfc3960e01b815260040160405180910390fd5b816014528060345263a9059cbb60601b60005260206000604460106000875af13d1560016000511417166128f1576390b8ec186000526004601cfd5b60006112598383670de0b6b3a7640000613631565b6000836001600160a01b031663bce2020d6040518163ffffffff1660e01b8152600401602060405180830381865afa1580156133b3573d6000803e3d6000fd5b505050506040513d601f19601f820116820180604052508101906133d79190614110565b905060006133e584846135b4565b905081811015610d9d576040516333c44bc760e21b815260040160405180910390fd5b60405181606052826040528360601b602c526323b872dd60601b600c52602060006064601c6000895af13d15600160005114171661344e57637939f4246000526004601cfd5b600060605260405250505050565b600080856001600160a01b031663604096326040518163ffffffff1660e01b8152600401602060405180830381865afa15801561349d573d6000803e3d6000fd5b505050506040513d601f19601f820116820180604052508101906134c19190614110565b90506000808660018111156134d8576134d8613d8e565b036134f557836134ea578482116134ee565b8482105b9050613509565b8361350257848210613506565b8482115b90505b159695505050505050565b6060600080856001600160a01b03168560405161353191906148bd565b600060405180830381855af49150503d806000811461356c576040519150601f19603f3d011682016040523d82523d6000602084013e613571565b606091505b50915091506135828683838761373b565b9695505050505050565b600061125961359a836135c9565b6135a3856135c9565b818113818303929091038218021890565b600061125983670de0b6b3a764000084613631565b6000600160ff1b82106135de576135de6137b2565b5090565b600080831280156131cc576135f684614841565b93506131e2612ffc8585670de0b6b3a7640000613631565b60008115613627576136208385614821565b905061148c565b6113b78484614821565b828202600019838509818110820190038061366257826136595763ae47f7026000526004601cfd5b5081900461148c565b8083116136775763ae47f7026000526004601cfd5b82848609600084810385169485900494848311909303908390038390046001010292030417600260038302811880840282030280840282030280840282030280840282030280840282030280840290910302029392505050565b60008083128183128082141582156136ef576136ec86614841565b95505b8115613701576136fe85614841565b94505b613717612ffc8787670de0b6b3a7640000613631565b935080156137325761372884614841565b935050505061125c565b50505092915050565b606083156137a85782516000036137a157613755856128a6565b6137a15760405162461bcd60e51b815260206004820152601d60248201527f416464726573733a2063616c6c20746f206e6f6e2d636f6e74726163740000006044820152606401610a94565b50816113b7565b6113b783836137c0565b6335278d126000526004601cfd5b8151156137d05781518083602001fd5b8060405162461bcd60e51b8152600401610a9491906148d9565b6040805160e081018252600080825260208201819052909182019081526020016000815260200160008152602001600081526020016000151581525090565b6040518060a0016040528060008152602001600081526020016000815260200160008152602001600081525090565b5080546000825590600052602060002090810190611d4991905b808211156135de5760008155600101613872565b6001600160a01b0381168114611d4957600080fd5b600080600080600060a086880312156138b357600080fd5b85356138be81613886565b9450602086013593506040860135925060608601356138dc81613886565b915060808601356138ec81613886565b809150509295509295909350565b6000806040838503121561390d57600080fd5b823561391881613886565b9150602083013561392881613886565b809150509250929050565b60008083601f84011261394557600080fd5b5081356001600160401b0381111561395c57600080fd5b60208301915083602060e08302850101111561397757600080fd5b9250929050565b6000806000806040858703121561399457600080fd5b84356001600160401b03808211156139ab57600080fd5b818701915087601f8301126139bf57600080fd5b8135818111156139ce57600080fd5b8860208260051b85010111156139e357600080fd5b6020928301965094509086013590808211156139fe57600080fd5b50613a0b87828801613933565b95989497509550505050565b8015158114611d4957600080fd5b60008060408385031215613a3857600080fd5b8235613a4381613886565b9150602083013561392881613a17565b600060208284031215613a6557600080fd5b5035919050565b60008060008060808587031215613a8257600080fd5b8435613a8d81613886565b93506020850135613a9d81613886565b92506040850135613aad81613886565b9396929550929360600135925050565b634e487b7160e01b600052604160045260246000fd5b604051608081016001600160401b0381118282101715613af557613af5613abd565b60405290565b604051601f8201601f191681016001600160401b0381118282101715613b2357613b23613abd565b604052919050565b80356002811061109f57600080fd5b600060e08284031215613b4c57600080fd5b60405160e081016001600160401b0381118282101715613b6e57613b6e613abd565b6040529050808235613b7f81613886565b81526020830135613b8f81613886565b6020820152613ba060408401613b2b565b6040820152606083013560608201526080830135608082015260a083013560a082015260c0830135613bd181613a17565b60c0919091015292915050565b6000806101008385031215613bf257600080fd5b82359150613c038460208501613b3a565b90509250929050565b600060208284031215613c1e57600080fd5b813561148c81613886565b60008060208385031215613c3c57600080fd5b82356001600160401b03811115613c5257600080fd5b610d1385828601613933565b600081518084526020808501945080840160005b83811015613c8e57815187529582019590820190600101613c72565b509495945050505050565b6020815260006112596020830184613c5e565b600080600060608486031215613cc157600080fd5b8335613ccc81613886565b95602085013595506040909401359392505050565b60006001600160401b03821115613cfa57613cfa613abd565b5060051b60200190565b60006020808385031215613d1757600080fd5b82356001600160401b03811115613d2d57600080fd5b8301601f81018513613d3e57600080fd5b8035613d51613d4c82613ce1565b613afb565b81815260059190911b82018301908381019087831115613d7057600080fd5b928401925b8284101561207f57833582529284019290840190613d75565b634e487b7160e01b600052602160045260246000fd5b60028110613db457613db4613d8e565b9052565b60018060a01b03808251168352806020830151166020840152506040810151613de46040840182613da4565b50606081015160608301526080810151608083015260a081015160a083015260c0810151151560c08301525050565b60e0810161125c8284613db8565b600060c08284031215613e3357600080fd5b50919050565b600060c08284031215613e4b57600080fd5b6112598383613e21565b600060e08284031215613e3357600080fd5b6001600160a01b0391909116815260200190565b600060208284031215613e8d57600080fd5b813561148c81613a17565b80518252602081015160208301526040810151604083015260608101516060830152608081015160808301525050565b60a0810161125c8284613e98565b60008060408385031215613ee957600080fd5b8235613ef481613886565b946020939093013593505050565b600080600080600060a08688031215613f1a57600080fd5b8535613f2581613886565b9450613f3360208701613b2b565b94979496505050506040830135926060810135926080909101359150565b60008060e08385031215613f6457600080fd5b82359150613c038460208501613e21565b60008060008060608587031215613f8b57600080fd5b8435613f9681613886565b935060208501356001600160401b0380821115613fb257600080fd5b818701915087601f830112613fc657600080fd5b813581811115613fd557600080fd5b8860208260061b8501011115613fea57600080fd5b95986020929092019750949560400135945092505050565b60008060006040848603121561401757600080fd5b833561402281613886565b925060208401356001600160401b038082111561403e57600080fd5b818601915086601f83011261405257600080fd5b81358181111561406157600080fd5b87602060608302850101111561407657600080fd5b6020830194508093505050509250925092565b602080825282518282018190526000919060409081850190868401855b828110156140e957815180516001600160a01b031685528681015187860152858101518686015260609081015190850152608090930192908501906001016140a6565b5091979650505050505050565b602081016003831061410a5761410a613d8e565b91905290565b60006020828403121561412257600080fd5b5051919050565b6001600160a01b038316815260c0810161148c6020830184613e98565b6000806040838503121561415957600080fd5b505080516020909101519092909150565b8183526000602080850194508260005b85811015613c8e57813561418d81613886565b6001600160a01b03908116885282840135906141a882613886565b168784015260406141ba838201613b2b565b6141c6828a0182613da4565b5050606082810135908801526080808301359088015260a0808301359088015260c0808301356141f581613a17565b15159088015260e096870196919091019060010161417a565b6001600160a01b0386168152606060208201819052810184905260006001600160fb1b0385111561423e57600080fd5b8460051b80876080850137820182810360809081016040850152614265908201858761416a565b98975050505050505050565b60006020828403121561428357600080fd5b815161148c81613a17565b6001600160a01b038881168252878116602083015260e08201906142b56040840189613da4565b86606084015285608084015280851660a08401525082151560c083015298975050505050505050565b634e487b7160e01b600052603260045260246000fd5b600081518084526020808501945080840160005b83811015613c8e5761431b878351613db8565b60e0969096019590820190600101614308565b6001600160a01b038416815260606020820181905260009061435290830185613c5e565b828103604084015261358281856142f4565b6001600160a01b0384168152604060208201819052600090614389908301848661416a565b95945050505050565b600060208083850312156143a557600080fd5b82516001600160401b038111156143bb57600080fd5b8301601f810185136143cc57600080fd5b80516143da613d4c82613ce1565b81815260059190911b820183019083810190878311156143f957600080fd5b928401925b8284101561207f578351825292840192908401906143fe565b6001600160a01b03831681526040602082018190526000906113b790830184613c5e565b803561444681613886565b6001600160a01b03908116835260208201359061446282613886565b16602083015260408181013590830152606080820135908301526080808201359083015260a081013561449481613a17565b80151560a0840152505050565b60e081016144af828561443b565b6001600160a01b039290921660c09190910152919050565b6000806000606084860312156144dc57600080fd5b8351925060208401519150604084015190509250925092565b634e487b7160e01b600052601160045260246000fd5b808201828112600083128015821682158216171561452b5761452b6144f5565b505092915050565b600060e0828403121561454557600080fd5b6112598383613b3a565b6001600160a01b03831681526040602082018190526000906113b7908301846142f4565b6001600160a01b03958616815293851660208501529190931660408301526060820192909252608081019190915260a00190565b6000806000606084860312156145bc57600080fd5b83516145c781613a17565b602085015160409095015190969495509392505050565b6001600160a01b0387811682528616602082015260c081016146036040830187613da4565b8460608301528360808301528260a0830152979650505050505050565b8082018082111561125c5761125c6144f5565b8381526101008101614648602083018561443b565b6001600160a01b039290921660e0919091015292915050565b6001600160a01b03841681526040602080830182905282820184905260009190859060608501845b878110156146ad578335825282840135838301529284019290840190600101614689565b5098975050505050505050565b6001600160a01b0384168152604060208083018290528282018490526000919060609081850187855b8881101561470f57813583528382013584840152858201358684015291840191908401906001016146e3565b50909998505050505050505050565b600080604080848603121561473257600080fd5b83516001600160401b0381111561474857600080fd5b8401601f8101861361475957600080fd5b80516020614769613d4c83613ce1565b82815260079290921b8301810191818101908984111561478857600080fd5b938201935b838510156147e6576080858b0312156147a65760008081fd5b6147ae613ad3565b85516147b981613886565b8152858401518482015286860151878201526060808701519082015282526080909401939082019061478d565b97909101519698969750505050505050565b8181038181111561125c5761125c6144f5565b634e487b7160e01b600052603160045260246000fd5b81810360008312801583831316838312821617156131fb576131fb6144f5565b6000600160ff1b8201614856576148566144f5565b5060000390565b60008261487a57634e487b7160e01b600052601260045260246000fd5b600160ff1b821460001984141615614894576148946144f5565b500590565b60005b838110156148b457818101518382015260200161489c565b50506000910152565b600082516148cf818460208701614899565b9190910192915050565b60208152600082518060208401526148f8816040850160208701614899565b601f01601f1916919091016040019291505056fe8be0079c531659141344cd1fd0a4f28419497f9722a3daafe3b4186f6b6457e0416464726573733a206c6f772d6c6576656c2064656c65676174652063616c6c206661696c6564a264697066735822122004ec954de83dab6665c9bd3cda22968337277738b7fcb23658dbb40222e5eac264736f6c63430008130033","linkReferences":{}},"methodIdentifiers":{"addLiquidity(address,(uint256,uint256,uint256)[])":"efdb9423","addMargin(address,uint256)":"cf70cb69","adminDeleteLimitOrders(uint256[])":"6f82317b","cancelOwnershipHandover()":"54d1f13d","closePosition(address,uint256,uint256)":"4fa9c4db","closePositionKeeper(uint256)":"23c16e22","completeOwnershipHandover(address)":"f04e283e","createLimitOrder((address,address,uint8,uint256,uint256,uint256,bool))":"7eb02406","createLimitOrderBatch((address,address,uint8,uint256,uint256,uint256,bool)[])":"4a6ebce7","createTriggerOrder((address,address,uint256,uint256,uint256,bool))":"68d85297","deleteLimitOrder(uint256)":"e859f372","deleteLimitOrderBatch(uint256[])":"517237a9","deleteTriggerOrder(uint256)":"da8c7e40","deleverage(address,address,address,uint256)":"25a208a2","getCumulativePremiumFraction(address)":"6ea41e40","getDivergenceCap()":"5ac3b62d","getFreeCollateral(address,address)":"33d3bd30","getLimitOrder(uint256)":"53061026","getLiquidatorFlatFee()":"0e5389a1","getMinOrderbookMargin()":"987362da","getOpenInterestNotional(address)":"429e9237","getPosition(address,address)":"b33dc190","getPositionNotionalUpnl(address,address)":"0e86a08d","getReduceOnlyOrders(address,address)":"73af0205","getTotalPositionSize(address)":"e980e16e","getTriggerOrder(uint256)":"36cef3d9","getTriggerOrders(address,address)":"54b85a3e","getValidAMM(address)":"9dda4e4f","initialize(address,uint256,uint256,address,address)":"03b54d52","isActive()":"22f3e2d4","isLiquidatable(address,address)":"3966a28b","isTriggerOrderValid(uint256)":"dd2a65ed","liquidate(address,address)":"86b9d81f","liquidateMaker(address,address)":"9fddd8d2","openPosition(address,uint8,uint256,uint256,uint256)":"cbb50e61","owner()":"8da5cb5b","ownershipHandoverExpiresAt(address)":"fee81cf4","removeLiquidity(address,(uint256,uint256)[],uint256)":"db1b5c97","removeMargin(address,uint256)":"b959d695","renounceOwnership()":"715018a6","requestOwnershipHandover()":"25692962","setActive(bool)":"acec338a","setDivergenceCap(uint256)":"f8b6e449","setLiquidatorFlatFee(uint256)":"7d6727ed","setMinOrderbookMargin(uint256)":"e3046770","setValidAMM(address,bool)":"207b5b6f","settleFunding(address)":"6b17ad03","transferOwnership(address)":"f2fde38b","updateLimitOrder(uint256,(address,address,uint8,uint256,uint256,uint256,bool))":"2a120de4","updateLimitOrderBatch(uint256[],(address,address,uint8,uint256,uint256,uint256,bool)[])":"13dee2d1","updateTriggerOrder(uint256,(address,address,uint256,uint256,uint256,bool))":"d2435052"},"id":48}