{
	"abi": [
		{
			"inputs": [
				{
					"internalType": "address",
					"name": "_weth",
					"type": "address"
				},
				{
					"internalType": "address",
					"name": "_insuranceFund",
					"type": "address"
				},
				{
					"internalType": "address",
					"name": "_positionManager",
					"type": "address"
				},
				{
					"internalType": "address",
					"name": "_positionMerger",
					"type": "address"
				},
				{
					"internalType": "address",
					"name": "_orderCreator",
					"type": "address"
				}
			],
			"stateMutability": "nonpayable",
			"type": "constructor"
		},
		{
			"inputs": [],
			"name": "AMM_IS_ACTIVE",
			"type": "error"
		},
		{
			"inputs": [],
			"name": "BAD_DEBT",
			"type": "error"
		},
		{
			"inputs": [],
			"name": "INACTIVE",
			"type": "error"
		},
		{
			"inputs": [],
			"name": "INSUFFICIENT_LIQUIDITY",
			"type": "error"
		},
		{
			"inputs": [],
			"name": "INSUFFICIENT_MARGIN",
			"type": "error"
		},
		{
			"inputs": [],
			"name": "INSUFFICIENT_OPEN_NOTIONAL",
			"type": "error"
		},
		{
			"inputs": [],
			"name": "INSUFFICIENT_SIZE",
			"type": "error"
		},
		{
			"inputs": [],
			"name": "INVALID_AMM",
			"type": "error"
		},
		{
			"inputs": [],
			"name": "INVALID_MARGIN_RATIO",
			"type": "error"
		},
		{
			"inputs": [],
			"name": "INVALID_SIDE",
			"type": "error"
		},
		{
			"inputs": [],
			"name": "INVALID_TRIGGER_AMOUNT",
			"type": "error"
		},
		{
			"inputs": [],
			"name": "LIQUIDATABLE",
			"type": "error"
		},
		{
			"inputs": [],
			"name": "NOT_LIMIT_CLOSE",
			"type": "error"
		},
		{
			"inputs": [],
			"name": "NOT_LIQUIDATABLE",
			"type": "error"
		},
		{
			"inputs": [],
			"name": "NOT_REDUCE_ONLY",
			"type": "error"
		},
		{
			"inputs": [],
			"name": "NOT_TRADER",
			"type": "error"
		},
		{
			"inputs": [],
			"name": "NO_POSITION",
			"type": "error"
		},
		{
			"inputs": [],
			"name": "NewOwnerIsZeroAddress",
			"type": "error"
		},
		{
			"inputs": [],
			"name": "NoHandoverRequest",
			"type": "error"
		},
		{
			"inputs": [],
			"name": "OPEN_INTEREST_CAP_EXCEEDED",
			"type": "error"
		},
		{
			"inputs": [],
			"name": "OVER_DIVERGENCE_CAP",
			"type": "error"
		},
		{
			"inputs": [],
			"name": "OVER_MAX_SIZE",
			"type": "error"
		},
		{
			"inputs": [],
			"name": "TRIGGER_INVALID",
			"type": "error"
		},
		{
			"inputs": [],
			"name": "TRIGGER_ON_MARK",
			"type": "error"
		},
		{
			"inputs": [],
			"name": "Unauthorized",
			"type": "error"
		},
		{
			"anonymous": false,
			"inputs": [],
			"name": "Activated",
			"type": "event"
		},
		{
			"anonymous": false,
			"inputs": [],
			"name": "Deactivated",
			"type": "event"
		},
		{
			"anonymous": false,
			"inputs": [
				{
					"indexed": true,
					"internalType": "contract IAMM",
					"name": "amm",
					"type": "address"
				},
				{
					"indexed": false,
					"internalType": "uint256",
					"name": "markPrice",
					"type": "uint256"
				},
				{
					"indexed": false,
					"internalType": "uint256",
					"name": "indexPrice",
					"type": "uint256"
				},
				{
					"indexed": false,
					"internalType": "int256",
					"name": "premiumFraction",
					"type": "int256"
				},
				{
					"indexed": false,
					"internalType": "int256",
					"name": "premiumFractionPerShare",
					"type": "int256"
				}
			],
			"name": "FundingSettled",
			"type": "event"
		},
		{
			"anonymous": false,
			"inputs": [
				{
					"indexed": false,
					"internalType": "uint8",
					"name": "version",
					"type": "uint8"
				}
			],
			"name": "Initialized",
			"type": "event"
		},
		{
			"anonymous": false,
			"inputs": [
				{
					"indexed": true,
					"internalType": "uint256",
					"name": "id",
					"type": "uint256"
				},
				{
					"indexed": false,
					"internalType": "contract IAMM",
					"name": "amm",
					"type": "address"
				},
				{
					"indexed": false,
					"internalType": "bool",
					"name": "filled",
					"type": "bool"
				}
			],
			"name": "LimitOrderRemoved",
			"type": "event"
		},
		{
			"anonymous": false,
			"inputs": [
				{
					"indexed": true,
					"internalType": "uint256",
					"name": "id",
					"type": "uint256"
				},
				{
					"components": [
						{
							"internalType": "address",
							"name": "trader",
							"type": "address"
						},
						{
							"internalType": "contract IAMM",
							"name": "amm",
							"type": "address"
						},
						{
							"internalType": "enum Side",
							"name": "side",
							"type": "uint8"
						},
						{
							"internalType": "uint256",
							"name": "trigger",
							"type": "uint256"
						},
						{
							"internalType": "uint256",
							"name": "quoteAmount",
							"type": "uint256"
						},
						{
							"internalType": "uint256",
							"name": "leverage",
							"type": "uint256"
						},
						{
							"internalType": "bool",
							"name": "reduceOnly",
							"type": "bool"
						}
					],
					"indexed": false,
					"internalType": "struct LimitOrder",
					"name": "order",
					"type": "tuple"
				}
			],
			"name": "LimitOrderUpdated",
			"type": "event"
		},
		{
			"anonymous": false,
			"inputs": [
				{
					"indexed": true,
					"internalType": "contract IAMM",
					"name": "amm",
					"type": "address"
				},
				{
					"indexed": true,
					"internalType": "address",
					"name": "maker",
					"type": "address"
				},
				{
					"indexed": false,
					"internalType": "uint256",
					"name": "liquidity",
					"type": "uint256"
				},
				{
					"indexed": false,
					"internalType": "int256",
					"name": "fundingPayment",
					"type": "int256"
				}
			],
			"name": "LiquidityAdded",
			"type": "event"
		},
		{
			"anonymous": false,
			"inputs": [
				{
					"indexed": true,
					"internalType": "contract IAMM",
					"name": "amm",
					"type": "address"
				},
				{
					"indexed": true,
					"internalType": "address",
					"name": "trader",
					"type": "address"
				},
				{
					"indexed": false,
					"internalType": "uint256",
					"name": "liquidity",
					"type": "uint256"
				},
				{
					"indexed": false,
					"internalType": "int256",
					"name": "sizeRemoved",
					"type": "int256"
				},
				{
					"indexed": false,
					"internalType": "uint256",
					"name": "marginRemoved",
					"type": "uint256"
				},
				{
					"indexed": false,
					"internalType": "uint256",
					"name": "feeRealized",
					"type": "uint256"
				}
			],
			"name": "LiquidityRemoved",
			"type": "event"
		},
		{
			"anonymous": false,
			"inputs": [
				{
					"indexed": true,
					"internalType": "contract IAMM",
					"name": "amm",
					"type": "address"
				},
				{
					"indexed": true,
					"internalType": "address",
					"name": "trader",
					"type": "address"
				},
				{
					"indexed": false,
					"internalType": "uint256",
					"name": "amount",
					"type": "uint256"
				}
			],
			"name": "MarginAdded",
			"type": "event"
		},
		{
			"anonymous": false,
			"inputs": [
				{
					"indexed": true,
					"internalType": "contract IAMM",
					"name": "amm",
					"type": "address"
				},
				{
					"indexed": true,
					"internalType": "address",
					"name": "trader",
					"type": "address"
				},
				{
					"indexed": false,
					"internalType": "uint256",
					"name": "amount",
					"type": "uint256"
				}
			],
			"name": "MarginRemoved",
			"type": "event"
		},
		{
			"anonymous": false,
			"inputs": [
				{
					"indexed": true,
					"internalType": "contract IAMM",
					"name": "amm",
					"type": "address"
				},
				{
					"indexed": false,
					"internalType": "uint256",
					"name": "newOpenInterest",
					"type": "uint256"
				}
			],
			"name": "OpenInterestChanged",
			"type": "event"
		},
		{
			"anonymous": false,
			"inputs": [
				{
					"indexed": true,
					"internalType": "address",
					"name": "pendingOwner",
					"type": "address"
				}
			],
			"name": "OwnershipHandoverCanceled",
			"type": "event"
		},
		{
			"anonymous": false,
			"inputs": [
				{
					"indexed": true,
					"internalType": "address",
					"name": "pendingOwner",
					"type": "address"
				}
			],
			"name": "OwnershipHandoverRequested",
			"type": "event"
		},
		{
			"anonymous": false,
			"inputs": [
				{
					"indexed": true,
					"internalType": "address",
					"name": "oldOwner",
					"type": "address"
				},
				{
					"indexed": true,
					"internalType": "address",
					"name": "newOwner",
					"type": "address"
				}
			],
			"name": "OwnershipTransferred",
			"type": "event"
		},
		{
			"anonymous": false,
			"inputs": [
				{
					"indexed": true,
					"internalType": "contract IAMM",
					"name": "amm",
					"type": "address"
				},
				{
					"indexed": true,
					"internalType": "address",
					"name": "trader",
					"type": "address"
				},
				{
					"indexed": false,
					"internalType": "uint256",
					"name": "margin",
					"type": "uint256"
				},
				{
					"indexed": false,
					"internalType": "int256",
					"name": "size",
					"type": "int256"
				},
				{
					"indexed": false,
					"internalType": "uint256",
					"name": "exchangedQuote",
					"type": "uint256"
				},
				{
					"indexed": false,
					"internalType": "int256",
					"name": "exchangedBase",
					"type": "int256"
				},
				{
					"indexed": false,
					"internalType": "int256",
					"name": "realizedPnL",
					"type": "int256"
				},
				{
					"indexed": false,
					"internalType": "int256",
					"name": "fundingPayment",
					"type": "int256"
				},
				{
					"indexed": false,
					"internalType": "uint256",
					"name": "markPrice",
					"type": "uint256"
				},
				{
					"indexed": false,
					"internalType": "uint256",
					"name": "ifFee",
					"type": "uint256"
				},
				{
					"indexed": false,
					"internalType": "uint256",
					"name": "ammFee",
					"type": "uint256"
				},
				{
					"indexed": false,
					"internalType": "uint256",
					"name": "limitFee",
					"type": "uint256"
				},
				{
					"indexed": false,
					"internalType": "uint256",
					"name": "liquidationPenalty",
					"type": "uint256"
				},
				{
					"indexed": false,
					"internalType": "uint256",
					"name": "keeperFee",
					"type": "uint256"
				}
			],
			"name": "PositionChanged",
			"type": "event"
		},
		{
			"anonymous": false,
			"inputs": [
				{
					"indexed": true,
					"internalType": "bytes32",
					"name": "id",
					"type": "bytes32"
				},
				{
					"indexed": true,
					"internalType": "contract IAMM",
					"name": "amm",
					"type": "address"
				},
				{
					"indexed": true,
					"internalType": "address",
					"name": "keeper",
					"type": "address"
				}
			],
			"name": "TriggerOrderRemoved",
			"type": "event"
		},
		{
			"anonymous": false,
			"inputs": [
				{
					"indexed": true,
					"internalType": "bytes32",
					"name": "id",
					"type": "bytes32"
				},
				{
					"components": [
						{
							"internalType": "address",
							"name": "trader",
							"type": "address"
						},
						{
							"internalType": "contract IAMM",
							"name": "amm",
							"type": "address"
						},
						{
							"internalType": "uint256",
							"name": "trigger",
							"type": "uint256"
						},
						{
							"internalType": "uint256",
							"name": "size",
							"type": "uint256"
						},
						{
							"internalType": "uint256",
							"name": "quoteLimit",
							"type": "uint256"
						},
						{
							"internalType": "bool",
							"name": "takeProfit",
							"type": "bool"
						}
					],
					"indexed": false,
					"internalType": "struct TriggerOrder",
					"name": "order",
					"type": "tuple"
				}
			],
			"name": "TriggerOrderUpdated",
			"type": "event"
		},
		{
			"inputs": [
				{
					"internalType": "contract IAMM",
					"name": "amm",
					"type": "address"
				},
				{
					"internalType": "uint256",
					"name": "margin",
					"type": "uint256"
				},
				{
					"internalType": "uint256",
					"name": "leverage",
					"type": "uint256"
				},
				{
					"internalType": "uint256",
					"name": "minLiquidity",
					"type": "uint256"
				}
			],
			"name": "addLiquidity",
			"outputs": [
				{
					"internalType": "uint256",
					"name": "liquidity",
					"type": "uint256"
				}
			],
			"stateMutability": "nonpayable",
			"type": "function"
		},
		{
			"inputs": [
				{
					"internalType": "contract IAMM",
					"name": "amm",
					"type": "address"
				},
				{
					"internalType": "uint256",
					"name": "margin",
					"type": "uint256"
				}
			],
			"name": "addMargin",
			"outputs": [],
			"stateMutability": "nonpayable",
			"type": "function"
		},
		{
			"inputs": [],
			"name": "cancelOwnershipHandover",
			"outputs": [],
			"stateMutability": "payable",
			"type": "function"
		},
		{
			"inputs": [
				{
					"internalType": "contract IAMM",
					"name": "amm",
					"type": "address"
				},
				{
					"internalType": "uint256",
					"name": "size",
					"type": "uint256"
				},
				{
					"internalType": "uint256",
					"name": "quoteLimit",
					"type": "uint256"
				}
			],
			"name": "closePosition",
			"outputs": [],
			"stateMutability": "nonpayable",
			"type": "function"
		},
		{
			"inputs": [
				{
					"internalType": "contract IAMM",
					"name": "amm",
					"type": "address"
				},
				{
					"internalType": "bytes32",
					"name": "id",
					"type": "bytes32"
				}
			],
			"name": "closePositionKeeper",
			"outputs": [],
			"stateMutability": "nonpayable",
			"type": "function"
		},
		{
			"inputs": [
				{
					"internalType": "address",
					"name": "pendingOwner",
					"type": "address"
				}
			],
			"name": "completeOwnershipHandover",
			"outputs": [],
			"stateMutability": "payable",
			"type": "function"
		},
		{
			"inputs": [
				{
					"components": [
						{
							"internalType": "address",
							"name": "trader",
							"type": "address"
						},
						{
							"internalType": "contract IAMM",
							"name": "amm",
							"type": "address"
						},
						{
							"internalType": "enum Side",
							"name": "side",
							"type": "uint8"
						},
						{
							"internalType": "uint256",
							"name": "trigger",
							"type": "uint256"
						},
						{
							"internalType": "uint256",
							"name": "quoteAmount",
							"type": "uint256"
						},
						{
							"internalType": "uint256",
							"name": "leverage",
							"type": "uint256"
						},
						{
							"internalType": "bool",
							"name": "reduceOnly",
							"type": "bool"
						}
					],
					"internalType": "struct LimitOrder",
					"name": "order",
					"type": "tuple"
				}
			],
			"name": "createLimitOrder",
			"outputs": [
				{
					"internalType": "uint256",
					"name": "id",
					"type": "uint256"
				}
			],
			"stateMutability": "nonpayable",
			"type": "function"
		},
		{
			"inputs": [
				{
					"components": [
						{
							"internalType": "address",
							"name": "trader",
							"type": "address"
						},
						{
							"internalType": "contract IAMM",
							"name": "amm",
							"type": "address"
						},
						{
							"internalType": "enum Side",
							"name": "side",
							"type": "uint8"
						},
						{
							"internalType": "uint256",
							"name": "trigger",
							"type": "uint256"
						},
						{
							"internalType": "uint256",
							"name": "quoteAmount",
							"type": "uint256"
						},
						{
							"internalType": "uint256",
							"name": "leverage",
							"type": "uint256"
						},
						{
							"internalType": "bool",
							"name": "reduceOnly",
							"type": "bool"
						}
					],
					"internalType": "struct LimitOrder[]",
					"name": "_orders",
					"type": "tuple[]"
				}
			],
			"name": "createLimitOrderBatch",
			"outputs": [
				{
					"internalType": "uint256[]",
					"name": "ids",
					"type": "uint256[]"
				}
			],
			"stateMutability": "nonpayable",
			"type": "function"
		},
		{
			"inputs": [
				{
					"components": [
						{
							"internalType": "address",
							"name": "trader",
							"type": "address"
						},
						{
							"internalType": "contract IAMM",
							"name": "amm",
							"type": "address"
						},
						{
							"internalType": "uint256",
							"name": "trigger",
							"type": "uint256"
						},
						{
							"internalType": "uint256",
							"name": "size",
							"type": "uint256"
						},
						{
							"internalType": "uint256",
							"name": "quoteLimit",
							"type": "uint256"
						},
						{
							"internalType": "bool",
							"name": "takeProfit",
							"type": "bool"
						}
					],
					"internalType": "struct TriggerOrder",
					"name": "order",
					"type": "tuple"
				}
			],
			"name": "createTriggerOrder",
			"outputs": [
				{
					"internalType": "bytes32",
					"name": "id",
					"type": "bytes32"
				}
			],
			"stateMutability": "nonpayable",
			"type": "function"
		},
		{
			"inputs": [
				{
					"internalType": "uint256",
					"name": "id",
					"type": "uint256"
				}
			],
			"name": "deleteLimitOrder",
			"outputs": [],
			"stateMutability": "nonpayable",
			"type": "function"
		},
		{
			"inputs": [
				{
					"internalType": "uint256[]",
					"name": "ids",
					"type": "uint256[]"
				}
			],
			"name": "deleteLimitOrderBatch",
			"outputs": [],
			"stateMutability": "nonpayable",
			"type": "function"
		},
		{
			"inputs": [
				{
					"internalType": "contract IAMM",
					"name": "amm",
					"type": "address"
				},
				{
					"internalType": "bytes32",
					"name": "id",
					"type": "bytes32"
				}
			],
			"name": "deleteTriggerOrder",
			"outputs": [],
			"stateMutability": "nonpayable",
			"type": "function"
		},
		{
			"inputs": [
				{
					"internalType": "contract IAMM",
					"name": "amm",
					"type": "address"
				}
			],
			"name": "getAMMData",
			"outputs": [
				{
					"components": [
						{
							"internalType": "int256",
							"name": "premiumFraction",
							"type": "int256"
						},
						{
							"internalType": "int256",
							"name": "premiumFractionPerShare",
							"type": "int256"
						},
						{
							"internalType": "int256",
							"name": "netPositionOffsetPerShare",
							"type": "int256"
						},
						{
							"internalType": "uint256",
							"name": "feeGrowth",
							"type": "uint256"
						}
					],
					"internalType": "struct AMMData",
					"name": "",
					"type": "tuple"
				}
			],
			"stateMutability": "view",
			"type": "function"
		},
		{
			"inputs": [
				{
					"internalType": "contract IAMM",
					"name": "amm",
					"type": "address"
				}
			],
			"name": "getCumulativePremiumFraction",
			"outputs": [
				{
					"internalType": "int256",
					"name": "",
					"type": "int256"
				}
			],
			"stateMutability": "view",
			"type": "function"
		},
		{
			"inputs": [
				{
					"internalType": "contract IAMM",
					"name": "amm",
					"type": "address"
				}
			],
			"name": "getCumulativePremiumFractionPerShare",
			"outputs": [
				{
					"internalType": "int256",
					"name": "",
					"type": "int256"
				}
			],
			"stateMutability": "view",
			"type": "function"
		},
		{
			"inputs": [],
			"name": "getDivergenceCap",
			"outputs": [
				{
					"internalType": "uint256",
					"name": "",
					"type": "uint256"
				}
			],
			"stateMutability": "view",
			"type": "function"
		},
		{
			"inputs": [
				{
					"internalType": "contract IAMM",
					"name": "amm",
					"type": "address"
				}
			],
			"name": "getFeeGrowth",
			"outputs": [
				{
					"internalType": "uint256",
					"name": "",
					"type": "uint256"
				}
			],
			"stateMutability": "view",
			"type": "function"
		},
		{
			"inputs": [
				{
					"internalType": "uint256",
					"name": "id",
					"type": "uint256"
				}
			],
			"name": "getLimitOrder",
			"outputs": [
				{
					"components": [
						{
							"internalType": "address",
							"name": "trader",
							"type": "address"
						},
						{
							"internalType": "contract IAMM",
							"name": "amm",
							"type": "address"
						},
						{
							"internalType": "enum Side",
							"name": "side",
							"type": "uint8"
						},
						{
							"internalType": "uint256",
							"name": "trigger",
							"type": "uint256"
						},
						{
							"internalType": "uint256",
							"name": "quoteAmount",
							"type": "uint256"
						},
						{
							"internalType": "uint256",
							"name": "leverage",
							"type": "uint256"
						},
						{
							"internalType": "bool",
							"name": "reduceOnly",
							"type": "bool"
						}
					],
					"internalType": "struct LimitOrder",
					"name": "",
					"type": "tuple"
				}
			],
			"stateMutability": "view",
			"type": "function"
		},
		{
			"inputs": [],
			"name": "getMinOrderbookMargin",
			"outputs": [
				{
					"internalType": "uint256",
					"name": "",
					"type": "uint256"
				}
			],
			"stateMutability": "view",
			"type": "function"
		},
		{
			"inputs": [
				{
					"internalType": "contract IAMM",
					"name": "amm",
					"type": "address"
				}
			],
			"name": "getOpenInterestNotional",
			"outputs": [
				{
					"internalType": "uint256",
					"name": "",
					"type": "uint256"
				}
			],
			"stateMutability": "view",
			"type": "function"
		},
		{
			"inputs": [
				{
					"internalType": "contract IAMM",
					"name": "amm",
					"type": "address"
				},
				{
					"internalType": "address",
					"name": "trader",
					"type": "address"
				}
			],
			"name": "getPosition",
			"outputs": [
				{
					"components": [
						{
							"internalType": "int256",
							"name": "size",
							"type": "int256"
						},
						{
							"internalType": "uint256",
							"name": "margin",
							"type": "uint256"
						},
						{
							"internalType": "uint256",
							"name": "openNotional",
							"type": "uint256"
						},
						{
							"internalType": "int256",
							"name": "lastPremiumFraction",
							"type": "int256"
						},
						{
							"internalType": "uint256",
							"name": "blockNumber",
							"type": "uint256"
						}
					],
					"internalType": "struct Position",
					"name": "position",
					"type": "tuple"
				}
			],
			"stateMutability": "view",
			"type": "function"
		},
		{
			"inputs": [
				{
					"internalType": "contract IAMM",
					"name": "amm",
					"type": "address"
				},
				{
					"internalType": "address",
					"name": "trader",
					"type": "address"
				}
			],
			"name": "getPositionNotionalUpnl",
			"outputs": [
				{
					"internalType": "uint256",
					"name": "positionNotional",
					"type": "uint256"
				},
				{
					"internalType": "int256",
					"name": "upnl",
					"type": "int256"
				}
			],
			"stateMutability": "view",
			"type": "function"
		},
		{
			"inputs": [
				{
					"internalType": "address",
					"name": "trader",
					"type": "address"
				},
				{
					"internalType": "contract IAMM",
					"name": "amm",
					"type": "address"
				}
			],
			"name": "getReduceOnlyOrders",
			"outputs": [
				{
					"internalType": "uint256[]",
					"name": "",
					"type": "uint256[]"
				}
			],
			"stateMutability": "view",
			"type": "function"
		},
		{
			"inputs": [
				{
					"internalType": "contract IAMM",
					"name": "amm",
					"type": "address"
				}
			],
			"name": "getTotalPositionSize",
			"outputs": [
				{
					"components": [
						{
							"internalType": "int256",
							"name": "netPositionSize",
							"type": "int256"
						},
						{
							"internalType": "int256",
							"name": "netPositionOffsetPerShare",
							"type": "int256"
						},
						{
							"internalType": "uint256",
							"name": "positionSizeLong",
							"type": "uint256"
						},
						{
							"internalType": "uint256",
							"name": "positionSizeShort",
							"type": "uint256"
						}
					],
					"internalType": "struct TotalPositionSize",
					"name": "",
					"type": "tuple"
				}
			],
			"stateMutability": "view",
			"type": "function"
		},
		{
			"inputs": [
				{
					"internalType": "contract IAMM",
					"name": "amm",
					"type": "address"
				},
				{
					"internalType": "bytes32",
					"name": "id",
					"type": "bytes32"
				}
			],
			"name": "getTriggerOrder",
			"outputs": [
				{
					"components": [
						{
							"internalType": "address",
							"name": "trader",
							"type": "address"
						},
						{
							"internalType": "contract IAMM",
							"name": "amm",
							"type": "address"
						},
						{
							"internalType": "uint256",
							"name": "trigger",
							"type": "uint256"
						},
						{
							"internalType": "uint256",
							"name": "size",
							"type": "uint256"
						},
						{
							"internalType": "uint256",
							"name": "quoteLimit",
							"type": "uint256"
						},
						{
							"internalType": "bool",
							"name": "takeProfit",
							"type": "bool"
						}
					],
					"internalType": "struct TriggerOrder",
					"name": "",
					"type": "tuple"
				}
			],
			"stateMutability": "view",
			"type": "function"
		},
		{
			"inputs": [
				{
					"internalType": "address",
					"name": "trader",
					"type": "address"
				},
				{
					"internalType": "contract IAMM",
					"name": "amm",
					"type": "address"
				}
			],
			"name": "getTriggerOrders",
			"outputs": [
				{
					"internalType": "bytes32[]",
					"name": "",
					"type": "bytes32[]"
				}
			],
			"stateMutability": "view",
			"type": "function"
		},
		{
			"inputs": [
				{
					"internalType": "contract IAMM",
					"name": "amm",
					"type": "address"
				}
			],
			"name": "getValidAMM",
			"outputs": [
				{
					"internalType": "bool",
					"name": "",
					"type": "bool"
				}
			],
			"stateMutability": "view",
			"type": "function"
		},
		{
			"inputs": [
				{
					"internalType": "address",
					"name": "_owner",
					"type": "address"
				},
				{
					"internalType": "uint256",
					"name": "_divergenceCap",
					"type": "uint256"
				}
			],
			"name": "initialize",
			"outputs": [],
			"stateMutability": "nonpayable",
			"type": "function"
		},
		{
			"inputs": [],
			"name": "isActive",
			"outputs": [
				{
					"internalType": "bool",
					"name": "",
					"type": "bool"
				}
			],
			"stateMutability": "view",
			"type": "function"
		},
		{
			"inputs": [
				{
					"internalType": "contract IAMM",
					"name": "amm",
					"type": "address"
				},
				{
					"internalType": "address",
					"name": "trader",
					"type": "address"
				}
			],
			"name": "isLiquidatable",
			"outputs": [
				{
					"internalType": "bool",
					"name": "liquidatable",
					"type": "bool"
				}
			],
			"stateMutability": "view",
			"type": "function"
		},
		{
			"inputs": [
				{
					"internalType": "contract IAMM",
					"name": "amm",
					"type": "address"
				},
				{
					"internalType": "bytes32",
					"name": "id",
					"type": "bytes32"
				}
			],
			"name": "isTriggerOrderValid",
			"outputs": [
				{
					"internalType": "bool",
					"name": "",
					"type": "bool"
				}
			],
			"stateMutability": "view",
			"type": "function"
		},
		{
			"inputs": [
				{
					"internalType": "contract IAMM",
					"name": "amm",
					"type": "address"
				},
				{
					"internalType": "uint256",
					"name": "size",
					"type": "uint256"
				},
				{
					"internalType": "address",
					"name": "trader",
					"type": "address"
				},
				{
					"internalType": "uint256",
					"name": "margin",
					"type": "uint256"
				}
			],
			"name": "liquidate",
			"outputs": [],
			"stateMutability": "nonpayable",
			"type": "function"
		},
		{
			"inputs": [
				{
					"internalType": "contract IAMM",
					"name": "amm",
					"type": "address"
				},
				{
					"internalType": "address",
					"name": "maker",
					"type": "address"
				},
				{
					"internalType": "uint256",
					"name": "margin",
					"type": "uint256"
				}
			],
			"name": "liquidateMaker",
			"outputs": [],
			"stateMutability": "nonpayable",
			"type": "function"
		},
		{
			"inputs": [
				{
					"internalType": "contract IAMM",
					"name": "amm",
					"type": "address"
				},
				{
					"internalType": "enum Side",
					"name": "side",
					"type": "uint8"
				},
				{
					"internalType": "uint256",
					"name": "quote",
					"type": "uint256"
				},
				{
					"internalType": "uint256",
					"name": "leverage",
					"type": "uint256"
				},
				{
					"internalType": "uint256",
					"name": "baseLimit",
					"type": "uint256"
				}
			],
			"name": "openPosition",
			"outputs": [],
			"stateMutability": "nonpayable",
			"type": "function"
		},
		{
			"inputs": [],
			"name": "owner",
			"outputs": [
				{
					"internalType": "address",
					"name": "result",
					"type": "address"
				}
			],
			"stateMutability": "view",
			"type": "function"
		},
		{
			"inputs": [
				{
					"internalType": "address",
					"name": "pendingOwner",
					"type": "address"
				}
			],
			"name": "ownershipHandoverExpiresAt",
			"outputs": [
				{
					"internalType": "uint256",
					"name": "result",
					"type": "uint256"
				}
			],
			"stateMutability": "view",
			"type": "function"
		},
		{
			"inputs": [],
			"name": "ownershipHandoverValidFor",
			"outputs": [
				{
					"internalType": "uint64",
					"name": "",
					"type": "uint64"
				}
			],
			"stateMutability": "view",
			"type": "function"
		},
		{
			"inputs": [
				{
					"internalType": "contract IAMM",
					"name": "amm",
					"type": "address"
				},
				{
					"internalType": "uint256",
					"name": "amount",
					"type": "uint256"
				}
			],
			"name": "removeLiquidity",
			"outputs": [],
			"stateMutability": "nonpayable",
			"type": "function"
		},
		{
			"inputs": [
				{
					"internalType": "contract IAMM",
					"name": "amm",
					"type": "address"
				},
				{
					"internalType": "uint256",
					"name": "margin",
					"type": "uint256"
				}
			],
			"name": "removeMargin",
			"outputs": [],
			"stateMutability": "nonpayable",
			"type": "function"
		},
		{
			"inputs": [],
			"name": "renounceOwnership",
			"outputs": [],
			"stateMutability": "payable",
			"type": "function"
		},
		{
			"inputs": [],
			"name": "requestOwnershipHandover",
			"outputs": [],
			"stateMutability": "payable",
			"type": "function"
		},
		{
			"inputs": [
				{
					"internalType": "bool",
					"name": "_active",
					"type": "bool"
				}
			],
			"name": "setActive",
			"outputs": [],
			"stateMutability": "nonpayable",
			"type": "function"
		},
		{
			"inputs": [
				{
					"internalType": "uint256",
					"name": "_divergenceCap",
					"type": "uint256"
				}
			],
			"name": "setDivergenceCap",
			"outputs": [],
			"stateMutability": "nonpayable",
			"type": "function"
		},
		{
			"inputs": [
				{
					"internalType": "uint256",
					"name": "minMargin",
					"type": "uint256"
				}
			],
			"name": "setMinOrderbookMargin",
			"outputs": [],
			"stateMutability": "nonpayable",
			"type": "function"
		},
		{
			"inputs": [
				{
					"internalType": "contract IAMM",
					"name": "amm",
					"type": "address"
				},
				{
					"internalType": "bool",
					"name": "valid",
					"type": "bool"
				}
			],
			"name": "setValidAMM",
			"outputs": [],
			"stateMutability": "nonpayable",
			"type": "function"
		},
		{
			"inputs": [
				{
					"internalType": "contract IAMM",
					"name": "amm",
					"type": "address"
				}
			],
			"name": "settleFunding",
			"outputs": [],
			"stateMutability": "nonpayable",
			"type": "function"
		},
		{
			"inputs": [
				{
					"internalType": "address",
					"name": "newOwner",
					"type": "address"
				}
			],
			"name": "transferOwnership",
			"outputs": [],
			"stateMutability": "payable",
			"type": "function"
		},
		{
			"inputs": [
				{
					"internalType": "uint256",
					"name": "id",
					"type": "uint256"
				},
				{
					"components": [
						{
							"internalType": "address",
							"name": "trader",
							"type": "address"
						},
						{
							"internalType": "contract IAMM",
							"name": "amm",
							"type": "address"
						},
						{
							"internalType": "enum Side",
							"name": "side",
							"type": "uint8"
						},
						{
							"internalType": "uint256",
							"name": "trigger",
							"type": "uint256"
						},
						{
							"internalType": "uint256",
							"name": "quoteAmount",
							"type": "uint256"
						},
						{
							"internalType": "uint256",
							"name": "leverage",
							"type": "uint256"
						},
						{
							"internalType": "bool",
							"name": "reduceOnly",
							"type": "bool"
						}
					],
					"internalType": "struct LimitOrder",
					"name": "order",
					"type": "tuple"
				}
			],
			"name": "updateLimitOrder",
			"outputs": [],
			"stateMutability": "nonpayable",
			"type": "function"
		},
		{
			"inputs": [
				{
					"internalType": "uint256[]",
					"name": "ids",
					"type": "uint256[]"
				},
				{
					"components": [
						{
							"internalType": "address",
							"name": "trader",
							"type": "address"
						},
						{
							"internalType": "contract IAMM",
							"name": "amm",
							"type": "address"
						},
						{
							"internalType": "enum Side",
							"name": "side",
							"type": "uint8"
						},
						{
							"internalType": "uint256",
							"name": "trigger",
							"type": "uint256"
						},
						{
							"internalType": "uint256",
							"name": "quoteAmount",
							"type": "uint256"
						},
						{
							"internalType": "uint256",
							"name": "leverage",
							"type": "uint256"
						},
						{
							"internalType": "bool",
							"name": "reduceOnly",
							"type": "bool"
						}
					],
					"internalType": "struct LimitOrder[]",
					"name": "_orders",
					"type": "tuple[]"
				}
			],
			"name": "updateLimitOrderBatch",
			"outputs": [],
			"stateMutability": "nonpayable",
			"type": "function"
		},
		{
			"inputs": [
				{
					"internalType": "bytes32",
					"name": "id",
					"type": "bytes32"
				},
				{
					"internalType": "contract IAMM",
					"name": "amm",
					"type": "address"
				},
				{
					"components": [
						{
							"internalType": "address",
							"name": "trader",
							"type": "address"
						},
						{
							"internalType": "contract IAMM",
							"name": "amm",
							"type": "address"
						},
						{
							"internalType": "uint256",
							"name": "trigger",
							"type": "uint256"
						},
						{
							"internalType": "uint256",
							"name": "size",
							"type": "uint256"
						},
						{
							"internalType": "uint256",
							"name": "quoteLimit",
							"type": "uint256"
						},
						{
							"internalType": "bool",
							"name": "takeProfit",
							"type": "bool"
						}
					],
					"internalType": "struct TriggerOrder",
					"name": "order",
					"type": "tuple"
				}
			],
			"name": "updateTriggerOrder",
			"outputs": [],
			"stateMutability": "nonpayable",
			"type": "function"
		}
	],
	"bytecode": {
		"object": "0x6101206040523480156200001257600080fd5b5060405162005b2838038062005b2883398101604081905262000035916200014e565b6001600160a01b038086166080528481166101005283811660a05282811660c052811660e0526200006562000070565b5050505050620001be565b603c54610100900460ff1615620000dd5760405162461bcd60e51b815260206004820152602760248201527f496e697469616c697a61626c653a20636f6e747261637420697320696e697469604482015266616c697a696e6760c81b606482015260840160405180910390fd5b603c5460ff908116146200012f57603c805460ff191660ff9081179091556040519081527f7f26b83ff96e1f2b6a682f133852f6798a09c465da95921460cefb38474024989060200160405180910390a15b565b80516001600160a01b03811681146200014957600080fd5b919050565b600080600080600060a086880312156200016757600080fd5b620001728662000131565b9450620001826020870162000131565b9350620001926040870162000131565b9250620001a26060870162000131565b9150620001b26080870162000131565b90509295509295909350565b60805160a05160c05160e051610100516158d8620002506000396000612458015260008181610bc9015281816110fa01526112890152600081816118d701528181611bc20152611e1e0152600081816112070152612336015260008181610d2f0152818161183801528181611b3101528181611e570152818161210f0152818161243601526124f501526158d86000f3fe6080604052600436106102c95760003560e01c80637f6f126311610175578063cbb50e61116100dc578063e859f37211610095578063f2fde38b1161006f578063f2fde38b14610a74578063f394ae4914610a87578063f8b6e44914610aa7578063fee81cf414610ac757600080fd5b8063e859f372146109ee578063e980e16e14610a0e578063f04e283e14610a6157600080fd5b8063cbb50e611461091a578063cd6dc6871461093a578063cf70cb691461095a578063d3123a801461097a578063d7533f02146109b0578063e3046770146109ce57600080fd5b8063a201ccf61161012e578063a201ccf614610802578063acec338a14610822578063b33dc19014610842578063b346679b146108a4578063b959d695146108da578063c88d348a146108fa57600080fd5b80637f6f12631461071b5780638da5cb5b1461073b5780639457be231461076757806398712fe414610787578063987362da146107b45780639dda4e4f146107c957600080fd5b80634fa9c4db1161023457806368d85297116101ed578063715018a6116101c7578063715018a6146106b357806373af0205146106bb5780637aefce97146106db5780637eb02406146106fb57600080fd5b806368d852971461063d5780636b17ad031461065d5780636ea41e401461067d57600080fd5b80634fa9c4db14610586578063517237a9146105a657806353061026146105c657806354b85a3e146105f357806354d1f13d146106205780635ac3b62d1461062857600080fd5b8063256929621161028657806325692962146103c25780632a120de4146103ca5780633966a28b146103ea57806339e50d861461040a578063429e9237146105235780634a6ebce71461055957600080fd5b80630e86a08d146102ce57806313dee2d11461030857806318aec6261461032a5780631ece366a1461034a578063207b5b6f1461037857806322f3e2d414610398575b600080fd5b3480156102da57600080fd5b506102ee6102e93660046148b4565b610afa565b604080519283526020830191909152015b60405180910390f35b34801561031457600080fd5b50610328610323366004614932565b610b71565b005b34801561033657600080fd5b506103286103453660046149e4565b610bf6565b34801561035657600080fd5b5061036a610365366004614a24565b610d0f565b6040519081526020016102ff565b34801561038457600080fd5b50610328610393366004614a6d565b610e6d565b3480156103a457600080fd5b50603c5462010000900460ff165b60405190151581526020016102ff565b610328610f29565b3480156103d657600080fd5b506103286103e5366004614b96565b610f79565b3480156103f657600080fd5b506103b26104053660046148b4565b61102f565b34801561041657600080fd5b506104cc610425366004614bbb565b6040805160c081018252600080825260208201819052918101829052606081018290526080810182905260a0810191909152506001600160a01b039182166000908152600c6020908152604080832093835292815290829020825160c08101845281548516815260018201549094169184019190915260028101549183019190915260038101546060830152600481015460808301526005015460ff16151560a082015290565b6040516102ff919081516001600160a01b0390811682526020808401519091169082015260408083015190820152606080830151908201526080808301519082015260a09182015115159181019190915260c00190565b34801561052f57600080fd5b5061036a61053e366004614be7565b6001600160a01b031660009081526007602052604090205490565b34801561056557600080fd5b50610579610574366004614c04565b6110a2565b6040516102ff9190614c81565b34801561059257600080fd5b506103286105a1366004614c94565b611136565b3480156105b257600080fd5b506103286105c1366004614ced565b611237565b3480156105d257600080fd5b506105e66105e1366004614d83565b6112b3565b6040516102ff9190614e2a565b3480156105ff57600080fd5b5061061361060e3660046148b4565b61135f565b6040516102ff9190614e38565b6103286113d8565b34801561063457600080fd5b5060405461036a565b34801561064957600080fd5b5061036a610658366004614e7c565b611414565b34801561066957600080fd5b50610328610678366004614be7565b611589565b34801561068957600080fd5b5061036a610698366004614be7565b6001600160a01b031660009081526005602052604090205490565b610328611710565b3480156106c757600080fd5b506105796106d63660046148b4565b611724565b3480156106e757600080fd5b506103286106f6366004614e98565b61179b565b34801561070757600080fd5b5061036a610716366004614ed9565b611907565b34801561072757600080fd5b506103b2610736366004614bbb565b6119ca565b34801561074757600080fd5b50638b78c6d819546040516001600160a01b0390911681526020016102ff565b34801561077357600080fd5b50610328610782366004614eeb565b611a8b565b34801561079357600080fd5b506107a76107a2366004614be7565b611be8565b6040516102ff9190614f33565b3480156107c057600080fd5b5060415461036a565b3480156107d557600080fd5b506103b26107e4366004614be7565b6001600160a01b03166000908152603d602052604090205460ff1690565b34801561080e57600080fd5b5061032861081d366004614bbb565b611c6d565b34801561082e57600080fd5b5061032861083d366004614f5e565b611edb565b34801561084e57600080fd5b5061086261085d3660046148b4565b611f5c565b6040516102ff9190600060a082019050825182526020830151602083015260408301516040830152606083015160608301526080830151608083015292915050565b3480156108b057600080fd5b5061036a6108bf366004614be7565b6001600160a01b031660009081526009602052604090205490565b3480156108e657600080fd5b506103286108f5366004614bbb565b611ff1565b34801561090657600080fd5b50610328610915366004614bbb565b61217c565b34801561092657600080fd5b50610328610935366004614f7b565b6122b5565b34801561094657600080fd5b50610328610955366004614bbb565b612364565b34801561096657600080fd5b50610328610975366004614bbb565b6124d7565b34801561098657600080fd5b5061036a610995366004614be7565b6001600160a01b031660009081526006602052604090205490565b3480156109bc57600080fd5b506040516202a30081526020016102ff565b3480156109da57600080fd5b506103286109e9366004614d83565b61259a565b3480156109fa57600080fd5b50610328610a09366004614d83565b6125a7565b348015610a1a57600080fd5b50610a2e610a29366004614be7565b612607565b6040516102ff91908151815260208083015190820152604080830151908201526060918201519181019190915260800190565b610328610a6f366004614be7565b61267f565b610328610a82366004614be7565b6126bc565b348015610a9357600080fd5b50610328610aa2366004614bbb565b6126e3565b348015610ab357600080fd5b50610328610ac2366004614d83565b6126ef565b348015610ad357600080fd5b5061036a610ae2366004614be7565b63389a75e1600c908152600091909152602090205490565b6001600160a01b038083166000908152602081815260408083209385168352928152828220835160a08101855281548152600182015492810192909252600281015493820193909352600383015460608201526004909201546080830152908190610b669085906126fc565b909590945092505050565b610b79612746565b610bef3385858585604051602401610b9595949392919061506d565b60408051601f198184030181529190526020810180516001600160e01b031663e98143ad60e01b1790526001600160a01b037f0000000000000000000000000000000000000000000000000000000000000000169061276f565b5050505050565b610c0e610c096040830160208401614be7565b61279b565b6001600160a01b038083166000908152600c6020908152604080832087845290915290205416338114610c54576040516342f062b760e01b815260040160405180910390fd5b33610c626020840184614be7565b6001600160a01b031614610c89576040516342f062b760e01b815260040160405180910390fd5b81600c6000610c9e6040840160208501614be7565b6001600160a01b03168152602080820192909252604090810160009081208882529092529020610cce82826150f0565b905050837fe657aa4938f23a1e792a700bd221e3e0dda2760d6572e0c57ac1d90a33a6d9f283604051610d0191906151ce565b60405180910390a250505050565b6000610d19612746565b610d228561279b565b610d576001600160a01b037f0000000000000000000000000000000000000000000000000000000000000000163330876127d4565b604080516080810182526001600160a01b0387166000818152600560209081528482205484528282526006815284822054818501528282526001808252858320015484860152828252600990528381205460608401529251631a09603f60e21b8152909163682580fc91610dd69133918a918a918a91906004016151dc565b60408051808303816000875af1158015610df4573d6000803e3d6000fd5b505050506040513d601f19601f82011682018060405250810190610e189190615230565b604080518381526020810183905292945090925033916001600160a01b038916917f32923dfeaa77af290abe15bfb407a16585bee3843a05dc1b82ad3dca3a866aad910160405180910390a350949350505050565b610e75612828565b80158015610ee05750816001600160a01b03166322f3e2d46040518163ffffffff1660e01b8152600401602060405180830381865afa158015610ebc573d6000803e3d6000fd5b505050506040513d601f19601f82011682018060405250810190610ee09190615254565b15610efe5760405163cdd8a30360e01b815260040160405180910390fd5b6001600160a01b03919091166000908152603d60205260409020805460ff1916911515919091179055565b60006202a30067ffffffffffffffff164201905063389a75e1600c5233600052806020600c2055337fdbf36a107da19e49527a7176a1babf963b4b0ff8cde35ee35d6cd8f1f9ac7e1d600080a250565b610f81612746565b604080516001808252818301909252600091816020015b610fa0614804565b815260200190600190039081610f9857505060408051600180825281830190925291925060009190602080830190803683370190505090508282600081518110610fec57610fec615271565b6020026020010181905250838160008151811061100b5761100b615271565b602002602001018181525050610bef338284604051602401610b95939291906152c1565b6001600160a01b038083166000908152602081815260408083209385168352928152828220835160a08101855281548152600182015492810192909252600281015493820193909352600383015460608201526004909201546080830152906110988482612843565b9150505b92915050565b60606110ac612746565b60006111203385856040516024016110c6939291906152f7565b60408051601f198184030181529190526020810180516001600160e01b0316638b69f89760e01b1790526001600160a01b037f0000000000000000000000000000000000000000000000000000000000000000169061276f565b905080806020019051810190611098919061531c565b61113e612746565b6111478361279b565b600061115384336129bb565b905060ff81901c600003808201188084111561118257604051631eab837160e11b815260040160405180910390fd5b83600003611191575050505050565b60008083136111a15760006111a4565b60015b90506111b08682612a02565b61122d33878388886000888c146040516024016111d397969594939291906153a2565b60408051601f198184030181529190526020810180516001600160e01b0316637b9db48760e11b1790526001600160a01b037f0000000000000000000000000000000000000000000000000000000000000000169061276f565b505050505b505050565b61123f612746565b6112af33826040516024016112559291906153f4565b60408051601f198184030181529190526020810180516001600160e01b0316637d5eb41f60e01b1790526001600160a01b037f0000000000000000000000000000000000000000000000000000000000000000169061276f565b5050565b6112bb614804565b600082815260046020908152604091829020825160e08101845281546001600160a01b039081168252600180840154918216948301949094529093919291840191600160a01b90910460ff169081111561131757611317614d9c565b600181111561132857611328614d9c565b815260028201546020820152600382015460408201526004820154606082015260059091015460ff16151560809091015292915050565b6001600160a01b038083166000908152600b602090815260408083209385168352928152908290208054835181840281018401909452808452606093928301828280156113cb57602002820191906000526020600020905b8154815260200190600101908083116113b7575b5050505050905092915050565b63389a75e1600c523360005260006020600c2055337ffa7b8eab7da67f412cc9575ed43464468f9bfbae89d1675917346ca6d8fe3c92600080a2565b6000611429610c096040840160208501614be7565b336114376020840184614be7565b6001600160a01b03161461145e576040516342f062b760e01b815260040160405180910390fd5b8143604051602001611471929190615418565b60405160208183030381529060405280519060200120905081600c60008460200160208101906114a19190614be7565b6001600160a01b031681526020808201929092526040908101600090812085825290925290206114d182826150f0565b50600b905060006114e56020850185614be7565b6001600160a01b03166001600160a01b03168152602001908152602001600020600083602001602081019061151a9190614be7565b6001600160a01b031681526020808201929092526040908101600090812080546001810182559082529290209091018290555181907fe657aa4938f23a1e792a700bd221e3e0dda2760d6572e0c57ac1d90a33a6d9f29061157c9085906151ce565b60405180910390a2919050565b611591612746565b61159a8161279b565b6000806000836001600160a01b031663ed83d79c6040518163ffffffff1660e01b81526004016060604051808303816000875af11580156115df573d6000803e3d6000fd5b505050506040513d601f19601f820116820180604052508101906116039190615433565b6001600160a01b03871660008181526001602081815260408084208151608081018352815481529381015484840152600281015484830152600301546060840152938352600581528383205460069091529290912054949750929550909350909161166e8683615477565b60208401519092506116809087612b74565b61168b906001615477565b6116959082615477565b6001600160a01b03881660008181526005602090815260408083208790556006825291829020849055815189815290810188905290810185905260608101839052919250907f1c02bced5ca0dc6cf5083d0cafb8183dce5091eaa32c83b0065021a491ae5e539060800160405180910390a250505050505050565b611718612828565b6117226000612be3565b565b6001600160a01b038083166000908152600a602090815260408083209385168352928152908290208054835181840281018401909452808452606093928301828280156113cb57602002820191906000526020600020908154815260200190600101908083116113b7575050505050905092915050565b6117a3612746565b6117ac8361279b565b604051631bde66e760e01b81526001600160a01b038381166004830152600091829182918291881690631bde66e7906024016080604051808303816000875af11580156117fd573d6000803e3d6000fd5b505050506040513d601f19601f82011682018060405250810190611821919061549f565b929650909450925090506118606001600160a01b037f0000000000000000000000000000000000000000000000000000000000000000163330886127d4565b6040516001600160a01b0388166024820152336044820152606481018590526084810186905260a4810184905260c4810182905260e481018390526118fd906101040160408051601f198184030181529190526020810180516001600160e01b031663d0dea43d60e01b1790526001600160a01b037f0000000000000000000000000000000000000000000000000000000000000000169061276f565b5050505050505050565b6000611911612746565b604080516001808252818301909252600091816020015b611930614804565b815260200190600190039081611928579050509050611954368490038401846154d5565b8160008151811061196757611967615271565b6020026020010181905250600061198a33836040516024016110c69291906154f1565b90506000818060200190518101906119a2919061531c565b9050806000815181106119b7576119b7615271565b602002602001015193505050505b919050565b6001600160a01b038083166000818152600c602090815260408083208684528252808320815160c0810183528154871681526001820154871681850152600282015481840152600382015460608201526004820154608082015260059091015460ff16151560a08201529383528282528083208451909516835293905291822054808303611a5d5760009250505061109c565b611a828560008313611a70576001611a73565b60005b84604001518560a00151612c21565b95945050505050565b611a93612746565b611a9c8461279b565b6001600160a01b038085166000908152602081815260408083209386168352928152828220835160a08101855281548152600182015492810192909252600281015493820193909352600383015460608201526004909201546080830152611b048683612843565b905080611b2457604051633da1f7d160e11b815260040160405180910390fd5b611b596001600160a01b037f0000000000000000000000000000000000000000000000000000000000000000163330866127d4565b6040516001600160a01b038088166024830152851660448201523360648201526084810186905260a4810184905261122d9060c40160408051601f198184030181529190526020810180516001600160e01b0316636f70e66f60e01b1790526001600160a01b037f0000000000000000000000000000000000000000000000000000000000000000169061276f565b611c136040518060800160405280600081526020016000815260200160008152602001600081525090565b50604080516080810182526001600160a01b03909216600081815260056020908152838220548552828252600681528382205481860152828252600180825284832001548585015291815260099091522054606082015290565b611c75612746565b611c7e8261279b565b604080516080810182526001600160a01b038416600081815260056020908152848220548452828252600681528482205481850152828252600180825285832001548486015282825260099052838120546060840152925163ab7ab90360e01b8152839283929163ab7ab90391611cfb9133918991600401615515565b6060604051808303816000875af1158015611d1a573d6000803e3d6000fd5b505050506040513d601f19601f82011682018060405250810190611d3e9190615433565b9250925092506000856001600160a01b0316630902f1ac6040518163ffffffff1660e01b81526004016040805180830381865afa158015611d83573d6000803e3d6000fd5b505050506040513d601f19601f82011682018060405250810190611da79190615230565b9150508315801590611db857508015155b15611e4a576040516001600160a01b03871660248201523360448201526064810184905260848101859052611e449060a40160408051601f198184030181529190526020810180516001600160e01b031663dab497ff60e01b1790526001600160a01b037f0000000000000000000000000000000000000000000000000000000000000000169061276f565b50611e7e565b611e7e6001600160a01b037f0000000000000000000000000000000000000000000000000000000000000000163385612cdb565b60408051868152602081018690529081018490526060810183905233906001600160a01b038816907fef5ab242a679e37f2ff51fd2bc2aed154cad62c0906ef89aa3228d72f968105f9060800160405180910390a3505050505050565b611ee3612828565b603c805482158015620100000262ff00001990921691909117909155611f2f576040517fed1cd0670ee0c0017f550451a038818c696d0b6a9d6ce5b369e44275573cf9b090600090a150565b6040517f1142a68cc39970640eb3524e77b91f78be21abc64f20f5919387eb46699bb77290600090a15b50565b611f8e6040518060a0016040528060008152602001600081526020016000815260200160008152602001600081525090565b506001600160a01b03918216600090815260208181526040808320939094168252918252829020825160a0810184528154815260018201549281019290925260028101549282019290925260038201546060820152600490910154608082015290565b611ff9612746565b6120028261279b565b6001600160a01b0382166000908152602081815260408083203384528252808320815160a081018352815481526001820154938101939093526002810154918301919091526003810154606083015260040154608082015290612078848361207386670de0b6b3a763ffff19612d21565b612d6e565b9050806040015160001461209f57604051632c7c1d6360e11b815260040160405180910390fd5b60608082015160208401528151908301526120ba8483612e36565b6001600160a01b038085166000908152602081815260408083203380855290835292819020865181559186015160018301558501516002820155606085015160038201556080850151600490910155612136917f0000000000000000000000000000000000000000000000000000000000000000169085612cdb565b60405183815233906001600160a01b038616907fb0fa03f93c852a6feaaeb34ccf4cf865cc223c4cc9d25dce28a9131fde2710719060200160405180910390a350505050565b612184612746565b6001600160a01b038083166000908152600c602090815260408083208584528252808320815160c0810183528154861680825260018301549096169381019390935260028101549183019190915260038101546060830152600481015460808301526005015460ff16151560a0820152916122009085906129bb565b9050600060ff82901c810380830118905061221e836020015161279b565b612247836020015160008413612235576001612238565b60005b85604001518660a00151612f3d565b808360600151111561225b57606083018190525b600080831361226b57600061226e565b60015b905061227a8682612a02565b612285868633612f6c565b835160208501516060860151608087015160405161122d946111d39490939092879233908a8414906024016153a2565b6122bd612746565b6122c78585612a02565b6122d08561279b565b6122e485846122df81866131c3565b6131d8565b61235c3386868686866040516024016123029695949392919061555a565b60408051601f198184030181529190526020810180516001600160e01b03166310faff9560e31b1790526001600160a01b037f0000000000000000000000000000000000000000000000000000000000000000169061276f565b505050505050565b603c54610100900460ff16158080156123845750603c54600160ff909116105b8061239e5750303b15801561239e5750603c5460ff166001145b6124065760405162461bcd60e51b815260206004820152602e60248201527f496e697469616c697a61626c653a20636f6e747261637420697320616c72656160448201526d191e481a5b9a5d1a585b1a5e995960921b60648201526084015b60405180910390fd5b603c805460ff19166001179055801561242957603c805461ff0019166101001790555b61247f6001600160a01b037f0000000000000000000000000000000000000000000000000000000000000000167f000000000000000000000000000000000000000000000000000000000000000060001961326d565b604082905561248d836132a9565b801561123257603c805461ff0019169055604051600181527f7f26b83ff96e1f2b6a682f133852f6798a09c465da95921460cefb38474024989060200160405180910390a1505050565b6124df612746565b6124e88261279b565b61251d6001600160a01b037f0000000000000000000000000000000000000000000000000000000000000000163330846127d4565b6001600160a01b0382166000908152602081815260408083203384529091528120600101805483929061255190849061559e565b909155505060405181815233906001600160a01b038416907f05c2d01f05f37971d15b22586be2f1933a1ae8c0079a056a430b4391550ffb2d9060200160405180910390a35050565b6125a2612828565b604155565b6125af612746565b6040805160018082528183019092526000916020808301908036833701905050905081816000815181106125e5576125e5615271565b60200260200101818152505061123233826040516024016112559291906153f4565b6126326040518060800160405280600081526020016000815260200160008152602001600081525090565b506001600160a01b03166000908152600160208181526040928390208351608081018552815481529281015491830191909152600281015492820192909252600390910154606082015290565b612687612828565b63389a75e1600c52806000526020600c2080544211156126af57636f5e88186000526004601cfd5b60009055611f5981612be3565b6126c4612828565b8060601b6126da57637448fbae6000526004601cfd5b611f5981612be3565b6112af82826000612f6c565b6126f7612828565b604055565b60008082600001516000036127165750600090508061273f565b6127248484600001516132e5565b915061273c82846040015160008660000151126136ee565b90505b9250929050565b603c5462010000900460ff1661172257604051637dc579d960e11b815260040160405180910390fd5b6060612794838360405180606001604052806027815260200161587c60279139613736565b9392505050565b6001600160a01b0381166000908152603d602052604090205460ff16611f59576040516304c1bb0360e11b815260040160405180910390fd5b60405181606052826040528360601b602c526323b872dd60601b600c52602060006064601c6000895af13d15600160005114171661281a57637939f4246000526004601cfd5b600060605260405250505050565b638b78c6d819543314611722576382b429006000526004601cfd5b805160009081036128565750600061109c565b60006128d76128c8856001600160a01b03166346558d1b6040518163ffffffff1660e01b8152600401602060405180830381865afa15801561289c573d6000803e3d6000fd5b505050506040513d601f19601f820116820180604052508101906128c091906155b1565b8551906137a4565b60ff81901c6000039081011890565b90506000808460000151131561290e576128f484604001516137d0565b6128fd836137d0565b61290791906155ca565b9050612931565b612917826137d0565b61292485604001516137d0565b61292e91906155ca565b90505b600061293e868684612d6e565b606001519050856001600160a01b0316634f3c15426040518163ffffffff1660e01b8152600401602060405180830381865afa158015612982573d6000803e3d6000fd5b505050506040513d601f19601f820116820180604052508101906129a691906155b1565b6129b082856137e9565b109695505050505050565b6001600160a01b038083166000908152602081815260408083209385168352929052908120549081900361109c57604051631d5fdf4760e11b815260040160405180910390fd5b6040546000819003612a1357505050565b6000836001600160a01b031663604096326040518163ffffffff1660e01b8152600401602060405180830381865afa158015612a53573d6000803e3d6000fd5b505050506040513d601f19601f82011682018060405250810190612a7791906155b1565b90506000846001600160a01b03166358c0994a6040518163ffffffff1660e01b8152600401602060405180830381865afa158015612ab9573d6000803e3d6000fd5b505050506040513d601f19601f82011682018060405250810190612add91906155b1565b9050836001811115612af157612af1614d9c565b818311612aff576000612b02565b60015b6001811115612b1357612b13614d9c565b03612b1f575050505050565b6000612b5182612b4b612b31856137d0565b612b3a876137d0565b818113818303929091038218021890565b906137e9565b90508381111561235c5760405163a6dea22360e01b815260040160405180910390fd5b6000808312818312808214158215612b9257612b8f866155ea565b95505b8115612ba457612ba1856155ea565b94505b612bbf612bba8787670de0b6b3a76400006137fa565b6137d0565b93508015612bda57612bd0846155ea565b935050505061109c565b50505092915050565b638b78c6d81980546001600160a01b039092169182907f8be0079c531659141344cd1fd0a4f28419497f9722a3daafe3b4186f6b6457e0600080a355565b600080856001600160a01b031663604096326040518163ffffffff1660e01b8152600401602060405180830381865afa158015612c62573d6000803e3d6000fd5b505050506040513d601f19601f82011682018060405250810190612c8691906155b1565b9050600080866001811115612c9d57612c9d614d9c565b03612cba5783612caf57848211612cb3565b8482105b9050612cce565b83612cc757848210612ccb565b8482115b90505b159150505b949350505050565b816014528060345263a9059cbb60601b60005260206000604460106000875af13d156001600051141716612d17576390b8ec186000526004601cfd5b6000603452505050565b60008082128015612d3857612d35836155ea565b92505b612d4e612bba8585670de0b6b3a76400006137fa565b91508015612d6757612d5f826155ea565b91505061109c565b5092915050565b612d996040518060800160405280600081526020016000815260200160008152602001600081525090565b6001600160a01b0384166000908152600560205260409020548152825115612dde57825160608401518251612dd89291612dd2916155ca565b90612b74565b60208201525b6000612ded84602001516137d0565b6020830151612dfc90856155ca565b612e069190615477565b905060008112612e1c5760608201819052612e2e565b60ff81901c6000038082011860408301525b509392505050565b600080612e4384846126fc565b915091506000612e5684602001516137d0565b90506000808313612e7057612e6b8383615477565b612e72565b815b90506000866001600160a01b031663bce2020d6040518163ffffffff1660e01b8152600401602060405180830381865afa158015612eb4573d6000803e3d6000fd5b505050506040513d601f19601f82011682018060405250810190612ed891906155b1565b905060008087600001511315612f02576040870151612efb90612bba90846131c3565b9050612f12565b612f0f612bba87846131c3565b90505b6000612f1e82856155ca565b12156118fd5760405163845dfc3960e01b815260040160405180910390fd5b612f4984848484612c21565b612f66576040516315f3d48360e01b815260040160405180910390fd5b50505050565b6001600160a01b038084166000908152600c6020908152604080832086845290915290205416338114801590612fa957506001600160a01b038216155b15612fc7576040516342f062b760e01b815260040160405180910390fd5b6001600160a01b038085166000818152600c60209081526040808320888452825280832080546001600160a01b031990811682556001820180549091169055600281018490556003810184905560048101849055600501805460ff191690559385168252600b8152838220928252918252828120805484518185028101850190955280855291939290919083018282801561308157602002820191906000526020600020905b81548152602001906001019080831161306d575b505083519394506000925050505b8181101561312f57858382815181106130aa576130aa615271565b60200260200101510361312757826130c3600184615606565b815181106130d3576130d3615271565b6020908102919091018101516001600160a01b038087166000908152600b84526040808220928c1682529190935290912080548390811061311657613116615271565b60009182526020909120015561312f565b60010161308f565b506001600160a01b038084166000908152600b60209081526040808320938a1683529290522080548061316457613164615619565b60019003818190600052602060002001600090559055836001600160a01b0316866001600160a01b0316867f9242309241259c8f8c0196f19912b72928f6d95256e1939aee16099b71e9884f60405160405180910390a4505050505050565b60006127948383670de0b6b3a76400006137fa565b6000836001600160a01b031663bce2020d6040518163ffffffff1660e01b8152600401602060405180830381865afa158015613218573d6000803e3d6000fd5b505050506040513d601f19601f8201168201806040525081019061323c91906155b1565b9050600061324a84846137e9565b905081811015610bef576040516357809b3160e01b815260040160405180910390fd5b816014528060345263095ea7b360601b60005260206000604460106000875af13d156001600051141716612d1757633e3f8f736000526004601cfd5b6001600160a01b0316638b78c6d8198190558060007f8be0079c531659141344cd1fd0a4f28419497f9722a3daafe3b4186f6b6457e08180a350565b60006132ef614843565b60ff83901c600003808401186060820181905260000361331357600091505061109c565b836001600160a01b031663c24e38596040518163ffffffff1660e01b8152600401606060405180830381865afa158015613351573d6000803e3d6000fd5b505050506040513d601f19601f820116820180604052508101906133759190615433565b60408401526020830152815260008313613390576001613393565b60005b8160c0019060018111156133a9576133a9614d9c565b908160018111156133bc576133bc614d9c565b90525060018160c0015160018111156133d7576133d7614d9c565b1460e08201526001600160a01b038416600090815260026020526040812060c08301518290600181111561340d5761340d614d9c565b600181111561341e5761341e614d9c565b8152602001908152602001600020905061345161344c836020015184600001516137e990919063ffffffff16565b6138a9565b60020b608083015260e08201516134e4906001600160a01b0387169063f36bdbc99061347e576000613481565b60015b85606001516040518363ffffffff1660e01b81526004016134a392919061562f565b602060405180830381865afa1580156134c0573d6000803e3d6000fd5b505050506040513d601f19601f8201168201806040525081019061344c91906155b1565b60020b60a083015260e08201511561350b5781608001805161350590615646565b60020b90525b6000805b8360e0015161352e578360a0015160020b846080015160020b13613540565b8360a0015160020b846080015160020b125b1561362c57608084015160e085015161355e918591600190156138c9565b60029190910b608086015290508015613609576135e06040518060e0016040528086606001518152602001866000015181526020018660200151815260200186604001518152602001896001600160a01b03168152602001866080015160020b81526020018660c0015160018111156135d9576135d9614d9c565b9052613a86565b60208801528652606086019190915291506135fb828661559e565b60608501519095501561362c575b8360e001516136275783608001805161362190615646565b60020b90525b61350f565b6060840151156136e4578360e001511561368457836020015184606001511061366657600184602001516136609190615606565b60608501525b83606001518460200181815161367c9190615606565b90525061369e565b83606001518460200181815161369a919061559e565b9052505b60006136bb856020015186604001516137e990919063ffffffff16565b90506136d66136cd86600001516137d0565b612b3a836137d0565b6136e0908761559e565b9550505b5050505092915050565b6000806136fa846137d0565b90506000613707866137d0565b905083156137205761371981836155ca565b925061372d565b61372a82826155ca565b92505b50509392505050565b6060600080856001600160a01b031685604051613753919061568d565b600060405180830381855af49150503d806000811461378e576040519150601f19603f3d011682016040523d82523d6000602084013e613793565b606091505b509150915061372a86838387613d32565b60008083128015612d38576137b8846155ea565b9350612d4e612bba8585670de0b6b3a76400006137fa565b6000600160ff1b82106137e5576137e5613dab565b5090565b600061279483670de0b6b3a7640000845b6000838302600019848609818110820190038061382f57836138245763ae47f7026000526004601cfd5b508290049050612794565b8084116138445763ae47f7026000526004601cfd5b838587096000858103861695869004956003870260029081188089028203028089028203028089028203028089028203028089028203028089029091030291819003819004600101858411909403939093029190930391909104170290509392505050565b600061109c60606138b984613db9565b901b6001600160a01b0316613e3b565b600080806138d785876156bf565b905060008660020b1280156138f757506138f185876156f9565b60020b15155b1561390a578061390681615646565b9150505b83156139b75760008061391c83614175565b90925090506000600160ff831681901b906139379082615606565b613941919061559e565b600184900b600090815260208c905260409020548116801515965090915085613981578861397260ff85168761571b565b61397c9190615740565b6139ac565b8861398b82614195565b6139959085615760565b6139a29060ff168761571b565b6139ac9190615740565b965050505050613a7c565b6000806139cd6139c8846001615779565b614175565b909250905060006139e5600160ff841681901b615606565b600184900b600090815260208c905260409020549019908116801515965090915085613a3e5788613a178460ff615760565b60ff16613a25876001615779565b613a2f9190615779565b613a399190615740565b613a75565b8883613a4983614285565b613a539190615760565b60ff16613a61876001615779565b613a6b9190615779565b613a759190615740565b9650505050505b5094509492505050565b60808101516001600160a01b0316600090815260036020526040812060c0830151829182918291829182906001811115613ac257613ac2614d9c565b6001811115613ad357613ad3614d9c565b815260200190815260200160002060008760a0015160020b60020b81526020019081526020016000206040518060400160405290816000820154815260200160018201805480602002602001604051908101604052809291908181526020018280548015613b6057602002820191906000526020600020905b815481526020019060010190808311613b4c575b505050505081525050905060006004600083602001516001856020015151613b889190615606565b81518110613b9857613b98615271565b6020026020010151815260200190815260200160002060020154905080600003613bda5750508451602086015160408701519195506000945092509050613d2b565b6000613c0e613bec89604001516137d0565b612b3a612bba613c09868d606001516137e990919063ffffffff16565b6143b0565b8851909150811115613c1e575086515b8088600001818151613c309190615606565b90525060008860c001516001811115613c4b57613c4b614d9c565b14613c6d578088604001818151613c629190615606565b915081815250613c86565b8088604001818151613c7f919061559e565b9150818152505b5060408801516060890151613c9a916137e9565b9450613cb38860400151866137e990919063ffffffff16565b9150613cc5612b3189602001516137d0565b885190965015613d1b578251600090613cde90846137e9565b8951909150811115613cee575087515b8089600001818151613d009190615606565b905250613d0d81846131c3565b613d17908861559e565b9650505b5050855160408701519095509150505b9193509193565b60608315613da1578251600003613d9a576001600160a01b0385163b613d9a5760405162461bcd60e51b815260206004820152601d60248201527f416464726573733a2063616c6c20746f206e6f6e2d636f6e747261637400000060448201526064016123fd565b5081612cd3565b612cd383836143cc565b6335278d126000526004601cfd5b6001600160881b03811160071b81811c68ffffffffffffffffff1060061b1781811c64ffffffffff1060051b1781811c62ffffff1060041b1781811c620100000160b5600192831c1b0260121c80830401811c80830401811c80830401811c80830401811c80830401811c80830401811c80830401901c908190048111900390565b60006401000276a36001600160a01b03831610801590613e77575073fffd8963efd1fc6a506488495d951d5263988d266001600160a01b038316105b613ea75760405162461bcd60e51b81526020600482015260016024820152602960f91b60448201526064016123fd565b640100000000600160c01b03602083901b166001600160801b03811160071b81811c67ffffffffffffffff811160061b90811c63ffffffff811160051b90811c61ffff811160041b90811c60ff8111600390811b91821c600f811160021b90811c918211600190811b92831c97908811961790941790921717909117171760808110613f4257613f38607f82615606565b83901c9150613f53565b613f4d81607f615606565b83901b91505b60006040613f626080846155ca565b901b9050828302607f1c92508260801c80603f1b8217915083811c935050828302607f1c92508260801c80603e1b8217915083811c935050828302607f1c92508260801c80603d1b8217915083811c935050828302607f1c92508260801c80603c1b8217915083811c935050828302607f1c92508260801c80603b1b8217915083811c935050828302607f1c92508260801c80603a1b8217915083811c935050828302607f1c92508260801c8060391b8217915083811c935050828302607f1c92508260801c8060381b8217915083811c935050828302607f1c92508260801c8060371b8217915083811c935050828302607f1c92508260801c8060361b8217915083811c935050828302607f1c92508260801c8060351b8217915083811c935050828302607f1c92508260801c8060341b8217915083811c935050828302607f1c92508260801c8060331b8217915083811c935050828302607f1c92508260801c8060321b8217915050600081693627a301d71055774c856140e5919061579e565b9050600060806141056f028f6481ab7f045a5af012a19d003aaa846155ca565b901d905060006080614127846fdb2df09e81959a81455e260799a0632f615477565b901d90508060020b8260020b1461416657886001600160a01b031661414b826143f6565b6001600160a01b031611156141605781614168565b80614168565b815b9998505050505050505050565b600281900b60081d600061418b610100846156f9565b60020b9050915091565b60008082116141a357600080fd5b600160801b82106141c157608091821c916141be90826157ce565b90505b6801000000000000000082106141e457604091821c916141e190826157ce565b90505b640100000000821061420357602091821c9161420090826157ce565b90505b62010000821061422057601091821c9161421d90826157ce565b90505b610100821061423c57600891821c9161423990826157ce565b90505b6010821061425757600491821c9161425490826157ce565b90505b6004821061427257600291821c9161426f90826157ce565b90505b600282106119c55761109c6001826157ce565b600080821161429357600080fd5b5060ff6001600160801b038216156142b7576142b0608082615760565b90506142bf565b608082901c91505b67ffffffffffffffff8216156142e1576142da604082615760565b90506142e9565b604082901c91505b63ffffffff82161561430757614300602082615760565b905061430f565b602082901c91505b61ffff82161561432b57614324601082615760565b9050614333565b601082901c91505b60ff82161561434e57614347600882615760565b9050614356565b600882901c91505b600f8216156143715761436a600482615760565b9050614379565b600482901c91505b60038216156143945761438d600282615760565b905061439c565b600282901c91505b60018216156119c55761109c600182615760565b600061109c6143c783670de0b6b3a76400006157e7565b613db9565b8151156143dc5781518083602001fd5b8060405162461bcd60e51b81526004016123fd91906157fe565b60008060008360020b1261440d578260020b61441a565b8260020b61441a906155ea565b9050614429620d89e719615831565b60020b81111561445f5760405162461bcd60e51b81526020600482015260016024820152601560fa1b60448201526064016123fd565b60008160011660000361447657600160801b614488565b6ffffcb933bd6fad37aa2d162d1a5940015b6001600160881b0316905060028216156144bd5760806144b8826ffff97272373d413259a46990580e213a6157e7565b901c90505b60048216156144e75760806144e2826ffff2e50f5f656932ef12357cf3c7fdcc6157e7565b901c90505b600882161561451157608061450c826fffe5caca7e10e4e61c3624eaa0941cd06157e7565b901c90505b601082161561453b576080614536826fffcb9843d60f6159c9db58835c9266446157e7565b901c90505b6020821615614565576080614560826fff973b41fa98c081472e6896dfb254c06157e7565b901c90505b604082161561458f57608061458a826fff2ea16466c96a3843ec78b326b528616157e7565b901c90505b60808216156145b95760806145b4826ffe5dee046a99a2a811c461f1969c30536157e7565b901c90505b6101008216156145e45760806145df826ffcbe86c7900a88aedcffc83b479aa3a46157e7565b901c90505b61020082161561460f57608061460a826ff987a7253ac413176f2b074cf7815e546157e7565b901c90505b61040082161561463a576080614635826ff3392b0822b70005940c7a398e4b70f36157e7565b901c90505b610800821615614665576080614660826fe7159475a2c29b7443b29c7fa6e889d96157e7565b901c90505b61100082161561469057608061468b826fd097f3bdfd2022b8845ad8f792aa58256157e7565b901c90505b6120008216156146bb5760806146b6826fa9f746462d870fdf8a65dc1f90e061e56157e7565b901c90505b6140008216156146e65760806146e1826f70d869a156d2a1b890bb3df62baf32f76157e7565b901c90505b61800082161561471157608061470c826f31be135f97d08fd981231505542fcfa66157e7565b901c90505b6201000082161561473d576080614738826f09aa508b5b7a84e1c677de54f3e99bc96157e7565b901c90505b62020000821615614768576080614763826e5d6af8dedb81196699c329225ee6046157e7565b901c90505b6204000082161561479257608061478d826d2216e584f5fa1ea926041bedfe986157e7565b901c90505b620800008216156147ba5760806147b5826b048a170391f7dc42444e8fa26157e7565b901c90505b60008460020b13156147d5576147d281600019615853565b90505b6147e464010000000082615867565b156147f05760016147f3565b60005b612cd39060ff16602083901c61559e565b6040805160e081018252600080825260208201819052909182019081526020016000815260200160008152602001600081526020016000151581525090565b60405180610100016040528060008152602001600081526020016000815260200160008152602001600060020b8152602001600060020b81526020016000600181111561489257614892614d9c565b8152600060209091015290565b6001600160a01b0381168114611f5957600080fd5b600080604083850312156148c757600080fd5b82356148d28161489f565b915060208301356148e28161489f565b809150509250929050565b60008083601f8401126148ff57600080fd5b50813567ffffffffffffffff81111561491757600080fd5b60208301915083602060e08302850101111561273f57600080fd5b6000806000806040858703121561494857600080fd5b843567ffffffffffffffff8082111561496057600080fd5b818701915087601f83011261497457600080fd5b81358181111561498357600080fd5b8860208260051b850101111561499857600080fd5b6020928301965094509086013590808211156149b357600080fd5b506149c0878288016148ed565b95989497509550505050565b600060c082840312156149de57600080fd5b50919050565b600080600061010084860312156149fa57600080fd5b833592506020840135614a0c8161489f565b9150614a1b85604086016149cc565b90509250925092565b60008060008060808587031215614a3a57600080fd5b8435614a458161489f565b966020860135965060408601359560600135945092505050565b8015158114611f5957600080fd5b60008060408385031215614a8057600080fd5b8235614a8b8161489f565b915060208301356148e281614a5f565b634e487b7160e01b600052604160045260246000fd5b604051601f8201601f1916810167ffffffffffffffff81118282101715614ada57614ada614a9b565b604052919050565b8035600281106119c557600080fd5b600060e08284031215614b0357600080fd5b60405160e0810181811067ffffffffffffffff82111715614b2657614b26614a9b565b6040529050808235614b378161489f565b81526020830135614b478161489f565b6020820152614b5860408401614ae2565b6040820152606083013560608201526080830135608082015260a083013560a082015260c0830135614b8981614a5f565b60c0919091015292915050565b6000806101008385031215614baa57600080fd5b8235915061273c8460208501614af1565b60008060408385031215614bce57600080fd5b8235614bd98161489f565b946020939093013593505050565b600060208284031215614bf957600080fd5b81356127948161489f565b60008060208385031215614c1757600080fd5b823567ffffffffffffffff811115614c2e57600080fd5b614c3a858286016148ed565b90969095509350505050565b600081518084526020808501945080840160005b83811015614c7657815187529582019590820190600101614c5a565b509495945050505050565b6020815260006127946020830184614c46565b600080600060608486031215614ca957600080fd5b8335614cb48161489f565b95602085013595506040909401359392505050565b600067ffffffffffffffff821115614ce357614ce3614a9b565b5060051b60200190565b60006020808385031215614d0057600080fd5b823567ffffffffffffffff811115614d1757600080fd5b8301601f81018513614d2857600080fd5b8035614d3b614d3682614cc9565b614ab1565b81815260059190911b82018301908381019087831115614d5a57600080fd5b928401925b82841015614d7857833582529284019290840190614d5f565b979650505050505050565b600060208284031215614d9557600080fd5b5035919050565b634e487b7160e01b600052602160045260246000fd5b60028110611f5957634e487b7160e01b600052602160045260246000fd5b80516001600160a01b039081168352602080830151909116908301526040810151614dfa81614db2565b6040830152606081810151908301526080808201519083015260a0808201519083015260c0908101511515910152565b60e0810161109c8284614dd0565b6020808252825182820181905260009190848201906040850190845b81811015614e7057835183529284019291840191600101614e54565b50909695505050505050565b600060c08284031215614e8e57600080fd5b61279483836149cc565b600080600060608486031215614ead57600080fd5b8335614eb88161489f565b92506020840135614ec88161489f565b929592945050506040919091013590565b600060e082840312156149de57600080fd5b60008060008060808587031215614f0157600080fd5b8435614f0c8161489f565b9350602085013592506040850135614f238161489f565b9396929550929360600135925050565b815181526020808301519082015260408083015190820152606080830151908201526080810161109c565b600060208284031215614f7057600080fd5b813561279481614a5f565b600080600080600060a08688031215614f9357600080fd5b8535614f9e8161489f565b9450614fac60208701614ae2565b94979496505050506040830135926060810135926080909101359150565b8183526000602080850194508260005b85811015614c76578135614fed8161489f565b6001600160a01b03908116885282840135906150088261489f565b1687840152604061501a838201614ae2565b61502381614db2565b90880152606082810135908801526080808301359088015260a0808301359088015260c08083013561505481614a5f565b15159088015260e0968701969190910190600101614fda565b6001600160a01b0386168152606060208201819052810184905260006001600160fb1b0385111561509d57600080fd5b8460051b808760808501378201828103608090810160408501526150c49082018587614fca565b98975050505050505050565b80546001600160a01b0319166001600160a01b0392909216919091179055565b81356150fb8161489f565b61510581836150d0565b5060208201356151148161489f565b61512181600184016150d0565b506040820135600282015560608201356003820155608082013560048201556005810160a083013561515281614a5f565b815490151560ff1660ff19919091161790555050565b80356151738161489f565b6001600160a01b03908116835260208201359061518f8261489f565b16602083015260408181013590830152606080820135908301526080808201359083015260a08101356151c181614a5f565b80151560a0840152505050565b60c0810161109c8284615168565b6001600160a01b0386168152602080820186905260408083018690526060808401869052845160808501529184015160a084015283015160c083015282015160e082015261010081015b9695505050505050565b6000806040838503121561524357600080fd5b505080516020909101519092909150565b60006020828403121561526657600080fd5b815161279481614a5f565b634e487b7160e01b600052603260045260246000fd5b600081518084526020808501945080840160005b83811015614c76576152ae878351614dd0565b60e096909601959082019060010161529b565b6001600160a01b03841681526060602082018190526000906152e590830185614c46565b82810360408401526152268185615287565b6001600160a01b0384168152604060208201819052600090611a829083018486614fca565b6000602080838503121561532f57600080fd5b825167ffffffffffffffff81111561534657600080fd5b8301601f8101851361535757600080fd5b8051615365614d3682614cc9565b81815260059190911b8201830190838101908783111561538457600080fd5b928401925b82841015614d7857835182529284019290840190615389565b6001600160a01b038881168252878116602083015260e08201906153c588614db2565b87604084015286606084015285608084015280851660a08401525082151560c083015298975050505050505050565b6001600160a01b0383168152604060208201819052600090612cd390830184614c46565b60e081016154268285615168565b8260c08301529392505050565b60008060006060848603121561544857600080fd5b8351925060208401519150604084015190509250925092565b634e487b7160e01b600052601160045260246000fd5b808201828112600083128015821682158216171561549757615497615461565b505092915050565b600080600080608085870312156154b557600080fd5b505082516020840151604085015160609095015191969095509092509050565b600060e082840312156154e757600080fd5b6127948383614af1565b6001600160a01b0383168152604060208201819052600090612cd390830184615287565b6001600160a01b03841681526020810183905260c08101612cd36040830184805182526020810151602083015260408101516040830152606081015160608301525050565b6001600160a01b0387811682528616602082015260c0810161557b86614db2565b8560408301528460608301528360808301528260a0830152979650505050505050565b8082018082111561109c5761109c615461565b6000602082840312156155c357600080fd5b5051919050565b8181036000831280158383131683831282161715612d6757612d67615461565b6000600160ff1b82016155ff576155ff615461565b5060000390565b8181038181111561109c5761109c615461565b634e487b7160e01b600052603160045260246000fd5b6040810161563c84614db2565b9281526020015290565b60008160020b627fffff19810361565f5761565f615461565b6000190192915050565b60005b8381101561568457818101518382015260200161566c565b50506000910152565b6000825161569f818460208701615669565b9190910192915050565b634e487b7160e01b600052601260045260246000fd5b60008160020b8360020b806156d6576156d66156a9565b627fffff198214600019821416156156f0576156f0615461565b90059392505050565b60008260020b8061570c5761570c6156a9565b808360020b0791505092915050565b600282810b9082900b03627fffff198112627fffff8213171561109c5761109c615461565b60008260020b8260020b028060020b9150808214612d6757612d67615461565b60ff828116828216039081111561109c5761109c615461565b600281810b9083900b01627fffff8113627fffff198212171561109c5761109c615461565b80820260008212600160ff1b841416156157ba576157ba615461565b818105831482151761109c5761109c615461565b60ff818116838216019081111561109c5761109c615461565b808202811582820484141761109c5761109c615461565b602081526000825180602084015261581d816040850160208701615669565b601f01601f19169190910160400192915050565b60008160020b627fffff19810361584a5761584a615461565b60000392915050565b600082615862576158626156a9565b500490565b600082615876576158766156a9565b50069056fe416464726573733a206c6f772d6c6576656c2064656c65676174652063616c6c206661696c6564a26469706673582212201134515296a566cab21267e8d1dceea9eeb85d28402a32446580258505977f1464736f6c63430008130033",
		"linkReferences": {}
	},
	"methodIdentifiers": {
		"addLiquidity(address,uint256,uint256,uint256)": "1ece366a",
		"addMargin(address,uint256)": "cf70cb69",
		"cancelOwnershipHandover()": "54d1f13d",
		"closePosition(address,uint256,uint256)": "4fa9c4db",
		"closePositionKeeper(address,bytes32)": "c88d348a",
		"completeOwnershipHandover(address)": "f04e283e",
		"createLimitOrder((address,address,uint8,uint256,uint256,uint256,bool))": "7eb02406",
		"createLimitOrderBatch((address,address,uint8,uint256,uint256,uint256,bool)[])": "4a6ebce7",
		"createTriggerOrder((address,address,uint256,uint256,uint256,bool))": "68d85297",
		"deleteLimitOrder(uint256)": "e859f372",
		"deleteLimitOrderBatch(uint256[])": "517237a9",
		"deleteTriggerOrder(address,bytes32)": "f394ae49",
		"getAMMData(address)": "98712fe4",
		"getCumulativePremiumFraction(address)": "6ea41e40",
		"getCumulativePremiumFractionPerShare(address)": "d3123a80",
		"getDivergenceCap()": "5ac3b62d",
		"getFeeGrowth(address)": "b346679b",
		"getLimitOrder(uint256)": "53061026",
		"getMinOrderbookMargin()": "987362da",
		"getOpenInterestNotional(address)": "429e9237",
		"getPosition(address,address)": "b33dc190",
		"getPositionNotionalUpnl(address,address)": "0e86a08d",
		"getReduceOnlyOrders(address,address)": "73af0205",
		"getTotalPositionSize(address)": "e980e16e",
		"getTriggerOrder(address,bytes32)": "39e50d86",
		"getTriggerOrders(address,address)": "54b85a3e",
		"getValidAMM(address)": "9dda4e4f",
		"initialize(address,uint256)": "cd6dc687",
		"isActive()": "22f3e2d4",
		"isLiquidatable(address,address)": "3966a28b",
		"isTriggerOrderValid(address,bytes32)": "7f6f1263",
		"liquidate(address,uint256,address,uint256)": "9457be23",
		"liquidateMaker(address,address,uint256)": "7aefce97",
		"openPosition(address,uint8,uint256,uint256,uint256)": "cbb50e61",
		"owner()": "8da5cb5b",
		"ownershipHandoverExpiresAt(address)": "fee81cf4",
		"ownershipHandoverValidFor()": "d7533f02",
		"removeLiquidity(address,uint256)": "a201ccf6",
		"removeMargin(address,uint256)": "b959d695",
		"renounceOwnership()": "715018a6",
		"requestOwnershipHandover()": "25692962",
		"setActive(bool)": "acec338a",
		"setDivergenceCap(uint256)": "f8b6e449",
		"setMinOrderbookMargin(uint256)": "e3046770",
		"setValidAMM(address,bool)": "207b5b6f",
		"settleFunding(address)": "6b17ad03",
		"transferOwnership(address)": "f2fde38b",
		"updateLimitOrder(uint256,(address,address,uint8,uint256,uint256,uint256,bool))": "2a120de4",
		"updateLimitOrderBatch(uint256[],(address,address,uint8,uint256,uint256,uint256,bool)[])": "13dee2d1",
		"updateTriggerOrder(bytes32,address,(address,address,uint256,uint256,uint256,bool))": "18aec626"
	},
	"id": 42
}