{"abi":[{"type":"constructor","inputs":[{"name":"_weth","type":"address","internalType":"address"},{"name":"_insuranceFund","type":"address","internalType":"address"},{"name":"_positionManager","type":"address","internalType":"address"},{"name":"_positionMerger","type":"address","internalType":"address"},{"name":"_deleverager","type":"address","internalType":"address"},{"name":"_orderCreator","type":"address","internalType":"address"},{"name":"_whitelist","type":"address","internalType":"address"}],"stateMutability":"nonpayable"},{"type":"function","name":"addLiquidity","inputs":[{"name":"amm","type":"address","internalType":"contract IRouter"},{"name":"data","type":"tuple[]","internalType":"struct LiquidityAddData[]","components":[{"name":"index","type":"uint256","internalType":"uint256"},{"name":"margin","type":"uint256","internalType":"uint256"},{"name":"leverage","type":"uint256","internalType":"uint256"}]}],"outputs":[{"name":"returnData","type":"tuple[]","internalType":"struct LiquidityAddReturnData[]","components":[{"name":"pool","type":"address","internalType":"contract IPool"},{"name":"shares","type":"uint256","internalType":"uint256"},{"name":"quote","type":"uint256","internalType":"uint256"},{"name":"base","type":"uint256","internalType":"uint256"}]}],"stateMutability":"nonpayable"},{"type":"function","name":"addMargin","inputs":[{"name":"amm","type":"address","internalType":"contract IRouter"},{"name":"margin","type":"uint256","internalType":"uint256"}],"outputs":[],"stateMutability":"nonpayable"},{"type":"function","name":"cancelOwnershipHandover","inputs":[],"outputs":[],"stateMutability":"payable"},{"type":"function","name":"closePosition","inputs":[{"name":"amm","type":"address","internalType":"contract IRouter"},{"name":"size","type":"uint256","internalType":"uint256"},{"name":"quoteLimit","type":"uint256","internalType":"uint256"}],"outputs":[{"name":"quoteAmount","type":"uint256","internalType":"uint256"}],"stateMutability":"nonpayable"},{"type":"function","name":"closePositionKeeper","inputs":[{"name":"id","type":"uint256","internalType":"uint256"}],"outputs":[{"name":"quoteAmount","type":"uint256","internalType":"uint256"}],"stateMutability":"nonpayable"},{"type":"function","name":"completeOwnershipHandover","inputs":[{"name":"pendingOwner","type":"address","internalType":"address"}],"outputs":[],"stateMutability":"payable"},{"type":"function","name":"createLimitOrder","inputs":[{"name":"order","type":"tuple","internalType":"struct LimitOrder","components":[{"name":"trader","type":"address","internalType":"address"},{"name":"amm","type":"address","internalType":"contract IRouter"},{"name":"side","type":"uint8","internalType":"enum Side"},{"name":"trigger","type":"uint256","internalType":"uint256"},{"name":"quoteAmount","type":"uint256","internalType":"uint256"},{"name":"leverage","type":"uint256","internalType":"uint256"},{"name":"reduceOnly","type":"bool","internalType":"bool"}]}],"outputs":[{"name":"id","type":"uint256","internalType":"uint256"}],"stateMutability":"nonpayable"},{"type":"function","name":"createLimitOrderBatch","inputs":[{"name":"_orders","type":"tuple[]","internalType":"struct LimitOrder[]","components":[{"name":"trader","type":"address","internalType":"address"},{"name":"amm","type":"address","internalType":"contract IRouter"},{"name":"side","type":"uint8","internalType":"enum Side"},{"name":"trigger","type":"uint256","internalType":"uint256"},{"name":"quoteAmount","type":"uint256","internalType":"uint256"},{"name":"leverage","type":"uint256","internalType":"uint256"},{"name":"reduceOnly","type":"bool","internalType":"bool"}]}],"outputs":[{"name":"ids","type":"uint256[]","internalType":"uint256[]"}],"stateMutability":"nonpayable"},{"type":"function","name":"createTriggerOrder","inputs":[{"name":"order","type":"tuple","internalType":"struct TriggerOrder","components":[{"name":"trader","type":"address","internalType":"address"},{"name":"amm","type":"address","internalType":"contract IRouter"},{"name":"trigger","type":"uint256","internalType":"uint256"},{"name":"size","type":"uint256","internalType":"uint256"},{"name":"quoteLimit","type":"uint256","internalType":"uint256"},{"name":"takeProfit","type":"bool","internalType":"bool"}]}],"outputs":[{"name":"id","type":"uint256","internalType":"uint256"}],"stateMutability":"nonpayable"},{"type":"function","name":"deleteLimitOrder","inputs":[{"name":"id","type":"uint256","internalType":"uint256"}],"outputs":[],"stateMutability":"nonpayable"},{"type":"function","name":"deleteLimitOrderBatch","inputs":[{"name":"ids","type":"uint256[]","internalType":"uint256[]"}],"outputs":[],"stateMutability":"nonpayable"},{"type":"function","name":"deleteTriggerOrder","inputs":[{"name":"id","type":"uint256","internalType":"uint256"}],"outputs":[],"stateMutability":"nonpayable"},{"type":"function","name":"deleverage","inputs":[{"name":"amm","type":"address","internalType":"contract IRouter"},{"name":"taker","type":"address","internalType":"address"},{"name":"maker","type":"address","internalType":"address"},{"name":"size","type":"uint256","internalType":"uint256"}],"outputs":[],"stateMutability":"nonpayable"},{"type":"function","name":"getCumulativePremiumFraction","inputs":[{"name":"amm","type":"address","internalType":"contract IRouter"}],"outputs":[{"name":"","type":"int256","internalType":"int256"}],"stateMutability":"view"},{"type":"function","name":"getDivergenceCap","inputs":[],"outputs":[{"name":"","type":"uint256","internalType":"uint256"}],"stateMutability":"view"},{"type":"function","name":"getFreeCollateral","inputs":[{"name":"amm","type":"address","internalType":"contract IRouter"},{"name":"trader","type":"address","internalType":"address"}],"outputs":[{"name":"","type":"int256","internalType":"int256"}],"stateMutability":"nonpayable"},{"type":"function","name":"getLimitOrder","inputs":[{"name":"id","type":"uint256","internalType":"uint256"}],"outputs":[{"name":"","type":"tuple","internalType":"struct LimitOrder","components":[{"name":"trader","type":"address","internalType":"address"},{"name":"amm","type":"address","internalType":"contract IRouter"},{"name":"side","type":"uint8","internalType":"enum Side"},{"name":"trigger","type":"uint256","internalType":"uint256"},{"name":"quoteAmount","type":"uint256","internalType":"uint256"},{"name":"leverage","type":"uint256","internalType":"uint256"},{"name":"reduceOnly","type":"bool","internalType":"bool"}]}],"stateMutability":"view"},{"type":"function","name":"getMinOrderbookMargin","inputs":[],"outputs":[{"name":"","type":"uint256","internalType":"uint256"}],"stateMutability":"view"},{"type":"function","name":"getOpenInterestNotional","inputs":[{"name":"amm","type":"address","internalType":"contract IRouter"}],"outputs":[{"name":"","type":"uint256","internalType":"uint256"}],"stateMutability":"view"},{"type":"function","name":"getPosition","inputs":[{"name":"amm","type":"address","internalType":"contract IRouter"},{"name":"trader","type":"address","internalType":"address"}],"outputs":[{"name":"","type":"tuple","internalType":"struct Position","components":[{"name":"size","type":"int256","internalType":"int256"},{"name":"margin","type":"uint256","internalType":"uint256"},{"name":"openNotional","type":"uint256","internalType":"uint256"},{"name":"lastPremiumFraction","type":"int256","internalType":"int256"},{"name":"blockNumber","type":"uint256","internalType":"uint256"}]}],"stateMutability":"view"},{"type":"function","name":"getPositionNotionalUpnl","inputs":[{"name":"amm","type":"address","internalType":"contract IRouter"},{"name":"trader","type":"address","internalType":"address"}],"outputs":[{"name":"positionNotional","type":"uint256","internalType":"uint256"},{"name":"upnl","type":"int256","internalType":"int256"}],"stateMutability":"nonpayable"},{"type":"function","name":"getReduceOnlyOrders","inputs":[{"name":"trader","type":"address","internalType":"address"},{"name":"amm","type":"address","internalType":"contract IRouter"}],"outputs":[{"name":"","type":"uint256[]","internalType":"uint256[]"}],"stateMutability":"view"},{"type":"function","name":"getTotalPositionSize","inputs":[{"name":"amm","type":"address","internalType":"contract IRouter"}],"outputs":[{"name":"","type":"tuple","internalType":"struct TotalPositionSize","components":[{"name":"netPositionSize","type":"int256","internalType":"int256"},{"name":"positionSizeLong","type":"uint256","internalType":"uint256"},{"name":"positionSizeShort","type":"uint256","internalType":"uint256"}]}],"stateMutability":"view"},{"type":"function","name":"getTriggerOrder","inputs":[{"name":"id","type":"uint256","internalType":"uint256"}],"outputs":[{"name":"","type":"tuple","internalType":"struct TriggerOrder","components":[{"name":"trader","type":"address","internalType":"address"},{"name":"amm","type":"address","internalType":"contract IRouter"},{"name":"trigger","type":"uint256","internalType":"uint256"},{"name":"size","type":"uint256","internalType":"uint256"},{"name":"quoteLimit","type":"uint256","internalType":"uint256"},{"name":"takeProfit","type":"bool","internalType":"bool"}]}],"stateMutability":"view"},{"type":"function","name":"getTriggerOrders","inputs":[{"name":"trader","type":"address","internalType":"address"},{"name":"amm","type":"address","internalType":"contract IRouter"}],"outputs":[{"name":"","type":"uint256[]","internalType":"uint256[]"}],"stateMutability":"view"},{"type":"function","name":"getValidAMM","inputs":[{"name":"amm","type":"address","internalType":"contract IRouter"}],"outputs":[{"name":"","type":"bool","internalType":"bool"}],"stateMutability":"view"},{"type":"function","name":"initialize","inputs":[{"name":"_owner","type":"address","internalType":"address"},{"name":"_divergenceCap","type":"uint256","internalType":"uint256"},{"name":"_minOrderbookMargin","type":"uint256","internalType":"uint256"}],"outputs":[],"stateMutability":"nonpayable"},{"type":"function","name":"isActive","inputs":[],"outputs":[{"name":"","type":"bool","internalType":"bool"}],"stateMutability":"view"},{"type":"function","name":"isLiquidatable","inputs":[{"name":"amm","type":"address","internalType":"contract IRouter"},{"name":"trader","type":"address","internalType":"address"}],"outputs":[{"name":"","type":"bool","internalType":"bool"}],"stateMutability":"view"},{"type":"function","name":"isTriggerOrderValid","inputs":[{"name":"id","type":"uint256","internalType":"uint256"}],"outputs":[{"name":"","type":"bool","internalType":"bool"}],"stateMutability":"view"},{"type":"function","name":"liquidate","inputs":[{"name":"amm","type":"address","internalType":"contract IRouter"},{"name":"size","type":"uint256","internalType":"uint256"},{"name":"liquidatee","type":"address","internalType":"address"},{"name":"margin","type":"uint256","internalType":"uint256"}],"outputs":[],"stateMutability":"nonpayable"},{"type":"function","name":"liquidateMaker","inputs":[{"name":"amm","type":"address","internalType":"contract IRouter"},{"name":"liquidatee","type":"address","internalType":"address"},{"name":"margin","type":"uint256","internalType":"uint256"}],"outputs":[],"stateMutability":"nonpayable"},{"type":"function","name":"openPosition","inputs":[{"name":"amm","type":"address","internalType":"contract IRouter"},{"name":"side","type":"uint8","internalType":"enum Side"},{"name":"quote","type":"uint256","internalType":"uint256"},{"name":"leverage","type":"uint256","internalType":"uint256"},{"name":"baseLimit","type":"uint256","internalType":"uint256"}],"outputs":[{"name":"baseAmount","type":"uint256","internalType":"uint256"}],"stateMutability":"nonpayable"},{"type":"function","name":"owner","inputs":[],"outputs":[{"name":"result","type":"address","internalType":"address"}],"stateMutability":"view"},{"type":"function","name":"ownershipHandoverExpiresAt","inputs":[{"name":"pendingOwner","type":"address","internalType":"address"}],"outputs":[{"name":"result","type":"uint256","internalType":"uint256"}],"stateMutability":"view"},{"type":"function","name":"removeLiquidity","inputs":[{"name":"amm","type":"address","internalType":"contract IRouter"},{"name":"data","type":"tuple[]","internalType":"struct LiquidityRemoveData[]","components":[{"name":"index","type":"uint256","internalType":"uint256"},{"name":"shares","type":"uint256","internalType":"uint256"}]},{"name":"addedMargin","type":"uint256","internalType":"uint256"}],"outputs":[],"stateMutability":"nonpayable"},{"type":"function","name":"removeMargin","inputs":[{"name":"amm","type":"address","internalType":"contract IRouter"},{"name":"margin","type":"uint256","internalType":"uint256"}],"outputs":[],"stateMutability":"nonpayable"},{"type":"function","name":"renounceOwnership","inputs":[],"outputs":[],"stateMutability":"payable"},{"type":"function","name":"requestOwnershipHandover","inputs":[],"outputs":[],"stateMutability":"payable"},{"type":"function","name":"setActive","inputs":[{"name":"_active","type":"bool","internalType":"bool"}],"outputs":[],"stateMutability":"nonpayable"},{"type":"function","name":"setDivergenceCap","inputs":[{"name":"_divergenceCap","type":"uint256","internalType":"uint256"}],"outputs":[],"stateMutability":"nonpayable"},{"type":"function","name":"setMinOrderbookMargin","inputs":[{"name":"minMargin","type":"uint256","internalType":"uint256"}],"outputs":[],"stateMutability":"nonpayable"},{"type":"function","name":"setValidAMM","inputs":[{"name":"amm","type":"address","internalType":"contract IRouter"},{"name":"valid","type":"bool","internalType":"bool"}],"outputs":[],"stateMutability":"nonpayable"},{"type":"function","name":"settleFunding","inputs":[{"name":"amm","type":"address","internalType":"contract IRouter"}],"outputs":[],"stateMutability":"nonpayable"},{"type":"function","name":"transferOwnership","inputs":[{"name":"newOwner","type":"address","internalType":"address"}],"outputs":[],"stateMutability":"payable"},{"type":"function","name":"updateLimitOrder","inputs":[{"name":"id","type":"uint256","internalType":"uint256"},{"name":"order","type":"tuple","internalType":"struct LimitOrder","components":[{"name":"trader","type":"address","internalType":"address"},{"name":"amm","type":"address","internalType":"contract IRouter"},{"name":"side","type":"uint8","internalType":"enum Side"},{"name":"trigger","type":"uint256","internalType":"uint256"},{"name":"quoteAmount","type":"uint256","internalType":"uint256"},{"name":"leverage","type":"uint256","internalType":"uint256"},{"name":"reduceOnly","type":"bool","internalType":"bool"}]}],"outputs":[],"stateMutability":"nonpayable"},{"type":"function","name":"updateLimitOrderBatch","inputs":[{"name":"ids","type":"uint256[]","internalType":"uint256[]"},{"name":"_orders","type":"tuple[]","internalType":"struct LimitOrder[]","components":[{"name":"trader","type":"address","internalType":"address"},{"name":"amm","type":"address","internalType":"contract IRouter"},{"name":"side","type":"uint8","internalType":"enum Side"},{"name":"trigger","type":"uint256","internalType":"uint256"},{"name":"quoteAmount","type":"uint256","internalType":"uint256"},{"name":"leverage","type":"uint256","internalType":"uint256"},{"name":"reduceOnly","type":"bool","internalType":"bool"}]}],"outputs":[],"stateMutability":"nonpayable"},{"type":"function","name":"updateTriggerOrder","inputs":[{"name":"id","type":"uint256","internalType":"uint256"},{"name":"order","type":"tuple","internalType":"struct TriggerOrder","components":[{"name":"trader","type":"address","internalType":"address"},{"name":"amm","type":"address","internalType":"contract IRouter"},{"name":"trigger","type":"uint256","internalType":"uint256"},{"name":"size","type":"uint256","internalType":"uint256"},{"name":"quoteLimit","type":"uint256","internalType":"uint256"},{"name":"takeProfit","type":"bool","internalType":"bool"}]}],"outputs":[],"stateMutability":"nonpayable"},{"type":"event","name":"AMMInvalidated","inputs":[{"name":"amm","type":"address","indexed":true,"internalType":"contract IRouter"}],"anonymous":false},{"type":"event","name":"AMMValidated","inputs":[{"name":"amm","type":"address","indexed":true,"internalType":"contract IRouter"}],"anonymous":false},{"type":"event","name":"Activated","inputs":[],"anonymous":false},{"type":"event","name":"Deactivated","inputs":[],"anonymous":false},{"type":"event","name":"DivergenceCapChanged","inputs":[{"name":"divergenceCap","type":"uint256","indexed":false,"internalType":"uint256"}],"anonymous":false},{"type":"event","name":"FeeDistributed","inputs":[{"name":"amm","type":"address","indexed":true,"internalType":"contract IRouter"},{"name":"payer","type":"address","indexed":true,"internalType":"address"},{"name":"receiver","type":"address","indexed":true,"internalType":"address"},{"name":"id","type":"uint256","indexed":false,"internalType":"uint256"},{"name":"amount","type":"uint256","indexed":false,"internalType":"uint256"},{"name":"feeType","type":"uint8","indexed":false,"internalType":"enum FeeType"}],"anonymous":false},{"type":"event","name":"FundingSettled","inputs":[{"name":"amm","type":"address","indexed":true,"internalType":"contract IRouter"},{"name":"markPrice","type":"uint256","indexed":false,"internalType":"uint256"},{"name":"indexPrice","type":"uint256","indexed":false,"internalType":"uint256"},{"name":"premiumFraction","type":"int256","indexed":false,"internalType":"int256"}],"anonymous":false},{"type":"event","name":"Initialized","inputs":[{"name":"version","type":"uint8","indexed":false,"internalType":"uint8"}],"anonymous":false},{"type":"event","name":"LimitOrderRemoved","inputs":[{"name":"id","type":"uint256","indexed":true,"internalType":"uint256"},{"name":"amm","type":"address","indexed":true,"internalType":"contract IRouter"},{"name":"trader","type":"address","indexed":true,"internalType":"address"},{"name":"result","type":"uint8","indexed":false,"internalType":"enum LimitOrderResult"}],"anonymous":false},{"type":"event","name":"LimitOrderUpdated","inputs":[{"name":"id","type":"uint256","indexed":true,"internalType":"uint256"},{"name":"amm","type":"address","indexed":true,"internalType":"contract IRouter"},{"name":"trader","type":"address","indexed":true,"internalType":"address"},{"name":"order","type":"tuple","indexed":false,"internalType":"struct LimitOrder","components":[{"name":"trader","type":"address","internalType":"address"},{"name":"amm","type":"address","internalType":"contract IRouter"},{"name":"side","type":"uint8","internalType":"enum Side"},{"name":"trigger","type":"uint256","internalType":"uint256"},{"name":"quoteAmount","type":"uint256","internalType":"uint256"},{"name":"leverage","type":"uint256","internalType":"uint256"},{"name":"reduceOnly","type":"bool","internalType":"bool"}]}],"anonymous":false},{"type":"event","name":"LiquidityAdded","inputs":[{"name":"amm","type":"address","indexed":true,"internalType":"contract IRouter"},{"name":"maker","type":"address","indexed":true,"internalType":"address"}],"anonymous":false},{"type":"event","name":"LiquidityRemoved","inputs":[{"name":"amm","type":"address","indexed":true,"internalType":"contract IRouter"},{"name":"trader","type":"address","indexed":true,"internalType":"address"}],"anonymous":false},{"type":"event","name":"MarginAdded","inputs":[{"name":"amm","type":"address","indexed":true,"internalType":"contract IRouter"},{"name":"trader","type":"address","indexed":true,"internalType":"address"},{"name":"amount","type":"uint256","indexed":false,"internalType":"uint256"}],"anonymous":false},{"type":"event","name":"MarginRemoved","inputs":[{"name":"amm","type":"address","indexed":true,"internalType":"contract IRouter"},{"name":"trader","type":"address","indexed":true,"internalType":"address"},{"name":"amount","type":"uint256","indexed":false,"internalType":"uint256"}],"anonymous":false},{"type":"event","name":"MinOrderbookMarginChanged","inputs":[{"name":"minOrderbookMargin","type":"uint256","indexed":false,"internalType":"uint256"}],"anonymous":false},{"type":"event","name":"OpenInterestChanged","inputs":[{"name":"amm","type":"address","indexed":true,"internalType":"contract IRouter"},{"name":"newOpenInterest","type":"uint256","indexed":false,"internalType":"uint256"}],"anonymous":false},{"type":"event","name":"OwnershipHandoverCanceled","inputs":[{"name":"pendingOwner","type":"address","indexed":true,"internalType":"address"}],"anonymous":false},{"type":"event","name":"OwnershipHandoverRequested","inputs":[{"name":"pendingOwner","type":"address","indexed":true,"internalType":"address"}],"anonymous":false},{"type":"event","name":"OwnershipTransferred","inputs":[{"name":"oldOwner","type":"address","indexed":true,"internalType":"address"},{"name":"newOwner","type":"address","indexed":true,"internalType":"address"}],"anonymous":false},{"type":"event","name":"PositionChanged","inputs":[{"name":"amm","type":"address","indexed":true,"internalType":"contract IRouter"},{"name":"trader","type":"address","indexed":true,"internalType":"address"},{"name":"margin","type":"uint256","indexed":false,"internalType":"uint256"},{"name":"size","type":"int256","indexed":false,"internalType":"int256"},{"name":"openNotional","type":"uint256","indexed":false,"internalType":"uint256"},{"name":"exchangedQuote","type":"uint256","indexed":false,"internalType":"uint256"},{"name":"exchangedBase","type":"int256","indexed":false,"internalType":"int256"},{"name":"realizedPnL","type":"int256","indexed":false,"internalType":"int256"},{"name":"fundingPayment","type":"int256","indexed":false,"internalType":"int256"},{"name":"markPrice","type":"uint256","indexed":false,"internalType":"uint256"},{"name":"tradeType","type":"uint8","indexed":false,"internalType":"enum TradeType"}],"anonymous":false},{"type":"event","name":"TriggerOrderRemoved","inputs":[{"name":"id","type":"uint256","indexed":true,"internalType":"uint256"},{"name":"amm","type":"address","indexed":true,"internalType":"contract IRouter"},{"name":"trader","type":"address","indexed":true,"internalType":"address"},{"name":"keeper","type":"address","indexed":false,"internalType":"address"}],"anonymous":false},{"type":"event","name":"TriggerOrderUpdated","inputs":[{"name":"id","type":"uint256","indexed":true,"internalType":"uint256"},{"name":"amm","type":"address","indexed":true,"internalType":"contract IRouter"},{"name":"trader","type":"address","indexed":true,"internalType":"address"},{"name":"order","type":"tuple","indexed":false,"internalType":"struct TriggerOrder","components":[{"name":"trader","type":"address","internalType":"address"},{"name":"amm","type":"address","internalType":"contract IRouter"},{"name":"trigger","type":"uint256","internalType":"uint256"},{"name":"size","type":"uint256","internalType":"uint256"},{"name":"quoteLimit","type":"uint256","internalType":"uint256"},{"name":"takeProfit","type":"bool","internalType":"bool"}]}],"anonymous":false},{"type":"error","name":"AMM_IS_ACTIVE","inputs":[]},{"type":"error","name":"AlreadyInitialized","inputs":[]},{"type":"error","name":"BAD_DEBT","inputs":[]},{"type":"error","name":"INACTIVE","inputs":[]},{"type":"error","name":"INSUFFICIENT_LIQUIDITY","inputs":[]},{"type":"error","name":"INSUFFICIENT_MARGIN","inputs":[]},{"type":"error","name":"INSUFFICIENT_OPEN_NOTIONAL","inputs":[]},{"type":"error","name":"INSUFFICIENT_SIZE","inputs":[]},{"type":"error","name":"INVALID_AMM","inputs":[]},{"type":"error","name":"INVALID_SIDE","inputs":[]},{"type":"error","name":"INVALID_TRIGGER_AMOUNT","inputs":[]},{"type":"error","name":"LIQUIDATABLE","inputs":[]},{"type":"error","name":"NOT_LIMIT_CLOSE","inputs":[]},{"type":"error","name":"NOT_LIQUIDATABLE","inputs":[]},{"type":"error","name":"NOT_REDUCE_ONLY","inputs":[]},{"type":"error","name":"NOT_TRADER","inputs":[]},{"type":"error","name":"NO_POOL_IN_RANGE","inputs":[]},{"type":"error","name":"NO_POSITION","inputs":[]},{"type":"error","name":"NewOwnerIsZeroAddress","inputs":[]},{"type":"error","name":"NoHandoverRequest","inputs":[]},{"type":"error","name":"OPEN_INTEREST_CAP_EXCEEDED","inputs":[]},{"type":"error","name":"OVER_DIVERGENCE_CAP","inputs":[]},{"type":"error","name":"OVER_MAX_LEVERAGE","inputs":[]},{"type":"error","name":"OVER_MAX_SIZE","inputs":[]},{"type":"error","name":"POSITION_ON_WRONG_SIDE","inputs":[]},{"type":"error","name":"SANDWICH","inputs":[]},{"type":"error","name":"TRIGGER_INVALID","inputs":[]},{"type":"error","name":"TRIGGER_ON_MARK","inputs":[]},{"type":"error","name":"Unauthorized","inputs":[]}],"bytecode":{"object":"0x6101606040523480156200001257600080fd5b5060405162004b0538038062004b0583398101604081905262000035916200015e565b6001600160a01b038088166080528681166101205285811660a05284811660c05283811660e052828116610100528116610140526200007362000080565b50505050505050620001f3565b604154610100900460ff1615620000ed5760405162461bcd60e51b815260206004820152602760248201527f496e697469616c697a61626c653a20636f6e747261637420697320696e697469604482015266616c697a696e6760c81b606482015260840160405180910390fd5b60415460ff908116146200013f576041805460ff191660ff9081179091556040519081527f7f26b83ff96e1f2b6a682f133852f6798a09c465da95921460cefb38474024989060200160405180910390a15b565b80516001600160a01b03811681146200015957600080fd5b919050565b600080600080600080600060e0888a0312156200017a57600080fd5b620001858862000141565b9650620001956020890162000141565b9550620001a56040890162000141565b9450620001b56060890162000141565b9350620001c56080890162000141565b9250620001d560a0890162000141565b9150620001e560c0890162000141565b905092959891949750929550565b60805160a05160c05160e0516101005161012051610140516148016200030460003960008181610f8601528181610fca0152818161171b0152818161175f015281816119380152818161197c01528181611aae01528181611af201528181611eab01528181611eef015281816125f7015261263b0152600061168b015260008181610a7a0152818161107e015281816111e8015281816113bc015261215b01526000610e6b0152600081816109da015281816118fd01528181611c34015261238f015260008181610d500152611fd00152600081816116690152818161185d01528181611ba301528181611e320152818161206a015281816122f2015281816123c8015261273601526148016000f3fe6080604052600436106102235760003560e01c80630e86a08d1461022857806313dee2d114610262578063207b5b6f1461028457806322f3e2d4146102a457806323c16e22146102ce57806325692962146102fc57806325a208a2146103045780632a120de41461032457806333d3bd301461034457806336cef3d9146103645780633966a28b14610472578063429e9237146104925780634a6ebce7146104c85780634fa9c4db146104f5578063517237a914610515578063530610261461053557806354b85a3e1461056257806354d1f13d146105825780635ac3b62d1461058a57806368d852971461059f5780636b17ad03146105bf5780636ea41e40146105df578063715018a61461061557806373af02051461061d5780637a1ac61e1461063d5780637aefce971461065d5780637eb024061461067d5780638da5cb5b1461069d5780639457be23146106bf578063987362da146106df5780639dda4e4f146106f4578063acec338a1461072d578063b33dc1901461074d578063b959d6951461077a578063cbb50e611461079a578063cf70cb69146107ba578063d2435052146107da578063da8c7e40146107fa578063db1b5c971461081a578063dd2a65ed1461083a578063e30467701461085a578063e859f3721461087a578063e980e16e1461089a578063efdb9423146108dc578063f04e283e14610909578063f2fde38b1461091c578063f8b6e4491461092f578063fee81cf41461094f575b600080fd5b34801561023457600080fd5b50610248610243366004613770565b610982565b604080519283526020830191909152015b60405180910390f35b34801561026e57600080fd5b5061028261027d3660046137f4565b610a22565b005b34801561029057600080fd5b5061028261029f36600461389b565b610aa7565b3480156102b057600080fd5b5060415462010000900460ff165b6040519015158152602001610259565b3480156102da57600080fd5b506102ee6102e93660046138c9565b610bd6565b604051908152602001610259565b610282610da7565b34801561031057600080fd5b5061028261031f3660046138e2565b610df6565b34801561033057600080fd5b5061028261033f366004613a54565b610e91565b34801561035057600080fd5b506102ee61035f366004613770565b610f47565b34801561037057600080fd5b5061041b61037f3660046138c9565b6040805160c081018252600080825260208201819052918101829052606081018290526080810182905260a0810191909152506000908152600b6020908152604091829020825160c08101845281546001600160a01b03908116825260018301541692810192909252600281015492820192909252600382015460608201526004820154608082015260059091015460ff16151560a082015290565b604051610259919081516001600160a01b0390811682526020808401519091169082015260408083015190820152606080830151908201526080808301519082015260a09182015115159181019190915260c00190565b34801561047e57600080fd5b506102be61048d366004613770565b610f65565b34801561049e57600080fd5b506102ee6104ad366004613a82565b6001600160a01b031660009081526006602052604090205490565b3480156104d457600080fd5b506104e86104e3366004613a9f565b610f7a565b6040516102599190613b0f565b34801561050157600080fd5b506102ee610510366004613b22565b6110c2565b34801561052157600080fd5b50610282610530366004613b7a565b611196565b34801561054157600080fd5b506105556105503660046138c9565b61120e565b6040516102599190613c97565b34801561056e57600080fd5b506104e861057d366004613770565b6112ba565b610282611333565b34801561059657600080fd5b50600d546102ee565b3480156105ab57600080fd5b506102ee6105ba366004613cbd565b61136f565b3480156105cb57600080fd5b506102826105da366004613a82565b6113f8565b3480156105eb57600080fd5b506102ee6105fa366004613a82565b6001600160a01b031660009081526004602052604090205490565b610282611505565b34801561062957600080fd5b506104e8610638366004613770565b611519565b34801561064957600080fd5b50610282610658366004613b22565b611590565b34801561066957600080fd5b50610282610678366004613cd9565b611711565b34801561068957600080fd5b506102ee610698366004613d1a565b61192c565b3480156106a957600080fd5b506106b2611a9a565b6040516102599190613d2c565b3480156106cb57600080fd5b506102826106da366004613d40565b611aa4565b3480156106eb57600080fd5b50600e546102ee565b34801561070057600080fd5b506102be61070f366004613a82565b6001600160a01b031660009081526003602052604090205460ff1690565b34801561073957600080fd5b50610282610748366004613d78565b611c62565b34801561075957600080fd5b5061076d610768366004613770565b611ce3565b6040516102599190613dc5565b34801561078657600080fd5b50610282610795366004613dd3565b611cf5565b3480156107a657600080fd5b506102ee6107b5366004613dff565b611e9f565b3480156107c657600080fd5b506102826107d5366004613dd3565b612021565b3480156107e657600080fd5b506102826107f5366004613e4e565b61210f565b34801561080657600080fd5b506102826108153660046138c9565b612186565b34801561082657600080fd5b50610282610835366004613e72565b612248565b34801561084657600080fd5b506102be6108553660046138c9565b61242e565b34801561086657600080fd5b506102826108753660046138c9565b6124e1565b34801561088657600080fd5b506102826108953660046138c9565b612525565b3480156108a657600080fd5b506108ba6108b5366004613a82565b612585565b6040805182518152602080840151908201529181015190820152606001610259565b3480156108e857600080fd5b506108fc6108f7366004613eff565b6125eb565b6040516102599190613f86565b610282610917366004613a82565b61279c565b61028261092a366004613a82565b6127d9565b34801561093b57600080fd5b5061028261094a3660046138c9565b612800565b34801561095b57600080fd5b506102ee61096a366004613a82565b63389a75e1600c908152600091909152602090205490565b6000806000610a0085610995878761283d565b6040516024016109a6929190613ff3565b60408051601f198184030181529190526020810180516001600160e01b03166334fccb6d60e21b1790526001600160a01b037f000000000000000000000000000000000000000000000000000000000000000016906128a8565b905080806020019051810190610a169190614010565b90969095509350505050565b610a2a6128cd565b610aa03385858585604051602401610a469594939291906140d8565b60408051601f198184030181529190526020810180516001600160e01b031663e98143ad60e01b1790526001600160a01b037f000000000000000000000000000000000000000000000000000000000000000016906128a8565b5050505050565b610aaf6128f6565b80158015610b1a5750816001600160a01b03166322f3e2d46040518163ffffffff1660e01b8152600401602060405180830381865afa158015610af6573d6000803e3d6000fd5b505050506040513d601f19601f82011682018060405250810190610b1a919061413b565b15610b385760405163cdd8a30360e01b815260040160405180910390fd5b6001600160a01b0382166000908152600360205260409020805460ff19168215801591909117909155610b9d576040516001600160a01b038316907fe541249509232f3b648c653a6759a750d245da1a7b3e0b3878d4b5d3f4fcec1190600090a25050565b6040516001600160a01b038316907f0cf3718d7b5134fb0be63caea34ab4b8e6f19d5b5c3c4f7b4cfb00db821204ae90600090a25b5050565b6000610be06128cd565b6000828152600b6020908152604091829020825160c08101845281546001600160a01b03908116825260018301541692810183905260028201549381019390935260038101546060840152600481015460808401526005015460ff16151560a0830152610c4c90612911565b610c5e8160200151826000015161294a565b6000610c7282602001518360000151612977565b90506000610c7f826129be565b9050610caa836020015160008413610c98576001610c9b565b60005b85604001518660a001516129cd565b8083606001511115610cbe57606083018190525b6000808313610cce576000610cd1565b60015b9050610ce78460200151878660000151336129f6565b8351602085015160608601516080870151604051600094610d7694610d1c94919390928892919033908b841490602401614158565b60408051601f198184030181529190526020810180516001600160e01b0316637b9db48760e11b1790526001600160a01b037f000000000000000000000000000000000000000000000000000000000000000016906128a8565b9050610d86856020015183612c32565b80806020019051810190610d9a91906141a8565b955050505050505b919050565b60006202a3006001600160401b03164201905063389a75e1600c5233600052806020600c2055337fdbf36a107da19e49527a7176a1babf963b4b0ff8cde35ee35d6cd8f1f9ac7e1d600080a250565b610dfe6128f6565b610e0784612911565b6040516001600160a01b03808616602483015280851660448301528316606482015260848101829052610aa09060a40160408051601f198184030181529190526020810180516001600160e01b03166312d1045160e11b1790526001600160a01b037f000000000000000000000000000000000000000000000000000000000000000016906128a8565b610e996128cd565b604080516001808252818301909252600091816020015b610eb86136bf565b815260200190600190039081610eb057505060408051600180825281830190925291925060009190602080830190803683370190505090508282600081518110610f0457610f046141c1565b60200260200101819052508381600081518110610f2357610f236141c1565b602002602001018181525050610aa0338284604051602401610a4693929190614211565b6000610f5c83610f57858561283d565b612d88565b90505b92915050565b6000610f5c83610f75858561283d565b612ea2565b6060610f846128cd565b7f00000000000000000000000000000000000000000000000000000000000000006001600160a01b03161561103057604051633026f7e360e11b81526001600160a01b037f0000000000000000000000000000000000000000000000000000000000000000169063604defc690610fff903390600401613d2c565b60006040518083038186803b15801561101757600080fd5b505afa15801561102b573d6000803e3d6000fd5b505050505b60006110a433858560405160240161104a93929190614247565b60408051601f198184030181529190526020810180516001600160e01b0316638b69f89760e01b1790526001600160a01b037f000000000000000000000000000000000000000000000000000000000000000016906128a8565b9050808060200190518101906110ba9190614275565b949350505050565b60006110cc6128cd565b6110d584612911565b6110df843361294a565b60006110eb8533612977565b905060006110f8826129be565b90508085111561111b57604051631eab837160e11b815260040160405180910390fd5b8460000361112e5760009250505061118f565b600080831361113e576000611141565b60015b905060006111683389848a8a6000898e14604051602401610d1c9796959493929190614158565b90506111748883612c32565b8080602001905181019061118891906141a8565b9450505050505b9392505050565b61119e6128cd565b610bd233826040516024016111b49291906142fa565b60408051601f198184030181529190526020810180516001600160e01b0316637d5eb41f60e01b1790526001600160a01b037f000000000000000000000000000000000000000000000000000000000000000016906128a8565b6112166136bf565b6000828152600a6020908152604091829020825160e08101845281546001600160a01b039081168252600180840154918216948301949094529093919291840191600160a01b90910460ff169081111561127257611272613c04565b600181111561128357611283613c04565b815260028201546020820152600382015460408201526004820154606082015260059091015460ff16151560809091015292915050565b6001600160a01b03808316600090815260096020908152604080832093851683529281529082902080548351818402810184019094528084526060939283018282801561132657602002820191906000526020600020905b815481526020019060010190808311611312575b5050505050905092915050565b63389a75e1600c523360005260006020600c2055337ffa7b8eab7da67f412cc9575ed43464468f9bfbae89d1675917346ca6d8fe3c92600080a2565b6000806113e28333604051602401611388929190614384565b60408051601f198184030181529190526020810180516001600160e01b0316631da5734360e21b1790526001600160a01b037f000000000000000000000000000000000000000000000000000000000000000016906128a8565b90508080602001905181019061118f91906141a8565b6114006128cd565b61140981612911565b6000806000836001600160a01b031663ed83d79c6040518163ffffffff1660e01b81526004016060604051808303816000875af115801561144e573d6000803e3d6000fd5b505050506040513d601f19601f8201168201806040525081019061147291906143aa565b6001600160a01b038716600090815260046020526040902054929550909350915061149d84826143ee565b6001600160a01b0386166000818152600460209081526040918290208490558151878152908101869052908101839052919250907fbfed1e6debfebfaef8f787a2e2c506676d0e9e9f06d217ef82d090151af844e89060600160405180910390a25050505050565b61150d6128f6565b6115176000612fdf565b565b6001600160a01b0380831660009081526008602090815260408083209385168352928152908290208054835181840281018401909452808452606093928301828280156113265760200282019190600052602060002090815481526020019060010190808311611312575050505050905092915050565b604154610100900460ff16158080156115b05750604154600160ff909116105b806115d157506115bf3061300b565b1580156115d1575060415460ff166001145b6116395760405162461bcd60e51b815260206004820152602e60248201527f496e697469616c697a61626c653a20636f6e747261637420697320616c72656160448201526d191e481a5b9a5d1a585b1a5e995960921b60648201526084015b60405180910390fd5b6041805460ff19166001179055801561165c576041805461ff0019166101001790555b6116b26001600160a01b037f0000000000000000000000000000000000000000000000000000000000000000167f000000000000000000000000000000000000000000000000000000000000000060001961301a565b600d839055600e8290556116c584613060565b801561170b576041805461ff0019169055604051600181527f7f26b83ff96e1f2b6a682f133852f6798a09c465da95921460cefb38474024989060200160405180910390a15b50505050565b6117196128cd565b7f00000000000000000000000000000000000000000000000000000000000000006001600160a01b0316156117c557604051633026f7e360e11b81526001600160a01b037f0000000000000000000000000000000000000000000000000000000000000000169063604defc690611794903390600401613d2c565b60006040518083038186803b1580156117ac57600080fd5b505afa1580156117c0573d6000803e3d6000fd5b505050505b6117ce83612911565b6000806000856001600160a01b0316631bde66e7866040518263ffffffff1660e01b81526004016117ff9190613d2c565b6060604051808303816000875af115801561181e573d6000803e3d6000fd5b505050506040513d601f19601f8201168201806040525081019061184291906143aa565b92509250925083600014611885576118856001600160a01b037f00000000000000000000000000000000000000000000000000000000000000001633308761308a565b6040516001600160a01b038088166024830152336044830152861660648201526084810184905260a4810183905260c4810182905260e48101859052611923906101040160408051601f198184030181529190526020810180516001600160e01b0316631fe05b1760e11b1790526001600160a01b037f000000000000000000000000000000000000000000000000000000000000000016906128a8565b50505050505050565b60006119366128cd565b7f00000000000000000000000000000000000000000000000000000000000000006001600160a01b0316156119e257604051633026f7e360e11b81526001600160a01b037f0000000000000000000000000000000000000000000000000000000000000000169063604defc6906119b1903390600401613d2c565b60006040518083038186803b1580156119c957600080fd5b505afa1580156119dd573d6000803e3d6000fd5b505050505b604080516001808252818301909252600091816020015b611a016136bf565b8152602001906001900390816119f9579050509050611a2536849003840184614416565b81600081518110611a3857611a386141c1565b60200260200101819052506000611a5b338360405160240161104a929190614432565b9050600081806020019051810190611a739190614275565b905080600081518110611a8857611a886141c1565b60200260200101519350505050919050565b638b78c6d8195490565b611aac6128cd565b7f00000000000000000000000000000000000000000000000000000000000000006001600160a01b031615611b5857604051633026f7e360e11b81526001600160a01b037f0000000000000000000000000000000000000000000000000000000000000000169063604defc690611b27903390600401613d2c565b60006040518083038186803b158015611b3f57600080fd5b505afa158015611b53573d6000803e3d6000fd5b505050505b611b6184612911565b6000611b6d858461283d565b9050611b798582612ea2565b611b9657604051633da1f7d160e11b815260040160405180910390fd5b611bcb6001600160a01b037f00000000000000000000000000000000000000000000000000000000000000001633308561308a565b6040516001600160a01b038087166024830152841660448201523360648201526084810185905260a48101839052611c5a9060c40160408051601f198184030181529190526020810180516001600160e01b0316636f70e66f60e01b1790526001600160a01b037f000000000000000000000000000000000000000000000000000000000000000016906128a8565b505050505050565b611c6a6128f6565b6041805482158015620100000262ff00001990921691909117909155611cb6576040517fed1cd0670ee0c0017f550451a038818c696d0b6a9d6ce5b369e44275573cf9b090600090a150565b6040517f1142a68cc39970640eb3524e77b91f78be21abc64f20f5919387eb46699bb77290600090a15b50565b611ceb6136fe565b610f5c838361283d565b611cfd6128cd565b611d0682612911565b6001600160a01b0382166000908152602081815260408083203384528252808320815160a081018352815481526001820154938101849052600282015492810192909252600381015460608301526004015460808201529103611d7c57604051631d5fdf4760e11b815260040160405180910390fd5b6000611d9b8483611d9686670de0b6b3a763ffff196130de565b61312b565b90508060400151600014611dc257604051632c7c1d6360e11b815260040160405180910390fd5b6060808201516020840152815190830152611ddd8483613220565b6001600160a01b038085166000908152602081815260408083203380855290835292819020865181559186015160018301558501516002820155606085015160038201556080850151600490910155611e59917f000000000000000000000000000000000000000000000000000000000000000016908561324b565b60405183815233906001600160a01b038616907fb0fa03f93c852a6feaaeb34ccf4cf865cc223c4cc9d25dce28a9131fde2710719060200160405180910390a350505050565b6000611ea96128cd565b7f00000000000000000000000000000000000000000000000000000000000000006001600160a01b031615611f5557604051633026f7e360e11b81526001600160a01b037f0000000000000000000000000000000000000000000000000000000000000000169063604defc690611f24903390600401613d2c565b60006040518083038186803b158015611f3c57600080fd5b505afa158015611f50573d6000803e3d6000fd5b505050505b611f5e86612911565b611f68863361294a565b611f7c8685611f778187613287565b61329c565b6000611ff6338888888888604051602401611f9c96959493929190614456565b60408051601f198184030181529190526020810180516001600160e01b03166310faff9560e31b1790526001600160a01b037f000000000000000000000000000000000000000000000000000000000000000016906128a8565b90506120028787612c32565b8080602001905181019061201691906141a8565b979650505050505050565b6120296128cd565b61203282612911565b61203c823361283d565b5160000361205d57604051631d5fdf4760e11b815260040160405180910390fd5b6120926001600160a01b037f00000000000000000000000000000000000000000000000000000000000000001633308461308a565b6001600160a01b038216600090815260208181526040808320338452909152812060010180548392906120c6908490614498565b909155505060405181815233906001600160a01b038416907f05c2d01f05f37971d15b22586be2f1933a1ae8c0079a056a430b4391550ffb2d9060200160405180910390a35050565b612181828233604051602401612127939291906144ab565b60408051601f198184030181529190526020810180516001600160e01b03166312fd759760e11b1790526001600160a01b037f000000000000000000000000000000000000000000000000000000000000000016906128a8565b505050565b6000818152600b6020908152604091829020825160c08101845281546001600160a01b0390811680835260018401549091169382019390935260028201549381019390935260038101546060840152600481015460808401526005015460ff16151560a0830152331480159061221557506121ff611a9a565b6001600160a01b0316336001600160a01b031614155b15612233576040516342f062b760e01b815260040160405180910390fd5b610bd2816020015183836000015160006129f6565b6122506128cd565b61225984612911565b6000806000866001600160a01b031663f39508f83388886040518463ffffffff1660e01b815260040161228e939291906144d9565b6060604051808303816000875af11580156122ad573d6000803e3d6000fd5b505050506040513d601f19601f820116820180604052508101906122d191906143aa565b925092509250826000146123bb57831561231a5761231a6001600160a01b037f00000000000000000000000000000000000000000000000000000000000000001633308761308a565b6123b587336123298785614498565b6040516001600160a01b03938416602482015292909116604483015260648201526084810185905260a4810184905260c40160408051601f198184030181529190526020810180516001600160e01b0316636e6f167560e01b1790526001600160a01b037f000000000000000000000000000000000000000000000000000000000000000016906128a8565b506123ef565b6123ef6001600160a01b037f000000000000000000000000000000000000000000000000000000000000000016338361324b565b60405133906001600160a01b038916907fd04e6350fe09fd82d32a2e9549de19274bab2fafa4013189498798d981a763e790600090a350505050505050565b6000818152600b60209081526040808320815160c08101835281546001600160a01b039081168083526001840154909116948201859052600283015493820193909352600382015460608201526004820154608082015260059091015460ff16151560a08201529183916124a2919061283d565b51905060008190036124b8575060009392505050565b6110ba8260200151600083136124cf5760016124d2565b60005b84604001518560a00151613331565b6124e96128f6565b600e8190556040518181527f577724f96ac2a3cf85a2f91a90bfb1e890d4604525edcfeaaad826163fe9a1a9906020015b60405180910390a150565b61252d6128cd565b604080516001808252818301909252600091602080830190803683370190505090508181600081518110612563576125636141c1565b60200260200101818152505061218133826040516024016111b49291906142fa565b6125a960405180606001604052806000815260200160008152602001600081525090565b506001600160a01b0316600090815260056020908152604091829020825160608101845281548152600182015492810192909252600201549181019190915290565b60606125f56128cd565b7f00000000000000000000000000000000000000000000000000000000000000006001600160a01b0316156126a157604051633026f7e360e11b81526001600160a01b037f0000000000000000000000000000000000000000000000000000000000000000169063604defc690612670903390600401613d2c565b60006040518083038186803b15801561268857600080fd5b505afa15801561269c573d6000803e3d6000fd5b505050505b6126aa84612911565b60405163efdb942360e01b81526000906001600160a01b0386169063efdb9423906126dd90339088908890600401614532565b6000604051808303816000875af11580156126fc573d6000803e3d6000fd5b505050506040513d6000823e601f3d908101601f191682016040526127249190810190614596565b909250905061275e6001600160a01b037f00000000000000000000000000000000000000000000000000000000000000001633308461308a565b60405133906001600160a01b038716907f99e877011be95eb42bf6be0d3db080f9a2f0256536d7713ce401a3c971e0527e90600090a3509392505050565b6127a46128f6565b63389a75e1600c52806000526020600c2080544211156127cc57636f5e88186000526004601cfd5b60009055611ce081612fdf565b6127e16128f6565b8060601b6127f757637448fbae6000526004601cfd5b611ce081612fdf565b6128086128f6565b600d8190556040518181527fc207d9444020fb76b81600635e7137d0a86fc95b69e50b1c84197ea18127d6069060200161251a565b6128456136fe565b506001600160a01b03918216600090815260208181526040808320939094168252918252829020825160a0810184528154815260018201549281019290925260028101549282019290925260038201546060820152600490910154608082015290565b6060610f5c83836040518060600160405280602781526020016147a5602791396133e9565b60415462010000900460ff1661151757604051637dc579d960e11b815260040160405180910390fd5b638b78c6d819543314611517576382b429006000526004601cfd5b6001600160a01b03811660009081526003602052604090205460ff16611ce0576040516304c1bb0360e11b815260040160405180910390fd5b612954828261283d565b608001514303610bd25760405163fd4b12b160e01b815260040160405180910390fd5b6001600160a01b0380831660009081526020818152604080832093851683529290529081205490819003610f5f57604051631d5fdf4760e11b815260040160405180910390fd5b60ff81901c6000039081011890565b6129d984848484613331565b61170b576040516315f3d48360e01b815260040160405180910390fd5b6000838152600b6020908152604080832080546001600160a01b031990811682556001820180549091169055600281018490556003810184905560048101849055600501805460ff191690556001600160a01b038581168452600983528184209088168452825280832080548251818502810185019093528083529192909190830182828015612aa557602002820191906000526020600020905b815481526020019060010190808311612a91575b5050505050905060008151905080600103612aef576001600160a01b038085166000908152600960209081526040808320938a168352929052908120612aea9161372d565b612bde565b60005b81811015612b925785838281518110612b0d57612b0d6141c1565b602002602001015103612b8a5782612b26600184614670565b81518110612b3657612b366141c1565b6020908102919091018101516001600160a01b038088166000908152600984526040808220928c16825291909352909120805483908110612b7957612b796141c1565b600091825260209091200155612b92565b600101612af2565b506001600160a01b038085166000908152600960209081526040808320938a16835292905220805480612bc757612bc7614683565b600190038181906000526020600020016000905590555b836001600160a01b0316866001600160a01b0316867f241cba1e62c0c28760eb65132303f670a906fac442064deb7a20da98ce538ed286604051612c229190613d2c565b60405180910390a4505050505050565b600d546000819003612c4357505050565b6000836001600160a01b031663604096326040518163ffffffff1660e01b8152600401602060405180830381865afa158015612c83573d6000803e3d6000fd5b505050506040513d601f19601f82011682018060405250810190612ca791906141a8565b90506000846001600160a01b03166358c0994a6040518163ffffffff1660e01b8152600401602060405180830381865afa158015612ce9573d6000803e3d6000fd5b505050506040513d601f19601f82011682018060405250810190612d0d91906141a8565b9050836001811115612d2157612d21613c04565b818311612d2f576000612d32565b60015b6001811115612d4357612d43613c04565b03612d4f575050505050565b6000612d6583612d5f8185613461565b90613489565b905083811115611c5a5760405163a6dea22360e01b815260040160405180910390fd5b600080612da184846040516024016109a6929190613ff3565b905060008082806020019051810190612dba9190614010565b915091506000612dcd866020015161349e565b90506000808313612de757612de283836143ee565b612de9565b815b90506000612e57896001600160a01b031663bce2020d6040518163ffffffff1660e01b8152600401602060405180830381865afa158015612e2e573d6000803e3d6000fd5b505050506040513d601f19601f82011682018060405250810190612e5291906141a8565b61349e565b905060008089600001511315612e7d576040890151612e7690836130de565b9050612e8a565b612e8786836130de565b90505b612e948184614699565b9a9950505050505050505050565b80516000908103612eb557506000610f5f565b6000612f2c612f27856001600160a01b03166346558d1b6040518163ffffffff1660e01b8152600401602060405180830381865afa158015612efb573d6000803e3d6000fd5b505050506040513d601f19601f82011682018060405250810190612f1f91906141a8565b8551906134b7565b6129be565b90506000612f53612f3c8361349e565b612f49866040015161349e565b86516000126134e3565b90506000612f6286868461312b565b606001519050856001600160a01b0316634f3c15426040518163ffffffff1660e01b8152600401602060405180830381865afa158015612fa6573d6000803e3d6000fd5b505050506040513d601f19601f82011682018060405250810190612fca91906141a8565b612fd48285613489565b109695505050505050565b638b78c6d81980546001600160a01b03909216918290600080516020614785833981519152600080a355565b6001600160a01b03163b151590565b816014528060345263095ea7b360601b60005260206000604460106000875af13d15600160005114171661305657633e3f8f736000526004601cfd5b6000603452505050565b6001600160a01b0316638b78c6d8198190558060006000805160206147858339815191528180a350565b60405181606052826040528360601b602c526323b872dd60601b600c52602060006064601c6000895af13d1560016000511417166130d057637939f4246000526004601cfd5b600060605260405250505050565b600080821280156130f5576130f2836146b9565b92505b61310b612e528585670de0b6b3a7640000613506565b915080156131245761311c826146b9565b915050610f5f565b5092915050565b6131566040518060800160405280600081526020016000815260200160008152602001600081525090565b6001600160a01b03841660009081526004602052604090205481528251156131cb57825160608401518251613195929161318f91614699565b906135a6565b60208201819052600013156131cb576103e881602001516131b691906146d5565b816020018181516131c79190614699565b9052505b60006131da846020015161349e565b60208301516131e99085614699565b6131f391906143ee565b9050600081126132095760608201819052613218565b613212816129be565b60408301525b509392505050565b600061322c8383612d88565b1215610bd25760405163845dfc3960e01b815260040160405180910390fd5b816014528060345263a9059cbb60601b60005260206000604460106000875af13d156001600051141716613056576390b8ec186000526004601cfd5b6000610f5c8383670de0b6b3a7640000613506565b6000836001600160a01b031663bce2020d6040518163ffffffff1660e01b8152600401602060405180830381865afa1580156132dc573d6000803e3d6000fd5b505050506040513d601f19601f8201168201806040525081019061330091906141a8565b9050600061330e8484613489565b905081811015610aa0576040516333c44bc760e21b815260040160405180910390fd5b600080856001600160a01b031663604096326040518163ffffffff1660e01b8152600401602060405180830381865afa158015613372573d6000803e3d6000fd5b505050506040513d601f19601f8201168201806040525081019061339691906141a8565b90506000808660018111156133ad576133ad613c04565b036133ca57836133bf578482116133c3565b8482105b90506133de565b836133d7578482106133db565b8482115b90505b159695505050505050565b6060600080856001600160a01b0316856040516134069190614735565b600060405180830381855af49150503d8060008114613441576040519150601f19603f3d011682016040523d82523d6000602084013e613446565b606091505b509150915061345786838387613610565b9695505050505050565b6000610f5c61346f8361349e565b6134788561349e565b818113818303929091038218021890565b6000610f5c83670de0b6b3a764000084613506565b6000600160ff1b82106134b3576134b3613687565b5090565b600080831280156130f5576134cb846146b9565b935061310b612e528585670de0b6b3a7640000613506565b600081156134fc576134f58385614699565b905061118f565b6110ba8484614699565b8282026000198385098181108201900380613537578261352e5763ae47f7026000526004601cfd5b5081900461118f565b80831161354c5763ae47f7026000526004601cfd5b82848609600084810385169485900494848311909303908390038390046001010292030417600260038302811880840282030280840282030280840282030280840282030280840282030280840290910302029392505050565b60008083128183128082141582156135c4576135c1866146b9565b95505b81156135d6576135d3856146b9565b94505b6135ec612e528787670de0b6b3a7640000613506565b93508015613607576135fd846146b9565b9350505050610f5f565b50505092915050565b6060831561367d5782516000036136765761362a8561300b565b6136765760405162461bcd60e51b815260206004820152601d60248201527f416464726573733a2063616c6c20746f206e6f6e2d636f6e74726163740000006044820152606401611630565b50816110ba565b6110ba8383613695565b6335278d126000526004601cfd5b8151156136a55781518083602001fd5b8060405162461bcd60e51b81526004016116309190614751565b6040805160e081018252600080825260208201819052909182019081526020016000815260200160008152602001600081526020016000151581525090565b6040518060a0016040528060008152602001600081526020016000815260200160008152602001600081525090565b5080546000825590600052602060002090810190611ce091905b808211156134b35760008155600101613747565b6001600160a01b0381168114611ce057600080fd5b6000806040838503121561378357600080fd5b823561378e8161375b565b9150602083013561379e8161375b565b809150509250929050565b60008083601f8401126137bb57600080fd5b5081356001600160401b038111156137d257600080fd5b60208301915083602060e0830285010111156137ed57600080fd5b9250929050565b6000806000806040858703121561380a57600080fd5b84356001600160401b038082111561382157600080fd5b818701915087601f83011261383557600080fd5b81358181111561384457600080fd5b8860208260051b850101111561385957600080fd5b60209283019650945090860135908082111561387457600080fd5b50613881878288016137a9565b95989497509550505050565b8015158114611ce057600080fd5b600080604083850312156138ae57600080fd5b82356138b98161375b565b9150602083013561379e8161388d565b6000602082840312156138db57600080fd5b5035919050565b600080600080608085870312156138f857600080fd5b84356139038161375b565b935060208501356139138161375b565b925060408501356139238161375b565b9396929550929360600135925050565b634e487b7160e01b600052604160045260246000fd5b604051608081016001600160401b038111828210171561396b5761396b613933565b60405290565b604051601f8201601f191681016001600160401b038111828210171561399957613999613933565b604052919050565b803560028110610da257600080fd5b600060e082840312156139c257600080fd5b60405160e081016001600160401b03811182821017156139e4576139e4613933565b60405290508082356139f58161375b565b81526020830135613a058161375b565b6020820152613a16604084016139a1565b6040820152606083013560608201526080830135608082015260a083013560a082015260c0830135613a478161388d565b60c0919091015292915050565b6000806101008385031215613a6857600080fd5b82359150613a7984602085016139b0565b90509250929050565b600060208284031215613a9457600080fd5b813561118f8161375b565b60008060208385031215613ab257600080fd5b82356001600160401b03811115613ac857600080fd5b610a16858286016137a9565b600081518084526020808501945080840160005b83811015613b0457815187529582019590820190600101613ae8565b509495945050505050565b602081526000610f5c6020830184613ad4565b600080600060608486031215613b3757600080fd5b8335613b428161375b565b95602085013595506040909401359392505050565b60006001600160401b03821115613b7057613b70613933565b5060051b60200190565b60006020808385031215613b8d57600080fd5b82356001600160401b03811115613ba357600080fd5b8301601f81018513613bb457600080fd5b8035613bc7613bc282613b57565b613971565b81815260059190911b82018301908381019087831115613be657600080fd5b928401925b8284101561201657833582529284019290840190613beb565b634e487b7160e01b600052602160045260246000fd5b60028110613c3857634e487b7160e01b600052602160045260246000fd5b9052565b60018060a01b03808251168352806020830151166020840152506040810151613c686040840182613c1a565b50606081015160608301526080810151608083015260a081015160a083015260c0810151151560c08301525050565b60e08101610f5f8284613c3c565b600060c08284031215613cb757600080fd5b50919050565b600060c08284031215613ccf57600080fd5b610f5c8383613ca5565b600080600060608486031215613cee57600080fd5b8335613cf98161375b565b92506020840135613d098161375b565b929592945050506040919091013590565b600060e08284031215613cb757600080fd5b6001600160a01b0391909116815260200190565b60008060008060808587031215613d5657600080fd5b8435613d618161375b565b93506020850135925060408501356139238161375b565b600060208284031215613d8a57600080fd5b813561118f8161388d565b80518252602081015160208301526040810151604083015260608101516060830152608081015160808301525050565b60a08101610f5f8284613d95565b60008060408385031215613de657600080fd5b8235613df18161375b565b946020939093013593505050565b600080600080600060a08688031215613e1757600080fd5b8535613e228161375b565b9450613e30602087016139a1565b94979496505050506040830135926060810135926080909101359150565b60008060e08385031215613e6157600080fd5b82359150613a798460208501613ca5565b60008060008060608587031215613e8857600080fd5b8435613e938161375b565b935060208501356001600160401b0380821115613eaf57600080fd5b818701915087601f830112613ec357600080fd5b813581811115613ed257600080fd5b8860208260061b8501011115613ee757600080fd5b95986020929092019750949560400135945092505050565b600080600060408486031215613f1457600080fd5b8335613f1f8161375b565b925060208401356001600160401b0380821115613f3b57600080fd5b818601915086601f830112613f4f57600080fd5b813581811115613f5e57600080fd5b876020606083028501011115613f7357600080fd5b6020830194508093505050509250925092565b602080825282518282018190526000919060409081850190868401855b82811015613fe657815180516001600160a01b03168552868101518786015285810151868601526060908101519085015260809093019290850190600101613fa3565b5091979650505050505050565b6001600160a01b038316815260c0810161118f6020830184613d95565b6000806040838503121561402357600080fd5b505080516020909101519092909150565b8183526000602080850194508260005b85811015613b045781356140578161375b565b6001600160a01b03908116885282840135906140728261375b565b168784015260406140848382016139a1565b614090828a0182613c1a565b5050606082810135908801526080808301359088015260a0808301359088015260c0808301356140bf8161388d565b15159088015260e0968701969190910190600101614044565b6001600160a01b0386168152606060208201819052810184905260006001600160fb1b0385111561410857600080fd5b8460051b8087608085013782018281036080908101604085015261412f9082018587614034565b98975050505050505050565b60006020828403121561414d57600080fd5b815161118f8161388d565b6001600160a01b038881168252878116602083015260e082019061417f6040840189613c1a565b86606084015285608084015280851660a08401525082151560c083015298975050505050505050565b6000602082840312156141ba57600080fd5b5051919050565b634e487b7160e01b600052603260045260246000fd5b600081518084526020808501945080840160005b83811015613b04576141fe878351613c3c565b60e09690960195908201906001016141eb565b6001600160a01b038416815260606020820181905260009061423590830185613ad4565b828103604084015261345781856141d7565b6001600160a01b038416815260406020820181905260009061426c9083018486614034565b95945050505050565b6000602080838503121561428857600080fd5b82516001600160401b0381111561429e57600080fd5b8301601f810185136142af57600080fd5b80516142bd613bc282613b57565b81815260059190911b820183019083810190878311156142dc57600080fd5b928401925b82841015612016578351825292840192908401906142e1565b6001600160a01b03831681526040602082018190526000906110ba90830184613ad4565b80356143298161375b565b6001600160a01b0390811683526020820135906143458261375b565b16602083015260408181013590830152606080820135908301526080808201359083015260a08101356143778161388d565b80151560a0840152505050565b60e08101614392828561431e565b6001600160a01b039290921660c09190910152919050565b6000806000606084860312156143bf57600080fd5b8351925060208401519150604084015190509250925092565b634e487b7160e01b600052601160045260246000fd5b808201828112600083128015821682158216171561440e5761440e6143d8565b505092915050565b600060e0828403121561442857600080fd5b610f5c83836139b0565b6001600160a01b03831681526040602082018190526000906110ba908301846141d7565b6001600160a01b0387811682528616602082015260c0810161447b6040830187613c1a565b8460608301528360808301528260a0830152979650505050505050565b80820180821115610f5f57610f5f6143d8565b83815261010081016144c0602083018561431e565b6001600160a01b039290921660e0919091015292915050565b6001600160a01b03841681526040602080830182905282820184905260009190859060608501845b87811015614525578335825282840135838301529284019290840190600101614501565b5098975050505050505050565b6001600160a01b0384168152604060208083018290528282018490526000919060609081850187855b88811015614587578135835283820135848401528582013586840152918401919084019060010161455b565b50909998505050505050505050565b60008060408084860312156145aa57600080fd5b83516001600160401b038111156145c057600080fd5b8401601f810186136145d157600080fd5b805160206145e1613bc283613b57565b82815260079290921b8301810191818101908984111561460057600080fd5b938201935b8385101561465e576080858b03121561461e5760008081fd5b614626613949565b85516146318161375b565b81528584015184820152868601518782015260608087015190820152825260809094019390820190614605565b97909101519698969750505050505050565b81810381811115610f5f57610f5f6143d8565b634e487b7160e01b600052603160045260246000fd5b8181036000831280158383131683831282161715613124576131246143d8565b6000600160ff1b82016146ce576146ce6143d8565b5060000390565b6000826146f257634e487b7160e01b600052601260045260246000fd5b600160ff1b82146000198414161561470c5761470c6143d8565b500590565b60005b8381101561472c578181015183820152602001614714565b50506000910152565b60008251614747818460208701614711565b9190910192915050565b6020815260008251806020840152614770816040850160208701614711565b601f01601f1916919091016040019291505056fe8be0079c531659141344cd1fd0a4f28419497f9722a3daafe3b4186f6b6457e0416464726573733a206c6f772d6c6576656c2064656c65676174652063616c6c206661696c6564a2646970667358221220c7542ed5896337f8fef94ab4f090d6a2bf13072a512af22f415180a8d1c00dbe64736f6c63430008130033","linkReferences":{}},"methodIdentifiers":{"addLiquidity(address,(uint256,uint256,uint256)[])":"efdb9423","addMargin(address,uint256)":"cf70cb69","cancelOwnershipHandover()":"54d1f13d","closePosition(address,uint256,uint256)":"4fa9c4db","closePositionKeeper(uint256)":"23c16e22","completeOwnershipHandover(address)":"f04e283e","createLimitOrder((address,address,uint8,uint256,uint256,uint256,bool))":"7eb02406","createLimitOrderBatch((address,address,uint8,uint256,uint256,uint256,bool)[])":"4a6ebce7","createTriggerOrder((address,address,uint256,uint256,uint256,bool))":"68d85297","deleteLimitOrder(uint256)":"e859f372","deleteLimitOrderBatch(uint256[])":"517237a9","deleteTriggerOrder(uint256)":"da8c7e40","deleverage(address,address,address,uint256)":"25a208a2","getCumulativePremiumFraction(address)":"6ea41e40","getDivergenceCap()":"5ac3b62d","getFreeCollateral(address,address)":"33d3bd30","getLimitOrder(uint256)":"53061026","getMinOrderbookMargin()":"987362da","getOpenInterestNotional(address)":"429e9237","getPosition(address,address)":"b33dc190","getPositionNotionalUpnl(address,address)":"0e86a08d","getReduceOnlyOrders(address,address)":"73af0205","getTotalPositionSize(address)":"e980e16e","getTriggerOrder(uint256)":"36cef3d9","getTriggerOrders(address,address)":"54b85a3e","getValidAMM(address)":"9dda4e4f","initialize(address,uint256,uint256)":"7a1ac61e","isActive()":"22f3e2d4","isLiquidatable(address,address)":"3966a28b","isTriggerOrderValid(uint256)":"dd2a65ed","liquidate(address,uint256,address,uint256)":"9457be23","liquidateMaker(address,address,uint256)":"7aefce97","openPosition(address,uint8,uint256,uint256,uint256)":"cbb50e61","owner()":"8da5cb5b","ownershipHandoverExpiresAt(address)":"fee81cf4","removeLiquidity(address,(uint256,uint256)[],uint256)":"db1b5c97","removeMargin(address,uint256)":"b959d695","renounceOwnership()":"715018a6","requestOwnershipHandover()":"25692962","setActive(bool)":"acec338a","setDivergenceCap(uint256)":"f8b6e449","setMinOrderbookMargin(uint256)":"e3046770","setValidAMM(address,bool)":"207b5b6f","settleFunding(address)":"6b17ad03","transferOwnership(address)":"f2fde38b","updateLimitOrder(uint256,(address,address,uint8,uint256,uint256,uint256,bool))":"2a120de4","updateLimitOrderBatch(uint256[],(address,address,uint8,uint256,uint256,uint256,bool)[])":"13dee2d1","updateTriggerOrder(uint256,(address,address,uint256,uint256,uint256,bool))":"d2435052"},"id":46}