{
	"abi": [
		{
			"inputs": [
				{
					"internalType": "address",
					"name": "_weth",
					"type": "address"
				},
				{
					"internalType": "address",
					"name": "_insuranceFund",
					"type": "address"
				},
				{
					"internalType": "address",
					"name": "_positionManager",
					"type": "address"
				},
				{
					"internalType": "address",
					"name": "_positionMerger",
					"type": "address"
				},
				{
					"internalType": "address",
					"name": "_orderCreator",
					"type": "address"
				}
			],
			"stateMutability": "nonpayable",
			"type": "constructor"
		},
		{
			"inputs": [],
			"name": "AMM_IS_ACTIVE",
			"type": "error"
		},
		{
			"inputs": [],
			"name": "BAD_DEBT",
			"type": "error"
		},
		{
			"inputs": [],
			"name": "INACTIVE",
			"type": "error"
		},
		{
			"inputs": [],
			"name": "INSUFFICIENT_LIQUIDITY",
			"type": "error"
		},
		{
			"inputs": [],
			"name": "INSUFFICIENT_MARGIN",
			"type": "error"
		},
		{
			"inputs": [],
			"name": "INSUFFICIENT_OPEN_NOTIONAL",
			"type": "error"
		},
		{
			"inputs": [],
			"name": "INSUFFICIENT_SIZE",
			"type": "error"
		},
		{
			"inputs": [],
			"name": "INVALID_AMM",
			"type": "error"
		},
		{
			"inputs": [],
			"name": "INVALID_MARGIN_RATIO",
			"type": "error"
		},
		{
			"inputs": [],
			"name": "INVALID_SIDE",
			"type": "error"
		},
		{
			"inputs": [],
			"name": "INVALID_TRIGGER_AMOUNT",
			"type": "error"
		},
		{
			"inputs": [],
			"name": "LIQUIDATABLE",
			"type": "error"
		},
		{
			"inputs": [],
			"name": "NOT_LIMIT_CLOSE",
			"type": "error"
		},
		{
			"inputs": [],
			"name": "NOT_LIQUIDATABLE",
			"type": "error"
		},
		{
			"inputs": [],
			"name": "NOT_REDUCE_ONLY",
			"type": "error"
		},
		{
			"inputs": [],
			"name": "NOT_TRADER",
			"type": "error"
		},
		{
			"inputs": [],
			"name": "NO_POSITION",
			"type": "error"
		},
		{
			"inputs": [],
			"name": "NewOwnerIsZeroAddress",
			"type": "error"
		},
		{
			"inputs": [],
			"name": "NoHandoverRequest",
			"type": "error"
		},
		{
			"inputs": [],
			"name": "OPEN_INTEREST_CAP_EXCEEDED",
			"type": "error"
		},
		{
			"inputs": [],
			"name": "OVER_DIVERGENCE_CAP",
			"type": "error"
		},
		{
			"inputs": [],
			"name": "OVER_MAX_SIZE",
			"type": "error"
		},
		{
			"inputs": [],
			"name": "SANDWICH",
			"type": "error"
		},
		{
			"inputs": [],
			"name": "TRIGGER_INVALID",
			"type": "error"
		},
		{
			"inputs": [],
			"name": "TRIGGER_ON_MARK",
			"type": "error"
		},
		{
			"inputs": [],
			"name": "Unauthorized",
			"type": "error"
		},
		{
			"anonymous": false,
			"inputs": [],
			"name": "Activated",
			"type": "event"
		},
		{
			"anonymous": false,
			"inputs": [],
			"name": "Deactivated",
			"type": "event"
		},
		{
			"anonymous": false,
			"inputs": [
				{
					"indexed": true,
					"internalType": "contract IAMM",
					"name": "amm",
					"type": "address"
				},
				{
					"indexed": false,
					"internalType": "uint256",
					"name": "markPrice",
					"type": "uint256"
				},
				{
					"indexed": false,
					"internalType": "uint256",
					"name": "indexPrice",
					"type": "uint256"
				},
				{
					"indexed": false,
					"internalType": "int256",
					"name": "premiumFraction",
					"type": "int256"
				},
				{
					"indexed": false,
					"internalType": "int256",
					"name": "premiumFractionPerShare",
					"type": "int256"
				}
			],
			"name": "FundingSettled",
			"type": "event"
		},
		{
			"anonymous": false,
			"inputs": [
				{
					"indexed": false,
					"internalType": "uint8",
					"name": "version",
					"type": "uint8"
				}
			],
			"name": "Initialized",
			"type": "event"
		},
		{
			"anonymous": false,
			"inputs": [
				{
					"indexed": true,
					"internalType": "uint256",
					"name": "id",
					"type": "uint256"
				},
				{
					"indexed": false,
					"internalType": "contract IAMM",
					"name": "amm",
					"type": "address"
				},
				{
					"indexed": true,
					"internalType": "address",
					"name": "trader",
					"type": "address"
				},
				{
					"indexed": false,
					"internalType": "bool",
					"name": "filled",
					"type": "bool"
				}
			],
			"name": "LimitOrderRemoved",
			"type": "event"
		},
		{
			"anonymous": false,
			"inputs": [
				{
					"indexed": true,
					"internalType": "uint256",
					"name": "id",
					"type": "uint256"
				},
				{
					"indexed": true,
					"internalType": "contract IAMM",
					"name": "amm",
					"type": "address"
				},
				{
					"indexed": true,
					"internalType": "address",
					"name": "trader",
					"type": "address"
				},
				{
					"components": [
						{
							"internalType": "address",
							"name": "trader",
							"type": "address"
						},
						{
							"internalType": "contract IAMM",
							"name": "amm",
							"type": "address"
						},
						{
							"internalType": "enum Side",
							"name": "side",
							"type": "uint8"
						},
						{
							"internalType": "uint256",
							"name": "trigger",
							"type": "uint256"
						},
						{
							"internalType": "uint256",
							"name": "quoteAmount",
							"type": "uint256"
						},
						{
							"internalType": "uint256",
							"name": "leverage",
							"type": "uint256"
						},
						{
							"internalType": "bool",
							"name": "reduceOnly",
							"type": "bool"
						}
					],
					"indexed": false,
					"internalType": "struct LimitOrder",
					"name": "order",
					"type": "tuple"
				}
			],
			"name": "LimitOrderUpdated",
			"type": "event"
		},
		{
			"anonymous": false,
			"inputs": [
				{
					"indexed": true,
					"internalType": "contract IAMM",
					"name": "amm",
					"type": "address"
				},
				{
					"indexed": true,
					"internalType": "address",
					"name": "maker",
					"type": "address"
				},
				{
					"indexed": false,
					"internalType": "uint256",
					"name": "liquidity",
					"type": "uint256"
				},
				{
					"indexed": false,
					"internalType": "int256",
					"name": "fundingPayment",
					"type": "int256"
				}
			],
			"name": "LiquidityAdded",
			"type": "event"
		},
		{
			"anonymous": false,
			"inputs": [
				{
					"indexed": true,
					"internalType": "contract IAMM",
					"name": "amm",
					"type": "address"
				},
				{
					"indexed": true,
					"internalType": "address",
					"name": "trader",
					"type": "address"
				},
				{
					"indexed": false,
					"internalType": "uint256",
					"name": "liquidity",
					"type": "uint256"
				},
				{
					"indexed": false,
					"internalType": "int256",
					"name": "sizeRemoved",
					"type": "int256"
				},
				{
					"indexed": false,
					"internalType": "uint256",
					"name": "marginRemoved",
					"type": "uint256"
				},
				{
					"indexed": false,
					"internalType": "uint256",
					"name": "feeRealized",
					"type": "uint256"
				}
			],
			"name": "LiquidityRemoved",
			"type": "event"
		},
		{
			"anonymous": false,
			"inputs": [
				{
					"indexed": true,
					"internalType": "contract IAMM",
					"name": "amm",
					"type": "address"
				},
				{
					"indexed": true,
					"internalType": "address",
					"name": "trader",
					"type": "address"
				},
				{
					"indexed": false,
					"internalType": "uint256",
					"name": "amount",
					"type": "uint256"
				}
			],
			"name": "MarginAdded",
			"type": "event"
		},
		{
			"anonymous": false,
			"inputs": [
				{
					"indexed": true,
					"internalType": "contract IAMM",
					"name": "amm",
					"type": "address"
				},
				{
					"indexed": true,
					"internalType": "address",
					"name": "trader",
					"type": "address"
				},
				{
					"indexed": false,
					"internalType": "uint256",
					"name": "amount",
					"type": "uint256"
				}
			],
			"name": "MarginRemoved",
			"type": "event"
		},
		{
			"anonymous": false,
			"inputs": [
				{
					"indexed": true,
					"internalType": "contract IAMM",
					"name": "amm",
					"type": "address"
				},
				{
					"indexed": false,
					"internalType": "uint256",
					"name": "newOpenInterest",
					"type": "uint256"
				}
			],
			"name": "OpenInterestChanged",
			"type": "event"
		},
		{
			"anonymous": false,
			"inputs": [
				{
					"indexed": true,
					"internalType": "address",
					"name": "pendingOwner",
					"type": "address"
				}
			],
			"name": "OwnershipHandoverCanceled",
			"type": "event"
		},
		{
			"anonymous": false,
			"inputs": [
				{
					"indexed": true,
					"internalType": "address",
					"name": "pendingOwner",
					"type": "address"
				}
			],
			"name": "OwnershipHandoverRequested",
			"type": "event"
		},
		{
			"anonymous": false,
			"inputs": [
				{
					"indexed": true,
					"internalType": "address",
					"name": "oldOwner",
					"type": "address"
				},
				{
					"indexed": true,
					"internalType": "address",
					"name": "newOwner",
					"type": "address"
				}
			],
			"name": "OwnershipTransferred",
			"type": "event"
		},
		{
			"anonymous": false,
			"inputs": [
				{
					"indexed": true,
					"internalType": "contract IAMM",
					"name": "amm",
					"type": "address"
				},
				{
					"indexed": true,
					"internalType": "address",
					"name": "trader",
					"type": "address"
				},
				{
					"indexed": false,
					"internalType": "uint256",
					"name": "margin",
					"type": "uint256"
				},
				{
					"indexed": false,
					"internalType": "int256",
					"name": "size",
					"type": "int256"
				},
				{
					"indexed": false,
					"internalType": "uint256",
					"name": "exchangedQuote",
					"type": "uint256"
				},
				{
					"indexed": false,
					"internalType": "int256",
					"name": "exchangedBase",
					"type": "int256"
				},
				{
					"indexed": false,
					"internalType": "int256",
					"name": "realizedPnL",
					"type": "int256"
				},
				{
					"indexed": false,
					"internalType": "int256",
					"name": "fundingPayment",
					"type": "int256"
				},
				{
					"indexed": false,
					"internalType": "uint256",
					"name": "markPrice",
					"type": "uint256"
				},
				{
					"indexed": false,
					"internalType": "uint256",
					"name": "ifFee",
					"type": "uint256"
				},
				{
					"indexed": false,
					"internalType": "uint256",
					"name": "ammFee",
					"type": "uint256"
				},
				{
					"indexed": false,
					"internalType": "uint256",
					"name": "limitFee",
					"type": "uint256"
				},
				{
					"indexed": false,
					"internalType": "uint256",
					"name": "liquidationPenalty",
					"type": "uint256"
				},
				{
					"indexed": false,
					"internalType": "uint256",
					"name": "keeperFee",
					"type": "uint256"
				}
			],
			"name": "PositionChanged",
			"type": "event"
		},
		{
			"anonymous": false,
			"inputs": [
				{
					"indexed": true,
					"internalType": "uint256",
					"name": "id",
					"type": "uint256"
				},
				{
					"indexed": true,
					"internalType": "contract IAMM",
					"name": "amm",
					"type": "address"
				},
				{
					"indexed": true,
					"internalType": "address",
					"name": "trader",
					"type": "address"
				},
				{
					"indexed": false,
					"internalType": "address",
					"name": "keeper",
					"type": "address"
				}
			],
			"name": "TriggerOrderRemoved",
			"type": "event"
		},
		{
			"anonymous": false,
			"inputs": [
				{
					"indexed": true,
					"internalType": "uint256",
					"name": "id",
					"type": "uint256"
				},
				{
					"indexed": true,
					"internalType": "contract IAMM",
					"name": "amm",
					"type": "address"
				},
				{
					"indexed": true,
					"internalType": "address",
					"name": "trader",
					"type": "address"
				},
				{
					"components": [
						{
							"internalType": "address",
							"name": "trader",
							"type": "address"
						},
						{
							"internalType": "contract IAMM",
							"name": "amm",
							"type": "address"
						},
						{
							"internalType": "uint256",
							"name": "trigger",
							"type": "uint256"
						},
						{
							"internalType": "uint256",
							"name": "size",
							"type": "uint256"
						},
						{
							"internalType": "uint256",
							"name": "quoteLimit",
							"type": "uint256"
						},
						{
							"internalType": "bool",
							"name": "takeProfit",
							"type": "bool"
						}
					],
					"indexed": false,
					"internalType": "struct TriggerOrder",
					"name": "order",
					"type": "tuple"
				}
			],
			"name": "TriggerOrderUpdated",
			"type": "event"
		},
		{
			"inputs": [
				{
					"internalType": "contract IAMM",
					"name": "amm",
					"type": "address"
				},
				{
					"internalType": "uint256",
					"name": "margin",
					"type": "uint256"
				},
				{
					"internalType": "uint256",
					"name": "leverage",
					"type": "uint256"
				},
				{
					"internalType": "uint256",
					"name": "minLiquidity",
					"type": "uint256"
				}
			],
			"name": "addLiquidity",
			"outputs": [
				{
					"internalType": "uint256",
					"name": "liquidity",
					"type": "uint256"
				}
			],
			"stateMutability": "nonpayable",
			"type": "function"
		},
		{
			"inputs": [
				{
					"internalType": "contract IAMM",
					"name": "amm",
					"type": "address"
				},
				{
					"internalType": "uint256",
					"name": "margin",
					"type": "uint256"
				}
			],
			"name": "addMargin",
			"outputs": [],
			"stateMutability": "nonpayable",
			"type": "function"
		},
		{
			"inputs": [],
			"name": "cancelOwnershipHandover",
			"outputs": [],
			"stateMutability": "payable",
			"type": "function"
		},
		{
			"inputs": [
				{
					"internalType": "contract IAMM",
					"name": "amm",
					"type": "address"
				},
				{
					"internalType": "uint256",
					"name": "size",
					"type": "uint256"
				},
				{
					"internalType": "uint256",
					"name": "quoteLimit",
					"type": "uint256"
				}
			],
			"name": "closePosition",
			"outputs": [],
			"stateMutability": "nonpayable",
			"type": "function"
		},
		{
			"inputs": [
				{
					"internalType": "uint256",
					"name": "id",
					"type": "uint256"
				}
			],
			"name": "closePositionKeeper",
			"outputs": [],
			"stateMutability": "nonpayable",
			"type": "function"
		},
		{
			"inputs": [
				{
					"internalType": "address",
					"name": "pendingOwner",
					"type": "address"
				}
			],
			"name": "completeOwnershipHandover",
			"outputs": [],
			"stateMutability": "payable",
			"type": "function"
		},
		{
			"inputs": [
				{
					"components": [
						{
							"internalType": "address",
							"name": "trader",
							"type": "address"
						},
						{
							"internalType": "contract IAMM",
							"name": "amm",
							"type": "address"
						},
						{
							"internalType": "enum Side",
							"name": "side",
							"type": "uint8"
						},
						{
							"internalType": "uint256",
							"name": "trigger",
							"type": "uint256"
						},
						{
							"internalType": "uint256",
							"name": "quoteAmount",
							"type": "uint256"
						},
						{
							"internalType": "uint256",
							"name": "leverage",
							"type": "uint256"
						},
						{
							"internalType": "bool",
							"name": "reduceOnly",
							"type": "bool"
						}
					],
					"internalType": "struct LimitOrder",
					"name": "order",
					"type": "tuple"
				}
			],
			"name": "createLimitOrder",
			"outputs": [
				{
					"internalType": "uint256",
					"name": "id",
					"type": "uint256"
				}
			],
			"stateMutability": "nonpayable",
			"type": "function"
		},
		{
			"inputs": [
				{
					"components": [
						{
							"internalType": "address",
							"name": "trader",
							"type": "address"
						},
						{
							"internalType": "contract IAMM",
							"name": "amm",
							"type": "address"
						},
						{
							"internalType": "enum Side",
							"name": "side",
							"type": "uint8"
						},
						{
							"internalType": "uint256",
							"name": "trigger",
							"type": "uint256"
						},
						{
							"internalType": "uint256",
							"name": "quoteAmount",
							"type": "uint256"
						},
						{
							"internalType": "uint256",
							"name": "leverage",
							"type": "uint256"
						},
						{
							"internalType": "bool",
							"name": "reduceOnly",
							"type": "bool"
						}
					],
					"internalType": "struct LimitOrder[]",
					"name": "_orders",
					"type": "tuple[]"
				}
			],
			"name": "createLimitOrderBatch",
			"outputs": [
				{
					"internalType": "uint256[]",
					"name": "ids",
					"type": "uint256[]"
				}
			],
			"stateMutability": "nonpayable",
			"type": "function"
		},
		{
			"inputs": [
				{
					"components": [
						{
							"internalType": "address",
							"name": "trader",
							"type": "address"
						},
						{
							"internalType": "contract IAMM",
							"name": "amm",
							"type": "address"
						},
						{
							"internalType": "uint256",
							"name": "trigger",
							"type": "uint256"
						},
						{
							"internalType": "uint256",
							"name": "size",
							"type": "uint256"
						},
						{
							"internalType": "uint256",
							"name": "quoteLimit",
							"type": "uint256"
						},
						{
							"internalType": "bool",
							"name": "takeProfit",
							"type": "bool"
						}
					],
					"internalType": "struct TriggerOrder",
					"name": "order",
					"type": "tuple"
				}
			],
			"name": "createTriggerOrder",
			"outputs": [
				{
					"internalType": "uint256",
					"name": "id",
					"type": "uint256"
				}
			],
			"stateMutability": "nonpayable",
			"type": "function"
		},
		{
			"inputs": [
				{
					"internalType": "uint256",
					"name": "id",
					"type": "uint256"
				}
			],
			"name": "deleteLimitOrder",
			"outputs": [],
			"stateMutability": "nonpayable",
			"type": "function"
		},
		{
			"inputs": [
				{
					"internalType": "uint256[]",
					"name": "ids",
					"type": "uint256[]"
				}
			],
			"name": "deleteLimitOrderBatch",
			"outputs": [],
			"stateMutability": "nonpayable",
			"type": "function"
		},
		{
			"inputs": [
				{
					"internalType": "uint256",
					"name": "id",
					"type": "uint256"
				}
			],
			"name": "deleteTriggerOrder",
			"outputs": [],
			"stateMutability": "nonpayable",
			"type": "function"
		},
		{
			"inputs": [
				{
					"internalType": "contract IAMM",
					"name": "amm",
					"type": "address"
				},
				{
					"internalType": "address",
					"name": "trader",
					"type": "address"
				}
			],
			"name": "forceLiquidate",
			"outputs": [],
			"stateMutability": "nonpayable",
			"type": "function"
		},
		{
			"inputs": [
				{
					"internalType": "contract IAMM",
					"name": "amm",
					"type": "address"
				}
			],
			"name": "getAMMData",
			"outputs": [
				{
					"components": [
						{
							"internalType": "int256",
							"name": "premiumFraction",
							"type": "int256"
						},
						{
							"internalType": "int256",
							"name": "premiumFractionPerShare",
							"type": "int256"
						},
						{
							"internalType": "int256",
							"name": "netPositionOffsetPerShare",
							"type": "int256"
						},
						{
							"internalType": "uint256",
							"name": "feeGrowth",
							"type": "uint256"
						}
					],
					"internalType": "struct AMMData",
					"name": "",
					"type": "tuple"
				}
			],
			"stateMutability": "view",
			"type": "function"
		},
		{
			"inputs": [
				{
					"internalType": "contract IAMM",
					"name": "amm",
					"type": "address"
				}
			],
			"name": "getCumulativePremiumFraction",
			"outputs": [
				{
					"internalType": "int256",
					"name": "",
					"type": "int256"
				}
			],
			"stateMutability": "view",
			"type": "function"
		},
		{
			"inputs": [
				{
					"internalType": "contract IAMM",
					"name": "amm",
					"type": "address"
				}
			],
			"name": "getCumulativePremiumFractionPerShare",
			"outputs": [
				{
					"internalType": "int256",
					"name": "",
					"type": "int256"
				}
			],
			"stateMutability": "view",
			"type": "function"
		},
		{
			"inputs": [],
			"name": "getDivergenceCap",
			"outputs": [
				{
					"internalType": "uint256",
					"name": "",
					"type": "uint256"
				}
			],
			"stateMutability": "view",
			"type": "function"
		},
		{
			"inputs": [
				{
					"internalType": "contract IAMM",
					"name": "amm",
					"type": "address"
				}
			],
			"name": "getFeeGrowth",
			"outputs": [
				{
					"internalType": "uint256",
					"name": "",
					"type": "uint256"
				}
			],
			"stateMutability": "view",
			"type": "function"
		},
		{
			"inputs": [
				{
					"internalType": "uint256",
					"name": "id",
					"type": "uint256"
				}
			],
			"name": "getLimitOrder",
			"outputs": [
				{
					"components": [
						{
							"internalType": "address",
							"name": "trader",
							"type": "address"
						},
						{
							"internalType": "contract IAMM",
							"name": "amm",
							"type": "address"
						},
						{
							"internalType": "enum Side",
							"name": "side",
							"type": "uint8"
						},
						{
							"internalType": "uint256",
							"name": "trigger",
							"type": "uint256"
						},
						{
							"internalType": "uint256",
							"name": "quoteAmount",
							"type": "uint256"
						},
						{
							"internalType": "uint256",
							"name": "leverage",
							"type": "uint256"
						},
						{
							"internalType": "bool",
							"name": "reduceOnly",
							"type": "bool"
						}
					],
					"internalType": "struct LimitOrder",
					"name": "",
					"type": "tuple"
				}
			],
			"stateMutability": "view",
			"type": "function"
		},
		{
			"inputs": [],
			"name": "getMinOrderbookMargin",
			"outputs": [
				{
					"internalType": "uint256",
					"name": "",
					"type": "uint256"
				}
			],
			"stateMutability": "view",
			"type": "function"
		},
		{
			"inputs": [
				{
					"internalType": "contract IAMM",
					"name": "amm",
					"type": "address"
				}
			],
			"name": "getOpenInterestNotional",
			"outputs": [
				{
					"internalType": "uint256",
					"name": "",
					"type": "uint256"
				}
			],
			"stateMutability": "view",
			"type": "function"
		},
		{
			"inputs": [
				{
					"internalType": "contract IAMM",
					"name": "amm",
					"type": "address"
				},
				{
					"internalType": "address",
					"name": "trader",
					"type": "address"
				}
			],
			"name": "getPosition",
			"outputs": [
				{
					"components": [
						{
							"internalType": "int256",
							"name": "size",
							"type": "int256"
						},
						{
							"internalType": "uint256",
							"name": "margin",
							"type": "uint256"
						},
						{
							"internalType": "uint256",
							"name": "openNotional",
							"type": "uint256"
						},
						{
							"internalType": "int256",
							"name": "lastPremiumFraction",
							"type": "int256"
						},
						{
							"internalType": "uint256",
							"name": "blockNumber",
							"type": "uint256"
						}
					],
					"internalType": "struct Position",
					"name": "",
					"type": "tuple"
				}
			],
			"stateMutability": "view",
			"type": "function"
		},
		{
			"inputs": [
				{
					"internalType": "contract IAMM",
					"name": "amm",
					"type": "address"
				},
				{
					"internalType": "address",
					"name": "trader",
					"type": "address"
				}
			],
			"name": "getPositionNotionalUpnl",
			"outputs": [
				{
					"internalType": "uint256",
					"name": "positionNotional",
					"type": "uint256"
				},
				{
					"internalType": "int256",
					"name": "upnl",
					"type": "int256"
				}
			],
			"stateMutability": "view",
			"type": "function"
		},
		{
			"inputs": [
				{
					"internalType": "contract IAMM",
					"name": "amm",
					"type": "address"
				},
				{
					"internalType": "int256",
					"name": "size",
					"type": "int256"
				},
				{
					"internalType": "uint256",
					"name": "openNotional",
					"type": "uint256"
				}
			],
			"name": "getPositionNotionalUpnlByPosition",
			"outputs": [
				{
					"internalType": "uint256",
					"name": "",
					"type": "uint256"
				},
				{
					"internalType": "int256",
					"name": "",
					"type": "int256"
				}
			],
			"stateMutability": "view",
			"type": "function"
		},
		{
			"inputs": [
				{
					"internalType": "address",
					"name": "trader",
					"type": "address"
				},
				{
					"internalType": "contract IAMM",
					"name": "amm",
					"type": "address"
				}
			],
			"name": "getReduceOnlyOrders",
			"outputs": [
				{
					"internalType": "uint256[]",
					"name": "",
					"type": "uint256[]"
				}
			],
			"stateMutability": "view",
			"type": "function"
		},
		{
			"inputs": [
				{
					"internalType": "contract IAMM",
					"name": "amm",
					"type": "address"
				}
			],
			"name": "getTotalPositionSize",
			"outputs": [
				{
					"components": [
						{
							"internalType": "int256",
							"name": "netPositionSize",
							"type": "int256"
						},
						{
							"internalType": "int256",
							"name": "netPositionOffsetPerShare",
							"type": "int256"
						},
						{
							"internalType": "uint256",
							"name": "positionSizeLong",
							"type": "uint256"
						},
						{
							"internalType": "uint256",
							"name": "positionSizeShort",
							"type": "uint256"
						}
					],
					"internalType": "struct TotalPositionSize",
					"name": "",
					"type": "tuple"
				}
			],
			"stateMutability": "view",
			"type": "function"
		},
		{
			"inputs": [
				{
					"internalType": "uint256",
					"name": "id",
					"type": "uint256"
				}
			],
			"name": "getTriggerOrder",
			"outputs": [
				{
					"components": [
						{
							"internalType": "address",
							"name": "trader",
							"type": "address"
						},
						{
							"internalType": "contract IAMM",
							"name": "amm",
							"type": "address"
						},
						{
							"internalType": "uint256",
							"name": "trigger",
							"type": "uint256"
						},
						{
							"internalType": "uint256",
							"name": "size",
							"type": "uint256"
						},
						{
							"internalType": "uint256",
							"name": "quoteLimit",
							"type": "uint256"
						},
						{
							"internalType": "bool",
							"name": "takeProfit",
							"type": "bool"
						}
					],
					"internalType": "struct TriggerOrder",
					"name": "",
					"type": "tuple"
				}
			],
			"stateMutability": "view",
			"type": "function"
		},
		{
			"inputs": [
				{
					"internalType": "address",
					"name": "trader",
					"type": "address"
				},
				{
					"internalType": "contract IAMM",
					"name": "amm",
					"type": "address"
				}
			],
			"name": "getTriggerOrders",
			"outputs": [
				{
					"internalType": "uint256[]",
					"name": "",
					"type": "uint256[]"
				}
			],
			"stateMutability": "view",
			"type": "function"
		},
		{
			"inputs": [
				{
					"internalType": "contract IAMM",
					"name": "amm",
					"type": "address"
				}
			],
			"name": "getValidAMM",
			"outputs": [
				{
					"internalType": "bool",
					"name": "",
					"type": "bool"
				}
			],
			"stateMutability": "view",
			"type": "function"
		},
		{
			"inputs": [
				{
					"internalType": "address",
					"name": "_owner",
					"type": "address"
				},
				{
					"internalType": "uint256",
					"name": "_divergenceCap",
					"type": "uint256"
				}
			],
			"name": "initialize",
			"outputs": [],
			"stateMutability": "nonpayable",
			"type": "function"
		},
		{
			"inputs": [],
			"name": "isActive",
			"outputs": [
				{
					"internalType": "bool",
					"name": "",
					"type": "bool"
				}
			],
			"stateMutability": "view",
			"type": "function"
		},
		{
			"inputs": [
				{
					"internalType": "contract IAMM",
					"name": "amm",
					"type": "address"
				},
				{
					"internalType": "address",
					"name": "trader",
					"type": "address"
				}
			],
			"name": "isLiquidatable",
			"outputs": [
				{
					"internalType": "bool",
					"name": "",
					"type": "bool"
				}
			],
			"stateMutability": "view",
			"type": "function"
		},
		{
			"inputs": [
				{
					"internalType": "uint256",
					"name": "id",
					"type": "uint256"
				}
			],
			"name": "isTriggerOrderValid",
			"outputs": [
				{
					"internalType": "bool",
					"name": "",
					"type": "bool"
				}
			],
			"stateMutability": "view",
			"type": "function"
		},
		{
			"inputs": [
				{
					"internalType": "contract IAMM",
					"name": "amm",
					"type": "address"
				},
				{
					"internalType": "uint256",
					"name": "size",
					"type": "uint256"
				},
				{
					"internalType": "address",
					"name": "trader",
					"type": "address"
				},
				{
					"internalType": "uint256",
					"name": "margin",
					"type": "uint256"
				}
			],
			"name": "liquidate",
			"outputs": [],
			"stateMutability": "nonpayable",
			"type": "function"
		},
		{
			"inputs": [
				{
					"internalType": "contract IAMM",
					"name": "amm",
					"type": "address"
				},
				{
					"internalType": "address",
					"name": "maker",
					"type": "address"
				},
				{
					"internalType": "uint256",
					"name": "margin",
					"type": "uint256"
				}
			],
			"name": "liquidateMaker",
			"outputs": [],
			"stateMutability": "nonpayable",
			"type": "function"
		},
		{
			"inputs": [
				{
					"internalType": "contract IAMM",
					"name": "amm",
					"type": "address"
				},
				{
					"internalType": "enum Side",
					"name": "side",
					"type": "uint8"
				},
				{
					"internalType": "uint256",
					"name": "quote",
					"type": "uint256"
				},
				{
					"internalType": "uint256",
					"name": "leverage",
					"type": "uint256"
				},
				{
					"internalType": "uint256",
					"name": "baseLimit",
					"type": "uint256"
				}
			],
			"name": "openPosition",
			"outputs": [],
			"stateMutability": "nonpayable",
			"type": "function"
		},
		{
			"inputs": [],
			"name": "owner",
			"outputs": [
				{
					"internalType": "address",
					"name": "result",
					"type": "address"
				}
			],
			"stateMutability": "view",
			"type": "function"
		},
		{
			"inputs": [
				{
					"internalType": "address",
					"name": "pendingOwner",
					"type": "address"
				}
			],
			"name": "ownershipHandoverExpiresAt",
			"outputs": [
				{
					"internalType": "uint256",
					"name": "result",
					"type": "uint256"
				}
			],
			"stateMutability": "view",
			"type": "function"
		},
		{
			"inputs": [],
			"name": "ownershipHandoverValidFor",
			"outputs": [
				{
					"internalType": "uint64",
					"name": "",
					"type": "uint64"
				}
			],
			"stateMutability": "view",
			"type": "function"
		},
		{
			"inputs": [
				{
					"internalType": "contract IAMM",
					"name": "amm",
					"type": "address"
				},
				{
					"internalType": "uint256",
					"name": "amount",
					"type": "uint256"
				}
			],
			"name": "removeLiquidity",
			"outputs": [],
			"stateMutability": "nonpayable",
			"type": "function"
		},
		{
			"inputs": [
				{
					"internalType": "contract IAMM",
					"name": "amm",
					"type": "address"
				},
				{
					"internalType": "uint256",
					"name": "margin",
					"type": "uint256"
				}
			],
			"name": "removeMargin",
			"outputs": [],
			"stateMutability": "nonpayable",
			"type": "function"
		},
		{
			"inputs": [],
			"name": "renounceOwnership",
			"outputs": [],
			"stateMutability": "payable",
			"type": "function"
		},
		{
			"inputs": [],
			"name": "requestOwnershipHandover",
			"outputs": [],
			"stateMutability": "payable",
			"type": "function"
		},
		{
			"inputs": [
				{
					"internalType": "bool",
					"name": "_active",
					"type": "bool"
				}
			],
			"name": "setActive",
			"outputs": [],
			"stateMutability": "nonpayable",
			"type": "function"
		},
		{
			"inputs": [
				{
					"internalType": "uint256",
					"name": "_divergenceCap",
					"type": "uint256"
				}
			],
			"name": "setDivergenceCap",
			"outputs": [],
			"stateMutability": "nonpayable",
			"type": "function"
		},
		{
			"inputs": [
				{
					"internalType": "uint256",
					"name": "minMargin",
					"type": "uint256"
				}
			],
			"name": "setMinOrderbookMargin",
			"outputs": [],
			"stateMutability": "nonpayable",
			"type": "function"
		},
		{
			"inputs": [
				{
					"internalType": "contract IAMM",
					"name": "amm",
					"type": "address"
				},
				{
					"internalType": "bool",
					"name": "valid",
					"type": "bool"
				}
			],
			"name": "setValidAMM",
			"outputs": [],
			"stateMutability": "nonpayable",
			"type": "function"
		},
		{
			"inputs": [
				{
					"internalType": "contract IAMM",
					"name": "amm",
					"type": "address"
				}
			],
			"name": "settleFunding",
			"outputs": [],
			"stateMutability": "nonpayable",
			"type": "function"
		},
		{
			"inputs": [
				{
					"internalType": "address",
					"name": "newOwner",
					"type": "address"
				}
			],
			"name": "transferOwnership",
			"outputs": [],
			"stateMutability": "payable",
			"type": "function"
		},
		{
			"inputs": [
				{
					"internalType": "uint256",
					"name": "id",
					"type": "uint256"
				},
				{
					"components": [
						{
							"internalType": "address",
							"name": "trader",
							"type": "address"
						},
						{
							"internalType": "contract IAMM",
							"name": "amm",
							"type": "address"
						},
						{
							"internalType": "enum Side",
							"name": "side",
							"type": "uint8"
						},
						{
							"internalType": "uint256",
							"name": "trigger",
							"type": "uint256"
						},
						{
							"internalType": "uint256",
							"name": "quoteAmount",
							"type": "uint256"
						},
						{
							"internalType": "uint256",
							"name": "leverage",
							"type": "uint256"
						},
						{
							"internalType": "bool",
							"name": "reduceOnly",
							"type": "bool"
						}
					],
					"internalType": "struct LimitOrder",
					"name": "order",
					"type": "tuple"
				}
			],
			"name": "updateLimitOrder",
			"outputs": [],
			"stateMutability": "nonpayable",
			"type": "function"
		},
		{
			"inputs": [
				{
					"internalType": "uint256[]",
					"name": "ids",
					"type": "uint256[]"
				},
				{
					"components": [
						{
							"internalType": "address",
							"name": "trader",
							"type": "address"
						},
						{
							"internalType": "contract IAMM",
							"name": "amm",
							"type": "address"
						},
						{
							"internalType": "enum Side",
							"name": "side",
							"type": "uint8"
						},
						{
							"internalType": "uint256",
							"name": "trigger",
							"type": "uint256"
						},
						{
							"internalType": "uint256",
							"name": "quoteAmount",
							"type": "uint256"
						},
						{
							"internalType": "uint256",
							"name": "leverage",
							"type": "uint256"
						},
						{
							"internalType": "bool",
							"name": "reduceOnly",
							"type": "bool"
						}
					],
					"internalType": "struct LimitOrder[]",
					"name": "_orders",
					"type": "tuple[]"
				}
			],
			"name": "updateLimitOrderBatch",
			"outputs": [],
			"stateMutability": "nonpayable",
			"type": "function"
		},
		{
			"inputs": [
				{
					"internalType": "uint256",
					"name": "id",
					"type": "uint256"
				},
				{
					"components": [
						{
							"internalType": "address",
							"name": "trader",
							"type": "address"
						},
						{
							"internalType": "contract IAMM",
							"name": "amm",
							"type": "address"
						},
						{
							"internalType": "uint256",
							"name": "trigger",
							"type": "uint256"
						},
						{
							"internalType": "uint256",
							"name": "size",
							"type": "uint256"
						},
						{
							"internalType": "uint256",
							"name": "quoteLimit",
							"type": "uint256"
						},
						{
							"internalType": "bool",
							"name": "takeProfit",
							"type": "bool"
						}
					],
					"internalType": "struct TriggerOrder",
					"name": "order",
					"type": "tuple"
				}
			],
			"name": "updateTriggerOrder",
			"outputs": [],
			"stateMutability": "nonpayable",
			"type": "function"
		}
	],
	"bytecode": {
		"object": "0x6101206040523480156200001257600080fd5b5060405162005b6738038062005b6783398101604081905262000035916200014e565b6001600160a01b038086166080528481166101005283811660a05282811660c052811660e0526200006562000070565b5050505050620001be565b604354610100900460ff1615620000dd5760405162461bcd60e51b815260206004820152602760248201527f496e697469616c697a61626c653a20636f6e747261637420697320696e697469604482015266616c697a696e6760c81b606482015260840160405180910390fd5b60435460ff908116146200012f576043805460ff191660ff9081179091556040519081527f7f26b83ff96e1f2b6a682f133852f6798a09c465da95921460cefb38474024989060200160405180910390a15b565b80516001600160a01b03811681146200014957600080fd5b919050565b600080600080600060a086880312156200016757600080fd5b620001728662000131565b9450620001826020870162000131565b9350620001926040870162000131565b9250620001a26060870162000131565b9150620001b26080870162000131565b90509295509295909350565b60805160a05160c05160e05161010051615902620002656000396000612247015260008181610c2701528181611197015281816112de015281816114f801526123d501526000818161188a01528181611a610152611cc1015260008181610fe601528181611e2d0152612122015260008181610c74015281816117eb015281816119d001528181611cfa015281816120340152818161222501526122e401526159026000f3fe6080604052600436106102ff5760003560e01c80638da5cb5b11610190578063cf70cb69116100dc578063e304677011610095578063f04e283e1161006f578063f04e283e14610adf578063f2fde38b14610af2578063f8b6e44914610b05578063fee81cf414610b2557600080fd5b8063e304677014610a4c578063e859f37214610a6c578063e980e16e14610a8c57600080fd5b8063cf70cb6914610978578063d243505214610998578063d3123a80146109b8578063d7533f02146109ee578063da8c7e4014610a0c578063dd2a65ed14610a2c57600080fd5b8063aa317dc011610149578063b346679b11610123578063b346679b146108e2578063b959d69514610918578063cbb50e6114610938578063cd6dc6871461095857600080fd5b8063aa317dc014610840578063acec338a14610860578063b33dc1901461088057600080fd5b80638da5cb5b146107595780639457be231461078557806398712fe4146107a5578063987362da146107d25780639dda4e4f146107e7578063a201ccf61461082057600080fd5b8063517237a91161024f57806368d8529711610208578063715018a6116101e2578063715018a6146106f157806373af0205146106f95780637aefce97146107195780637eb024061461073957600080fd5b806368d852971461067b5780636b17ad031461069b5780636ea41e40146106bb57600080fd5b8063517237a9146105d157806353061026146105f157806354b85a3e1461061e57806354d1f13d1461063e5780635ac3b62d146106465780636467024c1461065b57600080fd5b806325692962116102bc5780633966a28b116102965780633966a28b1461052e578063429e92371461054e5780634a6ebce7146105845780634fa9c4db146105b157600080fd5b806325692962146103f85780632a120de41461040057806336cef3d91461042057600080fd5b80630e86a08d1461030457806313dee2d11461033e5780631ece366a14610360578063207b5b6f1461038e57806322f3e2d4146103ae57806323c16e22146103d8575b600080fd5b34801561031057600080fd5b5061032461031f366004614960565b610b58565b604080519283526020830191909152015b60405180910390f35b34801561034a57600080fd5b5061035e6103593660046149de565b610bcf565b005b34801561036c57600080fd5b5061038061037b366004614a78565b610c54565b604051908152602001610335565b34801561039a57600080fd5b5061035e6103a9366004614ac1565b610db5565b3480156103ba57600080fd5b5060435462010000900460ff165b6040519015158152602001610335565b3480156103e457600080fd5b5061035e6103f3366004614aef565b610e71565b61035e61101b565b34801561040c57600080fd5b5061035e61041b366004614c03565b61106b565b34801561042c57600080fd5b506104d761043b366004614aef565b6040805160c081018252600080825260208201819052918101829052606081018290526080810182905260a0810191909152506000908152600d6020908152604091829020825160c08101845281546001600160a01b03908116825260018301541692810192909252600281015492820192909252600382015460608201526004820154608082015260059091015460ff16151560a082015290565b604051610335919081516001600160a01b0390811682526020808401519091169082015260408083015190820152606080830151908201526080808301519082015260a09182015115159181019190915260c00190565b34801561053a57600080fd5b506103c8610549366004614960565b611121565b34801561055a57600080fd5b50610380610569366004614c28565b6001600160a01b031660009081526008602052604090205490565b34801561059057600080fd5b506105a461059f366004614c45565b61113f565b6040516103359190614cc2565b3480156105bd57600080fd5b5061035e6105cc366004614cd5565b6111db565b3480156105dd57600080fd5b5061035e6105ec366004614d2e565b61128c565b3480156105fd57600080fd5b5061061161060c366004614aef565b611308565b6040516103359190614e52565b34801561062a57600080fd5b506105a4610639366004614960565b6113b4565b61035e61142d565b34801561065257600080fd5b50600f54610380565b34801561066757600080fd5b50610324610676366004614cd5565b611469565b34801561068757600080fd5b50610380610696366004614e78565b6114ab565b3480156106a757600080fd5b5061035e6106b6366004614c28565b61153b565b3480156106c757600080fd5b506103806106d6366004614c28565b6001600160a01b031660009081526005602052604090205490565b61035e6116c3565b34801561070557600080fd5b506105a4610714366004614960565b6116d7565b34801561072557600080fd5b5061035e610734366004614e94565b61174e565b34801561074557600080fd5b50610380610754366004614ed5565b6118ba565b34801561076557600080fd5b50638b78c6d819546040516001600160a01b039091168152602001610335565b34801561079157600080fd5b5061035e6107a0366004614ee7565b61197d565b3480156107b157600080fd5b506107c56107c0366004614c28565b611a87565b6040516103359190614f2f565b3480156107de57600080fd5b50601054610380565b3480156107f357600080fd5b506103c8610802366004614c28565b6001600160a01b031660009081526003602052604090205460ff1690565b34801561082c57600080fd5b5061035e61083b366004614f5a565b611b0d565b34801561084c57600080fd5b5061035e61085b366004614960565b611d7e565b34801561086c57600080fd5b5061035e61087b366004614f86565b611e59565b34801561088c57600080fd5b506108a061089b366004614960565b611eda565b6040516103359190600060a082019050825182526020830151602083015260408301516040830152606083015160608301526080830151608083015292915050565b3480156108ee57600080fd5b506103806108fd366004614c28565b6001600160a01b031660009081526004602052604090205490565b34801561092457600080fd5b5061035e610933366004614f5a565b611f16565b34801561094457600080fd5b5061035e610953366004614fa3565b6120a1565b34801561096457600080fd5b5061035e610973366004614f5a565b612153565b34801561098457600080fd5b5061035e610993366004614f5a565b6122c6565b3480156109a457600080fd5b5061035e6109b3366004614ff2565b612389565b3480156109c457600080fd5b506103806109d3366004614c28565b6001600160a01b031660009081526006602052604090205490565b3480156109fa57600080fd5b506040516202a3008152602001610335565b348015610a1857600080fd5b5061035e610a27366004614aef565b6123fb565b348015610a3857600080fd5b506103c8610a47366004614aef565b612496565b348015610a5857600080fd5b5061035e610a67366004614aef565b612549565b348015610a7857600080fd5b5061035e610a87366004614aef565b612556565b348015610a9857600080fd5b50610aac610aa7366004614c28565b6125b6565b60405161033591908151815260208083015190820152604080830151908201526060918201519181019190915260800190565b61035e610aed366004614c28565b61262f565b61035e610b00366004614c28565b61266c565b348015610b1157600080fd5b5061035e610b20366004614aef565b612693565b348015610b3157600080fd5b50610380610b40366004614c28565b63389a75e1600c908152600091909152602090205490565b6001600160a01b038083166000908152602081815260408083209385168352928152828220835160a08101855281548152600182015492810192909252600281015493820193909352600383015460608201526004909201546080830152908190610bc49085906126a0565b909590945092505050565b610bd76126ea565b610c4d3385858585604051602401610bf39594939291906150b9565b60408051601f198184030181529190526020810180516001600160e01b031663e98143ad60e01b1790526001600160a01b037f00000000000000000000000000000000000000000000000000000000000000001690612713565b5050505050565b6000610c5e6126ea565b610c6785612738565b610c9c6001600160a01b037f000000000000000000000000000000000000000000000000000000000000000016333087612771565b604080516080810182526001600160a01b0387166000818152600560209081528482205484528282526006815284822054818501528282526007815284822060010154848601528282526004908190528482205460608501529351631a09603f60e21b81529093919263682580fc92610d1e9233928b928b928b92910161511c565b60408051808303816000875af1158015610d3c573d6000803e3d6000fd5b505050506040513d601f19601f82011682018060405250810190610d609190615170565b604080518381526020810183905292945090925033916001600160a01b038916917f32923dfeaa77af290abe15bfb407a16585bee3843a05dc1b82ad3dca3a866aad910160405180910390a350949350505050565b610dbd6127c5565b80158015610e285750816001600160a01b03166322f3e2d46040518163ffffffff1660e01b8152600401602060405180830381865afa158015610e04573d6000803e3d6000fd5b505050506040513d601f19601f82011682018060405250810190610e289190615194565b15610e465760405163cdd8a30360e01b815260040160405180910390fd5b6001600160a01b03919091166000908152600360205260409020805460ff1916911515919091179055565b610e796126ea565b6000818152600d6020908152604091829020825160c08101845281546001600160a01b03908116825260018301541692810183905260028201549381019390935260038101546060840152600481015460808401526005015460ff16151560a0830152610ee590612738565b610ef7816020015182600001516127e0565b6000610f0b8260200151836000015161280d565b9050600060ff82901c8103808301189050610f45836020015160008413610f33576001610f36565b60005b85604001518660a00151612854565b8083606001511115610f5957606083018190525b6000808313610f69576000610f6c565b60015b9050610f8284602001518686600001513361287d565b835160208501516060860151608087015160405161100c94610fb29490939092879233908a8414906024016151b1565b60408051601f198184030181529190526020810180516001600160e01b0316637b9db48760e11b1790526001600160a01b037f00000000000000000000000000000000000000000000000000000000000000001690612713565b50610c4d846020015182612ab4565b60006202a30067ffffffffffffffff164201905063389a75e1600c5233600052806020600c2055337fdbf36a107da19e49527a7176a1babf963b4b0ff8cde35ee35d6cd8f1f9ac7e1d600080a250565b6110736126ea565b604080516001808252818301909252600091816020015b61109261487d565b81526020019060019003908161108a575050604080516001808252818301909252919250600091906020808301908036833701905050905082826000815181106110de576110de615203565b602002602001018190525083816000815181106110fd576110fd615203565b602002602001018181525050610c4d338284604051602401610bf393929190615253565b6000611136836111318585612c0a565b612c9f565b90505b92915050565b60606111496126ea565b60006111bd33858560405160240161116393929190615289565b60408051601f198184030181529190526020810180516001600160e01b0316638b69f89760e01b1790526001600160a01b037f00000000000000000000000000000000000000000000000000000000000000001690612713565b9050808060200190518101906111d391906152b7565b949350505050565b6111e36126ea565b6111ec83612738565b6111f683336127e0565b6000611202843361280d565b905060ff81901c600003808201188084111561123157604051631eab837160e11b815260040160405180910390fd5b83600003611240575050505050565b6000808313611250576000611253565b60015b905061127833878388886000888c14604051602401610fb297969594939291906151b1565b506112838682612ab4565b5050505b505050565b6112946126ea565b61130433826040516024016112aa92919061533d565b60408051601f198184030181529190526020810180516001600160e01b0316637d5eb41f60e01b1790526001600160a01b037f00000000000000000000000000000000000000000000000000000000000000001690612713565b5050565b61131061487d565b6000828152600c6020908152604091829020825160e08101845281546001600160a01b039081168252600180840154918216948301949094529093919291840191600160a01b90910460ff169081111561136c5761136c614dc4565b600181111561137d5761137d614dc4565b815260028201546020820152600382015460408201526004820154606082015260059091015460ff16151560809091015292915050565b6001600160a01b038083166000908152600b6020908152604080832093851683529281529082902080548351818402810184019094528084526060939283018282801561142057602002820191906000526020600020905b81548152602001906001019080831161140c575b5050505050905092915050565b63389a75e1600c523360005260006020600c2055337ffa7b8eab7da67f412cc9575ed43464468f9bfbae89d1675917346ca6d8fe3c92600080a2565b60008061149f856040518060a00160405280878152602001600081526020018681526020016000815260200160008152506126a0565b91509150935093915050565b60008061151e83336040516024016114c49291906153c7565b60408051601f198184030181529190526020810180516001600160e01b0316631da5734360e21b1790526001600160a01b037f00000000000000000000000000000000000000000000000000000000000000001690612713565b90508080602001905181019061153491906153ed565b9392505050565b6115436126ea565b61154c81612738565b6000806000836001600160a01b031663ed83d79c6040518163ffffffff1660e01b81526004016060604051808303816000875af1158015611591573d6000803e3d6000fd5b505050506040513d601f19601f820116820180604052508101906115b59190615406565b6001600160a01b03871660008181526007602090815260408083208151608081018352815481526001820154818501526002820154818401526003909101546060820152938352600582528083205460069092529091205494975092955090935091611621868361544a565b60208401519092506116339087612e17565b61163e90600161544a565b611648908261544a565b6001600160a01b03881660008181526005602090815260408083208790556006825291829020849055815189815290810188905290810185905260608101839052919250907f1c02bced5ca0dc6cf5083d0cafb8183dce5091eaa32c83b0065021a491ae5e539060800160405180910390a250505050505050565b6116cb6127c5565b6116d56000612e86565b565b6001600160a01b038083166000908152600a60209081526040808320938516835292815290829020805483518184028101840190945280845260609392830182828015611420576020028201919060005260206000209081548152602001906001019080831161140c575050505050905092915050565b6117566126ea565b61175f83612738565b604051631bde66e760e01b81526001600160a01b038381166004830152600091829182918291881690631bde66e7906024016080604051808303816000875af11580156117b0573d6000803e3d6000fd5b505050506040513d601f19601f820116820180604052508101906117d49190615472565b929650909450925090506118136001600160a01b037f000000000000000000000000000000000000000000000000000000000000000016333088612771565b6040516001600160a01b0388166024820152336044820152606481018590526084810186905260a4810184905260c4810182905260e481018390526118b0906101040160408051601f198184030181529190526020810180516001600160e01b031663d0dea43d60e01b1790526001600160a01b037f00000000000000000000000000000000000000000000000000000000000000001690612713565b5050505050505050565b60006118c46126ea565b604080516001808252818301909252600091816020015b6118e361487d565b8152602001906001900390816118db579050509050611907368490038401846154a8565b8160008151811061191a5761191a615203565b6020026020010181905250600061193d33836040516024016111639291906154c4565b905060008180602001905181019061195591906152b7565b90508060008151811061196a5761196a615203565b602002602001015193505050505b919050565b6119856126ea565b61198e84612738565b600061199a8584612c0a565b90506119a68582612c9f565b6119c357604051633da1f7d160e11b815260040160405180910390fd5b6119f86001600160a01b037f000000000000000000000000000000000000000000000000000000000000000016333085612771565b6040516001600160a01b038087166024830152841660448201523360648201526084810185905260a481018390526112839060c40160408051601f198184030181529190526020810180516001600160e01b0316636f70e66f60e01b1790526001600160a01b037f00000000000000000000000000000000000000000000000000000000000000001690612713565b611ab26040518060800160405280600081526020016000815260200160008152602001600081525090565b50604080516080810182526001600160a01b0390921660008181526005602090815283822054855282825260068152838220548186015282825260078152838220600101548585015291815260049091522054606082015290565b611b156126ea565b611b1e82612738565b604080516080810182526001600160a01b038416600081815260056020908152848220548452828252600681528482205481850152828252600781528482206001015484860152828252600490819052848220546060850152935163ab7ab90360e01b81529093849384939263ab7ab90392611b9e9233928a92016154e8565b6060604051808303816000875af1158015611bbd573d6000803e3d6000fd5b505050506040513d601f19601f82011682018060405250810190611be19190615406565b9250925092506000856001600160a01b031663c4e41b226040518163ffffffff1660e01b8152600401602060405180830381865afa158015611c27573d6000803e3d6000fd5b505050506040513d601f19601f82011682018060405250810190611c4b91906153ed565b90508315801590611c5b57508015155b15611ced576040516001600160a01b03871660248201523360448201526064810184905260848101859052611ce79060a40160408051601f198184030181529190526020810180516001600160e01b031663dab497ff60e01b1790526001600160a01b037f00000000000000000000000000000000000000000000000000000000000000001690612713565b50611d21565b611d216001600160a01b037f0000000000000000000000000000000000000000000000000000000000000000163385612ec4565b60408051868152602081018690529081018490526060810183905233906001600160a01b038816907fef5ab242a679e37f2ff51fd2bc2aed154cad62c0906ef89aa3228d72f968105f9060800160405180910390a3505050505050565b611d866127c5565b6000611d928383612c0a565b9050611d9e8382612c9f565b611dbb57604051633da1f7d160e11b815260040160405180910390fd5b611e5382846000846000015113611dd3576000611dd6565b60015b845160ff81901c6000039081011830604051602401611df995949392919061552d565b60408051601f198184030181529190526020810180516001600160e01b0316633a33b8b760e21b1790526001600160a01b037f00000000000000000000000000000000000000000000000000000000000000001690612713565b50505050565b611e616127c5565b6043805482158015620100000262ff00001990921691909117909155611ead576040517fed1cd0670ee0c0017f550451a038818c696d0b6a9d6ce5b369e44275573cf9b090600090a150565b6040517f1142a68cc39970640eb3524e77b91f78be21abc64f20f5919387eb46699bb77290600090a15b50565b611f0c6040518060a0016040528060008152602001600081526020016000815260200160008152602001600081525090565b6111368383612c0a565b611f1e6126ea565b611f2782612738565b6001600160a01b0382166000908152602081815260408083203384528252808320815160a081018352815481526001820154938101939093526002810154918301919091526003810154606083015260040154608082015290611f9d8483611f9886670de0b6b3a763ffff19612f0a565b612f57565b90508060400151600014611fc457604051632c7c1d6360e11b815260040160405180910390fd5b6060808201516020840152815190830152611fdf848361301f565b6001600160a01b03808516600090815260208181526040808320338085529083529281902086518155918601516001830155850151600282015560608501516003820155608085015160049091015561205b917f0000000000000000000000000000000000000000000000000000000000000000169085612ec4565b60405183815233906001600160a01b038616907fb0fa03f93c852a6feaaeb34ccf4cf865cc223c4cc9d25dce28a9131fde2710719060200160405180910390a350505050565b6120a96126ea565b6120b285612738565b6120bc85336127e0565b6120d085846120cb8186613122565b613137565b6121483386868686866040516024016120ee9695949392919061556f565b60408051601f198184030181529190526020810180516001600160e01b03166310faff9560e31b1790526001600160a01b037f00000000000000000000000000000000000000000000000000000000000000001690612713565b50610c4d8585612ab4565b604354610100900460ff16158080156121735750604354600160ff909116105b8061218d5750303b15801561218d575060435460ff166001145b6121f55760405162461bcd60e51b815260206004820152602e60248201527f496e697469616c697a61626c653a20636f6e747261637420697320616c72656160448201526d191e481a5b9a5d1a585b1a5e995960921b60648201526084015b60405180910390fd5b6043805460ff191660011790558015612218576043805461ff0019166101001790555b61226e6001600160a01b037f0000000000000000000000000000000000000000000000000000000000000000167f00000000000000000000000000000000000000000000000000000000000000006000196131cc565b600f82905561227c83613208565b8015611287576043805461ff0019169055604051600181527f7f26b83ff96e1f2b6a682f133852f6798a09c465da95921460cefb38474024989060200160405180910390a1505050565b6122ce6126ea565b6122d782612738565b61230c6001600160a01b037f000000000000000000000000000000000000000000000000000000000000000016333084612771565b6001600160a01b038216600090815260208181526040808320338452909152812060010180548392906123409084906155b3565b909155505060405181815233906001600160a01b038416907f05c2d01f05f37971d15b22586be2f1933a1ae8c0079a056a430b4391550ffb2d9060200160405180910390a35050565b6112878282336040516024016123a1939291906155c6565b60408051601f198184030181529190526020810180516001600160e01b03166312fd759760e11b1790526001600160a01b037f00000000000000000000000000000000000000000000000000000000000000001690612713565b6000818152600d6020908152604091829020825160c08101845281546001600160a01b0390811680835260018401549091169382019390935260028201549381019390935260038101546060840152600481015460808401526005015460ff16151560a08301523314612481576040516342f062b760e01b815260040160405180910390fd5b6113048160200151838360000151600061287d565b6000818152600d60209081526040808320815160c08101835281546001600160a01b039081168083526001840154909116948201859052600283015493820193909352600382015460608201526004820154608082015260059091015460ff16151560a082015291839161250a9190612c0a565b5190506000819003612520575060009392505050565b6111d382602001516000831361253757600161253a565b60005b84604001518560a00151613244565b6125516127c5565b601055565b61255e6126ea565b60408051600180825281830190925260009160208083019080368337019050509050818160008151811061259457612594615203565b60200260200101818152505061128733826040516024016112aa92919061533d565b6125e16040518060800160405280600081526020016000815260200160008152602001600081525090565b506001600160a01b0316600090815260076020908152604091829020825160808101845281548152600182015492810192909252600281015492820192909252600390910154606082015290565b6126376127c5565b63389a75e1600c52806000526020600c20805442111561265f57636f5e88186000526004601cfd5b60009055611ed781612e86565b6126746127c5565b8060601b61268a57637448fbae6000526004601cfd5b611ed781612e86565b61269b6127c5565b600f55565b60008082600001516000036126ba575060009050806126e3565b6126c88484600001516132fc565b91506126e08284604001516000866000015112613719565b90505b9250929050565b60435462010000900460ff166116d557604051637dc579d960e11b815260040160405180910390fd5b606061113683836040518060600160405280602781526020016158a660279139613761565b6001600160a01b03811660009081526003602052604090205460ff16611ed7576040516304c1bb0360e11b815260040160405180910390fd5b60405181606052826040528360601b602c526323b872dd60601b600c52602060006064601c6000895af13d1560016000511417166127b757637939f4246000526004601cfd5b600060605260405250505050565b638b78c6d8195433146116d5576382b429006000526004601cfd5b6127ea8282612c0a565b6080015143036113045760405163fd4b12b160e01b815260040160405180910390fd5b6001600160a01b038083166000908152602081815260408083209385168352929052908120549081900361113957604051631d5fdf4760e11b815260040160405180910390fd5b61286084848484613244565b611e53576040516315f3d48360e01b815260040160405180910390fd5b6000838152600d6020908152604080832080546001600160a01b031990811682556001820180549091169055600281018490556003810184905560048101849055600501805460ff191690556001600160a01b038581168452600b8352818420908816845282528083208054825181850281018501909352808352919290919083018282801561292c57602002820191906000526020600020905b815481526020019060010190808311612918575b5050505050905060008151905080600103612976576001600160a01b038085166000908152600b60209081526040808320938a168352929052908120612971916148bc565b612a65565b60005b81811015612a19578583828151811061299457612994615203565b602002602001015103612a1157826129ad6001846155f4565b815181106129bd576129bd615203565b6020908102919091018101516001600160a01b038088166000908152600b84526040808220928c16825291909352909120805483908110612a0057612a00615203565b600091825260209091200155612a19565b600101612979565b506001600160a01b038085166000908152600b60209081526040808320938a16835292905220805480612a4e57612a4e615607565b600190038181906000526020600020016000905590555b6040516001600160a01b038481168252808616919088169087907f241cba1e62c0c28760eb65132303f670a906fac442064deb7a20da98ce538ed29060200160405180910390a4505050505050565b600f546000819003612ac557505050565b6000836001600160a01b031663604096326040518163ffffffff1660e01b8152600401602060405180830381865afa158015612b05573d6000803e3d6000fd5b505050506040513d601f19601f82011682018060405250810190612b2991906153ed565b90506000846001600160a01b03166358c0994a6040518163ffffffff1660e01b8152600401602060405180830381865afa158015612b6b573d6000803e3d6000fd5b505050506040513d601f19601f82011682018060405250810190612b8f91906153ed565b9050836001811115612ba357612ba3614dc4565b818311612bb1576000612bb4565b60015b6001811115612bc557612bc5614dc4565b03612bd1575050505050565b6000612be782612be185826137cf565b906137e6565b9050838111156112835760405163a6dea22360e01b815260040160405180910390fd5b612c3c6040518060a0016040528060008152602001600081526020016000815260200160008152602001600081525090565b506001600160a01b03918216600090815260208181526040808320939094168252918252829020825160a0810184528154815260018201549281019290925260028101549282019290925260038201546060820152600490910154608082015290565b80516000908103612cb257506000611139565b6000612d33612d24856001600160a01b03166346558d1b6040518163ffffffff1660e01b8152600401602060405180830381865afa158015612cf8573d6000803e3d6000fd5b505050506040513d601f19601f82011682018060405250810190612d1c91906153ed565b8551906137fb565b60ff81901c6000039081011890565b905060008084600001511315612d6a57612d508460400151613827565b612d5983613827565b612d63919061561d565b9050612d8d565b612d7382613827565b612d808560400151613827565b612d8a919061561d565b90505b6000612d9a868684612f57565b606001519050856001600160a01b0316634f3c15426040518163ffffffff1660e01b8152600401602060405180830381865afa158015612dde573d6000803e3d6000fd5b505050506040513d601f19601f82011682018060405250810190612e0291906153ed565b612e0c82856137e6565b109695505050505050565b6000808312818312808214158215612e3557612e328661563d565b95505b8115612e4757612e448561563d565b94505b612e62612e5d8787670de0b6b3a7640000613840565b613827565b93508015612e7d57612e738461563d565b9350505050611139565b50505092915050565b638b78c6d81980546001600160a01b039092169182907f8be0079c531659141344cd1fd0a4f28419497f9722a3daafe3b4186f6b6457e0600080a355565b816014528060345263a9059cbb60601b60005260206000604460106000875af13d156001600051141716612f00576390b8ec186000526004601cfd5b6000603452505050565b60008082128015612f2157612f1e8361563d565b92505b612f37612e5d8585670de0b6b3a7640000613840565b91508015612f5057612f488261563d565b915050611139565b5092915050565b612f826040518060800160405280600081526020016000815260200160008152602001600081525090565b6001600160a01b0384166000908152600560205260409020548152825115612fc757825160608401518251612fc19291612fbb9161561d565b90612e17565b60208201525b6000612fd68460200151613827565b6020830151612fe5908561561d565b612fef919061544a565b9050600081126130055760608201819052613017565b60ff81901c6000038082011860408301525b509392505050565b60008061302c84846126a0565b91509150600061303f8460200151613827565b9050600080831361305957613054838361544a565b61305b565b815b905060006130c4876001600160a01b031663bce2020d6040518163ffffffff1660e01b8152600401602060405180830381865afa1580156130a0573d6000803e3d6000fd5b505050506040513d601f19601f82011682018060405250810190612e5d91906153ed565b9050600080876000015113156130ea5760408701516130e39083612f0a565b90506130f7565b6130f48683612f0a565b90505b6000613103828561561d565b12156118b05760405163845dfc3960e01b815260040160405180910390fd5b60006111368383670de0b6b3a7640000613840565b6000836001600160a01b031663bce2020d6040518163ffffffff1660e01b8152600401602060405180830381865afa158015613177573d6000803e3d6000fd5b505050506040513d601f19601f8201168201806040525081019061319b91906153ed565b905060006131a984846137e6565b905081811015610c4d576040516357809b3160e01b815260040160405180910390fd5b816014528060345263095ea7b360601b60005260206000604460106000875af13d156001600051141716612f0057633e3f8f736000526004601cfd5b6001600160a01b0316638b78c6d8198190558060007f8be0079c531659141344cd1fd0a4f28419497f9722a3daafe3b4186f6b6457e08180a350565b600080856001600160a01b031663604096326040518163ffffffff1660e01b8152600401602060405180830381865afa158015613285573d6000803e3d6000fd5b505050506040513d601f19601f820116820180604052508101906132a991906153ed565b90506000808660018111156132c0576132c0614dc4565b036132dd57836132d2578482116132d6565b8482105b90506132f1565b836132ea578482106132ee565b8482115b90505b159695505050505050565b60006133066148da565b60ff83901c600003808401186060820181905260000361332a576000915050611139565b836001600160a01b031663c24e38596040518163ffffffff1660e01b8152600401606060405180830381865afa158015613368573d6000803e3d6000fd5b505050506040513d601f19601f8201168201806040525081019061338c9190615406565b604084015260208301528152600083136133a75760016133aa565b60005b8160c0019060018111156133c0576133c0614dc4565b908160018111156133d3576133d3614dc4565b90525060018160c0015160018111156133ee576133ee614dc4565b1460e08201526001600160a01b0384166000908152600160208190526040822060c0840151909183919081111561342757613427614dc4565b600181111561343857613438614dc4565b8152602001908152602001600020905061346b613466836020015184600001516137e690919063ffffffff16565b6138ef565b60020b608083015260e08201516134fe906001600160a01b0387169063f36bdbc99061349857600061349b565b60015b85606001516040518363ffffffff1660e01b81526004016134bd929190615659565b602060405180830381865afa1580156134da573d6000803e3d6000fd5b505050506040513d601f19601f8201168201806040525081019061346691906153ed565b60020b60a083015260e0820151156135255781608001805161351f90615670565b60020b90525b6000805b8360e00151613548578360a0015160020b846080015160020b1361355a565b8360a0015160020b846080015160020b125b1561364657608084015160e085015161357891859160019015613929565b60029190910b608086015290508015613623576135fa6040518060e0016040528086606001518152602001866000015181526020018660200151815260200186604001518152602001896001600160a01b03168152602001866080015160020b81526020018660c0015160018111156135f3576135f3614dc4565b9052613ae6565b602088015286526060860191909152915061361582866155b3565b606085015190955015613646575b8360e001516136415783608001805161363b90615670565b60020b90525b613529565b60608401511561370f578360e001511561369e578360200151846060015110613680576001846020015161367a91906155f4565b60608501525b83606001518460200181815161369691906155f4565b9052506136b8565b8360600151846020018181516136b491906155b3565b9052505b60006136d5856020015186604001516137e690919063ffffffff16565b90506137016136e78660000151613827565b6136f083613827565b818113818303929091038218021890565b61370b90876155b3565b9550505b5050505092915050565b60008061372584613827565b9050600061373286613827565b9050831561374b57613744818361561d565b9250613758565b613755828261561d565b92505b50509392505050565b6060600080856001600160a01b03168560405161377e91906156b7565b600060405180830381855af49150503d80600081146137b9576040519150601f19603f3d011682016040523d82523d6000602084013e6137be565b606091505b509150915061375586838387613d9b565b60006111366137dd83613827565b6136f085613827565b600061113683670de0b6b3a764000084613840565b60008083128015612f215761380f8461563d565b9350612f37612e5d8585670de0b6b3a7640000613840565b6000600160ff1b821061383c5761383c613e14565b5090565b60008383026000198486098181108201900380613875578361386a5763ae47f7026000526004601cfd5b508290049050611534565b80841161388a5763ae47f7026000526004601cfd5b838587096000858103861695869004956003870260029081188089028203028089028203028089028203028089028203028089028203028089029091030291819003819004600101858411909403939093029190930391909104170290509392505050565b600061113961391b670de0b6b3a7640000606061390b86613e22565b61391692911b6156e9565b613ebb565b6001600160a01b0316613ed0565b6000808061393785876156fd565b905060008660020b12801561395757506139518587615737565b60020b15155b1561396a578061396681615670565b9150505b8315613a175760008061397c8361420a565b90925090506000600160ff831681901b9061399790826155f4565b6139a191906155b3565b600184900b600090815260208c9052604090205481168015159650909150856139e157886139d260ff851687615759565b6139dc919061577e565b613a0c565b886139eb8261422a565b6139f5908561579e565b613a029060ff1687615759565b613a0c919061577e565b965050505050613adc565b600080613a2d613a288460016157b7565b61420a565b90925090506000613a45600160ff841681901b6155f4565b600184900b600090815260208c905260409020549019908116801515965090915085613a9e5788613a778460ff61579e565b60ff16613a858760016157b7565b613a8f91906157b7565b613a99919061577e565b613ad5565b8883613aa98361431a565b613ab3919061579e565b60ff16613ac18760016157b7565b613acb91906157b7565b613ad5919061577e565b9650505050505b5094509492505050565b60808101516001600160a01b0316600090815260026020526040812060c0830151829182918291829182906001811115613b2257613b22614dc4565b6001811115613b3357613b33614dc4565b815260200190815260200160002060008760a0015160020b60020b81526020019081526020016000206040518060400160405290816000820154815260200160018201805480602002602001604051908101604052809291908181526020018280548015613bc057602002820191906000526020600020905b815481526020019060010190808311613bac575b50505050508152505090506000600c600083602001516001856020015151613be891906155f4565b81518110613bf857613bf8615203565b6020026020010151815260200190815260200160002060020154905080600003613c3a5750508451602086015160408701519195506000945092509050613d94565b6000613c6e613c4c8960400151613827565b6136f0612e5d613c69868d606001516137e690919063ffffffff16565b613e22565b8851909150811115613c7e575086515b8088600001818151613c9091906155f4565b90525060008860c001516001811115613cab57613cab614dc4565b14613ccd578088604001818151613cc291906155f4565b915081815250613ce6565b8088604001818151613cdf91906155b3565b9150818152505b5060408801516060890151613cfa916137e6565b9450613d138860400151866137e690919063ffffffff16565b9150613d2e613d258960200151613827565b6136f087613827565b885190965015613d84578251600090613d4790846137e6565b8951909150811115613d57575087515b8089600001818151613d6991906155f4565b905250613d768184613122565b613d8090886155b3565b9650505b5050855160408701519095509150505b9193509193565b60608315613e0a578251600003613e03576001600160a01b0385163b613e035760405162461bcd60e51b815260206004820152601d60248201527f416464726573733a2063616c6c20746f206e6f6e2d636f6e747261637400000060448201526064016121ec565b50816111d3565b6111d38383614445565b6335278d126000526004601cfd5b6000611139613e3983670de0b6b3a76400006157dc565b6001600160881b03811160071b81811c68ffffffffffffffffff1060061b1781811c64ffffffffff1060051b1781811c62ffffff1060041b1781811c620100000160b5600192831c1b0260121c80830401811c80830401811c80830401811c80830401811c80830401811c80830401811c80830401901c908190048111900390565b6000600160a01b821061383c5761383c613e14565b60006401000276a36001600160a01b03831610801590613f0c575073fffd8963efd1fc6a506488495d951d5263988d266001600160a01b038316105b613f3c5760405162461bcd60e51b81526020600482015260016024820152602960f91b60448201526064016121ec565b640100000000600160c01b03602083901b166001600160801b03811160071b81811c67ffffffffffffffff811160061b90811c63ffffffff811160051b90811c61ffff811160041b90811c60ff8111600390811b91821c600f811160021b90811c918211600190811b92831c97908811961790941790921717909117171760808110613fd757613fcd607f826155f4565b83901c9150613fe8565b613fe281607f6155f4565b83901b91505b60006040613ff760808461561d565b901b9050828302607f1c92508260801c80603f1b8217915083811c935050828302607f1c92508260801c80603e1b8217915083811c935050828302607f1c92508260801c80603d1b8217915083811c935050828302607f1c92508260801c80603c1b8217915083811c935050828302607f1c92508260801c80603b1b8217915083811c935050828302607f1c92508260801c80603a1b8217915083811c935050828302607f1c92508260801c8060391b8217915083811c935050828302607f1c92508260801c8060381b8217915083811c935050828302607f1c92508260801c8060371b8217915083811c935050828302607f1c92508260801c8060361b8217915083811c935050828302607f1c92508260801c8060351b8217915083811c935050828302607f1c92508260801c8060341b8217915083811c935050828302607f1c92508260801c8060331b8217915083811c935050828302607f1c92508260801c8060321b8217915050600081693627a301d71055774c8561417a91906157f3565b90506000608061419a6f028f6481ab7f045a5af012a19d003aaa8461561d565b901d9050600060806141bc846fdb2df09e81959a81455e260799a0632f61544a565b901d90508060020b8260020b146141fb57886001600160a01b03166141e08261446f565b6001600160a01b031611156141f557816141fd565b806141fd565b815b9998505050505050505050565b600281900b60081d600061422061010084615737565b60020b9050915091565b600080821161423857600080fd5b600160801b821061425657608091821c916142539082615823565b90505b68010000000000000000821061427957604091821c916142769082615823565b90505b640100000000821061429857602091821c916142959082615823565b90505b6201000082106142b557601091821c916142b29082615823565b90505b61010082106142d157600891821c916142ce9082615823565b90505b601082106142ec57600491821c916142e99082615823565b90505b6004821061430757600291821c916143049082615823565b90505b6002821061197857611139600182615823565b600080821161432857600080fd5b5060ff6001600160801b0382161561434c5761434560808261579e565b9050614354565b608082901c91505b67ffffffffffffffff8216156143765761436f60408261579e565b905061437e565b604082901c91505b63ffffffff82161561439c5761439560208261579e565b90506143a4565b602082901c91505b61ffff8216156143c0576143b960108261579e565b90506143c8565b601082901c91505b60ff8216156143e3576143dc60088261579e565b90506143eb565b600882901c91505b600f821615614406576143ff60048261579e565b905061440e565b600482901c91505b60038216156144295761442260028261579e565b9050614431565b600282901c91505b60018216156119785761113960018261579e565b8151156144555781518083602001fd5b8060405162461bcd60e51b81526004016121ec919061583c565b60008060008360020b12614486578260020b614493565b8260020b6144939061563d565b90506144a2620d89e71961586f565b60020b8111156144d85760405162461bcd60e51b81526020600482015260016024820152601560fa1b60448201526064016121ec565b6000816001166000036144ef57600160801b614501565b6ffffcb933bd6fad37aa2d162d1a5940015b6001600160881b031690506002821615614536576080614531826ffff97272373d413259a46990580e213a6157dc565b901c90505b600482161561456057608061455b826ffff2e50f5f656932ef12357cf3c7fdcc6157dc565b901c90505b600882161561458a576080614585826fffe5caca7e10e4e61c3624eaa0941cd06157dc565b901c90505b60108216156145b45760806145af826fffcb9843d60f6159c9db58835c9266446157dc565b901c90505b60208216156145de5760806145d9826fff973b41fa98c081472e6896dfb254c06157dc565b901c90505b6040821615614608576080614603826fff2ea16466c96a3843ec78b326b528616157dc565b901c90505b608082161561463257608061462d826ffe5dee046a99a2a811c461f1969c30536157dc565b901c90505b61010082161561465d576080614658826ffcbe86c7900a88aedcffc83b479aa3a46157dc565b901c90505b610200821615614688576080614683826ff987a7253ac413176f2b074cf7815e546157dc565b901c90505b6104008216156146b35760806146ae826ff3392b0822b70005940c7a398e4b70f36157dc565b901c90505b6108008216156146de5760806146d9826fe7159475a2c29b7443b29c7fa6e889d96157dc565b901c90505b611000821615614709576080614704826fd097f3bdfd2022b8845ad8f792aa58256157dc565b901c90505b61200082161561473457608061472f826fa9f746462d870fdf8a65dc1f90e061e56157dc565b901c90505b61400082161561475f57608061475a826f70d869a156d2a1b890bb3df62baf32f76157dc565b901c90505b61800082161561478a576080614785826f31be135f97d08fd981231505542fcfa66157dc565b901c90505b620100008216156147b65760806147b1826f09aa508b5b7a84e1c677de54f3e99bc96157dc565b901c90505b620200008216156147e15760806147dc826e5d6af8dedb81196699c329225ee6046157dc565b901c90505b6204000082161561480b576080614806826d2216e584f5fa1ea926041bedfe986157dc565b901c90505b6208000082161561483357608061482e826b048a170391f7dc42444e8fa26157dc565b901c90505b60008460020b131561484e5761484b816000196156e9565b90505b61485d64010000000082615891565b1561486957600161486c565b60005b6111d39060ff16602083901c6155b3565b6040805160e081018252600080825260208201819052909182019081526020016000815260200160008152602001600081526020016000151581525090565b5080546000825590600052602060002090810190611ed79190614936565b60405180610100016040528060008152602001600081526020016000815260200160008152602001600060020b8152602001600060020b81526020016000600181111561492957614929614dc4565b8152600060209091015290565b5b8082111561383c5760008155600101614937565b6001600160a01b0381168114611ed757600080fd5b6000806040838503121561497357600080fd5b823561497e8161494b565b9150602083013561498e8161494b565b809150509250929050565b60008083601f8401126149ab57600080fd5b50813567ffffffffffffffff8111156149c357600080fd5b60208301915083602060e0830285010111156126e357600080fd5b600080600080604085870312156149f457600080fd5b843567ffffffffffffffff80821115614a0c57600080fd5b818701915087601f830112614a2057600080fd5b813581811115614a2f57600080fd5b8860208260051b8501011115614a4457600080fd5b602092830196509450908601359080821115614a5f57600080fd5b50614a6c87828801614999565b95989497509550505050565b60008060008060808587031215614a8e57600080fd5b8435614a998161494b565b966020860135965060408601359560600135945092505050565b8015158114611ed757600080fd5b60008060408385031215614ad457600080fd5b8235614adf8161494b565b9150602083013561498e81614ab3565b600060208284031215614b0157600080fd5b5035919050565b634e487b7160e01b600052604160045260246000fd5b604051601f8201601f1916810167ffffffffffffffff81118282101715614b4757614b47614b08565b604052919050565b80356002811061197857600080fd5b600060e08284031215614b7057600080fd5b60405160e0810181811067ffffffffffffffff82111715614b9357614b93614b08565b6040529050808235614ba48161494b565b81526020830135614bb48161494b565b6020820152614bc560408401614b4f565b6040820152606083013560608201526080830135608082015260a083013560a082015260c0830135614bf681614ab3565b60c0919091015292915050565b6000806101008385031215614c1757600080fd5b823591506126e08460208501614b5e565b600060208284031215614c3a57600080fd5b81356115348161494b565b60008060208385031215614c5857600080fd5b823567ffffffffffffffff811115614c6f57600080fd5b614c7b85828601614999565b90969095509350505050565b600081518084526020808501945080840160005b83811015614cb757815187529582019590820190600101614c9b565b509495945050505050565b6020815260006111366020830184614c87565b600080600060608486031215614cea57600080fd5b8335614cf58161494b565b95602085013595506040909401359392505050565b600067ffffffffffffffff821115614d2457614d24614b08565b5060051b60200190565b60006020808385031215614d4157600080fd5b823567ffffffffffffffff811115614d5857600080fd5b8301601f81018513614d6957600080fd5b8035614d7c614d7782614d0a565b614b1e565b81815260059190911b82018301908381019087831115614d9b57600080fd5b928401925b82841015614db957833582529284019290840190614da0565b979650505050505050565b634e487b7160e01b600052602160045260246000fd5b60028110611ed757634e487b7160e01b600052602160045260246000fd5b80516001600160a01b039081168352602080830151909116908301526040810151614e2281614dda565b6040830152606081810151908301526080808201519083015260a0808201519083015260c0908101511515910152565b60e081016111398284614df8565b600060c08284031215614e7257600080fd5b50919050565b600060c08284031215614e8a57600080fd5b6111368383614e60565b600080600060608486031215614ea957600080fd5b8335614eb48161494b565b92506020840135614ec48161494b565b929592945050506040919091013590565b600060e08284031215614e7257600080fd5b60008060008060808587031215614efd57600080fd5b8435614f088161494b565b9350602085013592506040850135614f1f8161494b565b9396929550929360600135925050565b8151815260208083015190820152604080830151908201526060808301519082015260808101611139565b60008060408385031215614f6d57600080fd5b8235614f788161494b565b946020939093013593505050565b600060208284031215614f9857600080fd5b813561153481614ab3565b600080600080600060a08688031215614fbb57600080fd5b8535614fc68161494b565b9450614fd460208701614b4f565b94979496505050506040830135926060810135926080909101359150565b60008060e0838503121561500557600080fd5b823591506126e08460208501614e60565b8183526000602080850194508260005b85811015614cb75781356150398161494b565b6001600160a01b03908116885282840135906150548261494b565b16878401526040615066838201614b4f565b61506f81614dda565b90880152606082810135908801526080808301359088015260a0808301359088015260c0808301356150a081614ab3565b15159088015260e0968701969190910190600101615026565b6001600160a01b0386168152606060208201819052810184905260006001600160fb1b038511156150e957600080fd5b8460051b808760808501378201828103608090810160408501526151109082018587615016565b98975050505050505050565b6001600160a01b0386168152602080820186905260408083018690526060808401869052845160808501529184015160a084015283015160c083015282015160e082015261010081015b9695505050505050565b6000806040838503121561518357600080fd5b505080516020909101519092909150565b6000602082840312156151a657600080fd5b815161153481614ab3565b6001600160a01b038881168252878116602083015260e08201906151d488614dda565b87604084015286606084015285608084015280851660a08401525082151560c083015298975050505050505050565b634e487b7160e01b600052603260045260246000fd5b600081518084526020808501945080840160005b83811015614cb757615240878351614df8565b60e096909601959082019060010161522d565b6001600160a01b038416815260606020820181905260009061527790830185614c87565b82810360408401526151668185615219565b6001600160a01b03841681526040602082018190526000906152ae9083018486615016565b95945050505050565b600060208083850312156152ca57600080fd5b825167ffffffffffffffff8111156152e157600080fd5b8301601f810185136152f257600080fd5b8051615300614d7782614d0a565b81815260059190911b8201830190838101908783111561531f57600080fd5b928401925b82841015614db957835182529284019290840190615324565b6001600160a01b03831681526040602082018190526000906111d390830184614c87565b803561536c8161494b565b6001600160a01b0390811683526020820135906153888261494b565b16602083015260408181013590830152606080820135908301526080808201359083015260a08101356153ba81614ab3565b80151560a0840152505050565b60e081016153d58285615361565b6001600160a01b039290921660c09190910152919050565b6000602082840312156153ff57600080fd5b5051919050565b60008060006060848603121561541b57600080fd5b8351925060208401519150604084015190509250925092565b634e487b7160e01b600052601160045260246000fd5b808201828112600083128015821682158216171561546a5761546a615434565b505092915050565b6000806000806080858703121561548857600080fd5b505082516020840151604085015160609095015191969095509092509050565b600060e082840312156154ba57600080fd5b6111368383614b5e565b6001600160a01b03831681526040602082018190526000906111d390830184615219565b6001600160a01b03841681526020810183905260c081016111d36040830184805182526020810151602083015260408101516040830152606081015160608301525050565b6001600160a01b038681168252858116602083015260a082019061555086614dda565b8560408401528460608401528084166080840152509695505050505050565b6001600160a01b0387811682528616602082015260c0810161559086614dda565b8560408301528460608301528360808301528260a0830152979650505050505050565b8082018082111561113957611139615434565b83815261010081016155db6020830185615361565b6001600160a01b039290921660e0919091015292915050565b8181038181111561113957611139615434565b634e487b7160e01b600052603160045260246000fd5b8181036000831280158383131683831282161715612f5057612f50615434565b6000600160ff1b820161565257615652615434565b5060000390565b6040810161566684614dda565b9281526020015290565b60008160020b627fffff19810361568957615689615434565b6000190192915050565b60005b838110156156ae578181015183820152602001615696565b50506000910152565b600082516156c9818460208701615693565b9190910192915050565b634e487b7160e01b600052601260045260246000fd5b6000826156f8576156f86156d3565b500490565b60008160020b8360020b80615714576157146156d3565b627fffff1982146000198214161561572e5761572e615434565b90059392505050565b60008260020b8061574a5761574a6156d3565b808360020b0791505092915050565b600282810b9082900b03627fffff198112627fffff8213171561113957611139615434565b60008260020b8260020b028060020b9150808214612f5057612f50615434565b60ff828116828216039081111561113957611139615434565b600281810b9083900b01627fffff8113627fffff198212171561113957611139615434565b808202811582820484141761113957611139615434565b80820260008212600160ff1b8414161561580f5761580f615434565b818105831482151761113957611139615434565b60ff818116838216019081111561113957611139615434565b602081526000825180602084015261585b816040850160208701615693565b601f01601f19169190910160400192915050565b60008160020b627fffff19810361588857615888615434565b60000392915050565b6000826158a0576158a06156d3565b50069056fe416464726573733a206c6f772d6c6576656c2064656c65676174652063616c6c206661696c6564a26469706673582212207eb7c41685f7e8fd2479363b5758b5eabe6db97e71deaaa08544824c25e2a49464736f6c63430008130033",
		"linkReferences": {}
	},
	"methodIdentifiers": {
		"addLiquidity(address,uint256,uint256,uint256)": "1ece366a",
		"addMargin(address,uint256)": "cf70cb69",
		"cancelOwnershipHandover()": "54d1f13d",
		"closePosition(address,uint256,uint256)": "4fa9c4db",
		"closePositionKeeper(uint256)": "23c16e22",
		"completeOwnershipHandover(address)": "f04e283e",
		"createLimitOrder((address,address,uint8,uint256,uint256,uint256,bool))": "7eb02406",
		"createLimitOrderBatch((address,address,uint8,uint256,uint256,uint256,bool)[])": "4a6ebce7",
		"createTriggerOrder((address,address,uint256,uint256,uint256,bool))": "68d85297",
		"deleteLimitOrder(uint256)": "e859f372",
		"deleteLimitOrderBatch(uint256[])": "517237a9",
		"deleteTriggerOrder(uint256)": "da8c7e40",
		"forceLiquidate(address,address)": "aa317dc0",
		"getAMMData(address)": "98712fe4",
		"getCumulativePremiumFraction(address)": "6ea41e40",
		"getCumulativePremiumFractionPerShare(address)": "d3123a80",
		"getDivergenceCap()": "5ac3b62d",
		"getFeeGrowth(address)": "b346679b",
		"getLimitOrder(uint256)": "53061026",
		"getMinOrderbookMargin()": "987362da",
		"getOpenInterestNotional(address)": "429e9237",
		"getPosition(address,address)": "b33dc190",
		"getPositionNotionalUpnl(address,address)": "0e86a08d",
		"getPositionNotionalUpnlByPosition(address,int256,uint256)": "6467024c",
		"getReduceOnlyOrders(address,address)": "73af0205",
		"getTotalPositionSize(address)": "e980e16e",
		"getTriggerOrder(uint256)": "36cef3d9",
		"getTriggerOrders(address,address)": "54b85a3e",
		"getValidAMM(address)": "9dda4e4f",
		"initialize(address,uint256)": "cd6dc687",
		"isActive()": "22f3e2d4",
		"isLiquidatable(address,address)": "3966a28b",
		"isTriggerOrderValid(uint256)": "dd2a65ed",
		"liquidate(address,uint256,address,uint256)": "9457be23",
		"liquidateMaker(address,address,uint256)": "7aefce97",
		"openPosition(address,uint8,uint256,uint256,uint256)": "cbb50e61",
		"owner()": "8da5cb5b",
		"ownershipHandoverExpiresAt(address)": "fee81cf4",
		"ownershipHandoverValidFor()": "d7533f02",
		"removeLiquidity(address,uint256)": "a201ccf6",
		"removeMargin(address,uint256)": "b959d695",
		"renounceOwnership()": "715018a6",
		"requestOwnershipHandover()": "25692962",
		"setActive(bool)": "acec338a",
		"setDivergenceCap(uint256)": "f8b6e449",
		"setMinOrderbookMargin(uint256)": "e3046770",
		"setValidAMM(address,bool)": "207b5b6f",
		"settleFunding(address)": "6b17ad03",
		"transferOwnership(address)": "f2fde38b",
		"updateLimitOrder(uint256,(address,address,uint8,uint256,uint256,uint256,bool))": "2a120de4",
		"updateLimitOrderBatch(uint256[],(address,address,uint8,uint256,uint256,uint256,bool)[])": "13dee2d1",
		"updateTriggerOrder(uint256,(address,address,uint256,uint256,uint256,bool))": "d2435052"
	},
	"id": 43
}